{"abi":[{"type":"constructor","inputs":[{"name":"swapImpl_","type":"address","internalType":"contract PartyPoolSwapImpl"},{"name":"mintImpl","type":"address","internalType":"contract PartyPoolMintImpl"}],"stateMutability":"nonpayable"},{"type":"function","name":"burnAmounts","inputs":[{"name":"pool","type":"address","internalType":"contract IPartyPool"},{"name":"lpTokenAmount","type":"uint256","internalType":"uint256"}],"outputs":[{"name":"withdrawAmounts","type":"uint256[]","internalType":"uint256[]"}],"stateMutability":"view"},{"type":"function","name":"burnSwapAmounts","inputs":[{"name":"pool","type":"address","internalType":"contract IPartyPool"},{"name":"lpAmount","type":"uint256","internalType":"uint256"},{"name":"inputTokenIndex","type":"uint256","internalType":"uint256"}],"outputs":[{"name":"amountOut","type":"uint256","internalType":"uint256"}],"stateMutability":"view"},{"type":"function","name":"flashFee","inputs":[{"name":"pool","type":"address","internalType":"contract IPartyPool"},{"name":"","type":"address","internalType":"address"},{"name":"amount","type":"uint256","internalType":"uint256"}],"outputs":[{"name":"fee","type":"uint256","internalType":"uint256"}],"stateMutability":"view"},{"type":"function","name":"flashRepaymentAmounts","inputs":[{"name":"pool","type":"address","internalType":"contract IPartyPool"},{"name":"loanAmounts","type":"uint256[]","internalType":"uint256[]"}],"outputs":[{"name":"repaymentAmounts","type":"uint256[]","internalType":"uint256[]"}],"stateMutability":"view"},{"type":"function","name":"maxFlashLoan","inputs":[{"name":"pool","type":"address","internalType":"contract IPartyPool"},{"name":"token","type":"address","internalType":"address"}],"outputs":[{"name":"","type":"uint256","internalType":"uint256"}],"stateMutability":"view"},{"type":"function","name":"mintAmounts","inputs":[{"name":"pool","type":"address","internalType":"contract IPartyPool"},{"name":"lpTokenAmount","type":"uint256","internalType":"uint256"}],"outputs":[{"name":"depositAmounts","type":"uint256[]","internalType":"uint256[]"}],"stateMutability":"view"},{"type":"function","name":"poolPrice","inputs":[{"name":"pool","type":"address","internalType":"contract IPartyPool"},{"name":"quoteTokenIndex","type":"uint256","internalType":"uint256"}],"outputs":[{"name":"","type":"int128","internalType":"int128"}],"stateMutability":"view"},{"type":"function","name":"price","inputs":[{"name":"pool","type":"address","internalType":"contract IPartyPool"},{"name":"baseTokenIndex","type":"uint256","internalType":"uint256"},{"name":"quoteTokenIndex","type":"uint256","internalType":"uint256"}],"outputs":[{"name":"","type":"int128","internalType":"int128"}],"stateMutability":"view"},{"type":"function","name":"swapMintAmounts","inputs":[{"name":"pool","type":"address","internalType":"contract IPartyPool"},{"name":"inputTokenIndex","type":"uint256","internalType":"uint256"},{"name":"maxAmountIn","type":"uint256","internalType":"uint256"}],"outputs":[{"name":"amountInUsed","type":"uint256","internalType":"uint256"},{"name":"fee","type":"uint256","internalType":"uint256"},{"name":"lpMinted","type":"uint256","internalType":"uint256"}],"stateMutability":"view"},{"type":"function","name":"swapToLimitAmounts","inputs":[{"name":"pool","type":"address","internalType":"contract IPartyPool"},{"name":"inputTokenIndex","type":"uint256","internalType":"uint256"},{"name":"outputTokenIndex","type":"uint256","internalType":"uint256"},{"name":"limitPrice","type":"int128","internalType":"int128"}],"outputs":[{"name":"amountIn","type":"uint256","internalType":"uint256"},{"name":"amountOut","type":"uint256","internalType":"uint256"},{"name":"fee","type":"uint256","internalType":"uint256"}],"stateMutability":"view"}],"bytecode":{"object":"0x60c03461009a57601f612f5338819003918201601f19168301916001600160401b0383118484101761009e57808492604094855283398101031261009a578051906001600160a01b038216820361009a5760200151906001600160a01b038216820361009a5760805260a052604051612ea090816100b38239608051816104f7015260a0518181816109aa0152818161115701526118da0152f35b5f80fd5b634e487b7160e01b5f52604160045260245ffdfe6080806040526004361015610012575f80fd5b5f3560e01c9081630ab75fef146119d7575080630db4cdda146117615780633a06daa2146114de57806344e48a9c1461126d57806397c6481214610fde578063ad84489314610eff578063b9c0d20414610a5a578063bfb5cdc51461075e578063c63a9743146102c85763f58aeea31461008a575f80fd5b346102635760407ffffffffffffffffffffffffffffffffffffffffffffffffffffffffffffffffc360112610263576100c1611a76565b6024359067ffffffffffffffff82116102635736602383011215610263578160040135916100ee83611bb2565b926100fc6040519485611b44565b8084526024602085019160051b8301019136831161026357602401905b8282106102b8578473ffffffffffffffffffffffffffffffffffffffff8516604051907f476e44b60000000000000000000000000000000000000000000000000000000082525f82600481845afa91821561026f575f92610294575b506101808251611dde565b925f5b835181101561027a576101968183611e59565b5190816101a8575b6001915001610183565b6040517f31596a6a000000000000000000000000000000000000000000000000000000008152602081600481885afa801561026f575f90610238575b6101ef91508361213b565b820180921161020b576001916102058288611e59565b5261019e565b7f4e487b71000000000000000000000000000000000000000000000000000000005f52601160045260245ffd5b506020813d8211610267575b8161025160209383611b44565b81010312610263576101ef90516101e4565b5f80fd5b3d9150610244565b6040513d5f823e3d90fd5b6040516020808252819061029090820188611b11565b0390f35b6102b19192503d805f833e6102a98183611b44565b810190611bd8565b9083610175565b8135815260209182019101610119565b346102635760807ffffffffffffffffffffffffffffffffffffffffffffffffffffffffffffffffc360112610263576102ff611a76565b6024356044356064359283600f0b8094036102635773ffffffffffffffffffffffffffffffffffffffff16916040517f476e44b60000000000000000000000000000000000000000000000000000000081525f81600481875afa90811561026f575f91610744575b508051808310908161073a575b50156106dc575f85131561067e57805115610620576040517f017cf6610000000000000000000000000000000000000000000000000000000081525f81600481885afa90811561026f575f916105fe575b50604051907f6bba3f2f000000000000000000000000000000000000000000000000000000008252602082600481895afa91821561026f575f926105ba575b5060206040600494015196604051948580927f10ebae830000000000000000000000000000000000000000000000000000000082525afa92831561026f575f93610583575b50906060956104a06104d893604051998a9889987fbf05a0a6000000000000000000000000000000000000000000000000000000008a5260048a01526024890152604488015260e0606488015260e4870190611b11565b91600f0b60848601527ffffffffffffffffffffffffffffffffffffffffffffffffffffffffffffffffc8583030160a4860152611d48565b9060c4830152038173ffffffffffffffffffffffffffffffffffffffff7f0000000000000000000000000000000000000000000000000000000000000000165afa801561026f575f905f925f9161054c575b5061029090604051938493846040919493926060820195825260208201520152565b90506102909250610575915060603d60601161057c575b61056d8183611b44565b810190611d2d565b909261052a565b503d610563565b919092506020823d6020116105b2575b816105a060209383611b44565b81010312610263579051916060610449565b3d9150610593565b9291506020833d6020116105f6575b816105d660209383611b44565b8101031261026357602060406105ed600495611bca565b93945050610404565b3d91506105c9565b61061a91503d805f833e6106128183611b44565b810190611cb3565b866103c5565b60646040517f08c379a000000000000000000000000000000000000000000000000000000000815260206004820152601f60248201527f73776170546f4c696d69743a20706f6f6c20756e696e697469616c697a6564006044820152fd5b60646040517f08c379a000000000000000000000000000000000000000000000000000000000815260206004820152601760248201527f73776170546f4c696d69743a206c696d6974203c3d20300000000000000000006044820152fd5b60646040517f08c379a000000000000000000000000000000000000000000000000000000000815260206004820152601060248201527f73776170546f4c696d69743a20696478000000000000000000000000000000006044820152fd5b9050831086610374565b61075891503d805f833e6102a98183611b44565b85610367565b346102635760407ffffffffffffffffffffffffffffffffffffffffffffffffffffffffffffffffc3601126102635773ffffffffffffffffffffffffffffffffffffffff6107aa611a76565b166040517f476e44b60000000000000000000000000000000000000000000000000000000081525f81600481855afa90811561026f575f91610a40575b506107f28151611dde565b5f5b825181101561091157604051907fe4b50cb8000000000000000000000000000000000000000000000000000000008252806004830152602082602481885afa91821561026f5773ffffffffffffffffffffffffffffffffffffffff926020915f916108e4575b506024604051809581937f70a082310000000000000000000000000000000000000000000000000000000083528a6004840152165afa801561026f575f906108b2575b600192506108ab8285611e59565b52016107f4565b506020823d82116108dc575b816108cb60209383611b44565b81010312610263576001915161089d565b3d91506108be565b6109049150823d811161090a575b6108fc8183611b44565b810190611e2d565b8761085a565b503d6108f2565b509160206004925191604051938480927f18160ddd0000000000000000000000000000000000000000000000000000000082525afa90811561026f575f91610a0c575b5f925061099160405194859384937faee1e8be00000000000000000000000000000000000000000000000000000000855260243560048601611e9a565b038173ffffffffffffffffffffffffffffffffffffffff7f0000000000000000000000000000000000000000000000000000000000000000165afa801561026f57610290915f916109f2575b50604051918291602083526020830190611b11565b610a0691503d805f833e6106128183611b44565b826109dd565b90506020823d602011610a38575b81610a2760209383611b44565b81010312610263575f915190610954565b3d9150610a1a565b610a5491503d805f833e6102a98183611b44565b826107e7565b346102635760407ffffffffffffffffffffffffffffffffffffffffffffffffffffffffffffffffc36011261026357610a91611a76565b73ffffffffffffffffffffffffffffffffffffffff6024359116906040517f476e44b60000000000000000000000000000000000000000000000000000000081525f81600481865afa90811561026f575f91610ee5575b50805115610e87578051821015610e2957805191604051917f6bba3f2f000000000000000000000000000000000000000000000000000000008352602083600481885afa92831561026f575f93610deb575b50604001928351610b4c828410611ec0565b610b5581612015565b93610b6f855f81600f0b1392610b6a84611f25565b6120fb565b90610b7e5f83600f0b13611f8a565b15610d8d57610b90909392919361204a565b925f935f935b838510610d2a578888610bb3610bac8a8a6120b5565b9151612015565b905f82600f0b1315610ccc576020600493604051948580927f18160ddd0000000000000000000000000000000000000000000000000000000082525afa92831561026f575f93610c98575b508215610c3a57677fffffffffffffff831161026357610c29610c2f9260209460401b600f0b6120b5565b906120fb565b60405190600f0b8152f35b60646040517f08c379a000000000000000000000000000000000000000000000000000000000815260206004820152601660248201527f706f6f6c50726963653a207a65726f20737570706c79000000000000000000006044820152fd5b9092506020813d602011610cc4575b81610cb460209383611b44565b8101031261026357519183610bfe565b3d9150610ca7565b60646040517f08c379a000000000000000000000000000000000000000000000000000000000815260206004820152601660248201527f706f6f6c50726963653a2071546f74616c207a65726f000000000000000000006044820152fd5b9091929394610d82600191610d7c610d69610d6487610b6a610d4c8d8c611e59565b51600f0b610d5a8a8d611e59565b51600f0b9061217a565b6121f4565b610d738a89611e59565b51600f0b6120fb565b906121b7565b950193929190610b96565b60646040517f08c379a000000000000000000000000000000000000000000000000000000000815260206004820152600f60248201527f4c4d53523a2073697a65207a65726f00000000000000000000000000000000006044820152fd5b9092506020813d602011610e21575b81610e0760209383611b44565b8101031261026357610e1a604091611bca565b9290610b3a565b3d9150610dfa565b60646040517f08c379a000000000000000000000000000000000000000000000000000000000815260206004820152600e60248201527f706f6f6c50726963653a206964780000000000000000000000000000000000006044820152fd5b60646040517f08c379a000000000000000000000000000000000000000000000000000000000815260206004820152601160248201527f706f6f6c50726963653a20756e696e69740000000000000000000000000000006044820152fd5b610ef991503d805f833e6102a98183611b44565b83610ae8565b346102635760607ffffffffffffffffffffffffffffffffffffffffffffffffffffffffffffffffc3601126102635773ffffffffffffffffffffffffffffffffffffffff6020610f4d611a76565b610f55611a99565b506004604051809481937f31596a6a000000000000000000000000000000000000000000000000000000008352165afa90811561026f575f91610faa575b6020610fa183604435611fef565b50604051908152f35b90506020813d602011610fd6575b81610fc560209383611b44565b810103126102635751610fa1610f93565b3d9150610fb8565b346102635773ffffffffffffffffffffffffffffffffffffffff61100136611abc565b6040517f476e44b60000000000000000000000000000000000000000000000000000000081529390921691905f84600481865afa93841561026f575f94611251575b50604051937f10ebae83000000000000000000000000000000000000000000000000000000008552602085600481875afa94851561026f575f9561121d575b50604051937f017cf6610000000000000000000000000000000000000000000000000000000085525f85600481845afa94851561026f575f956111f9575b50906020600492604051938480927f18160ddd0000000000000000000000000000000000000000000000000000000082525afa91821561026f575f926111c4575b509060209461113e9260405197889687967f85b14c7e00000000000000000000000000000000000000000000000000000000885260048801611d7e565b038173ffffffffffffffffffffffffffffffffffffffff7f0000000000000000000000000000000000000000000000000000000000000000165afa801561026f575f90611191575b602090604051908152f35b506020813d6020116111bc575b816111ab60209383611b44565b810103126102635760209051611186565b3d915061119e565b91506020823d6020116111f1575b816111df60209383611b44565b81010312610263579051906020611101565b3d91506111d2565b6004929195506112146020913d805f833e6106128183611b44565b959192506110c0565b9094506020813d602011611249575b8161123960209383611b44565b8101031261026357519385611082565b3d915061122c565b6112669194503d805f833e6102a98183611b44565b9284611043565b346102635760407ffffffffffffffffffffffffffffffffffffffffffffffffffffffffffffffffc3601126102635773ffffffffffffffffffffffffffffffffffffffff6112b9611a76565b166040517f476e44b60000000000000000000000000000000000000000000000000000000081525f81600481855afa90811561026f575f916114c4575b506113018151611dde565b5f5b825181101561141057604051907fe4b50cb8000000000000000000000000000000000000000000000000000000008252806004830152602082602481885afa91821561026f5773ffffffffffffffffffffffffffffffffffffffff926020915f916113f3575b506024604051809581937f70a082310000000000000000000000000000000000000000000000000000000083528a6004840152165afa801561026f575f906113c1575b600192506113ba8285611e59565b5201611303565b506020823d82116113eb575b816113da60209383611b44565b8101031261026357600191516113ac565b3d91506113cd565b61140a9150823d811161090a576108fc8183611b44565b87611369565b509160206004925191604051938480927f18160ddd0000000000000000000000000000000000000000000000000000000082525afa90811561026f575f91611490575b5f925061099160405194859384937f6f712e2900000000000000000000000000000000000000000000000000000000855260243560048601611e9a565b90506020823d6020116114bc575b816114ab60209383611b44565b81010312610263575f915190611453565b3d915061149e565b6114d891503d805f833e6102a98183611b44565b826112f6565b346102635773ffffffffffffffffffffffffffffffffffffffff61150136611abc565b6040517f476e44b600000000000000000000000000000000000000000000000000000000815293909216925f81600481875afa90811561026f575f91611747575b508051808310908161173d575b50156116df57805115611681578060206004925195604051938480927f6bba3f2f0000000000000000000000000000000000000000000000000000000082525afa91821561026f575f92611619575b50602094610d5a610d64946116056115fe6115eb610c2f99976115d36040610b6a99015197808710908161160f575b50611ec0565b6115dc87612015565b90610b6a5f83600f0b13611f25565b6115f95f82600f0b13611f8a565b61204a565b9584611e59565b51600f0b92611e59565b90508a108e6115cd565b909391506020813d602011611679575b8161163660209383611b44565b8101031261026357602094610d5a610d64946116056115fe6115eb610c2f996115d36040611666610b6a9a611bca565b9a9c50505096505050509450509461159e565b3d9150611629565b60646040517f08c379a000000000000000000000000000000000000000000000000000000000815260206004820152600d60248201527f70726963653a20756e696e6974000000000000000000000000000000000000006044820152fd5b60646040517f08c379a000000000000000000000000000000000000000000000000000000000815260206004820152600a60248201527f70726963653a20696478000000000000000000000000000000000000000000006044820152fd5b905083108561154f565b61175b91503d805f833e6102a98183611b44565b84611542565b346102635773ffffffffffffffffffffffffffffffffffffffff61178436611abc565b6040517f476e44b60000000000000000000000000000000000000000000000000000000081529390921691905f84600481865afa93841561026f575f946119bb575b50604051937f10ebae83000000000000000000000000000000000000000000000000000000008552602085600481875afa94851561026f575f95611987575b50604051937f017cf6610000000000000000000000000000000000000000000000000000000085525f85600481845afa94851561026f575f95611963575b50906020600492604051938480927f18160ddd0000000000000000000000000000000000000000000000000000000082525afa91821561026f575f9261192e575b50906060946118c19260405197889687967fa991e20a00000000000000000000000000000000000000000000000000000000885260048801611d7e565b038173ffffffffffffffffffffffffffffffffffffffff7f0000000000000000000000000000000000000000000000000000000000000000165afa801561026f575f905f925f9161054c575061029090604051938493846040919493926060820195825260208201520152565b91506020823d60201161195b575b8161194960209383611b44565b81010312610263579051906060611884565b3d915061193c565b60049291955061197e6020913d805f833e6106128183611b44565b95919250611843565b9094506020813d6020116119b3575b816119a360209383611b44565b8101031261026357519385611805565b3d9150611996565b6119d09194503d805f833e6102a98183611b44565b92846117c6565b346102635760407ffffffffffffffffffffffffffffffffffffffffffffffffffffffffffffffffc36011261026357602081602481611a14611a76565b73ffffffffffffffffffffffffffffffffffffffff80611a32611a99565b16917f70a082310000000000000000000000000000000000000000000000000000000084521660048301525afa801561026f575f9061119157602090604051908152f35b6004359073ffffffffffffffffffffffffffffffffffffffff8216820361026357565b6024359073ffffffffffffffffffffffffffffffffffffffff8216820361026357565b7ffffffffffffffffffffffffffffffffffffffffffffffffffffffffffffffffc60609101126102635760043573ffffffffffffffffffffffffffffffffffffffff8116810361026357906024359060443590565b90602080835192838152019201905f5b818110611b2e5750505090565b8251845260209384019390920191600101611b21565b90601f7fffffffffffffffffffffffffffffffffffffffffffffffffffffffffffffffe0910116810190811067ffffffffffffffff821117611b8557604052565b7f4e487b71000000000000000000000000000000000000000000000000000000005f52604160045260245ffd5b67ffffffffffffffff8111611b855760051b60200190565b519081600f0b820361026357565b6020818303126102635780519067ffffffffffffffff821161026357019060608282031261026357604051916060830183811067ffffffffffffffff821117611b855760405280518352611c2e60208201611bca565b602084015260408101519067ffffffffffffffff821161026357019080601f83011215610263578151611c6081611bb2565b92611c6e6040519485611b44565b81845260208085019260051b82010192831161026357602001905b828210611c9b57505050604082015290565b60208091611ca884611bca565b815201910190611c89565b6020818303126102635780519067ffffffffffffffff821161026357019080601f83011215610263578151611ce781611bb2565b92611cf56040519485611b44565b81845260208085019260051b82010192831161026357602001905b828210611d1d5750505090565b8151815260209182019101611d10565b90816060910312610263578051916040602083015192015190565b90602080835192838152019201905f5b818110611d655750505090565b8251600f0b845260209384019390920191600101611d58565b9695949160a094611dd994604092611dcb948b5260208b0152828a015260c060608a0152805160c08a01526020810151600f0b60e08a015201516060610100890152610120880190611d48565b908682036080880152611b11565b930152565b90611de882611bb2565b611df56040519182611b44565b8281527fffffffffffffffffffffffffffffffffffffffffffffffffffffffffffffffe0611e238294611bb2565b0190602036910137565b90816020910312610263575173ffffffffffffffffffffffffffffffffffffffff811681036102635790565b8051821015611e6d5760209160051b010190565b7f4e487b71000000000000000000000000000000000000000000000000000000005f52603260045260245ffd5b9092608092611ebd95948352602083015260408201528160608201520190611b11565b90565b15611ec757565b60646040517f08c379a000000000000000000000000000000000000000000000000000000000815260206004820152600960248201527f4c4d53523a2069647800000000000000000000000000000000000000000000006044820152fd5b15611f2c57565b60646040517f08c379a000000000000000000000000000000000000000000000000000000000815260206004820152601660248201527f4c4d53523a2073697a65206d6574726963207a65726f000000000000000000006044820152fd5b15611f9157565b60646040517f08c379a000000000000000000000000000000000000000000000000000000000815260206004820152600a60248201527f4c4d53523a20623c3d30000000000000000000000000000000000000000000006044820152fd5b9190801561200f57612001908361213b565b9182810390811161020b5790565b505f9190565b5f90815b81518310156120445761203c6001916120328585611e59565b51600f0b906121b7565b920191612019565b91505090565b600f0b801561026357700100000000000000000000000000000000057fffffffffffffffffffffffffffffffff800000000000000000000000000000008112158061209b575b1561026357600f0b90565b506f7fffffffffffffffffffffffffffffff811315612090565b90600f0b9081156102635760401b60170b057fffffffffffffffffffffffffffffffff800000000000000000000000000000008112158061209b571561026357600f0b90565b90600f0b90600f0b0260401d7fffffffffffffffffffffffffffffffff800000000000000000000000000000008112158061209b571561026357600f0b90565b81156121745781810291818304149015171561020b57620f424081019081811161020b57620f423f0190811161020b57620f4240900490565b50505f90565b90600f0b90600f0b037fffffffffffffffffffffffffffffffff800000000000000000000000000000008112158061209b571561026357600f0b90565b90600f0b90600f0b017fffffffffffffffffffffffffffffffff800000000000000000000000000000008112158061209b571561026357600f0b90565b600f0b68400000000000000000811215610263577fffffffffffffffffffffffffffffffffffffffffffffffc00000000000000000811261225157700171547652b82fe1777d0ffda0d23a7d12611ebd910260801d600f0b612256565b505f90565b80600f0b68400000000000000000811215610263577fffffffffffffffffffffffffffffffffffffffffffffffc000000000000000008112612174576f80000000000000000000000000000000915f6780000000000000008216600f0b13612e52575b5f6740000000000000008216600f0b13612e35575b5f6720000000000000008216600f0b13612e18575b5f6710000000000000008216600f0b13612dfb575b5f6708000000000000008216600f0b13612dde575b5f6704000000000000008216600f0b13612dc1575b5f6702000000000000008216600f0b13612da4575b5f6701000000000000008216600f0b13612d87575b5f66800000000000008216600f0b13612d6a575b5f66400000000000008216600f0b13612d4d575b5f66200000000000008216600f0b13612d30575b5f66100000000000008216600f0b13612d13575b5f66080000000000008216600f0b13612cf6575b5f66040000000000008216600f0b13612cd9575b5f66020000000000008216600f0b13612cbc575b5f66010000000000008216600f0b13612c9f575b5f658000000000008216600f0b13612c82575b5f654000000000008216600f0b13612c65575b5f652000000000008216600f0b13612c48575b5f651000000000008216600f0b13612c2b575b5f650800000000008216600f0b13612c0e575b5f650400000000008216600f0b13612bf1575b5f650200000000008216600f0b13612bd4575b5f650100000000008216600f0b13612bb7575b5f6480000000008216600f0b13612b9a575b5f6440000000008216600f0b13612b7d575b5f6420000000008216600f0b13612b60575b5f6410000000008216600f0b13612b43575b5f6408000000008216600f0b13612b26575b5f6404000000008216600f0b13612b09575b5f6402000000008216600f0b13612aec575b5f6401000000008216600f0b13612acf575b5f63800000008216600f0b13612ab2575b5f63400000008216600f0b13612a95575b5f63200000008216600f0b13612a78575b5f63100000008216600f0b13612a5b575b5f63080000008216600f0b13612a3e575b5f63040000008216600f0b13612a21575b5f63020000008216600f0b13612a04575b5f63010000008216600f0b136129e7575b5f628000008216600f0b136129ca575b5f624000008216600f0b136129ad575b5f622000008216600f0b13612990575b5f621000008216600f0b13612973575b5f620800008216600f0b13612956575b5f620400008216600f0b13612939575b5f620200008216600f0b1361291c575b5f620100008216600f0b136128ff575b5f6180008216600f0b136128e2575b5f6140008216600f0b136128c5575b5f6120008216600f0b136128a8575b5f6110008216600f0b1361288b575b5f6108008216600f0b1361286e575b5f6104008216600f0b13612851575b5f6102008216600f0b13612834575b5f6101008216600f0b13612817575b5f60808216600f0b136127fa575b5f60408216600f0b136127dd575b5f60208216600f0b136127c0575b5f60108216600f0b136127a3575b5f60088216600f0b13612786575b5f60048216600f0b13612769575b5f60028216600f0b1361274b575b60015f9116600f0b1361272e575b60401d600f0b603f03600f0b1c6f7fffffffffffffffffffffffffffffff811161026357600f0b90565b9070010000000000000000b17217f7d1cf79ab0260801c90612704565b7001000000000000000162e42fefa39ef35890920260801c916126f6565b9170010000000000000002c5c85fdf473de6b20260801c916126e8565b91700100000000000000058b90bfbe8e7bcd6d0260801c916126da565b917001000000000000000b17217f7d1cf79afa0260801c916126cc565b91700100000000000000162e42fefa39ef366f0260801c916126be565b917001000000000000002c5c85fdf473de6eca0260801c916126b0565b9170010000000000000058b90bfbe8e7bce5440260801c916126a2565b91700100000000000000b17217f7d1cf79e9490260801c91612694565b9170010000000000000162e42fefa39ef44d910260801c91612685565b91700100000000000002c5c85fdf473dea871f0260801c91612676565b917001000000000000058b90bfbe8e7bdcbe2e0260801c91612667565b9170010000000000000b17217f7d1cf7d83c1a0260801c91612658565b917001000000000000162e42fefa39f02b772c0260801c91612649565b9170010000000000002c5c85fdf473e242ea380260801c9161263a565b91700100000000000058b90bfbe8e7cc35c3f00260801c9161262b565b917001000000000000b17217f7d1cfb72b45e10260801c9161261c565b91700100000000000162e42fefa39fe95583c20260801c9161260c565b917001000000000002c5c85fdf4741bea6e77e0260801c916125fc565b9170010000000000058b90bfbe8e8b2d3d4ede0260801c916125ec565b91700100000000000b17217f7d1d351a389d400260801c916125dc565b9170010000000000162e42fefa3ae53369388c0260801c916125cc565b91700100000000002c5c85fdf477b662b269450260801c916125bc565b917001000000000058b90bfbe8f71cb4e4b33d0260801c916125ac565b9170010000000000b17217f7d20cf927c8e94c0260801c9161259c565b917001000000000162e42fefa494f1478fde050260801c9161258b565b9170010000000002c5c85fdf4b15de6f17eb0d0260801c9161257a565b91700100000000058b90bfbe9ddbac5e109cce0260801c91612569565b917001000000000b17217f7d5a7716bba4a9ae0260801c91612558565b91700100000000162e42fefb2fed257559bdaa0260801c91612547565b917001000000002c5c85fdf84bd62ae30a74cc0260801c91612536565b9170010000000058b90bfbf8479bd5a81b51ad0260801c91612525565b91700100000000b17217f80f4ef5aadda455540260801c91612514565b9170010000000162e42ff0999ce3541b9fffcf0260801c91612502565b91700100000002c5c85fe31f35a6a30da1be500260801c916124f0565b917001000000058b90bfcdee5acd3c1cedc8230260801c916124de565b9170010000000b17217fba9c739aa5819f44f90260801c916124cc565b917001000000162e42fff037df38aa2b219f060260801c916124ba565b9170010000002c5c8601cc6b9e94213c72737a0260801c916124a8565b91700100000058b90c0b48c6be5df846c5b2ef0260801c91612496565b917001000000b1721835514b86e6d96efd1bfe0260801c91612484565b91700100000162e430e5a18f6119e3c02282a50260801c91612471565b917001000002c5c863b73f016468f6bac5ca2b0260801c9161245e565b9170010000058b90cf1e6d97f9ca14dbcc16280260801c9161244b565b91700100000b1721bcfc99d9f890ea069117630260801c91612438565b9170010000162e43f4f831060e02d839a9d16d0260801c91612425565b91700100002c5c89d5ec6ca4d7c8acc017b7c90260801c91612412565b917001000058b91b5bc9ae2eed81e9b7d4cfab0260801c916123ff565b9170010000b17255775c040618bf4a4ade83fc0260801c916123ec565b917001000162e525ee054754457d59952920260260801c916123d8565b9170010002c5cc37da9491d0985c348c68e7b30260801c916123c4565b91700100058ba01fb9f96d6cacd4b180917c3d0260801c916123b0565b917001000b175effdc76ba38e31671ca9397250260801c9161239c565b91700100162f3904051fa128bca9c55c31e5df0260801c91612388565b917001002c605e2e8cec506d21bfc89a23a00f0260801c91612374565b9170010058c86da1c09ea1ff19d294cf2f679b0260801c91612360565b91700100b1afa5abcbed6129ab13ec11dc95430260801c9161234c565b9170010163da9fb33356d84a66ae336dcdfa3f0260801c91612337565b91700102c9a3e778060ee6f7caca4f7a29bde80260801c91612322565b917001059b0d31585743ae7c548eb68ca417fd0260801c9161230d565b9170010b5586cf9890f6298b92b71842a983630260801c916122f8565b917001172b83c7d517adcdf7c8c50eb14a791f0260801c916122e3565b917001306fe0a31b7152de8d5a46305c85edec0260801c916122ce565b6fb504f333f9de6484597d89b3754abe9f92506122b956fea2646970667358221220dc5d39a95692216dd917511f072dbd1703de2bf445ce898922399ff1aba0c20f64736f6c634300081e0033","linkReferences":{}},"methodIdentifiers":{"burnAmounts(address,uint256)":"44e48a9c","burnSwapAmounts(address,uint256,uint256)":"97c64812","flashFee(address,address,uint256)":"ad844893","flashRepaymentAmounts(address,uint256[])":"f58aeea3","maxFlashLoan(address,address)":"0ab75fef","mintAmounts(address,uint256)":"bfb5cdc5","poolPrice(address,uint256)":"b9c0d204","price(address,uint256,uint256)":"3a06daa2","swapMintAmounts(address,uint256,uint256)":"0db4cdda","swapToLimitAmounts(address,uint256,uint256,int128)":"c63a9743"},"id":55}