{"abi":[{"type":"constructor","inputs":[{"name":"poolInitCodeStorage","type":"address","internalType":"contract PartyPoolInitCode"}],"stateMutability":"nonpayable"},{"type":"function","name":"params","inputs":[],"outputs":[{"name":"","type":"tuple","internalType":"struct IPartyPoolDeployer.DeployParams","components":[{"name":"nonce","type":"bytes32","internalType":"bytes32"},{"name":"owner","type":"address","internalType":"address"},{"name":"name","type":"string","internalType":"string"},{"name":"symbol","type":"string","internalType":"string"},{"name":"tokens","type":"address[]","internalType":"contract IERC20[]"},{"name":"kappa","type":"int128","internalType":"int128"},{"name":"fees","type":"uint256[]","internalType":"uint256[]"},{"name":"bases","type":"uint256[]","internalType":"uint256[]"},{"name":"protocolFeePpm","type":"uint256","internalType":"uint256"},{"name":"mintDeviationPpm","type":"uint256","internalType":"uint256"},{"name":"emaShiftBlocks","type":"uint8","internalType":"uint8"},{"name":"maxGammaPerWindowPpm","type":"uint256","internalType":"uint256"},{"name":"mintLockBlocks","type":"uint256","internalType":"uint256"},{"name":"protocolFeeAddress","type":"address","internalType":"address"},{"name":"wrapper","type":"address","internalType":"contract NativeWrapper"},{"name":"permit2","type":"address","internalType":"contract IPermit2"}]}],"stateMutability":"view"}],"bytecode":{"object":"0x60a03460bb57601f61089738819003918201601f19168301916001600160401b0383118484101760bf5780849260209460405283398101031260bb57516001600160a01b0381169081900360bb578015606a576080526040516107c390816100d48239608051815050f35b60405162461bcd60e51b815260206004820152602360248201527f4465706c6f7965723a207a65726f20706f6f6c2073746f72616765206164647260448201526265737360e81b6064820152608490fd5b5f80fd5b634e487b7160e01b5f52604160045260245ffdfe6080806040526004361015610012575f80fd5b5f3560e01c63cff0ab9614610025575f80fd5b34610688575f7ffffffffffffffffffffffffffffffffffffffffffffffffffffffffffffffffc360112610688576101e0816100615f93610702565b82815282602082015260606040820152606080820152606060808201528260a0820152606060c0820152606060e08201528261010082015282610120820152826101408201528261016082015282610180820152826101a0820152826101c082015201526040516100d181610702565b600154815273ffffffffffffffffffffffffffffffffffffffff6002541660208201908152604051915f6003548060011c916001821691821561067e575b6020841083146105ab57838752869290811561064157506001146105e2575b61013a9250038461074c565b60408101928352604051905f6004548060011c91600182169182156105d8575b6020841083146105ab57838652859290811561056e575060011461050f575b6101859250038361074c565b606081019182526040519384856020600554928381520160055f5260205f20925f5b8181106104e05750506101bc9250038661074c565b60808201948552600654600f0b9260a0830193845260405193600754808652856020810160075f5260205f20925f5b8181106104c75750506102009250038661074c565b60c084019485526040519485600854808252602082019060085f5260205f20905f5b8181106104ae5750505003610237908761074c565b60e08501958652600954956101008601968752600a546101208701908152600b5460ff16916101408801928352600c54936101608901948552600d54956101808a01968752600e5473ffffffffffffffffffffffffffffffffffffffff16976101a08b01988952600f5473ffffffffffffffffffffffffffffffffffffffff16996101c08c019a8b5260105473ffffffffffffffffffffffffffffffffffffffff169b6101e081019c8d526040519e8f91602083525160208301525173ffffffffffffffffffffffffffffffffffffffff169060400152518d606081016102009052610220016103269161068c565b90517fffffffffffffffffffffffffffffffffffffffffffffffffffffffffffffffe08e83030160808f015261035c919061068c565b9c519c8c8082037fffffffffffffffffffffffffffffffffffffffffffffffffffffffffffffffe0019060a001528d51908181526020019d602001905f5b81811061047e575050509373ffffffffffffffffffffffffffffffffffffffff999896938c610120819f8d9b989661040e6104409260ff988f9d9a51600f0b60c0880152517fffffffffffffffffffffffffffffffffffffffffffffffffffffffffffffffe08783030160e08801526106cf565b90517fffffffffffffffffffffffffffffffffffffffffffffffffffffffffffffffe0858303016101008601526106cf565b9d51910152516101408d015251166101608b0152516101808a0152516101a089015251166101c087015251166101e085015251166102008301520390f35b90919e8f5173ffffffffffffffffffffffffffffffffffffffff1681526020019e6020019060010191909161039a565b825484528a945060209093019260019283019201610222565b845483526001948501948a9450602090930192016101eb565b845473ffffffffffffffffffffffffffffffffffffffff1683526001948501948a9450602090930192016101a7565b5060045f90815290917f8a35acfbc15ff81a39ae7d344fd709f28e8600b4aa8c65c6b64bfe7fe36bd19b5b81831061055257505090602061018592820101610179565b602091935080600191548385890101520191019091849261053a565b602092506101859491507fffffffffffffffffffffffffffffffffffffffffffffffffffffffffffffff001682840152151560051b820101610179565b7f4e487b71000000000000000000000000000000000000000000000000000000005f52602260045260245ffd5b92607f169261015a565b5060035f90815290917fc2575a0e9e593c00f959f8c92f12db2869c3395a3b0502d05e2516446f71f85b5b81831061062557505090602061013a9282010161012e565b6020919350806001915483858a0101520191019091859261060d565b6020925061013a9491507fffffffffffffffffffffffffffffffffffffffffffffffffffffffffffffff001682840152151560051b82010161012e565b92607f169261010f565b5f80fd5b907fffffffffffffffffffffffffffffffffffffffffffffffffffffffffffffffe0601f602080948051918291828752018686015e5f8582860101520116010190565b90602080835192838152019201905f5b8181106106ec5750505090565b82518452602093840193909201916001016106df565b610200810190811067ffffffffffffffff82111761071f57604052565b7f4e487b71000000000000000000000000000000000000000000000000000000005f52604160045260245ffd5b90601f7fffffffffffffffffffffffffffffffffffffffffffffffffffffffffffffffe0910116810190811067ffffffffffffffff82111761071f5760405256fea2646970667358221220cb43bc2fa801a67a8984865ff1d0cbd4b72d7a9b4db488a59a9a1dee537f027064736f6c63430008230033","linkReferences":{}},"methodIdentifiers":{"params()":"cff0ab96"},"id":55}