{"abi":[{"type":"function","name":"creationCode","inputs":[],"outputs":[{"name":"","type":"bytes","internalType":"bytes"}],"stateMutability":"pure"}],"bytecode":{"object":"0x60808060405234601557615fc9908161001a8239f35b5f80fdfe6080600436101561000e575f80fd5b5f3560e01c637213edad14610021575f80fd5b34610117575f7ffffffffffffffffffffffffffffffffffffffffffffffffffffffffffffffffc36011261011757615e78907fffffffffffffffffffffffffffffffffffffffffffffffffffffffffffffffe0603f83011681019080821067ffffffffffffffff8311176100ea576040918252828152602081019261011c84397fffffffffffffffffffffffffffffffffffffffffffffffffffffffffffffffe0601f8351948593602085525180918160208701528686015e5f85828601015201168101030190f35b7f4e487b71000000000000000000000000000000000000000000000000000000005f52604160045260245ffd5b5f80fdfe6101c080604052346103b6576367f855cb60e11b81525f81600481335afa9081156103c2575f916103ef575b50608081019081515160e0526101c0810160018060a01b038151166080526101e0820160018060a01b0381511660a05260a08301918251600f0b61010052610100840193845161012052610120810163ffffffff81511661014052610140820160ff8151166101605261016083019063ffffffff8251166101805261018084019263ffffffff8451166101a052604051998a98630d65425d60e31b8a52602060048b0152865160248b015260018060a01b0360208801511660448b015261011d6101078b610200606460408c01519201526102248d0190610733565b60608901518c82036023190160848e0152610733565b9151916023198b82030160a48c0152602080845192838152019301905f5b8181106103cd5750505092899896949261019361017c60ff948c60209f9c9a9860c49051600f0b91015260c08901518d60e460231982850301910152610757565b60e08801518c8203602319016101048e0152610757565b98516101248b0152516101448a0152511661016488015251610184870152516101a48601526101a001516001600160a01b039081166101c4860152905181166101e4850152905116610204830152038173__$6422c726ac445123321d590d4432d36af2$__5af49081156103c2575f91610384575b5060c0526040516156ed908161078b823960805181818160240152818161026a0152818161088c01528181610b2c015281816110d9015281816115d40152818161276e015281816129f101528181612b920152612d62015260a05181818161029d01528181611109015281816116040152818161249b0152612590015260c0518181816102cd01528181611f47015281816147090152818161479301526147dd015260e0518181816102fd01528181610a3201528181611e90015281816146930152818161472d01526147bc015261010051818181611b77015261207501526101205181818161032401528181610ad7015281816114f401528181611c8501526125c701526101405181818161034c01528181611025015261152001526101605181818161037a0152818161085d01528181610b000152818161104f0152818161154a01526133050152610180518181816103a50152818161107c015261157701526101a0518181816103d3015281816110a901526115a40152f35b90506020813d6020116103ba575b8161039f60209383610633565b810103126103b6576103b090610656565b5f610208565b5f80fd5b3d9150610392565b6040513d5f823e3d90fd5b82516001600160a01b031685528e9c506020948501949092019160010161013b565b90503d805f833e6104008183610633565b8101906020818303126103b6578051906001600160401b0382116103b65701610200818303126103b6576040519161020083016001600160401b0381118482101761061f576040528151835261045860208301610656565b602084015260408201516001600160401b0381116103b6578161047c91840161066a565b604084015260608201516001600160401b0381116103b657816104a091840161066a565b606084015260808201516001600160401b0381116103b657820181601f820112156103b65780516104d0816106bf565b916104de6040519384610633565b81835260208084019260051b820101908482116103b657602001915b8183106105ff57505050608084015260a082015180600f0b81036103b65760a084015260c08201516001600160401b0381116103b6578161053c9184016106d6565b60c084015260e0820151906001600160401b0382116103b6576105609183016106d6565b60e083015261010081015161010083015261012081015161012083015261014081015160ff811681036103b6576101408301526101608101516101608301526101808101516101808301526105b86101a08201610656565b6101a08301526101c0810151906001600160a01b03821682036103b6576101c08301919091526101e001516001600160a01b03811681036103b6576101e08201525f61002b565b82516001600160a01b03811681036103b6578152602092830192016104fa565b634e487b7160e01b5f52604160045260245ffd5b601f909101601f19168101906001600160401b0382119082101761061f57604052565b51906001600160a01b03821682036103b657565b81601f820112156103b6578051906001600160401b03821161061f576040519261069e601f8401601f191660200185610633565b828452602083830101116103b657815f9260208093018386015e8301015290565b6001600160401b03811161061f5760051b60200190565b9080601f830112156103b65781516106ed816106bf565b926106fb6040519485610633565b81845260208085019260051b8201019283116103b657602001905b8282106107235750505090565b8151815260209182019101610716565b805180835260209291819084018484015e5f828201840152601f01601f1916010190565b90602080835192838152019201905f5b8181106107745750505090565b825184526020938401939092019160010161076756fe6080806040526004361015610090575b50361561001a575f80fd5b6001600160a01b037f000000000000000000000000000000000000000000000000000000000000000016330361004c57005b606460405162461bcd60e51b815260206004820152601560248201527f4554482066726f6d2077726170706572206f6e6c7900000000000000000000006044820152fd5b5f905f3560e01c908163017504b614613a2b5750806306fdde0314613900578063095ea7b31461387e57806318160ddd146138615780631f3a0e411461383f57806323b872dd1461370f578063313ce567146136f457806341c0e1b514613617578063452a9320146135f1578063476e44b6146134485780634ae93e1d14611df45780635935573614611d3c5780636b7b911214611c615780636d8d0ff314611af95780636ff97f1d14611a3157806370a08231146119f957806379ba5097146119295780637bb98a68146118a85780638258a856146113c25780638678102f14610eba5780638a0dac4a14610e375780638da5cb5b14610e1157806395d89b4114610ccd57806396d75bf6146109d657806398f06f2c14610756578063a1af5b9a1461068a578063a9059cbb14610658578063affed0e01461063a578063c051e38a14610584578063cce516b71461055d578063dd62ed3e1461050f578063e30c3978146104e8578063f2fde38b146104615763fdf536650361000f573461045e578060031936011261045e5760405161022a81613c18565b8181528160208201528160408201528160608201528160808201528160a08201528160c08201528160e0820152610100015260405161026881613c18565b7f00000000000000000000000000000000000000000000000000000000000000006001600160a01b03169081815260208101907f00000000000000000000000000000000000000000000000000000000000000006001600160a01b03168252604081017f00000000000000000000000000000000000000000000000000000000000000006001600160a01b03168152606082017f00000000000000000000000000000000000000000000000000000000000000008152608083017f0000000000000000000000000000000000000000000000000000000000000000815260a08401917f000000000000000000000000000000000000000000000000000000000000000063ffffffff16835260c08501937f000000000000000000000000000000000000000000000000000000000000000060ff16855260e08601957f000000000000000000000000000000000000000000000000000000000000000063ffffffff16875261010001967f000000000000000000000000000000000000000000000000000000000000000063ffffffff168852604051988952516001600160a01b03166020890152516001600160a01b031660408801525160608701525160808601525163ffffffff1660a08501525160ff1660c08401525163ffffffff1660e08301525163ffffffff1661010082015261012090f35b80fd5b503461045e57602060031936011261045e576001600160a01b03610483613b17565b61048b614652565b16807fffffffffffffffffffffffff000000000000000000000000000000000000000060015416176001556001600160a01b038254167f38d16b8cac22d99fc7c124b9cd0de2d3fa1faef420bfe791d8c362d765e227008380a380f35b503461045e578060031936011261045e5760206001600160a01b0360015416604051908152f35b503461045e57604060031936011261045e576001600160a01b036040610533613b17565b928261053d613b2d565b9416815260036020522091165f52602052602060405f2054604051908152f35b503461045e578060031936011261045e5760206001600160a01b0360125416604051908152f35b503461045e578060031936011261045e5760806040516105a381613bfc565b828152826020820152826040820152826060820152015260a0600f5467ffffffffffffffff81600f0b9160105490601154600f0b9083604051916105e683613bfc565b86835281602084019160801c168152816080604085019487600f0b865260608101968752019560801c1685526040519687525116602086015251600f0b604085015251600f0b606084015251166080820152f35b503461045e578060031936011261045e576020600754604051908152f35b503461045e57604060031936011261045e5761067f610675613b17565b6024359033613f7b565b602060405160018152f35b503461045e578060031936011261045e576106a361414f565b8073__$6422c726ac445123321d590d4432d36af2$__6001600160a01b0360125416813b156107525782906024604051809481937f2a54db0100000000000000000000000000000000000000000000000000000000835260048301525af4801561074757610732575b507f9b779b17422d0df92223018b32b4d1fa46e071723d6817e2486d003becc55f005d80f35b8161073c91613c35565b61045e57805f61070c565b6040513d84823e3d90fd5b5050fd5b503461045e5760c060031936011261045e57610770613b17565b90610779613b2d565b60643567ffffffffffffffff81116109c257610799903690600401613d14565b9060a435918215158093036109d2576107b061414f565b6001600160a01b036107c0614691565b9481604051987f0ba13311000000000000000000000000000000000000000000000000000000008a5216600489015216602487015260443560448701526101206064870152806101248701527f07ffffffffffffffffffffffffffffffffffffffffffffffffffffffffffffff81116109d2578493610144879485946108c79460051b809184880137850190608435608487015260a486015260ff7f00000000000000000000000000000000000000000000000000000000000000001660c48601526001600160a01b037f00000000000000000000000000000000000000000000000000000000000000001660e48601526003198286830301016101048601520190613f1a565b038173__$d4ee50103f5c7465ad0078df0eb4f457ce$__5af49081156109c6578091610925575b61092192507f9b779b17422d0df92223018b32b4d1fa46e071723d6817e2486d003becc55f005d60405191829182613a9b565b0390f35b90503d8082843e6109368184613c35565b8201916020818403126109be5780519067ffffffffffffffff82116109c2570182601f820112156109be5780519261096d84613f4d565b9161097b6040519384613c35565b84835260208084019560051b8201019182116109ba57602001935b8185106109aa5750506109219250906108ee565b8451815260209485019401610996565b8380fd5b5080fd5b8280fd5b604051903d90823e3d90fd5b8480fd5b503461045e5760e060031936011261045e576109f0613b17565b6109f8613b2d565b90606435610a04613b88565b90610a1460ff6008541615613e4d565b610a1c61414f565b610a57610a288261472b565b610a306147b8565b7f000000000000000000000000000000000000000000000000000000000000000091614867565b90610a60614691565b9260405194610180860186811067ffffffffffffffff821117610ca0576040526001600160a01b0316855260208501956001600160a01b0316865260408501926044358452606086019283526080860191608435835260a0870160a435815260c08801911515825260e088019283526101008801937f000000000000000000000000000000000000000000000000000000000000000085526101208901957f000000000000000000000000000000000000000000000000000000000000000060ff1687526101408a01977f00000000000000000000000000000000000000000000000000000000000000006001600160a01b031689526101608b01998a526040519b8c9b7f6c024e2f000000000000000000000000000000000000000000000000000000008d5260048d0160209052516001600160a01b031660248d0152516001600160a01b031660448c01525160648b01525160848a01525160a48901525160c488015251151560e487015251610104860152516101248501525160ff16610144840152516001600160a01b031661016483015251610184820161018090526101a48201610c0e91613f1a565b038173__$d4ee50103f5c7465ad0078df0eb4f457ce$__91815a93604094f480156107475782604093928192610c6e575b507f9b779b17422d0df92223018b32b4d1fa46e071723d6817e2486d003becc55f005d82519182526020820152f35b909250610c919150833d8511610c99575b610c898183613c35565b810190613f65565b90915f610c3f565b503d610c7f565b6024897f4e487b710000000000000000000000000000000000000000000000000000000081526041600452fd5b503461045e578060031936011261045e576040519080600654908160011c91600181168015610e07575b602084108114610dda57838652908115610d955750600114610d38575b61092184610d2481860382613c35565b604051918291602083526020830190613ad4565b600681527ff652222313e28459528d920b65115c16c04f3efc82aaedc97be59f3f377c0d3f939250905b808210610d7b57509091508101602001610d2482610d14565b919260018160209254838588010152019101909291610d62565b7fffffffffffffffffffffffffffffffffffffffffffffffffffffffffffffff001660208087019190915292151560051b85019092019250610d249150839050610d14565b6024837f4e487b710000000000000000000000000000000000000000000000000000000081526022600452fd5b92607f1692610cf7565b503461045e578060031936011261045e576001600160a01b036020915416604051908152f35b503461045e57602060031936011261045e57610e51613b17565b610e59614652565b6001600160a01b038060155416911680917fa14fc14d8620a708a896fd11392a235647d99385500a295f0d7da2a258b2e9678480a37fffffffffffffffffffffffff0000000000000000000000000000000000000000601554161760155580f35b5061012060031936011261045e57610ed0613b17565b610ed8613b59565b610ee0613b43565b60843567ffffffffffffffff81116109d257610f00903690600401613d14565b610f08613b88565b906101043567ffffffffffffffff81116113be57610f2a903690600401613ce6565b939094610f3c60ff6008541615613e4d565b610f4461414f565b610f4c614691565b96604051986102008a018a811067ffffffffffffffff82111761139157916001600160a01b037fffffffff0000000000000000000000000000000000000000000000000000000092819594604052168b521660208a01521660408801526064356060880152610fba82613f4d565b91610fc86040519384613c35565b808352602083019060051b82019136831161138d57905b82821061137d57896112d760408b8b6110188c8c8c8c608087015260a43560a0870152151560c086015260e43560e08601523691613cb0565b61010083015263ffffffff7f00000000000000000000000000000000000000000000000000000000000000001661012083015260ff7f00000000000000000000000000000000000000000000000000000000000000001661014083015263ffffffff7f00000000000000000000000000000000000000000000000000000000000000001661016083015263ffffffff7f0000000000000000000000000000000000000000000000000000000000000000166101808301526001600160a01b037f0000000000000000000000000000000000000000000000000000000000000000166101a08301526001600160a01b037f0000000000000000000000000000000000000000000000000000000000000000166101c08301526101e08201528151809381927f867dafe5000000000000000000000000000000000000000000000000000000008352602060048401526001600160a01b0381511660248401527fffffffff0000000000000000000000000000000000000000000000000000000060208201511660448401526001600160a01b0385820151166064840152606081015160848401526101e06112356111de608084015161020060a4880152610224870190613f1a565b60a084015160c487015260c0840151151560e487015260e08401516101048701526101008401517fffffffffffffffffffffffffffffffffffffffffffffffffffffffffffffffdc87830301610124880152613ad4565b9163ffffffff6101208201511661014486015260ff6101408201511661016486015263ffffffff6101608201511661018486015263ffffffff610180820151166101a48601526001600160a01b036101a0820151166101c48601526001600160a01b036101c0820151166101e486015201517fffffffffffffffffffffffffffffffffffffffffffffffffffffffffffffffdc84830301610204850152613f1a565b038173__$6422c726ac445123321d590d4432d36af2$__5af48015610747578260409392819261135b575b50807f9b779b17422d0df92223018b32b4d1fa46e071723d6817e2486d003becc55f005d47908161133c575b505082519182526020820152f35b80808061135494335af161134e613dd3565b50613e02565b838061132e565b9092506113759150833d8511610c9957610c898183613c35565b909184611302565b8135815260209182019101610fdf565b8980fd5b60248c7f4e487b710000000000000000000000000000000000000000000000000000000081526041600452fd5b8780fd5b5061014060031936011261045e576113d8613b17565b6113e0613b59565b6113e8613b43565b60643560e4358015158091036118a4576101243567ffffffffffffffff81116118a057611419903690600401613ce6565b91909261142b60ff6008541615613e4d565b61143361414f565b61143f610a288261472b565b94611448614691565b96604051986102608a018a811067ffffffffffffffff821117611391576117ca9a9896937fffffffff000000000000000000000000000000000000000000000000000000006114e697946001600160a01b0360809d9b98958195604052168c521660208b015216604089015260608801526084358888015260a43560a088015260c43560c088015260e0870152610104356101008701523691613cb0565b6101208401526101408301527f000000000000000000000000000000000000000000000000000000000000000061016083015263ffffffff7f00000000000000000000000000000000000000000000000000000000000000001661018083015260ff7f0000000000000000000000000000000000000000000000000000000000000000166101a083015263ffffffff7f0000000000000000000000000000000000000000000000000000000000000000166101c083015263ffffffff7f0000000000000000000000000000000000000000000000000000000000000000166101e08301526001600160a01b037f0000000000000000000000000000000000000000000000000000000000000000166102008301526001600160a01b037f000000000000000000000000000000000000000000000000000000000000000016610220830152610240820152604051809381927f648ba9f5000000000000000000000000000000000000000000000000000000008352602060048401526001600160a01b0381511660248401527fffffffff0000000000000000000000000000000000000000000000000000000060208201511660448401526001600160a01b036040820151166064840152606081015160848401528481015160a484015260a081015160c484015260c081015160e484015260e08101511515610104840152610100810151610124840152610240611710610120830151610260610144870152610284860190613ad4565b9161014081015161016486015261016081015161018486015263ffffffff610180820151166101a486015260ff6101a0820151166101c486015263ffffffff6101c0820151166101e486015263ffffffff6101e0820151166102048601526001600160a01b03610200820151166102248601526001600160a01b036102208201511661024486015201517fffffffffffffffffffffffffffffffffffffffffffffffffffffffffffffffdc84830301610264850152613f1a565b038173__$d4ee50103f5c7465ad0078df0eb4f457ce$__5af480156107475782918384918593611856575b50846080957f9b779b17422d0df92223018b32b4d1fa46e071723d6817e2486d003becc55f005d47908161183d575b5050604051938452602084015260408301526060820152f35b80808061184f94335af161134e613dd3565b5f80611824565b93505050506080813d608011611898575b8161187460809383613c35565b810103126109be5780516020820151604083015160609093015191929060806117f5565b3d9150611867565b8680fd5b8580fd5b503461045e578060031936011261045e5760405180916020600e54928381520191600e82527fbb7b4a454dc3493923482f07822329ed19e8244eff582cc204f8554c3620c3fd915b818110611913576109218561190781870382613c35565b60405191829182613a9b565b82548452602090930192600192830192016118f0565b503461045e578060031936011261045e57600154336001600160a01b038216036119cd577fffffffffffffffffffffffff0000000000000000000000000000000000000000166001558054337fffffffffffffffffffffffff000000000000000000000000000000000000000082161782556001600160a01b033391167f8be0079c531659141344cd1fd0a4f28419497f9722a3daafe3b4186f6b6457e08380a380f35b6024827f118cdaa700000000000000000000000000000000000000000000000000000000815233600452fd5b503461045e57602060031936011261045e5760406020916001600160a01b03611a20613b17565b168152600283522054604051908152f35b503461045e578060031936011261045e57604051806020600b5491828152018091600b85527f0175b7a638427703f0dbe7bb9bbf987a2551717b34e79f33b5b1008d1fa01db990855b818110611ada5750505082611a90910383613c35565b604051928392602084019060208552518091526040840192915b818110611ab8575050500390f35b82516001600160a01b0316845285945060209384019390920191600101611aaa565b82546001600160a01b0316845260209093019260019283019201611a7a565b50604060031936011261045e57611b0e613b17565b90611b1e60ff6008541615613e4d565b611b2661414f565b60206001600160a01b03611b38614691565b93611baf60405195869384937f2d4bc50000000000000000000000000000000000000000000000000000000000855216600484015260243560248401527f0000000000000000000000000000000000000000000000000000000000000000600f0b6044840152608060648401526084830190613f1a565b038173__$6422c726ac445123321d590d4432d36af2$__5af49081156109c6578091611c28575b60209250807f9b779b17422d0df92223018b32b4d1fa46e071723d6817e2486d003becc55f005d479081611c0f575b5050604051908152f35b808080611c2194335af161134e613dd3565b5f80611c05565b90506020823d602011611c59575b81611c4360209383613c35565b81010312611c55576020915190611bd6565b5f80fd5b3d9150611c36565b503461045e57602060031936011261045e57611c7b613b17565b611c83614652565b7f0000000000000000000000000000000000000000000000000000000000000000158015611d2a575b15611ce6576001600160a01b03167fffffffffffffffffffffffff0000000000000000000000000000000000000000601254161760125580f35b606460405162461bcd60e51b815260206004820152601060248201527f7a65726f206665652061646472657373000000000000000000000000000000006044820152fd5b506001600160a01b0381161515611cac565b503461045e57602060031936011261045e57611d56613b17565b906001600160a01b03604051927f5935573600000000000000000000000000000000000000000000000000000000845216600483015260208260248173__$6422c726ac445123321d590d4432d36af2$__5af49081156109c65790611dc1575b602090604051908152f35b506020813d602011611dec575b81611ddb60209383613c35565b81010312611c555760209051611db6565b3d9150611dce565b50610140600319360112611c5557611e0a613b17565b611e12613b59565b611e1a613b43565b9261010435918215158303611c55576101243567ffffffffffffffff8111611c555736602382011215611c5557611e5b903690602481600401359101613cb0565b90611e6461414f565b611e7360ff6008541615613e4d565b608435606435146134045760e4351580156133f8575b156133b4577f000000000000000000000000000000000000000000000000000000000000000094611eb986613f4d565b611ec66040519182613c35565b8681527fffffffffffffffffffffffffffffffffffffffffffffffffffffffffffffffe0611ef388613f4d565b01366020830137600a5f5260205f205f5b888110613390575050611f168161411a565b600f549067ffffffffffffffff82600f0b9260801c1643116132b3575b80600f0b82600f0b125f146132ab5750955b7f0000000000000000000000000000000000000000000000000000000000000000918860051b987f07ffffffffffffffffffffffffffffffffffffffffffffffffffffffffffffff811603612eb45788600101600111612eb4578892602060643560051b9181836001015f833c5f6001815194848260843560051b928284830187893c85519b010184863c82519e0101913c5f51908015611c555777ffffffffffffffffffffffffffffffffffffffffffffffff60a4351161314f576120109060a43560401b613ee3565b6fffffffffffffffffffffffffffffffff8111611c55576fffffffffffffffffffffffffffffffff166f7fffffffffffffffffffffffffffffff8111611c55576120a2996120b59361209992600f0b9061206b5f8313613e98565b60843590606435907f00000000000000000000000000000000000000000000000000000000000000006141c3565b9990948a614584565b996120ae8b1515613e98565b01896145e5565b966120c2888a1415613e98565b60c435158015613141575b156130fd576001600160a01b036064357f0175b7a638427703f0dbe7bb9bbf987a2551717b34e79f33b5b1008d1fa01db901541694600b5f526001600160a01b036084357f0175b7a638427703f0dbe7bb9bbf987a2551717b34e79f33b5b1008d1fa01db9015416967fffffffff0000000000000000000000000000000000000000000000000000000082167c020000000000000000000000000000000000000000000000000000000081145f14612b6f5750905034612b2b576040518061010081011067ffffffffffffffff61010083011117610ca05761010081016040526001600160a01b03861681526001600160a01b038c16908160208201526064356040820152608435606082015260a435608082015260c43560a082015260e43560c082015260e085151591015260405160208101917f13020956b4075195a70e9f5e78d703998f293cc8dec17e01c72e31517ec99ce083526001600160a01b03881660408301526060820152606435608082015260843560a082015260a43560c082015260c43560e082015260e435610100820152841515610120820152610120815261227c61014082613c35565b519020906101206122906040519182613c35565b60e481527f537761705769746e657373207769746e65737329537761705769746e6573732860208201527f616464726573732070617965722c616464726573732072656365697665722c7560408201527f696e7432353620696e707574546f6b656e496e6465782c75696e74323536206f60608201527f7574707574546f6b656e496e6465782c75696e74323536206d6178416d6f756e60808201527f74496e2c75696e74323536206d696e416d6f756e744f75742c75696e7432353660a08201527f20646561646c696e652c626f6f6c20756e7772617029546f6b656e5065726d6960c08201527f7373696f6e73286164647265737320746f6b656e2c75696e7432353620616d6f60e08201527f756e742900000000000000000000000000000000000000000000000000000000610100820152815182019060608360208401930312612b2757602083015192604081015190606081015167ffffffffffffffff8111612b235784603f828401011215612b2357602081830101519161241683613c76565b956124246040519788613c35565b838752604082840185010111612b1f5791808f9360209360409101018388015e850101526040519361245585613be0565b8a855260a43560208601526040519461246d86613b97565b8552602085015260408401526040519361248685613be0565b30855260a43560208601526001600160a01b037f0000000000000000000000000000000000000000000000000000000000000000163b15612b1b576040926125708d9593612583936125488751998a9889987f137c29fe000000000000000000000000000000000000000000000000000000008a5261251c60048b018251602080916001600160a01b0381511684520151910152565b60208181015160448c015291015160648a015281516001600160a01b031660848a0152015160a4880152565b6001600160a01b038d1660c487015260e4860152610140610104860152610144850190613ad4565b9060031984830301610124850152613ad4565b0381836001600160a01b037f0000000000000000000000000000000000000000000000000000000000000000165af18015612b1057908891612afb575b50505b86927f000000000000000000000000000000000000000000000000000000000000000080151580612af2575b612aac575b506064357fbb7b4a454dc3493923482f07822329ed19e8244eff582cc204f8554c3620c3fd0160a43581540190556084357fbb7b4a454dc3493923482f07822329ed19e8244eff582cc204f8554c3620c3fd01848a8c038254030390600e8a52558781600f0b1380612aa0575b15612a5c57600a5f52606435600181901c7fc65a7bb8d6351c1cf70c95a316cc6a92839c986682d98bc35f958f4883f9d2a801546126cb9160071b6080161c600f0b926126c6608435600a5f52608060205f208260011c01549160071b161c600f0b90565b614946565b908882600f0b1315612a18576126e761272091612759946148ae565b60643590600a5f526fffffffffffffffffffffffffffffffff80608060205f208560011c019460071b169216821b911b19825416179055565b60843590600a5f526fffffffffffffffffffffffffffffffff80608060205f208560011c019460071b169216821b911b19825416179055565b806129e6575b1561290c576001600160a01b037f000000000000000000000000000000000000000000000000000000000000000016803b156118a457858760248a8360405195869485937f2e1a7d4d0000000000000000000000000000000000000000000000000000000085520360048401525af18015612901579086916128ec575b50808080898b038c5af16127ee613dd3565b50156128a85760a06001600160a01b036060997f6950339c7661cca450281e53722525cc136590e622b011d5be7e4c4993685a6c935b826040519616865260a4356020870152898b036040870152808a038c87015260808601521692a4807f9b779b17422d0df92223018b32b4d1fa46e071723d6817e2486d003becc55f005d47908161288f575b5050806040519260a43584520360208301526040820152f35b8080806128a194335af161134e613dd3565b5f80612876565b606460405162461bcd60e51b815260206004820152601460248201527f7265636569766572206e6f742070617961626c650000000000000000000000006044820152fd5b816128f691613c35565b6109d257845f6127dc565b6040513d88823e3d90fd5b6040517fa9059cbb0000000000000000000000000000000000000000000000000000000086526001600160a01b03891660045286880360245260208660448180895af19060018751148216156129c5575b604052156129995760a06001600160a01b036060997f6950339c7661cca450281e53722525cc136590e622b011d5be7e4c4993685a6c93612824565b602485857f5274afe7000000000000000000000000000000000000000000000000000000008252600452fd5b9060018115166129dd57853b15153d1516169061295d565b503d86823e3d90fd5b506001600160a01b037f000000000000000000000000000000000000000000000000000000000000000016841461275f565b606460405162461bcd60e51b815260206004820152600c60248201527f706f6f6c20647261696e656400000000000000000000000000000000000000006044820152fd5b606460405162461bcd60e51b815260206004820152600e60248201527f696e76616c696420616d6f756e740000000000000000000000000000000000006044820152fd5b508782600f0b13612661565b620f4240908a0204935083612ac2575b5f6125f4565b6084357fdf6966c971051c3d54ec59162606531493a51404a002842f56009d7e5cf4a8c701848154019055612abc565b508915156125ef565b81612b0591613c35565b6118a057865f6125c0565b6040513d8a823e3d90fd5b8b80fd5b8e80fd5b8d80fd5b8a80fd5b606460405162461bcd60e51b815260206004820152601260248201527f7065726d6974323a206e6f206e617469766500000000000000000000000000006044820152fd5b80612d23575050506001600160a01b038416803303612cdf576001600160a01b037f0000000000000000000000000000000000000000000000000000000000000000169081871480612cd3575b15612c2d5750803b156113be5787600491604051928380927fd0e30db000000000000000000000000000000000000000000000000000000000825260a435905af18015612b1057908891612c18575b50505b60a4355b506125c3565b81612c2291613c35565b6118a057865f612c0b565b9050604051907f23b872dd0000000000000000000000000000000000000000000000000000000089526004523060245260a435604452602088606481808a5af1906001895114821615612cb2575b60405287606052612c0e57602487867f5274afe7000000000000000000000000000000000000000000000000000000008252600452fd5b906001811516612cca57863b15153d15161690612c7b565b503d88823e3d90fd5b5060a435341015612bbc565b606460405162461bcd60e51b815260206004820152601960248201527f617070726f76616c3a2063616c6c657220213d207061796572000000000000006044820152fd5b7c010000000000000000000000000000000000000000000000000000000003612f905750506001600160a01b0384163303612f4c576001600160a01b037f00000000000000000000000000000000000000000000000000000000000000001680861480612f40575b15612e0057803b15611c55575f600491604051928380927fd0e30db000000000000000000000000000000000000000000000000000000000825260a435905af18015612df557612de0575b5060a4355b612c12565b612ded9197505f90613c35565b5f955f612dd6565b6040513d5f823e3d90fd5b506040517f70a08231000000000000000000000000000000000000000000000000000000008152306004820152602081602481895afa908115612df5575f91612f0e575b50600e546064351015612ee157600e5f5260643560205f200154600c546064351015612ee157600c5f527fdf6966c971051c3d54ec59162606531493a51404a002842f56009d7e5cf4a8c760643501548101908110612eb457612ea6916145fa565b612ddb60a435821015614607565b7f4e487b71000000000000000000000000000000000000000000000000000000005f52601160045260245ffd5b7f4e487b71000000000000000000000000000000000000000000000000000000005f52603260045260245ffd5b90506020813d602011612f38575b81612f2960209383613c35565b81010312611c5557515f612e44565b3d9150612f1c565b5060a435471015612d8b565b606460405162461bcd60e51b815260206004820152601b60248201527f70726566756e64696e673a2063616c6c657220213d20706179657200000000006044820152fd5b604051907f70a082310000000000000000000000000000000000000000000000000000000082523060048301526020826024818b5afa918215612df5575f926130c7575b5061303f613045929361301360075493604051948593602085015260248401528b604484015260a43560648401526080608484015260a4830190613ad4565b037fffffffffffffffffffffffffffffffffffffffffffffffffffffffffffffffe08101835282613c35565b866149e8565b50604051907f70a082310000000000000000000000000000000000000000000000000000000082523060048301526020826024818a5afa8015612df5575f90613093575b612ea692506145fa565b506020823d6020116130bf575b816130ad60209383613c35565b81010312611c5557612ea69151613089565b3d91506130a0565b91506020823d6020116130f5575b816130e260209383613c35565b81010312611c555790519061303f612fd4565b3d91506130d5565b606460405162461bcd60e51b815260206004820152601060248201527f736c69707061676520636f6e74726f6c000000000000000000000000000000006044820152fd5b5060c435888a0310156120cd565b60c060a435811c809164010000000082101561329b575b600282620100006131d794101561328f575b610100811015613283575b6010811015613277575b600481101561326c575b1015613264575b60015f1985017fffffffffffffffffffffffffffffffffffffffffffffffffffffffffffffff4183011c019060a4359060ff031b613ee3565b916fffffffffffffffffffffffffffffffff8311611c55578060801c83026fffffffffffffffffffffffffffffffff821684028360a43560401b90828210613259575b5003928160801b9182851061324f575b60801c036132445761323c9203613ee3565b905b01612010565b50505060019061323e565b905f19019061322a565b5f190194505f61321a565b60010161319e565b91810191811c613197565b6004928301921c61318d565b6008928301921c613183565b6010928301921c613178565b505060a43560e090811c90613166565b905095611f45565b9061332f907fffffffffffffffffffffffffffffffff0000000000000000000000000000000060105416836fffffffffffffffffffffffffffffffff16176010556132fe8184613d45565b600f0b60ff7f0000000000000000000000000000000000000000000000000000000000000000161d600f0b90613d8c565b600f80547fffffffffffffffff000000000000000000000000000000000000000000000000166fffffffffffffffffffffffffffffffff8316174360801b77ffffffffffffffff000000000000000000000000000000001617905590611f33565b80600191821c83015460808260071b161c600f0b60208260051b8601015201611f04565b606460405162461bcd60e51b815260206004820152600860248201527f646561646c696e650000000000000000000000000000000000000000000000006044820152fd5b5060e435421115611e89565b606460405162461bcd60e51b815260206004820152600a60248201527f73616d6520746f6b656e000000000000000000000000000000000000000000006044820152fd5b34611c55575f600319360112611c555760606040805161346781613b97565b5f81525f6020820152015260405161347e81613b97565b6009549081600f0b8152602081019160801d600f0b825260405180816020600a549283815201600a5f5260205f20925f905b8060018301106135c5576134d69454918181106135b1575b106135a0575b500382613c35565b6134e6604083019180835261411a565b600f549067ffffffffffffffff82600f0b9260801c16431161358b575b80600f0b82600f0b125f146135805750929190925b600f0b825260405192839260208452608084019251600f0b602085015251600f0b604084015251906060808401528151809152602060a084019201905f5b818110613564575050500390f35b8251600f0b845285945060209384019390920191600101613556565b905092919092613518565b90806132fe61359a9284613d45565b90613503565b60801d600f0b8152602001866134ce565b92602060019184600f0b81520193016134c8565b9160029193506040600191865480600f0b825260801d600f0b60208201520194019201849293916134b0565b34611c55575f600319360112611c555760206001600160a01b0360155416604051908152f35b34611c55575f600319360112611c55576001600160a01b035f5416331480156136e0575b1561369c5760085460ff81161561364e57005b7fffffffffffffffffffffffffffffffffffffffffffffffffffffffffffffff00166001176008557f0f8eeedbc400fd6686703559f58d1e6143fdaed533f19a86c93d67a2fe4fb3315f80a1005b606460405162461bcd60e51b815260206004820152601560248201527f6e6f74206f776e6572206f7220677561726469616e00000000000000000000006044820152fd5b506001600160a01b0360155416331461363b565b34611c55575f600319360112611c5557602060405160128152f35b34611c55576060600319360112611c5557613728613b17565b613730613b2d565b604435906001600160a01b03831692835f52600360205260405f206001600160a01b0333165f5260205260405f20545f198110613773575b5061067f9350613f7b565b83811061380b5784156137df5733156137b35761067f945f52600360205260405f206001600160a01b0333165f526020528360405f209103905584613768565b7f94280d62000000000000000000000000000000000000000000000000000000005f525f60045260245ffd5b7fe602df05000000000000000000000000000000000000000000000000000000005f525f60045260245ffd5b83907ffb8f41b2000000000000000000000000000000000000000000000000000000005f523360045260245260445260645ffd5b34611c55575f600319360112611c5557602060ff600854166040519015158152f35b34611c55575f600319360112611c55576020600454604051908152f35b34611c55576040600319360112611c5557613897613b17565b6024359033156137df576001600160a01b03169081156137b357335f52600360205260405f20825f526020528060405f20556040519081527f8c5be1e5ebec7d5bd14f71427d1e84f3dd0314c0f7b2291e5b200ac8c7c3b92560203392a3602060405160018152f35b34611c55575f600319360112611c55576040515f6005548060011c90600181168015613a21575b6020831081146139f4578285529081156139b25750600114613954575b61092183610d2481850382613c35565b91905060055f527f036b6384b5eca791c62761152d0c79bb0604c104a5fb6f4eb0703f3154bb3db0915f905b80821061399857509091508101602001610d24613944565b919260018160209254838588010152019101909291613980565b7fffffffffffffffffffffffffffffffffffffffffffffffffffffffffffffff001660208086019190915291151560051b84019091019150610d249050613944565b7f4e487b71000000000000000000000000000000000000000000000000000000005f52602260045260245ffd5b91607f1691613927565b34611c55575f600319360112611c5557600c548082526020820190600c5f527fdf6966c971051c3d54ec59162606531493a51404a002842f56009d7e5cf4a8c7905f5b818110613a85576109218561190781870382613c35565b8254845260209093019260019283019201613a6e565b60206040818301928281528451809452019201905f5b818110613abe5750505090565b8251845260209384019390920191600101613ab1565b907fffffffffffffffffffffffffffffffffffffffffffffffffffffffffffffffe0601f602080948051918291828752018686015e5f8582860101520116010190565b600435906001600160a01b0382168203611c5557565b602435906001600160a01b0382168203611c5557565b604435906001600160a01b0382168203611c5557565b602435907fffffffff0000000000000000000000000000000000000000000000000000000082168203611c5557565b60c435908115158203611c5557565b6060810190811067ffffffffffffffff821117613bb357604052565b7f4e487b71000000000000000000000000000000000000000000000000000000005f52604160045260245ffd5b6040810190811067ffffffffffffffff821117613bb357604052565b60a0810190811067ffffffffffffffff821117613bb357604052565b610120810190811067ffffffffffffffff821117613bb357604052565b90601f7fffffffffffffffffffffffffffffffffffffffffffffffffffffffffffffffe0910116810190811067ffffffffffffffff821117613bb357604052565b67ffffffffffffffff8111613bb357601f017fffffffffffffffffffffffffffffffffffffffffffffffffffffffffffffffe01660200190565b929192613cbc82613c76565b91613cca6040519384613c35565b829481845281830111611c55578281602093845f960137010152565b9181601f84011215611c555782359167ffffffffffffffff8311611c555760208381860195010111611c5557565b9181601f84011215611c555782359167ffffffffffffffff8311611c55576020808501948460051b010111611c5557565b90600f0b90600f0b03906f7fffffffffffffffffffffffffffffff82137fffffffffffffffffffffffffffffffff80000000000000000000000000000000831217612eb457565b90600f0b90600f0b01907fffffffffffffffffffffffffffffffff8000000000000000000000000000000082126f7fffffffffffffffffffffffffffffff831317612eb457565b3d15613dfd573d90613de482613c76565b91613df26040519384613c35565b82523d5f602084013e565b606090565b15613e0957565b606460405162461bcd60e51b815260206004820152601160248201527f45544820726566756e64206661696c65640000000000000000000000000000006044820152fd5b15613e5457565b606460405162461bcd60e51b815260206004820152600660248201527f6b696c6c656400000000000000000000000000000000000000000000000000006044820152fd5b15613e9f57565b606460405162461bcd60e51b815260206004820152600960248201527f746f6f20736d616c6c00000000000000000000000000000000000000000000006044820152fd5b8115613eed570490565b7f4e487b71000000000000000000000000000000000000000000000000000000005f52601260045260245ffd5b90602080835192838152019201905f5b818110613f375750505090565b8251845260209384019390920191600101613f2a565b67ffffffffffffffff8111613bb35760051b60200190565b9190826040910312611c55576020825192015190565b916001600160a01b035f93169182156140da576001600160a01b03169283156140ae5773__$6422c726ac445123321d590d4432d36af2$__803b15611c55575f606491604051928380927f403e14c00000000000000000000000000000000000000000000000000000000082528860048301528960248301528760448301525af48015612df55761409b575b50828152600260205260408120548281106140685791604082827fddf252ad1be2c89b69c2b068fc378daa952ba7f163c4a11628f55a4df523b3ef9587602096526002865203828220558681526002845220818154019055604051908152a3565b6064937fe450d38c0000000000000000000000000000000000000000000000000000000083949352600452602452604452fd5b6140a791505f90613c35565b5f5f614007565b7fec442f05000000000000000000000000000000000000000000000000000000005f525f60045260245ffd5b7f96c6fd1e000000000000000000000000000000000000000000000000000000005f525f60045260245ffd5b8051821015612ee15760209160051b010190565b5f90815b8151831015614149576141416001916141378585614106565b51600f0b906148ae565b92019161411e565b91505090565b7f9b779b17422d0df92223018b32b4d1fa46e071723d6817e2486d003becc55f005c61419b5760017f9b779b17422d0df92223018b32b4d1fa46e071723d6817e2486d003becc55f005d565b7f3ee5aeb5000000000000000000000000000000000000000000000000000000005f5260045ffd5b95949593919392909282965f81600f0b1315614540576141e291614906565b9384600f0b8015611c5557700100000000000000000000000000000000057fffffffffffffffffffffffffffffffff8000000000000000000000000000000081121580614526575b15611c5557600f0b9061423d8285614906565b9081600f0b926820000000000000000084136144e2576142a66142ab916142a17fffffffffffffffffffffffffffffffff800000000000000000000000000000009461429761428c8a8d614106565b51600f0b918c614106565b51600f0b90614946565b614906565b614983565b9214611c55576142bf905f03600f0b614983565b600f0b6801000000000000000003907fffffffffffffffffffffffffffffffff80000000000000000000000000000000821215806144c8575b15611c555761430a91600f0b90614906565b600f0b68010000000000000000017fffffffffffffffffffffffffffffffff80000000000000000000000000000000811215806144ae575b15611c5557600f0b925f841315614498575050505f90806801000000000000000082121561448b575b80640100000000600292121561447f575b62010000811215614473575b610100811215614467575b601081121561445b575b6004811215614450575b1215614446575b607f8290031b91907fffffffffffffffffffffffffffffffffffffffffffffffffffffffffffffffc00160401b6780000000000000005b5f811361442657506144109250600f0b6fb17217f7d1cf79abc9e3b39803f2f6af0260801d90614906565b5f81600f0b131561441e5790565b505f91508190565b91928002908160ff1c9182607f011c918302019160011d929190926143e5565b90600101906143ae565b92810192811d6143a7565b6004938401931d61439d565b6008938401931d614393565b6010938401931d614388565b6020938401931d61437c565b506040915080821d61436b565b91955091506144a79250614106565b51600f0b90565b506f7fffffffffffffffffffffffffffffff811315614342565b506f7fffffffffffffffffffffffffffffff8213156142f8565b606460405162461bcd60e51b815260206004820152600960248201527f746f6f206c6172676500000000000000000000000000000000000000000000006044820152fd5b506f7fffffffffffffffffffffffffffffff81131561422a565b606460405162461bcd60e51b815260206004820152600d60248201527f756e696e697469616c697a6564000000000000000000000000000000000000006044820152fd5b81156145df57600f0b5f8112611c55576fffffffffffffffffffffffffffffffff8216810260401c9160801c0277ffffffffffffffffffffffffffffffffffffffffffffffff8111611c555760401b81198111611c55570190565b50505f90565b81156145df57620f42409102620f423f010490565b91908203918211612eb457565b1561460e57565b606460405162461bcd60e51b815260206004820152601260248201527f696e73756666696369656e742066756e647300000000000000000000000000006044820152fd5b6001600160a01b035f5416330361466557565b7f118cdaa7000000000000000000000000000000000000000000000000000000005f523360045260245ffd5b7f0000000000000000000000000000000000000000000000000000000000000000906146bc82613f4d565b6146c96040519182613c35565b82815260016146d784613f4d565b917fffffffffffffffffffffffffffffffffffffffffffffffffffffffffffffffe06020820193013684379360051b917f00000000000000000000000000000000000000000000000000000000000000003c565b7f0000000000000000000000000000000000000000000000000000000000000000908160051b917f07ffffffffffffffffffffffffffffffffffffffffffffffffffffffffffffff811603612eb45781600101600111612eb45760209160019160051b01015f7f00000000000000000000000000000000000000000000000000000000000000003c5f5190565b5f907f00000000000000000000000000000000000000000000000000000000000000007f00000000000000000000000000000000000000000000000000000000000000008160051b7f07ffffffffffffffffffffffffffffffffffffffffffffffffffffffffffffff83168303612eb45780600101600111612eb45791905f925b8284106148465750505050565b909192946001906020828860051b8501015f863c5f51019501929190614839565b91600281146148a857907ffffffffffffffffffffffffffffffffffffffffffffffffffffffffffffffffe82845f196148a4950193030101613ee3565b0190565b50905090565b90600f0b90600f0b017fffffffffffffffffffffffffffffffff80000000000000000000000000000000811215806148ec575b15611c5557600f0b90565b506f7fffffffffffffffffffffffffffffff8113156148e1565b90600f0b90600f0b0260401d7fffffffffffffffffffffffffffffffff80000000000000000000000000000000811215806148ec5715611c5557600f0b90565b90600f0b90600f0b037fffffffffffffffffffffffffffffffff80000000000000000000000000000000811215806148ec5715611c5557600f0b90565b600f0b68400000000000000000811215611c55577fffffffffffffffffffffffffffffffffffffffffffffffc0000000000000000081126149e357700171547652b82fe1777d0ffda0d23a7d126149e0910260801d600f0b614aa3565b90565b505f90565b905f809160208151910182855af18080614a90575b15614a1d5750506040513d81523d5f602083013e60203d82010160405290565b15614a57576001600160a01b03907f9996b315000000000000000000000000000000000000000000000000000000005f521660045260245ffd5b3d15614a68576040513d5f823e3d90fd5b7fd6bda275000000000000000000000000000000000000000000000000000000005f5260045ffd5b503d1515806149fd5750813b15156149fd565b80600f0b68400000000000000000811215611c55577fffffffffffffffffffffffffffffffffffffffffffffffc0000000000000000081126145df576f80000000000000000000000000000000915f6780000000000000008216600f0b1361569f575b5f6740000000000000008216600f0b13615682575b5f6720000000000000008216600f0b13615665575b5f6710000000000000008216600f0b13615648575b5f6708000000000000008216600f0b1361562b575b5f6704000000000000008216600f0b1361560e575b5f6702000000000000008216600f0b136155f1575b5f6701000000000000008216600f0b136155d4575b5f66800000000000008216600f0b136155b7575b5f66400000000000008216600f0b1361559a575b5f66200000000000008216600f0b1361557d575b5f66100000000000008216600f0b13615560575b5f66080000000000008216600f0b13615543575b5f66040000000000008216600f0b13615526575b5f66020000000000008216600f0b13615509575b5f66010000000000008216600f0b136154ec575b5f658000000000008216600f0b136154cf575b5f654000000000008216600f0b136154b2575b5f652000000000008216600f0b13615495575b5f651000000000008216600f0b13615478575b5f650800000000008216600f0b1361545b575b5f650400000000008216600f0b1361543e575b5f650200000000008216600f0b13615421575b5f650100000000008216600f0b13615404575b5f6480000000008216600f0b136153e7575b5f6440000000008216600f0b136153ca575b5f6420000000008216600f0b136153ad575b5f6410000000008216600f0b13615390575b5f6408000000008216600f0b13615373575b5f6404000000008216600f0b13615356575b5f6402000000008216600f0b13615339575b5f6401000000008216600f0b1361531c575b5f63800000008216600f0b136152ff575b5f63400000008216600f0b136152e2575b5f63200000008216600f0b136152c5575b5f63100000008216600f0b136152a8575b5f63080000008216600f0b1361528b575b5f63040000008216600f0b1361526e575b5f63020000008216600f0b13615251575b5f63010000008216600f0b13615234575b5f628000008216600f0b13615217575b5f624000008216600f0b136151fa575b5f622000008216600f0b136151dd575b5f621000008216600f0b136151c0575b5f620800008216600f0b136151a3575b5f620400008216600f0b13615186575b5f620200008216600f0b13615169575b5f620100008216600f0b1361514c575b5f6180008216600f0b1361512f575b5f6140008216600f0b13615112575b5f6120008216600f0b136150f5575b5f6110008216600f0b136150d8575b5f6108008216600f0b136150bb575b5f6104008216600f0b1361509e575b5f6102008216600f0b13615081575b5f6101008216600f0b13615064575b5f60808216600f0b13615047575b5f60408216600f0b1361502a575b5f60208216600f0b1361500d575b5f60108216600f0b13614ff0575b5f60088216600f0b13614fd3575b5f60048216600f0b13614fb6575b5f60028216600f0b13614f98575b60015f9116600f0b13614f7b575b60401d600f0b603f03600f0b1c6f7fffffffffffffffffffffffffffffff8111611c5557600f0b90565b9070010000000000000000b17217f7d1cf79ab0260801c90614f51565b7001000000000000000162e42fefa39ef35890920260801c91614f43565b9170010000000000000002c5c85fdf473de6b20260801c91614f35565b91700100000000000000058b90bfbe8e7bcd6d0260801c91614f27565b917001000000000000000b17217f7d1cf79afa0260801c91614f19565b91700100000000000000162e42fefa39ef366f0260801c91614f0b565b917001000000000000002c5c85fdf473de6eca0260801c91614efd565b9170010000000000000058b90bfbe8e7bce5440260801c91614eef565b91700100000000000000b17217f7d1cf79e9490260801c91614ee1565b9170010000000000000162e42fefa39ef44d910260801c91614ed2565b91700100000000000002c5c85fdf473dea871f0260801c91614ec3565b917001000000000000058b90bfbe8e7bdcbe2e0260801c91614eb4565b9170010000000000000b17217f7d1cf7d83c1a0260801c91614ea5565b917001000000000000162e42fefa39f02b772c0260801c91614e96565b9170010000000000002c5c85fdf473e242ea380260801c91614e87565b91700100000000000058b90bfbe8e7cc35c3f00260801c91614e78565b917001000000000000b17217f7d1cfb72b45e10260801c91614e69565b91700100000000000162e42fefa39fe95583c20260801c91614e59565b917001000000000002c5c85fdf4741bea6e77e0260801c91614e49565b9170010000000000058b90bfbe8e8b2d3d4ede0260801c91614e39565b91700100000000000b17217f7d1d351a389d400260801c91614e29565b9170010000000000162e42fefa3ae53369388c0260801c91614e19565b91700100000000002c5c85fdf477b662b269450260801c91614e09565b917001000000000058b90bfbe8f71cb4e4b33d0260801c91614df9565b9170010000000000b17217f7d20cf927c8e94c0260801c91614de9565b917001000000000162e42fefa494f1478fde050260801c91614dd8565b9170010000000002c5c85fdf4b15de6f17eb0d0260801c91614dc7565b91700100000000058b90bfbe9ddbac5e109cce0260801c91614db6565b917001000000000b17217f7d5a7716bba4a9ae0260801c91614da5565b91700100000000162e42fefb2fed257559bdaa0260801c91614d94565b917001000000002c5c85fdf84bd62ae30a74cc0260801c91614d83565b9170010000000058b90bfbf8479bd5a81b51ad0260801c91614d72565b91700100000000b17217f80f4ef5aadda455540260801c91614d61565b9170010000000162e42ff0999ce3541b9fffcf0260801c91614d4f565b91700100000002c5c85fe31f35a6a30da1be500260801c91614d3d565b917001000000058b90bfcdee5acd3c1cedc8230260801c91614d2b565b9170010000000b17217fba9c739aa5819f44f90260801c91614d19565b917001000000162e42fff037df38aa2b219f060260801c91614d07565b9170010000002c5c8601cc6b9e94213c72737a0260801c91614cf5565b91700100000058b90c0b48c6be5df846c5b2ef0260801c91614ce3565b917001000000b1721835514b86e6d96efd1bfe0260801c91614cd1565b91700100000162e430e5a18f6119e3c02282a50260801c91614cbe565b917001000002c5c863b73f016468f6bac5ca2b0260801c91614cab565b9170010000058b90cf1e6d97f9ca14dbcc16280260801c91614c98565b91700100000b1721bcfc99d9f890ea069117630260801c91614c85565b9170010000162e43f4f831060e02d839a9d16d0260801c91614c72565b91700100002c5c89d5ec6ca4d7c8acc017b7c90260801c91614c5f565b917001000058b91b5bc9ae2eed81e9b7d4cfab0260801c91614c4c565b9170010000b17255775c040618bf4a4ade83fc0260801c91614c39565b917001000162e525ee054754457d59952920260260801c91614c25565b9170010002c5cc37da9491d0985c348c68e7b30260801c91614c11565b91700100058ba01fb9f96d6cacd4b180917c3d0260801c91614bfd565b917001000b175effdc76ba38e31671ca9397250260801c91614be9565b91700100162f3904051fa128bca9c55c31e5df0260801c91614bd5565b917001002c605e2e8cec506d21bfc89a23a00f0260801c91614bc1565b9170010058c86da1c09ea1ff19d294cf2f679b0260801c91614bad565b91700100b1afa5abcbed6129ab13ec11dc95430260801c91614b99565b9170010163da9fb33356d84a66ae336dcdfa3f0260801c91614b84565b91700102c9a3e778060ee6f7caca4f7a29bde80260801c91614b6f565b917001059b0d31585743ae7c548eb68ca417fd0260801c91614b5a565b9170010b5586cf9890f6298b92b71842a983630260801c91614b45565b917001172b83c7d517adcdf7c8c50eb14a791f0260801c91614b30565b917001306fe0a31b7152de8d5a46305c85edec0260801c91614b1b565b6fb504f333f9de6484597d89b3754abe9f9250614b0656fea2646970667358221220b14c0d887c6fc858e0bfefdc9a28535e4a2429f82b68eab55d6410d98082e5b464736f6c63430008230033a2646970667358221220bdb0b5ecfb120e986644eef6dcb46a02b362e561ed79bd25b54b3af47913ff7864736f6c63430008230033","linkReferences":{"src/PartyPoolExtraImpl1.sol":{"PartyPoolExtraImpl1":[{"start":795,"length":20},{"start":3943,"length":20},{"start":7068,"length":20},{"start":9332,"length":20},{"start":9813,"length":20},{"start":18529,"length":20}]},"src/PartyPoolExtraImpl2.sol":{"PartyPoolExtraImpl2":[{"start":4492,"length":20},{"start":5331,"length":20},{"start":8335,"length":20}]}}},"methodIdentifiers":{"creationCode()":"7213edad"},"id":55}