{"abi":[{"type":"constructor","inputs":[{"name":"wrapper_","type":"address","internalType":"contract NativeWrapper"}],"stateMutability":"nonpayable"},{"type":"function","name":"burn","inputs":[{"name":"payer","type":"address","internalType":"address"},{"name":"receiver","type":"address","internalType":"address"},{"name":"lpAmount","type":"uint256","internalType":"uint256"},{"name":"deadline","type":"uint256","internalType":"uint256"},{"name":"unwrap","type":"bool","internalType":"bool"}],"outputs":[{"name":"withdrawAmounts","type":"uint256[]","internalType":"uint256[]"}],"stateMutability":"nonpayable"},{"type":"function","name":"burnAmounts","inputs":[{"name":"lpTokenAmount","type":"uint256","internalType":"uint256"},{"name":"numAssets","type":"uint256","internalType":"uint256"},{"name":"totalSupply","type":"uint256","internalType":"uint256"},{"name":"cachedUintBalances","type":"uint256[]","internalType":"uint256[]"}],"outputs":[{"name":"withdrawAmounts","type":"uint256[]","internalType":"uint256[]"}],"stateMutability":"pure"},{"type":"function","name":"burnSwap","inputs":[{"name":"payer","type":"address","internalType":"address"},{"name":"receiver","type":"address","internalType":"address"},{"name":"lpAmount","type":"uint256","internalType":"uint256"},{"name":"inputTokenIndex","type":"uint256","internalType":"uint256"},{"name":"deadline","type":"uint256","internalType":"uint256"},{"name":"unwrap","type":"bool","internalType":"bool"},{"name":"swapFeePpm","type":"uint256","internalType":"uint256"},{"name":"protocolFeePpm","type":"uint256","internalType":"uint256"}],"outputs":[{"name":"amountOutUint","type":"uint256","internalType":"uint256"}],"stateMutability":"nonpayable"},{"type":"function","name":"burnSwapAmounts","inputs":[{"name":"lpAmount","type":"uint256","internalType":"uint256"},{"name":"inputTokenIndex","type":"uint256","internalType":"uint256"},{"name":"swapFeePpm","type":"uint256","internalType":"uint256"},{"name":"lmsrState","type":"tuple","internalType":"struct LMSRStabilized.State","components":[{"name":"nAssets","type":"uint256","internalType":"uint256"},{"name":"kappa","type":"int128","internalType":"int128"},{"name":"qInternal","type":"int128[]","internalType":"int128[]"}]},{"name":"bases_","type":"uint256[]","internalType":"uint256[]"},{"name":"totalSupply_","type":"uint256","internalType":"uint256"}],"outputs":[{"name":"amountOut","type":"uint256","internalType":"uint256"}],"stateMutability":"pure"},{"type":"function","name":"initialMint","inputs":[{"name":"receiver","type":"address","internalType":"address"},{"name":"lpTokens","type":"uint256","internalType":"uint256"},{"name":"KAPPA","type":"int128","internalType":"int128"}],"outputs":[{"name":"lpMinted","type":"uint256","internalType":"uint256"}],"stateMutability":"payable"},{"type":"function","name":"mint","inputs":[{"name":"payer","type":"address","internalType":"address"},{"name":"receiver","type":"address","internalType":"address"},{"name":"lpTokenAmount","type":"uint256","internalType":"uint256"},{"name":"deadline","type":"uint256","internalType":"uint256"}],"outputs":[{"name":"lpMinted","type":"uint256","internalType":"uint256"}],"stateMutability":"payable"},{"type":"function","name":"mintAmounts","inputs":[{"name":"lpTokenAmount","type":"uint256","internalType":"uint256"},{"name":"numAssets","type":"uint256","internalType":"uint256"},{"name":"totalSupply","type":"uint256","internalType":"uint256"},{"name":"cachedUintBalances","type":"uint256[]","internalType":"uint256[]"}],"outputs":[{"name":"depositAmounts","type":"uint256[]","internalType":"uint256[]"}],"stateMutability":"pure"},{"type":"function","name":"swapMint","inputs":[{"name":"payer","type":"address","internalType":"address"},{"name":"receiver","type":"address","internalType":"address"},{"name":"inputTokenIndex","type":"uint256","internalType":"uint256"},{"name":"maxAmountIn","type":"uint256","internalType":"uint256"},{"name":"deadline","type":"uint256","internalType":"uint256"},{"name":"swapFeePpm","type":"uint256","internalType":"uint256"},{"name":"protocolFeePpm","type":"uint256","internalType":"uint256"}],"outputs":[{"name":"lpMinted","type":"uint256","internalType":"uint256"}],"stateMutability":"payable"},{"type":"function","name":"swapMintAmounts","inputs":[{"name":"inputTokenIndex","type":"uint256","internalType":"uint256"},{"name":"maxAmountIn","type":"uint256","internalType":"uint256"},{"name":"swapFeePpm","type":"uint256","internalType":"uint256"},{"name":"lmsrState","type":"tuple","internalType":"struct LMSRStabilized.State","components":[{"name":"nAssets","type":"uint256","internalType":"uint256"},{"name":"kappa","type":"int128","internalType":"int128"},{"name":"qInternal","type":"int128[]","internalType":"int128[]"}]},{"name":"bases_","type":"uint256[]","internalType":"uint256[]"},{"name":"totalSupply_","type":"uint256","internalType":"uint256"}],"outputs":[{"name":"amountInUsed","type":"uint256","internalType":"uint256"},{"name":"fee","type":"uint256","internalType":"uint256"},{"name":"lpMinted","type":"uint256","internalType":"uint256"}],"stateMutability":"pure"},{"type":"event","name":"Approval","inputs":[{"name":"owner","type":"address","indexed":true,"internalType":"address"},{"name":"spender","type":"address","indexed":true,"internalType":"address"},{"name":"value","type":"uint256","indexed":false,"internalType":"uint256"}],"anonymous":false},{"type":"event","name":"Burn","inputs":[{"name":"payer","type":"address","indexed":false,"internalType":"address"},{"name":"receiver","type":"address","indexed":true,"internalType":"address"},{"name":"amounts","type":"uint256[]","indexed":false,"internalType":"uint256[]"},{"name":"lpBurned","type":"uint256","indexed":false,"internalType":"uint256"}],"anonymous":false},{"type":"event","name":"BurnSwap","inputs":[{"name":"payer","type":"address","indexed":true,"internalType":"address"},{"name":"receiver","type":"address","indexed":true,"internalType":"address"},{"name":"tokenOut","type":"address","indexed":true,"internalType":"contract IERC20"},{"name":"amountIn","type":"uint256","indexed":false,"internalType":"uint256"},{"name":"amountOut","type":"uint256","indexed":false,"internalType":"uint256"},{"name":"lpFee","type":"uint256","indexed":false,"internalType":"uint256"},{"name":"protocolFee","type":"uint256","indexed":false,"internalType":"uint256"}],"anonymous":false},{"type":"event","name":"Mint","inputs":[{"name":"payer","type":"address","indexed":false,"internalType":"address"},{"name":"receiver","type":"address","indexed":true,"internalType":"address"},{"name":"amounts","type":"uint256[]","indexed":false,"internalType":"uint256[]"},{"name":"lpMinted","type":"uint256","indexed":false,"internalType":"uint256"}],"anonymous":false},{"type":"event","name":"SwapMint","inputs":[{"name":"payer","type":"address","indexed":true,"internalType":"address"},{"name":"receiver","type":"address","indexed":true,"internalType":"address"},{"name":"tokenIn","type":"address","indexed":true,"internalType":"contract IERC20"},{"name":"amountIn","type":"uint256","indexed":false,"internalType":"uint256"},{"name":"amountOut","type":"uint256","indexed":false,"internalType":"uint256"},{"name":"lpFee","type":"uint256","indexed":false,"internalType":"uint256"},{"name":"protocolFee","type":"uint256","indexed":false,"internalType":"uint256"}],"anonymous":false},{"type":"event","name":"Transfer","inputs":[{"name":"from","type":"address","indexed":true,"internalType":"address"},{"name":"to","type":"address","indexed":true,"internalType":"address"},{"name":"value","type":"uint256","indexed":false,"internalType":"uint256"}],"anonymous":false},{"type":"error","name":"ERC20InsufficientAllowance","inputs":[{"name":"spender","type":"address","internalType":"address"},{"name":"allowance","type":"uint256","internalType":"uint256"},{"name":"needed","type":"uint256","internalType":"uint256"}]},{"type":"error","name":"ERC20InsufficientBalance","inputs":[{"name":"sender","type":"address","internalType":"address"},{"name":"balance","type":"uint256","internalType":"uint256"},{"name":"needed","type":"uint256","internalType":"uint256"}]},{"type":"error","name":"ERC20InvalidApprover","inputs":[{"name":"approver","type":"address","internalType":"address"}]},{"type":"error","name":"ERC20InvalidReceiver","inputs":[{"name":"receiver","type":"address","internalType":"address"}]},{"type":"error","name":"ERC20InvalidSender","inputs":[{"name":"sender","type":"address","internalType":"address"}]},{"type":"error","name":"ERC20InvalidSpender","inputs":[{"name":"spender","type":"address","internalType":"address"}]},{"type":"error","name":"ReentrancyGuardReentrantCall","inputs":[]},{"type":"error","name":"SafeERC20FailedOperation","inputs":[{"name":"token","type":"address","internalType":"address"}]}],"bytecode":{"object":"0x60a03461009c57601f6158d738819003918201601f19168301916001600160401b038311848410176100a05780849260209460405283398101031261009c57516001600160a01b038116810361009c5760017f9b779b17422d0df92223018b32b4d1fa46e071723d6817e2486d003becc55f005560805260405161582290816100b58239608051818181612e60015281816133db01526136330152f35b5f80fd5b634e487b7160e01b5f52604160045260245ffdfe60806040526004361015610011575f80fd5b5f3560e01c80633dd3c805146120d05780636863f5bc14611d165780636f712e2914611cf957806385b14c7e146119c25780638d01fa4414611406578063a991e20a14610d45578063aee1e8be14610d10578063b3f1c93d1461085b5763c5eabfb91461007c575f80fd5b60607ffffffffffffffffffffffffffffffffffffffffffffffffffffffffffffffffc3601126107c1576100ae61278a565b602435906044359081600f0b82036107c1576100cf60ff600654161561293c565b6100d7612d44565b600a5490600354158015610851575b156107cd576100f482612b26565b936100fe83612b26565b925f5b8181106105a257505084518060075580600954036103ac575b505f5b8551811015610172578061013360019288612bb5565b51600f0b61016a61014383612b75565b81939154906fffffffffffffffffffffffffffffffff809160031b9316831b921b19161790565b90550161011d565b50835f610185610180612a92565b612fc1565b600f0b131561034e577fffffffffffffffffffffffffffffffff0000000000000000000000000000000060085416906fffffffffffffffffffffffffffffffff16176008555f600854600f0b13156102f057806102c557507f6bc0553967b8bb727947c938555c0e061c3f96b629935c8f82a43b558dfb1c57610241670de0b6b3a7640000935b846102b6575b73ffffffffffffffffffffffffffffffffffffffff6040519283925f84526060602085015260608401906127d0565b9486604084015216930390a260017f9b779b17422d0df92223018b32b4d1fa46e071723d6817e2486d003becc55f00554780158015610286575b602083604051908152f35b5f808093819382906102ad575b3390f1156102a257818061027b565b6040513d5f823e3d90fd5b506108fc610293565b6102c0858561331e565b610212565b6102417f6bc0553967b8bb727947c938555c0e061c3f96b629935c8f82a43b558dfb1c57919361020c565b60646040517f08c379a000000000000000000000000000000000000000000000000000000000815260206004820152600d60248201527f4c4d53523a206b617070613e30000000000000000000000000000000000000006044820152fd5b60646040517f08c379a000000000000000000000000000000000000000000000000000000000815260206004820152601060248201527f4c4d53523a20746f74616c207a65726f000000000000000000000000000000006044820152fd5b6103b590612b26565b80519067ffffffffffffffff82116105755768010000000000000000821161057557600954826009558083106104de575b506020019060095f5260205f208160011c915f5b83811061049057507ffffffffffffffffffffffffffffffffffffffffffffffffffffffffffffffffe8116900380610435575b50505061011a565b925f935f5b81811061044f5750505001555f80808061042d565b90919460206104866001928851600f0b908560041b6fffffffffffffffffffffffffffffffff809160031b9316831b921b19161790565b960192910161043a565b5f5f5b600281106104a85750838201556001016103fa565b86519096916001916020916fffffffffffffffffffffffffffffffff60078b901b81811b199092169216901b1792019601610493565b60095f5260205f206001808501811c8201920160011c019060108460041b168061051d575b505b81811061051257506103e6565b5f8155600101610505565b7fffffffffffffffffffffffffffffffffffffffffffffffffffffffffffffffff8201907fffffffffffffffffffffffffffffffffffffffffffffffffffffffffffffffff82549160200360031b1c1690555f610503565b7f4e487b71000000000000000000000000000000000000000000000000000000005f52604160045260245ffd5b6024602073ffffffffffffffffffffffffffffffffffffffff6105c4846129e6565b90549060031b1c16604051928380927f70a082310000000000000000000000000000000000000000000000000000000082523060048301525afa9081156102a2575f91610798575b5080156107145780610689916106228489612bb5565b526106668161063085612a16565b9091907fffffffffffffffffffffffffffffffffffffffffffffffffffffffffffffffff83549160031b92831b921b1916179055565b61067381610630856129a1565b61067c836129a1565b90549060031b1c90613a6f565b6106938289612bb5565b90600f0b90525f6106a48289612bb5565b51600f0b13156106b657600101610101565b60646040517f08c379a000000000000000000000000000000000000000000000000000000000815260206004820152601c60248201527f696e697469616c4d696e743a207a65726f20696e7465726e616c2071000000006044820152fd5b60846040517f08c379a000000000000000000000000000000000000000000000000000000000815260206004820152602160248201527f696e697469616c4d696e743a207a65726f20696e697469616c2062616c616e6360448201527f65000000000000000000000000000000000000000000000000000000000000006064820152fd5b90506020813d82116107c5575b816107b26020938361281f565b810103126107c157515f61060c565b5f80fd5b3d91506107a5565b60846040517f08c379a000000000000000000000000000000000000000000000000000000000815260206004820152602560248201527f696e697469616c4d696e743a20706f6f6c20616c726561647920696e6974696160448201527f6c697a65640000000000000000000000000000000000000000000000000000006064820152fd5b50600754156100e6565b60807ffffffffffffffffffffffffffffffffffffffffffffffffffffffffffffffffc3601126107c15761088d61278a565b6108956127ad565b90604435916064356108ac60ff600654161561293c565b6108b4612d44565b8015908115610d05575b5015610ca757600a5460035480158015610c9d575b610c19578415610bbb576109076108f36108ee610180612a92565b612fec565b9160075490610900612bc9565b9188612caf565b915f5b818110610b62575061091b81612b26565b905f5b818110610b155750506108ee81610180610937936131d1565b8180821115610b0c5761094991612a85565b905b8115610b035761096061096592600354612a3b565b612a4e565b935b8415610aa5576201869f81029081046201869f03610a7857620186a090048410610a1a57816109df8573ffffffffffffffffffffffffffffffffffffffff936109d1827f6bc0553967b8bb727947c938555c0e061c3f96b629935c8f82a43b558dfb1c579761331e565b604051948594169684612c11565b0390a260017f9b779b17422d0df92223018b32b4d1fa46e071723d6817e2486d003becc55f0055478015801561028657602083604051908152f35b60646040517f08c379a000000000000000000000000000000000000000000000000000000000815260206004820152601c60248201527f6d696e743a20696e73756666696369656e74204c50206d696e746564000000006044820152fd5b7f4e487b71000000000000000000000000000000000000000000000000000000005f52601160045260245ffd5b60646040517f08c379a000000000000000000000000000000000000000000000000000000000815260206004820152601460248201527f6d696e743a207a65726f204c50206d696e7465640000000000000000000000006044820152fd5b50505f93610967565b50505f9061094b565b80610b4c610b3f610b27600194612a16565b90549060031b1c610b38848a612bb5565b5190612a2e565b6106738161063085612a16565b610b568286612bb5565b90600f0b90520161091e565b80610b6f60019286612bb5565b51610b7b575b0161090a565b610bb673ffffffffffffffffffffffffffffffffffffffff610b9c836129e6565b90549060031b1c16610bae8388612bb5565b519089612e48565b610b75565b60646040517f08c379a000000000000000000000000000000000000000000000000000000000815260206004820152601460248201527f6d696e743a207a65726f204c5020616d6f756e740000000000000000000000006044820152fd5b60846040517f08c379a000000000000000000000000000000000000000000000000000000000815260206004820152602d60248201527f6d696e743a2075736520696e697469616c4d696e7420666f7220706f6f6c206960448201527f6e697469616c697a6174696f6e000000000000000000000000000000000000006064820152fd5b50600754156108d3565b60646040517f08c379a000000000000000000000000000000000000000000000000000000000815260206004820152601760248201527f6d696e743a20646561646c696e652065786365656465640000000000000000006044820152fd5b9050421115846108be565b346107c157610d41610d2d610d24366128d5565b92919091612caf565b6040519182916020835260208301906127d0565b0390f35b346107c15760c07ffffffffffffffffffffffffffffffffffffffffffffffffffffffffffffffffc3601126107c15760443560043560643560243567ffffffffffffffff82116107c15760607ffffffffffffffffffffffffffffffffffffffffffffffffffffffffffffffffc83360301126107c15760405190610dc882612803565b82600401358252610ddb6024840161292e565b926020830193845260448101359067ffffffffffffffff82116107c1570190366023830112156107c157600482013591610e1483612860565b92610e22604051948561281f565b808452602060048186019260051b84010101913683116107c157602401905b8282106113ee575050506040830191825260843567ffffffffffffffff81116107c157610e72903690600401612878565b9360a435948051871015611390578215611332578451156112d4578715159483866112a3575b610ead90610ea68a85612bb5565b5190613a6f565b925f84600f0b131561121f57610ee39389610ed492610edc94519051600f0b895191614224565b989092612bb5565b519061497d565b95861561119b575f93611175575b50610efc8387612a2e565b90811515918261116a575b5050156110e65751935f92835b8651851015610f3f57610f37600191610f2d878a612bb5565b51600f0b906130be565b940193610f14565b90855f83600f0b1315611088576108ee610f6291610f5c85612fec565b946130be565b9181610fe45750505b8015610f865760609260405192835260208301526040820152f35b60646040517f08c379a000000000000000000000000000000000000000000000000000000000815260206004820152601f60248201527f737761704d696e74416d6f756e74733a207a65726f204c50206d696e746564006044820152fd5b9091811561102a57818082111561102157610ffe91612a85565b915b8215611018576110139261096091612a3b565b610f6b565b5050505f610f6b565b50505f91611000565b60646040517f08c379a000000000000000000000000000000000000000000000000000000000815260206004820152601f60248201527f737761704d696e74416d6f756e74733a206f6c645363616c6564207a65726f006044820152fd5b60646040517f08c379a000000000000000000000000000000000000000000000000000000000815260206004820152601b60248201527f737761704d696e74416d6f756e74733a207a65726f20746f74616c00000000006044820152fd5b60846040517f08c379a000000000000000000000000000000000000000000000000000000000815260206004820152602560248201527f737761704d696e74416d6f756e74733a207472616e736665722065786365656460448201527f73206d61780000000000000000000000000000000000000000000000000000006064820152fd5b111590508680610f07565b61118191935086612a3b565b620f423f8101809111610a7857620f424090049186610ef1565b60846040517f08c379a000000000000000000000000000000000000000000000000000000000815260206004820152603560248201527f737761704d696e74416d6f756e74733a20696e707574207a65726f206166746560448201527f7220696e7465726e616c20636f6e76657273696f6e00000000000000000000006064820152fd5b60846040517f08c379a000000000000000000000000000000000000000000000000000000000815260206004820152602a60248201527f737761704d696e74416d6f756e74733a20696e70757420746f6f20736d616c6c60448201527f20616674657220666565000000000000000000000000000000000000000000006064820152fd5b506112ae8985612a3b565b620f423f8101809111610a78576112cd620f4240610ead920486612a85565b9050610e98565b60646040517f08c379a000000000000000000000000000000000000000000000000000000000815260206004820152601c60248201527f737761704d696e74416d6f756e74733a20756e696e697420706f6f6c000000006044820152fd5b60646040517f08c379a000000000000000000000000000000000000000000000000000000000815260206004820152601b60248201527f737761704d696e74416d6f756e74733a20696e707574207a65726f00000000006044820152fd5b60646040517f08c379a000000000000000000000000000000000000000000000000000000000815260206004820152601460248201527f737761704d696e74416d6f756e74733a206964780000000000000000000000006044820152fd5b602080916113fb8461292e565b815201910190610e41565b346107c1576101007ffffffffffffffffffffffffffffffffffffffffffffffffffffffffffffffffc3601126107c15761143e61278a565b6114466127ad565b60443590606435916084359360a4359283151584036107c15760e43561146a612d44565b61147960ff600654161561293c565b600a5496878710156119645784156119065780159081156118fb575b501561189d5760035495861561183f576114af8786613a6f565b60c435620f42400390620f42408211610a78576114ce6114d492613881565b906130fb565b9660075461150c6114f5600854600f0b9a856114ee612a92565b8d86613dc8565b506114ff856129a1565b90549060031b1c90613006565b9889156117e157836115349261152561153e958b613a6f565b9261152e612a92565b91613dc8565b506114ff836129a1565b87808211156117d85761155091612a85565b905b5f92801515806117cf575b61175b575b5061159573ffffffffffffffffffffffffffffffffffffffff611584836129e6565b90549060031b1c169789868a6133b5565b6115bd8673ffffffffffffffffffffffffffffffffffffffff871696873303611716576137a9565b6115c689612b26565b905f5b8a81106116bd5750506001985f5b818110611694575b50508261163973ffffffffffffffffffffffffffffffffffffffff947f8c012c6148e8ecc34b864721470dcc1e938d162c498b7d28961a8a78238cfe13969461165c9460209d5f1461168b5750611634613670565b612a85565b60408051988952602089018b905288015260608701529116939081906080820190565b0390a460017f9b779b17422d0df92223018b32b4d1fa46e071723d6817e2486d003becc55f0055604051908152f35b611634906131d1565b61169e8184612bb5565b51600f0b6116ae576001016115d7565b505f99508390506116396115df565b806116ec6116cc600193612a16565b90549060031b1c878d868514611702575b50506106738161063085612a16565b6116f68286612bb5565b90600f0b9052016115c9565b6116349061170f93612a85565b878d6116dd565b875f52600260205260405f2073ffffffffffffffffffffffffffffffffffffffff33165f5260205261175661174f8360405f2054612a85565b33836136d4565b6137a9565b620f424091935061176c9083612a3b565b04918261177a575b89611562565b6117ca611786826129fe565b6117968683548360031b1c612a2e565b907fffffffffffffffffffffffffffffffffffffffffffffffffffffffffffffffff83549160031b92831b921b1916179055565b611774565b5082151561155d565b50505f90611552565b60646040517f08c379a000000000000000000000000000000000000000000000000000000000815260206004820152601560248201527f6275726e537761703a206f7574707574207a65726f00000000000000000000006044820152fd5b60646040517f08c379a000000000000000000000000000000000000000000000000000000000815260206004820152601660248201527f6275726e537761703a20656d70747920737570706c79000000000000000000006044820152fd5b60646040517f08c379a000000000000000000000000000000000000000000000000000000000815260206004820152601260248201527f6275726e537761703a20646561646c696e6500000000000000000000000000006044820152fd5b905042111588611495565b60646040517f08c379a000000000000000000000000000000000000000000000000000000000815260206004820152601160248201527f6275726e537761703a207a65726f206c700000000000000000000000000000006044820152fd5b60646040517f08c379a000000000000000000000000000000000000000000000000000000000815260206004820152600d60248201527f6275726e537761703a20696478000000000000000000000000000000000000006044820152fd5b346107c15760c07ffffffffffffffffffffffffffffffffffffffffffffffffffffffffffffffffc3601126107c15760643560043560443560243567ffffffffffffffff84116107c15760607ffffffffffffffffffffffffffffffffffffffffffffffffffffffffffffffffc85360301126107c15760405191611a4583612803565b84600401358352611a586024860161292e565b946020840195865260448101359067ffffffffffffffff82116107c1570192366023850112156107c157600484013593611a9185612860565b94611a9f604051968761281f565b808652602060048188019260051b84010101913683116107c157602401905b828210611ce1575050506040810193845260843567ffffffffffffffff81116107c157611aef903690600401612878565b9460a4358651851015611c83578115611c25578015611bc757611b1191613a6f565b91620f42400391620f42408311610a7857611b5896611b5195611b3b86936114ce611b4a97613881565b93519151600f0b905191613dc8565b5092612bb5565b5190613006565b8015611b6957602090604051908152f35b60646040517f08c379a000000000000000000000000000000000000000000000000000000000815260206004820152601c60248201527f6275726e53776170416d6f756e74733a206f7574707574207a65726f000000006044820152fd5b60646040517f08c379a000000000000000000000000000000000000000000000000000000000815260206004820152601d60248201527f6275726e53776170416d6f756e74733a20656d70747920737570706c790000006044820152fd5b60646040517f08c379a000000000000000000000000000000000000000000000000000000000815260206004820152601860248201527f6275726e53776170416d6f756e74733a207a65726f206c7000000000000000006044820152fd5b60646040517f08c379a000000000000000000000000000000000000000000000000000000000815260206004820152601460248201527f6275726e53776170416d6f756e74733a206964780000000000000000000000006044820152fd5b60208091611cee8461292e565b815201910190611abe565b346107c157610d41610d2d611d0d366128d5565b92919091612c49565b346107c15760a07ffffffffffffffffffffffffffffffffffffffffffffffffffffffffffffffffc3601126107c157611d4d61278a565b611d556127ad565b608435916044359160643584151585036107c157611d71612d44565b80159081156120c5575b501561206757600a54928015612009576003548015611fab57600754949594611dad91611da6612bc9565b9184612c49565b935f5b868110611f4c575050611dc285612b26565b5f5b868110611f0657506001955f5b818110611ec9575b505091611e4f73ffffffffffffffffffffffffffffffffffffffff927f3f84ed8aa11ed632de380466083280b4c5da668f12695b08636d7848eaf896b494610d41985f14611ebb5750611e2a613670565b838616803303611e8a575b50611e4081876137a9565b86604051948594169684612c11565b0390a260017f9b779b17422d0df92223018b32b4d1fa46e071723d6817e2486d003becc55f00556040519182916020835260208301906127d0565b5f52600260205260405f208433165f52602052611eb5611eae8260405f2054612a85565b33886136d4565b88611e35565b611ec4906131d1565b611e2a565b611ed38184612bb5565b51600f0b611ee357600101611dd1565b505f9650611e4f905073ffffffffffffffffffffffffffffffffffffffff611dd9565b80611f33610b3f611f1b6001949a999a612a16565b90549060031b1c611f2c848c612bb5565b5190612a85565b611f3d8285612bb5565b90600f0b905201959495611dc4565b80611f5b600192889998612bb5565b51611f6a575b01959495611db0565b611fa68373ffffffffffffffffffffffffffffffffffffffff611f8c846129e6565b90549060031b1c1687611f9f858d612bb5565b51916133b5565b611f61565b60646040517f08c379a000000000000000000000000000000000000000000000000000000000815260206004820152601260248201527f6275726e3a20656d70747920737570706c7900000000000000000000000000006044820152fd5b60646040517f08c379a000000000000000000000000000000000000000000000000000000000815260206004820152600d60248201527f6275726e3a207a65726f206c70000000000000000000000000000000000000006044820152fd5b60646040517f08c379a000000000000000000000000000000000000000000000000000000000815260206004820152601760248201527f6275726e3a20646561646c696e652065786365656465640000000000000000006044820152fd5b905042111585611d7b565b60e07ffffffffffffffffffffffffffffffffffffffffffffffffffffffffffffffffc3601126107c15761210261278a565b61210a6127ad565b90604435906064356084359360a4359360c4359061212d60ff600654161561293c565b612135612d44565b600a54968782101561272c5784156126ce5780159081156126c3575b50156126655760075480156126075761217861216d8887612dbb565b905061067c846129a1565b905f82600f0b1315612583576121b991836121a192600854600f0b61219b612a92565b91614224565b91906121ac846129a1565b90549060031b1c90612ddd565b9687156124ff576121cd6121d49189612e0f565b8098612a2e565b9485151590816124f4575b5015612496576122158573ffffffffffffffffffffffffffffffffffffffff612207856129e6565b90549060031b1c1688612e48565b5f928015158061248d575b61245d575b5061224e6122338487612a85565b61179661223f85612a16565b91909283548360031b1c612a2e565b612259610180612a92565b9761226d6122668a612fec565b928a6130be565b9161227783612fec565b60035490918161241b575050985b89156123bd579089929161229882612b26565b925f5b8381106123745750505050926123108173ffffffffffffffffffffffffffffffffffffffff6123027fcbf41a060d7827197acec8e5ef3abf36d633e77060f7aec03943608d1cd84ebe98966122fd612339976122f7859b6131d1565b8961331e565b6129e6565b90549060031b1c1699612a85565b898560405196879616991697859094939260609260808301968352602083015260408201520152565b0390a460017f9b779b17422d0df92223018b32b4d1fa46e071723d6817e2486d003becc55f0055478015801561028657602083604051908152f35b82939495506123a1829361239c60019461238d85612b75565b90549060031b1c600f0b6130fb565b61318b565b6123ab8288612bb5565b90600f0b905201908b9493929161229b565b60646040517f08c379a000000000000000000000000000000000000000000000000000000000815260206004820152601860248201527f737761704d696e743a207a65726f204c50206d696e74656400000000000000006044820152fd5b909181808211156124545761242f91612a85565b915b821561244a576124449261096091612a3b565b98612285565b5050505f98612285565b50505f91612431565b620f424091935061246e9088612a3b565b04918261247c575b88612225565b612488611786836129fe565b612476565b50871515612220565b60646040517f08c379a000000000000000000000000000000000000000000000000000000000815260206004820152601e60248201527f737761704d696e743a207472616e736665722065786365656473206d617800006044820152fd5b9050851115896121df565b60846040517f08c379a000000000000000000000000000000000000000000000000000000000815260206004820152602e60248201527f737761704d696e743a20696e707574207a65726f20616674657220696e74657260448201527f6e616c20636f6e76657273696f6e0000000000000000000000000000000000006064820152fd5b60846040517f08c379a000000000000000000000000000000000000000000000000000000000815260206004820152602360248201527f737761704d696e743a20696e70757420746f6f20736d616c6c2061667465722060448201527f66656500000000000000000000000000000000000000000000000000000000006064820152fd5b60646040517f08c379a000000000000000000000000000000000000000000000000000000000815260206004820152601560248201527f737761704d696e743a20756e696e697420706f6f6c00000000000000000000006044820152fd5b60646040517f08c379a000000000000000000000000000000000000000000000000000000000815260206004820152601260248201527f737761704d696e743a20646561646c696e6500000000000000000000000000006044820152fd5b905042111588612151565b60646040517f08c379a000000000000000000000000000000000000000000000000000000000815260206004820152601460248201527f737761704d696e743a20696e707574207a65726f0000000000000000000000006044820152fd5b60646040517f08c379a000000000000000000000000000000000000000000000000000000000815260206004820152600d60248201527f737761704d696e743a20696478000000000000000000000000000000000000006044820152fd5b6004359073ffffffffffffffffffffffffffffffffffffffff821682036107c157565b6024359073ffffffffffffffffffffffffffffffffffffffff821682036107c157565b90602080835192838152019201905f5b8181106127ed5750505090565b82518452602093840193909201916001016127e0565b6060810190811067ffffffffffffffff82111761057557604052565b90601f7fffffffffffffffffffffffffffffffffffffffffffffffffffffffffffffffe0910116810190811067ffffffffffffffff82111761057557604052565b67ffffffffffffffff81116105755760051b60200190565b9080601f830112156107c157813561288f81612860565b9261289d604051948561281f565b81845260208085019260051b8201019283116107c157602001905b8282106128c55750505090565b81358152602091820191016128b8565b9060807ffffffffffffffffffffffffffffffffffffffffffffffffffffffffffffffffc8301126107c1576004359160243591604435916064359067ffffffffffffffff82116107c15761292b91600401612878565b90565b359081600f0b82036107c157565b1561294357565b60646040517f08c379a000000000000000000000000000000000000000000000000000000000815260206004820152600660248201527f6b696c6c656400000000000000000000000000000000000000000000000000006044820152fd5b600c548110156129b957600c5f5260205f2001905f90565b7f4e487b71000000000000000000000000000000000000000000000000000000005f52603260045260245ffd5b600a548110156129b957600a5f5260205f2001905f90565b600b548110156129b957600b5f5260205f2001905f90565b600e548110156129b957600e5f5260205f2001905f90565b91908201809211610a7857565b81810292918115918404141715610a7857565b8115612a58570490565b7f4e487b71000000000000000000000000000000000000000000000000000000005f52601260045260245ffd5b91908203918211610a7857565b60405190600954808352826020810160095f5260205f20925f905b806001830110612afa57612ad3945491818110612ae6575b10612ad5575b50038361281f565b565b60801d600f0b81526020015f612acb565b92602060019184600f0b8152019301612ac5565b9160029193506040600191865480600f0b825260801d600f0b6020820152019401920185929391612aad565b90612b3082612860565b612b3d604051918261281f565b8281527fffffffffffffffffffffffffffffffffffffffffffffffffffffffffffffffe0612b6b8294612860565b0190602036910137565b906009548210156129b95760095f52600182901c7f6e1540171b6c0c960b71a7020d9f60077f6af931a8bbf590da0223dacf75c7af019160041b60101690565b80518210156129b95760209160051b010190565b60405190600e548083528260208101600e5f5260205f20925f5b818110612bf8575050612ad39250038361281f565b8454835260019485019487945060209093019201612be3565b939291612c449073ffffffffffffffffffffffffffffffffffffffff6040931686526060602087015260608601906127d0565b930152565b919091612c5583612b26565b9382158015612ca7575b612ca0575f5b848110612c7457505050505090565b80612c8f85610960612c8860019587612bb5565b5187612a3b565b612c998289612bb5565b5201612c65565b5050505090565b508315612c5f565b612cb882612b26565b9383158015612d3c575b612ca0575f5b838110612cd757505050505090565b612cf485612cef612ce88486612bb5565b5186612a3b565b612a2e565b907fffffffffffffffffffffffffffffffffffffffffffffffffffffffffffffffff8201918211610a7857612d2b86600193612a4e565b612d358289612bb5565b5201612cc8565b508215612cc2565b60027f9b779b17422d0df92223018b32b4d1fa46e071723d6817e2486d003becc55f005414612d935760027f9b779b17422d0df92223018b32b4d1fa46e071723d6817e2486d003becc55f0055565b7f3ee5aeb5000000000000000000000000000000000000000000000000000000005f5260045ffd5b91908015612dd757612dd061292b9184612e0f565b8093612a85565b505f9190565b612df1612dea8383613006565b9283613a6f565b90600f0b90600f0b12612e015790565b60018101809111610a785790565b908015612e4257612e1f91612a3b565b620f4240810190818111610a7857620f423f01908111610a7857620f4240900490565b50505f90565b9073ffffffffffffffffffffffffffffffffffffffff7f0000000000000000000000000000000000000000000000000000000000000000169173ffffffffffffffffffffffffffffffffffffffff82169183831480612fb7575b15612ef857505050803b156107c1575f906004604051809481937fd0e30db00000000000000000000000000000000000000000000000000000000083525af180156102a257612eee5750565b5f612ad39161281f565b919390925073ffffffffffffffffffffffffffffffffffffffff604051937f23b872dd000000000000000000000000000000000000000000000000000000005f52166004523060245260445260205f60648180855af19060015f5114821615612f98575b50906040525f60605215612f6d5750565b7f5274afe7000000000000000000000000000000000000000000000000000000005f5260045260245ffd5b6001821516612fae573b15153d1516165f612f5c565b823d5f823e3d90fd5b5084341015612ea2565b5f90815b8151831015612fe657612fde600191610f2d8585612bb5565b920191612fc5565b91505090565b600f0b5f81126107c157670de0b6b3a76400000260401c90565b8115612e4257600f0b5f81126107c1576fffffffffffffffffffffffffffffffff8216810260401c9160801c0277ffffffffffffffffffffffffffffffffffffffffffffffff81116107c15760401b811981116107c1570190565b600f0b68010000000000000000017fffffffffffffffffffffffffffffffff80000000000000000000000000000000811215806130a4575b156107c157600f0b90565b506f7fffffffffffffffffffffffffffffff811315613099565b90600f0b90600f0b017fffffffffffffffffffffffffffffffff80000000000000000000000000000000811215806130a457156107c157600f0b90565b90600f0b90600f0b0260401d7fffffffffffffffffffffffffffffffff80000000000000000000000000000000811215806130a457156107c157600f0b90565b600f0b80156107c157700100000000000000000000000000000000057fffffffffffffffffffffffffffffffff80000000000000000000000000000000811215806130a457156107c157600f0b90565b90600f0b9081156107c15760401b60170b057fffffffffffffffffffffffffffffffff80000000000000000000000000000000811215806130a457156107c157600f0b90565b8051600754036132c0575f6131e582612fc1565b600f0b131561326257600991905f5b60075481101561325c576132088183612bb5565b51600f0b9084548110156129b957600191855f5261325460205f2083851c019160108460041b168354906fffffffffffffffffffffffffffffffff809160031b9316831b921b19161790565b9055016131f4565b50509050565b60646040517f08c379a000000000000000000000000000000000000000000000000000000000815260206004820152601460248201527f4c4d53523a206e657720746f74616c207a65726f0000000000000000000000006044820152fd5b60646040517f08c379a000000000000000000000000000000000000000000000000000000000815260206004820152601560248201527f4c4d53523a206c656e677468206d69736d6174636800000000000000000000006044820152fd5b73ffffffffffffffffffffffffffffffffffffffff16908115613389577fddf252ad1be2c89b69c2b068fc378daa952ba7f163c4a11628f55a4df523b3ef60208261336c5f94600354612a2e565b6003558484526001825260408420818154019055604051908152a3565b7fec442f05000000000000000000000000000000000000000000000000000000005f525f60045260245ffd5b9091928061361b575b15613551575073ffffffffffffffffffffffffffffffffffffffff7f00000000000000000000000000000000000000000000000000000000000000001690813b156107c1576040517f2e1a7d4d0000000000000000000000000000000000000000000000000000000081525f816024818380978960048401525af180156102a25761353c575b508180809481935af1903d15613536573d9067ffffffffffffffff8211613509576040519161349b60207fffffffffffffffffffffffffffffffffffffffffffffffffffffffffffffffe0601f840116018461281f565b825260203d92013e5b156134ab57565b60646040517f08c379a000000000000000000000000000000000000000000000000000000000815260206004820152601460248201527f7265636569766572206e6f742070617961626c650000000000000000000000006044820152fd5b807f4e487b7100000000000000000000000000000000000000000000000000000000602492526041600452fd5b506134a4565b6135499192505f9061281f565b5f905f613444565b9173ffffffffffffffffffffffffffffffffffffffff604051927fa9059cbb000000000000000000000000000000000000000000000000000000005f521660045260245260205f60448180865af19060015f51148216156135fa575b604052156135b85750565b73ffffffffffffffffffffffffffffffffffffffff907f5274afe7000000000000000000000000000000000000000000000000000000005f521660045260245ffd5b90600181151661361257823b15153d151616906135ad565b503d5f823e3d90fd5b5073ffffffffffffffffffffffffffffffffffffffff7f00000000000000000000000000000000000000000000000000000000000000001673ffffffffffffffffffffffffffffffffffffffff8216146133be565b5f6007557fffffffffffffffffffffffffffffffff00000000000000000000000000000000600854166008556009545f600955806136ab5750565b60095f52600160205f20910160011c8101905b8181106136c9575050565b5f81556001016136be565b73ffffffffffffffffffffffffffffffffffffffff1690811561377d5773ffffffffffffffffffffffffffffffffffffffff169182156137515760207f8c5be1e5ebec7d5bd14f71427d1e84f3dd0314c0f7b2291e5b200ac8c7c3b92591835f526002825260405f20855f5282528060405f2055604051908152a3565b7f94280d62000000000000000000000000000000000000000000000000000000005f525f60045260245ffd5b7fe602df05000000000000000000000000000000000000000000000000000000005f525f60045260245ffd5b90919073ffffffffffffffffffffffffffffffffffffffff16801561385557805f52600160205260405f2054838110613822576020845f94957fddf252ad1be2c89b69c2b068fc378daa952ba7f163c4a11628f55a4df523b3ef93858752600184520360408620558060035403600355604051908152a3565b91507fe450d38c000000000000000000000000000000000000000000000000000000005f5260045260245260445260645ffd5b7f96c6fd1e000000000000000000000000000000000000000000000000000000005f525f60045260245ffd5b5f9077ffffffffffffffffffffffffffffffffffffffffffffffff811161392d578161390057620f42409060401b045b6fffffffffffffffffffffffffffffffff81116138fc576fffffffffffffffffffffffffffffffff16906f7fffffffffffffffffffffffffffffff82116138f95750600f0b90565b80fd5b5080fd5b6024827f4e487b710000000000000000000000000000000000000000000000000000000081526012600452fd5b9060c09180831c8093640100000000821015613a62575b600282620100006139b2941015613a56575b610100811015613a4a575b6010811015613a3e575b6004811015613a33575b1015613a2b575b826001620f423f7fffffffffffffffffffffffffffffffffffffffffffffffffffffffffffffff4184011c019160ff031b612a4e565b916fffffffffffffffffffffffffffffffff83116107c157620f4240830291849060401b94838610613a01575b506139f65750620f4240905f930304905b016138b1565b9250506001906139f0565b7fffffffffffffffffffffffffffffffffffffffffffffffffffffffffffffffff9150015f6139df565b60010161397c565b91810191811c613975565b6004928301921c61396b565b6008928301921c613961565b6010928301921c613956565b505060e081811c90613944565b81156107c15777ffffffffffffffffffffffffffffffffffffffffffffffff8111613ae75790613aa19160401b612a4e565b6fffffffffffffffffffffffffffffffff81116107c1576fffffffffffffffffffffffffffffffff166f7fffffffffffffffffffffffffffffff81116107c157600f0b90565b60c09181831c8093640100000000821015613c8c575b60028262010000613b8a941015613c80575b610100811015613c74575b6010811015613c68575b6004811015613c5d575b1015613c55575b8360017fffffffffffffffffffffffffffffffffffffffffffffffffffffffffffffffff85017fffffffffffffffffffffffffffffffffffffffffffffffffffffffffffffff4184011c019160ff031b612a4e565b926fffffffffffffffffffffffffffffffff84116107c1578160801c8402906fffffffffffffffffffffffffffffffff8316850290809460401b90828210613c2b575b5003928160801b91828510613c02575b60801c03613bf757613bef9203612a4e565b905b01613aa1565b505050600190613bf1565b907fffffffffffffffffffffffffffffffffffffffffffffffffffffffffffffffff0190613bdd565b7fffffffffffffffffffffffffffffffffffffffffffffffffffffffffffffffff0194505f613bcd565b600101613b35565b91810191811c613b2e565b6004928301921c613b24565b6008928301921c613b1a565b6010928301921c613b0f565b505060e082811c90613afd565b15613ca057565b60646040517f08c379a000000000000000000000000000000000000000000000000000000000815260206004820152600960248201527f4c4d53523a2069647800000000000000000000000000000000000000000000006044820152fd5b15613d0557565b60646040517f08c379a000000000000000000000000000000000000000000000000000000000815260206004820152601660248201527f4c4d53523a2073697a65206d6574726963207a65726f000000000000000000006044820152fd5b15613d6a57565b60646040517f08c379a000000000000000000000000000000000000000000000000000000000815260206004820152600a60248201527f4c4d53523a20623c3d30000000000000000000000000000000000000000000006044820152fd5b94939294613dd7818710613c99565b83600f0b5f81139081614210575b50156141b257613e0c613df784612fc1565b8093613e075f83600f0b13613cfe565b6130fb565b91613e1b5f84600f0b13613d63565b613e2e613e278461313b565b91866130fb565b96613e3883612b26565b935f5b84811061417f5750613e5a613e508388612bb5565b51600f0b886130fb565b965f88600f0b13965f5b868110613eef575050505050505050158015613ee2575b613e83579190565b6040517f08c379a000000000000000000000000000000000000000000000000000000000815260206004820152601160248201527f4c4d53523a207a65726f206f75747075740000000000000000000000000000006044820152606490fd5b505f81600f0b1315613e7b565b848103613f02575b600101955b95613e64565b613f19613f0f8284612bb5565b51600f0b846130fb565b5f81600f0b13613f2a575b50613ef7565b613f3a87829c949c9b939b6130fb565b9182600f0b92682000000000000000008413614153577fffffffffffffffffffffffffffffffff80000000000000000000000000000000613fa4613f9f8b8f8f613f958e613f8b613e079484612bb5565b51600f0b92612bb5565b51600f0b906149f4565b614a49565b94146107c157613fc3613fbe613fc9925f03600f0b614a49565b6149b2565b846130fb565b600f0b68010000000000000000017fffffffffffffffffffffffffffffffff8000000000000000000000000000000081121580614165575b156107c157600f0b5f8113156141535761401d61402391614aab565b876130fb565b9288888c6140318282612bb5565b51600f0b87600f0b136140a657614060945061409c9795935061405792508e9150612bb5565b51600f0b6130be565b61406a8b8b612bb5565b90600f0b90526140878261407e888c612bb5565b51600f0b6149f4565b614091878b612bb5565b90600f0b90526130be565b9760019788613f24565b6140d79496506140c9939550613f9f92916140c091612bb5565b51600f0b6130fb565b6140d283613061565b6149f4565b915f83600f0b131561414257506141066141006140fb61412a95946141109461318b565b614aab565b866130fb565b6140578b8b612bb5565b61411a8a8a612bb5565b90600f0b9052610f2d8589612bb5565b975f6141368589612bb5565b52600180980195613efc565b999050600191509991990195613efc565b50999050600191509991990195613efc565b506f7fffffffffffffffffffffffffffffff811315614001565b8061419c61418f6001938a612bb5565b51600f0b6114ce8b6149b2565b6141a68289612bb5565b90600f0b905201613e3b565b60646040517f08c379a000000000000000000000000000000000000000000000000000000000815260206004820152600b60248201527f4c4d53523a20616c7068610000000000000000000000000000000000000000006044820152fd5b68010000000000000000915013155f613de5565b929091949394614235848310613c99565b5f86600f0b131561491f5761424981612fc1565b9361425e855f81600f0b1395613e0787613cfe565b9061426d5f83600f0b13613d63565b6142768261313b565b9161428082612b26565b955f5b8381106148e457506510c6f7a0b5ed905f9015614886576142a4898c61318b565b916801000000000000000083600f0b12614875575b5f5b6040811061466a575b505f9b5f935b6040851061443a575b50505050505f955f935f5b84811061433b575b505050505061432f579161430e614304614313936143199695612bb5565b51600f0b876130fb565b6130be565b936130fb565b915f83600f0b13801590613ee257613e83579190565b5050505090505f905f90565b87810361434b575b6001016142de565b6143626143588289612bb5565b51600f0b8d6130fb565b5f81600f0b13614373575b50614343565b82614380919a929a6130fb565b6820000000000000000081600f0b136144265761439f6143b591614a49565b6140d26143ac8c87612bb5565b51600f0b613061565b5f81600f0b1315614426576143d7906143ce8b86612bb5565b51600f0b61318b565b5f81600f0b1315614426576143ee6143f491614aab565b856130fb565b905f82600f0b126144125760019161440b916130be565b989061436d565b985050505050505060015f808080806142e6565b509750505050505060015f808080806142e6565b6802000000000000000061444e82866130be565b60401b60170b057fffffffffffffffffffffffffffffffff8000000000000000000000000000000081121580614650575b156107c157600f0b90898c8c5f915f905f905b8d8210614532575b505015614513575050506f7fffffffffffffffffffffffffffffff5b83600f0b90600f0b135f1461450a5750935b826144d385876149f4565b600f0b13156144f857603f81146144ee575b600101936142ca565b929c508c926144e5565b50505091995050975f808080806142d3565b949350926144c8565b61452361430e9161452d94612bb5565b51600f0b856130fb565b6144b6565b9092839592949503614550575b50506001018c92918f918f92614492565b8d61456861455e8585612bb5565b51600f0b896130fb565b5f81600f0b1361457a575b505061453f565b90614587919694966130fb565b6820000000000000000081600f0b13614640576145a66145b391614a49565b6140d26143ac8885612bb5565b915f83600f0b13156146305750906143ce856145ce93612bb5565b8d5f82600f0b131561462157506145e76145ed91614aab565b8b6130fb565b908d5f83600f0b126146125750600191614606916130be565b9290508c8f8d5f614573565b93509150508c60018f8061449a565b93505090508c60018f8061449a565b9450505090508c60018f8061449a565b5050925090508c60018f8061449a565b506f7fffffffffffffffffffffffffffffff81131561447f565b925f5f5f5b88811061475d575b501561474757506f7fffffffffffffffffffffffffffffff5b8d600f0b90600f0b1280159061472f575b61472957600f0b60411b60401d7fffffffffffffffffffffffffffffffff800000000000000000000000000000008112158061470f575b156107c157600f0b926a100000000000000000000084136146fc575b6001016142bb565b6a100000000000000000000093506146f4565b506f7fffffffffffffffffffffffffffffff8113156146d8565b926142c4565b506a100000000000000000000081600f0b12156146a1565b6147589061430e613f0f8c8c612bb5565b614690565b839e9c9a98969f9d9b9980989695948b830361478c575b50506001019e9597999b9d92939496989a9c9e61466f565b6147a49061479a848d612bb5565b51600f0b906130fb565b5f81600f0b136147b6575b508f614774565b906147c3919492946130fb565b6820000000000000000081600f0b1361485b578b6140d26143ac866147ea6147f095614a49565b93612bb5565b5f81600f0b131561485b57614809906143ce858e612bb5565b5f81600f0b131561485b5761401d61482091614aab565b905f82600f0b1261484157600191614837916130be565b929050875f6147af565b9250505060019d9496989a9c9192939597999b9d5f614677565b5091505060019d9496989a9c9192939597999b9d5f614677565b6801000000000000000092506142b9565b60646040517f08c379a000000000000000000000000000000000000000000000000000000000815260206004820152601960248201527f4c4d53523a20737761704d696e7420646567656e6572617465000000000000006044820152fd5b600190614909613f9f87613e076148fb8c8c612bb5565b51600f0b613f95868d612bb5565b614913828b612bb5565b90600f0b905201614283565b60646040517f08c379a000000000000000000000000000000000000000000000000000000000815260206004820152601160248201527f4c4d53523a20616d6f756e74203c3d20300000000000000000000000000000006044820152fd5b6149a261499361498d8484613006565b93614a31565b61499c84614a31565b926130fb565b90600f0b90600f0b13612e015790565b600f0b68010000000000000000037fffffffffffffffffffffffffffffffff80000000000000000000000000000000811215806130a457156107c157600f0b90565b90600f0b90600f0b037fffffffffffffffffffffffffffffffff80000000000000000000000000000000811215806130a457156107c157600f0b90565b677fffffffffffffff81116107c15760401b600f0b90565b600f0b684000000000000000008112156107c1577fffffffffffffffffffffffffffffffffffffffffffffffc000000000000000008112614aa657700171547652b82fe1777d0ffda0d23a7d1261292b910260801d600f0b614bd8565b505f90565b600f0b5f8113156107c1575f908068010000000000000000821215614bcb575b806401000000006002921215614bbf575b62010000811215614bb3575b610100811215614ba7575b6010811215614b9b575b6004811215614b90575b1215614b86575b7fffffffffffffffffffffffffffffffffffffffffffffffffffffffffffffffc0820160401b91607f031b90678000000000000000915b5f8313614b6a57506fb17217f7d1cf79abc9e3b39803f2f6af9150600f0b0260801d90565b8002908160ff1c9182607f011c918302019160011d9190614b45565b9060010190614b0e565b92810192811d614b07565b6004938401931d614afd565b6008938401931d614af3565b6010938401931d614ae8565b6020938401931d614adc565b506040915080821d614acb565b80600f0b684000000000000000008112156107c1577fffffffffffffffffffffffffffffffffffffffffffffffc000000000000000008112612e42576f80000000000000000000000000000000915f6780000000000000008216600f0b136157d4575b5f6740000000000000008216600f0b136157b7575b5f6720000000000000008216600f0b1361579a575b5f6710000000000000008216600f0b1361577d575b5f6708000000000000008216600f0b13615760575b5f6704000000000000008216600f0b13615743575b5f6702000000000000008216600f0b13615726575b5f6701000000000000008216600f0b13615709575b5f66800000000000008216600f0b136156ec575b5f66400000000000008216600f0b136156cf575b5f66200000000000008216600f0b136156b2575b5f66100000000000008216600f0b13615695575b5f66080000000000008216600f0b13615678575b5f66040000000000008216600f0b1361565b575b5f66020000000000008216600f0b1361563e575b5f66010000000000008216600f0b13615621575b5f658000000000008216600f0b13615604575b5f654000000000008216600f0b136155e7575b5f652000000000008216600f0b136155ca575b5f651000000000008216600f0b136155ad575b5f650800000000008216600f0b13615590575b5f650400000000008216600f0b13615573575b5f650200000000008216600f0b13615556575b5f650100000000008216600f0b13615539575b5f6480000000008216600f0b1361551c575b5f6440000000008216600f0b136154ff575b5f6420000000008216600f0b136154e2575b5f6410000000008216600f0b136154c5575b5f6408000000008216600f0b136154a8575b5f6404000000008216600f0b1361548b575b5f6402000000008216600f0b1361546e575b5f6401000000008216600f0b13615451575b5f63800000008216600f0b13615434575b5f63400000008216600f0b13615417575b5f63200000008216600f0b136153fa575b5f63100000008216600f0b136153dd575b5f63080000008216600f0b136153c0575b5f63040000008216600f0b136153a3575b5f63020000008216600f0b13615386575b5f63010000008216600f0b13615369575b5f628000008216600f0b1361534c575b5f624000008216600f0b1361532f575b5f622000008216600f0b13615312575b5f621000008216600f0b136152f5575b5f620800008216600f0b136152d8575b5f620400008216600f0b136152bb575b5f620200008216600f0b1361529e575b5f620100008216600f0b13615281575b5f6180008216600f0b13615264575b5f6140008216600f0b13615247575b5f6120008216600f0b1361522a575b5f6110008216600f0b1361520d575b5f6108008216600f0b136151f0575b5f6104008216600f0b136151d3575b5f6102008216600f0b136151b6575b5f6101008216600f0b13615199575b5f60808216600f0b1361517c575b5f60408216600f0b1361515f575b5f60208216600f0b13615142575b5f60108216600f0b13615125575b5f60088216600f0b13615108575b5f60048216600f0b136150eb575b5f60028216600f0b136150cd575b60015f9116600f0b136150b0575b60401d600f0b603f03600f0b1c6f7fffffffffffffffffffffffffffffff81116107c157600f0b90565b9070010000000000000000b17217f7d1cf79ab0260801c90615086565b7001000000000000000162e42fefa39ef35890920260801c91615078565b9170010000000000000002c5c85fdf473de6b20260801c9161506a565b91700100000000000000058b90bfbe8e7bcd6d0260801c9161505c565b917001000000000000000b17217f7d1cf79afa0260801c9161504e565b91700100000000000000162e42fefa39ef366f0260801c91615040565b917001000000000000002c5c85fdf473de6eca0260801c91615032565b9170010000000000000058b90bfbe8e7bce5440260801c91615024565b91700100000000000000b17217f7d1cf79e9490260801c91615016565b9170010000000000000162e42fefa39ef44d910260801c91615007565b91700100000000000002c5c85fdf473dea871f0260801c91614ff8565b917001000000000000058b90bfbe8e7bdcbe2e0260801c91614fe9565b9170010000000000000b17217f7d1cf7d83c1a0260801c91614fda565b917001000000000000162e42fefa39f02b772c0260801c91614fcb565b9170010000000000002c5c85fdf473e242ea380260801c91614fbc565b91700100000000000058b90bfbe8e7cc35c3f00260801c91614fad565b917001000000000000b17217f7d1cfb72b45e10260801c91614f9e565b91700100000000000162e42fefa39fe95583c20260801c91614f8e565b917001000000000002c5c85fdf4741bea6e77e0260801c91614f7e565b9170010000000000058b90bfbe8e8b2d3d4ede0260801c91614f6e565b91700100000000000b17217f7d1d351a389d400260801c91614f5e565b9170010000000000162e42fefa3ae53369388c0260801c91614f4e565b91700100000000002c5c85fdf477b662b269450260801c91614f3e565b917001000000000058b90bfbe8f71cb4e4b33d0260801c91614f2e565b9170010000000000b17217f7d20cf927c8e94c0260801c91614f1e565b917001000000000162e42fefa494f1478fde050260801c91614f0d565b9170010000000002c5c85fdf4b15de6f17eb0d0260801c91614efc565b91700100000000058b90bfbe9ddbac5e109cce0260801c91614eeb565b917001000000000b17217f7d5a7716bba4a9ae0260801c91614eda565b91700100000000162e42fefb2fed257559bdaa0260801c91614ec9565b917001000000002c5c85fdf84bd62ae30a74cc0260801c91614eb8565b9170010000000058b90bfbf8479bd5a81b51ad0260801c91614ea7565b91700100000000b17217f80f4ef5aadda455540260801c91614e96565b9170010000000162e42ff0999ce3541b9fffcf0260801c91614e84565b91700100000002c5c85fe31f35a6a30da1be500260801c91614e72565b917001000000058b90bfcdee5acd3c1cedc8230260801c91614e60565b9170010000000b17217fba9c739aa5819f44f90260801c91614e4e565b917001000000162e42fff037df38aa2b219f060260801c91614e3c565b9170010000002c5c8601cc6b9e94213c72737a0260801c91614e2a565b91700100000058b90c0b48c6be5df846c5b2ef0260801c91614e18565b917001000000b1721835514b86e6d96efd1bfe0260801c91614e06565b91700100000162e430e5a18f6119e3c02282a50260801c91614df3565b917001000002c5c863b73f016468f6bac5ca2b0260801c91614de0565b9170010000058b90cf1e6d97f9ca14dbcc16280260801c91614dcd565b91700100000b1721bcfc99d9f890ea069117630260801c91614dba565b9170010000162e43f4f831060e02d839a9d16d0260801c91614da7565b91700100002c5c89d5ec6ca4d7c8acc017b7c90260801c91614d94565b917001000058b91b5bc9ae2eed81e9b7d4cfab0260801c91614d81565b9170010000b17255775c040618bf4a4ade83fc0260801c91614d6e565b917001000162e525ee054754457d59952920260260801c91614d5a565b9170010002c5cc37da9491d0985c348c68e7b30260801c91614d46565b91700100058ba01fb9f96d6cacd4b180917c3d0260801c91614d32565b917001000b175effdc76ba38e31671ca9397250260801c91614d1e565b91700100162f3904051fa128bca9c55c31e5df0260801c91614d0a565b917001002c605e2e8cec506d21bfc89a23a00f0260801c91614cf6565b9170010058c86da1c09ea1ff19d294cf2f679b0260801c91614ce2565b91700100b1afa5abcbed6129ab13ec11dc95430260801c91614cce565b9170010163da9fb33356d84a66ae336dcdfa3f0260801c91614cb9565b91700102c9a3e778060ee6f7caca4f7a29bde80260801c91614ca4565b917001059b0d31585743ae7c548eb68ca417fd0260801c91614c8f565b9170010b5586cf9890f6298b92b71842a983630260801c91614c7a565b917001172b83c7d517adcdf7c8c50eb14a791f0260801c91614c65565b917001306fe0a31b7152de8d5a46305c85edec0260801c91614c50565b6fb504f333f9de6484597d89b3754abe9f9250614c3b56fea26469706673582212201e4cae40ff96dc6643e53d31f6f5cf05b629aca5a31abb4eb27f36440f6b6e4164736f6c634300081e0033","linkReferences":{}},"methodIdentifiers":{"burn(address,address,uint256,uint256,bool)":"6863f5bc","burnAmounts(uint256,uint256,uint256,uint256[])":"6f712e29","burnSwap(address,address,uint256,uint256,uint256,bool,uint256,uint256)":"8d01fa44","burnSwapAmounts(uint256,uint256,uint256,(uint256,int128,int128[]),uint256[],uint256)":"85b14c7e","initialMint(address,uint256,int128)":"c5eabfb9","mint(address,address,uint256,uint256)":"b3f1c93d","mintAmounts(uint256,uint256,uint256,uint256[])":"aee1e8be","swapMint(address,address,uint256,uint256,uint256,uint256,uint256)":"3dd3c805","swapMintAmounts(uint256,uint256,uint256,(uint256,int128,int128[]),uint256[],uint256)":"a991e20a"},"id":53}