{"abi":[{"type":"constructor","inputs":[{"name":"wrapper_","type":"address","internalType":"contract NativeWrapper"}],"stateMutability":"nonpayable"},{"type":"function","name":"burn","inputs":[{"name":"payer","type":"address","internalType":"address"},{"name":"receiver","type":"address","internalType":"address"},{"name":"lpAmount","type":"uint256","internalType":"uint256"},{"name":"deadline","type":"uint256","internalType":"uint256"},{"name":"unwrap","type":"bool","internalType":"bool"}],"outputs":[{"name":"withdrawAmounts","type":"uint256[]","internalType":"uint256[]"}],"stateMutability":"nonpayable"},{"type":"function","name":"burnAmounts","inputs":[{"name":"lpTokenAmount","type":"uint256","internalType":"uint256"},{"name":"totalSupply","type":"uint256","internalType":"uint256"},{"name":"cachedUintBalances","type":"uint256[]","internalType":"uint256[]"}],"outputs":[{"name":"withdrawAmounts","type":"uint256[]","internalType":"uint256[]"}],"stateMutability":"pure"},{"type":"function","name":"burnSwap","inputs":[{"name":"payer","type":"address","internalType":"address"},{"name":"receiver","type":"address","internalType":"address"},{"name":"lpAmount","type":"uint256","internalType":"uint256"},{"name":"outputTokenIndex","type":"uint256","internalType":"uint256"},{"name":"deadline","type":"uint256","internalType":"uint256"},{"name":"unwrap","type":"bool","internalType":"bool"},{"name":"swapFeePpm","type":"uint256","internalType":"uint256"},{"name":"protocolFeePpm","type":"uint256","internalType":"uint256"}],"outputs":[{"name":"amountOut","type":"uint256","internalType":"uint256"},{"name":"outFee","type":"uint256","internalType":"uint256"}],"stateMutability":"nonpayable"},{"type":"function","name":"burnSwapAmounts","inputs":[{"name":"lpAmount","type":"uint256","internalType":"uint256"},{"name":"outputTokenIndex","type":"uint256","internalType":"uint256"},{"name":"swapFeePpm","type":"uint256","internalType":"uint256"},{"name":"lmsrState","type":"tuple","internalType":"struct LMSRStabilized.State","components":[{"name":"kappa","type":"int128","internalType":"int128"},{"name":"qInternal","type":"int128[]","internalType":"int128[]"}]},{"name":"bases_","type":"uint256[]","internalType":"uint256[]"},{"name":"totalSupply_","type":"uint256","internalType":"uint256"}],"outputs":[{"name":"amountOut","type":"uint256","internalType":"uint256"},{"name":"outFee","type":"uint256","internalType":"uint256"}],"stateMutability":"pure"},{"type":"function","name":"initialMint","inputs":[{"name":"receiver","type":"address","internalType":"address"},{"name":"lpTokens","type":"uint256","internalType":"uint256"},{"name":"KAPPA","type":"int128","internalType":"int128"}],"outputs":[{"name":"lpMinted","type":"uint256","internalType":"uint256"}],"stateMutability":"payable"},{"type":"function","name":"mint","inputs":[{"name":"payer","type":"address","internalType":"address"},{"name":"receiver","type":"address","internalType":"address"},{"name":"lpTokenAmount","type":"uint256","internalType":"uint256"},{"name":"deadline","type":"uint256","internalType":"uint256"}],"outputs":[{"name":"lpMinted","type":"uint256","internalType":"uint256"}],"stateMutability":"payable"},{"type":"function","name":"mintAmounts","inputs":[{"name":"lpTokenAmount","type":"uint256","internalType":"uint256"},{"name":"totalSupply","type":"uint256","internalType":"uint256"},{"name":"cachedUintBalances","type":"uint256[]","internalType":"uint256[]"}],"outputs":[{"name":"depositAmounts","type":"uint256[]","internalType":"uint256[]"}],"stateMutability":"pure"},{"type":"function","name":"swapMint","inputs":[{"name":"payer","type":"address","internalType":"address"},{"name":"receiver","type":"address","internalType":"address"},{"name":"inputTokenIndex","type":"uint256","internalType":"uint256"},{"name":"maxAmountIn","type":"uint256","internalType":"uint256"},{"name":"deadline","type":"uint256","internalType":"uint256"},{"name":"swapFeePpm","type":"uint256","internalType":"uint256"},{"name":"protocolFeePpm","type":"uint256","internalType":"uint256"}],"outputs":[{"name":"amountIn","type":"uint256","internalType":"uint256"},{"name":"lpMinted","type":"uint256","internalType":"uint256"},{"name":"inFee","type":"uint256","internalType":"uint256"}],"stateMutability":"payable"},{"type":"function","name":"swapMintAmounts","inputs":[{"name":"inputTokenIndex","type":"uint256","internalType":"uint256"},{"name":"maxAmountIn","type":"uint256","internalType":"uint256"},{"name":"swapFeePpm","type":"uint256","internalType":"uint256"},{"name":"lmsrState","type":"tuple","internalType":"struct LMSRStabilized.State","components":[{"name":"kappa","type":"int128","internalType":"int128"},{"name":"qInternal","type":"int128[]","internalType":"int128[]"}]},{"name":"bases_","type":"uint256[]","internalType":"uint256[]"},{"name":"totalSupply_","type":"uint256","internalType":"uint256"}],"outputs":[{"name":"amountIn","type":"uint256","internalType":"uint256"},{"name":"lpMinted","type":"uint256","internalType":"uint256"},{"name":"inFee","type":"uint256","internalType":"uint256"}],"stateMutability":"pure"},{"type":"event","name":"Approval","inputs":[{"name":"owner","type":"address","indexed":true,"internalType":"address"},{"name":"spender","type":"address","indexed":true,"internalType":"address"},{"name":"value","type":"uint256","indexed":false,"internalType":"uint256"}],"anonymous":false},{"type":"event","name":"Burn","inputs":[{"name":"payer","type":"address","indexed":false,"internalType":"address"},{"name":"receiver","type":"address","indexed":true,"internalType":"address"},{"name":"amounts","type":"uint256[]","indexed":false,"internalType":"uint256[]"},{"name":"lpBurned","type":"uint256","indexed":false,"internalType":"uint256"}],"anonymous":false},{"type":"event","name":"BurnSwap","inputs":[{"name":"payer","type":"address","indexed":true,"internalType":"address"},{"name":"receiver","type":"address","indexed":true,"internalType":"address"},{"name":"tokenOut","type":"address","indexed":true,"internalType":"contract IERC20"},{"name":"amountIn","type":"uint256","indexed":false,"internalType":"uint256"},{"name":"amountOut","type":"uint256","indexed":false,"internalType":"uint256"},{"name":"lpFee","type":"uint256","indexed":false,"internalType":"uint256"},{"name":"protocolFee","type":"uint256","indexed":false,"internalType":"uint256"}],"anonymous":false},{"type":"event","name":"Mint","inputs":[{"name":"payer","type":"address","indexed":false,"internalType":"address"},{"name":"receiver","type":"address","indexed":true,"internalType":"address"},{"name":"amounts","type":"uint256[]","indexed":false,"internalType":"uint256[]"},{"name":"lpMinted","type":"uint256","indexed":false,"internalType":"uint256"}],"anonymous":false},{"type":"event","name":"SwapMint","inputs":[{"name":"payer","type":"address","indexed":true,"internalType":"address"},{"name":"receiver","type":"address","indexed":true,"internalType":"address"},{"name":"tokenIn","type":"address","indexed":true,"internalType":"contract IERC20"},{"name":"amountIn","type":"uint256","indexed":false,"internalType":"uint256"},{"name":"amountOut","type":"uint256","indexed":false,"internalType":"uint256"},{"name":"lpFee","type":"uint256","indexed":false,"internalType":"uint256"},{"name":"protocolFee","type":"uint256","indexed":false,"internalType":"uint256"}],"anonymous":false},{"type":"event","name":"Transfer","inputs":[{"name":"from","type":"address","indexed":true,"internalType":"address"},{"name":"to","type":"address","indexed":true,"internalType":"address"},{"name":"value","type":"uint256","indexed":false,"internalType":"uint256"}],"anonymous":false},{"type":"error","name":"ERC20InsufficientAllowance","inputs":[{"name":"spender","type":"address","internalType":"address"},{"name":"allowance","type":"uint256","internalType":"uint256"},{"name":"needed","type":"uint256","internalType":"uint256"}]},{"type":"error","name":"ERC20InsufficientBalance","inputs":[{"name":"sender","type":"address","internalType":"address"},{"name":"balance","type":"uint256","internalType":"uint256"},{"name":"needed","type":"uint256","internalType":"uint256"}]},{"type":"error","name":"ERC20InvalidApprover","inputs":[{"name":"approver","type":"address","internalType":"address"}]},{"type":"error","name":"ERC20InvalidReceiver","inputs":[{"name":"receiver","type":"address","internalType":"address"}]},{"type":"error","name":"ERC20InvalidSender","inputs":[{"name":"sender","type":"address","internalType":"address"}]},{"type":"error","name":"ERC20InvalidSpender","inputs":[{"name":"spender","type":"address","internalType":"address"}]},{"type":"error","name":"ReentrancyGuardReentrantCall","inputs":[]},{"type":"error","name":"SafeERC20FailedOperation","inputs":[{"name":"token","type":"address","internalType":"address"}]}],"bytecode":{"object":"0x60a03461009c57601f61552c38819003918201601f19168301916001600160401b038311848410176100a05780849260209460405283398101031261009c57516001600160a01b038116810361009c5760017f9b779b17422d0df92223018b32b4d1fa46e071723d6817e2486d003becc55f005560805260405161547790816100b58239608051818181612f7701528181613416015261366e0152f35b5f80fd5b634e487b7160e01b5f52604160045260245ffdfe60806040526004361015610011575f80fd5b5f3560e01c8063228fa8501461233c5780633dd3c80514611c5a5780636863f5bc146118fe5780638d01fa44146113dc578063b3f1c93d14611009578063c5eabfb914610831578063cdc2468b14610803578063e9f317f0146102285763f16b7c261461007c575f80fd5b346102245761008a366124e7565b94919080949394518410156101c657821561016857851561010a576100dc846100d46100e3946100fd976100c360409b6100ea99612bbc565b9160208151600f0b9101519061420a565b939050612681565b5190612e00565b9283612ed8565b50826100f882809511612a88565b612927565b9082519182526020820152f35b60646040517f08c379a000000000000000000000000000000000000000000000000000000000815260206004820152601d60248201527f6275726e53776170416d6f756e74733a20656d70747920737570706c790000006044820152fd5b60646040517f08c379a000000000000000000000000000000000000000000000000000000000815260206004820152601860248201527f6275726e53776170416d6f756e74733a207a65726f206c7000000000000000006044820152fd5b60646040517f08c379a000000000000000000000000000000000000000000000000000000000815260206004820152601460248201527f6275726e53776170416d6f756e74733a206964780000000000000000000000006044820152fd5b5f80fd5b3461022457610236366124e7565b925f9594959291925082518510156107a5578515610747576020820191825151156106e9578115159387856106b8575b61027b906102748984612681565b5190612bbc565b5f81600f0b13156106345761029e6102a691896102ad9551600f0b8851906139be565b989092612681565b51906138b8565b9081156105b0575f9361055b575b50826102c6916128d0565b948515159081610550575b50156104cc5751935f92835b8651851015610308576103006001916102f6878a612681565b51600f0b90613163565b9401936102dd565b90855f83600f0b131561046e5761032b6103309161032585612de6565b94613163565b612de6565b91816103c3575050915b82156103655761036190604051938493846040919493926060820195825260208201520152565b0390f35b60646040517f08c379a000000000000000000000000000000000000000000000000000000000815260206004820152601f60248201527f737761704d696e74416d6f756e74733a207a65726f204c50206d696e746564006044820152fd5b90918115610410578180821115610407576103dd91612927565b915b82156103fd576103f7926103f2916128dd565b6128f0565b9161033a565b5050505f9161033a565b50505f916103df565b60646040517f08c379a000000000000000000000000000000000000000000000000000000000815260206004820152601f60248201527f737761704d696e74416d6f756e74733a206f6c645363616c6564207a65726f006044820152fd5b60646040517f08c379a000000000000000000000000000000000000000000000000000000000815260206004820152601b60248201527f737761704d696e74416d6f756e74733a207a65726f20746f74616c00000000006044820152fd5b60846040517f08c379a000000000000000000000000000000000000000000000000000000000815260206004820152602560248201527f737761704d696e74416d6f756e74733a207472616e736665722065786365656460448201527f73206d61780000000000000000000000000000000000000000000000000000006064820152fd5b9050851115866102d1565b816105679294506128dd565b620f423f810180911161058357620f42409004916102c66102bb565b7f4e487b71000000000000000000000000000000000000000000000000000000005f52601160045260245ffd5b60846040517f08c379a000000000000000000000000000000000000000000000000000000000815260206004820152603560248201527f737761704d696e74416d6f756e74733a20696e707574207a65726f206166746560448201527f7220696e7465726e616c20636f6e76657273696f6e00000000000000000000006064820152fd5b60846040517f08c379a000000000000000000000000000000000000000000000000000000000815260206004820152602a60248201527f737761704d696e74416d6f756e74733a20696e70757420746f6f20736d616c6c60448201527f20616674657220666565000000000000000000000000000000000000000000006064820152fd5b506106c383896128dd565b620f423f8101809111610583576106e2620f424061027b92048a612927565b9050610266565b60646040517f08c379a000000000000000000000000000000000000000000000000000000000815260206004820152601c60248201527f737761704d696e74416d6f756e74733a20756e696e697420706f6f6c000000006044820152fd5b60646040517f08c379a000000000000000000000000000000000000000000000000000000000815260206004820152601b60248201527f737761704d696e74416d6f756e74733a20696e707574207a65726f00000000006044820152fd5b60646040517f08c379a000000000000000000000000000000000000000000000000000000000815260206004820152601460248201527f737761704d696e74416d6f756e74733a206964780000000000000000000000006044820152fd5b346102245761036161081d6108173661240c565b91612aed565b604051918291602083526020830190612460565b60607ffffffffffffffffffffffffffffffffffffffffffffffffffffffffffffffffc36011261022457610863612493565b602435906044359081600f0b82036102245761088460ff600954161561280b565b61088c612e61565b600c5490600354158015610fff575b15610f7b576108a982612632565b936108b383612632565b925f5b818110610d54575050600b548551809103610b5e575b505f5b855181101561092457806108e560019288612681565b51600f0b61091c6108f5836129c8565b81939154906fffffffffffffffffffffffffffffffff809160031b9316831b921b19161790565b9055016108cf565b50835f610937610932612934565b6130db565b600f0b1315610b00577fffffffffffffffffffffffffffffffff00000000000000000000000000000000600a5416906fffffffffffffffffffffffffffffffff1617600a555f600a54600f0b1315610aa25780610a7757507f6bc0553967b8bb727947c938555c0e061c3f96b629935c8f82a43b558dfb1c576109f3670de0b6b3a7640000935b84610a68575b73ffffffffffffffffffffffffffffffffffffffff6040519283925f8452606060208501526060840190612460565b9486604084015216930390a260017f9b779b17422d0df92223018b32b4d1fa46e071723d6817e2486d003becc55f00554780158015610a38575b602083604051908152f35b5f80809381938290610a5f575b3390f115610a54578180610a2d565b6040513d5f823e3d90fd5b506108fc610a45565b610a728585613359565b6109c4565b6109f37f6bc0553967b8bb727947c938555c0e061c3f96b629935c8f82a43b558dfb1c5791936109be565b60646040517f08c379a000000000000000000000000000000000000000000000000000000000815260206004820152600d60248201527f4c4d53523a206b617070613e30000000000000000000000000000000000000006044820152fd5b60646040517f08c379a000000000000000000000000000000000000000000000000000000000815260206004820152601060248201527f4c4d53523a20746f74616c207a65726f000000000000000000000000000000006044820152fd5b610b6790612632565b80519067ffffffffffffffff8211610d2757680100000000000000008211610d2757600b5482600b55808310610c90575b5060200190600b5f5260205f208160011c915f5b838110610c4257507ffffffffffffffffffffffffffffffffffffffffffffffffffffffffffffffffe8116900380610be7575b5050506108cc565b925f935f5b818110610c0157505050015585808080610bdf565b9091946020610c386001928851600f0b908560041b6fffffffffffffffffffffffffffffffff809160031b9316831b921b19161790565b9601929101610bec565b5f5f5b60028110610c5a575083820155600101610bac565b86519096916001916020916fffffffffffffffffffffffffffffffff60078b901b81811b199092169216901b1792019601610c45565b600b5f5260205f206001808501811c8201920160011c019060108460041b1680610ccf575b505b818110610cc45750610b98565b5f8155600101610cb7565b7fffffffffffffffffffffffffffffffffffffffffffffffffffffffffffffffff8201907fffffffffffffffffffffffffffffffffffffffffffffffffffffffffffffffff82549160200360031b1c16905589610cb5565b7f4e487b71000000000000000000000000000000000000000000000000000000005f52604160045260245ffd5b6024602073ffffffffffffffffffffffffffffffffffffffff610d7684612888565b90549060031b1c16604051928380927f70a082310000000000000000000000000000000000000000000000000000000082523060048301525afa908115610a54575f91610f4a575b508015610ec65780610e3b91610dd48489612681565b52610e1881610de2856128b8565b9091907fffffffffffffffffffffffffffffffffffffffffffffffffffffffffffffffff83549160031b92831b921b1916179055565b610e2581610de285612870565b610e2e83612870565b90549060031b1c90612bbc565b610e458289612681565b90600f0b90525f610e568289612681565b51600f0b1315610e68576001016108b6565b60646040517f08c379a000000000000000000000000000000000000000000000000000000000815260206004820152601c60248201527f696e697469616c4d696e743a207a65726f20696e7465726e616c2071000000006044820152fd5b60846040517f08c379a000000000000000000000000000000000000000000000000000000000815260206004820152602160248201527f696e697469616c4d696e743a207a65726f20696e697469616c2062616c616e6360448201527f65000000000000000000000000000000000000000000000000000000000000006064820152fd5b90506020813d8211610f73575b81610f6460209383612356565b81010312610224575188610dbe565b3d9150610f57565b60846040517f08c379a000000000000000000000000000000000000000000000000000000000815260206004820152602560248201527f696e697469616c4d696e743a20706f6f6c20616c726561647920696e6974696160448201527f6c697a65640000000000000000000000000000000000000000000000000000006064820152fd5b50600b541561089b565b60807ffffffffffffffffffffffffffffffffffffffffffffffffffffffffffffffffc3601126102245761103b612493565b6110436124b6565b906044359160643561105a60ff600954161561280b565b611062612e61565b80159081156113d1575b501561137357600c54926003549081158015611369575b6112e5578015611287576110a89061109f61032b610932612934565b92610817612a08565b936110b281612632565b905f5b8181106111fe57505061032b816109326110ce93613276565b81808211156111f5576110e091612927565b905b81156111ec576103f26110f7926003546128dd565b925b831561118e57816111538573ffffffffffffffffffffffffffffffffffffffff93611145827f6bc0553967b8bb727947c938555c0e061c3f96b629935c8f82a43b558dfb1c5797613359565b604051948594169684612a50565b0390a260017f9b779b17422d0df92223018b32b4d1fa46e071723d6817e2486d003becc55f00554780158015610a3857602083604051908152f35b60646040517f08c379a000000000000000000000000000000000000000000000000000000000815260206004820152601460248201527f6d696e743a207a65726f204c50206d696e7465640000000000000000000000006044820152fd5b50505f926110f9565b50505f906110e2565b8061120b60019289612681565b5180611219575b50016110b5565b61126461124f6112719273ffffffffffffffffffffffffffffffffffffffff61124186612888565b90549060031b1c168b612f5f565b611258846128b8565b90549060031b1c6128d0565b610e2581610de2856128b8565b61127b8286612681565b90600f0b905288611212565b60646040517f08c379a000000000000000000000000000000000000000000000000000000000815260206004820152601460248201527f6d696e743a207a65726f204c5020616d6f756e740000000000000000000000006044820152fd5b60846040517f08c379a000000000000000000000000000000000000000000000000000000000815260206004820152602d60248201527f6d696e743a2075736520696e697469616c4d696e7420666f7220706f6f6c206960448201527f6e697469616c697a6174696f6e000000000000000000000000000000000000006064820152fd5b50600b5415611083565b60646040517f08c379a000000000000000000000000000000000000000000000000000000000815260206004820152601760248201527f6d696e743a20646561646c696e652065786365656465640000000000000000006044820152fd5b90504211158461106c565b34610224576101007ffffffffffffffffffffffffffffffffffffffffffffffffffffffffffffffffc36011261022457611414612493565b61141c6124b6565b9060443591606435916084359360a4359182151583036102245760e43593611442612e61565b61145160ff600954161561280b565b600c5496878710156118a0578315611842578015908115611837575b50156117d957600354801561177b576114a161148c6114b99286612bbc565b88600a54600f0b61149b612934565b9061420a565b90506114ac88612870565b90549060031b1c90612e00565b946114d76114c960c43588612ed8565b50876100f882809a11612a88565b965f9180151580611772575b6116fe575b506115118573ffffffffffffffffffffffffffffffffffffffff8616958633036116b9576137e0565b61154373ffffffffffffffffffffffffffffffffffffffff61153283612888565b90549060031b1c16968985896133f0565b61154c89612632565b905f5b8a81106116605750506001985f5b818110611623575b5050916115e273ffffffffffffffffffffffffffffffffffffffff927f8c012c6148e8ecc34b864721470dcc1e938d162c498b7d28961a8a78238cfe139460409b5f1461161557506115b56136ab565b6115bf818a612927565b8b51978852602088018b9052604088015260608701529116939081906080820190565b0390a460017f9b779b17422d0df92223018b32b4d1fa46e071723d6817e2486d003becc55f005582519182526020820152f35b61161e90613276565b6115b5565b61162d8184612681565b51600f0b61163d5760010161155d565b505f99506115e2905073ffffffffffffffffffffffffffffffffffffffff611565565b8061168f61166f6001936128b8565b90549060031b1c868d8685146116a5575b5050610e2581610de2856128b8565b6116998286612681565b90600f0b90520161154f565b6100f8906116b293612927565b868d611680565b865f52600260205260405f2073ffffffffffffffffffffffffffffffffffffffff33165f526020526116f96116f28360405f2054612927565b338361370b565b6137e0565b620f424091925061170f90886128dd565b04908161171d575b896114e8565b61176d611729826128a0565b6117398583548360031b1c6128d0565b907fffffffffffffffffffffffffffffffffffffffffffffffffffffffffffffffff83549160031b92831b921b1916179055565b611717565b508715156114e3565b60646040517f08c379a000000000000000000000000000000000000000000000000000000000815260206004820152601660248201527f6275726e537761703a20656d70747920737570706c79000000000000000000006044820152fd5b60646040517f08c379a000000000000000000000000000000000000000000000000000000000815260206004820152601260248201527f6275726e537761703a20646561646c696e6500000000000000000000000000006044820152fd5b90504211158861146d565b60646040517f08c379a000000000000000000000000000000000000000000000000000000000815260206004820152601160248201527f6275726e537761703a207a65726f206c700000000000000000000000000000006044820152fd5b60646040517f08c379a000000000000000000000000000000000000000000000000000000000815260206004820152600d60248201527f6275726e537761703a20696478000000000000000000000000000000000000006044820152fd5b346102245760a07ffffffffffffffffffffffffffffffffffffffffffffffffffffffffffffffffc36011261022457611935612493565b61193d6124b6565b9060843590604435606435831515840361022457611959612e61565b8015908115611c4f575b5015611bf157600c54928115611b93576003548015611b355761198f90611988612a08565b90846126c2565b9360019061199c81612632565b925f5b828110611a975750505094611a1d7f3f84ed8aa11ed632de380466083280b4c5da668f12695b08636d7848eaf896b49373ffffffffffffffffffffffffffffffffffffffff93610361985f14611a8957506119f86136ab565b838616803303611a58575b50611a0e81876137e0565b86604051948594169684612a50565b0390a260017f9b779b17422d0df92223018b32b4d1fa46e071723d6817e2486d003becc55f0055604051918291602083526020830190612460565b5f52600260205260405f208433165f52602052611a83611a7c8260405f2054612927565b338861370b565b88611a03565b611a9290613276565b6119f8565b611aa18189612681565b51828a82611ab5575b50505060010161199f565b91611aed6112649282611b029573ffffffffffffffffffffffffffffffffffffffff611ae089612888565b90549060031b1c166133f0565b611af6846128b8565b90549060031b1c612927565b611b0c8287612681565b90600f0b9052611b1c8186612681565b51600f0b611b2d575b89828a611aaa565b5f9350611b25565b60646040517f08c379a000000000000000000000000000000000000000000000000000000000815260206004820152601260248201527f6275726e3a20656d70747920737570706c7900000000000000000000000000006044820152fd5b60646040517f08c379a000000000000000000000000000000000000000000000000000000000815260206004820152600d60248201527f6275726e3a207a65726f206c70000000000000000000000000000000000000006044820152fd5b60646040517f08c379a000000000000000000000000000000000000000000000000000000000815260206004820152601760248201527f6275726e3a20646561646c696e652065786365656465640000000000000000006044820152fd5b905042111585611963565b60e07ffffffffffffffffffffffffffffffffffffffffffffffffffffffffffffffffc36011261022457611c8c612493565b611c946124b6565b60443590606435906084359360a4359260c43590611cb760ff600954161561280b565b611cbf612e61565b600c5496878710156122de578115612280578015908115612275575b501561221757600b54156121b957611cf685611d0192612ed8565b9050610e2e87612870565b945f86600f0b131561213557611d29611d419682600a54600f0b611d23612934565b906139be565b9690611d3483612870565b90549060031b1c90612efa565b9485156120b157611d5f611d58611d8b9288612f2c565b80976128d0565b73ffffffffffffffffffffffffffffffffffffffff611d7d84612888565b90549060031b1c1685612f5f565b958615612053575f928015158061204a575b61200a575b50611dcb611db08489612927565b611739611dbc856128b8565b91909283548360031b1c6128d0565b611dd6610932612934565b97611dea611de38a612de6565b928a613163565b91611df483612de6565b600354909181611fc8575050985b8915611f6a57611e1182612632565b925f5b838110611f2c575050505073ffffffffffffffffffffffffffffffffffffffff611e727fcbf41a060d7827197acec8e5ef3abf36d633e77060f7aec03943608d1cd84ebe93611e638394613276565b611e6d8b89613359565b612888565b90549060031b1c1694611eb3611e888589612927565b9483604051948594169716958b8b859094939260609260808301968352602083015260408201520152565b0390a460017f9b779b17422d0df92223018b32b4d1fa46e071723d6817e2486d003becc55f00554780158015611f07575b505061036190604051938493846040919493926060820195825260208201520152565b5f80809381938290611f23575b3390f115610a54578380611ee4565b506108fc611f14565b80611f5484611f4f85611f406001966129c8565b90549060031b1c600f0b6131a0565b613230565b611f5e8288612681565b90600f0b905201611e14565b60646040517f08c379a000000000000000000000000000000000000000000000000000000000815260206004820152601860248201527f737761704d696e743a207a65726f204c50206d696e74656400000000000000006044820152fd5b9091818082111561200157611fdc91612927565b915b8215611ff757611ff1926103f2916128dd565b98611e02565b5050505f98611e02565b50505f91611fde565b620f424091935061201b90876128dd565b049182612029575b88611da2565b612045612035836128a0565b6117398683548360031b1c6128d0565b612023565b50861515611d9d565b60646040517f08c379a000000000000000000000000000000000000000000000000000000000815260206004820152601260248201527f737761704d696e743a206e6f20696e70757400000000000000000000000000006044820152fd5b60846040517f08c379a000000000000000000000000000000000000000000000000000000000815260206004820152602e60248201527f737761704d696e743a20696e707574207a65726f20616674657220696e74657260448201527f6e616c20636f6e76657273696f6e0000000000000000000000000000000000006064820152fd5b60846040517f08c379a000000000000000000000000000000000000000000000000000000000815260206004820152602360248201527f737761704d696e743a20696e70757420746f6f20736d616c6c2061667465722060448201527f66656500000000000000000000000000000000000000000000000000000000006064820152fd5b60646040517f08c379a000000000000000000000000000000000000000000000000000000000815260206004820152601560248201527f737761704d696e743a20756e696e697420706f6f6c00000000000000000000006044820152fd5b60646040517f08c379a000000000000000000000000000000000000000000000000000000000815260206004820152601260248201527f737761704d696e743a20646561646c696e6500000000000000000000000000006044820152fd5b905042111588611cdb565b60646040517f08c379a000000000000000000000000000000000000000000000000000000000815260206004820152601460248201527f737761704d696e743a20696e707574207a65726f0000000000000000000000006044820152fd5b60646040517f08c379a000000000000000000000000000000000000000000000000000000000815260206004820152600d60248201527f737761704d696e743a20696478000000000000000000000000000000000000006044820152fd5b346102245761036161081d6123503661240c565b916126c2565b90601f7fffffffffffffffffffffffffffffffffffffffffffffffffffffffffffffffe0910116810190811067ffffffffffffffff821117610d2757604052565b67ffffffffffffffff8111610d275760051b60200190565b9080601f830112156102245781356123c681612397565b926123d46040519485612356565b81845260208085019260051b82010192831161022457602001905b8282106123fc5750505090565b81358152602091820191016123ef565b60607ffffffffffffffffffffffffffffffffffffffffffffffffffffffffffffffffc8201126102245760043591602435916044359067ffffffffffffffff82116102245761245d916004016123af565b90565b90602080835192838152019201905f5b81811061247d5750505090565b8251845260209384019390920191600101612470565b6004359073ffffffffffffffffffffffffffffffffffffffff8216820361022457565b6024359073ffffffffffffffffffffffffffffffffffffffff8216820361022457565b359081600f0b820361022457565b60c07ffffffffffffffffffffffffffffffffffffffffffffffffffffffffffffffffc8201126102245760043591602435916044359160643567ffffffffffffffff81116102245760407ffffffffffffffffffffffffffffffffffffffffffffffffffffffffffffffffc828503011261022457604051906040820182811067ffffffffffffffff821117610d2757604052612585816004016124d9565b825260248101359067ffffffffffffffff8211610224570183602382011215610224576004810135906125b782612397565b916125c56040519384612356565b808352602060048185019260051b840101019186831161022457602401905b82821061261a575050506020820152916084359067ffffffffffffffff821161022457612613916004016123af565b9060a43590565b60208091612627846124d9565b8152019101906125e4565b9061263c82612397565b6126496040519182612356565b8281527fffffffffffffffffffffffffffffffffffffffffffffffffffffffffffffffe06126778294612397565b0190602036910137565b80518210156126955760209160051b010190565b7f4e487b71000000000000000000000000000000000000000000000000000000005f52603260045260245ffd5b9190918151906126d182612632565b9380158015612803575b6127fc576126e891612bbc565b5f81600f0b131561279e575f925f5b83811061276857505050501561270a5790565b60646040517f08c379a000000000000000000000000000000000000000000000000000000000815260206004820152601960248201527f6275726e20746f6f20736d616c6c3a206e6f206f7574707574000000000000006044820152fd5b61277c6127758284612681565b5184612e00565b806127878389612681565b52612795575b6001016126f7565b6001945061278d565b60646040517f08c379a000000000000000000000000000000000000000000000000000000000815260206004820152601a60248201527f6275726e20746f6f20736d616c6c3a2074696e7920696e7075740000000000006044820152fd5b5050505090565b5082156126db565b1561281257565b60646040517f08c379a000000000000000000000000000000000000000000000000000000000815260206004820152600660248201527f6b696c6c656400000000000000000000000000000000000000000000000000006044820152fd5b600e5481101561269557600e5f5260205f2001905f90565b600c5481101561269557600c5f5260205f2001905f90565b600d5481101561269557600d5f5260205f2001905f90565b6010548110156126955760105f5260205f2001905f90565b9190820180921161058357565b8181029291811591840414171561058357565b81156128fa570490565b7f4e487b71000000000000000000000000000000000000000000000000000000005f52601260045260245ffd5b9190820391821161058357565b60405190600b548083528260208101600b5f5260205f20925f905b80600183011061299c57612975945491818110612988575b10612977575b500383612356565b565b60801d600f0b81526020015f61296d565b92602060019184600f0b8152019301612967565b9160029193506040600191865480600f0b825260801d600f0b602082015201940192018592939161294f565b90600b5482101561269557600b5f52600182901c7f0175b7a638427703f0dbe7bb9bbf987a2551717b34e79f33b5b1008d1fa01db9019160041b60101690565b60405190601054808352826020810160105f5260205f20925f5b818110612a3757505061297592500383612356565b8454835260019485019487945060209093019201612a22565b939291612a839073ffffffffffffffffffffffffffffffffffffffff604093168652606060208701526060860190612460565b930152565b15612a8f57565b60646040517f08c379a000000000000000000000000000000000000000000000000000000000815260206004820152601c60248201527f6275726e53776170416d6f756e74733a206f7574707574207a65726f000000006044820152fd5b9091805191612afb83612632565b9380158015612bb4575b6127fc57612b1291612bbc565b905f82600f0b1315612b56575f5b838110612b2e575050505090565b80612b45612b3e60019385612681565b51856138b8565b612b4f8288612681565b5201612b20565b60646040517f08c379a000000000000000000000000000000000000000000000000000000000815260206004820152600e60248201527f6d696e7420746f6f20736d616c6c0000000000000000000000000000000000006044820152fd5b508315612b05565b81156102245777ffffffffffffffffffffffffffffffffffffffffffffffff8111612c345790612bee9160401b6128f0565b6fffffffffffffffffffffffffffffffff8111610224576fffffffffffffffffffffffffffffffff166f7fffffffffffffffffffffffffffffff811161022457600f0b90565b60c09181831c8093640100000000821015612dd9575b60028262010000612cd7941015612dcd575b610100811015612dc1575b6010811015612db5575b6004811015612daa575b1015612da2575b8360017fffffffffffffffffffffffffffffffffffffffffffffffffffffffffffffffff85017fffffffffffffffffffffffffffffffffffffffffffffffffffffffffffffff4184011c019160ff031b6128f0565b926fffffffffffffffffffffffffffffffff8411610224578160801c8402906fffffffffffffffffffffffffffffffff8316850290809460401b90828210612d78575b5003928160801b91828510612d4f575b60801c03612d4457612d3c92036128f0565b905b01612bee565b505050600190612d3e565b907fffffffffffffffffffffffffffffffffffffffffffffffffffffffffffffffff0190612d2a565b7fffffffffffffffffffffffffffffffffffffffffffffffffffffffffffffffff0194505f612d1a565b600101612c82565b91810191811c612c7b565b6004928301921c612c71565b6008928301921c612c67565b6010928301921c612c5c565b505060e082811c90612c4a565b600f0b5f811261022457670de0b6b3a76400000260401c90565b8115612e5b57600f0b5f8112610224576fffffffffffffffffffffffffffffffff8216810260401c9160801c0277ffffffffffffffffffffffffffffffffffffffffffffffff81116102245760401b81198111610224570190565b50505f90565b60027f9b779b17422d0df92223018b32b4d1fa46e071723d6817e2486d003becc55f005414612eb05760027f9b779b17422d0df92223018b32b4d1fa46e071723d6817e2486d003becc55f0055565b7f3ee5aeb5000000000000000000000000000000000000000000000000000000005f5260045ffd5b91908015612ef457612eed61245d9184612f2c565b8093612927565b505f9190565b612f0e612f078383612e00565b9283612bbc565b90600f0b90600f0b12612f1e5790565b600181018091116105835790565b908015612e5b57612f3c916128dd565b620f424081019081811161058357620f423f0190811161058357620f4240900490565b9073ffffffffffffffffffffffffffffffffffffffff7f0000000000000000000000000000000000000000000000000000000000000000169173ffffffffffffffffffffffffffffffffffffffff821691838314806130d1575b1561301157505050803b15610224575f82916004604051809481937fd0e30db00000000000000000000000000000000000000000000000000000000083525af18015610a5457613007575090565b5f61245d91612356565b9091925073ffffffffffffffffffffffffffffffffffffffff604051927f23b872dd000000000000000000000000000000000000000000000000000000005f5216600452306024528360445260205f60648180855af19060015f51148216156130b2575b50906040525f60605215613087575090565b7f5274afe7000000000000000000000000000000000000000000000000000000005f5260045260245ffd5b60018215166130c8573b15153d1516165f613075565b823d5f823e3d90fd5b5084341015612fb9565b5f90815b8151831015613100576130f86001916102f68585612681565b9201916130df565b91505090565b600f0b68010000000000000000017fffffffffffffffffffffffffffffffff8000000000000000000000000000000081121580613149575b1561022457600f0b90565b506f7fffffffffffffffffffffffffffffff81131561313e565b90600f0b90600f0b017fffffffffffffffffffffffffffffffff8000000000000000000000000000000081121580613149571561022457600f0b90565b90600f0b90600f0b0260401d7fffffffffffffffffffffffffffffffff8000000000000000000000000000000081121580613149571561022457600f0b90565b600f0b801561022457700100000000000000000000000000000000057fffffffffffffffffffffffffffffffff8000000000000000000000000000000081121580613149571561022457600f0b90565b90600f0b9081156102245760401b60170b057fffffffffffffffffffffffffffffffff8000000000000000000000000000000081121580613149571561022457600f0b90565b5f613280826130db565b600f0b13156132fb578051600b915f5b82811061329d5750505050565b6132a78183612681565b51600f0b90845481101561269557600191855f526132f360205f2083851c019160108460041b168354906fffffffffffffffffffffffffffffffff809160031b9316831b921b19161790565b905501613290565b60646040517f08c379a000000000000000000000000000000000000000000000000000000000815260206004820152601460248201527f4c4d53523a206e657720746f74616c207a65726f0000000000000000000000006044820152fd5b73ffffffffffffffffffffffffffffffffffffffff169081156133c4577fddf252ad1be2c89b69c2b068fc378daa952ba7f163c4a11628f55a4df523b3ef6020826133a75f946003546128d0565b6003558484526001825260408420818154019055604051908152a3565b7fec442f05000000000000000000000000000000000000000000000000000000005f525f60045260245ffd5b90919280613656575b1561358c575073ffffffffffffffffffffffffffffffffffffffff7f00000000000000000000000000000000000000000000000000000000000000001690813b15610224576040517f2e1a7d4d0000000000000000000000000000000000000000000000000000000081525f816024818380978960048401525af18015610a5457613577575b508180809481935af1903d15613571573d9067ffffffffffffffff821161354457604051916134d660207fffffffffffffffffffffffffffffffffffffffffffffffffffffffffffffffe0601f8401160184612356565b825260203d92013e5b156134e657565b60646040517f08c379a000000000000000000000000000000000000000000000000000000000815260206004820152601460248201527f7265636569766572206e6f742070617961626c650000000000000000000000006044820152fd5b807f4e487b7100000000000000000000000000000000000000000000000000000000602492526041600452fd5b506134df565b6135849192505f90612356565b5f905f61347f565b9173ffffffffffffffffffffffffffffffffffffffff604051927fa9059cbb000000000000000000000000000000000000000000000000000000005f521660045260245260205f60448180865af19060015f5114821615613635575b604052156135f35750565b73ffffffffffffffffffffffffffffffffffffffff907f5274afe7000000000000000000000000000000000000000000000000000000005f521660045260245ffd5b90600181151661364d57823b15153d151616906135e8565b503d5f823e3d90fd5b5073ffffffffffffffffffffffffffffffffffffffff7f00000000000000000000000000000000000000000000000000000000000000001673ffffffffffffffffffffffffffffffffffffffff8216146133f9565b7fffffffffffffffffffffffffffffffff00000000000000000000000000000000600a5416600a55600b545f600b55806136e25750565b600b5f52600160205f20910160011c8101905b818110613700575050565b5f81556001016136f5565b73ffffffffffffffffffffffffffffffffffffffff169081156137b45773ffffffffffffffffffffffffffffffffffffffff169182156137885760207f8c5be1e5ebec7d5bd14f71427d1e84f3dd0314c0f7b2291e5b200ac8c7c3b92591835f526002825260405f20855f5282528060405f2055604051908152a3565b7f94280d62000000000000000000000000000000000000000000000000000000005f525f60045260245ffd5b7fe602df05000000000000000000000000000000000000000000000000000000005f525f60045260245ffd5b90919073ffffffffffffffffffffffffffffffffffffffff16801561388c57805f52600160205260405f2054838110613859576020845f94957fddf252ad1be2c89b69c2b068fc378daa952ba7f163c4a11628f55a4df523b3ef93858752600184520360408620558060035403600355604051908152a3565b91507fe450d38c000000000000000000000000000000000000000000000000000000005f5260045260245260445260645ffd5b7f96c6fd1e000000000000000000000000000000000000000000000000000000005f525f60045260245ffd5b9067ffffffffffffffff6138cc8284612e00565b921680156138ef5767ffffffffffffffff80921602166138e95790565b60010190565b505090565b156138fb57565b60646040517f08c379a000000000000000000000000000000000000000000000000000000000815260206004820152601660248201527f4c4d53523a2073697a65206d6574726963207a65726f000000000000000000006044820152fd5b1561396057565b60646040517f08c379a000000000000000000000000000000000000000000000000000000000815260206004820152600a60248201527f4c4d53523a20623c3d30000000000000000000000000000000000000000000006044820152fd5b9091939293825192838210156141ac575f86600f0b131561414e576139e2816130db565b936139fc855f81600f0b13956139f7876138f4565b6131a0565b90613a0b5f83600f0b13613959565b613a14826131e0565b91613a1e82612632565b955f5b83811061410457506510c6f7a0b5ed905f90156140a657613a42898c613230565b916801000000000000000083600f0b12614095575b5f5b60408110613e7a575b505f9b5f935b60408510613c4a575b50505050505f955f935f5b848110613b46575b5050505050613b3a5791613aac613aa2613ab193613ab79695612681565b51600f0b876131a0565b613163565b936131a0565b915f83600f0b13801590613b2d575b613ace579190565b6040517f08c379a000000000000000000000000000000000000000000000000000000000815260206004820152601160248201527f4c4d53523a207a65726f206f75747075740000000000000000000000000000006044820152606490fd5b505f81600f0b1315613ac6565b5050505090505f905f90565b878103613b56575b600101613a7c565b613b6d613b638289612681565b51600f0b8d6131a0565b5f81600f0b13613b7e575b50613b4e565b82613b8b919a929a6131a0565b6820000000000000000081600f0b13613c3657613baa613bc59161469e565b613bc0613bb78c87612681565b51600f0b613106565b614661565b5f81600f0b1315613c3657613be790613bde8b86612681565b51600f0b613230565b5f81600f0b1315613c3657613bfe613c0491614700565b856131a0565b905f82600f0b12613c2257600191613c1b91613163565b9890613b78565b985050505050505060015f80808080613a84565b509750505050505060015f80808080613a84565b68020000000000000000613c5e8286613163565b60401b60170b057fffffffffffffffffffffffffffffffff8000000000000000000000000000000081121580613e60575b1561022457600f0b90898c8c5f915f905f905b8d8210613d42575b505015613d23575050506f7fffffffffffffffffffffffffffffff5b83600f0b90600f0b135f14613d1a5750935b82613ce38587614661565b600f0b1315613d0857603f8114613cfe575b60010193613a68565b929c508c92613cf5565b50505091995050975f80808080613a71565b94935092613cd8565b613d33613aac91613d3d94612681565b51600f0b856131a0565b613cc6565b9092839592949503613d60575b50506001018c92918f918f92613ca2565b8d613d78613d6e8585612681565b51600f0b896131a0565b5f81600f0b13613d8a575b5050613d4f565b90613d97919694966131a0565b6820000000000000000081600f0b13613e5057613db6613dc39161469e565b613bc0613bb78885612681565b915f83600f0b1315613e40575090613bde85613dde93612681565b8d5f82600f0b1315613e315750613df7613dfd91614700565b8b6131a0565b908d5f83600f0b12613e225750600191613e1691613163565b9290508c8f8d5f613d83565b93509150508c60018f80613caa565b93505090508c60018f80613caa565b9450505090508c60018f80613caa565b5050925090508c60018f80613caa565b506f7fffffffffffffffffffffffffffffff811315613c8f565b925f5f5f5b888110613f77575b5015613f5757506f7fffffffffffffffffffffffffffffff5b8d600f0b90600f0b12801590613f3f575b613f3957600f0b60411b60401d7fffffffffffffffffffffffffffffffff8000000000000000000000000000000081121580613f1f575b1561022457600f0b926a10000000000000000000008413613f0c575b600101613a59565b6a10000000000000000000009350613f04565b506f7fffffffffffffffffffffffffffffff811315613ee8565b92613a62565b506a100000000000000000000081600f0b1215613eb1565b613f7290613aac613f688c8c612681565b51600f0b846131a0565b613ea0565b839e9c9a98969f9d9b9980989695948b8303613fa6575b50506001019e9597999b9d92939496989a9c9e613e7f565b613fbe90613fb4848d612681565b51600f0b906131a0565b5f81600f0b13613fd0575b508f613f8e565b90613fdd919492946131a0565b6820000000000000000081600f0b1361407b578b613bc0613bb78661400461400a9561469e565b93612681565b5f81600f0b131561407b5761402390613bde858e612681565b5f81600f0b131561407b5761403a61404091614700565b876131a0565b905f82600f0b126140615760019161405791613163565b929050875f613fc9565b9250505060019d9496989a9c9192939597999b9d5f613e87565b5091505060019d9496989a9c9192939597999b9d5f613e87565b680100000000000000009250613a57565b60646040517f08c379a000000000000000000000000000000000000000000000000000000000815260206004820152601960248201527f4c4d53523a20737761704d696e7420646567656e6572617465000000000000006044820152fd5b600190614138614133876139f761411b8c8c612681565b51600f0b614129868d612681565b51600f0b90614661565b61469e565b614142828b612681565b90600f0b905201613a21565b60646040517f08c379a000000000000000000000000000000000000000000000000000000000815260206004820152601160248201527f4c4d53523a20616d6f756e74203c3d20300000000000000000000000000000006044820152fd5b60646040517f08c379a000000000000000000000000000000000000000000000000000000000815260206004820152600960248201527f4c4d53523a2069647800000000000000000000000000000000000000000000006044820152fd5b93919383600f0b5f8113156145c157680100000000000000001261456357614244614234836130db565b80926139f75f83600f0b136138f4565b906142535f83600f0b13613959565b61425c826131e0565b614268845192876131a0565b9661427283612632565b935f5b84811061452a575061428a613d6e8388612681565b975f89600f0b13965f5b8681106142be5750505050505050501580156142b1575b613ace57565b505f82600f0b13156142ab565b8481036142d1575b600101955b95614294565b6142de613f688284612681565b5f81600f0b136142ef575b506142c6565b6142ff87829d949d9b939b6131a0565b9182600f0b926820000000000000000084136144fe577fffffffffffffffffffffffffffffffff8000000000000000000000000000000061435a6141338b8f8f6141298e6143506139f79484612681565b51600f0b92612681565b94146102245761437961437461437f925f03600f0b61469e565b61461f565b846131a0565b600f0b68010000000000000000017fffffffffffffffffffffffffffffffff8000000000000000000000000000000081121580614510575b1561022457600f0b5f8113156144fe5761403a6143d391614700565b9288888c6143e18282612681565b51600f0b87600f0b1361445657614410945061444c9795935061440792508e9150612681565b51600f0b613163565b61441a8b8b612681565b90600f0b90526144378261442e888c612681565b51600f0b614661565b614441878b612681565b90600f0b9052613163565b98600197886142e9565b614482949650614479939550614133929161447091612681565b51600f0b6131a0565b613bc083613106565b915f83600f0b13156144ed57506144b16144ab6144a66144d595946144bb94613230565b614700565b866131a0565b6144078b8b612681565b6144c58a8a612681565b90600f0b90526102f68589612681565b985f6144e18589612681565b526001809801956142cb565b999050600191509a919a01956142cb565b50999050600191509a919a01956142cb565b506f7fffffffffffffffffffffffffffffff8113156143b7565b8061454d61453a6001938a612681565b51600f0b6145478c61461f565b906131a0565b6145578289612681565b90600f0b905201614275565b60646040517f08c379a000000000000000000000000000000000000000000000000000000000815260206004820152600e60248201527f4275726e20746f6f206c617267650000000000000000000000000000000000006044820152fd5b60646040517f08c379a000000000000000000000000000000000000000000000000000000000815260206004820152600e60248201527f4275726e20746f6f20736d616c6c0000000000000000000000000000000000006044820152fd5b600f0b68010000000000000000037fffffffffffffffffffffffffffffffff8000000000000000000000000000000081121580613149571561022457600f0b90565b90600f0b90600f0b037fffffffffffffffffffffffffffffffff8000000000000000000000000000000081121580613149571561022457600f0b90565b600f0b68400000000000000000811215610224577fffffffffffffffffffffffffffffffffffffffffffffffc0000000000000000081126146fb57700171547652b82fe1777d0ffda0d23a7d1261245d910260801d600f0b61482d565b505f90565b600f0b5f811315610224575f908068010000000000000000821215614820575b806401000000006002921215614814575b62010000811215614808575b6101008112156147fc575b60108112156147f0575b60048112156147e5575b12156147db575b7fffffffffffffffffffffffffffffffffffffffffffffffffffffffffffffffc0820160401b91607f031b90678000000000000000915b5f83136147bf57506fb17217f7d1cf79abc9e3b39803f2f6af9150600f0b0260801d90565b8002908160ff1c9182607f011c918302019160011d919061479a565b9060010190614763565b92810192811d61475c565b6004938401931d614752565b6008938401931d614748565b6010938401931d61473d565b6020938401931d614731565b506040915080821d614720565b80600f0b68400000000000000000811215610224577fffffffffffffffffffffffffffffffffffffffffffffffc000000000000000008112612e5b576f80000000000000000000000000000000915f6780000000000000008216600f0b13615429575b5f6740000000000000008216600f0b1361540c575b5f6720000000000000008216600f0b136153ef575b5f6710000000000000008216600f0b136153d2575b5f6708000000000000008216600f0b136153b5575b5f6704000000000000008216600f0b13615398575b5f6702000000000000008216600f0b1361537b575b5f6701000000000000008216600f0b1361535e575b5f66800000000000008216600f0b13615341575b5f66400000000000008216600f0b13615324575b5f66200000000000008216600f0b13615307575b5f66100000000000008216600f0b136152ea575b5f66080000000000008216600f0b136152cd575b5f66040000000000008216600f0b136152b0575b5f66020000000000008216600f0b13615293575b5f66010000000000008216600f0b13615276575b5f658000000000008216600f0b13615259575b5f654000000000008216600f0b1361523c575b5f652000000000008216600f0b1361521f575b5f651000000000008216600f0b13615202575b5f650800000000008216600f0b136151e5575b5f650400000000008216600f0b136151c8575b5f650200000000008216600f0b136151ab575b5f650100000000008216600f0b1361518e575b5f6480000000008216600f0b13615171575b5f6440000000008216600f0b13615154575b5f6420000000008216600f0b13615137575b5f6410000000008216600f0b1361511a575b5f6408000000008216600f0b136150fd575b5f6404000000008216600f0b136150e0575b5f6402000000008216600f0b136150c3575b5f6401000000008216600f0b136150a6575b5f63800000008216600f0b13615089575b5f63400000008216600f0b1361506c575b5f63200000008216600f0b1361504f575b5f63100000008216600f0b13615032575b5f63080000008216600f0b13615015575b5f63040000008216600f0b13614ff8575b5f63020000008216600f0b13614fdb575b5f63010000008216600f0b13614fbe575b5f628000008216600f0b13614fa1575b5f624000008216600f0b13614f84575b5f622000008216600f0b13614f67575b5f621000008216600f0b13614f4a575b5f620800008216600f0b13614f2d575b5f620400008216600f0b13614f10575b5f620200008216600f0b13614ef3575b5f620100008216600f0b13614ed6575b5f6180008216600f0b13614eb9575b5f6140008216600f0b13614e9c575b5f6120008216600f0b13614e7f575b5f6110008216600f0b13614e62575b5f6108008216600f0b13614e45575b5f6104008216600f0b13614e28575b5f6102008216600f0b13614e0b575b5f6101008216600f0b13614dee575b5f60808216600f0b13614dd1575b5f60408216600f0b13614db4575b5f60208216600f0b13614d97575b5f60108216600f0b13614d7a575b5f60088216600f0b13614d5d575b5f60048216600f0b13614d40575b5f60028216600f0b13614d22575b60015f9116600f0b13614d05575b60401d600f0b603f03600f0b1c6f7fffffffffffffffffffffffffffffff811161022457600f0b90565b9070010000000000000000b17217f7d1cf79ab0260801c90614cdb565b7001000000000000000162e42fefa39ef35890920260801c91614ccd565b9170010000000000000002c5c85fdf473de6b20260801c91614cbf565b91700100000000000000058b90bfbe8e7bcd6d0260801c91614cb1565b917001000000000000000b17217f7d1cf79afa0260801c91614ca3565b91700100000000000000162e42fefa39ef366f0260801c91614c95565b917001000000000000002c5c85fdf473de6eca0260801c91614c87565b9170010000000000000058b90bfbe8e7bce5440260801c91614c79565b91700100000000000000b17217f7d1cf79e9490260801c91614c6b565b9170010000000000000162e42fefa39ef44d910260801c91614c5c565b91700100000000000002c5c85fdf473dea871f0260801c91614c4d565b917001000000000000058b90bfbe8e7bdcbe2e0260801c91614c3e565b9170010000000000000b17217f7d1cf7d83c1a0260801c91614c2f565b917001000000000000162e42fefa39f02b772c0260801c91614c20565b9170010000000000002c5c85fdf473e242ea380260801c91614c11565b91700100000000000058b90bfbe8e7cc35c3f00260801c91614c02565b917001000000000000b17217f7d1cfb72b45e10260801c91614bf3565b91700100000000000162e42fefa39fe95583c20260801c91614be3565b917001000000000002c5c85fdf4741bea6e77e0260801c91614bd3565b9170010000000000058b90bfbe8e8b2d3d4ede0260801c91614bc3565b91700100000000000b17217f7d1d351a389d400260801c91614bb3565b9170010000000000162e42fefa3ae53369388c0260801c91614ba3565b91700100000000002c5c85fdf477b662b269450260801c91614b93565b917001000000000058b90bfbe8f71cb4e4b33d0260801c91614b83565b9170010000000000b17217f7d20cf927c8e94c0260801c91614b73565b917001000000000162e42fefa494f1478fde050260801c91614b62565b9170010000000002c5c85fdf4b15de6f17eb0d0260801c91614b51565b91700100000000058b90bfbe9ddbac5e109cce0260801c91614b40565b917001000000000b17217f7d5a7716bba4a9ae0260801c91614b2f565b91700100000000162e42fefb2fed257559bdaa0260801c91614b1e565b917001000000002c5c85fdf84bd62ae30a74cc0260801c91614b0d565b9170010000000058b90bfbf8479bd5a81b51ad0260801c91614afc565b91700100000000b17217f80f4ef5aadda455540260801c91614aeb565b9170010000000162e42ff0999ce3541b9fffcf0260801c91614ad9565b91700100000002c5c85fe31f35a6a30da1be500260801c91614ac7565b917001000000058b90bfcdee5acd3c1cedc8230260801c91614ab5565b9170010000000b17217fba9c739aa5819f44f90260801c91614aa3565b917001000000162e42fff037df38aa2b219f060260801c91614a91565b9170010000002c5c8601cc6b9e94213c72737a0260801c91614a7f565b91700100000058b90c0b48c6be5df846c5b2ef0260801c91614a6d565b917001000000b1721835514b86e6d96efd1bfe0260801c91614a5b565b91700100000162e430e5a18f6119e3c02282a50260801c91614a48565b917001000002c5c863b73f016468f6bac5ca2b0260801c91614a35565b9170010000058b90cf1e6d97f9ca14dbcc16280260801c91614a22565b91700100000b1721bcfc99d9f890ea069117630260801c91614a0f565b9170010000162e43f4f831060e02d839a9d16d0260801c916149fc565b91700100002c5c89d5ec6ca4d7c8acc017b7c90260801c916149e9565b917001000058b91b5bc9ae2eed81e9b7d4cfab0260801c916149d6565b9170010000b17255775c040618bf4a4ade83fc0260801c916149c3565b917001000162e525ee054754457d59952920260260801c916149af565b9170010002c5cc37da9491d0985c348c68e7b30260801c9161499b565b91700100058ba01fb9f96d6cacd4b180917c3d0260801c91614987565b917001000b175effdc76ba38e31671ca9397250260801c91614973565b91700100162f3904051fa128bca9c55c31e5df0260801c9161495f565b917001002c605e2e8cec506d21bfc89a23a00f0260801c9161494b565b9170010058c86da1c09ea1ff19d294cf2f679b0260801c91614937565b91700100b1afa5abcbed6129ab13ec11dc95430260801c91614923565b9170010163da9fb33356d84a66ae336dcdfa3f0260801c9161490e565b91700102c9a3e778060ee6f7caca4f7a29bde80260801c916148f9565b917001059b0d31585743ae7c548eb68ca417fd0260801c916148e4565b9170010b5586cf9890f6298b92b71842a983630260801c916148cf565b917001172b83c7d517adcdf7c8c50eb14a791f0260801c916148ba565b917001306fe0a31b7152de8d5a46305c85edec0260801c916148a5565b6fb504f333f9de6484597d89b3754abe9f925061489056fea2646970667358221220dc37ca2d6e1437b4cc2c216b96242d1d1e0942fefc6e819e1b5f9d830001a0d464736f6c634300081e0033","linkReferences":{}},"methodIdentifiers":{"burn(address,address,uint256,uint256,bool)":"6863f5bc","burnAmounts(uint256,uint256,uint256[])":"228fa850","burnSwap(address,address,uint256,uint256,uint256,bool,uint256,uint256)":"8d01fa44","burnSwapAmounts(uint256,uint256,uint256,(int128,int128[]),uint256[],uint256)":"f16b7c26","initialMint(address,uint256,int128)":"c5eabfb9","mint(address,address,uint256,uint256)":"b3f1c93d","mintAmounts(uint256,uint256,uint256[])":"cdc2468b","swapMint(address,address,uint256,uint256,uint256,uint256,uint256)":"3dd3c805","swapMintAmounts(uint256,uint256,uint256,(int128,int128[]),uint256[],uint256)":"e9f317f0"},"id":54}