{"abi":[{"type":"constructor","inputs":[],"stateMutability":"nonpayable"},{"type":"receive","stateMutability":"payable"},{"type":"function","name":"LMSR","inputs":[],"outputs":[{"name":"","type":"tuple","internalType":"struct LMSRStabilized.State","components":[{"name":"kappa","type":"int128","internalType":"int128"},{"name":"qInternal","type":"int128[]","internalType":"int128[]"}]}],"stateMutability":"view"},{"type":"function","name":"allProtocolFeesOwed","inputs":[],"outputs":[{"name":"","type":"uint256[]","internalType":"uint256[]"}],"stateMutability":"view"},{"type":"function","name":"allTokens","inputs":[],"outputs":[{"name":"","type":"address[]","internalType":"contract IERC20[]"}],"stateMutability":"view"},{"type":"function","name":"allowance","inputs":[{"name":"owner","type":"address","internalType":"address"},{"name":"spender","type":"address","internalType":"address"}],"outputs":[{"name":"","type":"uint256","internalType":"uint256"}],"stateMutability":"view"},{"type":"function","name":"approve","inputs":[{"name":"spender","type":"address","internalType":"address"},{"name":"value","type":"uint256","internalType":"uint256"}],"outputs":[{"name":"","type":"bool","internalType":"bool"}],"stateMutability":"nonpayable"},{"type":"function","name":"balance","inputs":[{"name":"index","type":"uint256","internalType":"uint256"}],"outputs":[{"name":"","type":"uint256","internalType":"uint256"}],"stateMutability":"view"},{"type":"function","name":"balanceOf","inputs":[{"name":"account","type":"address","internalType":"address"}],"outputs":[{"name":"","type":"uint256","internalType":"uint256"}],"stateMutability":"view"},{"type":"function","name":"balances","inputs":[],"outputs":[{"name":"","type":"uint256[]","internalType":"uint256[]"}],"stateMutability":"view"},{"type":"function","name":"burn","inputs":[{"name":"payer","type":"address","internalType":"address"},{"name":"receiver","type":"address","internalType":"address"},{"name":"lpAmount","type":"uint256","internalType":"uint256"},{"name":"deadline","type":"uint256","internalType":"uint256"},{"name":"unwrap","type":"bool","internalType":"bool"}],"outputs":[{"name":"withdrawAmounts","type":"uint256[]","internalType":"uint256[]"}],"stateMutability":"nonpayable"},{"type":"function","name":"burnSwap","inputs":[{"name":"payer","type":"address","internalType":"address"},{"name":"receiver","type":"address","internalType":"address"},{"name":"lpAmount","type":"uint256","internalType":"uint256"},{"name":"outputTokenIndex","type":"uint256","internalType":"uint256"},{"name":"deadline","type":"uint256","internalType":"uint256"},{"name":"unwrap","type":"bool","internalType":"bool"}],"outputs":[{"name":"amountOut","type":"uint256","internalType":"uint256"},{"name":"outFee","type":"uint256","internalType":"uint256"}],"stateMutability":"nonpayable"},{"type":"function","name":"collectProtocolFees","inputs":[],"outputs":[],"stateMutability":"nonpayable"},{"type":"function","name":"decimals","inputs":[],"outputs":[{"name":"","type":"uint8","internalType":"uint8"}],"stateMutability":"view"},{"type":"function","name":"denominators","inputs":[],"outputs":[{"name":"","type":"uint256[]","internalType":"uint256[]"}],"stateMutability":"view"},{"type":"function","name":"fee","inputs":[{"name":"i","type":"uint256","internalType":"uint256"},{"name":"j","type":"uint256","internalType":"uint256"}],"outputs":[{"name":"","type":"uint256","internalType":"uint256"}],"stateMutability":"view"},{"type":"function","name":"fees","inputs":[],"outputs":[{"name":"","type":"uint256[]","internalType":"uint256[]"}],"stateMutability":"view"},{"type":"function","name":"flashFeePpm","inputs":[],"outputs":[{"name":"","type":"uint256","internalType":"uint256"}],"stateMutability":"view"},{"type":"function","name":"flashLoan","inputs":[{"name":"receiver","type":"address","internalType":"contract IERC3156FlashBorrower"},{"name":"tokenAddr","type":"address","internalType":"address"},{"name":"amount","type":"uint256","internalType":"uint256"},{"name":"data","type":"bytes","internalType":"bytes"}],"outputs":[{"name":"","type":"bool","internalType":"bool"}],"stateMutability":"nonpayable"},{"type":"function","name":"initialMint","inputs":[{"name":"receiver","type":"address","internalType":"address"},{"name":"lpTokens","type":"uint256","internalType":"uint256"}],"outputs":[{"name":"lpMinted","type":"uint256","internalType":"uint256"}],"stateMutability":"payable"},{"type":"function","name":"kappa","inputs":[],"outputs":[{"name":"","type":"int128","internalType":"int128"}],"stateMutability":"view"},{"type":"function","name":"kill","inputs":[],"outputs":[],"stateMutability":"nonpayable"},{"type":"function","name":"killed","inputs":[],"outputs":[{"name":"","type":"bool","internalType":"bool"}],"stateMutability":"view"},{"type":"function","name":"mint","inputs":[{"name":"payer","type":"address","internalType":"address"},{"name":"receiver","type":"address","internalType":"address"},{"name":"lpTokenAmount","type":"uint256","internalType":"uint256"},{"name":"deadline","type":"uint256","internalType":"uint256"}],"outputs":[{"name":"lpMinted","type":"uint256","internalType":"uint256"}],"stateMutability":"payable"},{"type":"function","name":"mintImpl","inputs":[],"outputs":[{"name":"","type":"address","internalType":"address"}],"stateMutability":"view"},{"type":"function","name":"name","inputs":[],"outputs":[{"name":"","type":"string","internalType":"string"}],"stateMutability":"view"},{"type":"function","name":"numTokens","inputs":[],"outputs":[{"name":"","type":"uint256","internalType":"uint256"}],"stateMutability":"view"},{"type":"function","name":"owner","inputs":[],"outputs":[{"name":"","type":"address","internalType":"address"}],"stateMutability":"view"},{"type":"function","name":"protocolFeeAddress","inputs":[],"outputs":[{"name":"","type":"address","internalType":"address"}],"stateMutability":"view"},{"type":"function","name":"protocolFeePpm","inputs":[],"outputs":[{"name":"","type":"uint256","internalType":"uint256"}],"stateMutability":"view"},{"type":"function","name":"renounceOwnership","inputs":[],"outputs":[],"stateMutability":"nonpayable"},{"type":"function","name":"setProtocolFeeAddress","inputs":[{"name":"feeAddress","type":"address","internalType":"address"}],"outputs":[],"stateMutability":"nonpayable"},{"type":"function","name":"swap","inputs":[{"name":"payer","type":"address","internalType":"address"},{"name":"fundingSelector","type":"bytes4","internalType":"bytes4"},{"name":"receiver","type":"address","internalType":"address"},{"name":"inputTokenIndex","type":"uint256","internalType":"uint256"},{"name":"outputTokenIndex","type":"uint256","internalType":"uint256"},{"name":"maxAmountIn","type":"uint256","internalType":"uint256"},{"name":"limitPrice","type":"int128","internalType":"int128"},{"name":"deadline","type":"uint256","internalType":"uint256"},{"name":"unwrap","type":"bool","internalType":"bool"},{"name":"cbData","type":"bytes","internalType":"bytes"}],"outputs":[{"name":"amountIn","type":"uint256","internalType":"uint256"},{"name":"amountOut","type":"uint256","internalType":"uint256"},{"name":"inFee","type":"uint256","internalType":"uint256"}],"stateMutability":"payable"},{"type":"function","name":"swapAmounts","inputs":[{"name":"inputTokenIndex","type":"uint256","internalType":"uint256"},{"name":"outputTokenIndex","type":"uint256","internalType":"uint256"},{"name":"maxAmountIn","type":"uint256","internalType":"uint256"},{"name":"limitPrice","type":"int128","internalType":"int128"}],"outputs":[{"name":"amountIn","type":"uint256","internalType":"uint256"},{"name":"amountOut","type":"uint256","internalType":"uint256"},{"name":"inFee","type":"uint256","internalType":"uint256"}],"stateMutability":"view"},{"type":"function","name":"swapImpl","inputs":[],"outputs":[{"name":"","type":"address","internalType":"address"}],"stateMutability":"view"},{"type":"function","name":"swapMint","inputs":[{"name":"payer","type":"address","internalType":"address"},{"name":"receiver","type":"address","internalType":"address"},{"name":"inputTokenIndex","type":"uint256","internalType":"uint256"},{"name":"maxAmountIn","type":"uint256","internalType":"uint256"},{"name":"deadline","type":"uint256","internalType":"uint256"}],"outputs":[{"name":"amountInUsed","type":"uint256","internalType":"uint256"},{"name":"lpMinted","type":"uint256","internalType":"uint256"},{"name":"inFee","type":"uint256","internalType":"uint256"}],"stateMutability":"payable"},{"type":"function","name":"swapToLimit","inputs":[{"name":"payer","type":"address","internalType":"address"},{"name":"fundingSelector","type":"bytes4","internalType":"bytes4"},{"name":"receiver","type":"address","internalType":"address"},{"name":"inputTokenIndex","type":"uint256","internalType":"uint256"},{"name":"outputTokenIndex","type":"uint256","internalType":"uint256"},{"name":"limitPrice","type":"int128","internalType":"int128"},{"name":"deadline","type":"uint256","internalType":"uint256"},{"name":"unwrap","type":"bool","internalType":"bool"},{"name":"cbData","type":"bytes","internalType":"bytes"}],"outputs":[{"name":"amountInUsed","type":"uint256","internalType":"uint256"},{"name":"amountOut","type":"uint256","internalType":"uint256"},{"name":"inFee","type":"uint256","internalType":"uint256"}],"stateMutability":"payable"},{"type":"function","name":"symbol","inputs":[],"outputs":[{"name":"","type":"string","internalType":"string"}],"stateMutability":"view"},{"type":"function","name":"token","inputs":[{"name":"i","type":"uint256","internalType":"uint256"}],"outputs":[{"name":"","type":"address","internalType":"contract IERC20"}],"stateMutability":"view"},{"type":"function","name":"totalSupply","inputs":[],"outputs":[{"name":"","type":"uint256","internalType":"uint256"}],"stateMutability":"view"},{"type":"function","name":"transfer","inputs":[{"name":"to","type":"address","internalType":"address"},{"name":"value","type":"uint256","internalType":"uint256"}],"outputs":[{"name":"","type":"bool","internalType":"bool"}],"stateMutability":"nonpayable"},{"type":"function","name":"transferFrom","inputs":[{"name":"from","type":"address","internalType":"address"},{"name":"to","type":"address","internalType":"address"},{"name":"value","type":"uint256","internalType":"uint256"}],"outputs":[{"name":"","type":"bool","internalType":"bool"}],"stateMutability":"nonpayable"},{"type":"function","name":"transferOwnership","inputs":[{"name":"newOwner","type":"address","internalType":"address"}],"outputs":[],"stateMutability":"nonpayable"},{"type":"function","name":"wrapperToken","inputs":[],"outputs":[{"name":"","type":"address","internalType":"contract NativeWrapper"}],"stateMutability":"view"},{"type":"event","name":"Approval","inputs":[{"name":"owner","type":"address","indexed":true,"internalType":"address"},{"name":"spender","type":"address","indexed":true,"internalType":"address"},{"name":"value","type":"uint256","indexed":false,"internalType":"uint256"}],"anonymous":false},{"type":"event","name":"Burn","inputs":[{"name":"payer","type":"address","indexed":false,"internalType":"address"},{"name":"receiver","type":"address","indexed":true,"internalType":"address"},{"name":"amounts","type":"uint256[]","indexed":false,"internalType":"uint256[]"},{"name":"lpBurned","type":"uint256","indexed":false,"internalType":"uint256"}],"anonymous":false},{"type":"event","name":"BurnSwap","inputs":[{"name":"payer","type":"address","indexed":true,"internalType":"address"},{"name":"receiver","type":"address","indexed":true,"internalType":"address"},{"name":"tokenOut","type":"address","indexed":true,"internalType":"contract IERC20"},{"name":"amountIn","type":"uint256","indexed":false,"internalType":"uint256"},{"name":"amountOut","type":"uint256","indexed":false,"internalType":"uint256"},{"name":"lpFee","type":"uint256","indexed":false,"internalType":"uint256"},{"name":"protocolFee","type":"uint256","indexed":false,"internalType":"uint256"}],"anonymous":false},{"type":"event","name":"Flash","inputs":[{"name":"initiator","type":"address","indexed":true,"internalType":"address"},{"name":"receiver","type":"address","indexed":true,"internalType":"contract IERC3156FlashBorrower"},{"name":"token","type":"address","indexed":true,"internalType":"contract IERC20"},{"name":"amount","type":"uint256","indexed":false,"internalType":"uint256"},{"name":"lpFee","type":"uint256","indexed":false,"internalType":"uint256"},{"name":"protocolFee","type":"uint256","indexed":false,"internalType":"uint256"}],"anonymous":false},{"type":"event","name":"Killed","inputs":[],"anonymous":false},{"type":"event","name":"Mint","inputs":[{"name":"payer","type":"address","indexed":false,"internalType":"address"},{"name":"receiver","type":"address","indexed":true,"internalType":"address"},{"name":"amounts","type":"uint256[]","indexed":false,"internalType":"uint256[]"},{"name":"lpMinted","type":"uint256","indexed":false,"internalType":"uint256"}],"anonymous":false},{"type":"event","name":"OwnershipTransferred","inputs":[{"name":"previousOwner","type":"address","indexed":true,"internalType":"address"},{"name":"newOwner","type":"address","indexed":true,"internalType":"address"}],"anonymous":false},{"type":"event","name":"ProtocolFeesCollected","inputs":[],"anonymous":false},{"type":"event","name":"Swap","inputs":[{"name":"payer","type":"address","indexed":false,"internalType":"address"},{"name":"receiver","type":"address","indexed":true,"internalType":"address"},{"name":"tokenIn","type":"address","indexed":true,"internalType":"contract IERC20"},{"name":"tokenOut","type":"address","indexed":true,"internalType":"contract IERC20"},{"name":"amountIn","type":"uint256","indexed":false,"internalType":"uint256"},{"name":"amountOut","type":"uint256","indexed":false,"internalType":"uint256"},{"name":"lpFee","type":"uint256","indexed":false,"internalType":"uint256"},{"name":"protocolFee","type":"uint256","indexed":false,"internalType":"uint256"}],"anonymous":false},{"type":"event","name":"SwapMint","inputs":[{"name":"payer","type":"address","indexed":true,"internalType":"address"},{"name":"receiver","type":"address","indexed":true,"internalType":"address"},{"name":"tokenIn","type":"address","indexed":true,"internalType":"contract IERC20"},{"name":"amountIn","type":"uint256","indexed":false,"internalType":"uint256"},{"name":"amountOut","type":"uint256","indexed":false,"internalType":"uint256"},{"name":"lpFee","type":"uint256","indexed":false,"internalType":"uint256"},{"name":"protocolFee","type":"uint256","indexed":false,"internalType":"uint256"}],"anonymous":false},{"type":"event","name":"Transfer","inputs":[{"name":"from","type":"address","indexed":true,"internalType":"address"},{"name":"to","type":"address","indexed":true,"internalType":"address"},{"name":"value","type":"uint256","indexed":false,"internalType":"uint256"}],"anonymous":false},{"type":"error","name":"AddressEmptyCode","inputs":[{"name":"target","type":"address","internalType":"address"}]},{"type":"error","name":"ERC20InsufficientAllowance","inputs":[{"name":"spender","type":"address","internalType":"address"},{"name":"allowance","type":"uint256","internalType":"uint256"},{"name":"needed","type":"uint256","internalType":"uint256"}]},{"type":"error","name":"ERC20InsufficientBalance","inputs":[{"name":"sender","type":"address","internalType":"address"},{"name":"balance","type":"uint256","internalType":"uint256"},{"name":"needed","type":"uint256","internalType":"uint256"}]},{"type":"error","name":"ERC20InvalidApprover","inputs":[{"name":"approver","type":"address","internalType":"address"}]},{"type":"error","name":"ERC20InvalidReceiver","inputs":[{"name":"receiver","type":"address","internalType":"address"}]},{"type":"error","name":"ERC20InvalidSender","inputs":[{"name":"sender","type":"address","internalType":"address"}]},{"type":"error","name":"ERC20InvalidSpender","inputs":[{"name":"spender","type":"address","internalType":"address"}]},{"type":"error","name":"FailedCall","inputs":[]},{"type":"error","name":"InsufficientBalance","inputs":[{"name":"balance","type":"uint256","internalType":"uint256"},{"name":"needed","type":"uint256","internalType":"uint256"}]},{"type":"error","name":"OwnableInvalidOwner","inputs":[{"name":"owner","type":"address","internalType":"address"}]},{"type":"error","name":"OwnableUnauthorizedAccount","inputs":[{"name":"account","type":"address","internalType":"address"}]},{"type":"error","name":"ReentrancyGuardReentrantCall","inputs":[]},{"type":"error","name":"SafeERC20FailedOperation","inputs":[{"name":"token","type":"address","internalType":"address"}]}],"bytecode":{"object":"0x61014080604052346105f65760017f9b779b17422d0df92223018b32b4d1fa46e071723d6817e2486d003becc55f00556367f855cb60e11b81525f81600481335afa908115610ba4575f9161095c575b5060808101908151519060018211156109275760a081015f8151600f0b13156108e25781516006556101408201516001600160a01b031660805260408201518051906001600160401b03821161053a5760045490600182811c921680156108d8575b60208310146107f15781601f849311610880575b50602090601f831160011461081a575f9261080f575b50508160011b915f199060031b1c1916176004555b60608201518051906001600160401b03821161053a5760055490600182811c92168015610805575b60208310146107f15781601f8493116107ad575b50602090601f8311600114610747575f9261073c575b50508160011b915f199060031b1c1916176005555b60208201516001600160a01b03168015610729575f80546001600160a01b03198116831782556001600160a01b0316907f8be0079c531659141344cd1fd0a4f28419497f9722a3daafe3b4186f6b6457e09080a383518051906001600160401b03821161053a5768010000000000000000821161053a57602090600c5483600c5580841061070d575b5001600c5f5260205f205f5b8381106106f0575050505051600f0b60a05260c0810191825151845151036106bd57610219835151610c6d565b8051906001600160401b03821161053a5768010000000000000000821161053a57602090600754836007558084106106a1575b500160075f5260205f205f5b83811061068d57505050505f5b835180518210156102f45761027d8261271092610c9f565b5110156102c35761028f818551610c9f565b51906007548110156102af5760019160075f528160205f20015501610265565b634e487b7160e01b5f52603260045260245ffd5b60405162461bcd60e51b8152602060048201526009602482015268666565203e3d20312560b81b6044820152606490fd5b82868560e0810161271081511015610656575160c052610100810162061a80815110156106115751801580156105fa575b156105f65760e05261012081810151601180546001600160a01b0319166001600160a01b0392831617905561016083015181169091526101809091015116610100525f5b8281106105ae578261037a81610c6d565b8051906001600160401b03821161053a5768010000000000000000821161053a57602090600e5483600e55808410610592575b5001600e5f5260205f205f5b83811061057e57846103ca81610c6d565b8051906001600160401b03821161053a5768010000000000000000821161053a5760209060105483601055808410610562575b500160105f5260205f205f5b83811061054e5761041985610c6d565b8051906001600160401b03821161053a5768010000000000000000821161053a57602090600d5483600d5580841061051e575b500190600d5f5260205f20915f5b82811061050a57604051614cab9081610cb48239608051818181610e68015281816110b3015281816113d2015281816116420152612a16015260a051818181611cf10152611d5c015260c05181818161211d0152612761015260e05181818161056001528181610f4101528181611e39015281816121430152818161228a01526125d801526101005181818161032d01526105ab0152610120518181816106470152818161082801526126480152f35b60019060208351930192818601550161045a565b61053490600d5f528480855f2001910390610c52565b8361044c565b634e487b7160e01b5f52604160045260245ffd5b600190602084519401938184015501610409565b6105789060105f528480855f2001910390610c52565b846103fd565b6001906020845194019381840155016103b9565b6105a890600e5f528480855f2001910390610c52565b846103ad565b60018101908181116105e25782516001600160a01b03916105ce91610c9f565b51165f52600f6020528060405f2055610369565b634e487b7160e01b5f52601160045260245ffd5b5f80fd5b506101208201516001600160a01b03161515610325565b60405162461bcd60e51b815260206004820152601360248201527f70726f746f636f6c20666565203e3d20343025000000000000000000000000006044820152606490fd5b60405162461bcd60e51b815260206004820152600f60248201526e666c61736820666565203e3d20312560881b6044820152606490fd5b600190602084519401938184015501610258565b6106b79060075f528480855f2001910390610c52565b5f61024c565b60405162461bcd60e51b815260206004820152600b60248201526a0cccacae640d8cadccee8d60ab1b6044820152606490fd5b82516001600160a01b0316818301556020909201916001016101ec565b61072390600c5f528480855f2001910390610c52565b5f6101e0565b631e4fbdf760e01b5f525f60045260245ffd5b015190505f80610142565b60055f9081528281209350601f198516905b818110610795575090846001959493921061077d575b505050811b01600555610157565b01515f1960f88460031b161c191690555f808061076f565b92936020600181928786015181550195019301610759565b8281111561012c576107e39060055f5260205f2090601f850160051c90602086106107e9575b601f82910160051c039101610c52565b5f61012c565b5f91506107d3565b634e487b7160e01b5f52602260045260245ffd5b91607f1691610118565b015190505f806100db565b60045f9081528281209350601f198516905b8181106108685750908460019594939210610850575b505050811b016004556100f0565b01515f1960f88460031b161c191690555f8080610842565b9293602060018192878601518155019501930161082c565b828111156100c55760045f526108d2907f8a35acfbc15ff81a39ae7d344fd709f28e8600b4aa8c65c6b64bfe7fe36bd19b90601f850160051c90602086106107e957601f82910160051c039101610c52565b5f6100c5565b91607f16916100b1565b60405162461bcd60e51b815260206004820152601660248201527f6b61707061206d75737420626520706f736974697665000000000000000000006044820152606490fd5b60405162461bcd60e51b815260206004820152600d60248201526c1b995959080f8c48185cdcd95d609a1b6044820152606490fd5b90503d805f833e61096d8183610baf565b8101906020818303126105f6578051906001600160401b0382116105f657016101a0818303126105f657604051916101a083016001600160401b0381118482101761053a57604052815183526109c560208301610bd2565b602084015260408201516001600160401b0381116105f657816109e9918401610be6565b604084015260608201516001600160401b0381116105f65781610a0d918401610be6565b606084015260808201516001600160401b0381116105f657820181601f820112156105f6578051610a3d81610c3b565b91610a4b6040519384610baf565b81835260208084019260051b820101908482116105f657602001915b818310610b8457505050608084015260a082015180600f0b81036105f65760a084015260c08201516001600160401b0381116105f65782019080601f830112156105f6578151610ab681610c3b565b92610ac46040519485610baf565b81845260208085019260051b8201019283116105f657602001905b828210610b745750505060c083015260e081015160e0830152610100810151610100830152610b116101208201610bd2565b6101208301526101408101516001600160a01b03811681036105f657610140830152610160810151906001600160a01b03821682036105f65761016083019190915261018001516001600160a01b03811681036105f6576101808201525f61004f565b8151815260209182019101610adf565b82516001600160a01b03811681036105f657815260209283019201610a67565b6040513d5f823e3d90fd5b601f909101601f19168101906001600160401b0382119082101761053a57604052565b51906001600160a01b03821682036105f657565b81601f820112156105f6578051906001600160401b03821161053a5760405192610c1a601f8401601f191660200185610baf565b828452602083830101116105f657815f9260208093018386015e8301015290565b6001600160401b03811161053a5760051b60200190565b5f5b828110610c6057505050565b5f82820155600101610c54565b90610c7782610c3b565b610c846040519182610baf565b8281528092610c95601f1991610c3b565b0190602036910137565b80518210156102af5760209160051b01019056fe608080604052600436101561001c575b50361561001a575f80fd5b005b5f905f3560e01c908163017504b614612d2357508063017cf66114612c91578063044215c614612c3057806306fdde0314612ae7578063095ea7b314612a3a5780630d246214146129cc57806318160ddd146129915780631f3a0e411461295157806323b872dd146127bd578063313ce5671461278457806331596a6a1461272c57806341c0e1b51461269a5780634264c8bc1461247d578063476e44b61461233057806347bb89f0146122e5578063491e7998146121be5780635cffe9de14611fe75780636863f5bc14611e5c5780636b4082d114611e045780636b7b911214611d825780636bba3f2f14611d275780636d8d0ff314611c6d5780636ff97f1d14611b6d5780637030545214610cb957806370a0823114610c56578063715018a614610bba5780637bb98a6814610b275780638da5cb5b14610ad65780638e499bcf14610a9a578063939f5ea414610a5257806395d89b41146108f05780639af1d35a14610851578063a1af5b9a14610788578063a9059cbb14610738578063b3f1c93d1461066b578063c405e442146105fc578063cb717f3a146104a7578063cce516b714610455578063d516b8c6146103ca578063dd62ed3e14610351578063f0d1ae4f146102e25763f2fde38b0361000f57346102df5760207ffffffffffffffffffffffffffffffffffffffffffffffffffffffffffffffffc3601126102df5773ffffffffffffffffffffffffffffffffffffffff61023e612e2d565b61024661327d565b1680156102b35773ffffffffffffffffffffffffffffffffffffffff8254827fffffffffffffffffffffffff00000000000000000000000000000000000000008216178455167f8be0079c531659141344cd1fd0a4f28419497f9722a3daafe3b4186f6b6457e08380a380f35b6024827f1e4fbdf700000000000000000000000000000000000000000000000000000000815280600452fd5b80fd5b50346102df57807ffffffffffffffffffffffffffffffffffffffffffffffffffffffffffffffffc3601126102df57602060405173ffffffffffffffffffffffffffffffffffffffff7f0000000000000000000000000000000000000000000000000000000000000000168152f35b50346102df5760407ffffffffffffffffffffffffffffffffffffffffffffffffffffffffffffffffc3601126102df5773ffffffffffffffffffffffffffffffffffffffff60406103a0612e2d565b92826103aa612e50565b9416815260026020522091165f52602052602060405f2054604051908152f35b50346102df5760807ffffffffffffffffffffffffffffffffffffffffffffffffffffffffffffffffc3601126102df5760043590602435916064359182600f0b83036102df5761045161042d8585856104238382613655565b9260443591613458565b92505050604093919351938493846040919493926060820195825260208201520152565b0390f35b50346102df57807ffffffffffffffffffffffffffffffffffffffffffffffffffffffffffffffffc3601126102df57602073ffffffffffffffffffffffffffffffffffffffff60115416604051908152f35b5060a07ffffffffffffffffffffffffffffffffffffffffffffffffffffffffffffffffc3601126102df576104516105df6105d06104e3612e2d565b6104eb612e50565b60443573ffffffffffffffffffffffffffffffffffffffff61050c826133d3565b9281604051957f3dd3c8050000000000000000000000000000000000000000000000000000000060208801521660248601521660448401526064830152606435608483015260843560a483015260c48201527f000000000000000000000000000000000000000000000000000000000000000060e482015260e4815261059461010482612ee1565b73ffffffffffffffffffffffffffffffffffffffff7f00000000000000000000000000000000000000000000000000000000000000001661331a565b60208082518301019101613047565b604080519384526020840192909252908201529081906060820190565b50346102df57807ffffffffffffffffffffffffffffffffffffffffffffffffffffffffffffffffc3601126102df57602060405173ffffffffffffffffffffffffffffffffffffffff7f0000000000000000000000000000000000000000000000000000000000000000168152f35b5060807ffffffffffffffffffffffffffffffffffffffffffffffffffffffffffffffffc3601126102df576107146106a1612e2d565b73ffffffffffffffffffffffffffffffffffffffff6106be612e50565b81604051937fb3f1c93d000000000000000000000000000000000000000000000000000000006020860152166024840152166044820152604435606482015260643560848201526084815261059460a482612ee1565b602081519181808201938492010103126107345760209051604051908152f35b5f80fd5b50346102df5760407ffffffffffffffffffffffffffffffffffffffffffffffffffffffffffffffffc3601126102df5761077d610773612e2d565b6024359033613158565b602060405160018152f35b50346102df57807ffffffffffffffffffffffffffffffffffffffffffffffffffffffffffffffffc3601126102df5761084d73ffffffffffffffffffffffffffffffffffffffff60115416604051907f2a54db01000000000000000000000000000000000000000000000000000000006020830152602482015260248152610811604482612ee1565b73ffffffffffffffffffffffffffffffffffffffff7f00000000000000000000000000000000000000000000000000000000000000001661331a565b5080f35b50346102df57807ffffffffffffffffffffffffffffffffffffffffffffffffffffffffffffffffc3601126102df5760405180916020600754928381520191600782527fa66cc928b5edb82af9bd49922954155ab7b0942694bea4ce44661d9a8736c688915b8181106108da57610451856108ce81870382612ee1565b60405191829182612db1565b82548452602090930192600192830192016108b7565b50346102df57807ffffffffffffffffffffffffffffffffffffffffffffffffffffffffffffffffc3601126102df576040519080600554908160011c91600181168015610a48575b602084108114610a1b578386529081156109d65750600114610979575b6104518461096581860382612ee1565b604051918291602083526020830190612dea565b600581527f036b6384b5eca791c62761152d0c79bb0604c104a5fb6f4eb0703f3154bb3db0939250905b8082106109bc5750909150810160200161096582610955565b9192600181602092548385880101520191019092916109a3565b7fffffffffffffffffffffffffffffffffffffffffffffffffffffffffffffff001660208087019190915292151560051b850190920192506109659150839050610955565b6024837f4e487b710000000000000000000000000000000000000000000000000000000081526022600452fd5b92607f1692610938565b50346102df5760407ffffffffffffffffffffffffffffffffffffffffffffffffffffffffffffffffc3601126102df576020610a92602435600435613655565b604051908152f35b50346102df57807ffffffffffffffffffffffffffffffffffffffffffffffffffffffffffffffffc3601126102df576020600c54604051908152f35b50346102df57807ffffffffffffffffffffffffffffffffffffffffffffffffffffffffffffffffc3601126102df5773ffffffffffffffffffffffffffffffffffffffff6020915416604051908152f35b50346102df57807ffffffffffffffffffffffffffffffffffffffffffffffffffffffffffffffffc3601126102df5760405180916020601054928381520191601082527f1b6847dc741a1b0cd08d278845f9d819d87b734759afb55fe2de5cb82a9ae672915b818110610ba457610451856108ce81870382612ee1565b8254845260209093019260019283019201610b8d565b50346102df57807ffffffffffffffffffffffffffffffffffffffffffffffffffffffffffffffffc3601126102df57610bf161327d565b8073ffffffffffffffffffffffffffffffffffffffff81547fffffffffffffffffffffffff000000000000000000000000000000000000000081168355167f8be0079c531659141344cd1fd0a4f28419497f9722a3daafe3b4186f6b6457e08280a380f35b50346102df5760207ffffffffffffffffffffffffffffffffffffffffffffffffffffffffffffffffc3601126102df57604060209173ffffffffffffffffffffffffffffffffffffffff610ca8612e2d565b168152600183522054604051908152f35b506101407ffffffffffffffffffffffffffffffffffffffffffffffffffffffffffffffffc36011261073457610ced612e2d565b90610cf6612e96565b610cfe612e73565b91606435916084359260c4359586600f0b958688036107345760e4359261010435988915158a03610734576101243567ffffffffffffffff811161073457610d4a903690600401612f5c565b9460027f9b779b17422d0df92223018b32b4d1fa46e071723d6817e2486d003becc55f005414611b455760027f9b779b17422d0df92223018b32b4d1fa46e071723d6817e2486d003becc55f005560ff60095416611ae7578015908115611adc575b5015611a7e57610dcb90610dc089846132c9565b9060a4358a85613458565b9b94919592939c905073ffffffffffffffffffffffffffffffffffffffff610df284612fa2565b90549060031b1c169873ffffffffffffffffffffffffffffffffffffffff610e1987612fa2565b90549060031b1c169a7fffffffff00000000000000000000000000000000000000000000000000000000811680155f146115f5575050505073ffffffffffffffffffffffffffffffffffffffff7f000000000000000000000000000000000000000000000000000000000000000016808914806115eb575b1561151d57803b15611519578a82916004604051809481937fd0e30db00000000000000000000000000000000000000000000000000000000083525af1801561150e576114f5575b50918b9c9391610f3d610f1b9d9796945b9d8e5b610f16610ef985612fe7565b90549060031b1c610f0986612fff565b90549060031b1c90613062565b613062565b97610f38610f2886612fe7565b90549060031b1c610f0987612fff565b61309c565b8b977f00000000000000000000000000000000000000000000000000000000000000008e811515806114ec575b611463575b505061100d91610fef610fb061100493610f9a610f8b88612fff565b90549060031b1c8210156130f3565b610fa387612fff565b90549060031b1c9061309c565b610fb986612fe7565b9091907fffffffffffffffffffffffffffffffffffffffffffffffffffffffffffffffff83549160031b92831b921b1916179055565b610ffb610f8b87612fff565b610fa386612fff565b610fb985612fe7565b8a82600f0b1380611457575b156113f957611091936110798261105161104b6110519661103c61104b97613615565b90549060031b1c600f0b613718565b91613615565b9091906fffffffffffffffffffffffffffffffff83549160031b928116831b921b1916179055565b61108284613615565b90549060031b1c600f0b613770565b806113ba575b156112c95773ffffffffffffffffffffffffffffffffffffffff7f000000000000000000000000000000000000000000000000000000000000000016803b156112c55786809160248c60405194859384927f2e1a7d4d00000000000000000000000000000000000000000000000000000000845260048401525af180156112ba579087916112a1575b508080808c855af13d1561129c573d61113881612f22565b906111466040519283612ee1565b81528760203d92013e5b1561123e5773ffffffffffffffffffffffffffffffffffffffff60a0917f6950339c7661cca450281e53722525cc136590e622b011d5be7e4c4993685a6c935b61119a818b61309c565b83604051971687528b60208801528c6040880152606087015260808601521692a460017f9b779b17422d0df92223018b32b4d1fa46e071723d6817e2486d003becc55f0055478015801561120d575b50505061045190604051938493846040919493926060820195825260208201520152565b8280809381938290611235575b3390f1156112295780806111e9565b604051903d90823e3d90fd5b506108fc61121a565b60646040517f08c379a000000000000000000000000000000000000000000000000000000000815260206004820152601460248201527f7265636569766572206e6f742070617961626c650000000000000000000000006044820152fd5b611150565b816112ab91612ee1565b6112b657855f611120565b8580fd5b6040513d89823e3d90fd5b8680fd5b906040517fa9059cbb00000000000000000000000000000000000000000000000000000000875273ffffffffffffffffffffffffffffffffffffffff831660045289602452602087604481808a5af1906001885114821615611399575b6040521561136d5773ffffffffffffffffffffffffffffffffffffffff7f6950339c7661cca450281e53722525cc136590e622b011d5be7e4c4993685a6c9260a092611190565b602486867f5274afe7000000000000000000000000000000000000000000000000000000008252600452fd5b9060018115166113b157863b15153d15161690611326565b503d87823e3d90fd5b5073ffffffffffffffffffffffffffffffffffffffff7f0000000000000000000000000000000000000000000000000000000000000000168514611097565b60646040517f08c379a000000000000000000000000000000000000000000000000000000000815260206004820152600e60248201527f696e76616c696420616d6f756e740000000000000000000000000000000000006044820152fd5b508a84600f0b13611019565b611004929a50610fb0620f424061148161100d9694610fef946130a9565b049b8c611494575b93505050918e610f6f565b6114e78d6114b36114a48a612fff565b91909283548360031b1c613062565b907fffffffffffffffffffffffffffffffffffffffffffffffffffffffffffffffff83549160031b92831b921b1916179055565b611489565b50801515610f6a565b6115008b8092612ee1565b61150a575f610ed9565b8980fd5b6040513d8d823e3d90fd5b8a80fd5b506040517f23b872dd000000000000000000000000000000000000000000000000000000008b5273ffffffffffffffffffffffffffffffffffffffff8816600452306024528160445260208b606481808d5af19060018c51148216156115ca575b6040528a6060521561159e57918b9c9391610f3d610f1b9d979694610eea565b60248a897f5274afe7000000000000000000000000000000000000000000000000000000008252600452fd5b9060018115166115e257893b15153d1516169061157e565b503d8b823e3d90fd5b5081341015610e91565b9e9f96949e7c0100000000000000000000000000000000000000000000000000000000909998969499145f1461189257505061180e5773ffffffffffffffffffffffffffffffffffffffff7f0000000000000000000000000000000000000000000000000000000000000000169586891480611804575b156116e9579b4796803b15610734575f906004604051809a81937fd0e30db00000000000000000000000000000000000000000000000000000000083525af180156116de578e978e916116c7575b50610f1b610f3d91610eed565b6116d4919c505f90612ee1565b5f9a610f1b6116ba565b6040513d5f823e3d90fd5b95506040517f70a082310000000000000000000000000000000000000000000000000000000081523060048201526020816024818c5afa80156116de578d88925f926117cb575b509061175282610f0961174561175895612fe7565b90549060031b1c91612fff565b9061309c565b1061176d57610f1b9b610f3d8e979d8e610eed565b60646040517f08c379a000000000000000000000000000000000000000000000000000000000815260206004820152601e60248201527f496e73756666696369656e742070726566756e64696e6720616d6f756e7400006044820152fd5b925050506020813d6020116117fc575b816117e860209383612ee1565b81010312610734575186908d611752611730565b3d91506117db565b508047101561166c565b60846040517f08c379a000000000000000000000000000000000000000000000000000000000815260206004820152602c60248201527f50726566756e64696e672063616e6e6f7420626520757365642077697468206160448201527f206c696d697420707269636500000000000000000000000000000000000000006064820152fd5b6040517f70a08231000000000000000000000000000000000000000000000000000000008152306004820152989e98919250906020816024818e5afa9182156116de578f8c925f94611a43575b509061191c61194e9495611948936006549560405196879560208701526024860152604485015260648401526080608484015260a4830190612dea565b037fffffffffffffffffffffffffffffffffffffffffffffffffffffffffffffffe08101835282612ee1565b89613a32565b50604051907f70a082310000000000000000000000000000000000000000000000000000000082523060048301526020826024818d5afa80156116de575f90611a0f575b61199c925061309c565b9b8c106119b1578c95610f3d610f1b8e610eed565b60646040517f08c379a000000000000000000000000000000000000000000000000000000000815260206004820152601260248201527f496e73756666696369656e742066756e647300000000000000000000000000006044820152fd5b506020823d602011611a3b575b81611a2960209383612ee1565b810103126107345761199c9151611992565b3d9150611a1c565b92505091506020813d602011611a76575b81611a6160209383612ee1565b810103126107345751908a908f61191c6118df565b3d9150611a54565b60646040517f08c379a000000000000000000000000000000000000000000000000000000000815260206004820152601760248201527f737761703a20646561646c696e652065786365656465640000000000000000006044820152fd5b90504211155f610dac565b60646040517f08c379a000000000000000000000000000000000000000000000000000000000815260206004820152600660248201527f6b696c6c656400000000000000000000000000000000000000000000000000006044820152fd5b7f3ee5aeb5000000000000000000000000000000000000000000000000000000005f5260045ffd5b34610734575f7ffffffffffffffffffffffffffffffffffffffffffffffffffffffffffffffffc36011261073457604051806020600c5492838152018092600c5f527fdf6966c971051c3d54ec59162606531493a51404a002842f56009d7e5cf4a8c7905f5b818110611c415750505081611be9910382612ee1565b604051918291602083019060208452518091526040830191905f5b818110611c12575050500390f35b825173ffffffffffffffffffffffffffffffffffffffff16845285945060209384019390920191600101611c04565b825473ffffffffffffffffffffffffffffffffffffffff16845260209093019260019283019201611bd3565b60407ffffffffffffffffffffffffffffffffffffffffffffffffffffffffffffffffc36011261073457610714611ca2612e2d565b73ffffffffffffffffffffffffffffffffffffffff604051917fc5eabfb900000000000000000000000000000000000000000000000000000000602084015216602482015260243560448201527f0000000000000000000000000000000000000000000000000000000000000000600f0b606482015260648152610594608482612ee1565b34610734575f7ffffffffffffffffffffffffffffffffffffffffffffffffffffffffffffffffc3601126107345760206040517f0000000000000000000000000000000000000000000000000000000000000000600f0b8152f35b346107345760207ffffffffffffffffffffffffffffffffffffffffffffffffffffffffffffffffc3601126107345773ffffffffffffffffffffffffffffffffffffffff611dce612e2d565b611dd661327d565b167fffffffffffffffffffffffff000000000000000000000000000000000000000060115416176011555f80f35b34610734575f7ffffffffffffffffffffffffffffffffffffffffffffffffffffffffffffffffc3601126107345760206040517f00000000000000000000000000000000000000000000000000000000000000008152f35b346107345760a07ffffffffffffffffffffffffffffffffffffffffffffffffffffffffffffffffc36011261073457611e93612e2d565b611e9b612e50565b906084358015158091036107345773ffffffffffffffffffffffffffffffffffffffff611f1d9381604051947f6863f5bc0000000000000000000000000000000000000000000000000000000060208701521660248501521660448301526044356064830152606435608483015260a482015260a4815261059460c482612ee1565b80518101906020818184019303126107345760208101519067ffffffffffffffff821161073457019080603f830112156107345760208201519167ffffffffffffffff8311611fba578260051b9060405193611f7c6020840186612ee1565b8452602080808601938301010192831161073457604001905b828210611faa57604051806104518682612db1565b8151815260209182019101611f95565b7f4e487b71000000000000000000000000000000000000000000000000000000005f52604160045260245ffd5b346107345760807ffffffffffffffffffffffffffffffffffffffffffffffffffffffffffffffffc3601126107345760043573ffffffffffffffffffffffffffffffffffffffff81168091036107345761203f612e50565b60643567ffffffffffffffff811161073457366023820112156107345780600401359067ffffffffffffffff821161073457366024838301011161073457612198937fffffffffffffffffffffffffffffffffffffffffffffffffffffffffffffffe0601f846108119560246101049673ffffffffffffffffffffffffffffffffffffffff6040519a8b987fe49cd4750000000000000000000000000000000000000000000000000000000060208b0152848a0152166044880152604435606488015260c060848801528260e488015201868601375f8582860101527f000000000000000000000000000000000000000000000000000000000000000060a48501527f000000000000000000000000000000000000000000000000000000000000000060c48501520116810103017fffffffffffffffffffffffffffffffffffffffffffffffffffffffffffffffe08101835282612ee1565b602081805181010312610734576020015180151580910361073457602090604051908152f35b346107345760c07ffffffffffffffffffffffffffffffffffffffffffffffffffffffffffffffffc360112610734576121f5612e2d565b6121fd612e50565b906064359160a435801515809103610734578373ffffffffffffffffffffffffffffffffffffffff6122316122c0966133d3565b9381604051967f8d01fa440000000000000000000000000000000000000000000000000000000060208901521660248701521660448501526044356064850152608484015260843560a484015260c483015260e48201527f0000000000000000000000000000000000000000000000000000000000000000610104820152610104815261059461012482612ee1565b6040818051810103126107345780604060208193015191015182519182526020820152f35b346107345760207ffffffffffffffffffffffffffffffffffffffffffffffffffffffffffffffffc360112610734576020612321600435612fe7565b90549060031b1c604051908152f35b34610734575f7ffffffffffffffffffffffffffffffffffffffffffffffffffffffffffffffffc360112610734576060602060405161236e81612ec5565b5f8152015260405161237f81612ec5565b600a54600f0b815260405190600b548083528260208101600b5f5260205f20925f905b806001830110612451576123cb94549181811061243d575b1061242c575b509392930382612ee1565b6020820190815260405191829160208352606083019151600f0b6020840152519060408084015281518091526020608084019201905f5b818110612410575050500390f35b8251600f0b845285945060209384019390920191600101612402565b60801d600f0b8152602001856123c0565b92602060019184600f0b81520193016123ba565b9160029193506040600191865480600f0b825260801d600f0b60208201520194019201859293916123a2565b6101207ffffffffffffffffffffffffffffffffffffffffffffffffffffffffffffffffc360112610734576124b0612e2d565b6124b8612e96565b906124c1612e73565b60643560843560a43580600f0b8091036107345760e43591821515809303610734576101043567ffffffffffffffff811161073457612504903690600401612f5c565b9361250f82826132c9565b9560405198899860208a017f756b160c00000000000000000000000000000000000000000000000000000000905273ffffffffffffffffffffffffffffffffffffffff1660248a01527fffffffff0000000000000000000000000000000000000000000000000000000016604489015273ffffffffffffffffffffffffffffffffffffffff166064880152608487015260a486015260c485015260c43560e48501526101048401526101248301610160905261018483016125cf91612dea565b906101448301527f0000000000000000000000000000000000000000000000000000000000000000610164830152037fffffffffffffffffffffffffffffffffffffffffffffffffffffffffffffffe08101825261262d9082612ee1565b61266d9073ffffffffffffffffffffffffffffffffffffffff7f00000000000000000000000000000000000000000000000000000000000000001661331a565b80518101602001906020019061268291613047565b60408051938452602084019290925290820152606090f35b34610734575f7ffffffffffffffffffffffffffffffffffffffffffffffffffffffffffffffffc360112610734576126d061327d565b60095460ff8116156126de57005b7fffffffffffffffffffffffffffffffffffffffffffffffffffffffffffffff00166001176009557f0f8eeedbc400fd6686703559f58d1e6143fdaed533f19a86c93d67a2fe4fb3315f80a1005b34610734575f7ffffffffffffffffffffffffffffffffffffffffffffffffffffffffffffffffc3601126107345760206040517f00000000000000000000000000000000000000000000000000000000000000008152f35b34610734575f7ffffffffffffffffffffffffffffffffffffffffffffffffffffffffffffffffc36011261073457602060405160128152f35b346107345760607ffffffffffffffffffffffffffffffffffffffffffffffffffffffffffffffffc360112610734576127f4612e2d565b6127fc612e50565b6044359073ffffffffffffffffffffffffffffffffffffffff831692835f52600260205260405f2073ffffffffffffffffffffffffffffffffffffffff33165f5260205260405f20547fffffffffffffffffffffffffffffffffffffffffffffffffffffffffffffffff8110612878575b5061077d9350613158565b83811061291d5784156128f15733156128c55761077d945f52600260205260405f2073ffffffffffffffffffffffffffffffffffffffff33165f526020528360405f20910390558461286d565b7f94280d62000000000000000000000000000000000000000000000000000000005f525f60045260245ffd5b7fe602df05000000000000000000000000000000000000000000000000000000005f525f60045260245ffd5b83907ffb8f41b2000000000000000000000000000000000000000000000000000000005f523360045260245260445260645ffd5b34610734575f7ffffffffffffffffffffffffffffffffffffffffffffffffffffffffffffffffc36011261073457602060ff600954166040519015158152f35b34610734575f7ffffffffffffffffffffffffffffffffffffffffffffffffffffffffffffffffc360112610734576020600354604051908152f35b34610734575f7ffffffffffffffffffffffffffffffffffffffffffffffffffffffffffffffffc36011261073457602060405173ffffffffffffffffffffffffffffffffffffffff7f0000000000000000000000000000000000000000000000000000000000000000168152f35b346107345760407ffffffffffffffffffffffffffffffffffffffffffffffffffffffffffffffffc36011261073457612a71612e2d565b6024359033156128f15773ffffffffffffffffffffffffffffffffffffffff169081156128c557335f52600260205260405f20825f526020528060405f20556040519081527f8c5be1e5ebec7d5bd14f71427d1e84f3dd0314c0f7b2291e5b200ac8c7c3b92560203392a3602060405160018152f35b34610734575f7ffffffffffffffffffffffffffffffffffffffffffffffffffffffffffffffffc360112610734576040515f6004548060011c90600181168015612c26575b602083108114612bf957828552908115612bb75750600114612b59575b6104518361096581850382612ee1565b91905060045f527f8a35acfbc15ff81a39ae7d344fd709f28e8600b4aa8c65c6b64bfe7fe36bd19b915f905b808210612b9d57509091508101602001610965612b49565b919260018160209254838588010152019101909291612b85565b7fffffffffffffffffffffffffffffffffffffffffffffffffffffffffffffff001660208086019190915291151560051b840190910191506109659050612b49565b7f4e487b71000000000000000000000000000000000000000000000000000000005f52602260045260245ffd5b91607f1691612b2c565b346107345760207ffffffffffffffffffffffffffffffffffffffffffffffffffffffffffffffffc36011261073457602073ffffffffffffffffffffffffffffffffffffffff612c81600435612fa2565b90549060031b1c16604051908152f35b34610734575f7ffffffffffffffffffffffffffffffffffffffffffffffffffffffffffffffffc36011261073457604051806020600e54918281520190600e5f527fbb7b4a454dc3493923482f07822329ed19e8244eff582cc204f8554c3620c3fd905f5b818110612d0d57610451856108ce81870382612ee1565b8254845260209093019260019283019201612cf6565b34610734575f7ffffffffffffffffffffffffffffffffffffffffffffffffffffffffffffffffc36011261073457600d548082526020820190600d5f527fd7b6990105719101dabeb77144f2a3385c8033acd3af97e9423a695e81ad1eb5905f5b818110612d9b57610451856108ce81870382612ee1565b8254845260209093019260019283019201612d84565b60206040818301928281528451809452019201905f5b818110612dd45750505090565b8251845260209384019390920191600101612dc7565b907fffffffffffffffffffffffffffffffffffffffffffffffffffffffffffffffe0601f602080948051918291828752018686015e5f8582860101520116010190565b6004359073ffffffffffffffffffffffffffffffffffffffff8216820361073457565b6024359073ffffffffffffffffffffffffffffffffffffffff8216820361073457565b6044359073ffffffffffffffffffffffffffffffffffffffff8216820361073457565b602435907fffffffff000000000000000000000000000000000000000000000000000000008216820361073457565b6040810190811067ffffffffffffffff821117611fba57604052565b90601f7fffffffffffffffffffffffffffffffffffffffffffffffffffffffffffffffe0910116810190811067ffffffffffffffff821117611fba57604052565b67ffffffffffffffff8111611fba57601f017fffffffffffffffffffffffffffffffffffffffffffffffffffffffffffffffe01660200190565b81601f8201121561073457803590612f7382612f22565b92612f816040519485612ee1565b8284526020838301011161073457815f926020809301838601378301015290565b600c54811015612fba57600c5f5260205f2001905f90565b7f4e487b71000000000000000000000000000000000000000000000000000000005f52603260045260245ffd5b601054811015612fba5760105f5260205f2001905f90565b600d54811015612fba57600d5f5260205f2001905f90565b600754811015612fba5760075f5260205f2001905f90565b600e54811015612fba57600e5f5260205f2001905f90565b90816060910312610734578051916040602083015192015190565b9190820180921161306f57565b7f4e487b71000000000000000000000000000000000000000000000000000000005f52601160045260245ffd5b9190820391821161306f57565b8181029291811591840414171561306f57565b81156130c6570490565b7f4e487b71000000000000000000000000000000000000000000000000000000005f52601260045260245ffd5b156130fa57565b60646040517f08c379a000000000000000000000000000000000000000000000000000000000815260206004820152601760248201527f62616c616e6365203c2070726f746f636f6c206f7765640000000000000000006044820152fd5b73ffffffffffffffffffffffffffffffffffffffff169081156132515773ffffffffffffffffffffffffffffffffffffffff1691821561322557815f52600160205260405f20548181106131f357817fddf252ad1be2c89b69c2b068fc378daa952ba7f163c4a11628f55a4df523b3ef92602092855f52600184520360405f2055845f526001825260405f20818154019055604051908152a3565b827fe450d38c000000000000000000000000000000000000000000000000000000005f5260045260245260445260645ffd5b7fec442f05000000000000000000000000000000000000000000000000000000005f525f60045260245ffd5b7f96c6fd1e000000000000000000000000000000000000000000000000000000005f525f60045260245ffd5b73ffffffffffffffffffffffffffffffffffffffff5f5416330361329d57565b7f118cdaa7000000000000000000000000000000000000000000000000000000005f523360045260245ffd5b9190826103e8026103e88104840361306f57816132e591613062565b90815f52600860205260405f20549384156132ff57505050565b61330a929450613655565b915f5260086020528160405f2055565b905f8091602081519101845af480806133c0575b1561334057505061333d613672565b90565b156133875773ffffffffffffffffffffffffffffffffffffffff907f9996b315000000000000000000000000000000000000000000000000000000005f521660045260245ffd5b3d15613398576040513d5f823e3d90fd5b7fd6bda275000000000000000000000000000000000000000000000000000000005f5260045ffd5b503d15158061332e5750813b151561332e565b600754156133ee576133e490613017565b90549060031b1c90565b505f90565b156133fa57565b60646040517f08c379a000000000000000000000000000000000000000000000000000000000815260206004820152600960248201527f746f6f20736d616c6c00000000000000000000000000000000000000000000006044820152fd5b9294939491909161348461346c878461368b565b90506134778661302f565b90549060031b1c906137ad565b906134935f83600f0b136133f3565b600a54600f0b918486604051600b54958682526020820196600b5f5260205f20905f915b8160018401106135e557986134e49285926134e99b54918181106135d1575b106135c0575b500383612ee1565b613a69565b91909261350883946134fb819761302f565b90549060031b1c906136ad565b925f9284988061359f575b508811613541576135266135339261302f565b90549060031b1c906139d7565b9461353f8615156133f3565b565b60646040517f08c379a000000000000000000000000000000000000000000000000000000000815260206004820152601a60248201527f737761703a207472616e736665722065786365656473206d61780000000000006044820152fd5b9098506135ae919350846136df565b916135b98385613062565b975f613513565b60801d600f0b81526020015f6134dc565b92602060019184600f0b81520193016134d6565b8054600f81810b8c5260809190911d900b60208b01526040909901988b96508c95506002909201916001016134b7565b90600b54821015612fba57600b5f52600182901c7f0175b7a638427703f0dbe7bb9bbf987a2551717b34e79f33b5b1008d1fa01db9019160041b60101690565b90610f0961366561333d93613017565b90549060031b1c91613017565b604051903d82523d5f602084013e60203d830101604052565b919080156136a7576136a061333d91846136df565b809361309c565b505f9190565b6136c16136ba83836139d7565b92836137ad565b90600f0b90600f0b126136d15790565b6001810180911161306f5790565b908015613712576136ef916130a9565b620f424081019081811161306f57620f423f0190811161306f57620f4240900490565b50505f90565b90600f0b90600f0b017fffffffffffffffffffffffffffffffff8000000000000000000000000000000081121580613756575b1561073457600f0b90565b506f7fffffffffffffffffffffffffffffff81131561374b565b90600f0b90600f0b037fffffffffffffffffffffffffffffffff8000000000000000000000000000000081121580613756571561073457600f0b90565b81156107345777ffffffffffffffffffffffffffffffffffffffffffffffff811161382557906137df9160401b6130bc565b6fffffffffffffffffffffffffffffffff8111610734576fffffffffffffffffffffffffffffffff166f7fffffffffffffffffffffffffffffff811161073457600f0b90565b60c09181831c80936401000000008210156139ca575b600282620100006138c89410156139be575b6101008110156139b2575b60108110156139a6575b600481101561399b575b1015613993575b8360017fffffffffffffffffffffffffffffffffffffffffffffffffffffffffffffffff85017fffffffffffffffffffffffffffffffffffffffffffffffffffffffffffffff4184011c019160ff031b6130bc565b926fffffffffffffffffffffffffffffffff8411610734578160801c8402906fffffffffffffffffffffffffffffffff8316850290809460401b90828210613969575b5003928160801b91828510613940575b60801c036139355761392d92036130bc565b905b016137df565b50505060019061392f565b907fffffffffffffffffffffffffffffffffffffffffffffffffffffffffffffffff019061391b565b7fffffffffffffffffffffffffffffffffffffffffffffffffffffffffffffffff0194505f61390b565b600101613873565b91810191811c61386c565b6004928301921c613862565b6008928301921c613858565b6010928301921c61384d565b505060e082811c9061383b565b811561371257600f0b5f8112610734576fffffffffffffffffffffffffffffffff8216810260401c9160801c0277ffffffffffffffffffffffffffffffffffffffffffffffff81116107345760401b81198111610734570190565b905f809160208151910182855af180806133c0571561334057505061333d613672565b8051821015612fba5760209160051b010190565b955f959194939092849290875b8751891015613aa157613a99600191613a8f8b8b613a55565b51600f0b90613718565b980197613a76565b909294975097909294975f81600f0b1315613e3957613abf91613e97565b9384600f0b80156107345770010000000000000000000000000000000005917fffffffffffffffffffffffffffffffff8000000000000000000000000000000083121580613e1f575b1561073457613b45613b4a91613b4094600f0b948591613b36613b2b8a8d613a55565b51600f0b918c613a55565b51600f0b90613770565b613e97565b613ed7565b9280600f0b905f8213613d10575b505090613b6491613e97565b80600f0b682000000000000000008113613cb2577fffffffffffffffffffffffffffffffff800000000000000000000000000000001461073457613bac905f03600f0b613ed7565b600f0b6801000000000000000003907fffffffffffffffffffffffffffffffff8000000000000000000000000000000082121580613c98575b1561073457613bf791600f0b90613e97565b600f0b68010000000000000000017fffffffffffffffffffffffffffffffff8000000000000000000000000000000081121580613c7e575b1561073457600f0b925f841315613c6a575050613c4e613c5492613f34565b90613e97565b905f82600f0b1315613c6257565b5f9250829150565b909150613c779250613a55565b51600f0b90565b506f7fffffffffffffffffffffffffffffff811315613c2f565b506f7fffffffffffffffffffffffffffffff821315613be5565b60646040517f08c379a000000000000000000000000000000000000000000000000000000000815260206004820152600960248201527f746f6f206c6172676500000000000000000000000000000000000000000000006044820152fd5b84600f9a939a0b80921315613dc15781156107345760401b60170b057fffffffffffffffffffffffffffffffff8000000000000000000000000000000081121580613da7575b1561073457613d75613d7b91600f0b613d705f82136133f3565b613f34565b86613e97565b9780600f0b89600f0b125f14613d9b575050613b6490875b90915f613b58565b613b6492919850613d93565b506f7fffffffffffffffffffffffffffffff811315613d56565b60646040517f08c379a000000000000000000000000000000000000000000000000000000000815260206004820152601260248201527f756e6d61726b657461626c65206c696d697400000000000000000000000000006044820152fd5b506f7fffffffffffffffffffffffffffffff831315613b08565b60646040517f08c379a000000000000000000000000000000000000000000000000000000000815260206004820152600d60248201527f756e696e697469616c697a6564000000000000000000000000000000000000006044820152fd5b90600f0b90600f0b0260401d7fffffffffffffffffffffffffffffffff8000000000000000000000000000000081121580613756571561073457600f0b90565b600f0b68400000000000000000811215610734577fffffffffffffffffffffffffffffffffffffffffffffffc0000000000000000081126133ee57700171547652b82fe1777d0ffda0d23a7d1261333d910260801d600f0b614061565b600f0b5f811315610734575f908068010000000000000000821215614054575b806401000000006002921215614048575b6201000081121561403c575b610100811215614030575b6010811215614024575b6004811215614019575b121561400f575b7fffffffffffffffffffffffffffffffffffffffffffffffffffffffffffffffc0820160401b91607f031b90678000000000000000915b5f8313613ff357506fb17217f7d1cf79abc9e3b39803f2f6af9150600f0b0260801d90565b8002908160ff1c9182607f011c918302019160011d9190613fce565b9060010190613f97565b92810192811d613f90565b6004938401931d613f86565b6008938401931d613f7c565b6010938401931d613f71565b6020938401931d613f65565b506040915080821d613f54565b80600f0b68400000000000000000811215610734577fffffffffffffffffffffffffffffffffffffffffffffffc000000000000000008112613712576f80000000000000000000000000000000915f6780000000000000008216600f0b13614c5d575b5f6740000000000000008216600f0b13614c40575b5f6720000000000000008216600f0b13614c23575b5f6710000000000000008216600f0b13614c06575b5f6708000000000000008216600f0b13614be9575b5f6704000000000000008216600f0b13614bcc575b5f6702000000000000008216600f0b13614baf575b5f6701000000000000008216600f0b13614b92575b5f66800000000000008216600f0b13614b75575b5f66400000000000008216600f0b13614b58575b5f66200000000000008216600f0b13614b3b575b5f66100000000000008216600f0b13614b1e575b5f66080000000000008216600f0b13614b01575b5f66040000000000008216600f0b13614ae4575b5f66020000000000008216600f0b13614ac7575b5f66010000000000008216600f0b13614aaa575b5f658000000000008216600f0b13614a8d575b5f654000000000008216600f0b13614a70575b5f652000000000008216600f0b13614a53575b5f651000000000008216600f0b13614a36575b5f650800000000008216600f0b13614a19575b5f650400000000008216600f0b136149fc575b5f650200000000008216600f0b136149df575b5f650100000000008216600f0b136149c2575b5f6480000000008216600f0b136149a5575b5f6440000000008216600f0b13614988575b5f6420000000008216600f0b1361496b575b5f6410000000008216600f0b1361494e575b5f6408000000008216600f0b13614931575b5f6404000000008216600f0b13614914575b5f6402000000008216600f0b136148f7575b5f6401000000008216600f0b136148da575b5f63800000008216600f0b136148bd575b5f63400000008216600f0b136148a0575b5f63200000008216600f0b13614883575b5f63100000008216600f0b13614866575b5f63080000008216600f0b13614849575b5f63040000008216600f0b1361482c575b5f63020000008216600f0b1361480f575b5f63010000008216600f0b136147f2575b5f628000008216600f0b136147d5575b5f624000008216600f0b136147b8575b5f622000008216600f0b1361479b575b5f621000008216600f0b1361477e575b5f620800008216600f0b13614761575b5f620400008216600f0b13614744575b5f620200008216600f0b13614727575b5f620100008216600f0b1361470a575b5f6180008216600f0b136146ed575b5f6140008216600f0b136146d0575b5f6120008216600f0b136146b3575b5f6110008216600f0b13614696575b5f6108008216600f0b13614679575b5f6104008216600f0b1361465c575b5f6102008216600f0b1361463f575b5f6101008216600f0b13614622575b5f60808216600f0b13614605575b5f60408216600f0b136145e8575b5f60208216600f0b136145cb575b5f60108216600f0b136145ae575b5f60088216600f0b13614591575b5f60048216600f0b13614574575b5f60028216600f0b13614556575b60015f9116600f0b13614539575b60401d600f0b603f03600f0b1c6f7fffffffffffffffffffffffffffffff811161073457600f0b90565b9070010000000000000000b17217f7d1cf79ab0260801c9061450f565b7001000000000000000162e42fefa39ef35890920260801c91614501565b9170010000000000000002c5c85fdf473de6b20260801c916144f3565b91700100000000000000058b90bfbe8e7bcd6d0260801c916144e5565b917001000000000000000b17217f7d1cf79afa0260801c916144d7565b91700100000000000000162e42fefa39ef366f0260801c916144c9565b917001000000000000002c5c85fdf473de6eca0260801c916144bb565b9170010000000000000058b90bfbe8e7bce5440260801c916144ad565b91700100000000000000b17217f7d1cf79e9490260801c9161449f565b9170010000000000000162e42fefa39ef44d910260801c91614490565b91700100000000000002c5c85fdf473dea871f0260801c91614481565b917001000000000000058b90bfbe8e7bdcbe2e0260801c91614472565b9170010000000000000b17217f7d1cf7d83c1a0260801c91614463565b917001000000000000162e42fefa39f02b772c0260801c91614454565b9170010000000000002c5c85fdf473e242ea380260801c91614445565b91700100000000000058b90bfbe8e7cc35c3f00260801c91614436565b917001000000000000b17217f7d1cfb72b45e10260801c91614427565b91700100000000000162e42fefa39fe95583c20260801c91614417565b917001000000000002c5c85fdf4741bea6e77e0260801c91614407565b9170010000000000058b90bfbe8e8b2d3d4ede0260801c916143f7565b91700100000000000b17217f7d1d351a389d400260801c916143e7565b9170010000000000162e42fefa3ae53369388c0260801c916143d7565b91700100000000002c5c85fdf477b662b269450260801c916143c7565b917001000000000058b90bfbe8f71cb4e4b33d0260801c916143b7565b9170010000000000b17217f7d20cf927c8e94c0260801c916143a7565b917001000000000162e42fefa494f1478fde050260801c91614396565b9170010000000002c5c85fdf4b15de6f17eb0d0260801c91614385565b91700100000000058b90bfbe9ddbac5e109cce0260801c91614374565b917001000000000b17217f7d5a7716bba4a9ae0260801c91614363565b91700100000000162e42fefb2fed257559bdaa0260801c91614352565b917001000000002c5c85fdf84bd62ae30a74cc0260801c91614341565b9170010000000058b90bfbf8479bd5a81b51ad0260801c91614330565b91700100000000b17217f80f4ef5aadda455540260801c9161431f565b9170010000000162e42ff0999ce3541b9fffcf0260801c9161430d565b91700100000002c5c85fe31f35a6a30da1be500260801c916142fb565b917001000000058b90bfcdee5acd3c1cedc8230260801c916142e9565b9170010000000b17217fba9c739aa5819f44f90260801c916142d7565b917001000000162e42fff037df38aa2b219f060260801c916142c5565b9170010000002c5c8601cc6b9e94213c72737a0260801c916142b3565b91700100000058b90c0b48c6be5df846c5b2ef0260801c916142a1565b917001000000b1721835514b86e6d96efd1bfe0260801c9161428f565b91700100000162e430e5a18f6119e3c02282a50260801c9161427c565b917001000002c5c863b73f016468f6bac5ca2b0260801c91614269565b9170010000058b90cf1e6d97f9ca14dbcc16280260801c91614256565b91700100000b1721bcfc99d9f890ea069117630260801c91614243565b9170010000162e43f4f831060e02d839a9d16d0260801c91614230565b91700100002c5c89d5ec6ca4d7c8acc017b7c90260801c9161421d565b917001000058b91b5bc9ae2eed81e9b7d4cfab0260801c9161420a565b9170010000b17255775c040618bf4a4ade83fc0260801c916141f7565b917001000162e525ee054754457d59952920260260801c916141e3565b9170010002c5cc37da9491d0985c348c68e7b30260801c916141cf565b91700100058ba01fb9f96d6cacd4b180917c3d0260801c916141bb565b917001000b175effdc76ba38e31671ca9397250260801c916141a7565b91700100162f3904051fa128bca9c55c31e5df0260801c91614193565b917001002c605e2e8cec506d21bfc89a23a00f0260801c9161417f565b9170010058c86da1c09ea1ff19d294cf2f679b0260801c9161416b565b91700100b1afa5abcbed6129ab13ec11dc95430260801c91614157565b9170010163da9fb33356d84a66ae336dcdfa3f0260801c91614142565b91700102c9a3e778060ee6f7caca4f7a29bde80260801c9161412d565b917001059b0d31585743ae7c548eb68ca417fd0260801c91614118565b9170010b5586cf9890f6298b92b71842a983630260801c91614103565b917001172b83c7d517adcdf7c8c50eb14a791f0260801c916140ee565b917001306fe0a31b7152de8d5a46305c85edec0260801c916140d9565b6fb504f333f9de6484597d89b3754abe9f92506140c456fea26469706673582212209750bfa4c6489b2b0d38ae95421afcfeefe7f25b17985fe129772a614126bc7f64736f6c63430008210033","linkReferences":{}},"methodIdentifiers":{"LMSR()":"476e44b6","allProtocolFeesOwed()":"017504b6","allTokens()":"6ff97f1d","allowance(address,address)":"dd62ed3e","approve(address,uint256)":"095ea7b3","balance(uint256)":"47bb89f0","balanceOf(address)":"70a08231","balances()":"7bb98a68","burn(address,address,uint256,uint256,bool)":"6863f5bc","burnSwap(address,address,uint256,uint256,uint256,bool)":"491e7998","collectProtocolFees()":"a1af5b9a","decimals()":"313ce567","denominators()":"017cf661","fee(uint256,uint256)":"939f5ea4","fees()":"9af1d35a","flashFeePpm()":"31596a6a","flashLoan(address,address,uint256,bytes)":"5cffe9de","initialMint(address,uint256)":"6d8d0ff3","kappa()":"6bba3f2f","kill()":"41c0e1b5","killed()":"1f3a0e41","mint(address,address,uint256,uint256)":"b3f1c93d","mintImpl()":"f0d1ae4f","name()":"06fdde03","numTokens()":"8e499bcf","owner()":"8da5cb5b","protocolFeeAddress()":"cce516b7","protocolFeePpm()":"6b4082d1","renounceOwnership()":"715018a6","setProtocolFeeAddress(address)":"6b7b9112","swap(address,bytes4,address,uint256,uint256,uint256,int128,uint256,bool,bytes)":"70305452","swapAmounts(uint256,uint256,uint256,int128)":"d516b8c6","swapImpl()":"c405e442","swapMint(address,address,uint256,uint256,uint256)":"cb717f3a","swapToLimit(address,bytes4,address,uint256,uint256,int128,uint256,bool,bytes)":"4264c8bc","symbol()":"95d89b41","token(uint256)":"044215c6","totalSupply()":"18160ddd","transfer(address,uint256)":"a9059cbb","transferFrom(address,address,uint256)":"23b872dd","transferOwnership(address)":"f2fde38b","wrapperToken()":"0d246214"},"id":49}