{"abi":[{"type":"constructor","inputs":[],"stateMutability":"nonpayable"},{"type":"receive","stateMutability":"payable"},{"type":"function","name":"LMSR","inputs":[],"outputs":[{"name":"","type":"tuple","internalType":"struct LMSRStabilized.State","components":[{"name":"kappa","type":"int128","internalType":"int128"},{"name":"qInternal","type":"int128[]","internalType":"int128[]"}]}],"stateMutability":"view"},{"type":"function","name":"allProtocolFeesOwed","inputs":[],"outputs":[{"name":"","type":"uint256[]","internalType":"uint256[]"}],"stateMutability":"view"},{"type":"function","name":"allTokens","inputs":[],"outputs":[{"name":"","type":"address[]","internalType":"contract IERC20[]"}],"stateMutability":"view"},{"type":"function","name":"allowance","inputs":[{"name":"owner","type":"address","internalType":"address"},{"name":"spender","type":"address","internalType":"address"}],"outputs":[{"name":"","type":"uint256","internalType":"uint256"}],"stateMutability":"view"},{"type":"function","name":"approve","inputs":[{"name":"spender","type":"address","internalType":"address"},{"name":"value","type":"uint256","internalType":"uint256"}],"outputs":[{"name":"","type":"bool","internalType":"bool"}],"stateMutability":"nonpayable"},{"type":"function","name":"balanceOf","inputs":[{"name":"account","type":"address","internalType":"address"}],"outputs":[{"name":"","type":"uint256","internalType":"uint256"}],"stateMutability":"view"},{"type":"function","name":"burn","inputs":[{"name":"payer","type":"address","internalType":"address"},{"name":"receiver","type":"address","internalType":"address"},{"name":"lpAmount","type":"uint256","internalType":"uint256"},{"name":"deadline","type":"uint256","internalType":"uint256"},{"name":"unwrap","type":"bool","internalType":"bool"}],"outputs":[{"name":"withdrawAmounts","type":"uint256[]","internalType":"uint256[]"}],"stateMutability":"nonpayable"},{"type":"function","name":"burnSwap","inputs":[{"name":"payer","type":"address","internalType":"address"},{"name":"receiver","type":"address","internalType":"address"},{"name":"lpAmount","type":"uint256","internalType":"uint256"},{"name":"outputTokenIndex","type":"uint256","internalType":"uint256"},{"name":"deadline","type":"uint256","internalType":"uint256"},{"name":"unwrap","type":"bool","internalType":"bool"}],"outputs":[{"name":"amountOut","type":"uint256","internalType":"uint256"},{"name":"outFee","type":"uint256","internalType":"uint256"}],"stateMutability":"nonpayable"},{"type":"function","name":"collectProtocolFees","inputs":[],"outputs":[],"stateMutability":"nonpayable"},{"type":"function","name":"decimals","inputs":[],"outputs":[{"name":"","type":"uint8","internalType":"uint8"}],"stateMutability":"view"},{"type":"function","name":"denominators","inputs":[],"outputs":[{"name":"","type":"uint256[]","internalType":"uint256[]"}],"stateMutability":"view"},{"type":"function","name":"fee","inputs":[{"name":"i","type":"uint256","internalType":"uint256"},{"name":"j","type":"uint256","internalType":"uint256"}],"outputs":[{"name":"","type":"uint256","internalType":"uint256"}],"stateMutability":"view"},{"type":"function","name":"fees","inputs":[],"outputs":[{"name":"","type":"uint256[]","internalType":"uint256[]"}],"stateMutability":"view"},{"type":"function","name":"flashFeePpm","inputs":[],"outputs":[{"name":"","type":"uint256","internalType":"uint256"}],"stateMutability":"view"},{"type":"function","name":"flashLoan","inputs":[{"name":"receiver","type":"address","internalType":"contract IERC3156FlashBorrower"},{"name":"tokenAddr","type":"address","internalType":"address"},{"name":"amount","type":"uint256","internalType":"uint256"},{"name":"data","type":"bytes","internalType":"bytes"}],"outputs":[{"name":"","type":"bool","internalType":"bool"}],"stateMutability":"nonpayable"},{"type":"function","name":"initialMint","inputs":[{"name":"receiver","type":"address","internalType":"address"},{"name":"lpTokens","type":"uint256","internalType":"uint256"}],"outputs":[{"name":"lpMinted","type":"uint256","internalType":"uint256"}],"stateMutability":"payable"},{"type":"function","name":"kappa","inputs":[],"outputs":[{"name":"","type":"int128","internalType":"int128"}],"stateMutability":"view"},{"type":"function","name":"kill","inputs":[],"outputs":[],"stateMutability":"nonpayable"},{"type":"function","name":"killed","inputs":[],"outputs":[{"name":"","type":"bool","internalType":"bool"}],"stateMutability":"view"},{"type":"function","name":"mint","inputs":[{"name":"payer","type":"address","internalType":"address"},{"name":"receiver","type":"address","internalType":"address"},{"name":"lpTokenAmount","type":"uint256","internalType":"uint256"},{"name":"deadline","type":"uint256","internalType":"uint256"}],"outputs":[{"name":"lpMinted","type":"uint256","internalType":"uint256"}],"stateMutability":"payable"},{"type":"function","name":"mintImpl","inputs":[],"outputs":[{"name":"","type":"address","internalType":"address"}],"stateMutability":"view"},{"type":"function","name":"name","inputs":[],"outputs":[{"name":"","type":"string","internalType":"string"}],"stateMutability":"view"},{"type":"function","name":"numTokens","inputs":[],"outputs":[{"name":"","type":"uint256","internalType":"uint256"}],"stateMutability":"view"},{"type":"function","name":"owner","inputs":[],"outputs":[{"name":"","type":"address","internalType":"address"}],"stateMutability":"view"},{"type":"function","name":"protocolFeeAddress","inputs":[],"outputs":[{"name":"","type":"address","internalType":"address"}],"stateMutability":"view"},{"type":"function","name":"protocolFeePpm","inputs":[],"outputs":[{"name":"","type":"uint256","internalType":"uint256"}],"stateMutability":"view"},{"type":"function","name":"renounceOwnership","inputs":[],"outputs":[],"stateMutability":"nonpayable"},{"type":"function","name":"setProtocolFeeAddress","inputs":[{"name":"feeAddress","type":"address","internalType":"address"}],"outputs":[],"stateMutability":"nonpayable"},{"type":"function","name":"swap","inputs":[{"name":"payer","type":"address","internalType":"address"},{"name":"fundingSelector","type":"bytes4","internalType":"bytes4"},{"name":"receiver","type":"address","internalType":"address"},{"name":"inputTokenIndex","type":"uint256","internalType":"uint256"},{"name":"outputTokenIndex","type":"uint256","internalType":"uint256"},{"name":"maxAmountIn","type":"uint256","internalType":"uint256"},{"name":"limitPrice","type":"int128","internalType":"int128"},{"name":"deadline","type":"uint256","internalType":"uint256"},{"name":"unwrap","type":"bool","internalType":"bool"},{"name":"cbData","type":"bytes","internalType":"bytes"}],"outputs":[{"name":"amountIn","type":"uint256","internalType":"uint256"},{"name":"amountOut","type":"uint256","internalType":"uint256"},{"name":"inFee","type":"uint256","internalType":"uint256"}],"stateMutability":"payable"},{"type":"function","name":"swapAmounts","inputs":[{"name":"inputTokenIndex","type":"uint256","internalType":"uint256"},{"name":"outputTokenIndex","type":"uint256","internalType":"uint256"},{"name":"maxAmountIn","type":"uint256","internalType":"uint256"},{"name":"limitPrice","type":"int128","internalType":"int128"}],"outputs":[{"name":"amountIn","type":"uint256","internalType":"uint256"},{"name":"amountOut","type":"uint256","internalType":"uint256"},{"name":"inFee","type":"uint256","internalType":"uint256"}],"stateMutability":"view"},{"type":"function","name":"swapImpl","inputs":[],"outputs":[{"name":"","type":"address","internalType":"address"}],"stateMutability":"view"},{"type":"function","name":"swapMint","inputs":[{"name":"payer","type":"address","internalType":"address"},{"name":"receiver","type":"address","internalType":"address"},{"name":"inputTokenIndex","type":"uint256","internalType":"uint256"},{"name":"maxAmountIn","type":"uint256","internalType":"uint256"},{"name":"deadline","type":"uint256","internalType":"uint256"}],"outputs":[{"name":"amountInUsed","type":"uint256","internalType":"uint256"},{"name":"lpMinted","type":"uint256","internalType":"uint256"},{"name":"inFee","type":"uint256","internalType":"uint256"}],"stateMutability":"payable"},{"type":"function","name":"swapToLimit","inputs":[{"name":"payer","type":"address","internalType":"address"},{"name":"fundingSelector","type":"bytes4","internalType":"bytes4"},{"name":"receiver","type":"address","internalType":"address"},{"name":"inputTokenIndex","type":"uint256","internalType":"uint256"},{"name":"outputTokenIndex","type":"uint256","internalType":"uint256"},{"name":"limitPrice","type":"int128","internalType":"int128"},{"name":"deadline","type":"uint256","internalType":"uint256"},{"name":"unwrap","type":"bool","internalType":"bool"},{"name":"cbData","type":"bytes","internalType":"bytes"}],"outputs":[{"name":"amountInUsed","type":"uint256","internalType":"uint256"},{"name":"amountOut","type":"uint256","internalType":"uint256"},{"name":"inFee","type":"uint256","internalType":"uint256"}],"stateMutability":"payable"},{"type":"function","name":"symbol","inputs":[],"outputs":[{"name":"","type":"string","internalType":"string"}],"stateMutability":"view"},{"type":"function","name":"token","inputs":[{"name":"i","type":"uint256","internalType":"uint256"}],"outputs":[{"name":"","type":"address","internalType":"contract IERC20"}],"stateMutability":"view"},{"type":"function","name":"totalSupply","inputs":[],"outputs":[{"name":"","type":"uint256","internalType":"uint256"}],"stateMutability":"view"},{"type":"function","name":"transfer","inputs":[{"name":"to","type":"address","internalType":"address"},{"name":"value","type":"uint256","internalType":"uint256"}],"outputs":[{"name":"","type":"bool","internalType":"bool"}],"stateMutability":"nonpayable"},{"type":"function","name":"transferFrom","inputs":[{"name":"from","type":"address","internalType":"address"},{"name":"to","type":"address","internalType":"address"},{"name":"value","type":"uint256","internalType":"uint256"}],"outputs":[{"name":"","type":"bool","internalType":"bool"}],"stateMutability":"nonpayable"},{"type":"function","name":"transferOwnership","inputs":[{"name":"newOwner","type":"address","internalType":"address"}],"outputs":[],"stateMutability":"nonpayable"},{"type":"function","name":"wrapperToken","inputs":[],"outputs":[{"name":"","type":"address","internalType":"contract NativeWrapper"}],"stateMutability":"view"},{"type":"event","name":"Approval","inputs":[{"name":"owner","type":"address","indexed":true,"internalType":"address"},{"name":"spender","type":"address","indexed":true,"internalType":"address"},{"name":"value","type":"uint256","indexed":false,"internalType":"uint256"}],"anonymous":false},{"type":"event","name":"Burn","inputs":[{"name":"payer","type":"address","indexed":false,"internalType":"address"},{"name":"receiver","type":"address","indexed":true,"internalType":"address"},{"name":"amounts","type":"uint256[]","indexed":false,"internalType":"uint256[]"},{"name":"lpBurned","type":"uint256","indexed":false,"internalType":"uint256"}],"anonymous":false},{"type":"event","name":"BurnSwap","inputs":[{"name":"payer","type":"address","indexed":true,"internalType":"address"},{"name":"receiver","type":"address","indexed":true,"internalType":"address"},{"name":"tokenOut","type":"address","indexed":true,"internalType":"contract IERC20"},{"name":"amountIn","type":"uint256","indexed":false,"internalType":"uint256"},{"name":"amountOut","type":"uint256","indexed":false,"internalType":"uint256"},{"name":"lpFee","type":"uint256","indexed":false,"internalType":"uint256"},{"name":"protocolFee","type":"uint256","indexed":false,"internalType":"uint256"}],"anonymous":false},{"type":"event","name":"Flash","inputs":[{"name":"initiator","type":"address","indexed":true,"internalType":"address"},{"name":"receiver","type":"address","indexed":true,"internalType":"contract IERC3156FlashBorrower"},{"name":"token","type":"address","indexed":true,"internalType":"contract IERC20"},{"name":"amount","type":"uint256","indexed":false,"internalType":"uint256"},{"name":"lpFee","type":"uint256","indexed":false,"internalType":"uint256"},{"name":"protocolFee","type":"uint256","indexed":false,"internalType":"uint256"}],"anonymous":false},{"type":"event","name":"Killed","inputs":[],"anonymous":false},{"type":"event","name":"Mint","inputs":[{"name":"payer","type":"address","indexed":false,"internalType":"address"},{"name":"receiver","type":"address","indexed":true,"internalType":"address"},{"name":"amounts","type":"uint256[]","indexed":false,"internalType":"uint256[]"},{"name":"lpMinted","type":"uint256","indexed":false,"internalType":"uint256"}],"anonymous":false},{"type":"event","name":"OwnershipTransferred","inputs":[{"name":"previousOwner","type":"address","indexed":true,"internalType":"address"},{"name":"newOwner","type":"address","indexed":true,"internalType":"address"}],"anonymous":false},{"type":"event","name":"ProtocolFeesCollected","inputs":[],"anonymous":false},{"type":"event","name":"Swap","inputs":[{"name":"payer","type":"address","indexed":false,"internalType":"address"},{"name":"receiver","type":"address","indexed":true,"internalType":"address"},{"name":"tokenIn","type":"address","indexed":true,"internalType":"contract IERC20"},{"name":"tokenOut","type":"address","indexed":true,"internalType":"contract IERC20"},{"name":"amountIn","type":"uint256","indexed":false,"internalType":"uint256"},{"name":"amountOut","type":"uint256","indexed":false,"internalType":"uint256"},{"name":"lpFee","type":"uint256","indexed":false,"internalType":"uint256"},{"name":"protocolFee","type":"uint256","indexed":false,"internalType":"uint256"}],"anonymous":false},{"type":"event","name":"SwapMint","inputs":[{"name":"payer","type":"address","indexed":true,"internalType":"address"},{"name":"receiver","type":"address","indexed":true,"internalType":"address"},{"name":"tokenIn","type":"address","indexed":true,"internalType":"contract IERC20"},{"name":"amountIn","type":"uint256","indexed":false,"internalType":"uint256"},{"name":"amountOut","type":"uint256","indexed":false,"internalType":"uint256"},{"name":"lpFee","type":"uint256","indexed":false,"internalType":"uint256"},{"name":"protocolFee","type":"uint256","indexed":false,"internalType":"uint256"}],"anonymous":false},{"type":"event","name":"Transfer","inputs":[{"name":"from","type":"address","indexed":true,"internalType":"address"},{"name":"to","type":"address","indexed":true,"internalType":"address"},{"name":"value","type":"uint256","indexed":false,"internalType":"uint256"}],"anonymous":false},{"type":"error","name":"AddressEmptyCode","inputs":[{"name":"target","type":"address","internalType":"address"}]},{"type":"error","name":"ERC20InsufficientAllowance","inputs":[{"name":"spender","type":"address","internalType":"address"},{"name":"allowance","type":"uint256","internalType":"uint256"},{"name":"needed","type":"uint256","internalType":"uint256"}]},{"type":"error","name":"ERC20InsufficientBalance","inputs":[{"name":"sender","type":"address","internalType":"address"},{"name":"balance","type":"uint256","internalType":"uint256"},{"name":"needed","type":"uint256","internalType":"uint256"}]},{"type":"error","name":"ERC20InvalidApprover","inputs":[{"name":"approver","type":"address","internalType":"address"}]},{"type":"error","name":"ERC20InvalidReceiver","inputs":[{"name":"receiver","type":"address","internalType":"address"}]},{"type":"error","name":"ERC20InvalidSender","inputs":[{"name":"sender","type":"address","internalType":"address"}]},{"type":"error","name":"ERC20InvalidSpender","inputs":[{"name":"spender","type":"address","internalType":"address"}]},{"type":"error","name":"FailedCall","inputs":[]},{"type":"error","name":"InsufficientBalance","inputs":[{"name":"balance","type":"uint256","internalType":"uint256"},{"name":"needed","type":"uint256","internalType":"uint256"}]},{"type":"error","name":"OwnableInvalidOwner","inputs":[{"name":"owner","type":"address","internalType":"address"}]},{"type":"error","name":"OwnableUnauthorizedAccount","inputs":[{"name":"account","type":"address","internalType":"address"}]},{"type":"error","name":"ReentrancyGuardReentrantCall","inputs":[]},{"type":"error","name":"SafeERC20FailedOperation","inputs":[{"name":"token","type":"address","internalType":"address"}]}],"bytecode":{"object":"0x61014080604052346105fa5760017f9b779b17422d0df92223018b32b4d1fa46e071723d6817e2486d003becc55f00556367f855cb60e11b81525f81600481335afa908115610b6f575f91610927575b5060808101908151519160018311156108e25781516006556101408201516001600160a01b0316608052604082015180519093906001600160401b03811161053e57600454600181811c911680156108d8575b60208210146107fe57601f811161088a575b50602094601f8211600114610827579481929394955f9261081c575b50508160011b915f199060031b1c1916176004555b606083015180519093906001600160401b03811161053e57600554600181811c91168015610812575b60208210146107fe57601f81116107c2575b50602094601f821160011461075f579481929394955f92610754575b50508160011b915f199060031b1c1916176005555b60208101516001600160a01b03168015610741575f80546001600160a01b03198116831782556001600160a01b0316907f8be0079c531659141344cd1fd0a4f28419497f9722a3daafe3b4186f6b6457e09080a382518051906001600160401b03821161053e5768010000000000000000821161053e57602090600c5483600c55808410610725575b5001600c5f5260205f205f5b838110610708575050505060a0810151600f0b60a05260c0810191825151845151036106cf57610217835151610c33565b8051906001600160401b03821161053e5768010000000000000000821161053e57602090600754836007558084106106b3575b500160075f5260205f205f5b83811061069f57505050505f5b835180518210156102f85761027b8261271092610c65565b5110156102c15761028d818551610c65565b51906007548110156102ad5760019160075f528160205f20015501610263565b634e487b7160e01b5f52603260045260245ffd5b60405162461bcd60e51b815260206004820152600f60248201526e506f6f6c3a20666565203e3d20312560881b6044820152606490fd5b82868560e081016127108151101561065a575160c052610100810162061a80815110156106155751801580156105fe575b156105fa5760e05261012081810151601180546001600160a01b0319166001600160a01b0392831617905561016083015181169091526101809091015116610100525f5b8281106105b2578261037e81610c33565b8051906001600160401b03821161053e5768010000000000000000821161053e57602090600e5483600e55808410610596575b5001600e5f5260205f205f5b83811061058257846103ce81610c33565b8051906001600160401b03821161053e5768010000000000000000821161053e5760209060105483601055808410610566575b500160105f5260205f205f5b8381106105525761041d85610c33565b8051906001600160401b03821161053e5768010000000000000000821161053e57602090600d5483600d55808410610522575b500190600d5f5260205f20915f5b82811061050e57604051614c969081610c7a8239608051818181610dbf0152818161100f0152818161132e015281816115f00152612970015260a051818181611c960152611d01015260c0518181816120c201526126bb015260e05181818161054a01528181610e9801528181611dde015281816120e80152818161222f015261253201526101005181818161031701526105950152610120518181816106310152818161081201526125a20152f35b60019060208351930192818601550161045e565b61053890600d5f5284845f209182019101610c1d565b83610450565b634e487b7160e01b5f52604160045260245ffd5b60019060208451940193818401550161040d565b61057c9060105f5284845f209182019101610c1d565b84610401565b6001906020845194019381840155016103bd565b6105ac90600e5f5284845f209182019101610c1d565b846103b1565b60018101908181116105e65782516001600160a01b03916105d291610c65565b51165f52600f6020528060405f205561036d565b634e487b7160e01b5f52601160045260245ffd5b5f80fd5b506101208201516001600160a01b03161515610329565b60405162461bcd60e51b815260206004820152601960248201527f506f6f6c3a2070726f746f636f6c20666565203e3d20343025000000000000006044820152606490fd5b60405162461bcd60e51b815260206004820152601560248201527f506f6f6c3a20666c61736820666565203e3d20312500000000000000000000006044820152606490fd5b600190602084519401938184015501610256565b6106c99060075f5284845f209182019101610c1d565b5f61024a565b60405162461bcd60e51b81526020600482015260116024820152700a0deded87440cccacae640d8cadccee8d607b1b6044820152606490fd5b82516001600160a01b0316818301556020909201916001016101e6565b61073b90600c5f5284845f209182019101610c1d565b5f6101da565b631e4fbdf760e01b5f525f60045260245ffd5b015190505f8061013c565b601f1982169560055f52805f20915f5b8881106107aa57508360019596979810610792575b505050811b01600555610151565b01515f1960f88460031b161c191690555f8080610784565b9192602060018192868501518155019401920161076f565b6107ee9060055f5260205f20601f840160051c810191602085106107f4575b601f0160051c0190610c1d565b5f610120565b90915081906107e1565b634e487b7160e01b5f52602260045260245ffd5b90607f169061010e565b015190505f806100d0565b601f1982169560045f52805f20915f5b8881106108725750836001959697981061085a575b505050811b016004556100e5565b01515f1960f88460031b161c191690555f808061084c565b91926020600181928685015181550194019201610837565b60045f526108d2907f8a35acfbc15ff81a39ae7d344fd709f28e8600b4aa8c65c6b64bfe7fe36bd19b601f840160051c810191602085106107f457601f0160051c0190610c1d565b5f6100b4565b90607f16906100a2565b60405162461bcd60e51b815260206004820152601360248201527f506f6f6c3a206e656564203e31206173736574000000000000000000000000006044820152606490fd5b90503d805f833e6109388183610b7a565b8101906020818303126105fa578051906001600160401b0382116105fa57016101a0818303126105fa57604051916101a083016001600160401b0381118482101761053e576040528151835261099060208301610b9d565b602084015260408201516001600160401b0381116105fa57816109b4918401610bb1565b604084015260608201516001600160401b0381116105fa57816109d8918401610bb1565b606084015260808201516001600160401b0381116105fa57820181601f820112156105fa578051610a0881610c06565b91610a166040519384610b7a565b81835260208084019260051b820101908482116105fa57602001915b818310610b4f57505050608084015260a082015180600f0b81036105fa5760a084015260c08201516001600160401b0381116105fa5782019080601f830112156105fa578151610a8181610c06565b92610a8f6040519485610b7a565b81845260208085019260051b8201019283116105fa57602001905b828210610b3f5750505060c083015260e081015160e0830152610100810151610100830152610adc6101208201610b9d565b6101208301526101408101516001600160a01b03811681036105fa57610140830152610160810151906001600160a01b03821682036105fa5761016083019190915261018001516001600160a01b03811681036105fa576101808201525f61004f565b8151815260209182019101610aaa565b82516001600160a01b03811681036105fa57815260209283019201610a32565b6040513d5f823e3d90fd5b601f909101601f19168101906001600160401b0382119082101761053e57604052565b51906001600160a01b03821682036105fa57565b81601f820112156105fa578051906001600160401b03821161053e5760405192610be5601f8401601f191660200185610b7a565b828452602083830101116105fa57815f9260208093018386015e8301015290565b6001600160401b03811161053e5760051b60200190565b818110610c28575050565b5f8155600101610c1d565b90610c3d82610c06565b610c4a6040519182610b7a565b8281528092610c5b601f1991610c06565b0190602036910137565b80518210156102ad5760209160051b01019056fe608080604052600436101561001c575b50361561001a575f80fd5b005b5f905f3560e01c908163017504b614612c7d57508063017cf66114612beb578063044215c614612b8a57806306fdde0314612a41578063095ea7b3146129945780630d2462141461292657806318160ddd146128eb5780631f3a0e41146128ab57806323b872dd14612717578063313ce567146126de57806331596a6a1461268657806341c0e1b5146125f45780634264c8bc146123d7578063476e44b61461228a578063491e7998146121635780635cffe9de14611f8c5780636863f5bc14611e015780636b4082d114611da95780636b7b911214611d275780636bba3f2f14611ccc5780636d8d0ff314611c125780636ff97f1d14611b125780637030545214610c1057806370a0823114610bad578063715018a614610b115780638da5cb5b14610ac05780638e499bcf14610a84578063939f5ea414610a3c57806395d89b41146108da5780639af1d35a1461083b578063a1af5b9a14610772578063a9059cbb14610722578063b3f1c93d14610655578063c405e442146105e6578063cb717f3a14610491578063cce516b71461043f578063d516b8c6146103b4578063dd62ed3e1461033b578063f0d1ae4f146102cc5763f2fde38b0361000f57346102c95760207ffffffffffffffffffffffffffffffffffffffffffffffffffffffffffffffffc3601126102c95773ffffffffffffffffffffffffffffffffffffffff610228612d87565b6102306131d7565b16801561029d5773ffffffffffffffffffffffffffffffffffffffff8254827fffffffffffffffffffffffff00000000000000000000000000000000000000008216178455167f8be0079c531659141344cd1fd0a4f28419497f9722a3daafe3b4186f6b6457e08380a380f35b6024827f1e4fbdf700000000000000000000000000000000000000000000000000000000815280600452fd5b80fd5b50346102c957807ffffffffffffffffffffffffffffffffffffffffffffffffffffffffffffffffc3601126102c957602060405173ffffffffffffffffffffffffffffffffffffffff7f0000000000000000000000000000000000000000000000000000000000000000168152f35b50346102c95760407ffffffffffffffffffffffffffffffffffffffffffffffffffffffffffffffffc3601126102c95773ffffffffffffffffffffffffffffffffffffffff604061038a612d87565b9282610394612daa565b9416815260026020522091165f52602052602060405f2054604051908152f35b50346102c95760807ffffffffffffffffffffffffffffffffffffffffffffffffffffffffffffffffc3601126102c95760043590602435916064359182600f0b83036102c95761043b61041785858561040d838261359a565b926044359161334d565b92505050604093919351938493846040919493926060820195825260208201520152565b0390f35b50346102c957807ffffffffffffffffffffffffffffffffffffffffffffffffffffffffffffffffc3601126102c957602073ffffffffffffffffffffffffffffffffffffffff60115416604051908152f35b5060a07ffffffffffffffffffffffffffffffffffffffffffffffffffffffffffffffffc3601126102c95761043b6105c96105ba6104cd612d87565b6104d5612daa565b60443573ffffffffffffffffffffffffffffffffffffffff6104f68261332d565b9281604051957f3dd3c8050000000000000000000000000000000000000000000000000000000060208801521660248601521660448401526064830152606435608483015260843560a483015260c48201527f000000000000000000000000000000000000000000000000000000000000000060e482015260e4815261057e61010482612e3b565b73ffffffffffffffffffffffffffffffffffffffff7f000000000000000000000000000000000000000000000000000000000000000016613274565b60208082518301019101612fa1565b604080519384526020840192909252908201529081906060820190565b50346102c957807ffffffffffffffffffffffffffffffffffffffffffffffffffffffffffffffffc3601126102c957602060405173ffffffffffffffffffffffffffffffffffffffff7f0000000000000000000000000000000000000000000000000000000000000000168152f35b5060807ffffffffffffffffffffffffffffffffffffffffffffffffffffffffffffffffc3601126102c9576106fe61068b612d87565b73ffffffffffffffffffffffffffffffffffffffff6106a8612daa565b81604051937fb3f1c93d000000000000000000000000000000000000000000000000000000006020860152166024840152166044820152604435606482015260643560848201526084815261057e60a482612e3b565b6020815191818082019384920101031261071e5760209051604051908152f35b5f80fd5b50346102c95760407ffffffffffffffffffffffffffffffffffffffffffffffffffffffffffffffffc3601126102c95761076761075d612d87565b60243590336130b2565b602060405160018152f35b50346102c957807ffffffffffffffffffffffffffffffffffffffffffffffffffffffffffffffffc3601126102c95761083773ffffffffffffffffffffffffffffffffffffffff60115416604051907f2a54db010000000000000000000000000000000000000000000000000000000060208301526024820152602481526107fb604482612e3b565b73ffffffffffffffffffffffffffffffffffffffff7f000000000000000000000000000000000000000000000000000000000000000016613274565b5080f35b50346102c957807ffffffffffffffffffffffffffffffffffffffffffffffffffffffffffffffffc3601126102c95760405180916020600754928381520191600782527fa66cc928b5edb82af9bd49922954155ab7b0942694bea4ce44661d9a8736c688915b8181106108c45761043b856108b881870382612e3b565b60405191829182612d0b565b82548452602090930192600192830192016108a1565b50346102c957807ffffffffffffffffffffffffffffffffffffffffffffffffffffffffffffffffc3601126102c9576040519080600554908160011c91600181168015610a32575b602084108114610a05578386529081156109c05750600114610963575b61043b8461094f81860382612e3b565b604051918291602083526020830190612d44565b600581527f036b6384b5eca791c62761152d0c79bb0604c104a5fb6f4eb0703f3154bb3db0939250905b8082106109a65750909150810160200161094f8261093f565b91926001816020925483858801015201910190929161098d565b7fffffffffffffffffffffffffffffffffffffffffffffffffffffffffffffff001660208087019190915292151560051b8501909201925061094f915083905061093f565b6024837f4e487b710000000000000000000000000000000000000000000000000000000081526022600452fd5b92607f1692610922565b50346102c95760407ffffffffffffffffffffffffffffffffffffffffffffffffffffffffffffffffc3601126102c9576020610a7c60243560043561359a565b604051908152f35b50346102c957807ffffffffffffffffffffffffffffffffffffffffffffffffffffffffffffffffc3601126102c9576020600c54604051908152f35b50346102c957807ffffffffffffffffffffffffffffffffffffffffffffffffffffffffffffffffc3601126102c95773ffffffffffffffffffffffffffffffffffffffff6020915416604051908152f35b50346102c957807ffffffffffffffffffffffffffffffffffffffffffffffffffffffffffffffffc3601126102c957610b486131d7565b8073ffffffffffffffffffffffffffffffffffffffff81547fffffffffffffffffffffffff000000000000000000000000000000000000000081168355167f8be0079c531659141344cd1fd0a4f28419497f9722a3daafe3b4186f6b6457e08280a380f35b50346102c95760207ffffffffffffffffffffffffffffffffffffffffffffffffffffffffffffffffc3601126102c957604060209173ffffffffffffffffffffffffffffffffffffffff610bff612d87565b168152600183522054604051908152f35b506101407ffffffffffffffffffffffffffffffffffffffffffffffffffffffffffffffffc36011261071e57610c44612d87565b90610c4d612df0565b610c55612dcd565b91606435916084359260c4359586600f0b9586880361071e5760e4359261010435988915158a0361071e576101243567ffffffffffffffff811161071e57610ca1903690600401612eb6565b9460027f9b779b17422d0df92223018b32b4d1fa46e071723d6817e2486d003becc55f005414611aea5760027f9b779b17422d0df92223018b32b4d1fa46e071723d6817e2486d003becc55f005560ff60095416611a8c578015908115611a81575b5015611a2357610d2290610d178984613223565b9060a4358a8561334d565b9b94919592939c905073ffffffffffffffffffffffffffffffffffffffff610d4984612efc565b90549060031b1c169873ffffffffffffffffffffffffffffffffffffffff610d7087612efc565b90549060031b1c169a7fffffffff00000000000000000000000000000000000000000000000000000000811680155f146115a3575050505073ffffffffffffffffffffffffffffffffffffffff7f00000000000000000000000000000000000000000000000000000000000000001680891480611599575b156114cb57803b156114c7578a82916004604051809481937fd0e30db00000000000000000000000000000000000000000000000000000000083525af180156114bc576114a3575b50918b9c9391610e94610e729d9796945b9d8e5b610e6d610e5085612f41565b90549060031b1c610e6086612f59565b90549060031b1c90612fbc565b612fbc565b97610e8f610e7f86612f41565b90549060031b1c610e6087612f59565b612ff6565b8b977f00000000000000000000000000000000000000000000000000000000000000008e8115158061149a575b611411575b5050610f6491610f46610f07610f5b93610ef1610ee288612f59565b90549060031b1c82101561304d565b610efa87612f59565b90549060031b1c90612ff6565b610f1086612f41565b9091907fffffffffffffffffffffffffffffffffffffffffffffffffffffffffffffffff83549160031b92831b921b1916179055565b610f52610ee287612f59565b610efa86612f59565b610f1085612f41565b8a82600f0b13156113b3578a84600f0b131561135557610fed93610fd582610fad610fa7610fad96610f98610fa79761355a565b90549060031b1c600f0b61365d565b9161355a565b9091906fffffffffffffffffffffffffffffffff83549160031b928116831b921b1916179055565b610fde8461355a565b90549060031b1c600f0b6136b5565b80611316575b156112255773ffffffffffffffffffffffffffffffffffffffff7f000000000000000000000000000000000000000000000000000000000000000016803b156112215786809160248c60405194859384927f2e1a7d4d00000000000000000000000000000000000000000000000000000000845260048401525af18015611216579087916111fd575b508080808c855af13d156111f8573d61109481612e7c565b906110a26040519283612e3b565b81528760203d92013e5b1561119a5773ffffffffffffffffffffffffffffffffffffffff60a0917f6950339c7661cca450281e53722525cc136590e622b011d5be7e4c4993685a6c935b6110f6818b612ff6565b83604051971687528b60208801528c6040880152606087015260808601521692a460017f9b779b17422d0df92223018b32b4d1fa46e071723d6817e2486d003becc55f00554780158015611169575b50505061043b90604051938493846040919493926060820195825260208201520152565b8280809381938290611191575b3390f115611185578080611145565b604051903d90823e3d90fd5b506108fc611176565b60646040517f08c379a000000000000000000000000000000000000000000000000000000000815260206004820152601460248201527f7265636569766572206e6f742070617961626c650000000000000000000000006044820152fd5b6110ac565b8161120791612e3b565b61121257855f61107c565b8580fd5b6040513d89823e3d90fd5b8680fd5b906040517fa9059cbb00000000000000000000000000000000000000000000000000000000875273ffffffffffffffffffffffffffffffffffffffff831660045289602452602087604481808a5af19060018851148216156112f5575b604052156112c95773ffffffffffffffffffffffffffffffffffffffff7f6950339c7661cca450281e53722525cc136590e622b011d5be7e4c4993685a6c9260a0926110ec565b602486867f5274afe7000000000000000000000000000000000000000000000000000000008252600452fd5b90600181151661130d57863b15153d15161690611282565b503d87823e3d90fd5b5073ffffffffffffffffffffffffffffffffffffffff7f0000000000000000000000000000000000000000000000000000000000000000168514610ff3565b60646040517f08c379a000000000000000000000000000000000000000000000000000000000815260206004820152601460248201527f4c4d53523a20616d6f756e744f7574203c3d20300000000000000000000000006044820152fd5b60646040517f08c379a000000000000000000000000000000000000000000000000000000000815260206004820152601360248201527f4c4d53523a20616d6f756e74496e203c3d2030000000000000000000000000006044820152fd5b610f5b929a50610f07620f424061142f610f649694610f4694613003565b049b8c611442575b93505050918e610ec6565b6114958d6114616114528a612f59565b91909283548360031b1c612fbc565b907fffffffffffffffffffffffffffffffffffffffffffffffffffffffffffffffff83549160031b92831b921b1916179055565b611437565b50801515610ec1565b6114ae8b8092612e3b565b6114b8575f610e30565b8980fd5b6040513d8d823e3d90fd5b8a80fd5b506040517f23b872dd000000000000000000000000000000000000000000000000000000008b5273ffffffffffffffffffffffffffffffffffffffff8816600452306024528160445260208b606481808d5af19060018c5114821615611578575b6040528a6060521561154c57918b9c9391610e94610e729d979694610e41565b60248a897f5274afe7000000000000000000000000000000000000000000000000000000008252600452fd5b90600181151661159057893b15153d1516169061152c565b503d8b823e3d90fd5b5081341015610de8565b9e9f96949e7c0100000000000000000000000000000000000000000000000000000000909998969499145f146118375750506117b35773ffffffffffffffffffffffffffffffffffffffff7f0000000000000000000000000000000000000000000000000000000000000000169b8c8914806117a9575b1561169657869c803b1561071e575f906004604051809a81937fd0e30db00000000000000000000000000000000000000000000000000000000083525af1801561168b578e978e91611674575b50610e72610e9491610e44565b611681919c505f90612e3b565b5f9a610e72611667565b6040513d5f823e3d90fd5b959b506040517f70a082310000000000000000000000000000000000000000000000000000000081523060048201526020816024818c5afa801561168b575f90611775575b61170291506116fc6116ec89612f41565b90549060031b1c610e608a612f59565b90612ff6565b9b8c10611717578c95610e94610e728e610e44565b60646040517f08c379a000000000000000000000000000000000000000000000000000000000815260206004820152601e60248201527f496e73756666696369656e742070726566756e64696e6720616d6f756e7400006044820152fd5b506020813d6020116117a1575b8161178f60209383612e3b565b8101031261071e5761170290516116db565b3d9150611782565b508634101561161a565b60846040517f08c379a000000000000000000000000000000000000000000000000000000000815260206004820152602c60248201527f50726566756e64696e672063616e6e6f7420626520757365642077697468206160448201527f206c696d697420707269636500000000000000000000000000000000000000006064820152fd5b6040517f70a08231000000000000000000000000000000000000000000000000000000008152306004820152989e98919250906020816024818e5afa91821561168b578f8c925f946119e8575b50906118c16118f394956118ed936006549560405196879560208701526024860152604485015260648401526080608484015260a4830190612d44565b037fffffffffffffffffffffffffffffffffffffffffffffffffffffffffffffffe08101835282612e3b565b89613977565b50604051907f70a082310000000000000000000000000000000000000000000000000000000082523060048301526020826024818d5afa801561168b575f906119b4575b6119419250612ff6565b9b8c10611956578c95610e94610e728e610e44565b60646040517f08c379a000000000000000000000000000000000000000000000000000000000815260206004820152601260248201527f496e73756666696369656e742066756e647300000000000000000000000000006044820152fd5b506020823d6020116119e0575b816119ce60209383612e3b565b8101031261071e576119419151611937565b3d91506119c1565b92505091506020813d602011611a1b575b81611a0660209383612e3b565b8101031261071e5751908a908f6118c1611884565b3d91506119f9565b60646040517f08c379a000000000000000000000000000000000000000000000000000000000815260206004820152601760248201527f737761703a20646561646c696e652065786365656465640000000000000000006044820152fd5b90504211155f610d03565b60646040517f08c379a000000000000000000000000000000000000000000000000000000000815260206004820152600660248201527f6b696c6c656400000000000000000000000000000000000000000000000000006044820152fd5b7f3ee5aeb5000000000000000000000000000000000000000000000000000000005f5260045ffd5b3461071e575f7ffffffffffffffffffffffffffffffffffffffffffffffffffffffffffffffffc36011261071e57604051806020600c5492838152018092600c5f527fdf6966c971051c3d54ec59162606531493a51404a002842f56009d7e5cf4a8c7905f5b818110611be65750505081611b8e910382612e3b565b604051918291602083019060208452518091526040830191905f5b818110611bb7575050500390f35b825173ffffffffffffffffffffffffffffffffffffffff16845285945060209384019390920191600101611ba9565b825473ffffffffffffffffffffffffffffffffffffffff16845260209093019260019283019201611b78565b60407ffffffffffffffffffffffffffffffffffffffffffffffffffffffffffffffffc36011261071e576106fe611c47612d87565b73ffffffffffffffffffffffffffffffffffffffff604051917fc5eabfb900000000000000000000000000000000000000000000000000000000602084015216602482015260243560448201527f0000000000000000000000000000000000000000000000000000000000000000600f0b60648201526064815261057e608482612e3b565b3461071e575f7ffffffffffffffffffffffffffffffffffffffffffffffffffffffffffffffffc36011261071e5760206040517f0000000000000000000000000000000000000000000000000000000000000000600f0b8152f35b3461071e5760207ffffffffffffffffffffffffffffffffffffffffffffffffffffffffffffffffc36011261071e5773ffffffffffffffffffffffffffffffffffffffff611d73612d87565b611d7b6131d7565b167fffffffffffffffffffffffff000000000000000000000000000000000000000060115416176011555f80f35b3461071e575f7ffffffffffffffffffffffffffffffffffffffffffffffffffffffffffffffffc36011261071e5760206040517f00000000000000000000000000000000000000000000000000000000000000008152f35b3461071e5760a07ffffffffffffffffffffffffffffffffffffffffffffffffffffffffffffffffc36011261071e57611e38612d87565b611e40612daa565b9060843580151580910361071e5773ffffffffffffffffffffffffffffffffffffffff611ec29381604051947f6863f5bc0000000000000000000000000000000000000000000000000000000060208701521660248501521660448301526044356064830152606435608483015260a482015260a4815261057e60c482612e3b565b805181019060208181840193031261071e5760208101519067ffffffffffffffff821161071e57019080603f8301121561071e5760208201519167ffffffffffffffff8311611f5f578260051b9060405193611f216020840186612e3b565b8452602080808601938301010192831161071e57604001905b828210611f4f576040518061043b8682612d0b565b8151815260209182019101611f3a565b7f4e487b71000000000000000000000000000000000000000000000000000000005f52604160045260245ffd5b3461071e5760807ffffffffffffffffffffffffffffffffffffffffffffffffffffffffffffffffc36011261071e5760043573ffffffffffffffffffffffffffffffffffffffff811680910361071e57611fe4612daa565b60643567ffffffffffffffff811161071e573660238201121561071e5780600401359067ffffffffffffffff821161071e57366024838301011161071e5761213d937fffffffffffffffffffffffffffffffffffffffffffffffffffffffffffffffe0601f846107fb9560246101049673ffffffffffffffffffffffffffffffffffffffff6040519a8b987fe49cd4750000000000000000000000000000000000000000000000000000000060208b0152848a0152166044880152604435606488015260c060848801528260e488015201868601375f8582860101527f000000000000000000000000000000000000000000000000000000000000000060a48501527f000000000000000000000000000000000000000000000000000000000000000060c48501520116810103017fffffffffffffffffffffffffffffffffffffffffffffffffffffffffffffffe08101835282612e3b565b60208180518101031261071e576020015180151580910361071e57602090604051908152f35b3461071e5760c07ffffffffffffffffffffffffffffffffffffffffffffffffffffffffffffffffc36011261071e5761219a612d87565b6121a2612daa565b906064359160a43580151580910361071e578373ffffffffffffffffffffffffffffffffffffffff6121d66122659661332d565b9381604051967f8d01fa440000000000000000000000000000000000000000000000000000000060208901521660248701521660448501526044356064850152608484015260843560a484015260c483015260e48201527f0000000000000000000000000000000000000000000000000000000000000000610104820152610104815261057e61012482612e3b565b60408180518101031261071e5780604060208193015191015182519182526020820152f35b3461071e575f7ffffffffffffffffffffffffffffffffffffffffffffffffffffffffffffffffc36011261071e57606060206040516122c881612e1f565b5f815201526040516122d981612e1f565b600a54600f0b815260405190600b548083528260208101600b5f5260205f20925f905b8060018301106123ab57612325945491818110612397575b10612386575b509392930382612e3b565b6020820190815260405191829160208352606083019151600f0b6020840152519060408084015281518091526020608084019201905f5b81811061236a575050500390f35b8251600f0b84528594506020938401939092019160010161235c565b60801d600f0b81526020018561231a565b92602060019184600f0b8152019301612314565b9160029193506040600191865480600f0b825260801d600f0b60208201520194019201859293916122fc565b6101207ffffffffffffffffffffffffffffffffffffffffffffffffffffffffffffffffc36011261071e5761240a612d87565b612412612df0565b9061241b612dcd565b60643560843560a43580600f0b80910361071e5760e4359182151580930361071e576101043567ffffffffffffffff811161071e5761245e903690600401612eb6565b936124698282613223565b9560405198899860208a017f756b160c00000000000000000000000000000000000000000000000000000000905273ffffffffffffffffffffffffffffffffffffffff1660248a01527fffffffff0000000000000000000000000000000000000000000000000000000016604489015273ffffffffffffffffffffffffffffffffffffffff166064880152608487015260a486015260c485015260c43560e485015261010484015261012483016101609052610184830161252991612d44565b906101448301527f0000000000000000000000000000000000000000000000000000000000000000610164830152037fffffffffffffffffffffffffffffffffffffffffffffffffffffffffffffffe0810182526125879082612e3b565b6125c79073ffffffffffffffffffffffffffffffffffffffff7f000000000000000000000000000000000000000000000000000000000000000016613274565b8051810160200190602001906125dc91612fa1565b60408051938452602084019290925290820152606090f35b3461071e575f7ffffffffffffffffffffffffffffffffffffffffffffffffffffffffffffffffc36011261071e5761262a6131d7565b60095460ff81161561263857005b7fffffffffffffffffffffffffffffffffffffffffffffffffffffffffffffff00166001176009557f0f8eeedbc400fd6686703559f58d1e6143fdaed533f19a86c93d67a2fe4fb3315f80a1005b3461071e575f7ffffffffffffffffffffffffffffffffffffffffffffffffffffffffffffffffc36011261071e5760206040517f00000000000000000000000000000000000000000000000000000000000000008152f35b3461071e575f7ffffffffffffffffffffffffffffffffffffffffffffffffffffffffffffffffc36011261071e57602060405160128152f35b3461071e5760607ffffffffffffffffffffffffffffffffffffffffffffffffffffffffffffffffc36011261071e5761274e612d87565b612756612daa565b6044359073ffffffffffffffffffffffffffffffffffffffff831692835f52600260205260405f2073ffffffffffffffffffffffffffffffffffffffff33165f5260205260405f20547fffffffffffffffffffffffffffffffffffffffffffffffffffffffffffffffff81106127d2575b5061076793506130b2565b83811061287757841561284b57331561281f57610767945f52600260205260405f2073ffffffffffffffffffffffffffffffffffffffff33165f526020528360405f2091039055846127c7565b7f94280d62000000000000000000000000000000000000000000000000000000005f525f60045260245ffd5b7fe602df05000000000000000000000000000000000000000000000000000000005f525f60045260245ffd5b83907ffb8f41b2000000000000000000000000000000000000000000000000000000005f523360045260245260445260645ffd5b3461071e575f7ffffffffffffffffffffffffffffffffffffffffffffffffffffffffffffffffc36011261071e57602060ff600954166040519015158152f35b3461071e575f7ffffffffffffffffffffffffffffffffffffffffffffffffffffffffffffffffc36011261071e576020600354604051908152f35b3461071e575f7ffffffffffffffffffffffffffffffffffffffffffffffffffffffffffffffffc36011261071e57602060405173ffffffffffffffffffffffffffffffffffffffff7f0000000000000000000000000000000000000000000000000000000000000000168152f35b3461071e5760407ffffffffffffffffffffffffffffffffffffffffffffffffffffffffffffffffc36011261071e576129cb612d87565b60243590331561284b5773ffffffffffffffffffffffffffffffffffffffff1690811561281f57335f52600260205260405f20825f526020528060405f20556040519081527f8c5be1e5ebec7d5bd14f71427d1e84f3dd0314c0f7b2291e5b200ac8c7c3b92560203392a3602060405160018152f35b3461071e575f7ffffffffffffffffffffffffffffffffffffffffffffffffffffffffffffffffc36011261071e576040515f6004548060011c90600181168015612b80575b602083108114612b5357828552908115612b115750600114612ab3575b61043b8361094f81850382612e3b565b91905060045f527f8a35acfbc15ff81a39ae7d344fd709f28e8600b4aa8c65c6b64bfe7fe36bd19b915f905b808210612af75750909150810160200161094f612aa3565b919260018160209254838588010152019101909291612adf565b7fffffffffffffffffffffffffffffffffffffffffffffffffffffffffffffff001660208086019190915291151560051b8401909101915061094f9050612aa3565b7f4e487b71000000000000000000000000000000000000000000000000000000005f52602260045260245ffd5b91607f1691612a86565b3461071e5760207ffffffffffffffffffffffffffffffffffffffffffffffffffffffffffffffffc36011261071e57602073ffffffffffffffffffffffffffffffffffffffff612bdb600435612efc565b90549060031b1c16604051908152f35b3461071e575f7ffffffffffffffffffffffffffffffffffffffffffffffffffffffffffffffffc36011261071e57604051806020600e54918281520190600e5f527fbb7b4a454dc3493923482f07822329ed19e8244eff582cc204f8554c3620c3fd905f5b818110612c675761043b856108b881870382612e3b565b8254845260209093019260019283019201612c50565b3461071e575f7ffffffffffffffffffffffffffffffffffffffffffffffffffffffffffffffffc36011261071e57600d548082526020820190600d5f527fd7b6990105719101dabeb77144f2a3385c8033acd3af97e9423a695e81ad1eb5905f5b818110612cf55761043b856108b881870382612e3b565b8254845260209093019260019283019201612cde565b60206040818301928281528451809452019201905f5b818110612d2e5750505090565b8251845260209384019390920191600101612d21565b907fffffffffffffffffffffffffffffffffffffffffffffffffffffffffffffffe0601f602080948051918291828752018686015e5f8582860101520116010190565b6004359073ffffffffffffffffffffffffffffffffffffffff8216820361071e57565b6024359073ffffffffffffffffffffffffffffffffffffffff8216820361071e57565b6044359073ffffffffffffffffffffffffffffffffffffffff8216820361071e57565b602435907fffffffff000000000000000000000000000000000000000000000000000000008216820361071e57565b6040810190811067ffffffffffffffff821117611f5f57604052565b90601f7fffffffffffffffffffffffffffffffffffffffffffffffffffffffffffffffe0910116810190811067ffffffffffffffff821117611f5f57604052565b67ffffffffffffffff8111611f5f57601f017fffffffffffffffffffffffffffffffffffffffffffffffffffffffffffffffe01660200190565b81601f8201121561071e57803590612ecd82612e7c565b92612edb6040519485612e3b565b8284526020838301011161071e57815f926020809301838601378301015290565b600c54811015612f1457600c5f5260205f2001905f90565b7f4e487b71000000000000000000000000000000000000000000000000000000005f52603260045260245ffd5b601054811015612f145760105f5260205f2001905f90565b600d54811015612f1457600d5f5260205f2001905f90565b600754811015612f145760075f5260205f2001905f90565b600e54811015612f1457600e5f5260205f2001905f90565b9081606091031261071e578051916040602083015192015190565b91908201809211612fc957565b7f4e487b71000000000000000000000000000000000000000000000000000000005f52601160045260245ffd5b91908203918211612fc957565b81810292918115918404141715612fc957565b8115613020570490565b7f4e487b71000000000000000000000000000000000000000000000000000000005f52601260045260245ffd5b1561305457565b60646040517f08c379a000000000000000000000000000000000000000000000000000000000815260206004820152601760248201527f62616c616e6365203c2070726f746f636f6c206f7765640000000000000000006044820152fd5b73ffffffffffffffffffffffffffffffffffffffff169081156131ab5773ffffffffffffffffffffffffffffffffffffffff1691821561317f57815f52600160205260405f205481811061314d57817fddf252ad1be2c89b69c2b068fc378daa952ba7f163c4a11628f55a4df523b3ef92602092855f52600184520360405f2055845f526001825260405f20818154019055604051908152a3565b827fe450d38c000000000000000000000000000000000000000000000000000000005f5260045260245260445260645ffd5b7fec442f05000000000000000000000000000000000000000000000000000000005f525f60045260245ffd5b7f96c6fd1e000000000000000000000000000000000000000000000000000000005f525f60045260245ffd5b73ffffffffffffffffffffffffffffffffffffffff5f541633036131f757565b7f118cdaa7000000000000000000000000000000000000000000000000000000005f523360045260245ffd5b9190826103e8026103e881048403612fc9578161323f91612fbc565b90815f52600860205260405f205493841561325957505050565b61326492945061359a565b915f5260086020528160405f2055565b905f8091602081519101845af4808061331a575b1561329a5750506132976135b7565b90565b156132e15773ffffffffffffffffffffffffffffffffffffffff907f9996b315000000000000000000000000000000000000000000000000000000005f521660045260245ffd5b3d156132f2576040513d5f823e3d90fd5b7fd6bda275000000000000000000000000000000000000000000000000000000005f5260045ffd5b503d1515806132885750813b1515613288565b600754156133485761333e90612f71565b90549060031b1c90565b505f90565b9294939491909161337961336187846135d0565b905061336c86612f89565b90549060031b1c906136f2565b5f81600f0b13156134fc5790600a54600f0b918486604051600b54958682526020820196600b5f5260205f20905f915b8160018401106134cc57986133d69285926133db9b54918181106134b8575b106134a7575b500383612e3b565b6139ae565b9190926133fa83946133ed8197612f89565b90549060031b1c906135f2565b925f92849880613486575b5088116134285761341861342592612f89565b90549060031b1c9061391c565b94565b60646040517f08c379a000000000000000000000000000000000000000000000000000000000815260206004820152601a60248201527f737761703a207472616e736665722065786365656473206d61780000000000006044820152fd5b90985061349591935084613624565b916134a08385612fbc565b975f613405565b60801d600f0b81526020015f6133ce565b92602060019184600f0b81520193016133c8565b8054600f81810b8c5260809190911d900b60208b01526040909901988b96508c95506002909201916001016133a9565b60646040517f08c379a000000000000000000000000000000000000000000000000000000000815260206004820152601f60248201527f737761703a20696e70757420746f6f20736d616c6c20616674657220666565006044820152fd5b90600b54821015612f1457600b5f52600182901c7f0175b7a638427703f0dbe7bb9bbf987a2551717b34e79f33b5b1008d1fa01db9019160041b60101690565b90610e606135aa61329793612f71565b90549060031b1c91612f71565b604051903d82523d5f602084013e60203d830101604052565b919080156135ec576135e56132979184613624565b8093612ff6565b505f9190565b6136066135ff838361391c565b92836136f2565b90600f0b90600f0b126136165790565b60018101809111612fc95790565b9080156136575761363491613003565b620f4240810190818111612fc957620f423f01908111612fc957620f4240900490565b50505f90565b90600f0b90600f0b017fffffffffffffffffffffffffffffffff800000000000000000000000000000008112158061369b575b1561071e57600f0b90565b506f7fffffffffffffffffffffffffffffff811315613690565b90600f0b90600f0b037fffffffffffffffffffffffffffffffff800000000000000000000000000000008112158061369b571561071e57600f0b90565b811561071e5777ffffffffffffffffffffffffffffffffffffffffffffffff811161376a57906137249160401b613016565b6fffffffffffffffffffffffffffffffff811161071e576fffffffffffffffffffffffffffffffff166f7fffffffffffffffffffffffffffffff811161071e57600f0b90565b60c09181831c809364010000000082101561390f575b6002826201000061380d941015613903575b6101008110156138f7575b60108110156138eb575b60048110156138e0575b10156138d8575b8360017fffffffffffffffffffffffffffffffffffffffffffffffffffffffffffffffff85017fffffffffffffffffffffffffffffffffffffffffffffffffffffffffffffff4184011c019160ff031b613016565b926fffffffffffffffffffffffffffffffff841161071e578160801c8402906fffffffffffffffffffffffffffffffff8316850290809460401b908282106138ae575b5003928160801b91828510613885575b60801c0361387a576138729203613016565b905b01613724565b505050600190613874565b907fffffffffffffffffffffffffffffffffffffffffffffffffffffffffffffffff0190613860565b7fffffffffffffffffffffffffffffffffffffffffffffffffffffffffffffffff0194505f613850565b6001016137b8565b91810191811c6137b1565b6004928301921c6137a7565b6008928301921c61379d565b6010928301921c613792565b505060e082811c90613780565b811561365757600f0b5f811261071e576fffffffffffffffffffffffffffffffff8216810260401c9160801c0277ffffffffffffffffffffffffffffffffffffffffffffffff811161071e5760401b8119811161071e570190565b905f809160208151910182855af1808061331a571561329a5750506132976135b7565b8051821015612f145760209160051b010190565b955f959194939092849290875b87518910156139e6576139de6001916139d48b8b61399a565b51600f0b9061365d565b9801976139bb565b909294975097909294975f81600f0b1315613e2457613a0491613e82565b9384600f0b801561071e5770010000000000000000000000000000000005917fffffffffffffffffffffffffffffffff8000000000000000000000000000000083121580613e0a575b1561071e57613a89613a8e91613a84613a6c95600f0b9586928b61399a565b51600f0b613a7a898c61399a565b51600f0b906136b5565b613e82565b613ec2565b9280600f0b905f8213613c7a575b505090613aa891613e82565b80600f0b682000000000000000008113613bf6577fffffffffffffffffffffffffffffffff800000000000000000000000000000001461071e57613af0905f03600f0b613ec2565b600f0b6801000000000000000003907fffffffffffffffffffffffffffffffff8000000000000000000000000000000082121580613bdc575b1561071e57613b3b91600f0b90613e82565b600f0b68010000000000000000017fffffffffffffffffffffffffffffffff8000000000000000000000000000000081121580613bc2575b1561071e57600f0b925f841315613bae575050613b92613b9892613f1f565b90613e82565b905f82600f0b1315613ba657565b5f9250829150565b909150613bbb925061399a565b51600f0b90565b506f7fffffffffffffffffffffffffffffff811315613b73565b506f7fffffffffffffffffffffffffffffff821315613b29565b60846040517f08c379a000000000000000000000000000000000000000000000000000000000815260206004820152602860248201527f4c4d53523a20612f6220746f6f206c617267652028776f756c64206f7665726660448201527f6c6f7720657870290000000000000000000000000000000000000000000000006064820152fd5b84600f9a939a0b80921315613d8657811561071e5760401b60170b057fffffffffffffffffffffffffffffffff8000000000000000000000000000000081121580613d6c575b1561071e57600f0b5f811315613d0e57613cdc613ce291613f1f565b86613e82565b9780600f0b89600f0b125f14613d02575050613aa890875b90915f613a9c565b613aa892919850613cfa565b60646040517f08c379a000000000000000000000000000000000000000000000000000000000815260206004820152600e60248201527f4c4d53523a20726174696f3c3d300000000000000000000000000000000000006044820152fd5b506f7fffffffffffffffffffffffffffffff811315613cc0565b60846040517f08c379a000000000000000000000000000000000000000000000000000000000815260206004820152602160248201527f4c4d53523a206c696d69745072696365203c3d2063757272656e74207072696360448201527f65000000000000000000000000000000000000000000000000000000000000006064820152fd5b506f7fffffffffffffffffffffffffffffff831315613a4d565b60646040517f08c379a000000000000000000000000000000000000000000000000000000000815260206004820152601660248201527f4c4d53523a2073697a65206d6574726963207a65726f000000000000000000006044820152fd5b90600f0b90600f0b0260401d7fffffffffffffffffffffffffffffffff800000000000000000000000000000008112158061369b571561071e57600f0b90565b600f0b6840000000000000000081121561071e577fffffffffffffffffffffffffffffffffffffffffffffffc00000000000000000811261334857700171547652b82fe1777d0ffda0d23a7d12613297910260801d600f0b61404c565b600f0b5f81131561071e575f90806801000000000000000082121561403f575b806401000000006002921215614033575b62010000811215614027575b61010081121561401b575b601081121561400f575b6004811215614004575b1215613ffa575b7fffffffffffffffffffffffffffffffffffffffffffffffffffffffffffffffc0820160401b91607f031b90678000000000000000915b5f8313613fde57506fb17217f7d1cf79abc9e3b39803f2f6af9150600f0b0260801d90565b8002908160ff1c9182607f011c918302019160011d9190613fb9565b9060010190613f82565b92810192811d613f7b565b6004938401931d613f71565b6008938401931d613f67565b6010938401931d613f5c565b6020938401931d613f50565b506040915080821d613f3f565b80600f0b6840000000000000000081121561071e577fffffffffffffffffffffffffffffffffffffffffffffffc000000000000000008112613657576f80000000000000000000000000000000915f6780000000000000008216600f0b13614c48575b5f6740000000000000008216600f0b13614c2b575b5f6720000000000000008216600f0b13614c0e575b5f6710000000000000008216600f0b13614bf1575b5f6708000000000000008216600f0b13614bd4575b5f6704000000000000008216600f0b13614bb7575b5f6702000000000000008216600f0b13614b9a575b5f6701000000000000008216600f0b13614b7d575b5f66800000000000008216600f0b13614b60575b5f66400000000000008216600f0b13614b43575b5f66200000000000008216600f0b13614b26575b5f66100000000000008216600f0b13614b09575b5f66080000000000008216600f0b13614aec575b5f66040000000000008216600f0b13614acf575b5f66020000000000008216600f0b13614ab2575b5f66010000000000008216600f0b13614a95575b5f658000000000008216600f0b13614a78575b5f654000000000008216600f0b13614a5b575b5f652000000000008216600f0b13614a3e575b5f651000000000008216600f0b13614a21575b5f650800000000008216600f0b13614a04575b5f650400000000008216600f0b136149e7575b5f650200000000008216600f0b136149ca575b5f650100000000008216600f0b136149ad575b5f6480000000008216600f0b13614990575b5f6440000000008216600f0b13614973575b5f6420000000008216600f0b13614956575b5f6410000000008216600f0b13614939575b5f6408000000008216600f0b1361491c575b5f6404000000008216600f0b136148ff575b5f6402000000008216600f0b136148e2575b5f6401000000008216600f0b136148c5575b5f63800000008216600f0b136148a8575b5f63400000008216600f0b1361488b575b5f63200000008216600f0b1361486e575b5f63100000008216600f0b13614851575b5f63080000008216600f0b13614834575b5f63040000008216600f0b13614817575b5f63020000008216600f0b136147fa575b5f63010000008216600f0b136147dd575b5f628000008216600f0b136147c0575b5f624000008216600f0b136147a3575b5f622000008216600f0b13614786575b5f621000008216600f0b13614769575b5f620800008216600f0b1361474c575b5f620400008216600f0b1361472f575b5f620200008216600f0b13614712575b5f620100008216600f0b136146f5575b5f6180008216600f0b136146d8575b5f6140008216600f0b136146bb575b5f6120008216600f0b1361469e575b5f6110008216600f0b13614681575b5f6108008216600f0b13614664575b5f6104008216600f0b13614647575b5f6102008216600f0b1361462a575b5f6101008216600f0b1361460d575b5f60808216600f0b136145f0575b5f60408216600f0b136145d3575b5f60208216600f0b136145b6575b5f60108216600f0b13614599575b5f60088216600f0b1361457c575b5f60048216600f0b1361455f575b5f60028216600f0b13614541575b60015f9116600f0b13614524575b60401d600f0b603f03600f0b1c6f7fffffffffffffffffffffffffffffff811161071e57600f0b90565b9070010000000000000000b17217f7d1cf79ab0260801c906144fa565b7001000000000000000162e42fefa39ef35890920260801c916144ec565b9170010000000000000002c5c85fdf473de6b20260801c916144de565b91700100000000000000058b90bfbe8e7bcd6d0260801c916144d0565b917001000000000000000b17217f7d1cf79afa0260801c916144c2565b91700100000000000000162e42fefa39ef366f0260801c916144b4565b917001000000000000002c5c85fdf473de6eca0260801c916144a6565b9170010000000000000058b90bfbe8e7bce5440260801c91614498565b91700100000000000000b17217f7d1cf79e9490260801c9161448a565b9170010000000000000162e42fefa39ef44d910260801c9161447b565b91700100000000000002c5c85fdf473dea871f0260801c9161446c565b917001000000000000058b90bfbe8e7bdcbe2e0260801c9161445d565b9170010000000000000b17217f7d1cf7d83c1a0260801c9161444e565b917001000000000000162e42fefa39f02b772c0260801c9161443f565b9170010000000000002c5c85fdf473e242ea380260801c91614430565b91700100000000000058b90bfbe8e7cc35c3f00260801c91614421565b917001000000000000b17217f7d1cfb72b45e10260801c91614412565b91700100000000000162e42fefa39fe95583c20260801c91614402565b917001000000000002c5c85fdf4741bea6e77e0260801c916143f2565b9170010000000000058b90bfbe8e8b2d3d4ede0260801c916143e2565b91700100000000000b17217f7d1d351a389d400260801c916143d2565b9170010000000000162e42fefa3ae53369388c0260801c916143c2565b91700100000000002c5c85fdf477b662b269450260801c916143b2565b917001000000000058b90bfbe8f71cb4e4b33d0260801c916143a2565b9170010000000000b17217f7d20cf927c8e94c0260801c91614392565b917001000000000162e42fefa494f1478fde050260801c91614381565b9170010000000002c5c85fdf4b15de6f17eb0d0260801c91614370565b91700100000000058b90bfbe9ddbac5e109cce0260801c9161435f565b917001000000000b17217f7d5a7716bba4a9ae0260801c9161434e565b91700100000000162e42fefb2fed257559bdaa0260801c9161433d565b917001000000002c5c85fdf84bd62ae30a74cc0260801c9161432c565b9170010000000058b90bfbf8479bd5a81b51ad0260801c9161431b565b91700100000000b17217f80f4ef5aadda455540260801c9161430a565b9170010000000162e42ff0999ce3541b9fffcf0260801c916142f8565b91700100000002c5c85fe31f35a6a30da1be500260801c916142e6565b917001000000058b90bfcdee5acd3c1cedc8230260801c916142d4565b9170010000000b17217fba9c739aa5819f44f90260801c916142c2565b917001000000162e42fff037df38aa2b219f060260801c916142b0565b9170010000002c5c8601cc6b9e94213c72737a0260801c9161429e565b91700100000058b90c0b48c6be5df846c5b2ef0260801c9161428c565b917001000000b1721835514b86e6d96efd1bfe0260801c9161427a565b91700100000162e430e5a18f6119e3c02282a50260801c91614267565b917001000002c5c863b73f016468f6bac5ca2b0260801c91614254565b9170010000058b90cf1e6d97f9ca14dbcc16280260801c91614241565b91700100000b1721bcfc99d9f890ea069117630260801c9161422e565b9170010000162e43f4f831060e02d839a9d16d0260801c9161421b565b91700100002c5c89d5ec6ca4d7c8acc017b7c90260801c91614208565b917001000058b91b5bc9ae2eed81e9b7d4cfab0260801c916141f5565b9170010000b17255775c040618bf4a4ade83fc0260801c916141e2565b917001000162e525ee054754457d59952920260260801c916141ce565b9170010002c5cc37da9491d0985c348c68e7b30260801c916141ba565b91700100058ba01fb9f96d6cacd4b180917c3d0260801c916141a6565b917001000b175effdc76ba38e31671ca9397250260801c91614192565b91700100162f3904051fa128bca9c55c31e5df0260801c9161417e565b917001002c605e2e8cec506d21bfc89a23a00f0260801c9161416a565b9170010058c86da1c09ea1ff19d294cf2f679b0260801c91614156565b91700100b1afa5abcbed6129ab13ec11dc95430260801c91614142565b9170010163da9fb33356d84a66ae336dcdfa3f0260801c9161412d565b91700102c9a3e778060ee6f7caca4f7a29bde80260801c91614118565b917001059b0d31585743ae7c548eb68ca417fd0260801c91614103565b9170010b5586cf9890f6298b92b71842a983630260801c916140ee565b917001172b83c7d517adcdf7c8c50eb14a791f0260801c916140d9565b917001306fe0a31b7152de8d5a46305c85edec0260801c916140c4565b6fb504f333f9de6484597d89b3754abe9f92506140af56fea2646970667358221220d663421beeb6739b7e5ec727b0e86a6c7516a7ceb9a022f4e9fae20ca009391f64736f6c634300081e0033","linkReferences":{}},"methodIdentifiers":{"LMSR()":"476e44b6","allProtocolFeesOwed()":"017504b6","allTokens()":"6ff97f1d","allowance(address,address)":"dd62ed3e","approve(address,uint256)":"095ea7b3","balanceOf(address)":"70a08231","burn(address,address,uint256,uint256,bool)":"6863f5bc","burnSwap(address,address,uint256,uint256,uint256,bool)":"491e7998","collectProtocolFees()":"a1af5b9a","decimals()":"313ce567","denominators()":"017cf661","fee(uint256,uint256)":"939f5ea4","fees()":"9af1d35a","flashFeePpm()":"31596a6a","flashLoan(address,address,uint256,bytes)":"5cffe9de","initialMint(address,uint256)":"6d8d0ff3","kappa()":"6bba3f2f","kill()":"41c0e1b5","killed()":"1f3a0e41","mint(address,address,uint256,uint256)":"b3f1c93d","mintImpl()":"f0d1ae4f","name()":"06fdde03","numTokens()":"8e499bcf","owner()":"8da5cb5b","protocolFeeAddress()":"cce516b7","protocolFeePpm()":"6b4082d1","renounceOwnership()":"715018a6","setProtocolFeeAddress(address)":"6b7b9112","swap(address,bytes4,address,uint256,uint256,uint256,int128,uint256,bool,bytes)":"70305452","swapAmounts(uint256,uint256,uint256,int128)":"d516b8c6","swapImpl()":"c405e442","swapMint(address,address,uint256,uint256,uint256)":"cb717f3a","swapToLimit(address,bytes4,address,uint256,uint256,int128,uint256,bool,bytes)":"4264c8bc","symbol()":"95d89b41","token(uint256)":"044215c6","totalSupply()":"18160ddd","transfer(address,uint256)":"a9059cbb","transferFrom(address,address,uint256)":"23b872dd","transferOwnership(address)":"f2fde38b","wrapperToken()":"0d246214"},"id":49}