{"abi":[{"type":"constructor","inputs":[],"stateMutability":"nonpayable"},{"type":"receive","stateMutability":"payable"},{"type":"function","name":"LMSR","inputs":[],"outputs":[{"name":"","type":"tuple","internalType":"struct LMSRStabilized.State","components":[{"name":"kappa","type":"int128","internalType":"int128"},{"name":"qInternal","type":"int128[]","internalType":"int128[]"}]}],"stateMutability":"view"},{"type":"function","name":"acceptOwnership","inputs":[],"outputs":[],"stateMutability":"nonpayable"},{"type":"function","name":"allProtocolFeesOwed","inputs":[],"outputs":[{"name":"","type":"uint256[]","internalType":"uint256[]"}],"stateMutability":"view"},{"type":"function","name":"allTokens","inputs":[],"outputs":[{"name":"","type":"address[]","internalType":"contract IERC20[]"}],"stateMutability":"view"},{"type":"function","name":"allowance","inputs":[{"name":"owner","type":"address","internalType":"address"},{"name":"spender","type":"address","internalType":"address"}],"outputs":[{"name":"","type":"uint256","internalType":"uint256"}],"stateMutability":"view"},{"type":"function","name":"approve","inputs":[{"name":"spender","type":"address","internalType":"address"},{"name":"value","type":"uint256","internalType":"uint256"}],"outputs":[{"name":"","type":"bool","internalType":"bool"}],"stateMutability":"nonpayable"},{"type":"function","name":"balanceOf","inputs":[{"name":"account","type":"address","internalType":"address"}],"outputs":[{"name":"","type":"uint256","internalType":"uint256"}],"stateMutability":"view"},{"type":"function","name":"balances","inputs":[],"outputs":[{"name":"","type":"uint256[]","internalType":"uint256[]"}],"stateMutability":"view"},{"type":"function","name":"burn","inputs":[{"name":"payer","type":"address","internalType":"address"},{"name":"receiver","type":"address","internalType":"address"},{"name":"lpAmount","type":"uint256","internalType":"uint256"},{"name":"deadline","type":"uint256","internalType":"uint256"},{"name":"unwrap","type":"bool","internalType":"bool"}],"outputs":[{"name":"withdrawAmounts","type":"uint256[]","internalType":"uint256[]"}],"stateMutability":"nonpayable"},{"type":"function","name":"burnSwap","inputs":[{"name":"payer","type":"address","internalType":"address"},{"name":"receiver","type":"address","internalType":"address"},{"name":"lpAmount","type":"uint256","internalType":"uint256"},{"name":"outputTokenIndex","type":"uint256","internalType":"uint256"},{"name":"minAmountOut","type":"uint256","internalType":"uint256"},{"name":"deadline","type":"uint256","internalType":"uint256"},{"name":"unwrap","type":"bool","internalType":"bool"}],"outputs":[{"name":"amountOut","type":"uint256","internalType":"uint256"},{"name":"outFee","type":"uint256","internalType":"uint256"}],"stateMutability":"nonpayable"},{"type":"function","name":"collectProtocolFees","inputs":[],"outputs":[],"stateMutability":"nonpayable"},{"type":"function","name":"decimals","inputs":[],"outputs":[{"name":"","type":"uint8","internalType":"uint8"}],"stateMutability":"view"},{"type":"function","name":"denominators","inputs":[],"outputs":[{"name":"","type":"uint256[]","internalType":"uint256[]"}],"stateMutability":"view"},{"type":"function","name":"fees","inputs":[],"outputs":[{"name":"","type":"uint256[]","internalType":"uint256[]"}],"stateMutability":"view"},{"type":"function","name":"flashFeePpm","inputs":[],"outputs":[{"name":"","type":"uint256","internalType":"uint256"}],"stateMutability":"view"},{"type":"function","name":"flashLoan","inputs":[{"name":"receiver","type":"address","internalType":"contract IERC3156FlashBorrower"},{"name":"tokenAddr","type":"address","internalType":"address"},{"name":"amount","type":"uint256","internalType":"uint256"},{"name":"data","type":"bytes","internalType":"bytes"}],"outputs":[{"name":"","type":"bool","internalType":"bool"}],"stateMutability":"nonpayable"},{"type":"function","name":"initialMint","inputs":[{"name":"receiver","type":"address","internalType":"address"},{"name":"lpTokens","type":"uint256","internalType":"uint256"}],"outputs":[{"name":"lpMinted","type":"uint256","internalType":"uint256"}],"stateMutability":"payable"},{"type":"function","name":"kill","inputs":[],"outputs":[],"stateMutability":"nonpayable"},{"type":"function","name":"killed","inputs":[],"outputs":[{"name":"","type":"bool","internalType":"bool"}],"stateMutability":"view"},{"type":"function","name":"mint","inputs":[{"name":"payer","type":"address","internalType":"address"},{"name":"fundingSelector","type":"bytes4","internalType":"bytes4"},{"name":"receiver","type":"address","internalType":"address"},{"name":"lpTokenAmount","type":"uint256","internalType":"uint256"},{"name":"deadline","type":"uint256","internalType":"uint256"},{"name":"cbData","type":"bytes","internalType":"bytes"}],"outputs":[{"name":"lpMinted","type":"uint256","internalType":"uint256"}],"stateMutability":"payable"},{"type":"function","name":"name","inputs":[],"outputs":[{"name":"","type":"string","internalType":"string"}],"stateMutability":"view"},{"type":"function","name":"numTokens","inputs":[],"outputs":[{"name":"","type":"uint256","internalType":"uint256"}],"stateMutability":"view"},{"type":"function","name":"owner","inputs":[],"outputs":[{"name":"","type":"address","internalType":"address"}],"stateMutability":"view"},{"type":"function","name":"pendingOwner","inputs":[],"outputs":[{"name":"","type":"address","internalType":"address"}],"stateMutability":"view"},{"type":"function","name":"protocolFeeAddress","inputs":[],"outputs":[{"name":"","type":"address","internalType":"address"}],"stateMutability":"view"},{"type":"function","name":"protocolFeePpm","inputs":[],"outputs":[{"name":"","type":"uint256","internalType":"uint256"}],"stateMutability":"view"},{"type":"function","name":"setProtocolFeeAddress","inputs":[{"name":"feeAddress","type":"address","internalType":"address"}],"outputs":[],"stateMutability":"nonpayable"},{"type":"function","name":"swap","inputs":[{"name":"payer","type":"address","internalType":"address"},{"name":"fundingSelector","type":"bytes4","internalType":"bytes4"},{"name":"receiver","type":"address","internalType":"address"},{"name":"inputTokenIndex","type":"uint256","internalType":"uint256"},{"name":"outputTokenIndex","type":"uint256","internalType":"uint256"},{"name":"maxAmountIn","type":"uint256","internalType":"uint256"},{"name":"minAmountOut","type":"uint256","internalType":"uint256"},{"name":"deadline","type":"uint256","internalType":"uint256"},{"name":"unwrap","type":"bool","internalType":"bool"},{"name":"cbData","type":"bytes","internalType":"bytes"}],"outputs":[{"name":"amountIn","type":"uint256","internalType":"uint256"},{"name":"amountOut","type":"uint256","internalType":"uint256"},{"name":"inFee","type":"uint256","internalType":"uint256"}],"stateMutability":"payable"},{"type":"function","name":"swapMint","inputs":[{"name":"payer","type":"address","internalType":"address"},{"name":"fundingSelector","type":"bytes4","internalType":"bytes4"},{"name":"receiver","type":"address","internalType":"address"},{"name":"inputTokenIndex","type":"uint256","internalType":"uint256"},{"name":"lpAmountOut","type":"uint256","internalType":"uint256"},{"name":"maxAmountIn","type":"uint256","internalType":"uint256"},{"name":"deadline","type":"uint256","internalType":"uint256"},{"name":"cbData","type":"bytes","internalType":"bytes"}],"outputs":[{"name":"amountInUsed","type":"uint256","internalType":"uint256"},{"name":"lpMinted","type":"uint256","internalType":"uint256"},{"name":"inFee","type":"uint256","internalType":"uint256"}],"stateMutability":"payable"},{"type":"function","name":"symbol","inputs":[],"outputs":[{"name":"","type":"string","internalType":"string"}],"stateMutability":"view"},{"type":"function","name":"token","inputs":[{"name":"i","type":"uint256","internalType":"uint256"}],"outputs":[{"name":"","type":"address","internalType":"contract IERC20"}],"stateMutability":"view"},{"type":"function","name":"totalSupply","inputs":[],"outputs":[{"name":"","type":"uint256","internalType":"uint256"}],"stateMutability":"view"},{"type":"function","name":"transfer","inputs":[{"name":"to","type":"address","internalType":"address"},{"name":"value","type":"uint256","internalType":"uint256"}],"outputs":[{"name":"","type":"bool","internalType":"bool"}],"stateMutability":"nonpayable"},{"type":"function","name":"transferFrom","inputs":[{"name":"from","type":"address","internalType":"address"},{"name":"to","type":"address","internalType":"address"},{"name":"value","type":"uint256","internalType":"uint256"}],"outputs":[{"name":"","type":"bool","internalType":"bool"}],"stateMutability":"nonpayable"},{"type":"function","name":"transferOwnership","inputs":[{"name":"newOwner","type":"address","internalType":"address"}],"outputs":[],"stateMutability":"nonpayable"},{"type":"function","name":"wrapperToken","inputs":[],"outputs":[{"name":"","type":"address","internalType":"contract NativeWrapper"}],"stateMutability":"view"},{"type":"event","name":"Approval","inputs":[{"name":"owner","type":"address","indexed":true,"internalType":"address"},{"name":"spender","type":"address","indexed":true,"internalType":"address"},{"name":"value","type":"uint256","indexed":false,"internalType":"uint256"}],"anonymous":false},{"type":"event","name":"Burn","inputs":[{"name":"payer","type":"address","indexed":false,"internalType":"address"},{"name":"receiver","type":"address","indexed":true,"internalType":"address"},{"name":"amounts","type":"uint256[]","indexed":false,"internalType":"uint256[]"},{"name":"lpBurned","type":"uint256","indexed":false,"internalType":"uint256"}],"anonymous":false},{"type":"event","name":"BurnSwap","inputs":[{"name":"payer","type":"address","indexed":true,"internalType":"address"},{"name":"receiver","type":"address","indexed":true,"internalType":"address"},{"name":"tokenOut","type":"address","indexed":true,"internalType":"contract IERC20"},{"name":"amountIn","type":"uint256","indexed":false,"internalType":"uint256"},{"name":"amountOut","type":"uint256","indexed":false,"internalType":"uint256"},{"name":"lpFee","type":"uint256","indexed":false,"internalType":"uint256"},{"name":"protocolFee","type":"uint256","indexed":false,"internalType":"uint256"}],"anonymous":false},{"type":"event","name":"Flash","inputs":[{"name":"initiator","type":"address","indexed":true,"internalType":"address"},{"name":"receiver","type":"address","indexed":true,"internalType":"contract IERC3156FlashBorrower"},{"name":"token","type":"address","indexed":true,"internalType":"contract IERC20"},{"name":"amount","type":"uint256","indexed":false,"internalType":"uint256"},{"name":"lpFee","type":"uint256","indexed":false,"internalType":"uint256"},{"name":"protocolFee","type":"uint256","indexed":false,"internalType":"uint256"}],"anonymous":false},{"type":"event","name":"Killed","inputs":[],"anonymous":false},{"type":"event","name":"Mint","inputs":[{"name":"payer","type":"address","indexed":false,"internalType":"address"},{"name":"receiver","type":"address","indexed":true,"internalType":"address"},{"name":"amounts","type":"uint256[]","indexed":false,"internalType":"uint256[]"},{"name":"lpMinted","type":"uint256","indexed":false,"internalType":"uint256"}],"anonymous":false},{"type":"event","name":"OwnershipTransferStarted","inputs":[{"name":"previousOwner","type":"address","indexed":true,"internalType":"address"},{"name":"newOwner","type":"address","indexed":true,"internalType":"address"}],"anonymous":false},{"type":"event","name":"OwnershipTransferred","inputs":[{"name":"previousOwner","type":"address","indexed":true,"internalType":"address"},{"name":"newOwner","type":"address","indexed":true,"internalType":"address"}],"anonymous":false},{"type":"event","name":"ProtocolFeesCollected","inputs":[],"anonymous":false},{"type":"event","name":"Swap","inputs":[{"name":"payer","type":"address","indexed":false,"internalType":"address"},{"name":"receiver","type":"address","indexed":true,"internalType":"address"},{"name":"tokenIn","type":"address","indexed":true,"internalType":"contract IERC20"},{"name":"tokenOut","type":"address","indexed":true,"internalType":"contract IERC20"},{"name":"amountIn","type":"uint256","indexed":false,"internalType":"uint256"},{"name":"amountOut","type":"uint256","indexed":false,"internalType":"uint256"},{"name":"lpFee","type":"uint256","indexed":false,"internalType":"uint256"},{"name":"protocolFee","type":"uint256","indexed":false,"internalType":"uint256"}],"anonymous":false},{"type":"event","name":"SwapMint","inputs":[{"name":"payer","type":"address","indexed":true,"internalType":"address"},{"name":"receiver","type":"address","indexed":true,"internalType":"address"},{"name":"tokenIn","type":"address","indexed":true,"internalType":"contract IERC20"},{"name":"amountIn","type":"uint256","indexed":false,"internalType":"uint256"},{"name":"amountOut","type":"uint256","indexed":false,"internalType":"uint256"},{"name":"lpFee","type":"uint256","indexed":false,"internalType":"uint256"},{"name":"protocolFee","type":"uint256","indexed":false,"internalType":"uint256"}],"anonymous":false},{"type":"event","name":"Transfer","inputs":[{"name":"from","type":"address","indexed":true,"internalType":"address"},{"name":"to","type":"address","indexed":true,"internalType":"address"},{"name":"value","type":"uint256","indexed":false,"internalType":"uint256"}],"anonymous":false},{"type":"error","name":"AddressEmptyCode","inputs":[{"name":"target","type":"address","internalType":"address"}]},{"type":"error","name":"ERC20InsufficientAllowance","inputs":[{"name":"spender","type":"address","internalType":"address"},{"name":"allowance","type":"uint256","internalType":"uint256"},{"name":"needed","type":"uint256","internalType":"uint256"}]},{"type":"error","name":"ERC20InsufficientBalance","inputs":[{"name":"sender","type":"address","internalType":"address"},{"name":"balance","type":"uint256","internalType":"uint256"},{"name":"needed","type":"uint256","internalType":"uint256"}]},{"type":"error","name":"ERC20InvalidApprover","inputs":[{"name":"approver","type":"address","internalType":"address"}]},{"type":"error","name":"ERC20InvalidReceiver","inputs":[{"name":"receiver","type":"address","internalType":"address"}]},{"type":"error","name":"ERC20InvalidSender","inputs":[{"name":"sender","type":"address","internalType":"address"}]},{"type":"error","name":"ERC20InvalidSpender","inputs":[{"name":"spender","type":"address","internalType":"address"}]},{"type":"error","name":"FailedCall","inputs":[]},{"type":"error","name":"InsufficientBalance","inputs":[{"name":"balance","type":"uint256","internalType":"uint256"},{"name":"needed","type":"uint256","internalType":"uint256"}]},{"type":"error","name":"OwnableInvalidOwner","inputs":[{"name":"owner","type":"address","internalType":"address"}]},{"type":"error","name":"OwnableUnauthorizedAccount","inputs":[{"name":"account","type":"address","internalType":"address"}]},{"type":"error","name":"ReentrancyGuardReentrantCall","inputs":[]},{"type":"error","name":"SafeERC20FailedOperation","inputs":[{"name":"token","type":"address","internalType":"address"}]}],"bytecode":{"object":"0x61014080604052346103155760017f9b779b17422d0df92223018b32b4d1fa46e071723d6817e2486d003becc55f00556367f855cb60e11b81525f81600481335afa9081156102cf575f91610319575b5060808101908151516101205261014081019160018060a01b03835116608052610160820160018060a01b0381511660a05260a08301938451600f0b60c05260e0840193845160e052610100810180516101005273__$9cad45bd1978fe5b0f221da7ae4f2d5a19$__95863b156103155760408051630d65425d60e31b8152602060048201819052855160248301528501516001600160a01b031660448201529084015161018060648301529098899796959493929161012e90610118906101a48b01906105fc565b60608601518a82036023190160848c01526105fc565b9651966023198982030160a48a0152602080895192838152019801905f5b8181106102f35750505051600f0b60c488015260c0830151956023198882030160e4890152602080885192838152019701905f5b8181106102da5750509051610104880152505161012486015261012001516001600160a01b03908116610144860152905181166101648501529051166101848301525f92908290039082905af480156102cf576102bf575b6040516155ed90816106218239608051818181603101528181610383015281816107f701528181610cb1015281816116710152818161250b015281816127ec01528181612a5101528181612c5801526138af015260a0518181816103bf01528181610834015281816121300152612274015260c05181818161133f0152611c75015260e0518181816118d601526135fa0152610100518181816107bb01528181610c750152818161145b01528181611582015281816118fc0152612361015261012051818181610f1401528181611b8501528181611bb801528181611bff0152611c370152f35b5f6102c991610559565b5f6101d8565b6040513d5f823e3d90fd5b825189528b995060209889019890920191600101610180565b82516001600160a01b03168a528c9a506020998a01999092019160010161014c565b5f80fd5b90503d805f833e61032a8183610559565b810190602081830312610315578051906001600160401b038211610315570161018081830312610315576040519161018083016001600160401b0381118482101761054557604052815183526103826020830161057c565b602084015260408201516001600160401b03811161031557816103a6918401610590565b604084015260608201516001600160401b03811161031557816103ca918401610590565b606084015260808201516001600160401b03811161031557820181601f820112156103155780516103fa816105e5565b916104086040519384610559565b81835260208084019260051b8201019084821161031557602001915b81831061052557505050608084015260a082015180600f0b81036103155760a084015260c08201516001600160401b0381116103155782019080601f83011215610315578151610473816105e5565b926104816040519485610559565b81845260208085019260051b82010192831161031557602001905b8282106105155750505060c083015260e081015160e08301526101008101516101008301526104ce610120820161057c565b610120830152610140810151906001600160a01b03821682036103155761014083019190915261016001516001600160a01b0381168103610315576101608201525f61004f565b815181526020918201910161049c565b82516001600160a01b038116810361031557815260209283019201610424565b634e487b7160e01b5f52604160045260245ffd5b601f909101601f19168101906001600160401b0382119082101761054557604052565b51906001600160a01b038216820361031557565b81601f82011215610315578051906001600160401b03821161054557604051926105c4601f8401601f191660200185610559565b8284526020838301011161031557815f9260208093018386015e8301015290565b6001600160401b0381116105455760051b60200190565b805180835260209291819084018484015e5f828201840152601f01601f191601019056fe60c08060405260043610156100b7575b50361561001a575f80fd5b73ffffffffffffffffffffffffffffffffffffffff7f000000000000000000000000000000000000000000000000000000000000000016330361005957005b60646040517f08c379a000000000000000000000000000000000000000000000000000000000815260206004820152601560248201527f4554482066726f6d2077726170706572206f6e6c7900000000000000000000006044820152fd5b5f6080525f3560e01c908163017504b614613b7e57508063017cf66114613aec578063044215c614613a8657806306fdde0314613980578063095ea7b3146138d35780630d2462141461386557806318160ddd1461382a5780631f3a0e41146137ea57806323b872dd14613656578063313ce5671461361d57806331596a6a146135c557806341c0e1b514613533578063476e44b6146133e55780634ae93e1d146119ba5780635cffe9de1461178c5780636863f5bc146115a55780636b4082d11461154b5780636b7b91121461141a5780636d8d0ff3146112aa5780636ff97f1d146111a257806370a082311461113b57806379ba5097146110235780637bb98a6814610f8b5780638da5cb5b14610f375780638e499bcf14610edd57806395d89b4114610d7457806396d75bf614610b705780639af1d35a14610acc578063a1af5b9a146109db578063a9059cbb1461098c578063cce516b714610939578063cd0a41981461065c578063dd62ed3e146105cc578063e30c397814610579578063f2fde38b146104b25763fbf40a7c14610253575f61000f565b60c07ffffffffffffffffffffffffffffffffffffffffffffffffffffffffffffffffc3601126104ac57610285613c88565b61028d613cf1565b90610296613cce565b60a4359167ffffffffffffffff83116104ac5761036c73ffffffffffffffffffffffffffffffffffffffff92836102d36020963690600401613de4565b916102e360ff6009541615613ebe565b6102eb6141ad565b7fffffffff0000000000000000000000000000000000000000000000000000000060405198899788977f1bcaf4e50000000000000000000000000000000000000000000000000000000089521660048801521660248601521660448401526064356064840152608435608484015261010060a4840152610104830190613c45565b73ffffffffffffffffffffffffffffffffffffffff7f00000000000000000000000000000000000000000000000000000000000000001660c483015273ffffffffffffffffffffffffffffffffffffffff7f00000000000000000000000000000000000000000000000000000000000000001660e4830152038173__$5c3fa89b9ee358f4499fa62b5a914b9b69$__5af4801561049f5760805190610468575b6020915060017f9b779b17422d0df92223018b32b4d1fa46e071723d6817e2486d003becc55f00554780610444575b50604051908152f35b60805161046291819081908190335af161045c613e2a565b50613e59565b5f61043b565b506020813d602011610497575b8161048260209383613d69565b81010312610493576020905161040c565b5f80fd5b3d9150610475565b6040513d608051823e3d90fd5b60805180fd5b346104ac5760207ffffffffffffffffffffffffffffffffffffffffffffffffffffffffffffffffc3601126104ac5773ffffffffffffffffffffffffffffffffffffffff6104fe613c88565b610506614161565b16807fffffffffffffffffffffffff0000000000000000000000000000000000000000600154161760015573ffffffffffffffffffffffffffffffffffffffff60805154167f38d16b8cac22d99fc7c124b9cd0de2d3fa1faef420bfe791d8c362d765e22700608051608051a360805180f35b346104ac576080517ffffffffffffffffffffffffffffffffffffffffffffffffffffffffffffffffc3601126104ac57602073ffffffffffffffffffffffffffffffffffffffff60015416604051908152f35b346104ac5760407ffffffffffffffffffffffffffffffffffffffffffffffffffffffffffffffffc3601126104ac57610603613c88565b73ffffffffffffffffffffffffffffffffffffffff610620613cab565b911660805152600360205273ffffffffffffffffffffffffffffffffffffffff60406080512091165f52602052602060405f2054604051908152f35b6101007ffffffffffffffffffffffffffffffffffffffffffffffffffffffffffffffffc3601126104ac5761068f613c88565b610697613cf1565b906106a0613cce565b60e435916064359167ffffffffffffffff84116104ac576107b273ffffffffffffffffffffffffffffffffffffffff936106e06060963690600401613de4565b906106f060ff6009541615613ebe565b6106f86141ad565b60086080515285817ff3f7a9fe364faab93b216da50a3214154f22a0a2b415b23a84c8169e8b636ee30154947fffffffff000000000000000000000000000000000000000000000000000000006040519a8b998a997f955dace4000000000000000000000000000000000000000000000000000000008b521660048a01521660248801521660448601526064850152608435608485015260a43560a485015260c43560c485015261018060e4850152610184840190613c45565b906101048301527f000000000000000000000000000000000000000000000000000000000000000061012483015273ffffffffffffffffffffffffffffffffffffffff7f00000000000000000000000000000000000000000000000000000000000000001661014483015273ffffffffffffffffffffffffffffffffffffffff7f000000000000000000000000000000000000000000000000000000000000000016610164830152038173__$5c3fa89b9ee358f4499fa62b5a914b9b69$__5af4801561049f576080519182918291906108f7575b506108d59060017f9b779b17422d0df92223018b32b4d1fa46e071723d6817e2486d003becc55f005547806108d9575b50604051938493846040919493926060820195825260208201520152565b0390f35b6080516108f191819081908190335af161045c613e2a565b846108b7565b925050506060813d606011610931575b8161091460609383613d69565b810103126104ac57805160208201516040909201516108d5610887565b3d9150610907565b346104ac576080517ffffffffffffffffffffffffffffffffffffffffffffffffffffffffffffffffc3601126104ac57602073ffffffffffffffffffffffffffffffffffffffff60115416604051908152f35b346104ac5760407ffffffffffffffffffffffffffffffffffffffffffffffffffffffffffffffffc3601126104ac576109d06109c6613c88565b602435903361403c565b602060405160018152f35b346104ac576080517ffffffffffffffffffffffffffffffffffffffffffffffffffffffffffffffffc3601126104ac57610a136141ad565b60115473ffffffffffffffffffffffffffffffffffffffff1673__$9cad45bd1978fe5b0f221da7ae4f2d5a19$__803b156104ac57604051917f2a54db01000000000000000000000000000000000000000000000000000000008352600483015281602481608051935af4801561049f57610ab3575b60017f9b779b17422d0df92223018b32b4d1fa46e071723d6817e2486d003becc55f005560805180f35b608051610abf91613d69565b6080516104ac5780610a89565b346104ac576080517ffffffffffffffffffffffffffffffffffffffffffffffffffffffffffffffffc3601126104ac576040518060206008549182815201906008608051527ff3f7a9fe364faab93b216da50a3214154f22a0a2b415b23a84c8169e8b636ee3906080515b818110610b5a576108d585610b4e81870382613d69565b60405191829182613c0c565b8254845260209093019260019283019201610b37565b346104ac5760e07ffffffffffffffffffffffffffffffffffffffffffffffffffffffffffffffffc3601126104ac57610ba7613c88565b610baf613cab565b60c43580151590606435908290036104ac57610bd060ff6009541615613ebe565b610bd86141ad565b60086080515273ffffffffffffffffffffffffffffffffffffffff817ff3f7a9fe364faab93b216da50a3214154f22a0a2b415b23a84c8169e8b636ee301549381604051967ff1f9965400000000000000000000000000000000000000000000000000000000885216600487015216602485015260443560448501526064840152608435608484015260a43560a484015260c483015260e48201527f000000000000000000000000000000000000000000000000000000000000000061010482015273ffffffffffffffffffffffffffffffffffffffff7f0000000000000000000000000000000000000000000000000000000000000000166101248201526040816101448173__$5c3fa89b9ee358f4499fa62b5a914b9b69$__5af4801561049f57608051908190610d3a575b6040925060017f9b779b17422d0df92223018b32b4d1fa46e071723d6817e2486d003becc55f005582519182526020820152f35b50506040813d604011610d6c575b81610d5560409383613d69565b810103126104ac5780602060409251910151610d06565b3d9150610d48565b346104ac576080517ffffffffffffffffffffffffffffffffffffffffffffffffffffffffffffffffc3601126104ac57604051608051600654600181811c919081168015610ed3575b602083108114610ea257828552908115610e605750600114610dfe575b6108d583610dea81850382613d69565b604051918291602083526020830190613c45565b9190506006608051527ff652222313e28459528d920b65115c16c04f3efc82aaedc97be59f3f377c0d3f91608051905b808210610e4657509091508101602001610dea610dda565b919260018160209254838588010152019101909291610e2e565b7fffffffffffffffffffffffffffffffffffffffffffffffffffffffffffffff001660208086019190915291151560051b84019091019150610dea9050610dda565b7f4e487b71000000000000000000000000000000000000000000000000000000006080515260226004526024608051fd5b91607f1691610dbd565b346104ac576080517ffffffffffffffffffffffffffffffffffffffffffffffffffffffffffffffffc3601126104ac5760206040517f00000000000000000000000000000000000000000000000000000000000000008152f35b346104ac576080517ffffffffffffffffffffffffffffffffffffffffffffffffffffffffffffffffc3601126104ac57602073ffffffffffffffffffffffffffffffffffffffff6080515416604051908152f35b346104ac576080517ffffffffffffffffffffffffffffffffffffffffffffffffffffffffffffffffc3601126104ac576040518060206010549182815201906010608051527f1b6847dc741a1b0cd08d278845f9d819d87b734759afb55fe2de5cb82a9ae672906080515b81811061100d576108d585610b4e81870382613d69565b8254845260209093019260019283019201610ff6565b346104ac576080517ffffffffffffffffffffffffffffffffffffffffffffffffffffffffffffffffc3601126104ac576001543373ffffffffffffffffffffffffffffffffffffffff82160361110b577fffffffffffffffffffffffff00000000000000000000000000000000000000001660015560805154337fffffffffffffffffffffffff00000000000000000000000000000000000000008216176080515573ffffffffffffffffffffffffffffffffffffffff3391167f8be0079c531659141344cd1fd0a4f28419497f9722a3daafe3b4186f6b6457e0608051608051a360805180f35b7f118cdaa70000000000000000000000000000000000000000000000000000000060805152336004526024608051fd5b346104ac5760207ffffffffffffffffffffffffffffffffffffffffffffffffffffffffffffffffc3601126104ac5773ffffffffffffffffffffffffffffffffffffffff611187613c88565b16608051526002602052602060406080512054604051908152f35b346104ac576080517ffffffffffffffffffffffffffffffffffffffffffffffffffffffffffffffffc3601126104ac57604051806020600c5492838152018092600c608051527fdf6966c971051c3d54ec59162606531493a51404a002842f56009d7e5cf4a8c7906080515b81811061127e5750505081611224910382613d69565b604051918291602083019060208452518091526040830191906080515b81811061124f575050500390f35b825173ffffffffffffffffffffffffffffffffffffffff16845285945060209384019390920191600101611241565b825473ffffffffffffffffffffffffffffffffffffffff1684526020909301926001928301920161120e565b60407ffffffffffffffffffffffffffffffffffffffffffffffffffffffffffffffffc3601126104ac576112dc613c88565b6112eb60ff6009541615613ebe565b6112f36141ad565b73ffffffffffffffffffffffffffffffffffffffff604051917fc5eabfb900000000000000000000000000000000000000000000000000000000835216600482015260243560248201527f0000000000000000000000000000000000000000000000000000000000000000600f0b604482015260208160648173__$5c3fa89b9ee358f4499fa62b5a914b9b69$__5af4801561049f57608051906113e7575b6020915060017f9b779b17422d0df92223018b32b4d1fa46e071723d6817e2486d003becc55f005547806113c95750604051908152f35b6080516113e191819081908190335af161045c613e2a565b8261043b565b506020813d602011611412575b8161140160209383613d69565b810103126104935760209051611392565b3d91506113f4565b346104ac5760207ffffffffffffffffffffffffffffffffffffffffffffffffffffffffffffffffc3601126104ac57611451613c88565b611459614161565b7f000000000000000000000000000000000000000000000000000000000000000015801561152c575b156114ce5773ffffffffffffffffffffffffffffffffffffffff167fffffffffffffffffffffffff00000000000000000000000000000000000000006011541617601155608051608051f35b60646040517f08c379a000000000000000000000000000000000000000000000000000000000815260206004820152601060248201527f7a65726f206665652061646472657373000000000000000000000000000000006044820152fd5b5073ffffffffffffffffffffffffffffffffffffffff81161515611482565b346104ac576080517ffffffffffffffffffffffffffffffffffffffffffffffffffffffffffffffffc3601126104ac5760206040517f00000000000000000000000000000000000000000000000000000000000000008152f35b346104ac5760a07ffffffffffffffffffffffffffffffffffffffffffffffffffffffffffffffffc3601126104ac576115dc613c88565b6115e4613cab565b60843580151591908290036104ac5773ffffffffffffffffffffffffffffffffffffffff906116116141ad565b81604051947f90250c0a00000000000000000000000000000000000000000000000000000000865216600485015216602483015260443560448301526064356064830152608482015273ffffffffffffffffffffffffffffffffffffffff7f00000000000000000000000000000000000000000000000000000000000000001660a48201526080518160c48173__$5c3fa89b9ee358f4499fa62b5a914b9b69$__5af4801561049f57608051906116f7575b6108d59060017f9b779b17422d0df92223018b32b4d1fa46e071723d6817e2486d003becc55f005560405191829182613c0c565b503d80608051833e6117098183613d69565b8101906020818303126104ac5780519067ffffffffffffffff82116104ac57019080601f830112156104ac57815161174081614024565b9261174e6040519485613d69565b81845260208085019260051b8201019283116104ac57602001905b82821061177c575050506108d5906116c3565b8151815260209182019101611769565b346104ac5760807ffffffffffffffffffffffffffffffffffffffffffffffffffffffffffffffffc3601126104ac5760043573ffffffffffffffffffffffffffffffffffffffff81168091036104ac576117e4613cab565b6064359067ffffffffffffffff82116104ac57366023830112156104ac5781600401359167ffffffffffffffff83116104ac5736602484830101116104ac5773ffffffffffffffffffffffffffffffffffffffff937fffffffffffffffffffffffffffffffffffffffffffffffffffffffffffffffe0601f85602096602460e49661186d6141ad565b61187c60ff6009541615613ebe565b6040519a8b998a987faabadaf0000000000000000000000000000000000000000000000000000000008a5260048a01521682880152604435604488015260c060648801528260c488015201868601376080518582860101527f000000000000000000000000000000000000000000000000000000000000000060848501527f000000000000000000000000000000000000000000000000000000000000000060a48501520116810103018173__$9cad45bd1978fe5b0f221da7ae4f2d5a19$__5af4801561049f576080519061197e575b60209060017f9b779b17422d0df92223018b32b4d1fa46e071723d6817e2486d003becc55f00556040519015158152f35b506020813d6020116119b2575b8161199860209383613d69565b810103126104ac575180151581036104ac5760209061194d565b3d915061198b565b6101407ffffffffffffffffffffffffffffffffffffffffffffffffffffffffffffffffc360112610493576119ed613c88565b6119f5613cf1565b906119fe613cce565b9061010435928315158403610493576101243567ffffffffffffffff811161049357611a2e903690600401613de4565b91611a376141ad565b611a4660ff6009541615613ebe565b608435606435141593611a5885613f23565b60e4351580156133d9575b1561337b57611ac66064357ff3f7a9fe364faab93b216da50a3214154f22a0a2b415b23a84c8169e8b636ee3015460085f526084357ff3f7a9fe364faab93b216da50a3214154f22a0a2b415b23a84c8169e8b636ee3015401955f60a052613f23565b611ad28560a435614296565b600e5f527fbb7b4a454dc3493923482f07822329ed19e8244eff582cc204f8554c3620c3fd60643501549291508215610493578277ffffffffffffffffffffffffffffffffffffffffffffffff82116131c657611b319160401b613f88565b6fffffffffffffffffffffffffffffffff8111610493576fffffffffffffffffffffffffffffffff16966f7fffffffffffffffffffffffffffffff881161049357611b805f89600f0b13614224565b611ba97f0000000000000000000000000000000000000000000000000000000000000000614024565b611bb66040519182613d69565b7f000000000000000000000000000000000000000000000000000000000000000081527fffffffffffffffffffffffffffffffffffffffffffffffffffffffffffffffe0611c237f0000000000000000000000000000000000000000000000000000000000000000614024565b01366020830137600b5f5260205f20985f5b7f000000000000000000000000000000000000000000000000000000000000000081106131a25750611ca2995090611c9991600f0b9060843590606435907f00000000000000000000000000000000000000000000000000000000000000006144d7565b989093846142b4565b965f60a05280613188575b5060a435871161312a57600e5f52611cea6084357fbb7b4a454dc3493923482f07822329ed19e8244eff582cc204f8554c3620c3fd01548961430b565b96611cf6881515614224565b60c43515801561311e575b156130c05773ffffffffffffffffffffffffffffffffffffffff6064357fdf6966c971051c3d54ec59162606531493a51404a002842f56009d7e5cf4a8c701541695600c5f5273ffffffffffffffffffffffffffffffffffffffff6084357fdf6966c971051c3d54ec59162606531493a51404a002842f56009d7e5cf4a8c7015416977fffffffff0000000000000000000000000000000000000000000000000000000082167c020000000000000000000000000000000000000000000000000000000081145f14612a1457509050346129b6576040518061010081011067ffffffffffffffff6101008301111761298557610100810160405273ffffffffffffffffffffffffffffffffffffffff8716815273ffffffffffffffffffffffffffffffffffffffff8516908160208201526064356040820152608435606082015260a435608082015260c43560a082015260e43560c082015260e085151591015260405160208101917f13020956b4075195a70e9f5e78d703998f293cc8dec17e01c72e31517ec99ce0835273ffffffffffffffffffffffffffffffffffffffff891660408301526060820152606435608082015260843560a082015260a43560c082015260c43560e082015260e4356101008201528415156101208201526101208152611ef161014082613d69565b51902060405190611f0461012083613d69565b60e482527f537761705769746e657373207769746e65737329537761705769746e6573732860208301527f616464726573732070617965722c616464726573732072656365697665722c7560408301527f696e7432353620696e707574546f6b656e496e6465782c75696e74323536206f60608301527f7574707574546f6b656e496e6465782c75696e74323536206d6178416d6f756e60808301527f74496e2c75696e74323536206d696e416d6f756e744f75742c75696e7432353660a08301527f20646561646c696e652c626f6f6c20756e7772617029546f6b656e5065726d6960c08301527f7373696f6e73286164647265737320746f6b656e2c75696e7432353620616d6f60e08301527f756e7429000000000000000000000000000000000000000000000000000000006101008301528251830191606084602085019403126104ac57602084015193604081015190606081015167ffffffffffffffff81116104ac5785603f8284010112156104ac57602081830101519161208a83613daa565b966120986040519889613d69565b8388526040828401850101116104ac57829101604001602087015e60206080519186010152604051916120ca83613d20565b8b835260a4356020840152604051926060840184811067ffffffffffffffff82111761298557604052835260208301958652604083019182526040519061211082613d20565b30825287602083015273ffffffffffffffffffffffffffffffffffffffff7f0000000000000000000000000000000000000000000000000000000000000000163b156104ac576121bb946121ef61222493612258956040519a8b998a997f137c29fe000000000000000000000000000000000000000000000000000000008b5260048b0190516020809173ffffffffffffffffffffffffffffffffffffffff81511684520151910152565b516044890152516064880152805173ffffffffffffffffffffffffffffffffffffffff1660848801526020015160a4870152565b73ffffffffffffffffffffffffffffffffffffffff8d1660c486015260e4850152610140610104850152610144840190613c45565b7ffffffffffffffffffffffffffffffffffffffffffffffffffffffffffffffffc8382030161012484015260805194613c45565b038160805173ffffffffffffffffffffffffffffffffffffffff7f0000000000000000000000000000000000000000000000000000000000000000165af1801561049f5761296c575b509788935b6064357fd7b6990105719101dabeb77144f2a3385c8033acd3af97e9423a695e81ad1eb5018054908a6084357fd7b6990105719101dabeb77144f2a3385c8033acd3af97e9423a695e81ad1eb50154926064357f1b6847dc741a1b0cd08d278845f9d819d87b734759afb55fe2de5cb82a9ae6720190815499601060805152856084357f1b6847dc741a1b0cd08d278845f9d819d87b734759afb55fe2de5cb82a9ae672015491836080519d0101910193841061290e578e947f000000000000000000000000000000000000000000000000000000000000000080151580612903575b6128dd575b505061239c82821015613fbf565b6010608051520390556123b3838383031015613fbf565b60106080515203036084357f1b6847dc741a1b0cd08d278845f9d819d87b734759afb55fe2de5cb82a9ae672015560805181600f0b13806128cf575b1561287157600b5f52606435600181901c7f0175b7a638427703f0dbe7bb9bbf987a2551717b34e79f33b5b1008d1fa01db901546124599160071b6080161c600f0b92612454608435600b5f52608060205f208260011c01549160071b161c600f0b90565b614366565b9060805182600f0b1315612813576124776124b0916124e9946143be565b60643590600b5f526fffffffffffffffffffffffffffffffff80608060205f208560011c019460071b169216821b911b19825416179055565b60843590600b5f526fffffffffffffffffffffffffffffffff80608060205f208560011c019460071b169216821b911b19825416179055565b806127d4575b156126cf5773ffffffffffffffffffffffffffffffffffffffff7f000000000000000000000000000000000000000000000000000000000000000016803b156104ac57604051907f2e1a7d4d0000000000000000000000000000000000000000000000000000000082528760048301528160248160805193608051905af1801561049f576126b6575b5060805180808089855af161258b613e2a565b50156126585773ffffffffffffffffffffffffffffffffffffffff60a0917f6950339c7661cca450281e53722525cc136590e622b011d5be7e4c4993685a6c935b826040519616865289602087015288604087015280845103606087015260808601521692a460017f9b779b17422d0df92223018b32b4d1fa46e071723d6817e2486d003becc55f0055478061263a575b506040805160a0519381526020810192909252810191909152606090f35b60805161265291819081908190335af161045c613e2a565b8261261c565b60646040517f08c379a000000000000000000000000000000000000000000000000000000000815260206004820152601460248201527f7265636569766572206e6f742070617961626c650000000000000000000000006044820152fd5b6080516126c291613d69565b6080516104ac5787612578565b90608051506040517fa9059cbb000000000000000000000000000000000000000000000000000000006080515273ffffffffffffffffffffffffffffffffffffffff831660045286602452602060805160446080516080518a5af190600160805151148216156127b1575b604052156127815773ffffffffffffffffffffffffffffffffffffffff7f6950339c7661cca450281e53722525cc136590e622b011d5be7e4c4993685a6c9260a0926125cc565b847f5274afe700000000000000000000000000000000000000000000000000000000608051526004526024608051fd5b9060018115166127c957863b15153d1516169061273a565b503d608051823e3d90fd5b5073ffffffffffffffffffffffffffffffffffffffff7f00000000000000000000000000000000000000000000000000000000000000001685146124ef565b60646040517f08c379a000000000000000000000000000000000000000000000000000000000815260206004820152600c60248201527f706f6f6c20647261696e656400000000000000000000000000000000000000006044820152fd5b60646040517f08c379a000000000000000000000000000000000000000000000000000000000815260206004820152600e60248201527f696e76616c696420616d6f756e740000000000000000000000000000000000006044820152fd5b5060805182600f0b136123ef565b60a051620f42409102049b508b801561238e579092018092600d60805152555f8b61238e565b5060a0511515612389565b60646040517f08c379a000000000000000000000000000000000000000000000000000000000815260206004820152601360248201527f616d6f756e744f7574203e2062616c616e6365000000000000000000000000006044820152fd5b60805161297891613d69565b6080516104ac57896122a1565b7f4e487b71000000000000000000000000000000000000000000000000000000006080515260416004526024608051fd5b60646040517f08c379a000000000000000000000000000000000000000000000000000000000815260206004820152601260248201527f7065726d6974323a206e6f206e617469766500000000000000000000000000006044820152fd5b80612bff5750505073ffffffffffffffffffffffffffffffffffffffff8516803303612ba15773ffffffffffffffffffffffffffffffffffffffff7f0000000000000000000000000000000000000000000000000000000000000000169081881480612b97575b15612ae85750803b156104ac57604051907fd0e30db00000000000000000000000000000000000000000000000000000000082528160048185608051945af1801561049f57612acf575b505b9788936122a6565b608051612adb91613d69565b6080516104ac5789612ac5565b905060805150604051907f23b872dd00000000000000000000000000000000000000000000000000000000608051526004523060245281604452602060805160646080516080518b5af19060016080515114821615612b7f575b604052608051606052612ac757857f5274afe700000000000000000000000000000000000000000000000000000000608051526004526024608051fd5b9060018115166127c957873b15153d15161690612b42565b5082341015612a7b565b60646040517f08c379a000000000000000000000000000000000000000000000000000000000815260206004820152601960248201527f617070726f76616c3a2063616c6c657220213d207061796572000000000000006044820152fd5b7c010000000000000000000000000000000000000000000000000000000003612eef57505073ffffffffffffffffffffffffffffffffffffffff85163303612e915773ffffffffffffffffffffffffffffffffffffffff7f00000000000000000000000000000000000000000000000000000000000000001680871480612e87575b15612cef57803b15610493575f82916004604051809481937fd0e30db00000000000000000000000000000000000000000000000000000000083525af18015612ce457612cd0575b505b612ac7565b5f612cda91613d69565b5f60805289612cc9565b6040513d5f823e3d90fd5b506040517f70a082310000000000000000000000000000000000000000000000000000000081523060048201526020816024818a5afa908115612ce4575f91612e55575b506010546064351015612e285760105f5260643560205f200154600d546064351015612e2857600d5f527fd7b6990105719101dabeb77144f2a3385c8033acd3af97e9423a695e81ad1eb560643501548101908110612dfb57612d9591614289565b90811015612ccb5760646040517f08c379a000000000000000000000000000000000000000000000000000000000815260206004820152601e60248201527f496e73756666696369656e742070726566756e64696e6720616d6f756e7400006044820152fd5b7f4e487b71000000000000000000000000000000000000000000000000000000005f52601160045260245ffd5b7f4e487b71000000000000000000000000000000000000000000000000000000005f52603260045260245ffd5b90506020813d602011612e7f575b81612e7060209383613d69565b8101031261049357518a612d33565b3d9150612e63565b5081471015612c81565b60646040517f08c379a000000000000000000000000000000000000000000000000000000000815260206004820152601b60248201527f70726566756e64696e673a2063616c6c657220213d20706179657200000000006044820152fd5b604051907f70a082310000000000000000000000000000000000000000000000000000000082523060048301526020826024818c5afa918215612ce4575f9261308a575b50612f9c612fa29293612f7060075493604051948593602085015260248401528c60448401528760648401526080608484015260a4830190613c45565b037fffffffffffffffffffffffffffffffffffffffffffffffffffffffffffffffe08101835282613d69565b876143fb565b50604051907f70a082310000000000000000000000000000000000000000000000000000000082523060048301526020826024818b5afa8015612ce4575f90613056575b612ff09250614289565b90811015612ac75760646040517f08c379a000000000000000000000000000000000000000000000000000000000815260206004820152601260248201527f496e73756666696369656e742066756e647300000000000000000000000000006044820152fd5b506020823d602011613082575b8161307060209383613d69565b8101031261049357612ff09151612fe6565b3d9150613063565b91506020823d6020116130b8575b816130a560209383613d69565b8101031261049357905190612f9c612f33565b3d9150613098565b60646040517f08c379a000000000000000000000000000000000000000000000000000000000815260206004820152601960248201527f737761703a20696e73756666696369656e74206f7574707574000000000000006044820152fd5b5060c435881015611d01565b60646040517f08c379a000000000000000000000000000000000000000000000000000000000815260206004820152601a60248201527f737761703a207472616e736665722065786365656473206d61780000000000006044820152fd5b613194908892986142f0565b60a05260a051019588611cad565b80600191821c8c015460808260071b161c600f0b60208260051b8601015201611c35565b5060c09080821c809264010000000082101561336e575b6002826201000061326a941015613362575b610100811015613356575b601081101561334a575b600481101561333f575b1015613337575b8260017fffffffffffffffffffffffffffffffffffffffffffffffffffffffffffffffff88017fffffffffffffffffffffffffffffffffffffffffffffffffffffffffffffff4184011c019160ff031b613f88565b916fffffffffffffffffffffffffffffffff83116104935784908160801c8402906fffffffffffffffffffffffffffffffff8316850290809460401b9082821061330d575b5003928160801b918285106132e4575b60801c036132d9576132d19203613f88565b905b01611b31565b5050506001906132d3565b907fffffffffffffffffffffffffffffffffffffffffffffffffffffffffffffffff01906132bf565b7fffffffffffffffffffffffffffffffffffffffffffffffffffffffffffffffff0194508d6132af565b600101613215565b91810191811c61320e565b6004928301921c613204565b6008928301921c6131fa565b6010928301921c6131ef565b505060e081811c906131dd565b60646040517f08c379a000000000000000000000000000000000000000000000000000000000815260206004820152601760248201527f737761703a20646561646c696e652065786365656465640000000000000000006044820152fd5b5060e435421115611a63565b34610493575f7ffffffffffffffffffffffffffffffffffffffffffffffffffffffffffffffffc360112610493576060602060405161342381613d20565b5f8152015260405161343481613d20565b600a54600f0b81526040519081826020600b549283815201600b5f5260205f20925f905b806001830110613507576134819454918181106134f3575b106134e2575b509392930382613d69565b6020820190815260405191829160208352606083019151600f0b6020840152519060408084015281518091526020608084019201905f5b8181106134c6575050500390f35b8251600f0b8452859450602093840193909201916001016134b8565b60801d600f0b815260200185613476565b92602060019184600f0b8152019301613470565b9160029193506040600191865480600f0b825260801d600f0b6020820152019401920185929391613458565b34610493575f7ffffffffffffffffffffffffffffffffffffffffffffffffffffffffffffffffc36011261049357613569614161565b60095460ff81161561357757005b7fffffffffffffffffffffffffffffffffffffffffffffffffffffffffffffff00166001176009557f0f8eeedbc400fd6686703559f58d1e6143fdaed533f19a86c93d67a2fe4fb3315f80a1005b34610493575f7ffffffffffffffffffffffffffffffffffffffffffffffffffffffffffffffffc3601126104935760206040517f00000000000000000000000000000000000000000000000000000000000000008152f35b34610493575f7ffffffffffffffffffffffffffffffffffffffffffffffffffffffffffffffffc36011261049357602060405160128152f35b346104935760607ffffffffffffffffffffffffffffffffffffffffffffffffffffffffffffffffc3601126104935761368d613c88565b613695613cab565b6044359073ffffffffffffffffffffffffffffffffffffffff831692835f52600360205260405f2073ffffffffffffffffffffffffffffffffffffffff33165f5260205260405f20547fffffffffffffffffffffffffffffffffffffffffffffffffffffffffffffffff8110613711575b506109d0935061403c565b8381106137b657841561378a57331561375e576109d0945f52600360205260405f2073ffffffffffffffffffffffffffffffffffffffff33165f526020528360405f209103905584613706565b7f94280d62000000000000000000000000000000000000000000000000000000005f525f60045260245ffd5b7fe602df05000000000000000000000000000000000000000000000000000000005f525f60045260245ffd5b83907ffb8f41b2000000000000000000000000000000000000000000000000000000005f523360045260245260445260645ffd5b34610493575f7ffffffffffffffffffffffffffffffffffffffffffffffffffffffffffffffffc36011261049357602060ff600954166040519015158152f35b34610493575f7ffffffffffffffffffffffffffffffffffffffffffffffffffffffffffffffffc360112610493576020600454604051908152f35b34610493575f7ffffffffffffffffffffffffffffffffffffffffffffffffffffffffffffffffc36011261049357602060405173ffffffffffffffffffffffffffffffffffffffff7f0000000000000000000000000000000000000000000000000000000000000000168152f35b346104935760407ffffffffffffffffffffffffffffffffffffffffffffffffffffffffffffffffc3601126104935761390a613c88565b60243590331561378a5773ffffffffffffffffffffffffffffffffffffffff1690811561375e57335f52600360205260405f20825f526020528060405f20556040519081527f8c5be1e5ebec7d5bd14f71427d1e84f3dd0314c0f7b2291e5b200ac8c7c3b92560203392a3602060405160018152f35b34610493575f7ffffffffffffffffffffffffffffffffffffffffffffffffffffffffffffffffc360112610493576040515f6005548060011c90600181168015613a7c575b602083108114613a4f57828552908115610e6057506001146139f1576108d583610dea81850382613d69565b91905060055f527f036b6384b5eca791c62761152d0c79bb0604c104a5fb6f4eb0703f3154bb3db0915f905b808210613a3557509091508101602001610dea610dda565b919260018160209254838588010152019101909291613a1d565b7f4e487b71000000000000000000000000000000000000000000000000000000005f52602260045260245ffd5b91607f16916139c5565b346104935760207ffffffffffffffffffffffffffffffffffffffffffffffffffffffffffffffffc36011261049357600435600c54811015612e285773ffffffffffffffffffffffffffffffffffffffff602091600c5f52825f20015416604051908152f35b34610493575f7ffffffffffffffffffffffffffffffffffffffffffffffffffffffffffffffffc36011261049357604051806020600e54918281520190600e5f527fbb7b4a454dc3493923482f07822329ed19e8244eff582cc204f8554c3620c3fd905f5b818110613b68576108d585610b4e81870382613d69565b8254845260209093019260019283019201613b51565b34610493575f7ffffffffffffffffffffffffffffffffffffffffffffffffffffffffffffffffc36011261049357600d548082526020820190600d5f527fd7b6990105719101dabeb77144f2a3385c8033acd3af97e9423a695e81ad1eb5905f5b818110613bf6576108d585610b4e81870382613d69565b8254845260209093019260019283019201613bdf565b60206040818301928281528451809452019201905f5b818110613c2f5750505090565b8251845260209384019390920191600101613c22565b907fffffffffffffffffffffffffffffffffffffffffffffffffffffffffffffffe0601f602080948051918291828752018686015e5f8582860101520116010190565b6004359073ffffffffffffffffffffffffffffffffffffffff8216820361049357565b6024359073ffffffffffffffffffffffffffffffffffffffff8216820361049357565b6044359073ffffffffffffffffffffffffffffffffffffffff8216820361049357565b602435907fffffffff000000000000000000000000000000000000000000000000000000008216820361049357565b6040810190811067ffffffffffffffff821117613d3c57604052565b7f4e487b71000000000000000000000000000000000000000000000000000000005f52604160045260245ffd5b90601f7fffffffffffffffffffffffffffffffffffffffffffffffffffffffffffffffe0910116810190811067ffffffffffffffff821117613d3c57604052565b67ffffffffffffffff8111613d3c57601f017fffffffffffffffffffffffffffffffffffffffffffffffffffffffffffffffe01660200190565b81601f8201121561049357803590613dfb82613daa565b92613e096040519485613d69565b8284526020838301011161049357815f926020809301838601378301015290565b3d15613e54573d90613e3b82613daa565b91613e496040519384613d69565b82523d5f602084013e565b606090565b15613e6057565b60646040517f08c379a000000000000000000000000000000000000000000000000000000000815260206004820152601160248201527f45544820726566756e64206661696c65640000000000000000000000000000006044820152fd5b15613ec557565b60646040517f08c379a000000000000000000000000000000000000000000000000000000000815260206004820152600660248201527f6b696c6c656400000000000000000000000000000000000000000000000000006044820152fd5b15613f2a57565b60646040517f08c379a000000000000000000000000000000000000000000000000000000000815260206004820152600660248201527f69203d3d206a00000000000000000000000000000000000000000000000000006044820152fd5b8115613f92570490565b7f4e487b71000000000000000000000000000000000000000000000000000000005f52601260045260245ffd5b15613fc657565b60646040517f08c379a000000000000000000000000000000000000000000000000000000000815260206004820152601760248201527f62616c616e6365203c2070726f746f636f6c206f7765640000000000000000006044820152fd5b67ffffffffffffffff8111613d3c5760051b60200190565b73ffffffffffffffffffffffffffffffffffffffff169081156141355773ffffffffffffffffffffffffffffffffffffffff1691821561410957815f52600260205260405f20548181106140d757817fddf252ad1be2c89b69c2b068fc378daa952ba7f163c4a11628f55a4df523b3ef92602092855f52600284520360405f2055845f526002825260405f20818154019055604051908152a3565b827fe450d38c000000000000000000000000000000000000000000000000000000005f5260045260245260445260645ffd5b7fec442f05000000000000000000000000000000000000000000000000000000005f525f60045260245ffd5b7f96c6fd1e000000000000000000000000000000000000000000000000000000005f525f60045260245ffd5b73ffffffffffffffffffffffffffffffffffffffff5f5416330361418157565b7f118cdaa7000000000000000000000000000000000000000000000000000000005f523360045260245ffd5b60027f9b779b17422d0df92223018b32b4d1fa46e071723d6817e2486d003becc55f0054146141fc5760027f9b779b17422d0df92223018b32b4d1fa46e071723d6817e2486d003becc55f0055565b7f3ee5aeb5000000000000000000000000000000000000000000000000000000005f5260045ffd5b1561422b57565b60646040517f08c379a000000000000000000000000000000000000000000000000000000000815260206004820152600960248201527f746f6f20736d616c6c00000000000000000000000000000000000000000000006044820152fd5b91908203918211612dfb57565b919080156142ae576142a890836142f0565b80920390565b505f9190565b9067ffffffffffffffff6142c8828461430b565b921680156142eb5767ffffffffffffffff80921602166142e55790565b60010190565b505090565b811561430557620f42409102620f423f010490565b50505f90565b811561430557600f0b5f8112610493576fffffffffffffffffffffffffffffffff8216810260401c9160801c0277ffffffffffffffffffffffffffffffffffffffffffffffff81116104935760401b81198111610493570190565b90600f0b90600f0b037fffffffffffffffffffffffffffffffff80000000000000000000000000000000811215806143a4575b1561049357600f0b90565b506f7fffffffffffffffffffffffffffffff811315614399565b90600f0b90600f0b017fffffffffffffffffffffffffffffffff80000000000000000000000000000000811215806143a4571561049357600f0b90565b905f809160208151910182855af180806144b0575b156144305750506040513d81523d5f602083013e60203d82010160405290565b156144775773ffffffffffffffffffffffffffffffffffffffff907f9996b315000000000000000000000000000000000000000000000000000000005f521660045260245ffd5b3d15614488576040513d5f823e3d90fd5b7fd6bda275000000000000000000000000000000000000000000000000000000005f5260045ffd5b503d1515806144105750813b1515614410565b8051821015612e285760209160051b010190565b93949091855f945f955b855187101561450c576145046001916144fa89896144c3565b51600f0b906143be565b9601956144e1565b90929550959092955f81600f0b13156148a057614528916148fe565b9384600f0b801561049357700100000000000000000000000000000000057fffffffffffffffffffffffffffffffff8000000000000000000000000000000081121580614886575b1561049357600f0b9061458382856148fe565b9081600f0b92682000000000000000008413614828576145ec6145f1916145e77fffffffffffffffffffffffffffffffff80000000000000000000000000000000946145dd6145d28a8d6144c3565b51600f0b918c6144c3565b51600f0b90614366565b6148fe565b61493e565b921461049357614605905f03600f0b61493e565b600f0b6801000000000000000003907fffffffffffffffffffffffffffffffff800000000000000000000000000000008212158061480e575b156104935761465091600f0b906148fe565b600f0b68010000000000000000017fffffffffffffffffffffffffffffffff80000000000000000000000000000000811215806147f4575b1561049357600f0b925f8413156147de575050505f9080680100000000000000008212156147d1575b8064010000000060029212156147c5575b620100008112156147b9575b6101008112156147ad575b60108112156147a1575b6004811215614796575b121561478c575b607f8290031b91907fffffffffffffffffffffffffffffffffffffffffffffffffffffffffffffffc00160401b6780000000000000005b5f811361476c57506147569250600f0b6fb17217f7d1cf79abc9e3b39803f2f6af0260801d906148fe565b905f82600f0b131561476457565b5f9250829150565b91928002908160ff1c9182607f011c918302019160011d9291909261472b565b90600101906146f4565b92810192811d6146ed565b6004938401931d6146e3565b6008938401931d6146d9565b6010938401931d6146ce565b6020938401931d6146c2565b506040915080821d6146b1565b91955091506147ed92506144c3565b51600f0b90565b506f7fffffffffffffffffffffffffffffff811315614688565b506f7fffffffffffffffffffffffffffffff82131561463e565b60646040517f08c379a000000000000000000000000000000000000000000000000000000000815260206004820152600960248201527f746f6f206c6172676500000000000000000000000000000000000000000000006044820152fd5b506f7fffffffffffffffffffffffffffffff811315614570565b60646040517f08c379a000000000000000000000000000000000000000000000000000000000815260206004820152600d60248201527f756e696e697469616c697a6564000000000000000000000000000000000000006044820152fd5b90600f0b90600f0b0260401d7fffffffffffffffffffffffffffffffff80000000000000000000000000000000811215806143a4571561049357600f0b90565b600f0b68400000000000000000811215610493577fffffffffffffffffffffffffffffffffffffffffffffffc00000000000000000811261499e57700171547652b82fe1777d0ffda0d23a7d1261499b910260801d600f0b6149a3565b90565b505f90565b80600f0b68400000000000000000811215610493577fffffffffffffffffffffffffffffffffffffffffffffffc000000000000000008112614305576f80000000000000000000000000000000915f6780000000000000008216600f0b1361559f575b5f6740000000000000008216600f0b13615582575b5f6720000000000000008216600f0b13615565575b5f6710000000000000008216600f0b13615548575b5f6708000000000000008216600f0b1361552b575b5f6704000000000000008216600f0b1361550e575b5f6702000000000000008216600f0b136154f1575b5f6701000000000000008216600f0b136154d4575b5f66800000000000008216600f0b136154b7575b5f66400000000000008216600f0b1361549a575b5f66200000000000008216600f0b1361547d575b5f66100000000000008216600f0b13615460575b5f66080000000000008216600f0b13615443575b5f66040000000000008216600f0b13615426575b5f66020000000000008216600f0b13615409575b5f66010000000000008216600f0b136153ec575b5f658000000000008216600f0b136153cf575b5f654000000000008216600f0b136153b2575b5f652000000000008216600f0b13615395575b5f651000000000008216600f0b13615378575b5f650800000000008216600f0b1361535b575b5f650400000000008216600f0b1361533e575b5f650200000000008216600f0b13615321575b5f650100000000008216600f0b13615304575b5f6480000000008216600f0b136152e7575b5f6440000000008216600f0b136152ca575b5f6420000000008216600f0b136152ad575b5f6410000000008216600f0b13615290575b5f6408000000008216600f0b13615273575b5f6404000000008216600f0b13615256575b5f6402000000008216600f0b13615239575b5f6401000000008216600f0b1361521c575b5f63800000008216600f0b136151ff575b5f63400000008216600f0b136151e2575b5f63200000008216600f0b136151c5575b5f63100000008216600f0b136151a8575b5f63080000008216600f0b1361518b575b5f63040000008216600f0b1361516e575b5f63020000008216600f0b13615151575b5f63010000008216600f0b13615134575b5f628000008216600f0b13615117575b5f624000008216600f0b136150fa575b5f622000008216600f0b136150dd575b5f621000008216600f0b136150c0575b5f620800008216600f0b136150a3575b5f620400008216600f0b13615086575b5f620200008216600f0b13615069575b5f620100008216600f0b1361504c575b5f6180008216600f0b1361502f575b5f6140008216600f0b13615012575b5f6120008216600f0b13614ff5575b5f6110008216600f0b13614fd8575b5f6108008216600f0b13614fbb575b5f6104008216600f0b13614f9e575b5f6102008216600f0b13614f81575b5f6101008216600f0b13614f64575b5f60808216600f0b13614f47575b5f60408216600f0b13614f2a575b5f60208216600f0b13614f0d575b5f60108216600f0b13614ef0575b5f60088216600f0b13614ed3575b5f60048216600f0b13614eb6575b5f60028216600f0b13614e98575b60015f9116600f0b13614e7b575b60401d600f0b603f03600f0b1c6f7fffffffffffffffffffffffffffffff811161049357600f0b90565b9070010000000000000000b17217f7d1cf79ab0260801c90614e51565b7001000000000000000162e42fefa39ef35890920260801c91614e43565b9170010000000000000002c5c85fdf473de6b20260801c91614e35565b91700100000000000000058b90bfbe8e7bcd6d0260801c91614e27565b917001000000000000000b17217f7d1cf79afa0260801c91614e19565b91700100000000000000162e42fefa39ef366f0260801c91614e0b565b917001000000000000002c5c85fdf473de6eca0260801c91614dfd565b9170010000000000000058b90bfbe8e7bce5440260801c91614def565b91700100000000000000b17217f7d1cf79e9490260801c91614de1565b9170010000000000000162e42fefa39ef44d910260801c91614dd2565b91700100000000000002c5c85fdf473dea871f0260801c91614dc3565b917001000000000000058b90bfbe8e7bdcbe2e0260801c91614db4565b9170010000000000000b17217f7d1cf7d83c1a0260801c91614da5565b917001000000000000162e42fefa39f02b772c0260801c91614d96565b9170010000000000002c5c85fdf473e242ea380260801c91614d87565b91700100000000000058b90bfbe8e7cc35c3f00260801c91614d78565b917001000000000000b17217f7d1cfb72b45e10260801c91614d69565b91700100000000000162e42fefa39fe95583c20260801c91614d59565b917001000000000002c5c85fdf4741bea6e77e0260801c91614d49565b9170010000000000058b90bfbe8e8b2d3d4ede0260801c91614d39565b91700100000000000b17217f7d1d351a389d400260801c91614d29565b9170010000000000162e42fefa3ae53369388c0260801c91614d19565b91700100000000002c5c85fdf477b662b269450260801c91614d09565b917001000000000058b90bfbe8f71cb4e4b33d0260801c91614cf9565b9170010000000000b17217f7d20cf927c8e94c0260801c91614ce9565b917001000000000162e42fefa494f1478fde050260801c91614cd8565b9170010000000002c5c85fdf4b15de6f17eb0d0260801c91614cc7565b91700100000000058b90bfbe9ddbac5e109cce0260801c91614cb6565b917001000000000b17217f7d5a7716bba4a9ae0260801c91614ca5565b91700100000000162e42fefb2fed257559bdaa0260801c91614c94565b917001000000002c5c85fdf84bd62ae30a74cc0260801c91614c83565b9170010000000058b90bfbf8479bd5a81b51ad0260801c91614c72565b91700100000000b17217f80f4ef5aadda455540260801c91614c61565b9170010000000162e42ff0999ce3541b9fffcf0260801c91614c4f565b91700100000002c5c85fe31f35a6a30da1be500260801c91614c3d565b917001000000058b90bfcdee5acd3c1cedc8230260801c91614c2b565b9170010000000b17217fba9c739aa5819f44f90260801c91614c19565b917001000000162e42fff037df38aa2b219f060260801c91614c07565b9170010000002c5c8601cc6b9e94213c72737a0260801c91614bf5565b91700100000058b90c0b48c6be5df846c5b2ef0260801c91614be3565b917001000000b1721835514b86e6d96efd1bfe0260801c91614bd1565b91700100000162e430e5a18f6119e3c02282a50260801c91614bbe565b917001000002c5c863b73f016468f6bac5ca2b0260801c91614bab565b9170010000058b90cf1e6d97f9ca14dbcc16280260801c91614b98565b91700100000b1721bcfc99d9f890ea069117630260801c91614b85565b9170010000162e43f4f831060e02d839a9d16d0260801c91614b72565b91700100002c5c89d5ec6ca4d7c8acc017b7c90260801c91614b5f565b917001000058b91b5bc9ae2eed81e9b7d4cfab0260801c91614b4c565b9170010000b17255775c040618bf4a4ade83fc0260801c91614b39565b917001000162e525ee054754457d59952920260260801c91614b25565b9170010002c5cc37da9491d0985c348c68e7b30260801c91614b11565b91700100058ba01fb9f96d6cacd4b180917c3d0260801c91614afd565b917001000b175effdc76ba38e31671ca9397250260801c91614ae9565b91700100162f3904051fa128bca9c55c31e5df0260801c91614ad5565b917001002c605e2e8cec506d21bfc89a23a00f0260801c91614ac1565b9170010058c86da1c09ea1ff19d294cf2f679b0260801c91614aad565b91700100b1afa5abcbed6129ab13ec11dc95430260801c91614a99565b9170010163da9fb33356d84a66ae336dcdfa3f0260801c91614a84565b91700102c9a3e778060ee6f7caca4f7a29bde80260801c91614a6f565b917001059b0d31585743ae7c548eb68ca417fd0260801c91614a5a565b9170010b5586cf9890f6298b92b71842a983630260801c91614a45565b917001172b83c7d517adcdf7c8c50eb14a791f0260801c91614a30565b917001306fe0a31b7152de8d5a46305c85edec0260801c91614a1b565b6fb504f333f9de6484597d89b3754abe9f9250614a0656fea2646970667358221220ac7f7d7366562c6c8c5605485ba493ef58e806d51edb59a05891f5adc9ccad5e64736f6c63430008230033","linkReferences":{"src/PartyPoolExtraImpl.sol":{"PartyPoolExtraImpl":[{"start":165,"length":20},{"start":4175,"length":20},{"start":8010,"length":20}]},"src/PartyPoolMintImpl.sol":{"PartyPoolMintImpl":[{"start":2569,"length":20},{"start":3711,"length":20},{"start":4865,"length":20},{"start":6543,"length":20},{"start":7360,"length":20}]}}},"methodIdentifiers":{"LMSR()":"476e44b6","acceptOwnership()":"79ba5097","allProtocolFeesOwed()":"017504b6","allTokens()":"6ff97f1d","allowance(address,address)":"dd62ed3e","approve(address,uint256)":"095ea7b3","balanceOf(address)":"70a08231","balances()":"7bb98a68","burn(address,address,uint256,uint256,bool)":"6863f5bc","burnSwap(address,address,uint256,uint256,uint256,uint256,bool)":"96d75bf6","collectProtocolFees()":"a1af5b9a","decimals()":"313ce567","denominators()":"017cf661","fees()":"9af1d35a","flashFeePpm()":"31596a6a","flashLoan(address,address,uint256,bytes)":"5cffe9de","initialMint(address,uint256)":"6d8d0ff3","kill()":"41c0e1b5","killed()":"1f3a0e41","mint(address,bytes4,address,uint256,uint256,bytes)":"fbf40a7c","name()":"06fdde03","numTokens()":"8e499bcf","owner()":"8da5cb5b","pendingOwner()":"e30c3978","protocolFeeAddress()":"cce516b7","protocolFeePpm()":"6b4082d1","setProtocolFeeAddress(address)":"6b7b9112","swap(address,bytes4,address,uint256,uint256,uint256,uint256,uint256,bool,bytes)":"4ae93e1d","swapMint(address,bytes4,address,uint256,uint256,uint256,uint256,bytes)":"cd0a4198","symbol()":"95d89b41","token(uint256)":"044215c6","totalSupply()":"18160ddd","transfer(address,uint256)":"a9059cbb","transferFrom(address,address,uint256)":"23b872dd","transferOwnership(address)":"f2fde38b","wrapperToken()":"0d246214"},"id":53}