{"abi":[{"type":"function","name":"lockedBalanceOf","inputs":[{"name":"account","type":"address","internalType":"address"}],"outputs":[{"name":"","type":"uint256","internalType":"uint256"}],"stateMutability":"view"},{"type":"function","name":"mintAmounts","inputs":[{"name":"lpTokenAmount","type":"uint256","internalType":"uint256"},{"name":"totalSupply","type":"uint256","internalType":"uint256"},{"name":"cachedUintBalances","type":"uint256[]","internalType":"uint256[]"}],"outputs":[{"name":"depositAmounts","type":"uint256[]","internalType":"uint256[]"}],"stateMutability":"pure"},{"type":"event","name":"Mint","inputs":[{"name":"payer","type":"address","indexed":false,"internalType":"address"},{"name":"receiver","type":"address","indexed":true,"internalType":"address"},{"name":"amounts","type":"uint256[]","indexed":false,"internalType":"uint256[]"},{"name":"lpMinted","type":"uint256","indexed":false,"internalType":"uint256"},{"name":"gammaRequested","type":"uint256","indexed":false,"internalType":"uint256"},{"name":"gammaFilled","type":"uint256","indexed":false,"internalType":"uint256"}],"anonymous":false},{"type":"event","name":"OwnershipTransferred","inputs":[{"name":"previousOwner","type":"address","indexed":true,"internalType":"address"},{"name":"newOwner","type":"address","indexed":true,"internalType":"address"}],"anonymous":false},{"type":"event","name":"ProtocolFeesCollected","inputs":[],"anonymous":false},{"type":"event","name":"Transfer","inputs":[{"name":"from","type":"address","indexed":true,"internalType":"address"},{"name":"to","type":"address","indexed":true,"internalType":"address"},{"name":"value","type":"uint256","indexed":false,"internalType":"uint256"}],"anonymous":false},{"type":"error","name":"AddressEmptyCode","inputs":[{"name":"target","type":"address","internalType":"address"}]},{"type":"error","name":"FailedCall","inputs":[]},{"type":"error","name":"InsufficientBalance","inputs":[{"name":"balance","type":"uint256","internalType":"uint256"},{"name":"needed","type":"uint256","internalType":"uint256"}]},{"type":"error","name":"OwnableInvalidOwner","inputs":[{"name":"owner","type":"address","internalType":"address"}]},{"type":"error","name":"SafeERC20FailedOperation","inputs":[{"name":"token","type":"address","internalType":"address"}]}],"bytecode":{"object":"0x60808060405234601b57614be190816100208239308160090152f35b5f80fdfe61012080604052307f0000000000000000000000000000000000000000000000000000000000000000146004361015610036575f80fd5b5f610100525f3560e01c9182632a54db0114613271575081632d4bc50014612b6d578163403e14c014612b255781635935573614612aff5781636b2a12e814611bc7578163867dafe51461011b575063cdc2468b14610093575f80fd5b60606003193601126101145760443567ffffffffffffffff8111610114576100c26100cd9136906004016135ed565b602435600435613bc2565b604051809160208201602083528151809152602060408401920190610100515b8181106100fb575050500390f35b82518452859450602093840193909201916001016100ed565b6101005180fd5b6115615760206003193601126115615767ffffffffffffffff6004351161156157610200600319600435360301126115615760e46004350135158015611bb7575b15611b7357600b546101716004541515613924565b8061018660846004350160043560040161396f565b905003611b2f576101bd610144600435016101a0816139c3565b67ffffffffffffffff600f5460801c164311611a6c575b506139c3565b906101d767ffffffffffffffff60105460801c1643613798565b601154600f0b9281151580611a63575b611984575b5050601080547fffffffffffffffff0000000000000000ffffffffffffffffffffffffffffffff164360801b77ffffffffffffffff000000000000000000000000000000001617905590610246610241613e2b565b6147b2565b90601054600f0b61025c610124600435016139d1565b6102668285613a2d565b80600f0b5f8112611953575b50600f0b90620f4240820291808304620f424014901517156119265763ffffffff16918281029281840414901517156119265710156118e257600454906102bf8260646004350135613c3d565b6080526102d25f608051600f0b136139e2565b6102e1610164600435016139d1565b77ffffffffffffffffffffffffffffffffffffffffffffffff63ffffffff8216116118485761010051611815576bffffffff0000000000000000620f42409160401b16045b6fffffffffffffffffffffffffffffffff8111610114576fffffffffffffffffffffffffffffffff16906f7fffffffffffffffffffffffffffffff82116101145761037391600f0b613a2d565b80600f0b610385610100518213613a74565b6101005160c052608051600f0b1361180d575060805160c0525b608051600f0b60c051600f0b126117f2575b6101005160e052608051600f0b60c051600f0b145f146117de576064600435013560e0525b6103e360e05115156139e2565b60405190816020600e54918281520190600e61010051526020610100512090610100515b8181106117c857505050906104228361042a94930383613566565b60e051613bc2565b60a05260a4600435013560e0511061175657610100515b82811061172957507c02000000000000000000000000000000000000000000000000000000007fffffffff00000000000000000000000000000000000000000000000000000000610496602460043501613adc565b1603611091573461104d576104af600435600401613b09565b6104bd604460043501613b09565b906104d260846004350160043560040161396f565b6040519060208201927f07ffffffffffffffffffffffffffffffffffffffffffffffffffffffffffffff821161011457826020916105229360051b8091873781010301601f198101835282613566565b5190209061053460c460043501613abf565b91604051918260e081011067ffffffffffffffff60e085011117610eaf5773ffffffffffffffffffffffffffffffffffffffff809160e085016040521694858452169283602084015260646004350135604084015281606084015260a4600435013560808401521515918260a082015260c060e460043501359101526040519260208401947f7da409d2825872fb7e0f9f7910f4d786c5a2049c0a060d06c92fa35361bc7c4c86526040850152606084015260646004350135608084015260a083015260a4600435013560c083015260e082015260e46004350135610100820152610100815261062661012082613566565b519020610100515b838110610fc657506101c4600435013573ffffffffffffffffffffffffffffffffffffffff8116810361011457610669600435600401613b09565b9061067e60846004350160043560040161396f565b604051906107ca9061069261010084613566565b60d683527f4d696e745769746e657373207769746e657373294d696e745769746e6573732860208401527f616464726573732070617965722c616464726573732072656365697665722c7560408401527f696e74323536206c70546f6b656e416d6f756e742c62797465733332206d617860608401527f416d6f756e7473496e486173682c75696e74323536206d696e4c704f75742c6260808401527f6f6f6c207061727469616c46696c6c416c6c6f7765642c75696e74323536206460a08401527f6561646c696e6529546f6b656e5065726d697373696f6e73286164647265737360c08401527f20746f6b656e2c75696e7432353620616d6f756e74290000000000000000000060e08401526107c26107b861010460043501600435600401613b2a565b95909236916135a1565b933691613627565b9485518601946060876020880197031261011457602087015196604081015190606081015167ffffffffffffffff81116101145788603f82840101121561011457602081830101519161081c8361360b565b9961082a6040519b8c613566565b838b526040828401850101116101145782910160400160208a015e6020610100519189010152600b549761085d89613589565b9861086b6040519a8b613566565b808a52601f1961087a82613589565b01610100515b818110610fa257505061089281613589565b966108a06040519889613566565b818852601f196108af83613589565b01610100515b818110610f7f5750508a610100515b838110610ee257505050506040519860608a018a811067ffffffffffffffff821117610eaf5760405289526020890152604088015273ffffffffffffffffffffffffffffffffffffffff85163b156101145795939291906040519687957ffe8ec1a700000000000000000000000000000000000000000000000000000000875260c06004880152610124870190805191606060c48a0152825180915260206101448a01930190610100515b818110610e5f57505050806020604092015160e48a0152015161010488015260031987820301602488015260208086519283815201950190610100515b818110610e135750505085938493610a099373ffffffffffffffffffffffffffffffffffffffff6109f394166044870152606486015260031985830301608486015261426a565b6003198382030160a4840152610100519661426a565b039173ffffffffffffffffffffffffffffffffffffffff6101005191165af18015610e0557610dea575b50610100515b828110610d9257505b610a4b826136d5565b61010051926101e460043501935b818110610d46575050610a7b61010051610a728361477d565b600f0b136142da565b805190610100515b828110610cdd57610b33610b2e610b278787610aa0610241613e2b565b906101005181600f0b13610c7d575b5050610b1c610ade601054600f0b6101005150610ad86801000000000000000060c05190613b7b565b90614386565b7fffffffffffffffffffffffffffffffff0000000000000000000000000000000060105416906fffffffffffffffffffffffffffffffff1617601055565b60043560040161396f565b36916135a1565b6143c6565b610b85610b4760c051601154600f0b614aa6565b7fffffffffffffffffffffffffffffffff0000000000000000000000000000000060115416906fffffffffffffffffffffffffffffffff1617601155565b604460043501610b9f60e051610b9a83613b09565b613ebf565b610bc4610bab82613b09565b610bba610184600435016139d1565b9060e0519061465b565b7fe8f251485ad83deb04e463c808771009a80709a50fb7b87fb8a8a2817a076fc373ffffffffffffffffffffffffffffffffffffffff610c11610c0b600435600401613b09565b93613b09565b169173ffffffffffffffffffffffffffffffffffffffff6040519116815260a0602082015280610c4660a0820160a051613765565b60e0516040830152608051600f0b606083015260c051600f0b60808301520390a26040805160e051815260c051600f0b6020820152f35b610c8d610c9891610cd693614325565b600f54600f0b614386565b7fffffffffffffffffffffffffffffffff00000000000000000000000000000000600f5416906fffffffffffffffffffffffffffffffff1617600f55565b8480610aaf565b600190610cfb61010051610cf18386613706565b51600f0b136142da565b610d058184613706565b51600f0b610d3e610d1783600a613e0a565b81939154906fffffffffffffffffffffffffffffffff809160031b9316831b921b19161790565b905501610a83565b80610d7c610d556001936136a8565b90549060031b1c610d7583610d6f8a60043560040161396f565b90613acc565b3590613c3d565b610d868286613706565b90600f0b905201610a59565b80610da160019260a051613706565b5180610daf575b5001610a39565b610de490610dbc836136a8565b90549060031b1c01610dcd836136a8565b9091905f1983549160031b92831b921b1916179055565b84610da8565b61010051610df791613566565b610100516101145782610a33565b6040513d61010051823e3d90fd5b91969750919293946020604082610e4d6001948b516020809173ffffffffffffffffffffffffffffffffffffffff81511684520151910152565b019701910191899796959493926109ac565b919495969798995091926020604082610e9b60019489516020809173ffffffffffffffffffffffffffffffffffffffff81511684520151910152565b0195019101918b999897969594939261096f565b7f4e487b710000000000000000000000000000000000000000000000000000000061010051526041600452602461010051fd5b610f3e8160019373ffffffffffffffffffffffffffffffffffffffff610f0783613690565b90549060031b1c16610f198388613706565b5160405191610f278361354a565b82526020820152610f388383613706565b52613706565b50610f4b8160a051613706565b5160405190610f598261354a565b3082526020820152610f6b828c613706565b52610f76818b613706565b50018b906108c4565b602090604051610f8e8161354a565b5f81525f8382015282828d010152016108b5565b6020908c828260405192610fb58461354a565b5f84525f8385015201015201610880565b610fd28160a051613706565b5115801561102c575b15610fe85760010161062e565b606460405162461bcd60e51b815260206004820152601160248201527f7065726d6974323a207a65726f206361700000000000000000000000000000006044820152fd5b5061104581610d6f60846004350160043560040161396f565b351515610fdb565b606460405162461bcd60e51b815260206004820152601260248201527f7065726d6974323a206e6f206e617469766500000000000000000000000000006044820152fd5b61010051345b8382106110a5575050610a42565b6110b18260a051613706565b5191826110c3575b6001019150611097565b6110d1600435600401613b09565b6110df602460043501613adc565b9073ffffffffffffffffffffffffffffffffffffffff6110fe84613690565b90549060031b1c169061111c61010460043501600435600401613b2a565b6004356101a40135949173ffffffffffffffffffffffffffffffffffffffff861686036101145761114e913691613627565b907fffffffff000000000000000000000000000000000000000000000000000000008116806113a45750505073ffffffffffffffffffffffffffffffffffffffff811633036113605773ffffffffffffffffffffffffffffffffffffffff8316821480611356575b1561126b57505073ffffffffffffffffffffffffffffffffffffffff81163b1561011457604051907fd0e30db0000000000000000000000000000000000000000000000000000000008252816004818773ffffffffffffffffffffffffffffffffffffffff6101005195165af1908115610e0557849161124d575b5061124590600193035b93610dbc836136a8565b8291506110b9565b61125c91506101005190613566565b61010051610114578286611231565b909150610100939293515073ffffffffffffffffffffffffffffffffffffffff604051917f23b872dd00000000000000000000000000000000000000000000000000000000610100515216600452306024528460445260206101005160646101005161010051865af1906001610100515114821615611332575b604052610100516060521561130157509061124560019261123b565b7f5274afe7000000000000000000000000000000000000000000000000000000006101005152600452602461010051fd5b90600181151661134a57823b15153d151616906112e5565b503d61010051823e3d90fd5b50858510156111b6565b606460405162461bcd60e51b815260206004820152601960248201527f617070726f76616c3a2063616c6c657220213d207061796572000000000000006044820152fd5b7c0100000000000000000000000000000000000000000000000000000000036115bb57505073ffffffffffffffffffffffffffffffffffffffff1633036115775773ffffffffffffffffffffffffffffffffffffffff821681148061156d575b156114a3575073ffffffffffffffffffffffffffffffffffffffff81163b1561011457604051907fd0e30db0000000000000000000000000000000000000000000000000000000008252816004818773ffffffffffffffffffffffffffffffffffffffff6101005195165af18015610e0557611488575b506112456001925b61123b565b6101005161149591613566565b61010051610114578561147b565b60249150602090604051928380927f70a082310000000000000000000000000000000000000000000000000000000082523060048301525afa8015610e055784916101005191611533575b50926114836112459261152c600196611526611509886136a8565b90549060031b1c61151989613678565b90549060031b1c90613917565b90613798565b101561428f565b9150506020813d8211611565575b8161154e60209383613566565b81010312611561575183906114836114ee565b5f80fd5b3d9150611541565b5084471015611404565b606460405162461bcd60e51b815260206004820152601b60248201527f70726566756e64696e673a2063616c6c657220213d20706179657200000000006044820152fd5b929190959350604051927f70a08231000000000000000000000000000000000000000000000000000000008452306004850152602084602481865afa938415610e055761010051946116ef575b506024966020939261165761165c93611649600754946040519586938a8501528d8401528760448401528d60648401526080608484015260a483019061426a565b03601f198101845283613566565b614ae3565b50604051958680927f70a082310000000000000000000000000000000000000000000000000000000082523060048301525afa8015610e0557859461010051916116b6575b5060019461152c611245949361148393613798565b945050906020843d82116116e7575b816116d260209383613566565b810103126115615792518493919060016116a1565b3d91506116c5565b9093506020929192813d8211611721575b8161170d60209383613566565b810103126115615751929091906024611608565b3d9150611700565b61174181610d6f60846004350160043560040161396f565b3515158061179b575b61175657600101610441565b60405162461bcd60e51b815260206004820152601060248201527f736c69707061676520636f6e74726f6c000000000000000000000000000000006044820152606490fd5b506117a88160a051613706565b516117c182610d6f60846004350160043560040161396f565b351061174a565b8254845260209093019260019283019201610407565b6117ea8160c051614209565b60e0526103d6565b61180861180360c460043501613abf565b613a74565b6103b1565b60c05261039f565b7f4e487b710000000000000000000000000000000000000000000000000000000061010051526012600452602461010051fd5b5f906118696207a1206b7fffffff8000000000000000603f84901b16614746565b916fffffffffffffffffffffffffffffffff83116115615780620f424084026bffffffff00000000000000008460401b16106118d7575b506118ce57620f4240905f610100526bffffffff00000000000000008284029160401b160304905b01610326565b506001906118c8565b5f19915001876118a0565b606460405162461bcd60e51b815260206004820152600f60248201527f766f6c6174696c65206d61726b657400000000000000000000000000000000006044820152fd5b7f4e487b71000000000000000000000000000000000000000000000000000000005f52601160045260245ffd5b90507fffffffffffffffffffffffffffffffff800000000000000000000000000000008114611926575f0386610272565b60ff16926040841b808311611a5b575b50816119af6801000000000000000080961d600f0b86613a2d565b94925b611a1e57506119c2929350614386565b5f81600f0b12611a17575b611a0f817fffffffffffffffffffffffffffffffff0000000000000000000000000000000060115416906fffffffffffffffffffffffffffffffff1617601155565b9082806101ec565b505f6119cd565b8460018216611a4a575b5060011c80611a38575b806119b2565b611a43858296614386565b9450611a32565b611a549193614386565b9184611a28565b915084611994565b508315156101e7565b610c98611ae291611a7e610241613e2b565b90611ac1827fffffffffffffffffffffffffffffffff0000000000000000000000000000000060105416906fffffffffffffffffffffffffffffffff1617601055565b60ff611ad3600f54600f0b8094613a2d565b600f0b91161d600f0b90613b7b565b600f80547fffffffffffffffff0000000000000000ffffffffffffffffffffffffffffffff164360801b77ffffffffffffffff0000000000000000000000000000000016179055836101b7565b606460405162461bcd60e51b815260206004820152601360248201527f6d6178416d6f756e7473496e206c656e677468000000000000000000000000006044820152fd5b606460405162461bcd60e51b815260206004820152600860248201527f646561646c696e650000000000000000000000000000000000000000000000006044820152fd5b5060e4600435013542111561015c565b6115615760206003193601126115615760043567ffffffffffffffff811161156157610200600319823603011261156157604051610200810181811067ffffffffffffffff8211176123a45760405281600401358152611c2960248301613529565b9160208201928352604481013567ffffffffffffffff811161156157611c55906004369184010161365d565b9260408301938452606482013567ffffffffffffffff811161156157611c81906004369185010161365d565b9160608401928352608481013567ffffffffffffffff81116115615781019136602384011215611561576004830135611cb981613589565b93611cc76040519586613566565b818552602060048187019360051b830101019036821161156157602401915b818310612ad2575050506080850192835260a48201359384600f0b85036115615760a0860194855260c483013567ffffffffffffffff811161156157611d3290600436918601016135ed565b9660c0870197885260e484013567ffffffffffffffff811161156157611d5e90600436918701016135ed565b9660e08101978852610100810161010486013581526101208201610124870135815261014487013560ff8116810361156157610140840190815261016084019161016489013583526101808501936101848a01358552611dc16101a48b01613529565b996101a087019a8b526101c48101359073ffffffffffffffffffffffffffffffffffffffff82168203611561576101e4916101c0890152013573ffffffffffffffffffffffffffffffffffffffff81168103611561576101e08701528a51519b60018d1115612a8e5761017f8d11612a4a575f9051600f0b1315612a06578b8e5151036129c2578b8d51510361297e57620493e08151101561293a575115801561291a575b156128d657620f424090511015612892575160ff168015159081612887575b50156128435751156127ff5761c4e09051116127bb5773ffffffffffffffffffffffffffffffffffffffff8451161561278f57516007555180519067ffffffffffffffff82116123a45760055490600182811c92168015612785575b60208310146126a45781601f84931161274a575b50602090601f83116001146126e6575f926126db575b50505f198260011b9260031b1c1916176005555b5180519067ffffffffffffffff82116123a457600654600181811c911680156126d1575b60208210146126a457601f8111612643575b50602090601f83116001146125c85773ffffffffffffffffffffffffffffffffffffffff9392915f91836125bd575b50505f198260011b9260031b1c1916176006555b5116807fffffffffffffffffffffffff00000000000000000000000000000000000000005f5416175f555f7f8be0079c531659141344cd1fd0a4f28419497f9722a3daafe3b4186f6b6457e08180a3815180519067ffffffffffffffff82116123a4576801000000000000000082116123a457602090600b5483600b558084106125a1575b5001600b5f5260205f205f5b838110612577575050505073ffffffffffffffffffffffffffffffffffffffff9051167fffffffffffffffffffffffff000000000000000000000000000000000000000060125416176012555f5b828110612401575050612089816136d5565b80519067ffffffffffffffff82116123a4576801000000000000000082116123a457602090600e5483600e558084106123e5575b5001600e5f5260205f205f5b8381106123d15786866120db876136d5565b80519067ffffffffffffffff82116123a4576801000000000000000082116123a457602090600c5483600c55808410612388575b5001600c5f5260205f205f5b8381106123745785855190519080518060061b917f03ffffffffffffffffffffffffffffffffffffffffffffffffffffffffffffff821682036119265782600101928360011161192657600b019182600a116119265761219361217d8461360b565b9361218b6040519586613566565b80855261360b565b93601f196020850195013686378351156123475760618553835160011015612347577fff000000000000000000000000000000000000000000000000000000000000008160f01b165f1a60218501538351600210156123475760f81b7fff00000000000000000000000000000000000000000000000000000000000000165f1a60228401538251600310156123475760806023840153825160041015612347576060602484015382516005101561234757600a602584015382516006101561234757603d6026840153825160071015612347576039602784015382516008101561234757603d60288401538251600910156123475760f3602984015360051b905f5b8281106123315750508082015f5b82811061231b5773ffffffffffffffffffffffffffffffffffffffff858551905ff01680156122d757602090604051908152f35b606460405162461bcd60e51b815260206004820152601560248201527f424653746f7265206465706c6f79206661696c656400000000000000000000006044820152fd5b806020809288010151602b8285010152016122a3565b806020809284010151602b828701015201612295565b7f4e487b71000000000000000000000000000000000000000000000000000000005f52603260045260245ffd5b60019060208451940193818401550161211b565b61239e90600c5f528480855f20019103906138fc565b8561210f565b7f4e487b71000000000000000000000000000000000000000000000000000000005f52604160045260245ffd5b6001906020845194019381840155016120c9565b6123fb90600e5f528480855f20019103906138fc565b866120bd565b61271061240f828751613706565b51101561253357612421818551613706565b51156124ef5761247073ffffffffffffffffffffffffffffffffffffffff61244a838551613706565b511673ffffffffffffffffffffffffffffffffffffffff165f52600d60205260405f2090565b546124ab576001810190818111611926576124a573ffffffffffffffffffffffffffffffffffffffff61244a84938651613706565b55612077565b606460405162461bcd60e51b815260206004820152600f60248201527f6475706c696361746520746f6b656e00000000000000000000000000000000006044820152fd5b606460405162461bcd60e51b815260206004820152600960248201527f7a65726f206261736500000000000000000000000000000000000000000000006044820152fd5b606460405162461bcd60e51b815260206004820152600960248201527f666565203e3d20312500000000000000000000000000000000000000000000006044820152fd5b600190602073ffffffffffffffffffffffffffffffffffffffff8551169401938184015501612029565b6125b790600b5f528480855f20019103906138fc565b8861201d565b015190508980611f84565b90601f1983169160065f52815f20925f5b81811061262b575091600193918573ffffffffffffffffffffffffffffffffffffffff97969410612613575b505050811b01600655611f98565b01515f1960f88460031b161c19169055898080612605565b929360206001819287860151815501950193016125d9565b82811115611f555760065f52612696907ff652222313e28459528d920b65115c16c04f3efc82aaedc97be59f3f377c0d3f90601f850160051c906020861061269c575b601f82910160051c0391016138fc565b88611f55565b5f9150612686565b7f4e487b71000000000000000000000000000000000000000000000000000000005f52602260045260245ffd5b90607f1690611f43565b015190508980611f0b565b91601f19169160055f52815f20925f5b818110612732575090846001959493921061271a575b505050811b01600555611f1f565b01515f1960f88460031b161c1916905589808061270c565b929360206001819287860151815501950193016126f6565b82811115611ef55761277f9060055f5260205f2090601f850160051c906020861061269c57601f82910160051c0391016138fc565b8a611ef5565b91607f1691611ee1565b7f1e4fbdf7000000000000000000000000000000000000000000000000000000005f525f60045260245ffd5b606460405162461bcd60e51b815260206004820152601260248201527f6d696e74206c6f636b20746f6f206c6f6e6700000000000000000000000000006044820152fd5b606460405162461bcd60e51b815260206004820152600960248201527f67616d6d612063617000000000000000000000000000000000000000000000006044820152fd5b606460405162461bcd60e51b815260206004820152600960248201527f656d6120736869667400000000000000000000000000000000000000000000006044820152fd5b60409150108c611e85565b606460405162461bcd60e51b815260206004820152601160248201527f646576696174696f6e203e3d20313030250000000000000000000000000000006044820152fd5b606460405162461bcd60e51b815260206004820152601060248201527f7a65726f206665652061646472657373000000000000000000000000000000006044820152fd5b5073ffffffffffffffffffffffffffffffffffffffff8951161515611e66565b606460405162461bcd60e51b815260206004820152601360248201527f70726f746f636f6c20666565203e3d20333025000000000000000000000000006044820152fd5b606460405162461bcd60e51b815260206004820152600c60248201527f6261736573206c656e67746800000000000000000000000000000000000000006044820152fd5b606460405162461bcd60e51b815260206004820152600b60248201527f66656573206c656e6774680000000000000000000000000000000000000000006044820152fd5b606460405162461bcd60e51b815260206004820152601660248201527f6b61707061206d75737420626520706f736974697665000000000000000000006044820152fd5b606460405162461bcd60e51b815260206004820152600f60248201527f746f6f206d616e7920746f6b656e7300000000000000000000000000000000006044820152fd5b606460405162461bcd60e51b815260206004820152600d60248201527f6e656564203e31206173736574000000000000000000000000000000000000006044820152fd5b823573ffffffffffffffffffffffffffffffffffffffff8116810361156157815260209283019201611ce6565b6020600319360112611561576020612b1d612b18613506565b613fa4565b604051908152f35b61156157606060031936011261156157612b3d613506565b6024359073ffffffffffffffffffffffffffffffffffffffff8216820361156157612b6b91604435916137a5565b005b61156157608060031936011261156157612b85613506565b602435906044359182600f0b83036115615760643567ffffffffffffffff811161156157612bb79036906004016135ed565b600b549260ff60085460081c1661322d57612bd1846136d5565b93612bdb816136d5565b925f5b82811061310d57505050600a548451808203612f8e575b50505f5b8451811015612cd2575f612c0d8287613706565b51600f0b1315612c8e57612c218186613706565b51600f0b90600a5481101561234757600a5f52600181811c7fc65a7bb8d6351c1cf70c95a316cc6a92839c986682d98bc35f958f4883f9d2a8018054919390916fffffffffffffffffffffffffffffffff6080600786901b1681811b199092169216901b17905501612bf9565b606460405162461bcd60e51b815260206004820152601460248201527f7a65726f20696e697469616c2062616c616e63650000000000000000000000006044820152fd5b5084612cf15f612ce8612ce3613e2b565b61477d565b600f0b13613924565b7fffffffffffffffffffffffffffffffff0000000000000000000000000000000060095416906fffffffffffffffffffffffffffffffff16176009555f600954600f0b1315612f4a57602092612d8d612d4b610241613e2b565b610ade817fffffffffffffffffffffffffffffffff00000000000000000000000000000000600f5416906fffffffffffffffffffffffffffffffff1617600f55565b612e5b67ffffffffffffffff4316612de9817fffffffffffffffff0000000000000000ffffffffffffffffffffffffffffffff77ffffffffffffffff00000000000000000000000000000000600f549260801b16911617600f55565b7fffffffffffffffffffffffffffffffff00000000000000000000000000000000601154166011557fffffffffffffffff0000000000000000ffffffffffffffffffffffffffffffff77ffffffffffffffff000000000000000000000000000000006010549260801b16911617601055565b80612f1f57507fe8f251485ad83deb04e463c808771009a80709a50fb7b87fb8a8a2817a076fc3612ef0670de0b6b3a7640000935b84612f10575b6101007fffffffffffffffffffffffffffffffffffffffffffffffffffffffffffff00ff600854161760085573ffffffffffffffffffffffffffffffffffffffff6040519283925f845260a08985015260a0840190613765565b948660408401525f60608401525f608084015216930390a2604051908152f35b612f1a8585613ebf565b612e96565b612ef07fe8f251485ad83deb04e463c808771009a80709a50fb7b87fb8a8a2817a076fc39193612e90565b606460405162461bcd60e51b815260206004820152600d60248201527f696e76616c6964206b61707061000000000000000000000000000000000000006044820152fd5b612f97906136d5565b9081519167ffffffffffffffff83116123a4576801000000000000000083116123a45760209183600a558084106130be575b500190600a5f5260205f208160011c915f5b83811061307057507ffffffffffffffffffffffffffffffffffffffffffffffffffffffffffffffffe8116900380613015575b5050612bf5565b925f935f5b81811061302f5750505001558580808061300e565b90919460206130666001928851600f0b908560041b6fffffffffffffffffffffffffffffffff809160031b9316831b921b19161790565b960192910161301a565b5f5f5b60028110613088575083820155600101612fdb565b86519096916001916020916fffffffffffffffffffffffffffffffff60078b901b81811b199092169216901b1792019601613073565b6130ee906001850160011c600a5f52600181865f20019260108860041b16806130f4575b500160011c03906138fc565b88612fc9565b5f198501905f198254918a0360031b1c1690558d6130e2565b80602073ffffffffffffffffffffffffffffffffffffffff613130602494613690565b90549060031b1c16604051938480927f70a082310000000000000000000000000000000000000000000000000000000082523060048301525afa918215613222575f926131ed575b506131bf60019261319561318c8487613706565b5182101561371a565b806131a0848a613706565b526131ae81610dcd856136a8565b6131b88386613706565b5190613c3d565b6131c9828a613706565b90600f0b90526131e75f6131dd838b613706565b51600f0b1361371a565b01612bde565b91506020823d821161321a575b8161320760209383613566565b81010312611561579051906131bf613178565b3d91506131fa565b6040513d5f823e3d90fd5b606460405162461bcd60e51b815260206004820152600b60248201527f696e697469616c697a65640000000000000000000000000000000000000000006044820152fd5b906115615760206003193601126115615773ffffffffffffffffffffffffffffffffffffffff61329f613506565b169081156134c45750600b545f5b8181106132da577fd508feb4afc81230b8e5dcca865a405a72db1f928a5064f893ab22ab56ec25215f80a1005b6132e381613678565b90549060031b1c80156134bb576024602073ffffffffffffffffffffffffffffffffffffffff61331285613690565b90549060031b1c16604051928380927f70a082310000000000000000000000000000000000000000000000000000000082523060048301525afa80156132225782915f91613487575b50106134435761336a82613678565b5f1982549160031b1b1916905573ffffffffffffffffffffffffffffffffffffffff61339583613690565b90549060031b1c1690604051907fa9059cbb000000000000000000000000000000000000000000000000000000005f528560045260245260205f60448180865af19060015f5114821615613422575b604052156133f757506001905b016132ad565b7f5274afe7000000000000000000000000000000000000000000000000000000005f5260045260245ffd5b90600181151661343a57823b15153d151616906133e4565b503d5f823e3d90fd5b606460405162461bcd60e51b815260206004820152601260248201527f636f6c6c6563743a20666565203e2062616c00000000000000000000000000006044820152fd5b9150506020813d82116134b3575b816134a260209383613566565b81010312611561578190518661335b565b3d9150613495565b506001906133f1565b8062461bcd60e51b6064925260206004820152601260248201527f636f6c6c6563743a207a65726f206164647200000000000000000000000000006044820152fd5b6004359073ffffffffffffffffffffffffffffffffffffffff8216820361156157565b359073ffffffffffffffffffffffffffffffffffffffff8216820361156157565b6040810190811067ffffffffffffffff8211176123a457604052565b90601f601f19910116810190811067ffffffffffffffff8211176123a457604052565b67ffffffffffffffff81116123a45760051b60200190565b9291906135ad81613589565b936135bb6040519586613566565b602085838152019160051b810192831161156157905b8282106135dd57505050565b81358152602091820191016135d1565b9080601f8301121561156157816020613608933591016135a1565b90565b67ffffffffffffffff81116123a457601f01601f191660200190565b9291926136338261360b565b916136416040519384613566565b829481845281830111611561578281602093845f960137010152565b9080601f830112156115615781602061360893359101613627565b600c5481101561234757600c5f5260205f2001905f90565b600b5481101561234757600b5f5260205f2001905f90565b600e5481101561234757600e5f5260205f2001905f90565b8054821015612347575f5260205f2001905f90565b906136df82613589565b6136ec6040519182613566565b828152601f196136fc8294613589565b0190602036910137565b80518210156123475760209160051b010190565b1561372157565b606460405162461bcd60e51b815260206004820152601460248201527f696e73756666696369656e742062616c616e63650000000000000000000000006044820152fd5b90602080835192838152019201905f5b8181106137825750505090565b8251845260209384019390920191600101613775565b9190820391821161192657565b9073ffffffffffffffffffffffffffffffffffffffff8216801561383d57805f52601460205260405f20815f52601360205260405f2054908054905b8183106138c0575b5050815f52601360205260405f20555f52600260205260405f205483811061383d5773ffffffffffffffffffffffffffffffffffffffff82161561385f576138349061152684613fa4565b92838111613843575b50505050565b6138569361385091613798565b91614034565b5f80808061383d565b61386f9150926138759293613798565b91613fa4565b1161387c57565b606460405162461bcd60e51b815260206004820152600b60248201527f6d696e74206c6f636b65640000000000000000000000000000000000000000006044820152fd5b90916138cc81836136c0565b5043905460c01c116138f657806138ee6138e8600193856136c0565b90613f6e565b0191906137e1565b916137e9565b5f5b82811061390a57505050565b5f828201556001016138fe565b9190820180921161192657565b1561392b57565b606460405162461bcd60e51b815260206004820152600d60248201527f756e696e697469616c697a6564000000000000000000000000000000000000006044820152fd5b9035907fffffffffffffffffffffffffffffffffffffffffffffffffffffffffffffffe181360301821215611561570180359067ffffffffffffffff821161156157602001918160051b3603831361156157565b3560ff811681036115615790565b3563ffffffff811681036115615790565b156139e957565b606460405162461bcd60e51b815260206004820152600960248201527f746f6f20736d616c6c00000000000000000000000000000000000000000000006044820152fd5b90600f0b90600f0b03906f7fffffffffffffffffffffffffffffff82137fffffffffffffffffffffffffffffffff8000000000000000000000000000000083121761192657565b15613a7b57565b606460405162461bcd60e51b815260206004820152600c60248201527f72617465206c696d6974656400000000000000000000000000000000000000006044820152fd5b3580151581036115615790565b91908110156123475760051b0190565b357fffffffff00000000000000000000000000000000000000000000000000000000811681036115615790565b3573ffffffffffffffffffffffffffffffffffffffff811681036115615790565b9035907fffffffffffffffffffffffffffffffffffffffffffffffffffffffffffffffe181360301821215611561570180359067ffffffffffffffff82116115615760200191813603831361156157565b90600f0b90600f0b01907fffffffffffffffffffffffffffffffff8000000000000000000000000000000082126f7fffffffffffffffffffffffffffffff83131761192657565b9091805191613bd0836136d5565b9380158015613c35575b613c2e57613be791613c3d565b90613bf65f83600f0b136139e2565b5f5b838110613c06575050505090565b80613c1d613c1660019385613706565b518561470a565b613c278288613706565b5201613bf8565b5050505090565b508315613bda565b81156115615777ffffffffffffffffffffffffffffffffffffffffffffffff8111613cb55790613c6f9160401b614746565b6fffffffffffffffffffffffffffffffff8111611561576fffffffffffffffffffffffffffffffff166f7fffffffffffffffffffffffffffffff811161156157600f0b90565b60c09181831c8093640100000000821015613dfd575b60028262010000613d39941015613df1575b610100811015613de5575b6010811015613dd9575b6004811015613dce575b1015613dc6575b8360015f1985017fffffffffffffffffffffffffffffffffffffffffffffffffffffffffffffff4184011c019160ff031b614746565b926fffffffffffffffffffffffffffffffff8411611561578160801c8402906fffffffffffffffffffffffffffffffff8316850290809460401b90828210613dbb575b5003928160801b91828510613db1575b60801c03613da657613d9e9203614746565b905b01613c6f565b505050600190613da0565b905f190190613d8c565b5f190194505f613d7c565b600101613d03565b91810191811c613cfc565b6004928301921c613cf2565b6008928301921c613ce8565b6010928301921c613cdd565b505060e082811c90613ccb565b9190918054831015612347575f52601060205f208360011c019260041b1690565b60405190600a548083528260208101600a5f5260205f20925f905b806001830110613e9357613e6c945491818110613e7f575b10613e6e575b500383613566565b565b60801d600f0b81526020015f613e64565b92602060019184600f0b8152019301613e5e565b9160029193506040600191865480600f0b825260801d600f0b6020820152019401920185929391613e46565b73ffffffffffffffffffffffffffffffffffffffff16908115613f2a577fddf252ad1be2c89b69c2b068fc378daa952ba7f163c4a11628f55a4df523b3ef602082613f0d5f94600454613917565b6004558484526002825260408420818154019055604051908152a3565b606460405162461bcd60e51b815260206004820152601360248201527f45524332303a206d696e7420746f207a65726f000000000000000000000000006044820152fd5b90613f78575f9055565b7f4e487b71000000000000000000000000000000000000000000000000000000005f525f60045260245ffd5b9073ffffffffffffffffffffffffffffffffffffffff5f9216805f52601460205260405f208054915f52601360205260405f20545b828110613fe557505050565b613fef81836136c0565b5054438160c01c11614005575b50600101613fd9565b6001919577ffffffffffffffffffffffffffffffffffffffffffffffff61402d921690613917565b9490613ffc565b929092821580156141d4575b6141ce5773ffffffffffffffffffffffffffffffffffffffff1690815f52601460205260405f2090825f52601360205260405f205492825494935b858110806141c5575b156141685761409381856136c0565b5090815460c01c4381111561414c57825477ffffffffffffffffffffffffffffffffffffffffffffffff16928784116140ef5750906140d6600192848b5f6147dd565b6140e36138e882886136c0565b019403945b949361407b565b929677ffffffffffffffffffffffffffffffffffffffffffffffff929761411b84938484168d5f6147dd565b0316167fffffffffffffffff0000000000000000000000000000000000000000000000008254161790555f946140e8565b50600191506141616138e882879998996136c0565b01936140e8565b939450915093505f52601360205260405f205561418157565b606460405162461bcd60e51b815260206004820152601860248201527f6d696e74206c6f636b206d6f766520756e646572666c6f7700000000000000006044820152fd5b50841515614084565b50915050565b5073ffffffffffffffffffffffffffffffffffffffff841673ffffffffffffffffffffffffffffffffffffffff821614614040565b811561426457600f0b5f8112611561576fffffffffffffffffffffffffffffffff8216810260401c9160801c0277ffffffffffffffffffffffffffffffffffffffffffffffff81116115615760401b81198111611561570190565b50505f90565b90601f19601f602080948051918291828752018686015e5f8582860101520116010190565b1561429657565b606460405162461bcd60e51b815260206004820152601260248201527f696e73756666696369656e742066756e647300000000000000000000000000006044820152fd5b156142e157565b606460405162461bcd60e51b815260206004820152600c60248201527f706f6f6c20647261696e656400000000000000000000000000000000000000006044820152fd5b90600f0b9081156115615760401b60170b057fffffffffffffffffffffffffffffffff800000000000000000000000000000008112158061436c575b1561156157600f0b90565b506f7fffffffffffffffffffffffffffffff811315614361565b90600f0b90600f0b0260401d7fffffffffffffffffffffffffffffffff800000000000000000000000000000008112158061436c571561156157600f0b90565b600b54905f5f5b83811061454457501561454057604051600a80548083525f918252602083019291907fc65a7bb8d6351c1cf70c95a316cc6a92839c986682d98bc35f958f4883f9d2a85b8160018401106145165793612ce392849261443e965491818110614502575b106144f1575b500382613566565b91614448816136d5565b915f5b8281106144b9575050506144625f610a728361477d565b80515f5b818110614484575050610c989161447f610c8d9261477d565b614325565b806144955f610cf160019487613706565b61449f8185613706565b51600f0b6144b1610d1783600a613e0a565b905501614466565b806144db6144ca600193600e6136c0565b90549060031b1c6131b88386613706565b6144e58287613706565b90600f0b90520161444b565b60801d600f0b81526020015f614436565b92602060019184600f0b8152019301614430565b929360016040600292865480600f0b825260801d600f0b6020820152019401920191939293614411565b5050565b6024602073ffffffffffffffffffffffffffffffffffffffff61456884600b6136c0565b90549060031b1c16604051928380927f70a082310000000000000000000000000000000000000000000000000000000082523060048301525afa908115613222575f9161462a575b506145d16145bf83600e6136c0565b90549060031b1c61151984600c6136c0565b8082116145e3575b50506001016143cd565b8293506145f461462093600e6136c0565b90549060031b1c61460685600e6136c0565b9290930301905f1983549160031b92831b921b1916179055565b600190815f6145d9565b90506020813d8211614653575b8161464460209383613566565b8101031261156157515f6145b0565b3d9150614637565b9163ffffffff169182156147055777ffffffffffffffffffffffffffffffffffffffffffffffff82116146c15777ffffffffffffffffffffffffffffffffffffffffffffffff67ffffffffffffffff6146b7613e6c9543613917565b169216905f6147dd565b606460405162461bcd60e51b815260206004820152601260248201527f6d696e74206c6f636b206f766572666c6f7700000000000000000000000000006044820152fd5b505050565b9067ffffffffffffffff61471e8284614209565b921680156147415767ffffffffffffffff809216021661473b5790565b60010190565b505090565b8115614750570490565b7f4e487b71000000000000000000000000000000000000000000000000000000005f52601260045260245ffd5b5f90815b81518310156147ac576147a460019161479a8585613706565b51600f0b90614aa6565b920191614781565b91505090565b5f9190825b81518410156147d8576147d060019161479a8685613706565b9301926147b7565b925050565b9177ffffffffffffffffffffffffffffffffffffffffffffffff909491939416918215614a9f576014810173ffffffffffffffffffffffffffffffffffffffff85165f5280602052601360405f2092019173ffffffffffffffffffffffffffffffffffffffff86165f528260205260405f2054908054905b818310614a69575b505073ffffffffffffffffffffffffffffffffffffffff959095165f908152602083815260408083208890559281529190209181528154959194906148a28288613798565b1015614a25575b85811080614a03575b156148bf576001016148a9565b94680100000000000000008110156123a457600181018086556148e282876136c0565b5050811161192657925b8386811115614980575f19019361490385876136c0565b50908086116119265761491690876136c0565b613f7857818103614929575b50506148ec565b8154815477ffffffffffffffffffffffffffffffffffffffffffffffff9091167fffffffffffffffff0000000000000000000000000000000000000000000000009182168117835592541690911790555f80614922565b50925092936149af9194604051936149978561354a565b845267ffffffffffffffff60208501951685526136c0565b919091613f785751915160c01b7fffffffffffffffff0000000000000000000000000000000000000000000000001677ffffffffffffffffffffffffffffffffffffffffffffffff92909216919091179055565b50614a0e81866136c0565b505460c01c67ffffffffffffffff831610156148b2565b606460405162461bcd60e51b815260206004820152601360248201527f6d696e74206c6f636b206c6973742066756c6c000000000000000000000000006044820152fd5b9091614a7581836136c0565b5043905460c01c11614a995780614a916138e8600193856136c0565b019190614855565b9161485d565b5092505050565b90600f0b90600f0b017fffffffffffffffffffffffffffffffff800000000000000000000000000000008112158061436c571561156157600f0b90565b905f809160208151910182855af18080614b98575b15614b185750506040513d81523d5f602083013e60203d82010160405290565b15614b5f5773ffffffffffffffffffffffffffffffffffffffff907f9996b315000000000000000000000000000000000000000000000000000000005f521660045260245ffd5b3d15614b70576040513d5f823e3d90fd5b7fd6bda275000000000000000000000000000000000000000000000000000000005f5260045ffd5b503d151580614af85750813b1515614af856fea2646970667358221220d6f5bc6f740ccea18293df77a0209068e4f34aedf19ae8d2d91cfb952bd52f1c64736f6c63430008230033","linkReferences":{}},"methodIdentifiers":{"collectProtocolFees(address)":"2a54db01","enforceTransferLocks(address,address,uint256)":"403e14c0","init(IPartyPoolDeployer.DeployParams)":"6b2a12e8","initialMint(address,uint256,int128,uint256[])":"2d4bc500","lockedBalanceOf(address)":"59355736","mint(PartyPoolExtraImpl1.MintArgs)":"867dafe5","mintAmounts(uint256,uint256,uint256[])":"cdc2468b"},"id":56}