{"abi":[{"type":"constructor","inputs":[{"name":"planner_","type":"address","internalType":"contract IPartyPlanner"},{"name":"info_","type":"address","internalType":"contract IPartyInfo"},{"name":"permit2_","type":"address","internalType":"contract IPermit2"},{"name":"keeperFeePpm_","type":"uint256","internalType":"uint256"},{"name":"nativeKeeperFee_","type":"uint256","internalType":"uint256"},{"name":"slippageTimeoutBlocks_","type":"uint256","internalType":"uint256"}],"stateMutability":"nonpayable"},{"type":"receive","stateMutability":"payable"},{"type":"function","name":"KEEPER_FEE_PPM","inputs":[],"outputs":[{"name":"","type":"uint256","internalType":"uint256"}],"stateMutability":"view"},{"type":"function","name":"NATIVE","inputs":[],"outputs":[{"name":"","type":"address","internalType":"contract IERC20"}],"stateMutability":"view"},{"type":"function","name":"NATIVE_KEEPER_FEE","inputs":[],"outputs":[{"name":"","type":"uint256","internalType":"uint256"}],"stateMutability":"view"},{"type":"function","name":"PERMIT2","inputs":[],"outputs":[{"name":"","type":"address","internalType":"contract IPermit2"}],"stateMutability":"view"},{"type":"function","name":"SLIPPAGE_TIMEOUT_BLOCKS","inputs":[],"outputs":[{"name":"","type":"uint256","internalType":"uint256"}],"stateMutability":"view"},{"type":"function","name":"_skimKeeperFee","inputs":[{"name":"token","type":"address","internalType":"contract IERC20"},{"name":"from","type":"address","internalType":"address"},{"name":"to","type":"address","internalType":"address"},{"name":"amount","type":"uint256","internalType":"uint256"}],"outputs":[],"stateMutability":"nonpayable"},{"type":"function","name":"_skimKeeperFeePermit2","inputs":[{"name":"token","type":"address","internalType":"contract IERC20"},{"name":"from","type":"address","internalType":"address"},{"name":"to","type":"address","internalType":"address"},{"name":"amount","type":"uint256","internalType":"uint256"}],"outputs":[],"stateMutability":"nonpayable"},{"type":"function","name":"burn","inputs":[{"name":"pool","type":"address","internalType":"contract IPartyPool"},{"name":"recipient","type":"address","internalType":"address"},{"name":"lpAmount","type":"uint256","internalType":"uint256"},{"name":"minAmountsOut","type":"uint256[]","internalType":"uint256[]"},{"name":"deadline","type":"uint256","internalType":"uint256"},{"name":"unwrap","type":"bool","internalType":"bool"}],"outputs":[{"name":"withdrawAmounts","type":"uint256[]","internalType":"uint256[]"}],"stateMutability":"nonpayable"},{"type":"function","name":"burnPermit2","inputs":[{"name":"payer","type":"address","internalType":"address"},{"name":"pool","type":"address","internalType":"contract IPartyPool"},{"name":"recipient","type":"address","internalType":"address"},{"name":"lpAmount","type":"uint256","internalType":"uint256"},{"name":"minAmountsOut","type":"uint256[]","internalType":"uint256[]"},{"name":"deadline","type":"uint256","internalType":"uint256"},{"name":"unwrap","type":"bool","internalType":"bool"},{"name":"permitNonce","type":"uint256","internalType":"uint256"},{"name":"sigDeadline","type":"uint256","internalType":"uint256"},{"name":"signature","type":"bytes","internalType":"bytes"}],"outputs":[{"name":"withdrawAmounts","type":"uint256[]","internalType":"uint256[]"}],"stateMutability":"nonpayable"},{"type":"function","name":"burnSwap","inputs":[{"name":"pool","type":"address","internalType":"contract IPartyPool"},{"name":"tokenOut","type":"address","internalType":"contract IERC20"},{"name":"recipient","type":"address","internalType":"address"},{"name":"lpAmount","type":"uint256","internalType":"uint256"},{"name":"minAmountOut","type":"uint256","internalType":"uint256"},{"name":"deadline","type":"uint256","internalType":"uint256"},{"name":"unwrap","type":"bool","internalType":"bool"}],"outputs":[{"name":"amountOut","type":"uint256","internalType":"uint256"},{"name":"outFee","type":"uint256","internalType":"uint256"}],"stateMutability":"nonpayable"},{"type":"function","name":"burnSwapPermit2","inputs":[{"name":"payer","type":"address","internalType":"address"},{"name":"pool","type":"address","internalType":"contract IPartyPool"},{"name":"tokenOut","type":"address","internalType":"contract IERC20"},{"name":"recipient","type":"address","internalType":"address"},{"name":"lpAmount","type":"uint256","internalType":"uint256"},{"name":"minAmountOut","type":"uint256","internalType":"uint256"},{"name":"deadline","type":"uint256","internalType":"uint256"},{"name":"unwrap","type":"bool","internalType":"bool"},{"name":"permitNonce","type":"uint256","internalType":"uint256"},{"name":"sigDeadline","type":"uint256","internalType":"uint256"},{"name":"signature","type":"bytes","internalType":"bytes"}],"outputs":[{"name":"amountOut","type":"uint256","internalType":"uint256"},{"name":"outFee","type":"uint256","internalType":"uint256"}],"stateMutability":"nonpayable"},{"type":"function","name":"cancelMintRequest","inputs":[{"name":"requestId","type":"uint256","internalType":"uint256"}],"outputs":[],"stateMutability":"nonpayable"},{"type":"function","name":"escrowedNativeFees","inputs":[],"outputs":[{"name":"","type":"uint256","internalType":"uint256"}],"stateMutability":"view"},{"type":"function","name":"executeMints","inputs":[{"name":"pool","type":"address","internalType":"contract IPartyPool"},{"name":"maxCount","type":"uint256","internalType":"uint256"}],"outputs":[{"name":"executed","type":"uint256","internalType":"uint256"}],"stateMutability":"nonpayable"},{"type":"function","name":"getMintRequest","inputs":[{"name":"requestId","type":"uint256","internalType":"uint256"}],"outputs":[{"name":"state","type":"uint8","internalType":"enum MintRequestState"},{"name":"request","type":"tuple","internalType":"struct MintRequest","components":[{"name":"requester","type":"address","internalType":"address"},{"name":"recipient","type":"address","internalType":"address"},{"name":"pool","type":"address","internalType":"contract IPartyPool"},{"name":"isSwapMint","type":"bool","internalType":"bool"},{"name":"usePermit2Allowance","type":"bool","internalType":"bool"},{"name":"inputTokenIndex","type":"uint8","internalType":"uint8"},{"name":"tolerancePpm","type":"uint32","internalType":"uint32"},{"name":"enqueueBlock","type":"uint64","internalType":"uint64"},{"name":"deadline","type":"uint64","internalType":"uint64"},{"name":"lpRemaining","type":"uint256","internalType":"uint256"},{"name":"nativeEscrow","type":"uint256","internalType":"uint256"}]}],"stateMutability":"view"},{"type":"function","name":"info","inputs":[],"outputs":[{"name":"","type":"address","internalType":"contract IPartyInfo"}],"stateMutability":"view"},{"type":"function","name":"isMintRequestLive","inputs":[{"name":"requestId","type":"uint256","internalType":"uint256"}],"outputs":[{"name":"","type":"bool","internalType":"bool"}],"stateMutability":"view"},{"type":"function","name":"liquidityPartySwapCallback","inputs":[{"name":"","type":"bytes32","internalType":"bytes32"},{"name":"token","type":"address","internalType":"contract IERC20"},{"name":"amount","type":"uint256","internalType":"uint256"},{"name":"cbData","type":"bytes","internalType":"bytes"}],"outputs":[],"stateMutability":"nonpayable"},{"type":"function","name":"mint","inputs":[{"name":"pool","type":"address","internalType":"contract IPartyPool"},{"name":"recipient","type":"address","internalType":"address"},{"name":"lpTokenAmount","type":"uint256","internalType":"uint256"},{"name":"maxAmountsIn","type":"uint256[]","internalType":"uint256[]"},{"name":"minLpOut","type":"uint256","internalType":"uint256"},{"name":"partialFillAllowed","type":"bool","internalType":"bool"},{"name":"deadline","type":"uint256","internalType":"uint256"},{"name":"useQueue","type":"bool","internalType":"bool"}],"outputs":[{"name":"lpMinted","type":"uint256","internalType":"uint256"},{"name":"gammaFilled","type":"uint256","internalType":"uint256"}],"stateMutability":"payable"},{"type":"function","name":"mintPermit2","inputs":[{"name":"payer","type":"address","internalType":"address"},{"name":"pool","type":"address","internalType":"contract IPartyPool"},{"name":"recipient","type":"address","internalType":"address"},{"name":"lpTokenAmount","type":"uint256","internalType":"uint256"},{"name":"maxAmountsIn","type":"uint256[]","internalType":"uint256[]"},{"name":"minLpOut","type":"uint256","internalType":"uint256"},{"name":"partialFillAllowed","type":"bool","internalType":"bool"},{"name":"deadline","type":"uint256","internalType":"uint256"},{"name":"permitNonce","type":"uint256","internalType":"uint256"},{"name":"sigDeadline","type":"uint256","internalType":"uint256"},{"name":"signature","type":"bytes","internalType":"bytes"}],"outputs":[{"name":"lpMinted","type":"uint256","internalType":"uint256"},{"name":"gammaFilled","type":"uint256","internalType":"uint256"}],"stateMutability":"nonpayable"},{"type":"function","name":"mintWithQueuePermit2Allowance","inputs":[{"name":"pool","type":"address","internalType":"contract IPartyPool"},{"name":"recipient","type":"address","internalType":"address"},{"name":"lpTokenAmount","type":"uint256","internalType":"uint256"},{"name":"minLpOut","type":"uint256","internalType":"uint256"},{"name":"deadline","type":"uint256","internalType":"uint256"},{"name":"permitBatch","type":"tuple","internalType":"struct IPermit2.PermitBatch","components":[{"name":"details","type":"tuple[]","internalType":"struct IPermit2.PermitDetails[]","components":[{"name":"token","type":"address","internalType":"address"},{"name":"amount","type":"uint160","internalType":"uint160"},{"name":"expiration","type":"uint48","internalType":"uint48"},{"name":"nonce","type":"uint48","internalType":"uint48"}]},{"name":"spender","type":"address","internalType":"address"},{"name":"sigDeadline","type":"uint256","internalType":"uint256"}]},{"name":"signature","type":"bytes","internalType":"bytes"}],"outputs":[{"name":"lpMinted","type":"uint256","internalType":"uint256"},{"name":"gammaFilled","type":"uint256","internalType":"uint256"}],"stateMutability":"payable"},{"type":"function","name":"planner","inputs":[],"outputs":[{"name":"","type":"address","internalType":"contract IPartyPlanner"}],"stateMutability":"view"},{"type":"function","name":"queueLength","inputs":[{"name":"pool","type":"address","internalType":"contract IPartyPool"}],"outputs":[{"name":"","type":"uint256","internalType":"uint256"}],"stateMutability":"view"},{"type":"function","name":"swap","inputs":[{"name":"pool","type":"address","internalType":"contract IPartyPool"},{"name":"tokenIn","type":"address","internalType":"contract IERC20"},{"name":"tokenOut","type":"address","internalType":"contract IERC20"},{"name":"recipient","type":"address","internalType":"address"},{"name":"maxAmountIn","type":"uint256","internalType":"uint256"},{"name":"minAmountOut","type":"uint256","internalType":"uint256"},{"name":"deadline","type":"uint256","internalType":"uint256"},{"name":"unwrap","type":"bool","internalType":"bool"}],"outputs":[{"name":"amountIn","type":"uint256","internalType":"uint256"},{"name":"amountOut","type":"uint256","internalType":"uint256"},{"name":"fee","type":"uint256","internalType":"uint256"}],"stateMutability":"payable"},{"type":"function","name":"swapMint","inputs":[{"name":"pool","type":"address","internalType":"contract IPartyPool"},{"name":"tokenIn","type":"address","internalType":"contract IERC20"},{"name":"recipient","type":"address","internalType":"address"},{"name":"lpAmountOut","type":"uint256","internalType":"uint256"},{"name":"maxAmountIn","type":"uint256","internalType":"uint256"},{"name":"minLpOut","type":"uint256","internalType":"uint256"},{"name":"partialFillAllowed","type":"bool","internalType":"bool"},{"name":"deadline","type":"uint256","internalType":"uint256"},{"name":"useQueue","type":"bool","internalType":"bool"}],"outputs":[{"name":"amountInUsed","type":"uint256","internalType":"uint256"},{"name":"lpMinted","type":"uint256","internalType":"uint256"},{"name":"inFee","type":"uint256","internalType":"uint256"},{"name":"gammaFilled","type":"uint256","internalType":"uint256"}],"stateMutability":"payable"},{"type":"function","name":"swapMintPermit2","inputs":[{"name":"payer","type":"address","internalType":"address"},{"name":"pool","type":"address","internalType":"contract IPartyPool"},{"name":"tokenIn","type":"address","internalType":"contract IERC20"},{"name":"recipient","type":"address","internalType":"address"},{"name":"lpAmountOut","type":"uint256","internalType":"uint256"},{"name":"maxAmountIn","type":"uint256","internalType":"uint256"},{"name":"minLpOut","type":"uint256","internalType":"uint256"},{"name":"partialFillAllowed","type":"bool","internalType":"bool"},{"name":"deadline","type":"uint256","internalType":"uint256"},{"name":"permitNonce","type":"uint256","internalType":"uint256"},{"name":"sigDeadline","type":"uint256","internalType":"uint256"},{"name":"signature","type":"bytes","internalType":"bytes"}],"outputs":[{"name":"amountInUsed","type":"uint256","internalType":"uint256"},{"name":"lpMinted","type":"uint256","internalType":"uint256"},{"name":"inFee","type":"uint256","internalType":"uint256"},{"name":"gammaFilled","type":"uint256","internalType":"uint256"}],"stateMutability":"nonpayable"},{"type":"function","name":"swapMintWithQueuePermit2Allowance","inputs":[{"name":"pool","type":"address","internalType":"contract IPartyPool"},{"name":"tokenIn","type":"address","internalType":"contract IERC20"},{"name":"recipient","type":"address","internalType":"address"},{"name":"lpAmountOut","type":"uint256","internalType":"uint256"},{"name":"minLpOut","type":"uint256","internalType":"uint256"},{"name":"deadline","type":"uint256","internalType":"uint256"},{"name":"permitSingle","type":"tuple","internalType":"struct IPermit2.PermitSingle","components":[{"name":"details","type":"tuple","internalType":"struct IPermit2.PermitDetails","components":[{"name":"token","type":"address","internalType":"address"},{"name":"amount","type":"uint160","internalType":"uint160"},{"name":"expiration","type":"uint48","internalType":"uint48"},{"name":"nonce","type":"uint48","internalType":"uint48"}]},{"name":"spender","type":"address","internalType":"address"},{"name":"sigDeadline","type":"uint256","internalType":"uint256"}]},{"name":"signature","type":"bytes","internalType":"bytes"}],"outputs":[{"name":"amountInUsed","type":"uint256","internalType":"uint256"},{"name":"lpMinted","type":"uint256","internalType":"uint256"},{"name":"inFee","type":"uint256","internalType":"uint256"},{"name":"gammaFilled","type":"uint256","internalType":"uint256"}],"stateMutability":"payable"},{"type":"function","name":"swapPermit2","inputs":[{"name":"payer","type":"address","internalType":"address"},{"name":"pool","type":"address","internalType":"contract IPartyPool"},{"name":"tokenIn","type":"address","internalType":"contract IERC20"},{"name":"tokenOut","type":"address","internalType":"contract IERC20"},{"name":"recipient","type":"address","internalType":"address"},{"name":"maxAmountIn","type":"uint256","internalType":"uint256"},{"name":"minAmountOut","type":"uint256","internalType":"uint256"},{"name":"deadline","type":"uint256","internalType":"uint256"},{"name":"unwrap","type":"bool","internalType":"bool"},{"name":"permitNonce","type":"uint256","internalType":"uint256"},{"name":"sigDeadline","type":"uint256","internalType":"uint256"},{"name":"signature","type":"bytes","internalType":"bytes"}],"outputs":[{"name":"amountIn","type":"uint256","internalType":"uint256"},{"name":"amountOut","type":"uint256","internalType":"uint256"},{"name":"fee","type":"uint256","internalType":"uint256"}],"stateMutability":"nonpayable"},{"type":"event","name":"MintQueued","inputs":[{"name":"requestId","type":"uint256","indexed":true,"internalType":"uint256"},{"name":"requester","type":"address","indexed":true,"internalType":"address"},{"name":"pool","type":"address","indexed":true,"internalType":"contract IPartyPool"},{"name":"recipient","type":"address","indexed":false,"internalType":"address"},{"name":"isSwapMint","type":"bool","indexed":false,"internalType":"bool"},{"name":"lpRemaining","type":"uint256","indexed":false,"internalType":"uint256"},{"name":"nativeEscrow","type":"uint256","indexed":false,"internalType":"uint256"},{"name":"deadline","type":"uint256","indexed":false,"internalType":"uint256"}],"anonymous":false},{"type":"event","name":"MintRequestCanceled","inputs":[{"name":"requestId","type":"uint256","indexed":true,"internalType":"uint256"},{"name":"canceler","type":"address","indexed":true,"internalType":"address"},{"name":"reason","type":"uint8","indexed":false,"internalType":"uint8"}],"anonymous":false},{"type":"error","name":"SafeERC20FailedOperation","inputs":[{"name":"token","type":"address","internalType":"address"}]}],"bytecode":{"object":"0x6101403461029357601f614dd638819003918201601f19168301916001600160401b038311848410176102975780849260c094604052833981010312610293578051906001600160a01b03821682036102935760208101516001600160a01b0381169290838103610293576040830151906001600160a01b03821682036102935760608401519260a0608086015195015195620f424085101561024e57861561020957156101c45760805260a05260c05260e05261010052610120526001600255604051614b2a90816102ac823960805181818161096c01528181610e500152818161101701528181611711015281816120ed01528181612a230152818161396e0152614913015260a0518181816101b90152818161103f015281816120320152613996015260c0518181816102340152818161031001528181610af1015281816110b40152818161133b015281816115fe0152818161187001528181612e3501528181613a1701528181613d8401528181613f240152614636015260e0518181816101e0015261163a015261010051818181610488015281816110850152818161130d015281816139e1015261460201526101205181818161020601526134a10152f35b60405162461bcd60e51b815260206004820152601460248201527f436f6e6369657267653a207a65726f20696e666f0000000000000000000000006044820152606490fd5b60405162461bcd60e51b815260206004820152601760248201527f436f6e6369657267653a207a65726f2074696d656f75740000000000000000006044820152606490fd5b60405162461bcd60e51b815260206004820152601d60248201527f436f6e6369657267653a206b656570657220666565203e3d20313030250000006044820152606490fd5b5f80fd5b634e487b7160e01b5f52604160045260245ffdfe60a080604052600436101561001c575b50361561001a575f80fd5b005b5f905f3560e01c90816301765ca31461348c575080631435e0c91461290d578063165d97d614612881578063171810cc1461277a57806322b22f92146125ec5780632502e3881461256c5780632f6c96241461211157806332e4e363146120cd5780633638419b14612056578063370158ea146120125780633a6bead014611b6b5780633ed056781461165d578063551c64e6146116225780636afdd850146115de5780636bf459ca146115285780637e5ce6c51461124457806386fa137414610f50578063877347e514610f2757806398f06f2c14610db8578063a02114af1461089d578063a0cf0aea1461086e578063b1d39ede146107ea578063b43b51441461077e578063b69b22d8146104ab578063c062599b14610470578063e63ac447146103bf578063f539fcb6146102d45763feb05e220361000f57346102d15760406003193601126102d1576101716134c4565b906001600160a01b03604051927fcc7d3d8600000000000000000000000000000000000000000000000000000000845216600483015260243560248301526001600160a01b037f00000000000000000000000000000000000000000000000000000000000000001660448301527f000000000000000000000000000000000000000000000000000000000000000060648301527f000000000000000000000000000000000000000000000000000000000000000060848301526001600160a01b037f00000000000000000000000000000000000000000000000000000000000000001660a483015260208260c48173__$d37394eb615f514b8e9f685ad43aba8269$__5af49081156102c5579061028e575b602090604051908152f35b506020813d6020116102bd575b816102a860209383613688565b810103126102b95760209051610283565b5f80fd5b3d915061029b565b604051903d90823e3d90fd5b80fd5b50346102d157806102e4366136c7565b916102f39391933033146142ad565b6103066001600160a01b03841115613c45565b6001600160a01b037f00000000000000000000000000000000000000000000000000000000000000001690813b156103bb576040517f36c785160000000000000000000000000000000000000000000000000000000081526001600160a01b039182166004820152948116602486015292831660448501529116606483015282908290608490829084905af180156103b05761039f5750f35b816103a991613688565b6102d15780f35b6040513d84823e3d90fd5b8580fd5b506101006003193601126102d1576103d56134c4565b6103dd613506565b9060643567ffffffffffffffff811161046c579161042b91610406604095943690600401613530565b909261041061358f565b91610419613580565b9460c4359460843593604435916144ec565b909147906003549182811161044a575b50505082519182526020820152f35b818061046494819303335af161045e61374e565b5061377d565b5f808061043b565b8380fd5b50346102d157806003193601126102d15760206040517f00000000000000000000000000000000000000000000000000000000000000008152f35b50346102d15760206003193601126102d157806101406040516104cd8161366b565b8281528260208201528260408201528260608201528260808201528260a08201528260c08201528260e082015282610100820152826101208201520152604051907fb69b22d800000000000000000000000000000000000000000000000000000000825260043560048301526101808260248173__$d37394eb615f514b8e9f685ad43aba8269$__5af49182156107715781908293610657575b5060405191600382101561062a5750610180926101409183526001600160a01b0381511660208401526001600160a01b0360208201511660408401526001600160a01b0360408201511660608401526060810151151560808401526080810151151560a084015260ff60a08201511660c084015263ffffffff60c08201511660e084015267ffffffffffffffff60e08201511661010084015267ffffffffffffffff61010082015116610120840152610120810151828401520151610160820152f35b807f4e487b7100000000000000000000000000000000000000000000000000000000602492526021600452fd5b925050816101803d811161076a575b6106708183613688565b810103610180811261076257825190600382101561076657601f1961016091011261076257604051926106a28461366b565b6106ae60208201613ace565b84526106bc60408201613ace565b602085015260608101516001600160a01b038116810361046c576040850152610160906106eb608082016141bd565b60608601526106fc60a082016141bd565b608086015261070d60c08201613af3565b60a086015261071e60e08201613ae2565b60c08601526107306101008201614458565b60e08601526107426101208201614458565b61010086015261014081015161012086015201516101408401525f610567565b5080fd5b8280fd5b503d610666565b50604051903d90823e3d90fd5b50346102d157806003193601126102d157604051907fb43b514400000000000000000000000000000000000000000000000000000000825260208260048173__$d37394eb615f514b8e9f685ad43aba8269$__5af49081156102c5579061028e57602090604051908152f35b50346102d15760206003193601126102d1576108046134c4565b906001600160a01b03604051927f901dada700000000000000000000000000000000000000000000000000000000845216600483015260208260248173__$d37394eb615f514b8e9f685ad43aba8269$__5af49081156102c5579061028e57602090604051908152f35b50346102d157806003193601126102d157602060405173eeeeeeeeeeeeeeeeeeeeeeeeeeeeeeeeeeeeeeee8152f35b50346102d1576101406003193601126102d1576108b86134c4565b6108c0613506565b916108c96134da565b926064359060843567ffffffffffffffff811161046c576108ee903690600401613530565b92909160a435966108fd613561565b610124359867ffffffffffffffff8a11610db45761092b6001600160a01b03969798999a369060040161359e565b96909416956040517ff31767250000000000000000000000000000000000000000000000000000000081528760048201526020816024816001600160a01b037f0000000000000000000000000000000000000000000000000000000000000000165afa8015610da9578b90610d6a575b6109a591506141ca565b60405160208101906109ca816109bc848e8e614424565b03601f198101835282613688565b51902060405160e081019c919067ffffffffffffffff8e11818f1017610d3d578c9d60409d9c9d5260c06001600160a01b038416928383528b60208401526001600160a01b038916928360408201528b60608201528160808201528760a082015288151592839101526040519260208401947ff2f0f30f1d5b431b4cd9d3f4ae4c47c47a116f50003e21d1253fbcd6da02d88f865260408501528c606085015260808401528a60a084015260c08301528560e08301526101008201526101008152610a9761012082613688565b5190209560405190610aa882613633565b89825288602083015260405191610abe8361364f565b825260e435602083015261010435604083015260405190610ade82613633565b3082528960208301526001600160a01b037f00000000000000000000000000000000000000000000000000000000000000001692610100610b226040519182613688565b60d581527f436f6e6369657267654275726e5769746e657373207769746e65737329436f6e60208201527f6369657267654275726e5769746e65737328616464726573732070617965722c60408201527f6164647265737320706f6f6c2c6164647265737320726563697069656e742c7560608201527f696e74323536206c70416d6f756e742c62797465733332206d696e416d6f756e60808201527f74734f7574486173682c75696e7432353620646561646c696e652c626f6f6c2060a08201527f756e7772617029546f6b656e5065726d697373696f6e7328616464726573732060c08201527f746f6b656e2c75696e7432353620616d6f756e7429000000000000000000000060e0820152843b15610d39578e968793610c75926040519d8e998a9889977f137c29fe0000000000000000000000000000000000000000000000000000000089526004890161422f565b03925af1938415610d2e578894610d0f575b5090610cc491604051998a98899788967f98f06f2c00000000000000000000000000000000000000000000000000000000885230600489016143e1565b03925af19081156103b05782610ce89392610cec575b505060405191829182613715565b0390f35b610d0892503d8091833e610d008183613688565b81019061432a565b5f80610cda565b84610d1d9195929395613688565b610d2a579186925f610c87565b8680fd5b6040513d8a823e3d90fd5b8e80fd5b60248d7f4e487b710000000000000000000000000000000000000000000000000000000081526041600452fd5b506020813d602011610da1575b81610d8460209383613688565b81010312610d9d57610d986109a5916141bd565b61099b565b8a80fd5b3d9150610d77565b6040513d8d823e3d90fd5b8780fd5b50346102d15760c06003193601126102d157610dd26134c4565b81610ddb613506565b9160443560643567ffffffffffffffff811161046c57610dff903690600401613530565b926001600160a01b03610e1061358f565b911692604051917ff31767250000000000000000000000000000000000000000000000000000000083528460048401526020836024816001600160a01b037f0000000000000000000000000000000000000000000000000000000000000000165afa8015610f1c5787938491610ed6575b5090610e8f610cc4926141ca565b610e9b83303389614975565b604051988997889687957f98f06f2c0000000000000000000000000000000000000000000000000000000087526084359330600489016143e1565b919350506020813d602011610f14575b81610ef360209383613688565b81010312610d2a578692610e8f610f0c610cc4936141bd565b919250610e81565b3d9150610ee6565b6040513d89823e3d90fd5b50346102d157610f4d610f39366136c7565b92610f489291923033146142ad565b614975565b80f35b506101a06003193601126102d157610f666134c4565b90610f6f613506565b610f776134da565b9060643560c07fffffffffffffffffffffffffffffffffffffffffffffffffffffffffffffff3c36011261046c576101843567ffffffffffffffff8111611240579163ffffffff91610fd56001600160a01b0394369060040161359e565b94909581610fe560843585614739565b94816040519b7f72beca64000000000000000000000000000000000000000000000000000000008d521660048c0152817f00000000000000000000000000000000000000000000000000000000000000001660248c0152817f00000000000000000000000000000000000000000000000000000000000000001660448c01521660648a015216608488015260a48701521660c485015260a43560e48501527f00000000000000000000000000000000000000000000000000000000000000006101048501526001600160a01b037f00000000000000000000000000000000000000000000000000000000000000001661012485015260c4356001600160a01b03811680910361046c5761014485015260e4356001600160a01b03811680910361046c576101648501526101043565ffffffffffff811680910361046c576101848501526101243565ffffffffffff811680910361046c576101a4850152610144356001600160a01b03811680910361046c57611185608093869384936101c4850152610164356101e485015261022061020485015261022484019161415d565b038173__$d37394eb615f514b8e9f685ad43aba8269$__5af4801561077157819082808092611206575b610ce8939495504790600354918281116111ea575b505050604051948594859094939260609260808301968352602083015260408201520152565b81806111fe94819303335af161045e61374e565b5f80806111c4565b935050505061122f610ce89260803d608011611239575b6112278183613688565b8101906137e2565b91945084936111af565b503d61121d565b8480fd5b5060e06003193601126102d1576112596134c4565b611261613506565b60a4359060443567ffffffffffffffff8311611240578236039260606003198501126103bb5760c43567ffffffffffffffff8111610d2a576112ac63ffffffff91369060040161359e565b9490936001600160a01b036112c360643583614739565b92816040519a7f8b36594f000000000000000000000000000000000000000000000000000000008c521660048b0152166024890152604488015216606486015260843560848601527f000000000000000000000000000000000000000000000000000000000000000060a48601526001600160a01b037f00000000000000000000000000000000000000000000000000000000000000001660c486015261012060e48601526101848501937fffffffffffffffffffffffffffffffffffffffffffffffffffffffffffffffdd82600401359101811215610d2a5781016024600482013591019467ffffffffffffffff8211610db4578160071b36038613610db45790808795969493926060610124880152526101a48501939088905b8082106114a3575050509160409461142a926044856001600160a01b0361140960248a990161351c565b1661014488015201356101648601526003198584030161010486015261415d565b038173__$d37394eb615f514b8e9f685ad43aba8269$__5af480156103b05782604093928192611471575b50600354904782811161044a5750505082519182526020820152f35b9092506114949150833d851161149c575b61148c8183613688565b810190613a9d565b90915f611455565b503d611482565b919695509192936001600160a01b036114bb8861351c565b1681526020870135906001600160a01b0382168092036115245760808160019360208394015265ffffffffffff6114f460408c0161429a565b16604082015265ffffffffffff61150d60608c0161429a565b1660608201520197019201879596949392916113df565b8980fd5b50346102d15760206003193601126102d157604051907f6bf459ca000000000000000000000000000000000000000000000000000000008252600435600483015260208260248173__$d37394eb615f514b8e9f685ad43aba8269$__5af49081156102c55780916115a1575b6020826040519015158152f35b90506020823d6020116115d6575b816115bc60209383613688565b810103126102d157506115d06020916141bd565b5f611594565b3d91506115af565b50346102d157806003193601126102d15760206040516001600160a01b037f0000000000000000000000000000000000000000000000000000000000000000168152f35b50346102d157806003193601126102d15760206040517f00000000000000000000000000000000000000000000000000000000000000008152f35b50346102d1576101606003193601126102d1576116786134c4565b611680613506565b916116896134da565b926116926134f0565b9260843560a4359460c435936116a6613580565b976101443567ffffffffffffffff8111610db4576116c890369060040161359e565b90956001600160a01b038416966040517ff31767250000000000000000000000000000000000000000000000000000000081528860048201526020816024816001600160a01b037f0000000000000000000000000000000000000000000000000000000000000000165afa8015610da9578b90611b30575b61174a91506141ca565b6001600160a01b0384168c15611b12575b8760e08a928f8f908e8c926001600160a01b036040519461177b86613616565b818c16998a875260208701521696876040860152856060860152608085015260a084015260c0830152151592839101526040519260208401947f17b383364eb448f628c0ba99b02147bbf3da86597c31249910ba545424f21f18865260408501528c6060850152608084015260a08301528960c08301528d60e08301528b610100830152610120820152610120815261181661014082613688565b5190209260405161182681613633565b8981528860208201526040519061183c8261364f565b81526101043560208201526101243560408201526040519161185d83613633565b3083528960208401526001600160a01b037f000000000000000000000000000000000000000000000000000000000000000016936101206118a16040519182613688565b60e981527f436f6e6369657267654275726e537761705769746e657373207769746e65737360208201527f29436f6e6369657267654275726e537761705769746e6573732861646472657360408201527f732070617965722c6164647265737320706f6f6c2c616464726573732072656360608201527f697069656e742c6164647265737320746f6b656e4f75742c75696e743235362060808201527f6c70416d6f756e742c75696e74323536206d696e416d6f756e744f75742c756960a08201527f6e7432353620646561646c696e652c626f6f6c20756e7772617029546f6b656e60c08201527f5065726d697373696f6e73286164647265737320746f6b656e2c75696e74323560e08201527f3620616d6f756e74290000000000000000000000000000000000000000000000610100820152853b15610d39578e9695949391928793611a20926040519a8b998a9889977f137c29fe0000000000000000000000000000000000000000000000000000000089526004890161422f565b03925af18015610d2e57611afd575b50869798611a4e83611a48611abd9460409b97966147e3565b906148c5565b9688519a8b98899788967f96d75bf6000000000000000000000000000000000000000000000000000000008852306004890195926001600160a01b0360c0969399989592998160e08a019b16895216602088015260408701526060860152608085015260a08401521515910152565b03925af18015610771576040928291611ade575b5082519182526020820152f35b9050611af79150823d841161149c5761148c8183613688565b5f611ad1565b611b08888092613688565b610d2a575f611a2f565b73eeeeeeeeeeeeeeeeeeeeeeeeeeeeeeeeeeeeeeee81149c5061175b565b506020813d602011611b63575b81611b4a60209383613688565b81010312610d9d57611b5e61174a916141bd565b611740565b3d9150611b3d565b50346102d1576101806003193601126102d157611b866134c4565b90611b8f613506565b90611b986134da565b92611ba16134f0565b93608435906001600160a01b03821680920361046c5760a4359460c4359160e43597611bcb613570565b6101643567ffffffffffffffff811161200e57928695928895928b611c0c73eeeeeeeeeeeeeeeeeeeeeeeeeeeeeeeeeeeeeeee9c9d9e97369060040161359e565b999092611c256001600160a01b0387169e8f14156140f8565b6001600160a01b0385168115611ff0575b6001600160a01b0388169e8f9281604051809e611c52826135cc565b6001600160a01b031696878252866020830152604082015260600152858d84608082015260a001528b8d8c60c082015260e001521515610100819d01526040519260208401947f69f45b2975050f829e8cd7ad4c0d8159ac9a619159840bcf7722f863fadcea878652604085015260608401528d608084015260a083015260c08201528260e08201528761010082015288610120820152896101408201526101408152611d0161016082613688565b51902060405190611d1461012083613688565b60f48252602082017f436f6e636965726765537761705769746e657373207769746e65737329436f6e9052604082017f636965726765537761705769746e65737328616464726573732070617965722c9052606082017f6164647265737320706f6f6c2c6164647265737320726563697069656e742c619052608082017f64647265737320746f6b656e496e2c6164647265737320746f6b656e4f75742c905260a082017f75696e74323536206d6178416d6f756e74496e2c75696e74323536206d696e41905260c082017f6d6f756e744f75742c75696e7432353620646561646c696e652c626f6f6c2075905260e082017f6e7772617029546f6b656e5065726d697373696f6e7328616464726573732074905261010082017f6f6b656e2c75696e7432353620616d6f756e742900000000000000000000000090526040519a8b94610144359461012435956020880196611e6f9761417d565b03601f1981018852611e819088613688565b611e8b90836147e3565b97611e96908a6148a4565b611ea090826148c5565b96611eaa916148c5565b98604051998a9788977f4ae93e1d0000000000000000000000000000000000000000000000000000000089523060048a0152602489017f2502e38800000000000000000000000000000000000000000000000000000000905260448901526064880152608487015260a486015260c485015260e4840152610104830152610124820161014090526101448201611f3f91613c20565b0381845a94606095f18015610771578190828091611fb7575b610ce89293945080805d8060015d8060025d8060035d6003549047828111611f9b575b505050604051938493846040919493926060820195825260208201520152565b8180611faf94819303335af161045e61374e565b5f8080611f7b565b92505050611fdf610ce89260603d606011611fe9575b611fd78183613688565b810190613ab3565b9093508392611f58565b503d611fcd565b73eeeeeeeeeeeeeeeeeeeeeeeeeeeeeeeeeeeeeeee81149150611c36565b8880fd5b50346102d157806003193601126102d15760206040516001600160a01b037f0000000000000000000000000000000000000000000000000000000000000000168152f35b50346102d15760206003193601126102d1578073__$d37394eb615f514b8e9f685ad43aba8269$__803b156120ca5781602491604051928380927f3638419b00000000000000000000000000000000000000000000000000000000825260043560048301525af480156103b05761039f5750f35b50fd5b50346102d157806003193601126102d15760206040516001600160a01b037f0000000000000000000000000000000000000000000000000000000000000000168152f35b50346102d1576101806003193601126102d15761212c6134c4565b90612135613506565b61213d6134da565b926121466134f0565b6084359460a4359360c435612159613580565b9161010435936101643567ffffffffffffffff8111611524579188979593918b9997959336906004019061218c9161359e565b9790966001600160a01b0383166121b973eeeeeeeeeeeeeeeeeeeeeeeeeeeeeeeeeeeeeeee8214156140f8565b6001600160a01b0385169c8d9189604051996121d48b6135cc565b6001600160a01b03871695868c528560208d01526001600160a01b03169e8f60408d01528360608d01528460808d015260a08c01528960c08c01521515998a60e082015261010001526040519260208401947f499caf7ded662848f4bf65be0d33970c9879df86ea26524bdebab34e2986e46b8652604085015260608401528c608084015260a083015260c08201528b60e0820152856101008201528661012082015287610140820152610140815261228f61016082613688565b519020968a61014098604051906122a68b83613688565b6101078252602082017f436f6e636965726765537761704d696e745769746e657373207769746e6573739052604082017f29436f6e636965726765537761704d696e745769746e657373286164647265739052606082017f732070617965722c6164647265737320706f6f6c2c61646472657373207265639052608082017f697069656e742c6164647265737320746f6b656e496e2c75696e74323536206c905260a082017f70416d6f756e744f75742c75696e74323536206d6178416d6f756e74496e2c75905260c082017f696e74323536206d696e4c704f75742c626f6f6c207061727469616c46696c6c905260e082017f416c6c6f7765642c75696e7432353620646561646c696e6529546f6b656e5065905261010082017f726d697373696f6e73286164647265737320746f6b656e2c75696e7432353620905261012082017f616d6f756e74290000000000000000000000000000000000000000000000000090526040519b8c9461014435946101243595602088019661242a9761417d565b03601f198101895261243c9089613688565b612446908b6148a4565b61244f916148c5565b966040519a8b9889987f8258a856000000000000000000000000000000000000000000000000000000008a523060048b015260248a017f2502e38800000000000000000000000000000000000000000000000000000000905260448a01526064890152608488015260a487015260c486015260e485015261010484015261012483015261014482016124e091613c20565b0381845a94608095f1801561077157819082808092612542575b610ce89394955080805d8060015d8060025d8060035d60035490478281116111ea57505050604051948594859094939260609260808301968352602083015260408201520152565b9350505050612562610ce89260803d608011611239576112278183613688565b91945084936124fa565b50346102d15760806003193601126102d157612586613506565b60643567ffffffffffffffff8111610766573660238201121561076657806004013591836125b3846136ab565b926125c16040519485613688565b84845236602486830101116107625784610f4d95602460209301838701378401015260443590613caa565b506101006003193601126102d1576126026134c4565b9060606001600160a01b03610164612618613506565b846126216134da565b6126296134f0565b9261263c612635613580565b918a6147e3565b9161266761264a828c6147e3565b612661898d169561265b3388614884565b8d6148c5565b9b6148c5565b90821561275a575b50604051998a9788967f4ae93e1d0000000000000000000000000000000000000000000000000000000088523060048901527f2502e3880000000000000000000000000000000000000000000000000000000060248901521660448701526064860152608485015260843560a485015260a43560c485015260c43560e48501521515610104840152610140610124840152816101448401525af18015610771578190828091611fb757610ce89293945080805d8060015d8060025d8060035d6003549047828111611f9b57505050604051938493846040919493926060820195825260208201520152565b871673eeeeeeeeeeeeeeeeeeeeeeeeeeeeeeeeeeeeeeee1491505f61266f565b50346102d15760e06003193601126102d1576127946134c4565b61279c613506565b916127a56134da565b91606435906127b2613561565b936127dc6127c087846147e3565b6001600160a01b038416936127d786303388614975565b6148c5565b95851561285a575b50604080517f96d75bf60000000000000000000000000000000000000000000000000000000081523060048201526001600160a01b03909216602483015260448201939093526064810195909552608480359086015260a480359086015292151560c48501529091839081848160e48101611abd565b6001600160a01b031673eeeeeeeeeeeeeeeeeeeeeeeeeeeeeeeeeeeeeeee149450836127e4565b506101206003193601126102d157610ce8906128d661289e6134c4565b6128a6613506565b906128af6134da565b6128b7613561565b906128c0613570565b9360e4359360a435926084359260643592613804565b919492934790600354918281116111ea57505050604051948594859094939260609260808301968352602083015260408201520152565b50346102b9576101606003193601126102b9576129286134c4565b612930613506565b916129396134da565b60843567ffffffffffffffff81116102b957612959903690600401613530565b60805293612965613561565b90610144359167ffffffffffffffff83116102b9576001600160a01b036129918194369060040161359e565b94909381604051996129a28b6135cc565b1689521694856020890152166040870152606435606087015260a4356080870152151560a086015260e43560c08601526101043560e0860152610100850192610124358452604051907ff317672500000000000000000000000000000000000000000000000000000000825260048201526020816024816001600160a01b037f0000000000000000000000000000000000000000000000000000000000000000165afa801561322e575f90613451575b612a5c91506141ca565b60045f6001600160a01b03602088015116604051928380927f6ff97f1d0000000000000000000000000000000000000000000000000000000082525afa90811561322e575f91613437575b5051608051036133d9576001600160a01b0385969551166001600160a01b036020880151166001600160a01b03604089015116606089015188604051612af9816109bc60208201809560805190614424565b51902060808b01519060a08c015115159260c08d0151948560e0604051612b1f81613616565b8a81528960208201528360408201528460608201528560808201528660a08201528760c082015201526040519660208801987f6da70357bf9214232b6b80ac7cc32ea043bc5c802fd2ecdb8d6efb77e3f19d878a5260408901526060880152608087015260a086015260c085015260e08401526101008301526101208201526101208152612baf61014082613688565b51902091612bbe608051614312565b92612bcc6040519485613688565b6080518452601f19612bdf608051614312565b013660208601375f5b60805181106133b157506004906001600160a01b0360208a015116906001600160a01b038a511660e08b01519751965f61012094612c296040519687613688565b60f686527f436f6e6369657267654d696e745769746e657373207769746e65737329436f6e60208701527f6369657267654d696e745769746e65737328616464726573732070617965722c60408701527f6164647265737320706f6f6c2c6164647265737320726563697069656e742c7560608701527f696e74323536206c70546f6b656e416d6f756e742c62797465733332206d617860808701527f416d6f756e7473496e486173682c75696e74323536206d696e4c704f75742c6260a08701527f6f6f6c207061727469616c46696c6c416c6c6f7765642c75696e74323536206460c08701527f6561646c696e6529546f6b656e5065726d697373696f6e73286164647265737360e08701527f20746f6b656e2c75696e7432353620616d6f756e742900000000000000000000610100870152604051968780927f6ff97f1d0000000000000000000000000000000000000000000000000000000082525afa94851561322e575f95613395575b508451612da481614312565b91612db26040519384613688565b818352601f19612dc183614312565b015f5b818110613372575050612dd682614312565b96612de46040519889613688565b828852601f19612df384614312565b015f5b81811061334f5750508d5f5b8481106132c157505050505060405190612e1b8261364f565b815260208101988952604081019788526001600160a01b037f00000000000000000000000000000000000000000000000000000000000000001697883b156102b9576040517ffe8ec1a700000000000000000000000000000000000000000000000000000000815260c060048201529151606060c484015280516101248401819052929a8b999897969594936101448b019392602001905f5b81811061327a575050505160e48a015251610104890152600319888203016024890152602080865192838152019501905f5b81811061323957505050948694612f1d5f9997958795612f2f958c9860448901526064880152600319878303016084880152613c20565b916003198584030160a486015261415d565b03925af1801561322e5761321b575b506001600160a01b036020840151166001600160a01b038451166001600160a01b0360015c166131bd57825d60015d5f60025d600260035d60406001600160a01b036020850151166001600160a01b0382860151169060608601519484608088015196612feb60a08a0151151560c08b01519088519a8b98899788967f8678102f000000000000000000000000000000000000000000000000000000008852608051923060048a0161446d565b03925af19182156107715781908293613198575b509060049181805d8160015d8160025d8160035d816001600160a01b038060208801511696511695604051948580927f6ff97f1d0000000000000000000000000000000000000000000000000000000082525afa9283156103b0578293613174575b50815b8351811015613137578060206001600160a01b0361308460249488614ae0565b5116604051938480927f70a082310000000000000000000000000000000000000000000000000000000082523060048301525afa801561312c5784906130fa575b60019250806130d6575b5001613064565b6130f490886001600160a01b036130ed858a614ae0565b5116614a31565b5f6130cf565b506020823d8211613124575b8161311360209383613688565b810103126102b957600191516130c5565b3d9150613106565b6040513d86823e3d90fd5b50836040924790600354918281116131585750505082519182526020820152f35b818061316c94819303335af161045e61374e565b83808061043b565b6131919193503d8084833e6131898183613688565b8101906146ae565b915f613061565b60049293506131b6915060403d60401161149c5761148c8183613688565b9291612fff565b60646040517f08c379a000000000000000000000000000000000000000000000000000000000815260206004820152600960248201527f7265656e7472616e7400000000000000000000000000000000000000000000006044820152fd5b61322791505f90613688565b5f5f612f3e565b6040513d5f823e3d90fd5b91969798509192939460206040826132676001948b51602080916001600160a01b0381511684520151910152565b0197019101918a98979695949392612ee6565b9195969798999a9b5091929360206040826132ab6001948a51602080916001600160a01b0381511684520151910152565b0196019101918d9b9a9998979695949392612eb4565b6001916132e6826001600160a01b036132da8288614ae0565b51169260805190614aa3565b35604051916132f483613633565b825260208201526133058288614ae0565b526133108187614ae0565b5061331b8185614ae0565b516040519061332982613633565b308252602082015261333b828c614ae0565b52613346818b614ae0565b50018e90612e02565b60209060405161335e81613633565b5f81525f8382015282828d01015201612df6565b60209060405161338181613633565b5f81525f8382015282828801015201612dc4565b6133aa9195503d805f833e6131898183613688565b935f612d98565b806133c460019260809b9a9b518c614aa3565b356133cf8288614ae0565b5201979697612be8565b60646040517f08c379a000000000000000000000000000000000000000000000000000000000815260206004820152601360248201527f6d6178416d6f756e7473496e206c656e677468000000000000000000000000006044820152fd5b61344b91503d805f833e6131898183613688565b5f612aa7565b506020813d602011613484575b8161346b60209383613688565b810103126102b95761347f612a5c916141bd565b612a52565b3d915061345e565b346102b9575f6003193601126102b9576020907f00000000000000000000000000000000000000000000000000000000000000008152f35b600435906001600160a01b03821682036102b957565b604435906001600160a01b03821682036102b957565b606435906001600160a01b03821682036102b957565b602435906001600160a01b03821682036102b957565b35906001600160a01b03821682036102b957565b9181601f840112156102b95782359167ffffffffffffffff83116102b9576020808501948460051b0101116102b957565b60c4359081151582036102b957565b610104359081151582036102b957565b60e4359081151582036102b957565b60a4359081151582036102b957565b9181601f840112156102b95782359167ffffffffffffffff83116102b957602083818601950101116102b957565b610120810190811067ffffffffffffffff8211176135e957604052565b7f4e487b71000000000000000000000000000000000000000000000000000000005f52604160045260245ffd5b610100810190811067ffffffffffffffff8211176135e957604052565b6040810190811067ffffffffffffffff8211176135e957604052565b6060810190811067ffffffffffffffff8211176135e957604052565b610160810190811067ffffffffffffffff8211176135e957604052565b90601f601f19910116810190811067ffffffffffffffff8211176135e957604052565b67ffffffffffffffff81116135e957601f01601f191660200190565b60031960809101126102b9576004356001600160a01b03811681036102b957906024356001600160a01b03811681036102b957906044356001600160a01b03811681036102b9579060643590565b60206040818301928281528451809452019201905f5b8181106137385750505090565b825184526020938401939092019160010161372b565b3d15613778573d9061375f826136ab565b9161376d6040519384613688565b82523d5f602084013e565b606090565b1561378457565b60646040517f08c379a000000000000000000000000000000000000000000000000000000000815260206004820152601160248201527f45544820726566756e64206661696c65640000000000000000000000000000006044820152fd5b91908260809103126102b9578151916020810151916060604083015192015190565b97969492969593919561391e57936001600160a01b0395935f9389936138416138336101649960809c9d6147e3565b8a8716966127d73389614884565b9a6040519b8c9a8b997f8258a856000000000000000000000000000000000000000000000000000000008b523060048c01527f2502e3880000000000000000000000000000000000000000000000000000000060248c01521660448a01526064890152608488015260a487015260c4860152151560e4850152610104840152610140610124840152816101448401525af1801561322e575f915f915f915f916138fb575b50909192935f805d5f60015d5f60025d5f60035d565b92505050613918915060803d608011611239576112278183613688565b5f6138e5565b92946001600160a01b0380925061393c889463ffffffff9799614739565b94816040519a7fdd044316000000000000000000000000000000000000000000000000000000008c521660048b0152817f00000000000000000000000000000000000000000000000000000000000000001660248b0152817f00000000000000000000000000000000000000000000000000000000000000001660448b015216606489015216608487015260a48601521660c4840152151560e48301526101048201527f00000000000000000000000000000000000000000000000000000000000000006101248201525f6101448201526001600160a01b037f0000000000000000000000000000000000000000000000000000000000000000166101648201526080816101848173__$d37394eb615f514b8e9f685ad43aba8269$__5af4801561322e575f925f935f935f93613a75575b5093929190565b9250509250613a93915060803d608011611239576112278183613688565b919390925f613a6e565b91908260409103126102b9576020825192015190565b908160609103126102b9578051916040602083015192015190565b51906001600160a01b03821682036102b957565b519063ffffffff821682036102b957565b519060ff821682036102b957565b90816101209103126102b95760405190613b1a826135cc565b80516001600160a01b03811681036102b957825260208101516001600160a01b03811681036102b957613bae91610100916020850152613b5c60408201613ace565b60408501526060810151606085015260808101516080850152613b8160a08201613ae2565b60a0850152613b9260c08201613af3565b60c0850152613ba360e08201613ae2565b60e085015201613ae2565b61010082015290565b929192613bc3826136ab565b91613bd16040519384613688565b8294818452818301116102b9578281602093845f96015e010152565b6040606091613c10848251602080916001600160a01b0381511684520151910152565b6020810151828501520151910152565b90601f19601f602080948051918291828752018686015e5f8582860101520116010190565b15613c4c57565b60646040517f08c379a000000000000000000000000000000000000000000000000000000000815260206004820152601860248201527f7065726d6974323a20616d6f756e74206f766572666c6f7700000000000000006044820152fd5b5f906001600160a01b0360015c16330361409a576040517ffdf536650000000000000000000000000000000000000000000000000000000081526101208160048160015c6001600160a01b03165afa801561322e576001600160a01b03915f9161406b575b505116936001600160a01b038216948086148061405f575b613fef575060ff60035c169060018214613e42575060028114613e3457600314613d6457613d6293506001600160a01b0333925c1690614975565b565b509190613d7a6001600160a01b03821115613c45565b6001600160a01b037f0000000000000000000000000000000000000000000000000000000000000000166001600160a01b03845c1691813b15611240576040517f36c785160000000000000000000000000000000000000000000000000000000081526001600160a01b039384166004820152336024820152908316604482015292909116606483015282908290818381608481015b03925af180156103b057613e22575050565b613e2d828092613688565b6102d15750565b50613d629350339150614a31565b92949150508151820160c083602083019203126112405760208301516040840151606085015191608086015167ffffffffffffffff811161200e57860184603f8201121561200e57848160406020613e9d9401519101613bb7565b9360a08701519660c08101519067ffffffffffffffff8211610d9d570181603f82011215611524576020810151613ed79291604001613bb7565b9260405195613ee587613633565b8652602086015260405194613ef98661364f565b85526020850152604084015260405194613f1286613633565b33865260208601526001600160a01b037f000000000000000000000000000000000000000000000000000000000000000016936001600160a01b03875c16853b15610db45793613e10889694613fdc613fa3958995613fbe9b996040519c8d9b8c9a8b997f137c29fe000000000000000000000000000000000000000000000000000000008b5260048b0190613bed565b80516001600160a01b031660848a01526020015160a4890152565b60c487015260e4860152610140610104860152610144850190613c20565b9060031984830301610124850152613c20565b939450505050803b156102b957604051907fd0e30db00000000000000000000000000000000000000000000000000000000082525f8260048186855af190811561322e5761404692849261404f575b503390614a31565b60025c0360025d565b5f61405991613688565b5f61403e565b508460025c1015613d27565b61408d91506101203d8111614093575b6140858183613688565b810190613b01565b5f613d0f565b503d61407b565b60646040517f08c379a000000000000000000000000000000000000000000000000000000000815260206004820152601560248201527f756e617574686f72697a65642063616c6c6261636b00000000000000000000006044820152fd5b156140ff57565b60646040517f08c379a000000000000000000000000000000000000000000000000000000000815260206004820152601860248201527f7065726d6974323a206e6f206e617469766520696e70757400000000000000006044820152fd5b601f8260209493601f1993818652868601375f8582860101520116010190565b9391926141a7936141ba98969286526020860152604085015260c0606085015260c084019161415d565b92608082015260a0818403910152613c20565b90565b519081151582036102b957565b156141d157565b60646040517f08c379a000000000000000000000000000000000000000000000000000000000815260206004820152601060248201527f756e737570706f7274656420706f6f6c000000000000000000000000000000006044820152fd5b95939061428b9361426c6141ba9997946142518a6001600160a01b0395613bed565b80516001600160a01b031660808b01526020015160a08a0152565b1660c087015260e0860152610140610100860152610140850190613c20565b9261012081850391015261415d565b359065ffffffffffff821682036102b957565b156142b457565b60646040517f08c379a000000000000000000000000000000000000000000000000000000000815260206004820152600e60248201527f736b696d3a20696e7465726e616c0000000000000000000000000000000000006044820152fd5b67ffffffffffffffff81116135e95760051b60200190565b6020818303126102b95780519067ffffffffffffffff82116102b957019080601f830112156102b957815161435e81614312565b9261436c6040519485613688565b81845260208085019260051b8201019283116102b957602001905b8282106143945750505090565b8151815260209182019101614387565b90918281527f07ffffffffffffffffffffffffffffffffffffffffffffffffffffffffffffff83116102b95760209260051b809284830137010190565b9597969391926001600160a01b03614417948160a09894168952166020880152604087015260c0606087015260c08601916143a4565b9460808401521515910152565b91907f07ffffffffffffffffffffffffffffffffffffffffffffffffffffffffffffff81116102b95760051b809282370190565b519067ffffffffffffffff821682036102b957565b95969391926001600160a01b036144ca948160209b98941689527f2502e388000000000000000000000000000000000000000000000000000000008b8a0152166040880152606087015261012060808701526101208601916143a4565b9360a0840152151560c083015260e08201526101008183039101525f81520190565b98979691939695909295614598575f9291614550916001600160a01b036040999a9b169661451a3389614884565b89519a8b998a9889977f8678102f0000000000000000000000000000000000000000000000000000000089523060048a0161446d565b03925af1801561322e575f915f91614577575b5090915f805d5f60015d5f60025d5f60035d565b9050614592915060403d60401161149c5761148c8183613688565b5f614563565b94509450906001600160a01b036145b463ffffffff9483614739565b9281604051997fb012d55d000000000000000000000000000000000000000000000000000000008b521660048a015216602488015260448701521660648501521515608484015260a48301527f000000000000000000000000000000000000000000000000000000000000000060c48301525f60e48301526001600160a01b037f0000000000000000000000000000000000000000000000000000000000000000166101048301526040826101248173__$d37394eb615f514b8e9f685ad43aba8269$__5af491821561322e575f905f9361468e57509190565b90506146aa91925060403d60401161149c5761148c8183613688565b9091565b6020818303126102b95780519067ffffffffffffffff82116102b957019080601f830112156102b9578151906146e382614312565b926146f16040519485613688565b82845260208085019360051b8201019182116102b957602001915b8183106147195750505090565b82516001600160a01b03811681036102b95781526020928301920161470c565b80158080156147d9575b6147d257828203928284116147a557620f42408402938404620f42401490831417156147a5576147785763ffffffff91041690565b7f4e487b71000000000000000000000000000000000000000000000000000000005f52601260045260245ffd5b7f4e487b71000000000000000000000000000000000000000000000000000000005f52601160045260245ffd5b5050505f90565b5081831015614743565b906001600160a01b03811673eeeeeeeeeeeeeeeeeeeeeeeeeeeeeeeeeeeeeeee0361487f57506101206001600160a01b03916004604051809481937ffdf53665000000000000000000000000000000000000000000000000000000008352165afa801561322e576001600160a01b03915f91614860575b50511690565b61487991506101203d8111614093576140858183613688565b5f61485a565b905090565b906001600160a01b0360015c166131bd575f5d60015d3460025d5f60035d565b906001600160a01b0360015c166131bd575f5d60015d3460025d600160035d565b906001600160a01b039081604051937fbda87c190000000000000000000000000000000000000000000000000000000085521660048401521660248201526020816044816001600160a01b037f0000000000000000000000000000000000000000000000000000000000000000165afa90811561322e575f91614946575090565b90506020813d60201161496d575b8161496160209383613688565b810103126102b9575190565b3d9150614954565b9290916001600160a01b039081604051947f23b872dd000000000000000000000000000000000000000000000000000000005f52166004521660245260445260205f60648180865af19060015f5114821615614a10575b6040525f606052156149db5750565b6001600160a01b03907f5274afe7000000000000000000000000000000000000000000000000000000005f521660045260245ffd5b906001811516614a2857823b15153d151616906149cc565b503d5f823e3d90fd5b916001600160a01b03604051927fa9059cbb000000000000000000000000000000000000000000000000000000005f521660045260245260205f60448180865af19060015f5114821615614a8b575b604052156149db5750565b906001811516614a2857823b15153d15161690614a80565b9190811015614ab35760051b0190565b7f4e487b71000000000000000000000000000000000000000000000000000000005f52603260045260245ffd5b8051821015614ab35760209160051b01019056fea2646970667358221220e9e41a5f4f283773ca8ef2d3cf430fc04d6e627eb214d894f085273013227e7a64736f6c63430008230033","linkReferences":{"src/PartyConciergeExtraImpl.sol":{"PartyConciergeExtraImpl":[{"start":1293,"length":20},{"start":2030,"length":20},{"start":2666,"length":20},{"start":2798,"length":20},{"start":5173,"length":20},{"start":5850,"length":20},{"start":6173,"length":20},{"start":8983,"length":20},{"start":15602,"length":20},{"start":18705,"length":20}]}}},"methodIdentifiers":{"KEEPER_FEE_PPM()":"551c64e6","NATIVE()":"a0cf0aea","NATIVE_KEEPER_FEE()":"c062599b","PERMIT2()":"6afdd850","SLIPPAGE_TIMEOUT_BLOCKS()":"01765ca3","_skimKeeperFee(address,address,address,uint256)":"877347e5","_skimKeeperFeePermit2(address,address,address,uint256)":"f539fcb6","burn(address,address,uint256,uint256[],uint256,bool)":"98f06f2c","burnPermit2(address,address,address,uint256,uint256[],uint256,bool,uint256,uint256,bytes)":"a02114af","burnSwap(address,address,address,uint256,uint256,uint256,bool)":"171810cc","burnSwapPermit2(address,address,address,address,uint256,uint256,uint256,bool,uint256,uint256,bytes)":"3ed05678","cancelMintRequest(uint256)":"3638419b","escrowedNativeFees()":"b43b5144","executeMints(address,uint256)":"feb05e22","getMintRequest(uint256)":"b69b22d8","info()":"370158ea","isMintRequestLive(uint256)":"6bf459ca","liquidityPartySwapCallback(bytes32,address,uint256,bytes)":"2502e388","mint(address,address,uint256,uint256[],uint256,bool,uint256,bool)":"e63ac447","mintPermit2(address,address,address,uint256,uint256[],uint256,bool,uint256,uint256,uint256,bytes)":"1435e0c9","mintWithQueuePermit2Allowance(address,address,uint256,uint256,uint256,((address,uint160,uint48,uint48)[],address,uint256),bytes)":"7e5ce6c5","planner()":"32e4e363","queueLength(address)":"b1d39ede","swap(address,address,address,address,uint256,uint256,uint256,bool)":"22b22f92","swapMint(address,address,address,uint256,uint256,uint256,bool,uint256,bool)":"165d97d6","swapMintPermit2(address,address,address,address,uint256,uint256,uint256,bool,uint256,uint256,uint256,bytes)":"2f6c9624","swapMintWithQueuePermit2Allowance(address,address,address,uint256,uint256,uint256,((address,uint160,uint48,uint48),address,uint256),bytes)":"86fa1374","swapPermit2(address,address,address,address,address,uint256,uint256,uint256,bool,uint256,uint256,bytes)":"3a6bead0"},"id":46}