{"abi":[{"type":"constructor","inputs":[{"name":"planner_","type":"address","internalType":"contract IPartyPlanner"},{"name":"permit2_","type":"address","internalType":"contract IPermit2"}],"stateMutability":"nonpayable"},{"type":"receive","stateMutability":"payable"},{"type":"function","name":"NATIVE","inputs":[],"outputs":[{"name":"","type":"address","internalType":"contract IERC20"}],"stateMutability":"view"},{"type":"function","name":"PERMIT2","inputs":[],"outputs":[{"name":"","type":"address","internalType":"contract IPermit2"}],"stateMutability":"view"},{"type":"function","name":"burn","inputs":[{"name":"pool","type":"address","internalType":"contract IPartyPool"},{"name":"recipient","type":"address","internalType":"address"},{"name":"lpAmount","type":"uint256","internalType":"uint256"},{"name":"deadline","type":"uint256","internalType":"uint256"},{"name":"unwrap","type":"bool","internalType":"bool"}],"outputs":[{"name":"withdrawAmounts","type":"uint256[]","internalType":"uint256[]"}],"stateMutability":"nonpayable"},{"type":"function","name":"burnSwap","inputs":[{"name":"pool","type":"address","internalType":"contract IPartyPool"},{"name":"tokenOut","type":"address","internalType":"contract IERC20"},{"name":"recipient","type":"address","internalType":"address"},{"name":"lpAmount","type":"uint256","internalType":"uint256"},{"name":"minAmountOut","type":"uint256","internalType":"uint256"},{"name":"deadline","type":"uint256","internalType":"uint256"},{"name":"unwrap","type":"bool","internalType":"bool"}],"outputs":[{"name":"amountOut","type":"uint256","internalType":"uint256"},{"name":"outFee","type":"uint256","internalType":"uint256"}],"stateMutability":"nonpayable"},{"type":"function","name":"liquidityPartySwapCallback","inputs":[{"name":"","type":"bytes32","internalType":"bytes32"},{"name":"token","type":"address","internalType":"contract IERC20"},{"name":"amount","type":"uint256","internalType":"uint256"},{"name":"cbData","type":"bytes","internalType":"bytes"}],"outputs":[],"stateMutability":"nonpayable"},{"type":"function","name":"mint","inputs":[{"name":"pool","type":"address","internalType":"contract IPartyPool"},{"name":"recipient","type":"address","internalType":"address"},{"name":"lpTokenAmount","type":"uint256","internalType":"uint256"},{"name":"deadline","type":"uint256","internalType":"uint256"}],"outputs":[{"name":"lpMinted","type":"uint256","internalType":"uint256"}],"stateMutability":"payable"},{"type":"function","name":"planner","inputs":[],"outputs":[{"name":"","type":"address","internalType":"contract IPartyPlanner"}],"stateMutability":"view"},{"type":"function","name":"swap","inputs":[{"name":"pool","type":"address","internalType":"contract IPartyPool"},{"name":"tokenIn","type":"address","internalType":"contract IERC20"},{"name":"tokenOut","type":"address","internalType":"contract IERC20"},{"name":"recipient","type":"address","internalType":"address"},{"name":"maxAmountIn","type":"uint256","internalType":"uint256"},{"name":"minAmountOut","type":"uint256","internalType":"uint256"},{"name":"deadline","type":"uint256","internalType":"uint256"},{"name":"unwrap","type":"bool","internalType":"bool"}],"outputs":[{"name":"amountIn","type":"uint256","internalType":"uint256"},{"name":"amountOut","type":"uint256","internalType":"uint256"},{"name":"fee","type":"uint256","internalType":"uint256"}],"stateMutability":"payable"},{"type":"function","name":"swapMint","inputs":[{"name":"pool","type":"address","internalType":"contract IPartyPool"},{"name":"tokenIn","type":"address","internalType":"contract IERC20"},{"name":"recipient","type":"address","internalType":"address"},{"name":"lpAmountOut","type":"uint256","internalType":"uint256"},{"name":"maxAmountIn","type":"uint256","internalType":"uint256"},{"name":"deadline","type":"uint256","internalType":"uint256"}],"outputs":[{"name":"amountInUsed","type":"uint256","internalType":"uint256"},{"name":"lpMinted","type":"uint256","internalType":"uint256"},{"name":"inFee","type":"uint256","internalType":"uint256"}],"stateMutability":"payable"},{"type":"function","name":"swapMintPermit2","inputs":[{"name":"payer","type":"address","internalType":"address"},{"name":"pool","type":"address","internalType":"contract IPartyPool"},{"name":"tokenIn","type":"address","internalType":"contract IERC20"},{"name":"recipient","type":"address","internalType":"address"},{"name":"lpAmountOut","type":"uint256","internalType":"uint256"},{"name":"maxAmountIn","type":"uint256","internalType":"uint256"},{"name":"deadline","type":"uint256","internalType":"uint256"},{"name":"permitNonce","type":"uint256","internalType":"uint256"},{"name":"sigDeadline","type":"uint256","internalType":"uint256"},{"name":"signature","type":"bytes","internalType":"bytes"}],"outputs":[{"name":"amountInUsed","type":"uint256","internalType":"uint256"},{"name":"lpMinted","type":"uint256","internalType":"uint256"},{"name":"inFee","type":"uint256","internalType":"uint256"}],"stateMutability":"nonpayable"},{"type":"function","name":"swapPermit2","inputs":[{"name":"payer","type":"address","internalType":"address"},{"name":"pool","type":"address","internalType":"contract IPartyPool"},{"name":"tokenIn","type":"address","internalType":"contract IERC20"},{"name":"tokenOut","type":"address","internalType":"contract IERC20"},{"name":"recipient","type":"address","internalType":"address"},{"name":"maxAmountIn","type":"uint256","internalType":"uint256"},{"name":"minAmountOut","type":"uint256","internalType":"uint256"},{"name":"deadline","type":"uint256","internalType":"uint256"},{"name":"unwrap","type":"bool","internalType":"bool"},{"name":"permitNonce","type":"uint256","internalType":"uint256"},{"name":"sigDeadline","type":"uint256","internalType":"uint256"},{"name":"signature","type":"bytes","internalType":"bytes"}],"outputs":[{"name":"amountIn","type":"uint256","internalType":"uint256"},{"name":"amountOut","type":"uint256","internalType":"uint256"},{"name":"fee","type":"uint256","internalType":"uint256"}],"stateMutability":"nonpayable"},{"type":"error","name":"SafeERC20FailedOperation","inputs":[{"name":"token","type":"address","internalType":"address"}]}],"bytecode":{"object":"0x60c0346100a157601f61227738819003918201601f19168301916001600160401b038311848410176100a55780849260409485528339810103126100a1578051906001600160a01b03821682036100a15760200151906001600160a01b03821682036100a15760805260a0526040516121bd90816100ba823960805181818161097b015281816110770152611ee0015260a0518181816108a701526118c80152f35b5f80fd5b634e487b7160e01b5f52604160045260245ffdfe6080604052600436101561001a575b3615610018575f80fd5b005b5f3560e01c8063171810cc146112c557806322b22f92146111395780632502e3881461109b57806332e4e3631461102d5780633a6bead014610bac5780636863f5bc146108cb5780636afdd8501461085d578063a0cf0aea14610811578063a3f227051461039f578063b3f1c93d1461024c5763fb7f124a0361000e5760c07ffffffffffffffffffffffffffffffffffffffffffffffffffffffffffffffffc360112610248576100c9611436565b606073ffffffffffffffffffffffffffffffffffffffff6101246100eb611459565b5f6101146101016100fa61147c565b9388611cdf565b8588169761010f338a611f42565b611e78565b9560405196879586947fcd0a41980000000000000000000000000000000000000000000000000000000086523060048701527f2502e3880000000000000000000000000000000000000000000000000000000060248701521660448501526064840152606435608484015260843560a484015260a43560c484015261010060e4840152816101048401525af1801561023d575f905f925f91610206575b506101e3906101be61210b565b47806101e7575b50604051938493846040919493926060820195825260208201520152565b0390f35b5f80808061020094335af16101fa611587565b506115b6565b5f6101c5565b90506101e3925061022f915060603d606011610236575b61022781836114de565b81019061161b565b90926101b1565b503d61021d565b6040513d5f823e3d90fd5b5f80fd5b60807ffffffffffffffffffffffffffffffffffffffffffffffffffffffffffffffffc3601126102485761027e611436565b602073ffffffffffffffffffffffffffffffffffffffff60e4816102a0611459565b9416936102ad3386611f42565b5f60405195869485937ffbf40a7c0000000000000000000000000000000000000000000000000000000085523060048601527f2502e3880000000000000000000000000000000000000000000000000000000060248601521660448401526044356064840152606435608484015260c060a48401528160c48401525af1801561023d575f9061036c575b6020915061034361210b565b4780610353575b50604051908152f35b5f80808061036694335af16101fa611587565b8261034a565b506020813d602011610397575b81610386602093836114de565b810103126102485760209051610337565b3d9150610379565b34610248576101407ffffffffffffffffffffffffffffffffffffffffffffffffffffffffffffffffc360112610248576103d7611436565b6103df611459565b906103e861147c565b6103f061149f565b916084359360a4359260c4356101243567ffffffffffffffff81116102485761041d903690600401611559565b93909273ffffffffffffffffffffffffffffffffffffffff81169561045873eeeeeeeeeeeeeeeeeeeeeeeeeeeeeeeeeeeeeeee881415611c07565b73ffffffffffffffffffffffffffffffffffffffff8316986040519760e0890189811067ffffffffffffffff8211176107e4576040528573ffffffffffffffffffffffffffffffffffffffff841692838b528c60208c015273ffffffffffffffffffffffffffffffffffffffff16998a60408201528260608201528d60808201528b60a082015260c001526040519060208201927fc6b81d334df27308aa3069739321633756f94f16a6cabfc17072f4f4a4d33f51845260408301528b606083015289608083015260a08201528b60c08201528960e0820152856101008201526101008152610549610120826114de565b519020956101009560405161055e88826114de565b60de8152602081017f436f6e636965726765537761704d696e745769746e657373207769746e6573739052604081017f29436f6e636965726765537761704d696e745769746e657373286164647265739052606081017f732070617965722c6164647265737320706f6f6c2c61646472657373207265639052608081017f697069656e742c6164647265737320746f6b656e496e2c75696e74323536206c905260a081017f70416d6f756e744f75742c75696e74323536206d6178416d6f756e74496e2c75905260c081017f696e7432353620646561646c696e6529546f6b656e5065726d697373696f6e73905260e081017f286164647265737320746f6b656e2c75696e7432353620616d6f756e74290000905260405198899361010435938d60e43595602088019661069197611c6c565b037fffffffffffffffffffffffffffffffffffffffffffffffffffffffffffffffe0810187526106c190876114de565b6106cb9089612054565b6106d491611e78565b9460405197889687967fcd0a4198000000000000000000000000000000000000000000000000000000008852306004890152602488017f2502e38800000000000000000000000000000000000000000000000000000000905260448801526064870152608486015260a485015260c484015260e4830152610104820161075991611698565b03815a6060945f91f1801561023d575f905f925f916107bd575b506101e39061078061210b565b47806107a45750604051938493846040919493926060820195825260208201520152565b5f8080806107b794335af16101fa611587565b846101c5565b90506101e392506107dd915060603d6060116102365761022781836114de565b9092610773565b7f4e487b71000000000000000000000000000000000000000000000000000000005f52604160045260245ffd5b34610248575f7ffffffffffffffffffffffffffffffffffffffffffffffffffffffffffffffffc36011261024857602060405173eeeeeeeeeeeeeeeeeeeeeeeeeeeeeeeeeeeeeeee8152f35b34610248575f7ffffffffffffffffffffffffffffffffffffffffffffffffffffffffffffffffc36011261024857602060405173ffffffffffffffffffffffffffffffffffffffff7f0000000000000000000000000000000000000000000000000000000000000000168152f35b346102485760a07ffffffffffffffffffffffffffffffffffffffffffffffffffffffffffffffffc36011261024857610902611436565b61090a611459565b60443591608435908115158092036102485773ffffffffffffffffffffffffffffffffffffffff166040517ff317672500000000000000000000000000000000000000000000000000000000815281600482015260208160248173ffffffffffffffffffffffffffffffffffffffff7f0000000000000000000000000000000000000000000000000000000000000000165afa90811561023d575f91610b71575b5015610b13575f928360a49273ffffffffffffffffffffffffffffffffffffffff946109d988303385611da2565b60405197889687957f6863f5bc0000000000000000000000000000000000000000000000000000000087523060048801521660248601526044850152606435606485015260848401525af190811561023d575f91610a77575b506040518091602082016020835281518091526020604084019201905f5b818110610a5e575050500390f35b8251845285945060209384019390920191600101610a50565b90503d805f833e610a8881836114de565b8101906020818303126102485780519067ffffffffffffffff821161024857019080601f830112156102485781519167ffffffffffffffff83116107e4578260051b9060405193610adc60208401866114de565b845260208085019282010192831161024857602001905b828210610b035750505081610a32565b8151815260209182019101610af3565b60646040517f08c379a000000000000000000000000000000000000000000000000000000000815260206004820152601060248201527f756e737570706f7274656420706f6f6c000000000000000000000000000000006044820152fd5b90506020813d602011610ba4575b81610b8c602093836114de565b810103126102485751801515810361024857856109ab565b3d9150610b7f565b34610248576101807ffffffffffffffffffffffffffffffffffffffffffffffffffffffffffffffffc36011261024857610be4611436565b610bec611459565b90610bf561147c565b90610bfe61149f565b6084359073ffffffffffffffffffffffffffffffffffffffff82168092036102485760a4359460c43560e43590610104359283159788158503610248576101643567ffffffffffffffff811161024857610c5c903690600401611559565b969073ffffffffffffffffffffffffffffffffffffffff8316610c9573eeeeeeeeeeeeeeeeeeeeeeeeeeeeeeeeeeeeeeee821415611c07565b73ffffffffffffffffffffffffffffffffffffffff8316979b61100f575b73ffffffffffffffffffffffffffffffffffffffff85169b604051986101208a01908a821067ffffffffffffffff8311176107e4578f938f92938f8f9583918f9160405273ffffffffffffffffffffffffffffffffffffffff1696878252866020830152604082015260600152858d84608082015260a001528b8d8c60c082015260e001521515610100819d01526040519260208401947f69f45b2975050f829e8cd7ad4c0d8159ac9a619159840bcf7722f863fadcea878652604085015260608401528d608084015260a083015260c08201528260e08201528761010082015288610120820152896101408201526101408152610db3610160826114de565b51902060405190610dc6610120836114de565b60f48252602082017f436f6e636965726765537761705769746e657373207769746e65737329436f6e9052604082017f636965726765537761705769746e65737328616464726573732070617965722c9052606082017f6164647265737320706f6f6c2c6164647265737320726563697069656e742c619052608082017f64647265737320746f6b656e496e2c6164647265737320746f6b656e4f75742c905260a082017f75696e74323536206d6178416d6f756e74496e2c75696e74323536206d696e41905260c082017f6d6f756e744f75742c75696e7432353620646561646c696e652c626f6f6c2075905260e082017f6e7772617029546f6b656e5065726d697373696f6e7328616464726573732074905261010082017f6f6b656e2c75696e7432353620616d6f756e742900000000000000000000000090526040519a8b94610144359461012435956020880196610f2197611c6c565b037fffffffffffffffffffffffffffffffffffffffffffffffffffffffffffffffe081018852610f5190886114de565b610f5b9083611cdf565b97610f66908a612054565b610f709082611e78565b96610f7a91611e78565b9760405198899788977f4ae93e1d0000000000000000000000000000000000000000000000000000000089523060048a0152602489017f2502e38800000000000000000000000000000000000000000000000000000000905260448901526064880152608487015260a486015260c485015260e484015261010483015261012482016101409052610144820161075991611698565b73eeeeeeeeeeeeeeeeeeeeeeeeeeeeeeeeeeeeeeee88149b50610cb3565b34610248575f7ffffffffffffffffffffffffffffffffffffffffffffffffffffffffffffffffc36011261024857602060405173ffffffffffffffffffffffffffffffffffffffff7f0000000000000000000000000000000000000000000000000000000000000000168152f35b346102485760807ffffffffffffffffffffffffffffffffffffffffffffffffffffffffffffffffc360112610248576110d2611459565b6064359067ffffffffffffffff82116102485736602383011215610248578160040135906110ff8261151f565b9161110d60405193846114de565b8083523660248286010111610248576020815f92602461001897018387013784010152604435906116db565b6101007ffffffffffffffffffffffffffffffffffffffffffffffffffffffffffffffffc3601126102485761116c611436565b611174611459565b61117c61147c565b9061118561149f565b60e43590811592831583036102485760609473ffffffffffffffffffffffffffffffffffffffff94610164946111bc5f948a611cdf565b926111e76111ca828c611cdf565b6111e18a8d16966111db3389611f42565b8d611e78565b9b611e78565b91926112a5575b5060405198899788967f4ae93e1d0000000000000000000000000000000000000000000000000000000088523060048901527f2502e3880000000000000000000000000000000000000000000000000000000060248901521660448701526064860152608485015260843560a485015260a43560c485015260c43560e48501521515610104840152610140610124840152816101448401525af1801561023d575f905f925f916107bd57506101e39061078061210b565b871673eeeeeeeeeeeeeeeeeeeeeeeeeeeeeeeeeeeeeeee149150896111ee565b346102485760e07ffffffffffffffffffffffffffffffffffffffffffffffffffffffffffffffffc360112610248576112fc611436565b611304611459565b9061130d61147c565b916064359260c4359081159283158303610248578473ffffffffffffffffffffffffffffffffffffffff9460e4948361135c61134c5f9660409b611cdf565b8986169561010f8d30338a611da2565b9192611416575b50875198899788967f96d75bf600000000000000000000000000000000000000000000000000000000885230600489015216602487015260448601526064850152608435608485015260a43560a4850152151560c48401525af1801561023d575f905f906113dc575b6040809350519182526020820152f35b50506040813d60401161140e575b816113f7604093836114de565b8101031261024857806020604092519101516113cc565b3d91506113ea565b871673eeeeeeeeeeeeeeeeeeeeeeeeeeeeeeeeeeeeeeee14915089611363565b6004359073ffffffffffffffffffffffffffffffffffffffff8216820361024857565b6024359073ffffffffffffffffffffffffffffffffffffffff8216820361024857565b6044359073ffffffffffffffffffffffffffffffffffffffff8216820361024857565b6064359073ffffffffffffffffffffffffffffffffffffffff8216820361024857565b6040810190811067ffffffffffffffff8211176107e457604052565b90601f7fffffffffffffffffffffffffffffffffffffffffffffffffffffffffffffffe0910116810190811067ffffffffffffffff8211176107e457604052565b67ffffffffffffffff81116107e457601f017fffffffffffffffffffffffffffffffffffffffffffffffffffffffffffffffe01660200190565b9181601f840112156102485782359167ffffffffffffffff8311610248576020838186019501011161024857565b3d156115b1573d906115988261151f565b916115a660405193846114de565b82523d5f602084013e565b606090565b156115bd57565b60646040517f08c379a000000000000000000000000000000000000000000000000000000000815260206004820152601160248201527f45544820726566756e64206661696c65640000000000000000000000000000006044820152fd5b90816060910312610248578051916040602083015192015190565b90816020910312610248575173ffffffffffffffffffffffffffffffffffffffff811681036102485790565b92919261166e8261151f565b9161167c60405193846114de565b829481845281830111610248578281602093845f96015e010152565b907fffffffffffffffffffffffffffffffffffffffffffffffffffffffffffffffe0601f602080948051918291828752018686015e5f8582860101520116010190565b5f9273ffffffffffffffffffffffffffffffffffffffff60015c163303611ba9576040517f0d24621400000000000000000000000000000000000000000000000000000000815260208160048160015c73ffffffffffffffffffffffffffffffffffffffff165afa801561023d5773ffffffffffffffffffffffffffffffffffffffff915f91611b7a575b501673ffffffffffffffffffffffffffffffffffffffff83169080821480611b6e575b611a6a5750600160ff60035c16146117c3575050916117c19273ffffffffffffffffffffffffffffffffffffffff33925c1690611da2565b565b915091825183019160c08460208501940312611a6657602084015192604085015194606081015190608081015167ffffffffffffffff8111611a6257810183603f82011215611a625783816040602061181f9401519101611662565b9260a08201519160c08101519067ffffffffffffffff8211611a5e570181603f82011215611a2d5760208101516118599291604001611662565b9160405194611867866114c2565b85526020850152604051936060850185811067ffffffffffffffff821117611a315760405284526020840195865260408401968752604051946118a9866114c2565b338652602086015273ffffffffffffffffffffffffffffffffffffffff7f0000000000000000000000000000000000000000000000000000000000000000169473ffffffffffffffffffffffffffffffffffffffff895c1690863b15611a2d57936119ca8a989796939489956119fb946119ac611978996040519e8f9d8e9c8d9b7f137c29fe000000000000000000000000000000000000000000000000000000008d5260048d0190516020809173ffffffffffffffffffffffffffffffffffffffff81511684520151910152565b5160448b01525160648a0152805173ffffffffffffffffffffffffffffffffffffffff1660848a01526020015160a4890152565b60c487015260e4860152610140610104860152610144850190611698565b907ffffffffffffffffffffffffffffffffffffffffffffffffffffffffffffffffc84830301610124850152611698565b03925af18015611a2257611a0d575050565b611a188280926114de565b611a1f5750565b80fd5b6040513d84823e3d90fd5b8980fd5b60248a7f4e487b710000000000000000000000000000000000000000000000000000000081526041600452fd5b8a80fd5b8880fd5b8480fd5b92505050809291923b15610248576040517fd0e30db00000000000000000000000000000000000000000000000000000000081525f8160048187865af1801561023d57611b59575b506040517fa9059cbb000000000000000000000000000000000000000000000000000000008352336004528360245260208360448180865af1906001845114821615611b38575b60405215611b0c57505060025c0360025d565b602492507f5274afe7000000000000000000000000000000000000000000000000000000008252600452fd5b906001811516611b5057823b15153d15161690611af9565b503d83823e3d90fd5b611b669192505f906114de565b5f905f611ab2565b508460025c1015611789565b611b9c915060203d602011611ba2575b611b9481836114de565b810190611636565b5f611766565b503d611b8a565b60646040517f08c379a000000000000000000000000000000000000000000000000000000000815260206004820152601560248201527f756e617574686f72697a65642063616c6c6261636b00000000000000000000006044820152fd5b15611c0e57565b60646040517f08c379a000000000000000000000000000000000000000000000000000000000815260206004820152601860248201527f7065726d6974323a206e6f206e617469766520696e70757400000000000000006044820152fd5b929480611cdc98979560e0977fffffffffffffffffffffffffffffffffffffffffffffffffffffffffffffffe095601f9588526020880152604087015260c060608701528160c0870152878601375f8682860101520116810191608082015260a083828403019101520190611698565b90565b9073ffffffffffffffffffffffffffffffffffffffff811673eeeeeeeeeeeeeeeeeeeeeeeeeeeeeeeeeeeeeeee03611d9d5750602073ffffffffffffffffffffffffffffffffffffffff916004604051809481937f0d246214000000000000000000000000000000000000000000000000000000008352165afa801561023d5773ffffffffffffffffffffffffffffffffffffffff915f91611d8057501690565b611d99915060203d602011611ba257611b9481836114de565b1690565b905090565b92909173ffffffffffffffffffffffffffffffffffffffff9081604051947f23b872dd000000000000000000000000000000000000000000000000000000005f52166004521660245260445260205f60648180865af19060015f5114821615611e57575b6040525f60605215611e155750565b73ffffffffffffffffffffffffffffffffffffffff907f5274afe7000000000000000000000000000000000000000000000000000000005f521660045260245ffd5b906001811516611e6f57823b15153d15161690611e06565b503d5f823e3d90fd5b9073ffffffffffffffffffffffffffffffffffffffff9081604051937fbda87c1900000000000000000000000000000000000000000000000000000000855216600484015216602482015260208160448173ffffffffffffffffffffffffffffffffffffffff7f0000000000000000000000000000000000000000000000000000000000000000165afa90811561023d575f91611f13575090565b90506020813d602011611f3a575b81611f2e602093836114de565b81010312610248575190565b3d9150611f21565b73ffffffffffffffffffffffffffffffffffffffff60015c16611ff65773ffffffffffffffffffffffffffffffffffffffff8092167fffffffffffffffffffffffff00000000000000000000000000000000000000005f5c16175f5d167fffffffffffffffffffffffff000000000000000000000000000000000000000060015c161760015d3460025d7fffffffffffffffffffffffffffffffffffffffffffffffffffffffffffffff0060035c1660035d565b60646040517f08c379a000000000000000000000000000000000000000000000000000000000815260206004820152600960248201527f7265656e7472616e7400000000000000000000000000000000000000000000006044820152fd5b73ffffffffffffffffffffffffffffffffffffffff60015c16611ff65773ffffffffffffffffffffffffffffffffffffffff8092167fffffffffffffffffffffffff00000000000000000000000000000000000000005f5c16175f5d167fffffffffffffffffffffffff000000000000000000000000000000000000000060015c161760015d3460025d60017fffffffffffffffffffffffffffffffffffffffffffffffffffffffffffffff0060035c161760035d565b7fffffffffffffffffffffffff00000000000000000000000000000000000000005f5c165f5d7fffffffffffffffffffffffff000000000000000000000000000000000000000060015c1660015d5f60025d7fffffffffffffffffffffffffffffffffffffffffffffffffffffffffffffff0060035c1660035d56fea26469706673582212204430269179fef16138f79eac1e67bcfcc97845b277e97c9e29e50daa4db3188d64736f6c63430008230033","linkReferences":{}},"methodIdentifiers":{"NATIVE()":"a0cf0aea","PERMIT2()":"6afdd850","burn(address,address,uint256,uint256,bool)":"6863f5bc","burnSwap(address,address,address,uint256,uint256,uint256,bool)":"171810cc","liquidityPartySwapCallback(bytes32,address,uint256,bytes)":"2502e388","mint(address,address,uint256,uint256)":"b3f1c93d","planner()":"32e4e363","swap(address,address,address,address,uint256,uint256,uint256,bool)":"22b22f92","swapMint(address,address,address,uint256,uint256,uint256)":"fb7f124a","swapMintPermit2(address,address,address,address,uint256,uint256,uint256,uint256,uint256,bytes)":"a3f22705","swapPermit2(address,address,address,address,address,uint256,uint256,uint256,bool,uint256,uint256,bytes)":"3a6bead0"},"id":49}