{"abi":[{"type":"constructor","inputs":[{"name":"owner_","type":"address","internalType":"address"},{"name":"wrapper_","type":"address","internalType":"contract NativeWrapper"},{"name":"swapImpl_","type":"address","internalType":"contract PartyPoolSwapImpl"},{"name":"mintImpl_","type":"address","internalType":"contract PartyPoolMintImpl"},{"name":"poolInitCodeStorage_","type":"address","internalType":"contract PartyPoolInitCode"},{"name":"balancedPairInitCodeStorage_","type":"address","internalType":"contract PartyPoolBalancedPairInitCode"},{"name":"protocolFeePpm_","type":"uint256","internalType":"uint256"},{"name":"protocolFeeAddress_","type":"address","internalType":"address"}],"stateMutability":"nonpayable"},{"type":"function","name":"getAllPools","inputs":[{"name":"offset","type":"uint256","internalType":"uint256"},{"name":"limit","type":"uint256","internalType":"uint256"}],"outputs":[{"name":"pools","type":"address[]","internalType":"contract IPartyPool[]"}],"stateMutability":"view"},{"type":"function","name":"getAllTokens","inputs":[{"name":"offset","type":"uint256","internalType":"uint256"},{"name":"limit","type":"uint256","internalType":"uint256"}],"outputs":[{"name":"tokens","type":"address[]","internalType":"address[]"}],"stateMutability":"view"},{"type":"function","name":"getPoolSupported","inputs":[{"name":"pool","type":"address","internalType":"address"}],"outputs":[{"name":"","type":"bool","internalType":"bool"}],"stateMutability":"view"},{"type":"function","name":"getPoolsByToken","inputs":[{"name":"token","type":"address","internalType":"contract IERC20"},{"name":"offset","type":"uint256","internalType":"uint256"},{"name":"limit","type":"uint256","internalType":"uint256"}],"outputs":[{"name":"pools","type":"address[]","internalType":"contract IPartyPool[]"}],"stateMutability":"view"},{"type":"function","name":"mintImpl","inputs":[],"outputs":[{"name":"","type":"address","internalType":"contract PartyPoolMintImpl"}],"stateMutability":"view"},{"type":"function","name":"newPool","inputs":[{"name":"name_","type":"string","internalType":"string"},{"name":"symbol_","type":"string","internalType":"string"},{"name":"tokens_","type":"address[]","internalType":"contract IERC20[]"},{"name":"kappa_","type":"int128","internalType":"int128"},{"name":"swapFeesPpm_","type":"uint256[]","internalType":"uint256[]"},{"name":"flashFeePpm_","type":"uint256","internalType":"uint256"},{"name":"stable_","type":"bool","internalType":"bool"},{"name":"payer","type":"address","internalType":"address"},{"name":"receiver","type":"address","internalType":"address"},{"name":"initialDeposits","type":"uint256[]","internalType":"uint256[]"},{"name":"initialLpAmount","type":"uint256","internalType":"uint256"},{"name":"deadline","type":"uint256","internalType":"uint256"}],"outputs":[{"name":"pool","type":"address","internalType":"contract IPartyPool"},{"name":"lpAmount","type":"uint256","internalType":"uint256"}],"stateMutability":"nonpayable"},{"type":"function","name":"newPool","inputs":[{"name":"name_","type":"string","internalType":"string"},{"name":"symbol_","type":"string","internalType":"string"},{"name":"tokens_","type":"address[]","internalType":"contract IERC20[]"},{"name":"tradeFrac_","type":"int128","internalType":"int128"},{"name":"targetSlippage_","type":"int128","internalType":"int128"},{"name":"swapFeePpm_","type":"uint256","internalType":"uint256"},{"name":"flashFeePpm_","type":"uint256","internalType":"uint256"},{"name":"stable_","type":"bool","internalType":"bool"},{"name":"payer","type":"address","internalType":"address"},{"name":"receiver","type":"address","internalType":"address"},{"name":"initialDeposits","type":"uint256[]","internalType":"uint256[]"},{"name":"initialLpAmount","type":"uint256","internalType":"uint256"},{"name":"deadline","type":"uint256","internalType":"uint256"}],"outputs":[{"name":"pool","type":"address","internalType":"contract IPartyPool"},{"name":"lpAmount","type":"uint256","internalType":"uint256"}],"stateMutability":"nonpayable"},{"type":"function","name":"newPool","inputs":[{"name":"name_","type":"string","internalType":"string"},{"name":"symbol_","type":"string","internalType":"string"},{"name":"tokens_","type":"address[]","internalType":"contract IERC20[]"},{"name":"kappa_","type":"int128","internalType":"int128"},{"name":"swapFeePpm_","type":"uint256","internalType":"uint256"},{"name":"flashFeePpm_","type":"uint256","internalType":"uint256"},{"name":"stable_","type":"bool","internalType":"bool"},{"name":"payer","type":"address","internalType":"address"},{"name":"receiver","type":"address","internalType":"address"},{"name":"initialDeposits","type":"uint256[]","internalType":"uint256[]"},{"name":"initialLpAmount","type":"uint256","internalType":"uint256"},{"name":"deadline","type":"uint256","internalType":"uint256"}],"outputs":[{"name":"pool","type":"address","internalType":"contract IPartyPool"},{"name":"lpAmount","type":"uint256","internalType":"uint256"}],"stateMutability":"nonpayable"},{"type":"function","name":"owner","inputs":[],"outputs":[{"name":"","type":"address","internalType":"address"}],"stateMutability":"view"},{"type":"function","name":"params","inputs":[],"outputs":[{"name":"","type":"tuple","internalType":"struct IPartyPoolDeployer.DeployParams","components":[{"name":"nonce","type":"bytes32","internalType":"bytes32"},{"name":"owner","type":"address","internalType":"address"},{"name":"name","type":"string","internalType":"string"},{"name":"symbol","type":"string","internalType":"string"},{"name":"tokens","type":"address[]","internalType":"contract IERC20[]"},{"name":"kappa","type":"int128","internalType":"int128"},{"name":"fees","type":"uint256[]","internalType":"uint256[]"},{"name":"flashFeePpm","type":"uint256","internalType":"uint256"},{"name":"protocolFeePpm","type":"uint256","internalType":"uint256"},{"name":"protocolFeeAddress","type":"address","internalType":"address"},{"name":"wrapper","type":"address","internalType":"contract NativeWrapper"},{"name":"swapImpl","type":"address","internalType":"contract PartyPoolSwapImpl"},{"name":"mintImpl","type":"address","internalType":"contract PartyPoolMintImpl"}]}],"stateMutability":"view"},{"type":"function","name":"poolCount","inputs":[],"outputs":[{"name":"","type":"uint256","internalType":"uint256"}],"stateMutability":"view"},{"type":"function","name":"poolsByTokenCount","inputs":[{"name":"token","type":"address","internalType":"contract IERC20"}],"outputs":[{"name":"","type":"uint256","internalType":"uint256"}],"stateMutability":"view"},{"type":"function","name":"protocolFeeAddress","inputs":[],"outputs":[{"name":"","type":"address","internalType":"address"}],"stateMutability":"view"},{"type":"function","name":"protocolFeePpm","inputs":[],"outputs":[{"name":"","type":"uint256","internalType":"uint256"}],"stateMutability":"view"},{"type":"function","name":"renounceOwnership","inputs":[],"outputs":[],"stateMutability":"nonpayable"},{"type":"function","name":"setProtocolFeeAddress","inputs":[{"name":"feeAddress","type":"address","internalType":"address"}],"outputs":[],"stateMutability":"nonpayable"},{"type":"function","name":"swapImpl","inputs":[],"outputs":[{"name":"","type":"address","internalType":"contract PartyPoolSwapImpl"}],"stateMutability":"view"},{"type":"function","name":"tokenCount","inputs":[],"outputs":[{"name":"","type":"uint256","internalType":"uint256"}],"stateMutability":"view"},{"type":"function","name":"transferOwnership","inputs":[{"name":"newOwner","type":"address","internalType":"address"}],"outputs":[],"stateMutability":"nonpayable"},{"type":"function","name":"wrapper","inputs":[],"outputs":[{"name":"","type":"address","internalType":"contract NativeWrapper"}],"stateMutability":"view"},{"type":"event","name":"OwnershipTransferred","inputs":[{"name":"previousOwner","type":"address","indexed":true,"internalType":"address"},{"name":"newOwner","type":"address","indexed":true,"internalType":"address"}],"anonymous":false},{"type":"event","name":"PartyStarted","inputs":[{"name":"pool","type":"address","indexed":true,"internalType":"contract IPartyPool"},{"name":"name","type":"string","indexed":false,"internalType":"string"},{"name":"symbol","type":"string","indexed":false,"internalType":"string"},{"name":"tokens","type":"address[]","indexed":false,"internalType":"contract IERC20[]"}],"anonymous":false},{"type":"error","name":"OwnableInvalidOwner","inputs":[{"name":"owner","type":"address","internalType":"address"}]},{"type":"error","name":"OwnableUnauthorizedAccount","inputs":[{"name":"account","type":"address","internalType":"address"}]},{"type":"error","name":"SafeERC20FailedOperation","inputs":[{"name":"token","type":"address","internalType":"address"}]}],"bytecode":{"object":"0x610140346103a157601f613c0238819003918201601f19168301916001600160401b038311848410176103a557808492610100946040528339810103126103a157610049816103b9565b60208201519091906001600160a01b03811681036103a15760408201516001600160a01b038116908181036103a1576060840151926001600160a01b038416928385036103a15760808601516001600160a01b03811697908890036103a15760a08701516001600160a01b038116908190036103a1576100d060e060c08a015199016103b9565b9880156103505781156102f65760805260a0526001600160a01b03169182156102e357600f80546001600160a01b03198116851790915560405193906001600160a01b03167f8be0079c531659141344cd1fd0a4f28419497f9722a3daafe3b4186f6b6457e05f80a36101205215610290575060e0521561023a5760c052620f42408110156101f55761010052601080546001600160a01b0319166001600160a01b039290921691909117905560405161383490816103ce82396080518161287f015260a051816128b9015260c051818181610fb501528181611720015261261f015260e051818181610a51015281816116e301526125e20152610100518181816105f8015261164c0152610120518181816109e3015281816116a601526125a50152f35b60405162461bcd60e51b815260206004820152601c60248201527f506c616e6e65723a2070726f746f636f6c20666565203e3d2070706d000000006044820152606490fd5b60405162461bcd60e51b815260206004820152602860248201527f506c616e6e65723a206d696e74496d706c20616464726573732063616e6e6f74604482015267206265207a65726f60c01b6064820152608490fd5b62461bcd60e51b815260206004820152602860248201527f506c616e6e65723a2073776170496d706c20616464726573732063616e6e6f74604482015267206265207a65726f60c01b6064820152608490fd5b631e4fbdf760e01b5f525f60045260245ffd5b60405162461bcd60e51b815260206004820152602c60248201527f4465706c6f7965723a207a65726f2062616c616e63656420706169722073746f60448201526b72616765206164647265737360a01b6064820152608490fd5b60405162461bcd60e51b815260206004820152602360248201527f4465706c6f7965723a207a65726f20706f6f6c2073746f72616765206164647260448201526265737360e81b6064820152608490fd5b5f80fd5b634e487b7160e01b5f52604160045260245ffd5b51906001600160a01b03821682036103a15756fe60806040526004361015610011575f80fd5b5f3560e01c806314c870c01461015457806360cf7d4a1461014f5780636b4082d11461014a5780636b7b911214610145578063715018a6146101405780638da5cb5b1461013b5780639a043832146101365780639f181b5e14610131578063a4689b241461012c578063a7753f0914610127578063ac210cc714610122578063c405e4421461011d578063cce516b714610118578063cff0ab9614610113578063f0d1ae4f1461010e578063f2fde38b14610109578063f317672514610104578063f525cb68146100ff578063f63772fc146100fa5763f70a3a17146100f5575f80fd5b611262565b611172565b611137565b6110cb565b610fd9565b610f6b565b610d26565b610a75565b610a07565b610999565b610959565b610860565b610825565b61078e565b61073d565b6106a1565b61061b565b6105c3565b61048c565b6101ca565b73ffffffffffffffffffffffffffffffffffffffff81160361017757565b5f80fd5b60206040818301928281528451809452019201905f5b81811061019e5750505090565b825173ffffffffffffffffffffffffffffffffffffffff16845260209384019390920191600101610191565b346101775760607ffffffffffffffffffffffffffffffffffffffffffffffffffffffffffffffffc3601126101775761022361021760043561020b81610159565b60243560443591611437565b6040519182918261017b565b0390f35b7f4e487b71000000000000000000000000000000000000000000000000000000005f52604160045260245ffd5b6101a0810190811067ffffffffffffffff82111761027157604052565b610227565b90601f7fffffffffffffffffffffffffffffffffffffffffffffffffffffffffffffffe0910116810190811067ffffffffffffffff82111761027157604052565b604051906102c76101a083610276565b565b67ffffffffffffffff811161027157601f017fffffffffffffffffffffffffffffffffffffffffffffffffffffffffffffffe01660200190565b81601f820112156101775780359061031a826102c9565b926103286040519485610276565b8284526020838301011161017757815f926020809301838601378301015290565b67ffffffffffffffff81116102715760051b60200190565b9080601f8301121561017757813561037881610349565b926103866040519485610276565b81845260208085019260051b82010192831161017757602001905b8282106103ae5750505090565b6020809183356103bd81610159565b8152019101906103a1565b6064359081600f0b820361017757565b6084359081600f0b820361017757565b9080601f830112156101775781356103ff81610349565b9261040d6040519485610276565b81845260208085019260051b82010192831161017757602001905b8282106104355750505090565b8135815260209182019101610428565b60c43590811515820361017757565b60e43590811515820361017757565b60e435906102c782610159565b61010435906102c782610159565b61012435906102c782610159565b34610177576101807ffffffffffffffffffffffffffffffffffffffffffffffffffffffffffffffffc3601126101775760043567ffffffffffffffff8111610177576104dc903690600401610303565b60243567ffffffffffffffff8111610177576104fc903690600401610303565b9060443567ffffffffffffffff81116101775761051d903690600401610361565b916105266103c8565b9260843567ffffffffffffffff8111610177576105479036906004016103e8565b60a435610552610445565b61055a610463565b91610563610470565b93610124359867ffffffffffffffff8a11610177576105896105999a36906004016103e8565b966101443598610164359a61151d565b6040805173ffffffffffffffffffffffffffffffffffffffff939093168352602083019190915290f35b34610177575f7ffffffffffffffffffffffffffffffffffffffffffffffffffffffffffffffffc3601126101775760206040517f00000000000000000000000000000000000000000000000000000000000000008152f35b346101775760207ffffffffffffffffffffffffffffffffffffffffffffffffffffffffffffffffc3601126101775773ffffffffffffffffffffffffffffffffffffffff60043561066b81610159565b6106736127f2565b167fffffffffffffffffffffffff000000000000000000000000000000000000000060105416176010555f80f35b34610177575f7ffffffffffffffffffffffffffffffffffffffffffffffffffffffffffffffffc360112610177576106d76127f2565b5f73ffffffffffffffffffffffffffffffffffffffff600f547fffffffffffffffffffffffff00000000000000000000000000000000000000008116600f55167f8be0079c531659141344cd1fd0a4f28419497f9722a3daafe3b4186f6b6457e08280a3005b34610177575f7ffffffffffffffffffffffffffffffffffffffffffffffffffffffffffffffffc36011261017757602073ffffffffffffffffffffffffffffffffffffffff600f5416604051908152f35b346101775760407ffffffffffffffffffffffffffffffffffffffffffffffffffffffffffffffffc360112610177576107cb602435600435612036565b6040518091602082016020835281518091526020604084019201905f5b8181106107f6575050500390f35b825173ffffffffffffffffffffffffffffffffffffffff168452859450602093840193909201916001016107e8565b34610177575f7ffffffffffffffffffffffffffffffffffffffffffffffffffffffffffffffffc360112610177576020601254604051908152f35b34610177576101a07ffffffffffffffffffffffffffffffffffffffffffffffffffffffffffffffffc3601126101775760043567ffffffffffffffff8111610177576108b0903690600401610303565b60243567ffffffffffffffff8111610177576108d0903690600401610303565b9060443567ffffffffffffffff8111610177576108f1903690600401610361565b916108fa6103c8565b926109036103d8565b60a43560c435610911610454565b9061091a610470565b9261092361047e565b94610144359967ffffffffffffffff8b11610177576109496105999b36906004016103e8565b976101643599610184359b6120b9565b346101775760407ffffffffffffffffffffffffffffffffffffffffffffffffffffffffffffffffc36011261017757610223610217602435600435612215565b34610177575f7ffffffffffffffffffffffffffffffffffffffffffffffffffffffffffffffffc36011261017757602060405173ffffffffffffffffffffffffffffffffffffffff7f0000000000000000000000000000000000000000000000000000000000000000168152f35b34610177575f7ffffffffffffffffffffffffffffffffffffffffffffffffffffffffffffffffc36011261017757602060405173ffffffffffffffffffffffffffffffffffffffff7f0000000000000000000000000000000000000000000000000000000000000000168152f35b34610177575f7ffffffffffffffffffffffffffffffffffffffffffffffffffffffffffffffffc36011261017757602073ffffffffffffffffffffffffffffffffffffffff60105416604051908152f35b907fffffffffffffffffffffffffffffffffffffffffffffffffffffffffffffffe0601f602080948051918291828752018686015e5f8582860101520116010190565b90602080835192838152019201905f5b818110610b265750505090565b825173ffffffffffffffffffffffffffffffffffffffff16845260209384019390920191600101610b19565b90602080835192838152019201905f5b818110610b6f5750505090565b8251845260209384019390920191600101610b62565b602080825282518183015282015173ffffffffffffffffffffffffffffffffffffffff166040820152610d23906101a0610180610c83610c42610c0e610bda60408901518660608901526101c0880190610ac6565b60608901517fffffffffffffffffffffffffffffffffffffffffffffffffffffffffffffffe0888303016080890152610ac6565b60808801517fffffffffffffffffffffffffffffffffffffffffffffffffffffffffffffffe08783030160a0880152610b09565b60a0870151600f0b60c086015260c08701517fffffffffffffffffffffffffffffffffffffffffffffffffffffffffffffffe08683030160e0870152610b52565b9460e0810151610100850152610100810151610120850152610cc461012082015161014086019073ffffffffffffffffffffffffffffffffffffffff169052565b61014081015173ffffffffffffffffffffffffffffffffffffffff1661016085015261016081015173ffffffffffffffffffffffffffffffffffffffff1684830152015173ffffffffffffffffffffffffffffffffffffffff16910152565b90565b34610177575f7ffffffffffffffffffffffffffffffffffffffffffffffffffffffffffffffffc360112610177575f610180604051610d6481610254565b82815282602082015260606040820152606080820152606060808201528260a0820152606060c08201528260e0820152826101008201528261012082015282610140820152826101608201520152610223610dbd6102b7565b6002548152610e01610de460035473ffffffffffffffffffffffffffffffffffffffff1690565b73ffffffffffffffffffffffffffffffffffffffff166020830152565b610e096122d2565b6040820152610e166123a5565b6060820152610e2361243a565b6080820152610e41610e37600754600f0b90565b600f0b60a0830152565b610e49612498565b60c082015260095460e0820152600a54610100820152610e9f610e81600b5473ffffffffffffffffffffffffffffffffffffffff1690565b73ffffffffffffffffffffffffffffffffffffffff16610120830152565b610edf610ec1600c5473ffffffffffffffffffffffffffffffffffffffff1690565b73ffffffffffffffffffffffffffffffffffffffff16610140830152565b610f1f610f01600d5473ffffffffffffffffffffffffffffffffffffffff1690565b73ffffffffffffffffffffffffffffffffffffffff16610160830152565b610f5f610f41600e5473ffffffffffffffffffffffffffffffffffffffff1690565b73ffffffffffffffffffffffffffffffffffffffff16610180830152565b60405191829182610b85565b34610177575f7ffffffffffffffffffffffffffffffffffffffffffffffffffffffffffffffffc36011261017757602060405173ffffffffffffffffffffffffffffffffffffffff7f0000000000000000000000000000000000000000000000000000000000000000168152f35b346101775760207ffffffffffffffffffffffffffffffffffffffffffffffffffffffffffffffffc3601126101775773ffffffffffffffffffffffffffffffffffffffff60043561102981610159565b6110316127f2565b16801561109f5773ffffffffffffffffffffffffffffffffffffffff600f54827fffffffffffffffffffffffff0000000000000000000000000000000000000000821617600f55167f8be0079c531659141344cd1fd0a4f28419497f9722a3daafe3b4186f6b6457e05f80a3005b7f1e4fbdf7000000000000000000000000000000000000000000000000000000005f525f60045260245ffd5b346101775760207ffffffffffffffffffffffffffffffffffffffffffffffffffffffffffffffffc3601126101775773ffffffffffffffffffffffffffffffffffffffff60043561111b81610159565b165f526013602052602060ff60405f2054166040519015158152f35b34610177575f7ffffffffffffffffffffffffffffffffffffffffffffffffffffffffffffffffc360112610177576020601154604051908152f35b34610177576101807ffffffffffffffffffffffffffffffffffffffffffffffffffffffffffffffffc3601126101775760043567ffffffffffffffff8111610177576111c2903690600401610303565b60243567ffffffffffffffff8111610177576111e2903690600401610303565b9060443567ffffffffffffffff811161017757611203903690600401610361565b9161120c6103c8565b9260843560a43561121b610445565b611223610463565b9161122c610470565b93610124359867ffffffffffffffff8a11610177576112526105999a36906004016103e8565b966101443598610164359a6124e0565b346101775760207ffffffffffffffffffffffffffffffffffffffffffffffffffffffffffffffffc3601126101775773ffffffffffffffffffffffffffffffffffffffff6004356112b281610159565b165f526015602052602060405f2054604051908152f35b604051906112d8602083610276565b5f808352366020840137565b906112ee82610349565b6112fb6040519182610276565b8281527fffffffffffffffffffffffffffffffffffffffffffffffffffffffffffffffe06113298294610349565b0190602036910137565b7f4e487b71000000000000000000000000000000000000000000000000000000005f52601160045260245ffd5b9190820180921161136d57565b611333565b907fffffffffffffffffffffffffffffffffffffffffffffffffffffffffffffffff820191821161136d57565b9190820391821161136d57565b7f4e487b71000000000000000000000000000000000000000000000000000000005f52603260045260245ffd5b6012548110156113f15760125f5260205f2001905f90565b6113ac565b6011548110156113f15760115f5260205f2001905f90565b80548210156113f1575f5260205f2001905f90565b80518210156113f15760209160051b010190565b73ffffffffffffffffffffffffffffffffffffffff90929192165f52601560205260405f2090815480841015611511578184019081851161136d57808592115f1461150957611486925061139f565b905b611491826112e4565b925f5b8381106114a2575050505090565b806115036114de6114be6114b860019587611360565b8761140e565b905473ffffffffffffffffffffffffffffffffffffffff9160031b1c1690565b6114e88389611423565b9073ffffffffffffffffffffffffffffffffffffffff169052565b01611494565b505090611488565b50505050610d236112c9565b9a948b91979693946115568b9e979b61154c61168f969d61153c6127f2565b8015908115611ae2575b50611aed565b8c51905114611b52565b61157773ffffffffffffffffffffffffffffffffffffffff89161515611bdd565b61159873ffffffffffffffffffffffffffffffffffffffff8b161515611c68565b6115a65f87600f0b13611cf3565b6115b381518c5114611d58565b6116406115d5600f5473ffffffffffffffffffffffffffffffffffffffff1690565b966115f560105473ffffffffffffffffffffffffffffffffffffffff1690565b946116236116016102b7565b5f815273ffffffffffffffffffffffffffffffffffffffff909a1660208b0152565b60408901528a60608901528c608089015260a0880190600f0b9052565b60c086015260e08501527f000000000000000000000000000000000000000000000000000000000000000061010085015273ffffffffffffffffffffffffffffffffffffffff16610120840152565b73ffffffffffffffffffffffffffffffffffffffff7f00000000000000000000000000000000000000000000000000000000000000001661014083015273ffffffffffffffffffffffffffffffffffffffff7f00000000000000000000000000000000000000000000000000000000000000001661016083015273ffffffffffffffffffffffffffffffffffffffff7f00000000000000000000000000000000000000000000000000000000000000001661018083015280611ad7575b15611ac85761175a906128a4565b955b61176587611de3565b6117bb6117908873ffffffffffffffffffffffffffffffffffffffff165f52601360205260405f2090565b60017fffffffffffffffffffffffffffffffffffffffffffffffffffffffffffffff00825416179055565b5f5b86518110156118bb578061185d896118586117f76117dd6001968d611423565b5173ffffffffffffffffffffffffffffffffffffffff1690565b61183061182c6118258373ffffffffffffffffffffffffffffffffffffffff165f52601460205260405f2090565b5460ff1690565b1590565b6118635773ffffffffffffffffffffffffffffffffffffffff165f52601560205260405f2090565b611e75565b016117bd565b61186c81611ec9565b6118976117908273ffffffffffffffffffffffffffffffffffffffff165f52601460205260405f2090565b73ffffffffffffffffffffffffffffffffffffffff165f52601560205260405f2090565b509092959193967ff45e30d37dc5ef98e17708308b886213b8f485ea52d495067eed8d4977423f2273ffffffffffffffffffffffffffffffffffffffff841697889261190d8960405193849384611f5b565b0390a25f5b8551811015611a3d578089888761192a8a9584611423565b5161193d575b5050506001915001611912565b611958846119526117dd8261195f9899611423565b94611423565b51926128de565b61198861196f6117dd8389611423565b73ffffffffffffffffffffffffffffffffffffffff1690565b6040517f70a0823100000000000000000000000000000000000000000000000000000000815273ffffffffffffffffffffffffffffffffffffffff891660048201529190602090839060249082905afa918215611a38576001926119ff915f91611a0a575b506119f8838d611423565b5114611fac565b869150898887611930565b611a2b915060203d8111611a31575b611a238183610276565b810190611f92565b5f6119ed565b503d611a19565b611fa1565b506040517f6d8d0ff300000000000000000000000000000000000000000000000000000000815273ffffffffffffffffffffffffffffffffffffffff979097166004880152602487015294955093926020925085915060449082905f905af1928315611a38575f93611aae57509190565b610d2391935060203d602011611a3157611a238183610276565b611ad19061286c565b9561175c565b50600286511461174c565b90504211155f611546565b15611af457565b60646040517f08c379a000000000000000000000000000000000000000000000000000000000815260206004820152601a60248201527f506c616e6e65723a20646561646c696e652065786365656465640000000000006044820152fd5b15611b5957565b60846040517f08c379a000000000000000000000000000000000000000000000000000000000815260206004820152602c60248201527f506c616e6e65723a20746f6b656e7320616e64206465706f73697473206c656e60448201527f677468206d69736d6174636800000000000000000000000000000000000000006064820152fd5b15611be457565b60846040517f08c379a000000000000000000000000000000000000000000000000000000000815260206004820152602560248201527f506c616e6e65723a2070617965722063616e6e6f74206265207a65726f20616460448201527f64726573730000000000000000000000000000000000000000000000000000006064820152fd5b15611c6f57565b60846040517f08c379a000000000000000000000000000000000000000000000000000000000815260206004820152602860248201527f506c616e6e65723a2072656365697665722063616e6e6f74206265207a65726f60448201527f20616464726573730000000000000000000000000000000000000000000000006064820152fd5b15611cfa57565b60646040517f08c379a000000000000000000000000000000000000000000000000000000000815260206004820152601a60248201527f506c616e6e65723a206b61707061206d757374206265203e20300000000000006044820152fd5b15611d5f57565b60846040517f08c379a000000000000000000000000000000000000000000000000000000000815260206004820152602860248201527f506c616e6e65723a206665657320616e6420746f6b656e73206c656e6774682060448201527f6d69736d617463680000000000000000000000000000000000000000000000006064820152fd5b601154906801000000000000000082101561027157600182016011556011548210156113f15760115f527f31ecc21a745e3968a04e9570e4425bc18fa8019c68028196b546d1669c200c6890910180547fffffffffffffffffffffffff00000000000000000000000000000000000000001673ffffffffffffffffffffffffffffffffffffffff909216919091179055565b90815491680100000000000000008310156102715782611e9d9160016102c79501815561140e565b90919073ffffffffffffffffffffffffffffffffffffffff8084549260031b9316831b921b1916179055565b601254906801000000000000000082101561027157600182016012556012548210156113f15760125f527fbb8a6a4669ba250d26cd7a459eca9d215f8307e33aebe50379bc5a3617ec344490910180547fffffffffffffffffffffffff00000000000000000000000000000000000000001673ffffffffffffffffffffffffffffffffffffffff909216919091179055565b91611f8490611f76610d239593606086526060860190610ac6565b908482036020860152610ac6565b916040818403910152610b09565b90816020910312610177575190565b6040513d5f823e3d90fd5b15611fb357565b60846040517f08c379a0000000000000000000000000000000000000000000000000000000008152602060048201526024808201527f6665652d6f6e2d7472616e7366657220746f6b656e73206e6f7420737570706f60448201527f72746564000000000000000000000000000000000000000000000000000000006064820152fd5b9060125490818310156120ae5780830180841161136d578210156120a7575081810390811161136d575b612069816112e4565b915f5b8281106120795750505090565b806120a161209761196f6114be61209260019688611360565b6113d9565b6114e88388611423565b0161206c565b9050612060565b505050610d236112c9565b929b9a999897969594939b6120cc6127f2565b6801000000000000000081600f0b121561219157680100000000000000008d600f0b121561210d576121099c612103918451612cdb565b926124e0565b9091565b60846040517f08c379a000000000000000000000000000000000000000000000000000000000815260206004820152602b60248201527f506c616e6e65723a20746172676574536c697070616765206d7573742062652060448201527f3c2031202836342e3634290000000000000000000000000000000000000000006064820152fd5b60846040517f08c379a000000000000000000000000000000000000000000000000000000000815260206004820152602660248201527f506c616e6e65723a20747261646546726163206d757374206265203c2031202860448201527f36342e36342900000000000000000000000000000000000000000000000000006064820152fd5b9060115490818310156120ae5780830180841161136d5782101561227a575081810390811161136d575b612248816112e4565b915f5b8281106122585750505090565b8082019081831161136d576122746120976114be6001946113f6565b0161224b565b905061223f565b90600182811c921680156122c8575b602083101461229b57565b7f4e487b71000000000000000000000000000000000000000000000000000000005f52602260045260245ffd5b91607f1691612290565b604051905f82600454916122e583612281565b80835292600181169081156123685750600114612309575b6102c792500383610276565b5060045f90815290917f8a35acfbc15ff81a39ae7d344fd709f28e8600b4aa8c65c6b64bfe7fe36bd19b5b81831061234c5750509060206102c7928201016122fd565b6020919350806001915483858901015201910190918492612334565b602092506102c79491507fffffffffffffffffffffffffffffffffffffffffffffffffffffffffffffff001682840152151560051b8201016122fd565b604051905f82600554916123b883612281565b808352926001811690811561236857506001146123db576102c792500383610276565b5060055f90815290917f036b6384b5eca791c62761152d0c79bb0604c104a5fb6f4eb0703f3154bb3db05b81831061241e5750509060206102c7928201016122fd565b6020919350806001915483858901015201910190918492612406565b60405190600654808352826020810160065f5260205f20925f5b8181106124695750506102c792500383610276565b845473ffffffffffffffffffffffffffffffffffffffff16835260019485019487945060209093019201612454565b60405190600854808352826020810160085f5260205f20925f5b8181106124c75750506102c792500383610276565b84548352600194850194879450602090930192016124b2565b97949b91959996929093996124f36127f2565b86519c6124ff8e610349565b6040519e8f9161250f9083610276565b80825261251b90610349565b7fffffffffffffffffffffffffffffffffffffffffffffffffffffffffffffffe001903690602001375f9b60011c9b5b885181101561256b57808f6125648f9193600194611423565b520161254b565b50909396999c899c61258e94979a9396999c508e61154c6115569261153c6127f2565b73ffffffffffffffffffffffffffffffffffffffff7f00000000000000000000000000000000000000000000000000000000000000001661014083015273ffffffffffffffffffffffffffffffffffffffff7f00000000000000000000000000000000000000000000000000000000000000001661016083015273ffffffffffffffffffffffffffffffffffffffff7f000000000000000000000000000000000000000000000000000000000000000016610180830152806127e7575b156127d857612659906128a4565b955b61266487611de3565b61268f6117908873ffffffffffffffffffffffffffffffffffffffff165f52601360205260405f2090565b5f5b86518110156126b757806126b1896118586117f76117dd6001968d611423565b01612691565b509092959193967ff45e30d37dc5ef98e17708308b886213b8f485ea52d495067eed8d4977423f2273ffffffffffffffffffffffffffffffffffffffff84169788926127098960405193849384611f5b565b0390a25f5b8551811015611a3d57808988876127268a9584611423565b51612739575b505050600191500161270e565b611958846119526117dd8261274e9899611423565b61275e61196f6117dd8389611423565b6040517f70a0823100000000000000000000000000000000000000000000000000000000815273ffffffffffffffffffffffffffffffffffffffff891660048201529190602090839060249082905afa918215611a38576001926127cd915f91611a0a57506119f8838d611423565b86915089888761272c565b6127e19061286c565b9561265b565b50600286511461264b565b73ffffffffffffffffffffffffffffffffffffffff600f5416330361281357565b7f118cdaa7000000000000000000000000000000000000000000000000000000005f523360045260245ffd5b7fffffffffffffffffffffffffffffffffffffffffffffffffffffffffffffffff811461136d5760010190565b5f54610d239161287b8261283f565b5f557f0000000000000000000000000000000000000000000000000000000000000000906131b1565b600154610d23916128b48261283f565b6001557f0000000000000000000000000000000000000000000000000000000000000000906131b1565b92909173ffffffffffffffffffffffffffffffffffffffff9081604051947f23b872dd000000000000000000000000000000000000000000000000000000005f52166004521660245260445260205f60648180865af160015f5114811615612994575b6040919091525f606052156129535750565b7f5274afe7000000000000000000000000000000000000000000000000000000005f5273ffffffffffffffffffffffffffffffffffffffff1660045260245ffd5b60018115166129aa573d15833b15151616612941565b503d5f823e3d90fd5b156129ba57565b60646040517f08c379a000000000000000000000000000000000000000000000000000000000815260206004820152601260248201527f4c4d53523a206e3e3120726571756972656400000000000000000000000000006044820152fd5b15612a1f57565b60646040517f08c379a000000000000000000000000000000000000000000000000000000000815260206004820152600960248201527f4c4d53523a20663d3000000000000000000000000000000000000000000000006044820152fd5b15612a8457565b60646040517f08c379a000000000000000000000000000000000000000000000000000000000815260206004820152600a60248201527f4c4d53523a20663e3d31000000000000000000000000000000000000000000006044820152fd5b15612ae957565b60646040517f08c379a000000000000000000000000000000000000000000000000000000000815260206004820152601760248201527f4c4d53523a2062616420736c697070616765206f72206e0000000000000000006044820152fd5b15612b4e57565b60646040517f08c379a000000000000000000000000000000000000000000000000000000000815260206004820152601760248201527f4c4d53523a207320746f6f206c6172676520666f72206e0000000000000000006044820152fd5b15612bb357565b60646040517f08c379a000000000000000000000000000000000000000000000000000000000815260206004820152601160248201527f4c4d53523a20626164204520726174696f0000000000000000000000000000006044820152fd5b15612c1857565b60646040517f08c379a000000000000000000000000000000000000000000000000000000000815260206004820152600a60248201527f4c4d53523a20793c3d30000000000000000000000000000000000000000000006044820152fd5b15612c7d57565b60646040517f08c379a000000000000000000000000000000000000000000000000000000000815260206004820152600e60248201527f4c4d53523a206b617070613c3d300000000000000000000000000000000000006044820152fd5b90612d6e612d8f612d73612da795612d9495612cf9600182116129b3565b612d1b6801000000000000000087600f0b612d155f8213612a18565b12612a7d565b612d50612d4b612d2a84613496565b93612d45612d40612d3a866134f3565b95611372565b6134f3565b9061350b565b61354b565b90600f0b82600f0b12155f14612dc857612d6e5f82600f0b13612b47565b6135dd565b612d8a81600f0b5f81139081612db5575b50612bac565b6136aa565b613623565b612da25f82600f0b13612c11565b61358d565b610d235f82600f0b13612c76565b680100000000000000009150125f612d84565b612d6e5f82600f0b13612ae2565b818110612de1575050565b5f8155600101612dd6565b9190601f8111612dfb57505050565b6102c7925f5260205f20906020601f840160051c83019310612e25575b601f0160051c0190612dd6565b9091508190612e18565b90815167ffffffffffffffff811161027157612e5781612e50600454612281565b6004612dec565b602092601f8211600114612eb557612ea5929382915f92612eaa575b50507fffffffffffffffffffffffffffffffffffffffffffffffffffffffffffffffff8260011b9260031b1c19161790565b600455565b015190505f80612e73565b60045f527fffffffffffffffffffffffffffffffffffffffffffffffffffffffffffffffe08216937f8a35acfbc15ff81a39ae7d344fd709f28e8600b4aa8c65c6b64bfe7fe36bd19b915f5b868110612f565750836001959610612f1f575b505050811b01600455565b01517fffffffffffffffffffffffffffffffffffffffffffffffffffffffffffffffff60f88460031b161c191690555f8080612f14565b91926020600181928685015181550194019201612f01565b90815167ffffffffffffffff811161027157612f9681612f8f600554612281565b6005612dec565b602092601f8211600114612fe857612fe3929382915f92612eaa5750507fffffffffffffffffffffffffffffffffffffffffffffffffffffffffffffffff8260011b9260031b1c19161790565b600555565b60055f527fffffffffffffffffffffffffffffffffffffffffffffffffffffffffffffffe08216937f036b6384b5eca791c62761152d0c79bb0604c104a5fb6f4eb0703f3154bb3db0915f5b8681106130895750836001959610613052575b505050811b01600555565b01517fffffffffffffffffffffffffffffffffffffffffffffffffffffffffffffffff60f88460031b161c191690555f8080613047565b91926020600181928685015181550194019201613034565b80519067ffffffffffffffff8211610271576801000000000000000082116102715760209060065483600655808410613118575b500160065f5260205f205f5b8381106130ee5750505050565b600190602073ffffffffffffffffffffffffffffffffffffffff85511694019381840155016130e1565b61312e9060065f5284845f209182019101612dd6565b5f6130d5565b80519067ffffffffffffffff8211610271576801000000000000000082116102715760209060085483600855808410613195575b500160085f5260205f205f5b8381106131815750505050565b600190602084519401938184015501613174565b6131ab9060085f5284845f209182019101612dd6565b5f613168565b9061345a613419610180613468946131c98151600255565b61322e6131ed602083015173ffffffffffffffffffffffffffffffffffffffff1690565b73ffffffffffffffffffffffffffffffffffffffff167fffffffffffffffffffffffff00000000000000000000000000000000000000006003541617600355565b61323b6040820151612e2f565b6132486060820151612f6e565b61325560808201516130a1565b6132a461326660a0830151600f0b90565b7fffffffffffffffffffffffffffffffff0000000000000000000000000000000060075416906fffffffffffffffffffffffffffffffff1617600755565b6132b160c0820151613134565b6132be60e0820151600955565b6132cc610100820151600a55565b6133326132f161012083015173ffffffffffffffffffffffffffffffffffffffff1690565b73ffffffffffffffffffffffffffffffffffffffff167fffffffffffffffffffffffff0000000000000000000000000000000000000000600b541617600b55565b61339861335761014083015173ffffffffffffffffffffffffffffffffffffffff1690565b73ffffffffffffffffffffffffffffffffffffffff167fffffffffffffffffffffffff0000000000000000000000000000000000000000600c541617600c55565b6133fe6133bd61016083015173ffffffffffffffffffffffffffffffffffffffff1690565b73ffffffffffffffffffffffffffffffffffffffff167fffffffffffffffffffffffff0000000000000000000000000000000000000000600d541617600d55565b015173ffffffffffffffffffffffffffffffffffffffff1690565b73ffffffffffffffffffffffffffffffffffffffff167fffffffffffffffffffffffff0000000000000000000000000000000000000000600e541617600e55565b61346383600255565b613655565b6020815191015ff580156101775773ffffffffffffffffffffffffffffffffffffffff1690565b1561017757565b600f0b68010000000000000000017fffffffffffffffffffffffffffffffff80000000000000000000000000000000811215806134d9575b1561017757600f0b90565b506f7fffffffffffffffffffffffffffffff8113156134ce565b677fffffffffffffff81116101775760401b600f0b90565b90600f0b90600f0b0260401d7fffffffffffffffffffffffffffffffff80000000000000000000000000000000811215806134d9571561017757600f0b90565b600f0b68010000000000000000037fffffffffffffffffffffffffffffffff80000000000000000000000000000000811215806134d9571561017757600f0b90565b600f0b801561017757700100000000000000000000000000000000057fffffffffffffffffffffffffffffffff80000000000000000000000000000000811215806134d9571561017757600f0b90565b90600f0b9081156101775760401b60170b057fffffffffffffffffffffffffffffffff80000000000000000000000000000000811215806134d9571561017757600f0b90565b7fffffffffffffffffffffffffffffffff8000000000000000000000000000000081600f0b14610177575f03600f0b90565b803b5f613661826102c9565b9261366f6040519485610276565b82845261367b836102c9565b907fffffffffffffffffffffffffffffffffffffffffffffffffffffffffffffffe06020860192013683373c90565b600f0b5f81138015610177576136bf9061348f565b5f9080680100000000000000008212156137e8575b8064010000000060029212156137dc575b620100008112156137d0575b6101008112156137c4575b60108112156137b8575b60048112156137ac575b12156137a2575b7fffffffffffffffffffffffffffffffffffffffffffffffffffffffffffffffc0820160401b91607f031b90678000000000000000915b5f83136137795750610d239150600f0b6fb17217f7d1cf79abc9e3b39803f2f6af0260801c600f0b90565b8061379b91029161378a8360ff1c90565b9283607f011c928402019260011d90565b919061374e565b9060010190613717565b9281019260021d613710565b6004938401931d613706565b6008938401931d6136fc565b6010938401931d6136f1565b6020938401931d6136e5565b5090506137f58160401d90565b604091906136d456fea26469706673582212208fce54a0a89a1914926033f615973f5e1212b63d17ca5e0edd0f7125b9b566d764736f6c634300081e0033","linkReferences":{}},"methodIdentifiers":{"getAllPools(uint256,uint256)":"a7753f09","getAllTokens(uint256,uint256)":"9a043832","getPoolSupported(address)":"f3176725","getPoolsByToken(address,uint256,uint256)":"14c870c0","mintImpl()":"f0d1ae4f","newPool(string,string,address[],int128,int128,uint256,uint256,bool,address,address,uint256[],uint256,uint256)":"a4689b24","newPool(string,string,address[],int128,uint256,uint256,bool,address,address,uint256[],uint256,uint256)":"f63772fc","newPool(string,string,address[],int128,uint256[],uint256,bool,address,address,uint256[],uint256,uint256)":"60cf7d4a","owner()":"8da5cb5b","params()":"cff0ab96","poolCount()":"f525cb68","poolsByTokenCount(address)":"f70a3a17","protocolFeeAddress()":"cce516b7","protocolFeePpm()":"6b4082d1","renounceOwnership()":"715018a6","setProtocolFeeAddress(address)":"6b7b9112","swapImpl()":"c405e442","tokenCount()":"9f181b5e","transferOwnership(address)":"f2fde38b","wrapper()":"ac210cc7"},"id":48}