{"abi":[{"type":"constructor","inputs":[{"name":"owner_","type":"address","internalType":"address"},{"name":"wrapper_","type":"address","internalType":"contract NativeWrapper"},{"name":"swapImpl_","type":"address","internalType":"contract PartyPoolSwapImpl"},{"name":"mintImpl_","type":"address","internalType":"contract PartyPoolMintImpl"},{"name":"deployer_","type":"address","internalType":"contract IPartyPoolDeployer"},{"name":"balancedPairDeployer_","type":"address","internalType":"contract IPartyPoolDeployer"},{"name":"protocolFeePpm_","type":"uint256","internalType":"uint256"},{"name":"protocolFeeAddress_","type":"address","internalType":"address"}],"stateMutability":"nonpayable"},{"type":"function","name":"getAllPools","inputs":[{"name":"offset","type":"uint256","internalType":"uint256"},{"name":"limit","type":"uint256","internalType":"uint256"}],"outputs":[{"name":"pools","type":"address[]","internalType":"contract IPartyPool[]"}],"stateMutability":"view"},{"type":"function","name":"getAllTokens","inputs":[{"name":"offset","type":"uint256","internalType":"uint256"},{"name":"limit","type":"uint256","internalType":"uint256"}],"outputs":[{"name":"tokens","type":"address[]","internalType":"address[]"}],"stateMutability":"view"},{"type":"function","name":"getPoolSupported","inputs":[{"name":"pool","type":"address","internalType":"address"}],"outputs":[{"name":"","type":"bool","internalType":"bool"}],"stateMutability":"view"},{"type":"function","name":"getPoolsByToken","inputs":[{"name":"token","type":"address","internalType":"contract IERC20"},{"name":"offset","type":"uint256","internalType":"uint256"},{"name":"limit","type":"uint256","internalType":"uint256"}],"outputs":[{"name":"pools","type":"address[]","internalType":"contract IPartyPool[]"}],"stateMutability":"view"},{"type":"function","name":"mintImpl","inputs":[],"outputs":[{"name":"","type":"address","internalType":"contract PartyPoolMintImpl"}],"stateMutability":"view"},{"type":"function","name":"newPool","inputs":[{"name":"name_","type":"string","internalType":"string"},{"name":"symbol_","type":"string","internalType":"string"},{"name":"tokens_","type":"address[]","internalType":"contract IERC20[]"},{"name":"tradeFrac_","type":"int128","internalType":"int128"},{"name":"targetSlippage_","type":"int128","internalType":"int128"},{"name":"swapFeePpm_","type":"uint256","internalType":"uint256"},{"name":"flashFeePpm_","type":"uint256","internalType":"uint256"},{"name":"stable_","type":"bool","internalType":"bool"},{"name":"payer","type":"address","internalType":"address"},{"name":"receiver","type":"address","internalType":"address"},{"name":"initialDeposits","type":"uint256[]","internalType":"uint256[]"},{"name":"initialLpAmount","type":"uint256","internalType":"uint256"},{"name":"deadline","type":"uint256","internalType":"uint256"}],"outputs":[{"name":"pool","type":"address","internalType":"contract IPartyPool"},{"name":"lpAmount","type":"uint256","internalType":"uint256"}],"stateMutability":"nonpayable"},{"type":"function","name":"newPool","inputs":[{"name":"name_","type":"string","internalType":"string"},{"name":"symbol_","type":"string","internalType":"string"},{"name":"tokens_","type":"address[]","internalType":"contract IERC20[]"},{"name":"kappa_","type":"int128","internalType":"int128"},{"name":"swapFeePpm_","type":"uint256","internalType":"uint256"},{"name":"flashFeePpm_","type":"uint256","internalType":"uint256"},{"name":"stable_","type":"bool","internalType":"bool"},{"name":"payer","type":"address","internalType":"address"},{"name":"receiver","type":"address","internalType":"address"},{"name":"initialDeposits","type":"uint256[]","internalType":"uint256[]"},{"name":"initialLpAmount","type":"uint256","internalType":"uint256"},{"name":"deadline","type":"uint256","internalType":"uint256"}],"outputs":[{"name":"pool","type":"address","internalType":"contract IPartyPool"},{"name":"lpAmount","type":"uint256","internalType":"uint256"}],"stateMutability":"nonpayable"},{"type":"function","name":"owner","inputs":[],"outputs":[{"name":"","type":"address","internalType":"address"}],"stateMutability":"view"},{"type":"function","name":"poolCount","inputs":[],"outputs":[{"name":"","type":"uint256","internalType":"uint256"}],"stateMutability":"view"},{"type":"function","name":"poolsByTokenCount","inputs":[{"name":"token","type":"address","internalType":"contract IERC20"}],"outputs":[{"name":"","type":"uint256","internalType":"uint256"}],"stateMutability":"view"},{"type":"function","name":"protocolFeeAddress","inputs":[],"outputs":[{"name":"","type":"address","internalType":"address"}],"stateMutability":"view"},{"type":"function","name":"protocolFeePpm","inputs":[],"outputs":[{"name":"","type":"uint256","internalType":"uint256"}],"stateMutability":"view"},{"type":"function","name":"renounceOwnership","inputs":[],"outputs":[],"stateMutability":"nonpayable"},{"type":"function","name":"setProtocolFeeAddress","inputs":[{"name":"feeAddress","type":"address","internalType":"address"}],"outputs":[],"stateMutability":"nonpayable"},{"type":"function","name":"swapImpl","inputs":[],"outputs":[{"name":"","type":"address","internalType":"contract PartyPoolSwapImpl"}],"stateMutability":"view"},{"type":"function","name":"tokenCount","inputs":[],"outputs":[{"name":"","type":"uint256","internalType":"uint256"}],"stateMutability":"view"},{"type":"function","name":"transferOwnership","inputs":[{"name":"newOwner","type":"address","internalType":"address"}],"outputs":[],"stateMutability":"nonpayable"},{"type":"function","name":"wrapper","inputs":[],"outputs":[{"name":"","type":"address","internalType":"contract NativeWrapper"}],"stateMutability":"view"},{"type":"event","name":"OwnershipTransferred","inputs":[{"name":"previousOwner","type":"address","indexed":true,"internalType":"address"},{"name":"newOwner","type":"address","indexed":true,"internalType":"address"}],"anonymous":false},{"type":"event","name":"PartyStarted","inputs":[{"name":"pool","type":"address","indexed":true,"internalType":"contract IPartyPool"},{"name":"name","type":"string","indexed":false,"internalType":"string"},{"name":"symbol","type":"string","indexed":false,"internalType":"string"},{"name":"tokens","type":"address[]","indexed":false,"internalType":"contract IERC20[]"}],"anonymous":false},{"type":"error","name":"OwnableInvalidOwner","inputs":[{"name":"owner","type":"address","internalType":"address"}]},{"type":"error","name":"OwnableUnauthorizedAccount","inputs":[{"name":"account","type":"address","internalType":"address"}]},{"type":"error","name":"SafeERC20FailedOperation","inputs":[{"name":"token","type":"address","internalType":"address"}]}],"bytecode":{"object":"0x610140346103cb57601f612d0c38819003918201601f19168301916001600160401b038311848410176103cf57808492610100946040528339810103126103cb57610049816103e3565b60208201519091906001600160a01b03811681036103cb5760408201516001600160a01b03811691908281036103cb576060840151906001600160a01b038216908183036103cb5761009d608087016103e3565b936100aa60a088016103e3565b956100bc60e060c08a015199016103e3565b986001600160a01b03169182156103b8575f80546001600160a01b031981168517825560405194916001600160a01b03909116907f8be0079c531659141344cd1fd0a4f28419497f9722a3daafe3b4186f6b6457e09080a360e05215610365575060a0521561030f576080526001600160a01b038116156102b957610100526001600160a01b0381161561024e5761012052620f42408110156102095760c052600180546001600160a01b0319166001600160a01b039290921691909117905560405161291490816103f8823960805181818161044301528181610e10015261153a015260a05181818161040601528181610ecf01526114fd015260c05181818161039d015281816114940152612104015260e0518181816103c901528181610f3d01526114c00152610100518181816109b501526119bd01526101205181818161029901526113900152f35b60405162461bcd60e51b815260206004820152601c60248201527f506c616e6e65723a2070726f746f636f6c20666565203e3d2070706d000000006044820152606490fd5b60405162461bcd60e51b815260206004820152603660248201527f506c616e6e65723a2062616c616e6365642070616972206465706c6f7965722060448201527f616464726573732063616e6e6f74206265207a65726f000000000000000000006064820152608490fd5b60405162461bcd60e51b815260206004820152602860248201527f506c616e6e65723a206465706c6f79657220616464726573732063616e6e6f74604482015267206265207a65726f60c01b6064820152608490fd5b60405162461bcd60e51b815260206004820152602860248201527f506c616e6e65723a206d696e74496d706c20616464726573732063616e6e6f74604482015267206265207a65726f60c01b6064820152608490fd5b62461bcd60e51b815260206004820152602860248201527f506c616e6e65723a2073776170496d706c20616464726573732063616e6e6f74604482015267206265207a65726f60c01b6064820152608490fd5b631e4fbdf760e01b5f525f60045260245ffd5b5f80fd5b634e487b7160e01b5f52604160045260245ffd5b51906001600160a01b03821682036103cb5756fe60806040526004361015610011575f80fd5b5f3560e01c806314c870c0146121275780636b4082d1146120cf5780636b7b91121461204d578063715018a614611fb35780638da5cb5b14611f635780639a04383214611ef25780639f181b5e14611eb7578063a4689b2414610f87578063a7753f0914610f61578063ac210cc714610ef3578063c405e44214610e85578063cce516b714610e34578063f0d1ae4f14610dc6578063f2fde38b14610cda578063f317672514610c72578063f525cb6814610c37578063f63772fc146101465763f70a3a17146100df575f80fd5b346101425760207ffffffffffffffffffffffffffffffffffffffffffffffffffffffffffffffffc3601126101425773ffffffffffffffffffffffffffffffffffffffff61012b612171565b165f526006602052602060405f2054604051908152f35b5f80fd5b34610142576101807ffffffffffffffffffffffffffffffffffffffffffffffffffffffffffffffffc3601126101425760043567ffffffffffffffff81116101425761019690369060040161227c565b60243567ffffffffffffffff8111610142576101b690369060040161227c565b60443567ffffffffffffffff8111610142576101d6903690600401612308565b6101de612383565b60c4359384151585036101425760e4359073ffffffffffffffffffffffffffffffffffffffff8216809203610142576102156121e3565b916101243567ffffffffffffffff811161014257610237903690600401612393565b9261016435610244612819565b8015908115610c2c575b5015610bce578551845103610b4a578115610ac65773ffffffffffffffffffffffffffffffffffffffff16938415610a4257600f0b965f8813156109e457806109d9575b156109b3577f00000000000000000000000000000000000000000000000000000000000000005b5f546001546040517fd05529f600000000000000000000000000000000000000000000000000000000815273ffffffffffffffffffffffffffffffffffffffff92831660048201526101806024820152998a9283921661031d6101848401886126e2565b8381037ffffffffffffffffffffffffffffffffffffffffffffffffffffffffffffffffc016044850152610351908c6126e2565b8381037ffffffffffffffffffffffffffffffffffffffffffffffffffffffffffffffffc016064850152610385908b612725565b91608484015260843560a484015260a43560c48401527f000000000000000000000000000000000000000000000000000000000000000060e48401526101048301527f000000000000000000000000000000000000000000000000000000000000000073ffffffffffffffffffffffffffffffffffffffff166101248301527f000000000000000000000000000000000000000000000000000000000000000073ffffffffffffffffffffffffffffffffffffffff166101448301527f000000000000000000000000000000000000000000000000000000000000000073ffffffffffffffffffffffffffffffffffffffff16610164830152039173ffffffffffffffffffffffffffffffffffffffff1691815a6020945f91f1968715610857575f97610962575b506104b78761276e565b73ffffffffffffffffffffffffffffffffffffffff871691825f52600460205260405f2060017fffffffffffffffffffffffffffffffffffffffffffffffffffffffffffffff008254161790555f5b86518110156106235773ffffffffffffffffffffffffffffffffffffffff61052e82896124b3565b511690815f52600560205260ff60405f20541615610564575b6001915f52600660205261055e8a60405f206127de565b01610506565b60035491680100000000000000008310156105f657806105b961058e856001809701600355612459565b819391549073ffffffffffffffffffffffffffffffffffffffff809160031b9316831b921b19161790565b9055805f52600560205260405f20837fffffffffffffffffffffffffffffffffffffffffffffffffffffffffffffff008254161790559150610547565b7f4e487b71000000000000000000000000000000000000000000000000000000005f52604160045260245ffd5b509087837ff45e30d37dc5ef98e17708308b886213b8f485ea52d495067eed8d4977423f2261066889956106846106768d6040519485946060865260608601906126e2565b9084820360208601526126e2565b828103604084015288612725565b0390a25f5b83518110156108ae5761069c81876124b3565b516106aa575b600101610689565b73ffffffffffffffffffffffffffffffffffffffff6106c982866124b3565b51166106d582886124b3565b51604051907f23b872dd000000000000000000000000000000000000000000000000000000005f52856004528760245260445260205f60648180865af19060015f511482161561088d575b6040525f6060521561086257506024602073ffffffffffffffffffffffffffffffffffffffff61075084886124b3565b5116604051928380927f70a082310000000000000000000000000000000000000000000000000000000082528a60048301525afa908115610857575f91610826575b5061079d82886124b3565b51146106a25760846040517f08c379a0000000000000000000000000000000000000000000000000000000008152602060048201526024808201527f6665652d6f6e2d7472616e7366657220746f6b656e73206e6f7420737570706f60448201527f72746564000000000000000000000000000000000000000000000000000000006064820152fd5b90506020813d821161084f575b816108406020938361223b565b81010312610142575188610792565b3d9150610833565b6040513d5f823e3d90fd5b7f5274afe7000000000000000000000000000000000000000000000000000000005f5260045260245ffd5b9060018115166108a557823b15153d15161690610720565b503d5f823e3d90fd5b6040517f6d8d0ff300000000000000000000000000000000000000000000000000000000815260048101889052610144356024820152826020826044815f8b5af1918215610857575f9261092e575b506040805173ffffffffffffffffffffffffffffffffffffffff9092168252602082019290925290819081015b0390f35b9091506020813d60201161095a575b8161094a6020938361223b565b81010312610142575190826108fd565b3d915061093d565b9096506020813d6020116109ab575b8161097e6020938361223b565b81010312610142575173ffffffffffffffffffffffffffffffffffffffff811681036101425795876104ad565b3d9150610971565b7f00000000000000000000000000000000000000000000000000000000000000006102b9565b506002855114610292565b60646040517f08c379a000000000000000000000000000000000000000000000000000000000815260206004820152601a60248201527f506c616e6e65723a206b61707061206d757374206265203e20300000000000006044820152fd5b60846040517f08c379a000000000000000000000000000000000000000000000000000000000815260206004820152602860248201527f506c616e6e65723a2072656365697665722063616e6e6f74206265207a65726f60448201527f20616464726573730000000000000000000000000000000000000000000000006064820152fd5b60846040517f08c379a000000000000000000000000000000000000000000000000000000000815260206004820152602560248201527f506c616e6e65723a2070617965722063616e6e6f74206265207a65726f20616460448201527f64726573730000000000000000000000000000000000000000000000000000006064820152fd5b60846040517f08c379a000000000000000000000000000000000000000000000000000000000815260206004820152602c60248201527f506c616e6e65723a20746f6b656e7320616e64206465706f73697473206c656e60448201527f677468206d69736d6174636800000000000000000000000000000000000000006064820152fd5b60646040517f08c379a000000000000000000000000000000000000000000000000000000000815260206004820152601a60248201527f506c616e6e65723a20646561646c696e652065786365656465640000000000006044820152fd5b90504211158961024e565b34610142575f7ffffffffffffffffffffffffffffffffffffffffffffffffffffffffffffffffc360112610142576020600254604051908152f35b346101425760207ffffffffffffffffffffffffffffffffffffffffffffffffffffffffffffffffc3601126101425773ffffffffffffffffffffffffffffffffffffffff610cbe612171565b165f526004602052602060ff60405f2054166040519015158152f35b346101425760207ffffffffffffffffffffffffffffffffffffffffffffffffffffffffffffffffc3601126101425773ffffffffffffffffffffffffffffffffffffffff610d26612171565b610d2e612819565b168015610d9a5773ffffffffffffffffffffffffffffffffffffffff5f54827fffffffffffffffffffffffff00000000000000000000000000000000000000008216175f55167f8be0079c531659141344cd1fd0a4f28419497f9722a3daafe3b4186f6b6457e05f80a3005b7f1e4fbdf7000000000000000000000000000000000000000000000000000000005f525f60045260245ffd5b34610142575f7ffffffffffffffffffffffffffffffffffffffffffffffffffffffffffffffffc36011261014257602060405173ffffffffffffffffffffffffffffffffffffffff7f0000000000000000000000000000000000000000000000000000000000000000168152f35b34610142575f7ffffffffffffffffffffffffffffffffffffffffffffffffffffffffffffffffc36011261014257602073ffffffffffffffffffffffffffffffffffffffff60015416604051908152f35b34610142575f7ffffffffffffffffffffffffffffffffffffffffffffffffffffffffffffffffc36011261014257602060405173ffffffffffffffffffffffffffffffffffffffff7f0000000000000000000000000000000000000000000000000000000000000000168152f35b34610142575f7ffffffffffffffffffffffffffffffffffffffffffffffffffffffffffffffffc36011261014257602060405173ffffffffffffffffffffffffffffffffffffffff7f0000000000000000000000000000000000000000000000000000000000000000168152f35b346101425761092a610f7b610f7536612207565b90612638565b60405191829182612194565b34610142576101a07ffffffffffffffffffffffffffffffffffffffffffffffffffffffffffffffffc3601126101425760043567ffffffffffffffff811161014257610fd790369060040161227c565b60243567ffffffffffffffff811161014257610ff790369060040161227c565b60443567ffffffffffffffff811161014257611017903690600401612308565b61101f612383565b926084359384600f0b8095036101425760e435918215158303610142576110446121e3565b92610124359373ffffffffffffffffffffffffffffffffffffffff8516809503610142576101443567ffffffffffffffff811161014257611089903690600401612393565b936101843598611097612819565b81600f0b9068010000000000000000821215611e335768010000000000000000811215611daf578851916001831115611d51575f1215611cf3578068010000000000000000017fffffffffffffffffffffffffffffffff8000000000000000000000000000000081121580611cd9575b1561014257600f0b9061111983612865565b927fffffffffffffffffffffffffffffffffffffffffffffffffffffffffffffffff8101908111611cac5761114d90612865565b600f0b0260401d7fffffffffffffffffffffffffffffffff8000000000000000000000000000000081121580611c92575b1561014257600f0b68010000000000000000037fffffffffffffffffffffffffffffffff8000000000000000000000000000000081121580611c78575b1561014257600f90810b92900b8112611c09575f821315611bab576111df9161287d565b600f0b5f81138080611b99575b15611b3b5715610142575f908068010000000000000000821215611b2e575b806401000000006002921215611b22575b62010000811215611b16575b610100811215611b0a575b6010811215611afe575b6004811215611af3575b1215611ae9575b7fffffffffffffffffffffffffffffffffffffffffffffffffffffffffffffffc0820160401b91607f031b90678000000000000000915b5f8313611acd57506fb17217f7d1cf79abc9e3b39803f2f6af9150600f0b0260801d907fffffffffffffffffffffffffffffffff8000000000000000000000000000000082600f0b14610142576112e0915f03600f0b61287d565b600f0b5f811315611a6f57801561014257700100000000000000000000000000000000057fffffffffffffffffffffffffffffffff8000000000000000000000000000000081121580611a55575b1561014257600f0b975f8913156119f757611347612819565b80159081156119ec575b5015610bce578551845103610b4a5773ffffffffffffffffffffffffffffffffffffffff16908115610ac6578415610a4257806119e1575b156119bb577f00000000000000000000000000000000000000000000000000000000000000005b5f546001546040517fd05529f600000000000000000000000000000000000000000000000000000000815273ffffffffffffffffffffffffffffffffffffffff92831660048201526101806024820152998a928392166114146101848401886126e2565b8381037ffffffffffffffffffffffffffffffffffffffffffffffffffffffffffffffffc016044850152611448908c6126e2565b8381037ffffffffffffffffffffffffffffffffffffffffffffffffffffffffffffffffc01606485015261147c908b612725565b91608484015260a43560a484015260c43560c48401527f000000000000000000000000000000000000000000000000000000000000000060e48401526101048301527f000000000000000000000000000000000000000000000000000000000000000073ffffffffffffffffffffffffffffffffffffffff166101248301527f000000000000000000000000000000000000000000000000000000000000000073ffffffffffffffffffffffffffffffffffffffff166101448301527f000000000000000000000000000000000000000000000000000000000000000073ffffffffffffffffffffffffffffffffffffffff16610164830152039173ffffffffffffffffffffffffffffffffffffffff1691815a6020945f91f1968715610857575f9761196a575b506115ae8761276e565b73ffffffffffffffffffffffffffffffffffffffff871691825f52600460205260405f2060017fffffffffffffffffffffffffffffffffffffffffffffffffffffffffffffff008254161790555f5b86518110156116c25773ffffffffffffffffffffffffffffffffffffffff61162582896124b3565b511690815f52600560205260ff60405f2054161561165b575b6001915f5260066020526116558a60405f206127de565b016115fd565b60035491680100000000000000008310156105f6578061168561058e856001809701600355612459565b9055805f52600560205260405f20837fffffffffffffffffffffffffffffffffffffffffffffffffffffffffffffff00825416179055915061163e565b509087837ff45e30d37dc5ef98e17708308b886213b8f485ea52d495067eed8d4977423f2261066889956117076106768d6040519485946060865260608601906126e2565b0390a25f5b83518110156118f25761171f81876124b3565b5161172d575b60010161170c565b73ffffffffffffffffffffffffffffffffffffffff61174c82866124b3565b511661175882886124b3565b51604051907f23b872dd000000000000000000000000000000000000000000000000000000005f52856004528760245260445260205f60648180865af19060015f51148216156118da575b6040525f6060521561086257506024602073ffffffffffffffffffffffffffffffffffffffff6117d384886124b3565b5116604051928380927f70a082310000000000000000000000000000000000000000000000000000000082528a60048301525afa908115610857575f916118a9575b5061182082886124b3565b51146117255760846040517f08c379a0000000000000000000000000000000000000000000000000000000008152602060048201526024808201527f6665652d6f6e2d7472616e7366657220746f6b656e73206e6f7420737570706f60448201527f72746564000000000000000000000000000000000000000000000000000000006064820152fd5b90506020813d82116118d2575b816118c36020938361223b565b81010312610142575188611815565b3d91506118b6565b9060018115166108a557823b15153d151616906117a3565b6040517f6d8d0ff300000000000000000000000000000000000000000000000000000000815260048101889052610164356024820152826020826044815f8b5af1918215610857575f9261092e57506040805173ffffffffffffffffffffffffffffffffffffffff9290921682526020820192909252f35b9096506020813d6020116119b3575b816119866020938361223b565b81010312610142575173ffffffffffffffffffffffffffffffffffffffff811681036101425795876115a4565b3d9150611979565b7f00000000000000000000000000000000000000000000000000000000000000006113b0565b506002855114611389565b905042111589611351565b60646040517f08c379a000000000000000000000000000000000000000000000000000000000815260206004820152600e60248201527f4c4d53523a206b617070613c3d300000000000000000000000000000000000006044820152fd5b506f7fffffffffffffffffffffffffffffff81131561132e565b60646040517f08c379a000000000000000000000000000000000000000000000000000000000815260206004820152600a60248201527f4c4d53523a20793c3d30000000000000000000000000000000000000000000006044820152fd5b8002908160ff1c9182607f011c918302019160011d9190611285565b906001019061124e565b92810192811d611247565b6004938401931d61123d565b6008938401931d611233565b6010938401931d611228565b6020938401931d61121c565b506040915080821d61120b565b60646040517f08c379a000000000000000000000000000000000000000000000000000000000815260206004820152601160248201527f4c4d53523a20626164204520726174696f0000000000000000000000000000006044820152fd5b506801000000000000000082126111ec565b60646040517f08c379a000000000000000000000000000000000000000000000000000000000815260206004820152601760248201527f4c4d53523a207320746f6f206c6172676520666f72206e0000000000000000006044820152fd5b5f821315611c1a576111df9161287d565b60646040517f08c379a000000000000000000000000000000000000000000000000000000000815260206004820152601760248201527f4c4d53523a2062616420736c697070616765206f72206e0000000000000000006044820152fd5b506f7fffffffffffffffffffffffffffffff8113156111bb565b506f7fffffffffffffffffffffffffffffff81131561117e565b7f4e487b71000000000000000000000000000000000000000000000000000000005f52601160045260245ffd5b506f7fffffffffffffffffffffffffffffff811315611107565b60646040517f08c379a000000000000000000000000000000000000000000000000000000000815260206004820152600960248201527f4c4d53523a20663d3000000000000000000000000000000000000000000000006044820152fd5b60646040517f08c379a000000000000000000000000000000000000000000000000000000000815260206004820152601260248201527f4c4d53523a206e3e3120726571756972656400000000000000000000000000006044820152fd5b60846040517f08c379a000000000000000000000000000000000000000000000000000000000815260206004820152602b60248201527f506c616e6e65723a20746172676574536c697070616765206d7573742062652060448201527f3c2031202836342e3634290000000000000000000000000000000000000000006064820152fd5b60846040517f08c379a000000000000000000000000000000000000000000000000000000000815260206004820152602660248201527f506c616e6e65723a20747261646546726163206d757374206265203c2031202860448201527f36342e36342900000000000000000000000000000000000000000000000000006064820152fd5b34610142575f7ffffffffffffffffffffffffffffffffffffffffffffffffffffffffffffffffc360112610142576020600354604051908152f35b3461014257611f09611f0336612207565b90612598565b6040518091602082016020835281518091526020604084019201905f5b818110611f34575050500390f35b825173ffffffffffffffffffffffffffffffffffffffff16845285945060209384019390920191600101611f26565b34610142575f7ffffffffffffffffffffffffffffffffffffffffffffffffffffffffffffffffc36011261014257602073ffffffffffffffffffffffffffffffffffffffff5f5416604051908152f35b34610142575f7ffffffffffffffffffffffffffffffffffffffffffffffffffffffffffffffffc36011261014257611fe9612819565b5f73ffffffffffffffffffffffffffffffffffffffff81547fffffffffffffffffffffffff000000000000000000000000000000000000000081168355167f8be0079c531659141344cd1fd0a4f28419497f9722a3daafe3b4186f6b6457e08280a3005b346101425760207ffffffffffffffffffffffffffffffffffffffffffffffffffffffffffffffffc3601126101425773ffffffffffffffffffffffffffffffffffffffff612099612171565b6120a1612819565b167fffffffffffffffffffffffff000000000000000000000000000000000000000060015416176001555f80f35b34610142575f7ffffffffffffffffffffffffffffffffffffffffffffffffffffffffffffffffc3601126101425760206040517f00000000000000000000000000000000000000000000000000000000000000008152f35b346101425760607ffffffffffffffffffffffffffffffffffffffffffffffffffffffffffffffffc3601126101425761092a610f7b612164612171565b60443590602435906124c7565b6004359073ffffffffffffffffffffffffffffffffffffffff8216820361014257565b60206040818301928281528451809452019201905f5b8181106121b75750505090565b825173ffffffffffffffffffffffffffffffffffffffff168452602093840193909201916001016121aa565b610104359073ffffffffffffffffffffffffffffffffffffffff8216820361014257565b7ffffffffffffffffffffffffffffffffffffffffffffffffffffffffffffffffc6040910112610142576004359060243590565b90601f7fffffffffffffffffffffffffffffffffffffffffffffffffffffffffffffffe0910116810190811067ffffffffffffffff8211176105f657604052565b81601f820112156101425780359067ffffffffffffffff82116105f657604051926122cf60207fffffffffffffffffffffffffffffffffffffffffffffffffffffffffffffffe0601f860116018561223b565b8284526020838301011161014257815f926020809301838601378301015290565b67ffffffffffffffff81116105f65760051b60200190565b9080601f8301121561014257813590612320826122f0565b9261232e604051948561223b565b82845260208085019360051b82010191821161014257602001915b8183106123565750505090565b823573ffffffffffffffffffffffffffffffffffffffff8116810361014257815260209283019201612349565b6064359081600f0b820361014257565b9080601f830112156101425781356123aa816122f0565b926123b8604051948561223b565b81845260208085019260051b82010192831161014257602001905b8282106123e05750505090565b81358152602091820191016123d3565b906123fa826122f0565b612407604051918261223b565b8281527fffffffffffffffffffffffffffffffffffffffffffffffffffffffffffffffe061243582946122f0565b0190602036910137565b91908201809211611cac57565b91908203918211611cac57565b6003548110156124715760035f5260205f2001905f90565b7f4e487b71000000000000000000000000000000000000000000000000000000005f52603260045260245ffd5b8054821015612471575f5260205f2001905f90565b80518210156124715760209160051b010190565b73ffffffffffffffffffffffffffffffffffffffff90929192165f52600660205260405f209081548084101561257c57808491612504848461243f565b111561257457612514925061244c565b905b61251f826123f0565b925f5b838110612530575050505090565b8073ffffffffffffffffffffffffffffffffffffffff61255b6125556001948661243f565b8661249e565b90549060031b1c1661256d82886124b3565b5201612522565b505090612516565b5050505060405161258e60208261223b565b5f81525f36813790565b919060035480841015612626578084916125b2848461243f565b111561261f576125c2925061244c565b6125cb816123f0565b905f5b8181106125dc575090925050565b8073ffffffffffffffffffffffffffffffffffffffff6126066126016001948961243f565b612459565b90549060031b1c1661261882866124b3565b52016125ce565b50506125c2565b5050905060405161258e60208261223b565b90600254808310156126d157808391612651848461243f565b11156126c957612661925061244c565b905b61266c826123f0565b915f91600254925b828110612682575050505090565b61268c818361243f565b90848210156124715773ffffffffffffffffffffffffffffffffffffffff60019260025f5260205f200154166126c282886124b3565b5201612674565b505090612663565b50505060405161258e60208261223b565b907fffffffffffffffffffffffffffffffffffffffffffffffffffffffffffffffe0601f602080948051918291828752018686015e5f8582860101520116010190565b90602080835192838152019201905f5b8181106127425750505090565b825173ffffffffffffffffffffffffffffffffffffffff16845260209384019390920191600101612735565b600254680100000000000000008110156105f65773ffffffffffffffffffffffffffffffffffffffff6127ac8260016127da9401600255600261249e565b919093169083549073ffffffffffffffffffffffffffffffffffffffff809160031b9316831b921b19161790565b9055565b8054680100000000000000008110156105f6576127ac816127da93600173ffffffffffffffffffffffffffffffffffffffff9401815561249e565b73ffffffffffffffffffffffffffffffffffffffff5f5416330361283957565b7f118cdaa7000000000000000000000000000000000000000000000000000000005f523360045260245ffd5b677fffffffffffffff81116101425760401b600f0b90565b90600f0b9081156101425760401b60170b057fffffffffffffffffffffffffffffffff80000000000000000000000000000000811215806128c4575b1561014257600f0b90565b506f7fffffffffffffffffffffffffffffff8113156128b956fea2646970667358221220aa497f3d73da21ab7d2755aa0b454086018137aad8a8c82a59989c4c19e3b66d64736f6c634300081e0033","linkReferences":{}},"methodIdentifiers":{"getAllPools(uint256,uint256)":"a7753f09","getAllTokens(uint256,uint256)":"9a043832","getPoolSupported(address)":"f3176725","getPoolsByToken(address,uint256,uint256)":"14c870c0","mintImpl()":"f0d1ae4f","newPool(string,string,address[],int128,int128,uint256,uint256,bool,address,address,uint256[],uint256,uint256)":"a4689b24","newPool(string,string,address[],int128,uint256,uint256,bool,address,address,uint256[],uint256,uint256)":"f63772fc","owner()":"8da5cb5b","poolCount()":"f525cb68","poolsByTokenCount(address)":"f70a3a17","protocolFeeAddress()":"cce516b7","protocolFeePpm()":"6b4082d1","renounceOwnership()":"715018a6","setProtocolFeeAddress(address)":"6b7b9112","swapImpl()":"c405e442","tokenCount()":"9f181b5e","transferOwnership(address)":"f2fde38b","wrapper()":"ac210cc7"},"id":47}