{"abi":[{"type":"constructor","inputs":[{"name":"swapImpl_","type":"address","internalType":"contract PartyPoolSwapImpl"},{"name":"mintImpl","type":"address","internalType":"contract PartyPoolMintImpl"}],"stateMutability":"nonpayable"},{"type":"function","name":"burnAmounts","inputs":[{"name":"pool","type":"address","internalType":"contract IPartyPool"},{"name":"lpTokenAmount","type":"uint256","internalType":"uint256"}],"outputs":[{"name":"withdrawAmounts","type":"uint256[]","internalType":"uint256[]"}],"stateMutability":"view"},{"type":"function","name":"burnSwapAmounts","inputs":[{"name":"pool","type":"address","internalType":"contract IPartyPool"},{"name":"lpAmount","type":"uint256","internalType":"uint256"},{"name":"outputTokenIndex","type":"uint256","internalType":"uint256"}],"outputs":[{"name":"amountOut","type":"uint256","internalType":"uint256"},{"name":"outFee","type":"uint256","internalType":"uint256"}],"stateMutability":"view"},{"type":"function","name":"flashFee","inputs":[{"name":"pool","type":"address","internalType":"contract IPartyPool"},{"name":"","type":"address","internalType":"address"},{"name":"amount","type":"uint256","internalType":"uint256"}],"outputs":[{"name":"fee","type":"uint256","internalType":"uint256"}],"stateMutability":"view"},{"type":"function","name":"maxFlashLoan","inputs":[{"name":"pool","type":"address","internalType":"contract IPartyPool"},{"name":"token","type":"address","internalType":"address"}],"outputs":[{"name":"","type":"uint256","internalType":"uint256"}],"stateMutability":"view"},{"type":"function","name":"mintAmounts","inputs":[{"name":"pool","type":"address","internalType":"contract IPartyPool"},{"name":"lpTokenAmount","type":"uint256","internalType":"uint256"}],"outputs":[{"name":"depositAmounts","type":"uint256[]","internalType":"uint256[]"}],"stateMutability":"view"},{"type":"function","name":"poolPrice","inputs":[{"name":"pool","type":"address","internalType":"contract IPartyPool"},{"name":"quoteTokenIndex","type":"uint256","internalType":"uint256"}],"outputs":[{"name":"","type":"int128","internalType":"int128"}],"stateMutability":"view"},{"type":"function","name":"price","inputs":[{"name":"pool","type":"address","internalType":"contract IPartyPool"},{"name":"baseTokenIndex","type":"uint256","internalType":"uint256"},{"name":"quoteTokenIndex","type":"uint256","internalType":"uint256"}],"outputs":[{"name":"","type":"int128","internalType":"int128"}],"stateMutability":"view"},{"type":"function","name":"swapMintAmounts","inputs":[{"name":"pool","type":"address","internalType":"contract IPartyPool"},{"name":"inputTokenIndex","type":"uint256","internalType":"uint256"},{"name":"maxAmountIn","type":"uint256","internalType":"uint256"}],"outputs":[{"name":"amountInUsed","type":"uint256","internalType":"uint256"},{"name":"lpMinted","type":"uint256","internalType":"uint256"},{"name":"inFee","type":"uint256","internalType":"uint256"}],"stateMutability":"view"},{"type":"function","name":"swapToLimitAmounts","inputs":[{"name":"pool","type":"address","internalType":"contract IPartyPool"},{"name":"inputTokenIndex","type":"uint256","internalType":"uint256"},{"name":"outputTokenIndex","type":"uint256","internalType":"uint256"},{"name":"limitPrice","type":"int128","internalType":"int128"}],"outputs":[{"name":"amountIn","type":"uint256","internalType":"uint256"},{"name":"amountOut","type":"uint256","internalType":"uint256"},{"name":"inFee","type":"uint256","internalType":"uint256"}],"stateMutability":"view"},{"type":"function","name":"working","inputs":[{"name":"pool","type":"address","internalType":"contract IPartyPool"}],"outputs":[{"name":"","type":"bool","internalType":"bool"}],"stateMutability":"view"}],"bytecode":{"object":"0x60c03461009a57601f612fd238819003918201601f19168301916001600160401b0383118484101761009e57808492604094855283398101031261009a578051906001600160a01b038216820361009a5760200151906001600160a01b038216820361009a5760805260a052604051612f1f90816100b3823960805181610311015260a0518181816106c401528181610e57015261189e0152f35b5f80fd5b634e487b7160e01b5f52604160045260245ffdfe6080806040526004361015610012575f80fd5b5f3560e01c9081630ab75fef14611967575080630db4cdda1461171b5780633a06daa2146111d357806344e48a9c14610f6157806397c6481214610cd4578063ad84489314610bf5578063b9c0d20414610888578063bfb5cdc51461058b578063c63a9743146100d95763c757221b1461008a575f80fd5b346100d55760207ffffffffffffffffffffffffffffffffffffffffffffffffffffffffffffffffc3601126100d55760206100cb6100c6611a3a565b611e68565b6040519015158152f35b5f80fd5b346100d55760807ffffffffffffffffffffffffffffffffffffffffffffffffffffffffffffffffc3601126100d557610110611a3a565b6024356044356064359283600f0b8094036100d55773ffffffffffffffffffffffffffffffffffffffff16916040517f476e44b60000000000000000000000000000000000000000000000000000000081525f81600481875afa80156103a1576020915f91610569575b500180515180831080610560575b15610502575f8613156104a45715610446576040517f017cf6610000000000000000000000000000000000000000000000000000000081525f81600481885afa9081156103a1575f91610424575b50604051907f6bba3f2f000000000000000000000000000000000000000000000000000000008252602082600481895afa9182156103a1575f926103e3575b5060206044935196604051948580927f939f5ea40000000000000000000000000000000000000000000000000000000082528860048301528960248301525afa9283156103a1575f936103ac575b50906060956102ba6102f293604051998a9889987fbf05a0a6000000000000000000000000000000000000000000000000000000008a5260048a01526024890152604488015260e0606488015260e4870190611ad5565b91600f0b60848601527ffffffffffffffffffffffffffffffffffffffffffffffffffffffffffffffffc8583030160a4860152611d43565b9060c4830152038173ffffffffffffffffffffffffffffffffffffffff7f0000000000000000000000000000000000000000000000000000000000000000165afa80156103a1575f905f925f9161036a575b5061036690604051938493846040919493926060820195825260208201520152565b0390f35b90506103669250610393915060603d60601161039a575b61038b8183611b08565b810190611d28565b9092610344565b503d610381565b6040513d5f823e3d90fd5b919092506020823d6020116103db575b816103c960209383611b08565b810103126100d5579051916060610263565b3d91506103bc565b9291506020833d60201161041c575b816103ff60209383611b08565b810103126100d5576020610414604494611b76565b929350610215565b3d91506103f2565b61044091503d805f833e6104388183611b08565b810190611c6d565b866101d6565b60646040517f08c379a000000000000000000000000000000000000000000000000000000000815260206004820152601f60248201527f73776170546f4c696d69743a20706f6f6c20756e696e697469616c697a6564006044820152fd5b60646040517f08c379a000000000000000000000000000000000000000000000000000000000815260206004820152601760248201527f73776170546f4c696d69743a206c696d6974203c3d20300000000000000000006044820152fd5b60646040517f08c379a000000000000000000000000000000000000000000000000000000000815260206004820152601060248201527f73776170546f4c696d69743a20696478000000000000000000000000000000006044820152fd5b50808410610188565b61058591503d805f833e61057d8183611b08565b810190611b9c565b8661017a565b346100d55760407ffffffffffffffffffffffffffffffffffffffffffffffffffffffffffffffffc3601126100d55773ffffffffffffffffffffffffffffffffffffffff6105d7611a3a565b166040517f476e44b60000000000000000000000000000000000000000000000000000000081525f81600481855afa80156103a1576020915f9161086e575b500151519061062482611dce565b915f5b81811061075a576040517f18160ddd0000000000000000000000000000000000000000000000000000000081528490602081600481885afa9081156103a1575f91610726575b506106ab915f9160405193849283927fcdc2468b00000000000000000000000000000000000000000000000000000000845260243560048501611e49565b038173ffffffffffffffffffffffffffffffffffffffff7f0000000000000000000000000000000000000000000000000000000000000000165afa80156103a157610366915f9161070c575b50604051918291602083526020830190611ad5565b61072091503d805f833e6104388183611b08565b826106f7565b90506020813d602011610752575b8161074160209383611b08565b810103126100d557516106ab61066d565b3d9150610734565b604051907f044215c6000000000000000000000000000000000000000000000000000000008252806004830152602082602481875afa9182156103a15773ffffffffffffffffffffffffffffffffffffffff926020915f91610841575b506024604051809581937f70a08231000000000000000000000000000000000000000000000000000000008352896004840152165afa80156103a1575f9061080f575b600192506108088287611ce7565b5201610627565b506020823d8211610839575b8161082860209383611b08565b810103126100d557600191516107fa565b3d915061081b565b6108619150823d8111610867575b6108598183611b08565b810190611e1d565b876107b7565b503d61084f565b61088291503d805f833e61057d8183611b08565b83610616565b346100d55760407ffffffffffffffffffffffffffffffffffffffffffffffffffffffffffffffffc3601126100d5576108bf611a3a565b73ffffffffffffffffffffffffffffffffffffffff6024359116906040517f476e44b60000000000000000000000000000000000000000000000000000000081525f81600481865afa80156103a1576020915f91610bdb575b50018051518015610b7d57821015610b1f576020600493604051948580927f6bba3f2f0000000000000000000000000000000000000000000000000000000082525afa9283156103a1575f93610ae3575b5051906109758261210b565b9261099084600f0b945f86139261098b84611f93565b61205d565b9061099f5f83600f0b13611ff8565b15610a85576109ad90612140565b5f928051915f935b838510610a2257868681156100d55760401b60170b057fffffffffffffffffffffffffffffffff8000000000000000000000000000000081121580610a08575b156100d557602090600f0b604051908152f35b506f7fffffffffffffffffffffffffffffff8113156109f5565b9091929394610a7a600191610a74610a61610a5c8761098b610a448d8c611ce7565b51600f0b610a528a8d611ce7565b51600f0b90612190565b612280565b610a6b8a89611ce7565b51600f0b61205d565b90612243565b9501939291906109b5565b60646040517f08c379a000000000000000000000000000000000000000000000000000000000815260206004820152600f60248201527f4c4d53523a2073697a65207a65726f00000000000000000000000000000000006044820152fd5b9092506020813d602011610b17575b81610aff60209383611b08565b810103126100d557610b1090611b76565b9183610969565b3d9150610af2565b60646040517f08c379a000000000000000000000000000000000000000000000000000000000815260206004820152600e60248201527f706f6f6c50726963653a206964780000000000000000000000000000000000006044820152fd5b60646040517f08c379a000000000000000000000000000000000000000000000000000000000815260206004820152601160248201527f706f6f6c50726963653a20756e696e69740000000000000000000000000000006044820152fd5b610bef91503d805f833e61057d8183611b08565b84610918565b346100d55760607ffffffffffffffffffffffffffffffffffffffffffffffffffffffffffffffffc3601126100d55773ffffffffffffffffffffffffffffffffffffffff6020610c43611a3a565b610c4b611a5d565b506004604051809481937f31596a6a000000000000000000000000000000000000000000000000000000008352165afa9081156103a1575f91610ca0575b6020610c97836044356120b8565b50604051908152f35b90506020813d602011610ccc575b81610cbb60209383611b08565b810103126100d55751610c97610c89565b3d9150610cae565b346100d55773ffffffffffffffffffffffffffffffffffffffff610cf736611a80565b6040517f476e44b60000000000000000000000000000000000000000000000000000000081529390921691905f84600481865afa9384156103a1575f94610f45575b506040517f9af1d35a0000000000000000000000000000000000000000000000000000000081525f81600481875afa9081156103a157610d829184915f91610f2b575b50611ce7565b5193604051937f017cf6610000000000000000000000000000000000000000000000000000000085525f85600481845afa9485156103a1575f95610f07575b50906020600492604051938480927f18160ddd0000000000000000000000000000000000000000000000000000000082525afa9182156103a1575f92610ed2575b5090604094610e3e92865197889687967ff16b7c2600000000000000000000000000000000000000000000000000000000885260048801611d79565b038173ffffffffffffffffffffffffffffffffffffffff7f0000000000000000000000000000000000000000000000000000000000000000165afa80156103a1575f905f90610e98575b6040809350519182526020820152f35b50506040813d604011610eca575b81610eb360409383611b08565b810103126100d55780602060409251910151610e88565b3d9150610ea6565b91506020823d602011610eff575b81610eed60209383611b08565b810103126100d5579051906040610e02565b3d9150610ee0565b600492919550610f226020913d805f833e6104388183611b08565b95919250610dc1565b610f3f91503d805f833e6104388183611b08565b87610d7c565b610f5a9194503d805f833e61057d8183611b08565b9284610d39565b346100d55760407ffffffffffffffffffffffffffffffffffffffffffffffffffffffffffffffffc3601126100d55773ffffffffffffffffffffffffffffffffffffffff610fad611a3a565b166040517f476e44b60000000000000000000000000000000000000000000000000000000081525f81600481855afa80156103a1576020915f916111b9575b5001515190610ffa82611dce565b915f5b8181106110b5576040517f18160ddd0000000000000000000000000000000000000000000000000000000081528490602081600481885afa9081156103a1575f91611081575b506106ab915f9160405193849283927f228fa85000000000000000000000000000000000000000000000000000000000845260243560048501611e49565b90506020813d6020116110ad575b8161109c60209383611b08565b810103126100d557516106ab611043565b3d915061108f565b604051907f044215c6000000000000000000000000000000000000000000000000000000008252806004830152602082602481875afa9182156103a15773ffffffffffffffffffffffffffffffffffffffff926020915f9161119c575b506024604051809581937f70a08231000000000000000000000000000000000000000000000000000000008352896004840152165afa80156103a1575f9061116a575b600192506111638287611ce7565b5201610ffd565b506020823d8211611194575b8161118360209383611b08565b810103126100d55760019151611155565b3d9150611176565b6111b39150823d8111610867576108598183611b08565b87611112565b6111cd91503d805f833e61057d8183611b08565b83610fec565b346100d55773ffffffffffffffffffffffffffffffffffffffff6111f636611a80565b92909116906040517f476e44b60000000000000000000000000000000000000000000000000000000081525f81600481865afa80156103a1576020915f91611701575b500180515180156116a3578083109081611699575b501561163b576040517f6bba3f2f000000000000000000000000000000000000000000000000000000008152602081600481875afa9081156103a1575f916115ec575b50610a5c9061098b6112d06112bd6112e99551936112ae8561210b565b9061098b5f83600f0b13611f93565b6112cb5f82600f0b13611ff8565b612140565b91610a52886112df8884611ce7565b51600f0b92611ce7565b926040517f017cf6610000000000000000000000000000000000000000000000000000000081525f81600481875afa9081156103a1576004935f926113349284916115d25750611ce7565b5193604051938480927f017cf6610000000000000000000000000000000000000000000000000000000082525afa80156103a157611378925f916115b85750611ce7565b5181156100d55777ffffffffffffffffffffffffffffffffffffffffffffffff811161140657906113ab9160401b6121cd565b6fffffffffffffffffffffffffffffffff81116100d5576fffffffffffffffffffffffffffffffff166f7fffffffffffffffffffffffffffffff81116100d5576020916113fb91600f0b9061205d565b60405190600f0b8152f35b60c09181831c80936401000000008210156115ab575b600282620100006114a994101561159f575b610100811015611593575b6010811015611587575b600481101561157c575b1015611574575b8360017fffffffffffffffffffffffffffffffffffffffffffffffffffffffffffffffff85017fffffffffffffffffffffffffffffffffffffffffffffffffffffffffffffff4184011c019160ff031b6121cd565b926fffffffffffffffffffffffffffffffff84116100d5578160801c8402906fffffffffffffffffffffffffffffffff8316850290809460401b9082821061154a575b5003928160801b91828510611521575b60801c036115165761150e92036121cd565b905b016113ab565b505050600190611510565b907fffffffffffffffffffffffffffffffffffffffffffffffffffffffffffffffff01906114fc565b7fffffffffffffffffffffffffffffffffffffffffffffffffffffffffffffffff019450876114ec565b600101611454565b91810191811c61144d565b6004928301921c611443565b6008928301921c611439565b6010928301921c61142e565b505060e082811c9061141c565b6115cc91503d805f833e6104388183611b08565b85610d7c565b6115e691503d8086833e6104388183611b08565b88610d7c565b90506020813d602011611633575b8161160760209383611b08565b810103126100d5576112e99161098b6112d06112bd611628610a5c95611b76565b945050505091611291565b3d91506115fa565b60646040517f08c379a000000000000000000000000000000000000000000000000000000000815260206004820152600a60248201527f70726963653a20696478000000000000000000000000000000000000000000006044820152fd5b905084108561124e565b60646040517f08c379a000000000000000000000000000000000000000000000000000000000815260206004820152600d60248201527f70726963653a20756e696e6974000000000000000000000000000000000000006044820152fd5b61171591503d805f833e61057d8183611b08565b85611239565b346100d55773ffffffffffffffffffffffffffffffffffffffff61173e36611a80565b6040517f476e44b60000000000000000000000000000000000000000000000000000000081529390921691905f84600481865afa9384156103a1575f9461194b575b506040517f9af1d35a0000000000000000000000000000000000000000000000000000000081525f81600481875afa9081156103a1576117c89183915f91610f2b5750611ce7565b5193604051937f017cf6610000000000000000000000000000000000000000000000000000000085525f85600481845afa9485156103a1575f95611927575b50906020600492604051938480927f18160ddd0000000000000000000000000000000000000000000000000000000082525afa9182156103a1575f926118f2575b50906060946118859260405197889687967fe9f317f000000000000000000000000000000000000000000000000000000000885260048801611d79565b038173ffffffffffffffffffffffffffffffffffffffff7f0000000000000000000000000000000000000000000000000000000000000000165afa80156103a1575f905f925f9161036a575061036690604051938493846040919493926060820195825260208201520152565b91506020823d60201161191f575b8161190d60209383611b08565b810103126100d5579051906060611848565b3d9150611900565b6004929195506119426020913d805f833e6104388183611b08565b95919250611807565b6119609194503d805f833e61057d8183611b08565b9284611780565b346100d55760407ffffffffffffffffffffffffffffffffffffffffffffffffffffffffffffffffc3601126100d5576020816024816119a4611a3a565b73ffffffffffffffffffffffffffffffffffffffff806119c2611a5d565b16917f70a082310000000000000000000000000000000000000000000000000000000084521660048301525afa80156103a1575f90611a07575b602090604051908152f35b506020813d602011611a32575b81611a2160209383611b08565b810103126100d557602090516119fc565b3d9150611a14565b6004359073ffffffffffffffffffffffffffffffffffffffff821682036100d557565b6024359073ffffffffffffffffffffffffffffffffffffffff821682036100d557565b7ffffffffffffffffffffffffffffffffffffffffffffffffffffffffffffffffc60609101126100d55760043573ffffffffffffffffffffffffffffffffffffffff811681036100d557906024359060443590565b90602080835192838152019201905f5b818110611af25750505090565b8251845260209384019390920191600101611ae5565b90601f7fffffffffffffffffffffffffffffffffffffffffffffffffffffffffffffffe0910116810190811067ffffffffffffffff821117611b4957604052565b7f4e487b71000000000000000000000000000000000000000000000000000000005f52604160045260245ffd5b519081600f0b82036100d557565b67ffffffffffffffff8111611b495760051b60200190565b6020818303126100d55780519067ffffffffffffffff82116100d55701906040828203126100d557604051916040830183811067ffffffffffffffff821117611b4957604052611beb81611b76565b835260208101519067ffffffffffffffff82116100d557019080601f830112156100d5578151611c1a81611b84565b92611c286040519485611b08565b81845260208085019260051b8201019283116100d557602001905b828210611c5557505050602082015290565b60208091611c6284611b76565b815201910190611c43565b6020818303126100d55780519067ffffffffffffffff82116100d557019080601f830112156100d5578151611ca181611b84565b92611caf6040519485611b08565b81845260208085019260051b8201019283116100d557602001905b828210611cd75750505090565b8151815260209182019101611cca565b8051821015611cfb5760209160051b010190565b7f4e487b71000000000000000000000000000000000000000000000000000000005f52603260045260245ffd5b908160609103126100d5578051916040602083015192015190565b90602080835192838152019201905f5b818110611d605750505090565b8251600f0b845260209384019390920191600101611d53565b9695949160a094611dc994602092611dbb948b52838b015260408a015260c060608a01528051600f0b60c08a01520151604060e0890152610100880190611d43565b908682036080880152611ad5565b930152565b90611dd882611b84565b611de56040519182611b08565b8281527fffffffffffffffffffffffffffffffffffffffffffffffffffffffffffffffe0611e138294611b84565b0190602036910137565b908160209103126100d5575173ffffffffffffffffffffffffffffffffffffffff811681036100d55790565b611e659392606092825260208201528160408201520190611ad5565b90565b73ffffffffffffffffffffffffffffffffffffffff166040517f1f3a0e41000000000000000000000000000000000000000000000000000000008152602081600481855afa9081156103a1575f91611f58575b50611f53575f600491604051928380927f476e44b60000000000000000000000000000000000000000000000000000000082525afa9081156103a1575f91611f39575b505f5b60208201518051821015611f3257611f1a825f92611ce7565b51600f0b13611f2b57600101611f01565b5050600190565b5050505f90565b611f4d91503d805f833e61057d8183611b08565b5f611efe565b505f90565b90506020813d602011611f8b575b81611f7360209383611b08565b810103126100d5575180151581036100d5575f611ebb565b3d9150611f66565b15611f9a57565b60646040517f08c379a000000000000000000000000000000000000000000000000000000000815260206004820152601660248201527f4c4d53523a2073697a65206d6574726963207a65726f000000000000000000006044820152fd5b15611fff57565b60646040517f08c379a000000000000000000000000000000000000000000000000000000000815260206004820152600a60248201527f4c4d53523a20623c3d30000000000000000000000000000000000000000000006044820152fd5b90600f0b90600f0b0260401d7fffffffffffffffffffffffffffffffff800000000000000000000000000000008112158061209e575b156100d557600f0b90565b506f7fffffffffffffffffffffffffffffff811315612093565b91908015612105576120ca9083612204565b918281039081116120d85790565b7f4e487b71000000000000000000000000000000000000000000000000000000005f52601160045260245ffd5b505f9190565b5f90815b815183101561213a576121326001916121288585611ce7565b51600f0b90612243565b92019161210f565b91505090565b600f0b80156100d557700100000000000000000000000000000000057fffffffffffffffffffffffffffffffff800000000000000000000000000000008112158061209e57156100d557600f0b90565b90600f0b90600f0b037fffffffffffffffffffffffffffffffff800000000000000000000000000000008112158061209e57156100d557600f0b90565b81156121d7570490565b7f4e487b71000000000000000000000000000000000000000000000000000000005f52601260045260245ffd5b811561223d578181029181830414901517156120d857620f42408101908181116120d857620f423f019081116120d857620f4240900490565b50505f90565b90600f0b90600f0b017fffffffffffffffffffffffffffffffff800000000000000000000000000000008112158061209e57156100d557600f0b90565b600f0b684000000000000000008112156100d5577fffffffffffffffffffffffffffffffffffffffffffffffc000000000000000008112611f5357611e6590700171547652b82fe1777d0ffda0d23a7d120260801d600f0b80684000000000000000008112156100d5577fffffffffffffffffffffffffffffffffffffffffffffffc00000000000000000811261223d576f80000000000000000000000000000000915f6780000000000000008216600f0b13612ed1575b5f6740000000000000008216600f0b13612eb4575b5f6720000000000000008216600f0b13612e97575b5f6710000000000000008216600f0b13612e7a575b5f6708000000000000008216600f0b13612e5d575b5f6704000000000000008216600f0b13612e40575b5f6702000000000000008216600f0b13612e23575b5f6701000000000000008216600f0b13612e06575b5f66800000000000008216600f0b13612de9575b5f66400000000000008216600f0b13612dcc575b5f66200000000000008216600f0b13612daf575b5f66100000000000008216600f0b13612d92575b5f66080000000000008216600f0b13612d75575b5f66040000000000008216600f0b13612d58575b5f66020000000000008216600f0b13612d3b575b5f66010000000000008216600f0b13612d1e575b5f658000000000008216600f0b13612d01575b5f654000000000008216600f0b13612ce4575b5f652000000000008216600f0b13612cc7575b5f651000000000008216600f0b13612caa575b5f650800000000008216600f0b13612c8d575b5f650400000000008216600f0b13612c70575b5f650200000000008216600f0b13612c53575b5f650100000000008216600f0b13612c36575b5f6480000000008216600f0b13612c19575b5f6440000000008216600f0b13612bfc575b5f6420000000008216600f0b13612bdf575b5f6410000000008216600f0b13612bc2575b5f6408000000008216600f0b13612ba5575b5f6404000000008216600f0b13612b88575b5f6402000000008216600f0b13612b6b575b5f6401000000008216600f0b13612b4e575b5f63800000008216600f0b13612b31575b5f63400000008216600f0b13612b14575b5f63200000008216600f0b13612af7575b5f63100000008216600f0b13612ada575b5f63080000008216600f0b13612abd575b5f63040000008216600f0b13612aa0575b5f63020000008216600f0b13612a83575b5f63010000008216600f0b13612a66575b5f628000008216600f0b13612a49575b5f624000008216600f0b13612a2c575b5f622000008216600f0b13612a0f575b5f621000008216600f0b136129f2575b5f620800008216600f0b136129d5575b5f620400008216600f0b136129b8575b5f620200008216600f0b1361299b575b5f620100008216600f0b1361297e575b5f6180008216600f0b13612961575b5f6140008216600f0b13612944575b5f6120008216600f0b13612927575b5f6110008216600f0b1361290a575b5f6108008216600f0b136128ed575b5f6104008216600f0b136128d0575b5f6102008216600f0b136128b3575b5f6101008216600f0b13612896575b5f60808216600f0b13612879575b5f60408216600f0b1361285c575b5f60208216600f0b1361283f575b5f60108216600f0b13612822575b5f60088216600f0b13612805575b5f60048216600f0b136127e8575b5f60028216600f0b136127ca575b60015f9116600f0b136127ad575b60401d600f0b603f03600f0b1c6f7fffffffffffffffffffffffffffffff81116100d557600f0b90565b9070010000000000000000b17217f7d1cf79ab0260801c90612783565b7001000000000000000162e42fefa39ef35890920260801c91612775565b9170010000000000000002c5c85fdf473de6b20260801c91612767565b91700100000000000000058b90bfbe8e7bcd6d0260801c91612759565b917001000000000000000b17217f7d1cf79afa0260801c9161274b565b91700100000000000000162e42fefa39ef366f0260801c9161273d565b917001000000000000002c5c85fdf473de6eca0260801c9161272f565b9170010000000000000058b90bfbe8e7bce5440260801c91612721565b91700100000000000000b17217f7d1cf79e9490260801c91612713565b9170010000000000000162e42fefa39ef44d910260801c91612704565b91700100000000000002c5c85fdf473dea871f0260801c916126f5565b917001000000000000058b90bfbe8e7bdcbe2e0260801c916126e6565b9170010000000000000b17217f7d1cf7d83c1a0260801c916126d7565b917001000000000000162e42fefa39f02b772c0260801c916126c8565b9170010000000000002c5c85fdf473e242ea380260801c916126b9565b91700100000000000058b90bfbe8e7cc35c3f00260801c916126aa565b917001000000000000b17217f7d1cfb72b45e10260801c9161269b565b91700100000000000162e42fefa39fe95583c20260801c9161268b565b917001000000000002c5c85fdf4741bea6e77e0260801c9161267b565b9170010000000000058b90bfbe8e8b2d3d4ede0260801c9161266b565b91700100000000000b17217f7d1d351a389d400260801c9161265b565b9170010000000000162e42fefa3ae53369388c0260801c9161264b565b91700100000000002c5c85fdf477b662b269450260801c9161263b565b917001000000000058b90bfbe8f71cb4e4b33d0260801c9161262b565b9170010000000000b17217f7d20cf927c8e94c0260801c9161261b565b917001000000000162e42fefa494f1478fde050260801c9161260a565b9170010000000002c5c85fdf4b15de6f17eb0d0260801c916125f9565b91700100000000058b90bfbe9ddbac5e109cce0260801c916125e8565b917001000000000b17217f7d5a7716bba4a9ae0260801c916125d7565b91700100000000162e42fefb2fed257559bdaa0260801c916125c6565b917001000000002c5c85fdf84bd62ae30a74cc0260801c916125b5565b9170010000000058b90bfbf8479bd5a81b51ad0260801c916125a4565b91700100000000b17217f80f4ef5aadda455540260801c91612593565b9170010000000162e42ff0999ce3541b9fffcf0260801c91612581565b91700100000002c5c85fe31f35a6a30da1be500260801c9161256f565b917001000000058b90bfcdee5acd3c1cedc8230260801c9161255d565b9170010000000b17217fba9c739aa5819f44f90260801c9161254b565b917001000000162e42fff037df38aa2b219f060260801c91612539565b9170010000002c5c8601cc6b9e94213c72737a0260801c91612527565b91700100000058b90c0b48c6be5df846c5b2ef0260801c91612515565b917001000000b1721835514b86e6d96efd1bfe0260801c91612503565b91700100000162e430e5a18f6119e3c02282a50260801c916124f0565b917001000002c5c863b73f016468f6bac5ca2b0260801c916124dd565b9170010000058b90cf1e6d97f9ca14dbcc16280260801c916124ca565b91700100000b1721bcfc99d9f890ea069117630260801c916124b7565b9170010000162e43f4f831060e02d839a9d16d0260801c916124a4565b91700100002c5c89d5ec6ca4d7c8acc017b7c90260801c91612491565b917001000058b91b5bc9ae2eed81e9b7d4cfab0260801c9161247e565b9170010000b17255775c040618bf4a4ade83fc0260801c9161246b565b917001000162e525ee054754457d59952920260260801c91612457565b9170010002c5cc37da9491d0985c348c68e7b30260801c91612443565b91700100058ba01fb9f96d6cacd4b180917c3d0260801c9161242f565b917001000b175effdc76ba38e31671ca9397250260801c9161241b565b91700100162f3904051fa128bca9c55c31e5df0260801c91612407565b917001002c605e2e8cec506d21bfc89a23a00f0260801c916123f3565b9170010058c86da1c09ea1ff19d294cf2f679b0260801c916123df565b91700100b1afa5abcbed6129ab13ec11dc95430260801c916123cb565b9170010163da9fb33356d84a66ae336dcdfa3f0260801c916123b6565b91700102c9a3e778060ee6f7caca4f7a29bde80260801c916123a1565b917001059b0d31585743ae7c548eb68ca417fd0260801c9161238c565b9170010b5586cf9890f6298b92b71842a983630260801c91612377565b917001172b83c7d517adcdf7c8c50eb14a791f0260801c91612362565b917001306fe0a31b7152de8d5a46305c85edec0260801c9161234d565b6fb504f333f9de6484597d89b3754abe9f925061233856fea26469706673582212201ef00748236373a41fb81044045fc70016a9817bd2f7b2ee4335c139a046a50764736f6c634300081e0033","linkReferences":{}},"methodIdentifiers":{"burnAmounts(address,uint256)":"44e48a9c","burnSwapAmounts(address,uint256,uint256)":"97c64812","flashFee(address,address,uint256)":"ad844893","maxFlashLoan(address,address)":"0ab75fef","mintAmounts(address,uint256)":"bfb5cdc5","poolPrice(address,uint256)":"b9c0d204","price(address,uint256,uint256)":"3a06daa2","swapMintAmounts(address,uint256,uint256)":"0db4cdda","swapToLimitAmounts(address,uint256,uint256,int128)":"c63a9743","working(address)":"c757221b"},"id":48}