{"abi":[{"type":"constructor","inputs":[{"name":"owner_","type":"address","internalType":"address"},{"name":"wrapper_","type":"address","internalType":"contract NativeWrapper"},{"name":"swapImpl_","type":"address","internalType":"contract PartyPoolSwapImpl"},{"name":"mintImpl_","type":"address","internalType":"contract PartyPoolMintImpl"},{"name":"poolInitCodeStorage_","type":"address","internalType":"contract PartyPoolInitCode"},{"name":"balancedPairInitCodeStorage_","type":"address","internalType":"contract PartyPoolBalancedPairInitCode"},{"name":"protocolFeePpm_","type":"uint256","internalType":"uint256"},{"name":"protocolFeeAddress_","type":"address","internalType":"address"}],"stateMutability":"nonpayable"},{"type":"function","name":"getAllPools","inputs":[{"name":"offset","type":"uint256","internalType":"uint256"},{"name":"limit","type":"uint256","internalType":"uint256"}],"outputs":[{"name":"pools","type":"address[]","internalType":"contract IPartyPool[]"}],"stateMutability":"view"},{"type":"function","name":"getAllTokens","inputs":[{"name":"offset","type":"uint256","internalType":"uint256"},{"name":"limit","type":"uint256","internalType":"uint256"}],"outputs":[{"name":"tokens","type":"address[]","internalType":"address[]"}],"stateMutability":"view"},{"type":"function","name":"getPoolSupported","inputs":[{"name":"pool","type":"address","internalType":"address"}],"outputs":[{"name":"","type":"bool","internalType":"bool"}],"stateMutability":"view"},{"type":"function","name":"getPoolsByToken","inputs":[{"name":"token","type":"address","internalType":"contract IERC20"},{"name":"offset","type":"uint256","internalType":"uint256"},{"name":"limit","type":"uint256","internalType":"uint256"}],"outputs":[{"name":"pools","type":"address[]","internalType":"contract IPartyPool[]"}],"stateMutability":"view"},{"type":"function","name":"mintImpl","inputs":[],"outputs":[{"name":"","type":"address","internalType":"contract PartyPoolMintImpl"}],"stateMutability":"view"},{"type":"function","name":"newPool","inputs":[{"name":"name_","type":"string","internalType":"string"},{"name":"symbol_","type":"string","internalType":"string"},{"name":"tokens_","type":"address[]","internalType":"contract IERC20[]"},{"name":"kappa_","type":"int128","internalType":"int128"},{"name":"swapFeesPpm_","type":"uint256[]","internalType":"uint256[]"},{"name":"flashFeePpm_","type":"uint256","internalType":"uint256"},{"name":"stable_","type":"bool","internalType":"bool"},{"name":"payer","type":"address","internalType":"address"},{"name":"receiver","type":"address","internalType":"address"},{"name":"initialDeposits","type":"uint256[]","internalType":"uint256[]"},{"name":"initialLpAmount","type":"uint256","internalType":"uint256"},{"name":"deadline","type":"uint256","internalType":"uint256"}],"outputs":[{"name":"pool","type":"address","internalType":"contract IPartyPool"},{"name":"lpAmount","type":"uint256","internalType":"uint256"}],"stateMutability":"nonpayable"},{"type":"function","name":"newPool","inputs":[{"name":"name_","type":"string","internalType":"string"},{"name":"symbol_","type":"string","internalType":"string"},{"name":"tokens_","type":"address[]","internalType":"contract IERC20[]"},{"name":"tradeFrac_","type":"int128","internalType":"int128"},{"name":"targetSlippage_","type":"int128","internalType":"int128"},{"name":"swapFeePpm_","type":"uint256","internalType":"uint256"},{"name":"flashFeePpm_","type":"uint256","internalType":"uint256"},{"name":"stable_","type":"bool","internalType":"bool"},{"name":"payer","type":"address","internalType":"address"},{"name":"receiver","type":"address","internalType":"address"},{"name":"initialDeposits","type":"uint256[]","internalType":"uint256[]"},{"name":"initialLpAmount","type":"uint256","internalType":"uint256"},{"name":"deadline","type":"uint256","internalType":"uint256"}],"outputs":[{"name":"pool","type":"address","internalType":"contract IPartyPool"},{"name":"lpAmount","type":"uint256","internalType":"uint256"}],"stateMutability":"nonpayable"},{"type":"function","name":"newPool","inputs":[{"name":"name_","type":"string","internalType":"string"},{"name":"symbol_","type":"string","internalType":"string"},{"name":"tokens_","type":"address[]","internalType":"contract IERC20[]"},{"name":"kappa_","type":"int128","internalType":"int128"},{"name":"swapFeePpm_","type":"uint256","internalType":"uint256"},{"name":"flashFeePpm_","type":"uint256","internalType":"uint256"},{"name":"stable_","type":"bool","internalType":"bool"},{"name":"payer","type":"address","internalType":"address"},{"name":"receiver","type":"address","internalType":"address"},{"name":"initialDeposits","type":"uint256[]","internalType":"uint256[]"},{"name":"initialLpAmount","type":"uint256","internalType":"uint256"},{"name":"deadline","type":"uint256","internalType":"uint256"}],"outputs":[{"name":"pool","type":"address","internalType":"contract IPartyPool"},{"name":"lpAmount","type":"uint256","internalType":"uint256"}],"stateMutability":"nonpayable"},{"type":"function","name":"owner","inputs":[],"outputs":[{"name":"","type":"address","internalType":"address"}],"stateMutability":"view"},{"type":"function","name":"params","inputs":[],"outputs":[{"name":"","type":"tuple","internalType":"struct IPartyPoolDeployer.DeployParams","components":[{"name":"nonce","type":"bytes32","internalType":"bytes32"},{"name":"owner","type":"address","internalType":"address"},{"name":"name","type":"string","internalType":"string"},{"name":"symbol","type":"string","internalType":"string"},{"name":"tokens","type":"address[]","internalType":"contract IERC20[]"},{"name":"kappa","type":"int128","internalType":"int128"},{"name":"fees","type":"uint256[]","internalType":"uint256[]"},{"name":"flashFeePpm","type":"uint256","internalType":"uint256"},{"name":"protocolFeePpm","type":"uint256","internalType":"uint256"},{"name":"protocolFeeAddress","type":"address","internalType":"address"},{"name":"wrapper","type":"address","internalType":"contract NativeWrapper"},{"name":"swapImpl","type":"address","internalType":"contract PartyPoolSwapImpl"},{"name":"mintImpl","type":"address","internalType":"contract PartyPoolMintImpl"}]}],"stateMutability":"view"},{"type":"function","name":"poolCount","inputs":[],"outputs":[{"name":"","type":"uint256","internalType":"uint256"}],"stateMutability":"view"},{"type":"function","name":"poolsByTokenCount","inputs":[{"name":"token","type":"address","internalType":"contract IERC20"}],"outputs":[{"name":"","type":"uint256","internalType":"uint256"}],"stateMutability":"view"},{"type":"function","name":"protocolFeeAddress","inputs":[],"outputs":[{"name":"","type":"address","internalType":"address"}],"stateMutability":"view"},{"type":"function","name":"protocolFeePpm","inputs":[],"outputs":[{"name":"","type":"uint256","internalType":"uint256"}],"stateMutability":"view"},{"type":"function","name":"renounceOwnership","inputs":[],"outputs":[],"stateMutability":"nonpayable"},{"type":"function","name":"setProtocolFeeAddress","inputs":[{"name":"feeAddress","type":"address","internalType":"address"}],"outputs":[],"stateMutability":"nonpayable"},{"type":"function","name":"setProtocolFeePpm","inputs":[{"name":"feePpm","type":"uint256","internalType":"uint256"}],"outputs":[],"stateMutability":"nonpayable"},{"type":"function","name":"swapImpl","inputs":[],"outputs":[{"name":"","type":"address","internalType":"contract PartyPoolSwapImpl"}],"stateMutability":"view"},{"type":"function","name":"tokenCount","inputs":[],"outputs":[{"name":"","type":"uint256","internalType":"uint256"}],"stateMutability":"view"},{"type":"function","name":"transferOwnership","inputs":[{"name":"newOwner","type":"address","internalType":"address"}],"outputs":[],"stateMutability":"nonpayable"},{"type":"function","name":"wrapper","inputs":[],"outputs":[{"name":"","type":"address","internalType":"contract NativeWrapper"}],"stateMutability":"view"},{"type":"event","name":"OwnershipTransferred","inputs":[{"name":"previousOwner","type":"address","indexed":true,"internalType":"address"},{"name":"newOwner","type":"address","indexed":true,"internalType":"address"}],"anonymous":false},{"type":"event","name":"PartyStarted","inputs":[{"name":"pool","type":"address","indexed":true,"internalType":"contract IPartyPool"},{"name":"name","type":"string","indexed":false,"internalType":"string"},{"name":"symbol","type":"string","indexed":false,"internalType":"string"},{"name":"tokens","type":"address[]","indexed":false,"internalType":"contract IERC20[]"}],"anonymous":false},{"type":"error","name":"OwnableInvalidOwner","inputs":[{"name":"owner","type":"address","internalType":"address"}]},{"type":"error","name":"OwnableUnauthorizedAccount","inputs":[{"name":"account","type":"address","internalType":"address"}]},{"type":"error","name":"SafeERC20FailedOperation","inputs":[{"name":"token","type":"address","internalType":"address"}]}],"bytecode":{"object":"0x6101203461038f57601f613b7038819003918201601f19168301916001600160401b03831184841017610393578084926101009460405283398101031261038f57610049816103a7565b60208201519091906001600160a01b038116810361038f5760408201516001600160a01b0381169081810361038f576060840151926001600160a01b0384169283850361038f5760808601516001600160a01b038116979088900361038f5760a08701516001600160a01b0381169081900361038f576100d060e060c08a015199016103a7565b98801561033e5781156102e45760805260a0526001600160a01b03169182156102d157600f80546001600160a01b03198116851790915560405193906001600160a01b03167f8be0079c531659141344cd1fd0a4f28419497f9722a3daafe3b4186f6b6457e05f80a3610100521561027e575060e052156102285760c052620f42408110156101e357601055601180546001600160a01b0319166001600160a01b03929092169190911790556040516137b490816103bc823960805181612860015260a0518161289a015260c051818181610fe70152818161172d0152612600015260e051818181610a83015281816116f001526125c3015261010051818181610a15015281816116b301526125860152f35b60405162461bcd60e51b815260206004820152601c60248201527f506c616e6e65723a2070726f746f636f6c20666565203e3d2070706d000000006044820152606490fd5b60405162461bcd60e51b815260206004820152602860248201527f506c616e6e65723a206d696e74496d706c20616464726573732063616e6e6f74604482015267206265207a65726f60c01b6064820152608490fd5b62461bcd60e51b815260206004820152602860248201527f506c616e6e65723a2073776170496d706c20616464726573732063616e6e6f74604482015267206265207a65726f60c01b6064820152608490fd5b631e4fbdf760e01b5f525f60045260245ffd5b60405162461bcd60e51b815260206004820152602c60248201527f4465706c6f7965723a207a65726f2062616c616e63656420706169722073746f60448201526b72616765206164647265737360a01b6064820152608490fd5b60405162461bcd60e51b815260206004820152602360248201527f4465706c6f7965723a207a65726f20706f6f6c2073746f72616765206164647260448201526265737360e81b6064820152608490fd5b5f80fd5b634e487b7160e01b5f52604160045260245ffd5b51906001600160a01b038216820361038f5756fe60806040526004361015610011575f80fd5b5f3560e01c806314c870c01461016457806360cf7d4a1461015f5780636b4082d11461015a5780636b7b911214610155578063715018a6146101505780638da5cb5b1461014b5780639a043832146101465780639f181b5e14610141578063a3b6a0061461013c578063a4689b2414610137578063a7753f0914610132578063ac210cc71461012d578063c405e44214610128578063cce516b714610123578063cff0ab961461011e578063f0d1ae4f14610119578063f2fde38b14610114578063f31767251461010f578063f525cb681461010a578063f63772fc146101055763f70a3a1714610100575f80fd5b611294565b6111a4565b611169565b6110fd565b61100b565b610f9d565b610d58565b610aa7565b610a39565b6109cb565b61098b565b610892565b610853565b610818565b610781565b610730565b610694565b61060e565b6105d3565b61049c565b6101da565b73ffffffffffffffffffffffffffffffffffffffff81160361018757565b5f80fd5b60206040818301928281528451809452019201905f5b8181106101ae5750505090565b825173ffffffffffffffffffffffffffffffffffffffff168452602093840193909201916001016101a1565b346101875760607ffffffffffffffffffffffffffffffffffffffffffffffffffffffffffffffffc3601126101875761023361022760043561021b81610169565b60243560443591611469565b6040519182918261018b565b0390f35b7f4e487b71000000000000000000000000000000000000000000000000000000005f52604160045260245ffd5b6101a0810190811067ffffffffffffffff82111761028157604052565b610237565b90601f7fffffffffffffffffffffffffffffffffffffffffffffffffffffffffffffffe0910116810190811067ffffffffffffffff82111761028157604052565b604051906102d76101a083610286565b565b67ffffffffffffffff811161028157601f017fffffffffffffffffffffffffffffffffffffffffffffffffffffffffffffffe01660200190565b81601f820112156101875780359061032a826102d9565b926103386040519485610286565b8284526020838301011161018757815f926020809301838601378301015290565b67ffffffffffffffff81116102815760051b60200190565b9080601f8301121561018757813561038881610359565b926103966040519485610286565b81845260208085019260051b82010192831161018757602001905b8282106103be5750505090565b6020809183356103cd81610169565b8152019101906103b1565b6064359081600f0b820361018757565b6084359081600f0b820361018757565b9080601f8301121561018757813561040f81610359565b9261041d6040519485610286565b81845260208085019260051b82010192831161018757602001905b8282106104455750505090565b8135815260209182019101610438565b60c43590811515820361018757565b60e43590811515820361018757565b60e435906102d782610169565b61010435906102d782610169565b61012435906102d782610169565b34610187576101807ffffffffffffffffffffffffffffffffffffffffffffffffffffffffffffffffc3601126101875760043567ffffffffffffffff8111610187576104ec903690600401610313565b60243567ffffffffffffffff81116101875761050c903690600401610313565b9060443567ffffffffffffffff81116101875761052d903690600401610371565b916105366103d8565b9260843567ffffffffffffffff8111610187576105579036906004016103f8565b60a435610562610455565b61056a610473565b91610573610480565b93610124359867ffffffffffffffff8a11610187576105996105a99a36906004016103f8565b966101443598610164359a61154f565b6040805173ffffffffffffffffffffffffffffffffffffffff939093168352602083019190915290f35b34610187575f7ffffffffffffffffffffffffffffffffffffffffffffffffffffffffffffffffc360112610187576020601054604051908152f35b346101875760207ffffffffffffffffffffffffffffffffffffffffffffffffffffffffffffffffc3601126101875773ffffffffffffffffffffffffffffffffffffffff60043561065e81610169565b6106666127d3565b167fffffffffffffffffffffffff000000000000000000000000000000000000000060115416176011555f80f35b34610187575f7ffffffffffffffffffffffffffffffffffffffffffffffffffffffffffffffffc360112610187576106ca6127d3565b5f73ffffffffffffffffffffffffffffffffffffffff600f547fffffffffffffffffffffffff00000000000000000000000000000000000000008116600f55167f8be0079c531659141344cd1fd0a4f28419497f9722a3daafe3b4186f6b6457e08280a3005b34610187575f7ffffffffffffffffffffffffffffffffffffffffffffffffffffffffffffffffc36011261018757602073ffffffffffffffffffffffffffffffffffffffff600f5416604051908152f35b346101875760407ffffffffffffffffffffffffffffffffffffffffffffffffffffffffffffffffc360112610187576107be602435600435612043565b6040518091602082016020835281518091526020604084019201905f5b8181106107e9575050500390f35b825173ffffffffffffffffffffffffffffffffffffffff168452859450602093840193909201916001016107db565b34610187575f7ffffffffffffffffffffffffffffffffffffffffffffffffffffffffffffffffc360112610187576020601354604051908152f35b346101875760207ffffffffffffffffffffffffffffffffffffffffffffffffffffffffffffffffc3601126101875760043561088d6127d3565b601055005b34610187576101a07ffffffffffffffffffffffffffffffffffffffffffffffffffffffffffffffffc3601126101875760043567ffffffffffffffff8111610187576108e2903690600401610313565b60243567ffffffffffffffff811161018757610902903690600401610313565b9060443567ffffffffffffffff811161018757610923903690600401610371565b9161092c6103d8565b926109356103e8565b60a43560c435610943610464565b9061094c610480565b9261095561048e565b94610144359967ffffffffffffffff8b116101875761097b6105a99b36906004016103f8565b976101643599610184359b6120c6565b346101875760407ffffffffffffffffffffffffffffffffffffffffffffffffffffffffffffffffc360112610187576102336102276024356004356121f8565b34610187575f7ffffffffffffffffffffffffffffffffffffffffffffffffffffffffffffffffc36011261018757602060405173ffffffffffffffffffffffffffffffffffffffff7f0000000000000000000000000000000000000000000000000000000000000000168152f35b34610187575f7ffffffffffffffffffffffffffffffffffffffffffffffffffffffffffffffffc36011261018757602060405173ffffffffffffffffffffffffffffffffffffffff7f0000000000000000000000000000000000000000000000000000000000000000168152f35b34610187575f7ffffffffffffffffffffffffffffffffffffffffffffffffffffffffffffffffc36011261018757602073ffffffffffffffffffffffffffffffffffffffff60115416604051908152f35b907fffffffffffffffffffffffffffffffffffffffffffffffffffffffffffffffe0601f602080948051918291828752018686015e5f8582860101520116010190565b90602080835192838152019201905f5b818110610b585750505090565b825173ffffffffffffffffffffffffffffffffffffffff16845260209384019390920191600101610b4b565b90602080835192838152019201905f5b818110610ba15750505090565b8251845260209384019390920191600101610b94565b602080825282518183015282015173ffffffffffffffffffffffffffffffffffffffff166040820152610d55906101a0610180610cb5610c74610c40610c0c60408901518660608901526101c0880190610af8565b60608901517fffffffffffffffffffffffffffffffffffffffffffffffffffffffffffffffe0888303016080890152610af8565b60808801517fffffffffffffffffffffffffffffffffffffffffffffffffffffffffffffffe08783030160a0880152610b3b565b60a0870151600f0b60c086015260c08701517fffffffffffffffffffffffffffffffffffffffffffffffffffffffffffffffe08683030160e0870152610b84565b9460e0810151610100850152610100810151610120850152610cf661012082015161014086019073ffffffffffffffffffffffffffffffffffffffff169052565b61014081015173ffffffffffffffffffffffffffffffffffffffff1661016085015261016081015173ffffffffffffffffffffffffffffffffffffffff1684830152015173ffffffffffffffffffffffffffffffffffffffff16910152565b90565b34610187575f7ffffffffffffffffffffffffffffffffffffffffffffffffffffffffffffffffc360112610187575f610180604051610d9681610264565b82815282602082015260606040820152606080820152606060808201528260a0820152606060c08201528260e0820152826101008201528261012082015282610140820152826101608201520152610233610def6102c7565b6002548152610e33610e1660035473ffffffffffffffffffffffffffffffffffffffff1690565b73ffffffffffffffffffffffffffffffffffffffff166020830152565b610e3b6122b5565b6040820152610e48612388565b6060820152610e5561241d565b6080820152610e73610e69600754600f0b90565b600f0b60a0830152565b610e7b61247b565b60c082015260095460e0820152600a54610100820152610ed1610eb3600b5473ffffffffffffffffffffffffffffffffffffffff1690565b73ffffffffffffffffffffffffffffffffffffffff16610120830152565b610f11610ef3600c5473ffffffffffffffffffffffffffffffffffffffff1690565b73ffffffffffffffffffffffffffffffffffffffff16610140830152565b610f51610f33600d5473ffffffffffffffffffffffffffffffffffffffff1690565b73ffffffffffffffffffffffffffffffffffffffff16610160830152565b610f91610f73600e5473ffffffffffffffffffffffffffffffffffffffff1690565b73ffffffffffffffffffffffffffffffffffffffff16610180830152565b60405191829182610bb7565b34610187575f7ffffffffffffffffffffffffffffffffffffffffffffffffffffffffffffffffc36011261018757602060405173ffffffffffffffffffffffffffffffffffffffff7f0000000000000000000000000000000000000000000000000000000000000000168152f35b346101875760207ffffffffffffffffffffffffffffffffffffffffffffffffffffffffffffffffc3601126101875773ffffffffffffffffffffffffffffffffffffffff60043561105b81610169565b6110636127d3565b1680156110d15773ffffffffffffffffffffffffffffffffffffffff600f54827fffffffffffffffffffffffff0000000000000000000000000000000000000000821617600f55167f8be0079c531659141344cd1fd0a4f28419497f9722a3daafe3b4186f6b6457e05f80a3005b7f1e4fbdf7000000000000000000000000000000000000000000000000000000005f525f60045260245ffd5b346101875760207ffffffffffffffffffffffffffffffffffffffffffffffffffffffffffffffffc3601126101875773ffffffffffffffffffffffffffffffffffffffff60043561114d81610169565b165f526014602052602060ff60405f2054166040519015158152f35b34610187575f7ffffffffffffffffffffffffffffffffffffffffffffffffffffffffffffffffc360112610187576020601254604051908152f35b34610187576101807ffffffffffffffffffffffffffffffffffffffffffffffffffffffffffffffffc3601126101875760043567ffffffffffffffff8111610187576111f4903690600401610313565b60243567ffffffffffffffff811161018757611214903690600401610313565b9060443567ffffffffffffffff811161018757611235903690600401610371565b9161123e6103d8565b9260843560a43561124d610455565b611255610473565b9161125e610480565b93610124359867ffffffffffffffff8a11610187576112846105a99a36906004016103f8565b966101443598610164359a6124c3565b346101875760207ffffffffffffffffffffffffffffffffffffffffffffffffffffffffffffffffc3601126101875773ffffffffffffffffffffffffffffffffffffffff6004356112e481610169565b165f526016602052602060405f2054604051908152f35b6040519061130a602083610286565b5f808352366020840137565b9061132082610359565b61132d6040519182610286565b8281527fffffffffffffffffffffffffffffffffffffffffffffffffffffffffffffffe061135b8294610359565b0190602036910137565b7f4e487b71000000000000000000000000000000000000000000000000000000005f52601160045260245ffd5b9190820180921161139f57565b611365565b907fffffffffffffffffffffffffffffffffffffffffffffffffffffffffffffffff820191821161139f57565b9190820391821161139f57565b7f4e487b71000000000000000000000000000000000000000000000000000000005f52603260045260245ffd5b6013548110156114235760135f5260205f2001905f90565b6113de565b6012548110156114235760125f5260205f2001905f90565b8054821015611423575f5260205f2001905f90565b80518210156114235760209160051b010190565b73ffffffffffffffffffffffffffffffffffffffff90929192165f52601660205260405f2090815480841015611543578184019081851161139f57808592115f1461153b576114b892506113d1565b905b6114c382611316565b925f5b8381106114d4575050505090565b806115356115106114f06114ea60019587611392565b87611440565b905473ffffffffffffffffffffffffffffffffffffffff9160031b1c1690565b61151a8389611455565b9073ffffffffffffffffffffffffffffffffffffffff169052565b016114c6565b5050906114ba565b50505050610d556112fb565b9a92899c9561158661169c949b61157c8f959b9a9761156c6127d3565b8015908115611aef575b50611afa565b8c51905114611b5f565b6115a773ffffffffffffffffffffffffffffffffffffffff89161515611bea565b6115c873ffffffffffffffffffffffffffffffffffffffff8b161515611c75565b6115d65f83600f0b13611d00565b6115e386518c5114611d65565b600f5473ffffffffffffffffffffffffffffffffffffffff169561166e6010549361162360115473ffffffffffffffffffffffffffffffffffffffff1690565b9561165161162f6102c7565b5f815273ffffffffffffffffffffffffffffffffffffffff909b1660208c0152565b60408a01528b60608a01528d60808a015260a0890190600f0b9052565b60c087015260e086015261010085015273ffffffffffffffffffffffffffffffffffffffff16610120840152565b73ffffffffffffffffffffffffffffffffffffffff7f00000000000000000000000000000000000000000000000000000000000000001661014083015273ffffffffffffffffffffffffffffffffffffffff7f00000000000000000000000000000000000000000000000000000000000000001661016083015273ffffffffffffffffffffffffffffffffffffffff7f00000000000000000000000000000000000000000000000000000000000000001661018083015280611ae4575b15611ad55761176790612885565b955b61177287611df0565b6117c861179d8873ffffffffffffffffffffffffffffffffffffffff165f52601460205260405f2090565b60017fffffffffffffffffffffffffffffffffffffffffffffffffffffffffffffff00825416179055565b5f5b86518110156118c8578061186a896118656118046117ea6001968d611455565b5173ffffffffffffffffffffffffffffffffffffffff1690565b61183d6118396118328373ffffffffffffffffffffffffffffffffffffffff165f52601560205260405f2090565b5460ff1690565b1590565b6118705773ffffffffffffffffffffffffffffffffffffffff165f52601660205260405f2090565b611e82565b016117ca565b61187981611ed6565b6118a461179d8273ffffffffffffffffffffffffffffffffffffffff165f52601560205260405f2090565b73ffffffffffffffffffffffffffffffffffffffff165f52601660205260405f2090565b509092959193967ff45e30d37dc5ef98e17708308b886213b8f485ea52d495067eed8d4977423f2273ffffffffffffffffffffffffffffffffffffffff841697889261191a8960405193849384611f68565b0390a25f5b8551811015611a4a57808988876119378a9584611455565b5161194a575b505050600191500161191f565b6119658461195f6117ea8261196c9899611455565b94611455565b51926128bf565b61199561197c6117ea8389611455565b73ffffffffffffffffffffffffffffffffffffffff1690565b6040517f70a0823100000000000000000000000000000000000000000000000000000000815273ffffffffffffffffffffffffffffffffffffffff891660048201529190602090839060249082905afa918215611a4557600192611a0c915f91611a17575b50611a05838d611455565b5114611fb9565b86915089888761193d565b611a38915060203d8111611a3e575b611a308183610286565b810190611f9f565b5f6119fa565b503d611a26565b611fae565b506040517f6d8d0ff300000000000000000000000000000000000000000000000000000000815273ffffffffffffffffffffffffffffffffffffffff979097166004880152602487015294955093926020925085915060449082905f905af1928315611a45575f93611abb57509190565b610d5591935060203d602011611a3e57611a308183610286565b611ade9061284d565b95611769565b506002865114611759565b90504211155f611576565b15611b0157565b60646040517f08c379a000000000000000000000000000000000000000000000000000000000815260206004820152601a60248201527f506c616e6e65723a20646561646c696e652065786365656465640000000000006044820152fd5b15611b6657565b60846040517f08c379a000000000000000000000000000000000000000000000000000000000815260206004820152602c60248201527f506c616e6e65723a20746f6b656e7320616e64206465706f73697473206c656e60448201527f677468206d69736d6174636800000000000000000000000000000000000000006064820152fd5b15611bf157565b60846040517f08c379a000000000000000000000000000000000000000000000000000000000815260206004820152602560248201527f506c616e6e65723a2070617965722063616e6e6f74206265207a65726f20616460448201527f64726573730000000000000000000000000000000000000000000000000000006064820152fd5b15611c7c57565b60846040517f08c379a000000000000000000000000000000000000000000000000000000000815260206004820152602860248201527f506c616e6e65723a2072656365697665722063616e6e6f74206265207a65726f60448201527f20616464726573730000000000000000000000000000000000000000000000006064820152fd5b15611d0757565b60646040517f08c379a000000000000000000000000000000000000000000000000000000000815260206004820152601a60248201527f506c616e6e65723a206b61707061206d757374206265203e20300000000000006044820152fd5b15611d6c57565b60846040517f08c379a000000000000000000000000000000000000000000000000000000000815260206004820152602860248201527f506c616e6e65723a206665657320616e6420746f6b656e73206c656e6774682060448201527f6d69736d617463680000000000000000000000000000000000000000000000006064820152fd5b601254906801000000000000000082101561028157600182016012556012548210156114235760125f527fbb8a6a4669ba250d26cd7a459eca9d215f8307e33aebe50379bc5a3617ec344490910180547fffffffffffffffffffffffff00000000000000000000000000000000000000001673ffffffffffffffffffffffffffffffffffffffff909216919091179055565b90815491680100000000000000008310156102815782611eaa9160016102d795018155611440565b90919073ffffffffffffffffffffffffffffffffffffffff8084549260031b9316831b921b1916179055565b601354906801000000000000000082101561028157600182016013556013548210156114235760135f527f66de8ffda797e3de9c05e8fc57b3bf0ec28a930d40b0d285d93c06501cf6a09090910180547fffffffffffffffffffffffff00000000000000000000000000000000000000001673ffffffffffffffffffffffffffffffffffffffff909216919091179055565b91611f9190611f83610d559593606086526060860190610af8565b908482036020860152610af8565b916040818403910152610b3b565b90816020910312610187575190565b6040513d5f823e3d90fd5b15611fc057565b60846040517f08c379a0000000000000000000000000000000000000000000000000000000008152602060048201526024808201527f6665652d6f6e2d7472616e7366657220746f6b656e73206e6f7420737570706f60448201527f72746564000000000000000000000000000000000000000000000000000000006064820152fd5b9060135490818310156120bb5780830180841161139f578210156120b4575081810390811161139f575b61207681611316565b915f5b8281106120865750505090565b806120ae6120a461197c6114f061209f60019688611392565b61140b565b61151a8388611455565b01612079565b905061206d565b505050610d556112fb565b926121ac6121bf916121866121d39f9e9d9c9b9a99989761218b6121a7916120ec6127d3565b88516120fa60018211612994565b6121116801000000000000000083600f0b126129f9565b6121336801000000000000000087600f0b61212d5f8213612a84565b12612ae9565b61216861216361214284613416565b9361215d61215861215286613473565b956113a4565b613473565b9061348b565b6134cb565b90600f0b82600f0b12155f146121ea576121865f82600f0b13612bb3565b61355d565b6121a281600f0b5f811390816121d7575b50612c18565b61362a565b6135a3565b6121ba5f82600f0b13612c7d565b61350d565b926121ce5f85600f0b13612ce2565b6124c3565b9091565b680100000000000000009150125f61219c565b6121865f82600f0b13612b4e565b9060125490818310156120bb5780830180841161139f5782101561225d575081810390811161139f575b61222b81611316565b915f5b82811061223b5750505090565b8082019081831161139f576122576120a46114f0600194611428565b0161222e565b9050612222565b90600182811c921680156122ab575b602083101461227e57565b7f4e487b71000000000000000000000000000000000000000000000000000000005f52602260045260245ffd5b91607f1691612273565b604051905f82600454916122c883612264565b808352926001811690811561234b57506001146122ec575b6102d792500383610286565b5060045f90815290917f8a35acfbc15ff81a39ae7d344fd709f28e8600b4aa8c65c6b64bfe7fe36bd19b5b81831061232f5750509060206102d7928201016122e0565b6020919350806001915483858901015201910190918492612317565b602092506102d79491507fffffffffffffffffffffffffffffffffffffffffffffffffffffffffffffff001682840152151560051b8201016122e0565b604051905f826005549161239b83612264565b808352926001811690811561234b57506001146123be576102d792500383610286565b5060055f90815290917f036b6384b5eca791c62761152d0c79bb0604c104a5fb6f4eb0703f3154bb3db05b8183106124015750509060206102d7928201016122e0565b60209193508060019154838589010152019101909184926123e9565b60405190600654808352826020810160065f5260205f20925f5b81811061244c5750506102d792500383610286565b845473ffffffffffffffffffffffffffffffffffffffff16835260019485019487945060209093019201612437565b60405190600854808352826020810160085f5260205f20925f5b8181106124aa5750506102d792500383610286565b8454835260019485019487945060209093019201612495565b97949b919590939996926124d56127d3565b86519c6124e18e610359565b6040519e8f916124f19083610286565b8082526124fd90610359565b7fffffffffffffffffffffffffffffffffffffffffffffffffffffffffffffffe001903690602001375f9b60011c9b5b885181101561254d57808f6125468f9193600194611455565b520161252d565b508a9d95989b506115868a9d9b61157c61256f96999c95979a9d61156c6127d3565b73ffffffffffffffffffffffffffffffffffffffff7f00000000000000000000000000000000000000000000000000000000000000001661014083015273ffffffffffffffffffffffffffffffffffffffff7f00000000000000000000000000000000000000000000000000000000000000001661016083015273ffffffffffffffffffffffffffffffffffffffff7f000000000000000000000000000000000000000000000000000000000000000016610180830152806127c8575b156127b95761263a90612885565b955b61264587611df0565b61267061179d8873ffffffffffffffffffffffffffffffffffffffff165f52601460205260405f2090565b5f5b86518110156126985780612692896118656118046117ea6001968d611455565b01612672565b509092959193967ff45e30d37dc5ef98e17708308b886213b8f485ea52d495067eed8d4977423f2273ffffffffffffffffffffffffffffffffffffffff84169788926126ea8960405193849384611f68565b0390a25f5b8551811015611a4a57808988876127078a9584611455565b5161271a575b50505060019150016126ef565b6119658461195f6117ea8261272f9899611455565b61273f61197c6117ea8389611455565b6040517f70a0823100000000000000000000000000000000000000000000000000000000815273ffffffffffffffffffffffffffffffffffffffff891660048201529190602090839060249082905afa918215611a45576001926127ae915f91611a175750611a05838d611455565b86915089888761270d565b6127c29061284d565b9561263c565b50600286511461262c565b73ffffffffffffffffffffffffffffffffffffffff600f541633036127f457565b7f118cdaa7000000000000000000000000000000000000000000000000000000005f523360045260245ffd5b7fffffffffffffffffffffffffffffffffffffffffffffffffffffffffffffffff811461139f5760010190565b5f54610d559161285c82612820565b5f557f000000000000000000000000000000000000000000000000000000000000000090613131565b600154610d559161289582612820565b6001557f000000000000000000000000000000000000000000000000000000000000000090613131565b92909173ffffffffffffffffffffffffffffffffffffffff9081604051947f23b872dd000000000000000000000000000000000000000000000000000000005f52166004521660245260445260205f60648180865af160015f5114811615612975575b6040919091525f606052156129345750565b7f5274afe7000000000000000000000000000000000000000000000000000000005f5273ffffffffffffffffffffffffffffffffffffffff1660045260245ffd5b600181151661298b573d15833b15151616612922565b503d5f823e3d90fd5b1561299b57565b60646040517f08c379a000000000000000000000000000000000000000000000000000000000815260206004820152600c60248201527f6e3e3120726571756972656400000000000000000000000000000000000000006044820152fd5b15612a0057565b60846040517f08c379a000000000000000000000000000000000000000000000000000000000815260206004820152602260248201527f746172676574536c697070616765206d757374206265203c2031202836342e3660448201527f34290000000000000000000000000000000000000000000000000000000000006064820152fd5b15612a8b57565b60646040517f08c379a000000000000000000000000000000000000000000000000000000000815260206004820152601a60248201527f747261646546726163206d75737420626520706f7369746976650000000000006044820152fd5b15612af057565b60646040517f08c379a000000000000000000000000000000000000000000000000000000000815260206004820152601f60248201527f747261646546726163206d757374206265206c657373207468616e206f6e65006044820152fd5b15612b5557565b60646040517f08c379a000000000000000000000000000000000000000000000000000000000815260206004820152601160248201527f62616420736c697070616765206f72206e0000000000000000000000000000006044820152fd5b15612bba57565b60646040517f08c379a000000000000000000000000000000000000000000000000000000000815260206004820152601160248201527f7320746f6f206c6172676520666f72206e0000000000000000000000000000006044820152fd5b15612c1f57565b60646040517f08c379a000000000000000000000000000000000000000000000000000000000815260206004820152600b60248201527f626164204520726174696f0000000000000000000000000000000000000000006044820152fd5b15612c8457565b60646040517f08c379a000000000000000000000000000000000000000000000000000000000815260206004820152600460248201527f793c3d30000000000000000000000000000000000000000000000000000000006044820152fd5b15612ce957565b60646040517f08c379a000000000000000000000000000000000000000000000000000000000815260206004820152600860248201527f6b617070613c3d300000000000000000000000000000000000000000000000006044820152fd5b5f5b828110612d5557505050565b5f82820155600101612d49565b91601f8211612d7057505050565b808211612d7c57505050565b6102d7925f5260205f20916020601f830160051c9210612da7575b601f82910160051c039101612d47565b5f9150612d97565b90815167ffffffffffffffff811161028157612dd781612dd0600454612264565b6004612d62565b602092601f8211600114612e3557612e25929382915f92612e2a575b50507fffffffffffffffffffffffffffffffffffffffffffffffffffffffffffffffff8260011b9260031b1c19161790565b600455565b015190505f80612df3565b60045f527fffffffffffffffffffffffffffffffffffffffffffffffffffffffffffffffe08216937f8a35acfbc15ff81a39ae7d344fd709f28e8600b4aa8c65c6b64bfe7fe36bd19b915f5b868110612ed65750836001959610612e9f575b505050811b01600455565b01517fffffffffffffffffffffffffffffffffffffffffffffffffffffffffffffffff60f88460031b161c191690555f8080612e94565b91926020600181928685015181550194019201612e81565b90815167ffffffffffffffff811161028157612f1681612f0f600554612264565b6005612d62565b602092601f8211600114612f6857612f63929382915f92612e2a5750507fffffffffffffffffffffffffffffffffffffffffffffffffffffffffffffffff8260011b9260031b1c19161790565b600555565b60055f527fffffffffffffffffffffffffffffffffffffffffffffffffffffffffffffffe08216937f036b6384b5eca791c62761152d0c79bb0604c104a5fb6f4eb0703f3154bb3db0915f5b8681106130095750836001959610612fd2575b505050811b01600555565b01517fffffffffffffffffffffffffffffffffffffffffffffffffffffffffffffffff60f88460031b161c191690555f8080612fc7565b91926020600181928685015181550194019201612fb4565b80519067ffffffffffffffff8211610281576801000000000000000082116102815760209060065483600655808410613098575b500160065f5260205f205f5b83811061306e5750505050565b600190602073ffffffffffffffffffffffffffffffffffffffff8551169401938184015501613061565b6130ae9060065f528480855f2001910390612d47565b5f613055565b80519067ffffffffffffffff8211610281576801000000000000000082116102815760209060085483600855808410613115575b500160085f5260205f205f5b8381106131015750505050565b6001906020845194019381840155016130f4565b61312b9060085f528480855f2001910390612d47565b5f6130e8565b906133da6133996101806133e8946131498151600255565b6131ae61316d602083015173ffffffffffffffffffffffffffffffffffffffff1690565b73ffffffffffffffffffffffffffffffffffffffff167fffffffffffffffffffffffff00000000000000000000000000000000000000006003541617600355565b6131bb6040820151612daf565b6131c86060820151612eee565b6131d56080820151613021565b6132246131e660a0830151600f0b90565b7fffffffffffffffffffffffffffffffff0000000000000000000000000000000060075416906fffffffffffffffffffffffffffffffff1617600755565b61323160c08201516130b4565b61323e60e0820151600955565b61324c610100820151600a55565b6132b261327161012083015173ffffffffffffffffffffffffffffffffffffffff1690565b73ffffffffffffffffffffffffffffffffffffffff167fffffffffffffffffffffffff0000000000000000000000000000000000000000600b541617600b55565b6133186132d761014083015173ffffffffffffffffffffffffffffffffffffffff1690565b73ffffffffffffffffffffffffffffffffffffffff167fffffffffffffffffffffffff0000000000000000000000000000000000000000600c541617600c55565b61337e61333d61016083015173ffffffffffffffffffffffffffffffffffffffff1690565b73ffffffffffffffffffffffffffffffffffffffff167fffffffffffffffffffffffff0000000000000000000000000000000000000000600d541617600d55565b015173ffffffffffffffffffffffffffffffffffffffff1690565b73ffffffffffffffffffffffffffffffffffffffff167fffffffffffffffffffffffff0000000000000000000000000000000000000000600e541617600e55565b6133e383600255565b6135d5565b6020815191015ff580156101875773ffffffffffffffffffffffffffffffffffffffff1690565b1561018757565b600f0b68010000000000000000017fffffffffffffffffffffffffffffffff8000000000000000000000000000000081121580613459575b1561018757600f0b90565b506f7fffffffffffffffffffffffffffffff81131561344e565b677fffffffffffffff81116101875760401b600f0b90565b90600f0b90600f0b0260401d7fffffffffffffffffffffffffffffffff8000000000000000000000000000000081121580613459571561018757600f0b90565b600f0b68010000000000000000037fffffffffffffffffffffffffffffffff8000000000000000000000000000000081121580613459571561018757600f0b90565b600f0b801561018757700100000000000000000000000000000000057fffffffffffffffffffffffffffffffff8000000000000000000000000000000081121580613459571561018757600f0b90565b90600f0b9081156101875760401b60170b057fffffffffffffffffffffffffffffffff8000000000000000000000000000000081121580613459571561018757600f0b90565b7fffffffffffffffffffffffffffffffff8000000000000000000000000000000081600f0b14610187575f03600f0b90565b803b5f6135e1826102d9565b926135ef6040519485610286565b8284526135fb836102d9565b907fffffffffffffffffffffffffffffffffffffffffffffffffffffffffffffffe06020860192013683373c90565b600f0b5f811380156101875761363f9061340f565b5f908068010000000000000000821215613768575b80640100000000600292121561375c575b62010000811215613750575b610100811215613744575b6010811215613738575b600481121561372c575b1215613722575b7fffffffffffffffffffffffffffffffffffffffffffffffffffffffffffffffc0820160401b91607f031b90678000000000000000915b5f83136136f95750610d559150600f0b6fb17217f7d1cf79abc9e3b39803f2f6af0260801c600f0b90565b8061371b91029161370a8360ff1c90565b9283607f011c928402019260011d90565b91906136ce565b9060010190613697565b9281019260021d613690565b6004938401931d613686565b6008938401931d61367c565b6010938401931d613671565b6020938401931d613665565b5090506137758160401d90565b6040919061365456fea2646970667358221220f23b36053e2ecea19c9f606774f3d9859ff2be246f633441002d6f44c424dbad64736f6c63430008210033","linkReferences":{}},"methodIdentifiers":{"getAllPools(uint256,uint256)":"a7753f09","getAllTokens(uint256,uint256)":"9a043832","getPoolSupported(address)":"f3176725","getPoolsByToken(address,uint256,uint256)":"14c870c0","mintImpl()":"f0d1ae4f","newPool(string,string,address[],int128,int128,uint256,uint256,bool,address,address,uint256[],uint256,uint256)":"a4689b24","newPool(string,string,address[],int128,uint256,uint256,bool,address,address,uint256[],uint256,uint256)":"f63772fc","newPool(string,string,address[],int128,uint256[],uint256,bool,address,address,uint256[],uint256,uint256)":"60cf7d4a","owner()":"8da5cb5b","params()":"cff0ab96","poolCount()":"f525cb68","poolsByTokenCount(address)":"f70a3a17","protocolFeeAddress()":"cce516b7","protocolFeePpm()":"6b4082d1","renounceOwnership()":"715018a6","setProtocolFeeAddress(address)":"6b7b9112","setProtocolFeePpm(uint256)":"a3b6a006","swapImpl()":"c405e442","tokenCount()":"9f181b5e","transferOwnership(address)":"f2fde38b","wrapper()":"ac210cc7"},"id":48}