{"abi":[{"type":"constructor","inputs":[{"name":"owner_","type":"address","internalType":"address"},{"name":"wrapper_","type":"address","internalType":"contract NativeWrapper"},{"name":"poolInitCodeStorage_","type":"address","internalType":"contract PartyPoolInitCode"},{"name":"permit2_","type":"address","internalType":"contract IPermit2"}],"stateMutability":"nonpayable"},{"type":"function","name":"acceptOwnership","inputs":[],"outputs":[],"stateMutability":"nonpayable"},{"type":"function","name":"getAllPools","inputs":[{"name":"offset","type":"uint256","internalType":"uint256"},{"name":"limit","type":"uint256","internalType":"uint256"}],"outputs":[{"name":"pools","type":"address[]","internalType":"contract IPartyPool[]"}],"stateMutability":"view"},{"type":"function","name":"getAllTokens","inputs":[{"name":"offset","type":"uint256","internalType":"uint256"},{"name":"limit","type":"uint256","internalType":"uint256"}],"outputs":[{"name":"tokens","type":"address[]","internalType":"address[]"}],"stateMutability":"view"},{"type":"function","name":"getPoolSupported","inputs":[{"name":"pool","type":"address","internalType":"address"}],"outputs":[{"name":"","type":"bool","internalType":"bool"}],"stateMutability":"view"},{"type":"function","name":"getPoolsByToken","inputs":[{"name":"token","type":"address","internalType":"contract IERC20"},{"name":"offset","type":"uint256","internalType":"uint256"},{"name":"limit","type":"uint256","internalType":"uint256"}],"outputs":[{"name":"pools","type":"address[]","internalType":"contract IPartyPool[]"}],"stateMutability":"view"},{"type":"function","name":"newPool","inputs":[{"name":"name_","type":"string","internalType":"string"},{"name":"symbol_","type":"string","internalType":"string"},{"name":"tokens_","type":"address[]","internalType":"contract IERC20[]"},{"name":"kappa_","type":"int128","internalType":"int128"},{"name":"swapFeesPpm_","type":"uint256[]","internalType":"uint256[]"},{"name":"payer","type":"address","internalType":"address"},{"name":"receiver","type":"address","internalType":"address"},{"name":"initialDeposits","type":"uint256[]","internalType":"uint256[]"},{"name":"initialLpAmount","type":"uint256","internalType":"uint256"},{"name":"deadline","type":"uint256","internalType":"uint256"},{"name":"immutables_","type":"tuple","internalType":"struct IPartyPlanner.PoolImmutables","components":[{"name":"protocolFeePpm","type":"uint256","internalType":"uint256"},{"name":"mintDeviationPpm","type":"uint32","internalType":"uint32"},{"name":"emaShiftBlocks","type":"uint8","internalType":"uint8"},{"name":"maxGammaPerWindowPpm","type":"uint32","internalType":"uint32"},{"name":"mintLockBlocks","type":"uint32","internalType":"uint32"},{"name":"protocolFeeAddress","type":"address","internalType":"address"}]}],"outputs":[{"name":"pool","type":"address","internalType":"contract IPartyPool"},{"name":"lpAmount","type":"uint256","internalType":"uint256"}],"stateMutability":"nonpayable"},{"type":"function","name":"owner","inputs":[],"outputs":[{"name":"","type":"address","internalType":"address"}],"stateMutability":"view"},{"type":"function","name":"params","inputs":[],"outputs":[{"name":"","type":"tuple","internalType":"struct IPartyPoolDeployer.DeployParams","components":[{"name":"nonce","type":"bytes32","internalType":"bytes32"},{"name":"owner","type":"address","internalType":"address"},{"name":"name","type":"string","internalType":"string"},{"name":"symbol","type":"string","internalType":"string"},{"name":"tokens","type":"address[]","internalType":"contract IERC20[]"},{"name":"kappa","type":"int128","internalType":"int128"},{"name":"fees","type":"uint256[]","internalType":"uint256[]"},{"name":"bases","type":"uint256[]","internalType":"uint256[]"},{"name":"protocolFeePpm","type":"uint256","internalType":"uint256"},{"name":"mintDeviationPpm","type":"uint256","internalType":"uint256"},{"name":"emaShiftBlocks","type":"uint8","internalType":"uint8"},{"name":"maxGammaPerWindowPpm","type":"uint256","internalType":"uint256"},{"name":"mintLockBlocks","type":"uint256","internalType":"uint256"},{"name":"protocolFeeAddress","type":"address","internalType":"address"},{"name":"wrapper","type":"address","internalType":"contract NativeWrapper"},{"name":"permit2","type":"address","internalType":"contract IPermit2"}]}],"stateMutability":"view"},{"type":"function","name":"pendingOwner","inputs":[],"outputs":[{"name":"","type":"address","internalType":"address"}],"stateMutability":"view"},{"type":"function","name":"permit2","inputs":[],"outputs":[{"name":"","type":"address","internalType":"contract IPermit2"}],"stateMutability":"view"},{"type":"function","name":"poolCount","inputs":[],"outputs":[{"name":"","type":"uint256","internalType":"uint256"}],"stateMutability":"view"},{"type":"function","name":"poolsByTokenCount","inputs":[{"name":"token","type":"address","internalType":"contract IERC20"}],"outputs":[{"name":"","type":"uint256","internalType":"uint256"}],"stateMutability":"view"},{"type":"function","name":"tokenCount","inputs":[],"outputs":[{"name":"","type":"uint256","internalType":"uint256"}],"stateMutability":"view"},{"type":"function","name":"tokenIndex","inputs":[{"name":"pool","type":"address","internalType":"contract IPartyPool"},{"name":"token","type":"address","internalType":"contract IERC20"}],"outputs":[{"name":"","type":"uint256","internalType":"uint256"}],"stateMutability":"view"},{"type":"function","name":"transferOwnership","inputs":[{"name":"newOwner","type":"address","internalType":"address"}],"outputs":[],"stateMutability":"nonpayable"},{"type":"function","name":"wrapper","inputs":[],"outputs":[{"name":"","type":"address","internalType":"contract NativeWrapper"}],"stateMutability":"view"},{"type":"event","name":"OwnershipTransferStarted","inputs":[{"name":"previousOwner","type":"address","indexed":true,"internalType":"address"},{"name":"newOwner","type":"address","indexed":true,"internalType":"address"}],"anonymous":false},{"type":"event","name":"OwnershipTransferred","inputs":[{"name":"previousOwner","type":"address","indexed":true,"internalType":"address"},{"name":"newOwner","type":"address","indexed":true,"internalType":"address"}],"anonymous":false},{"type":"event","name":"PartyStarted","inputs":[{"name":"pool","type":"address","indexed":true,"internalType":"contract IPartyPool"},{"name":"name","type":"string","indexed":false,"internalType":"string"},{"name":"symbol","type":"string","indexed":false,"internalType":"string"},{"name":"tokens","type":"address[]","indexed":false,"internalType":"contract IERC20[]"}],"anonymous":false},{"type":"error","name":"OwnableInvalidOwner","inputs":[{"name":"owner","type":"address","internalType":"address"}]},{"type":"error","name":"OwnableUnauthorizedAccount","inputs":[{"name":"account","type":"address","internalType":"address"}]},{"type":"error","name":"SafeERC20FailedOperation","inputs":[{"name":"token","type":"address","internalType":"address"}]}],"bytecode":{"object":"0x60e03461019357601f6128bb38819003918201601f19168301916001600160401b03831184841017610197578084926080946040528339810103126101935780516001600160a01b03811691908290036101935760208101516001600160a01b03811681036101935760408201516001600160a01b03811692908390036101935760600151916001600160a01b038316830361019357801561014257608052821561012f57601280546001600160a01b0319908116909155601180549182168517905560405193906001600160a01b03167f8be0079c531659141344cd1fd0a4f28419497f9722a3daafe3b4186f6b6457e05f80a360a05260c05261270f90816101ac8239608051816121ac015260a0518181816103920152611302015260c05181818161013301526113320152f35b631e4fbdf760e01b5f525f60045260245ffd5b60405162461bcd60e51b815260206004820152602360248201527f4465706c6f7965723a207a65726f20706f6f6c2073746f72616765206164647260448201526265737360e81b6064820152608490fd5b5f80fd5b634e487b7160e01b5f52604160045260245ffdfe60806040526004361015610011575f80fd5b5f3560e01c806312261ee71461011457806314c870c01461010f57806379ba50971461010a5780638da5cb5b146101055780639a043832146101005780639f181b5e146100fb578063a7753f09146100f6578063ac210cc7146100f1578063bda87c19146100ec578063cff0ab96146100e7578063e30c3978146100e2578063ef198284146100dd578063f2fde38b146100d8578063f3176725146100d3578063f525cb68146100ce5763f70a3a17146100c9575f80fd5b610b09565b610aec565b610aab565b610a21565b610917565b6106f2565b61065b565b6103b6565b610373565b610351565b610334565b6102c8565b6102a2565b6101ed565b6101ae565b34610157575f6003193601126101575760206040516001600160a01b037f0000000000000000000000000000000000000000000000000000000000000000168152f35b5f80fd5b6001600160a01b0381160361015757565b60206040818301928281528451809452019201905f5b81811061018f5750505090565b82516001600160a01b0316845260209384019390920191600101610182565b34610157576060600319360112610157576101e96101dd6004356101d18161015b565b60243560443591610c71565b6040519182918261016c565b0390f35b34610157575f60031936011261015757336001600160a01b03601254160361027657601280547fffffffffffffffffffffffff0000000000000000000000000000000000000000908116909155601180543392811683179091556001600160a01b03167f8be0079c531659141344cd1fd0a4f28419497f9722a3daafe3b4186f6b6457e05f80a3005b7f118cdaa7000000000000000000000000000000000000000000000000000000005f523360045260245ffd5b34610157575f6003193601126101575760206001600160a01b0360115416604051908152f35b34610157576040600319360112610157576102e7602435600435610d30565b6040518091602082016020835281518091526020604084019201905f5b818110610312575050500390f35b82516001600160a01b0316845285945060209384019390920191600101610304565b34610157575f600319360112610157576020601454604051908152f35b34610157576040600319360112610157576101e96101dd602435600435610dbf565b34610157575f6003193601126101575760206040516001600160a01b037f0000000000000000000000000000000000000000000000000000000000000000168152f35b346101575760406003193601126101575761040d6004356103d68161015b565b6001600160a01b03602435916103eb8361015b565b165f52601860205260405f20906001600160a01b03165f5260205260405f2090565b54801561042f575f19810190811161042a57604051908152602090f35b610b91565b60646040517f08c379a000000000000000000000000000000000000000000000000000000000815260206004820152601160248201527f746f6b656e206e6f7420696e20706f6f6c0000000000000000000000000000006044820152fd5b90601f19601f602080948051918291828752018686015e5f8582860101520116010190565b90602080835192838152019201905f5b8181106104cf5750505090565b82516001600160a01b03168452602093840193909201916001016104c2565b90602080835192838152019201905f5b81811061050b5750505090565b82518452602093840193909201916001016104fe565b60208082528251818301528201516001600160a01b03166040820152610658906102006101e06105d26105bb61059861058261056c60408a01518760608a015261022089019061048d565b60608a0151601f198983030160808a015261048d565b6080890151601f198883030160a08901526104b2565b60a0880151600f0b60c087015260c0880151601f198783030160e08801526104ee565b60e0870151601f19868303016101008701526104ee565b9461010081015161012085015261012081015161014085015261060161014082015161016086019060ff169052565b6101608101516101808501526101808101516101a08501526106356101a08201516101c08601906001600160a01b03169052565b6101c08101516001600160a01b03168483015201516001600160a01b0316910152565b90565b34610157575f600319360112610157575f6101e061067761076d565b82815282602082015260606040820152606080820152606060808201528260a0820152606060c0820152606060e08201528261010082015282610120820152826101408201528261016082015282610180820152826101a0820152826101c082015201526101e96106e6610fd1565b60405191829182610521565b34610157575f6003193601126101575760206001600160a01b0360125416604051908152f35b7f4e487b71000000000000000000000000000000000000000000000000000000005f52604160045260245ffd5b90601f601f19910116810190811067ffffffffffffffff82111761076857604052565b610718565b6040519061077d61020083610745565b565b67ffffffffffffffff811161076857601f01601f191660200190565b81601f82011215610157578035906107b28261077f565b926107c06040519485610745565b8284526020838301011161015757815f926020809301838601378301015290565b67ffffffffffffffff81116107685760051b60200190565b9080601f83011215610157578135610810816107e1565b9261081e6040519485610745565b81845260208085019260051b82010192831161015757602001905b8282106108465750505090565b6020809183356108558161015b565b815201910190610839565b6064359081600f0b820361015757565b9080601f83011215610157578135610887816107e1565b926108956040519485610745565b81845260208085019260051b82010192831161015757602001905b8282106108bd5750505090565b81358152602091820191016108b0565b60a4359061077d8261015b565b60c4359061077d8261015b565b7ffffffffffffffffffffffffffffffffffffffffffffffffffffffffffffffebc60c09101126101575761014490565b34610157576102006003193601126101575760043567ffffffffffffffff81116101575761094990369060040161079b565b60243567ffffffffffffffff81116101575761096990369060040161079b565b9060443567ffffffffffffffff81116101575761098a9036906004016107f9565b91610993610860565b9260843567ffffffffffffffff8111610157576109b4903690600401610870565b936109bd6108cd565b6109c56108da565b9060e4359667ffffffffffffffff8811610157576109ea610a04983690600401610870565b93610104359561012435976109fe366108e7565b99611118565b604080516001600160a01b03939093168352602083019190915290f35b34610157576020600319360112610157576001600160a01b03600435610a468161015b565b610a4e611f08565b16807fffffffffffffffffffffffff000000000000000000000000000000000000000060125416176012556001600160a01b03601154167f38d16b8cac22d99fc7c124b9cd0de2d3fa1faef420bfe791d8c362d765e227005f80a3005b34610157576020600319360112610157576001600160a01b03600435610ad08161015b565b165f526015602052602060ff60405f2054166040519015158152f35b34610157575f600319360112610157576020601354604051908152f35b34610157576020600319360112610157576001600160a01b03600435610b2e8161015b565b165f526017602052602060405f2054604051908152f35b60405190610b54602083610745565b5f808352366020840137565b90610b6a826107e1565b610b776040519182610745565b828152601f19610b8782946107e1565b0190602036910137565b7f4e487b71000000000000000000000000000000000000000000000000000000005f52601160045260245ffd5b906001820180921161042a57565b9190820180921161042a57565b9190820391821161042a57565b7f4e487b71000000000000000000000000000000000000000000000000000000005f52603260045260245ffd5b601454811015610c2b5760145f5260205f2001905f90565b610be6565b601354811015610c2b5760135f5260205f2001905f90565b8054821015610c2b575f5260205f2001905f90565b8051821015610c2b5760209160051b010190565b6001600160a01b0390929192165f52601760205260405f2090815480841015610d24578184019081851161042a57808592115f14610d1c57610cb39250610bd9565b905b610cbe82610b60565b925f5b838110610ccf575050505090565b80610d16610cfe610ceb610ce560019587610bcc565b87610c48565b90546001600160a01b039160031b1c1690565b610d088389610c5d565b906001600160a01b03169052565b01610cc1565b505090610cb5565b50505050610658610b45565b906014549081831015610db45780830180841161042a57821015610dad575081810390811161042a575b610d6381610b60565b915f5b828110610d735750505090565b80610da7610d9d610d91610ceb610d8c60019688610bcc565b610c13565b6001600160a01b031690565b610d088388610c5d565b01610d66565b9050610d5a565b505050610658610b45565b906013549081831015610db45780830180841161042a57821015610e24575081810390811161042a575b610df281610b60565b915f5b828110610e025750505090565b8082019081831161042a57610e1e610d9d610ceb600194610c30565b01610df5565b9050610de9565b90600182811c92168015610e72575b6020831014610e4557565b7f4e487b71000000000000000000000000000000000000000000000000000000005f52602260045260245ffd5b91607f1691610e3a565b9060405191825f825492610e8f84610e2b565b8084529360018116908115610ef85750600114610eb4575b5061077d92500383610745565b90505f9291925260205f20905f915b818310610edc57505090602061077d928201015f610ea7565b6020919350806001915483858901015201910190918492610ec3565b6020935061077d9592507fffffffffffffffffffffffffffffffffffffffffffffffffffffffffffffff0091501682840152151560051b8201015f610ea7565b90604051918281549182825260208201905f5260205f20925f5b818110610f6757505061077d92500383610745565b84546001600160a01b0316835260019485019487945060209093019201610f52565b90604051918281549182825260208201905f5260205f20925f5b818110610fb857505061077d92500383610745565b8454835260019485019487945060209093019201610fa3565b610fd961076d565b906001548252611004610ff46002546001600160a01b031690565b6001600160a01b03166020840152565b61100e6003610e7c565b604083015261101d6004610e7c565b606083015261102c6005610f38565b608083015261104a611040600654600f0b90565b600f0b60a0840152565b6110546007610f89565b60c08301526110636008610f89565b60e0830152600954610100830152600a54610120830152611094611089600b5460ff1690565b60ff16610140840152565b600c54610160830152600d546101808301526110cc6110bb600e546001600160a01b031690565b6001600160a01b03166101a0840152565b6110f26110e1600f546001600160a01b031690565b6001600160a01b03166101c0840152565b61077d6111076010546001600160a01b031690565b6001600160a01b03166101e0840152565b999094979891809b94936111428c94999899611132611f08565b801590811561174a575b50611755565b61114f82518951146117ba565b6111636001600160a01b038b161515611845565b6111776001600160a01b038a1615156118d0565b6111855f82600f0b1361195b565b61119285518351146119c0565b8235946111a3620493e08710611a4b565b60208401956111c4620f424063ffffffff6111bd8a611ab0565b1610611ac1565b604085019160ff6111d484611b26565b16151580611730575b6111e690611b34565b606086019361120463ffffffff6111fc87611ab0565b161515611b99565b608087019561122561c4e063ffffffff61121d8a611ab0565b161115611bfe565b83158015611714575b61123790611c6d565b6011546001600160a01b03169961124d90611ab0565b9461125790611b26565b9561126190611ab0565b9661126b90611ab0565b9760a00161127890611c63565b9861128161076d565b5f81526001600160a01b03909b1660208c015260408b015260608a018c905260808a0152600f0b60a089015260c088015260e087018a905261010087015263ffffffff1661012086015260ff1661014085015263ffffffff908116610160850152166101808301526001600160a01b03166101a08201526001600160a01b037f0000000000000000000000000000000000000000000000000000000000000000166101c08201526001600160a01b037f0000000000000000000000000000000000000000000000000000000000000000166101e082015261136190611f1c565b9561136b87611cd2565b611386876001600160a01b03165f52601560205260405f2090565b80547fffffffffffffffffffffffffffffffffffffffffffffffffffffffffffffff001660011790555f5b89518110156114c857806113d76113ca6001938d610c5d565b516001600160a01b031690565b6114036113ff6113f8836001600160a01b03165f52601660205260405f2090565b5460ff1690565b1590565b611471575b61142c8a611427836001600160a01b03165f52601760205260405f2090565b611d5a565b61146a61143883610bbe565b916114548c6001600160a01b03165f52601860205260405f2090565b906001600160a01b03165f5260205260405f2090565b55016113b1565b61147a81611da9565b6114c3611498826001600160a01b03165f52601660205260405f2090565b60017fffffffffffffffffffffffffffffffffffffffffffffffffffffffffffffff00825416179055565b611408565b5090929591949793967ff45e30d37dc5ef98e17708308b886213b8f485ea52d495067eed8d4977423f226001600160a01b03841696879261150f8860405193849384611e2d565b0390a25f5b8451811015611696576115278188610c5d565b51611535575b600101611514565b611545610d916113ca8388610c5d565b6040517f70a082310000000000000000000000000000000000000000000000000000000081526001600160a01b03881660048201529190602090839060249082905afa918215611671575f92611676575b506115ba6115a76113ca8389610c5d565b888c6115b3858d610c5d565b5192612219565b6115ca610d916113ca8389610c5d565b6040517f70a082310000000000000000000000000000000000000000000000000000000081526001600160a01b038916600482015290602090829060249082905afa9081156116715760019361163c9261162b925f91611643575b50610bd9565b611635838b610c5d565b5114611e7e565b905061152d565b611664915060203d811161166a575b61165c8183610745565b810190611e64565b5f611625565b503d611652565b611e73565b61168f91925060203d811161166a5761165c8183610745565b905f611596565b506040517f6d8d0ff30000000000000000000000000000000000000000000000000000000081526001600160a01b03979097166004880152602487015294955093925060209185915060449082905f905af1928315611671575f936116fa57509190565b61065891935060203d60201161166a5761165c8183610745565b50611237611727610d9160a08b01611c63565b1515905061122e565b506111e6604060ff61174186611b26565b161090506111dd565b90504211155f61113c565b1561175c57565b60646040517f08c379a000000000000000000000000000000000000000000000000000000000815260206004820152600860248201527f646561646c696e650000000000000000000000000000000000000000000000006044820152fd5b156117c157565b60846040517f08c379a000000000000000000000000000000000000000000000000000000000815260206004820152602c60248201527f506c616e6e65723a20746f6b656e7320616e64206465706f73697473206c656e60448201527f677468206d69736d6174636800000000000000000000000000000000000000006064820152fd5b1561184c57565b60846040517f08c379a000000000000000000000000000000000000000000000000000000000815260206004820152602560248201527f506c616e6e65723a2070617965722063616e6e6f74206265207a65726f20616460448201527f64726573730000000000000000000000000000000000000000000000000000006064820152fd5b156118d757565b60846040517f08c379a000000000000000000000000000000000000000000000000000000000815260206004820152602860248201527f506c616e6e65723a2072656365697665722063616e6e6f74206265207a65726f60448201527f20616464726573730000000000000000000000000000000000000000000000006064820152fd5b1561196257565b60646040517f08c379a000000000000000000000000000000000000000000000000000000000815260206004820152601a60248201527f506c616e6e65723a206b61707061206d757374206265203e20300000000000006044820152fd5b156119c757565b60846040517f08c379a000000000000000000000000000000000000000000000000000000000815260206004820152602860248201527f506c616e6e65723a206665657320616e6420746f6b656e73206c656e6774682060448201527f6d69736d617463680000000000000000000000000000000000000000000000006064820152fd5b15611a5257565b60646040517f08c379a000000000000000000000000000000000000000000000000000000000815260206004820152601c60248201527f506c616e6e65723a2070726f746f636f6c20666565203e3d20333025000000006044820152fd5b3563ffffffff811681036101575790565b15611ac857565b60646040517f08c379a000000000000000000000000000000000000000000000000000000000815260206004820152601a60248201527f506c616e6e65723a20646576696174696f6e203e3d20313030250000000000006044820152fd5b3560ff811681036101575790565b15611b3b57565b60646040517f08c379a000000000000000000000000000000000000000000000000000000000815260206004820152601260248201527f506c616e6e65723a20656d6120736869667400000000000000000000000000006044820152fd5b15611ba057565b60646040517f08c379a000000000000000000000000000000000000000000000000000000000815260206004820152601260248201527f506c616e6e65723a2067616d6d612063617000000000000000000000000000006044820152fd5b15611c0557565b60646040517f08c379a000000000000000000000000000000000000000000000000000000000815260206004820152601b60248201527f506c616e6e65723a206d696e74206c6f636b20746f6f206c6f6e6700000000006044820152fd5b356106588161015b565b15611c7457565b60646040517f08c379a000000000000000000000000000000000000000000000000000000000815260206004820152601060248201527f7a65726f206665652061646472657373000000000000000000000000000000006044820152fd5b601354680100000000000000008110156107685760018101601355601354811015610c2b5760135f527f66de8ffda797e3de9c05e8fc57b3bf0ec28a930d40b0d285d93c06501cf6a09001805490917fffffffffffffffffffffffff00000000000000000000000000000000000000009091166001600160a01b0391909116179055565b9055565b80546801000000000000000081101561076857611d8881611d569360016001600160a01b0394018155610c48565b91909316908354906001600160a01b03809160031b9316831b921b19161790565b601454680100000000000000008110156107685760018101601455601454811015610c2b5760145f527fce6d7b5282bd9a3661ae061feed1dbda4e52ab073b1f9285be6e155d9c38d4ec01805490917fffffffffffffffffffffffff00000000000000000000000000000000000000009091166001600160a01b0391909116179055565b91611e5690611e48610658959360608652606086019061048d565b90848203602086015261048d565b9160408184039101526104b2565b90816020910312610157575190565b6040513d5f823e3d90fd5b15611e8557565b60846040517f08c379a0000000000000000000000000000000000000000000000000000000008152602060048201526024808201527f6665652d6f6e2d7472616e7366657220746f6b656e73206e6f7420737570706f60448201527f72746564000000000000000000000000000000000000000000000000000000006064820152fd5b6001600160a01b0360115416330361027657565b5f54905f19821461042a5761213a6101e061216e92600185015f55611f418151600155565b611f8c611f5860208301516001600160a01b031690565b6001600160a01b03167fffffffffffffffffffffffff00000000000000000000000000000000000000006002541617600255565b611f99604082015161233c565b611fa6606082015161241f565b611fb360808201516124f6565b612002611fc460a0830151600f0b90565b7fffffffffffffffffffffffffffffffff0000000000000000000000000000000060065416906fffffffffffffffffffffffffffffffff1617600655565b61200f60c082015161257c565b61201c60e08201516125f9565b61202a610100820151600955565b612038610120820151600a55565b61207861204a61014083015160ff1690565b60ff167fffffffffffffffffffffffffffffffffffffffffffffffffffffffffffffff00600b541617600b55565b612086610160820151600c55565b612094610180820151600d55565b6120e06120ac6101a08301516001600160a01b031690565b6001600160a01b03167fffffffffffffffffffffffff0000000000000000000000000000000000000000600e541617600e55565b61212c6120f86101c08301516001600160a01b031690565b6001600160a01b03167fffffffffffffffffffffffff0000000000000000000000000000000000000000600f541617600f55565b01516001600160a01b031690565b6001600160a01b03167fffffffffffffffffffffffff00000000000000000000000000000000000000006010541617601055565b61217781600155565b6040517f7213edad0000000000000000000000000000000000000000000000000000000081525f816004816001600160a01b037f0000000000000000000000000000000000000000000000000000000000000000165afa908115611671575f916121f7575b506020815191015ff58015611e73576001600160a01b031690565b61221391503d805f833e61220b8183610745565b810190612676565b5f6121dc565b9290916001600160a01b039081604051947f23b872dd000000000000000000000000000000000000000000000000000000005f52166004521660245260445260205f60648180865af160015f51148116156122b5575b6040919091525f606052156122815750565b7f5274afe7000000000000000000000000000000000000000000000000000000005f526001600160a01b031660045260245ffd5b60018115166122cb573d15833b1515161661226f565b503d5f823e3d90fd5b5f5b8281106122e257505050565b5f828201556001016122d6565b91601f82116122fd57505050565b80821161230957505050565b61077d925f5260205f20916020601f830160051c9210612334575b601f82910160051c0391016122d4565b5f9150612324565b90815167ffffffffffffffff8111610768576123648161235d600354610e2b565b60036122ef565b602092601f82116001146123a357612393929382915f92612398575b50505f198260011b9260031b1c19161790565b600355565b015190505f80612380565b60035f52601f198216937fc2575a0e9e593c00f959f8c92f12db2869c3395a3b0502d05e2516446f71f85b915f5b86811061240757508360019596106123ef575b505050811b01600355565b01515f1960f88460031b161c191690555f80806123e4565b919260206001819286850151815501940192016123d1565b90815167ffffffffffffffff81116107685761244781612440600454610e2b565b60046122ef565b602092601f821160011461247a57612475929382915f926123985750505f198260011b9260031b1c19161790565b600455565b60045f52601f198216937f8a35acfbc15ff81a39ae7d344fd709f28e8600b4aa8c65c6b64bfe7fe36bd19b915f5b8681106124de57508360019596106124c6575b505050811b01600455565b01515f1960f88460031b161c191690555f80806124bb565b919260206001819286850151815501940192016124a8565b80519067ffffffffffffffff8211610768576801000000000000000082116107685760209060055483600555808410612560575b500160055f5260205f205f5b8381106125435750505050565b60019060206001600160a01b038551169401938184015501612536565b6125769060055f528480855f20019103906122d4565b5f61252a565b80519067ffffffffffffffff82116107685768010000000000000000821161076857602090600754836007558084106125dd575b500160075f5260205f205f5b8381106125c95750505050565b6001906020845194019381840155016125bc565b6125f39060075f528480855f20019103906122d4565b5f6125b0565b80519067ffffffffffffffff821161076857680100000000000000008211610768576020906008548360085580841061265a575b500160085f5260205f205f5b8381106126465750505050565b600190602084519401938184015501612639565b6126709060085f528480855f20019103906122d4565b5f61262d565b6020818303126101575780519067ffffffffffffffff8211610157570181601f82011215610157578051906126aa8261077f565b926126b86040519485610745565b8284526020838301011161015757815f9260208093018386015e830101529056fea2646970667358221220338d9da300a1a4a27a9ca102685585b4bd9e5f34b5ff08a023b8daa87544e93164736f6c63430008230033","linkReferences":{}},"methodIdentifiers":{"acceptOwnership()":"79ba5097","getAllPools(uint256,uint256)":"a7753f09","getAllTokens(uint256,uint256)":"9a043832","getPoolSupported(address)":"f3176725","getPoolsByToken(address,uint256,uint256)":"14c870c0","newPool(string,string,address[],int128,uint256[],address,address,uint256[],uint256,uint256,(uint256,uint32,uint8,uint32,uint32,address))":"ef198284","owner()":"8da5cb5b","params()":"cff0ab96","pendingOwner()":"e30c3978","permit2()":"12261ee7","poolCount()":"f525cb68","poolsByTokenCount(address)":"f70a3a17","tokenCount()":"9f181b5e","tokenIndex(address,address)":"bda87c19","transferOwnership(address)":"f2fde38b","wrapper()":"ac210cc7"},"id":51}