{"abi":[{"type":"constructor","inputs":[{"name":"owner_","type":"address","internalType":"address"},{"name":"wrapper_","type":"address","internalType":"contract NativeWrapper"},{"name":"poolInitCodeStorage_","type":"address","internalType":"contract PartyPoolInitCode"},{"name":"protocolFeePpm_","type":"uint256","internalType":"uint256"},{"name":"protocolFeeAddress_","type":"address","internalType":"address"},{"name":"permit2_","type":"address","internalType":"contract IPermit2"}],"stateMutability":"nonpayable"},{"type":"function","name":"acceptOwnership","inputs":[],"outputs":[],"stateMutability":"nonpayable"},{"type":"function","name":"getAllPools","inputs":[{"name":"offset","type":"uint256","internalType":"uint256"},{"name":"limit","type":"uint256","internalType":"uint256"}],"outputs":[{"name":"pools","type":"address[]","internalType":"contract IPartyPool[]"}],"stateMutability":"view"},{"type":"function","name":"getAllTokens","inputs":[{"name":"offset","type":"uint256","internalType":"uint256"},{"name":"limit","type":"uint256","internalType":"uint256"}],"outputs":[{"name":"tokens","type":"address[]","internalType":"address[]"}],"stateMutability":"view"},{"type":"function","name":"getPoolSupported","inputs":[{"name":"pool","type":"address","internalType":"address"}],"outputs":[{"name":"","type":"bool","internalType":"bool"}],"stateMutability":"view"},{"type":"function","name":"getPoolsByToken","inputs":[{"name":"token","type":"address","internalType":"contract IERC20"},{"name":"offset","type":"uint256","internalType":"uint256"},{"name":"limit","type":"uint256","internalType":"uint256"}],"outputs":[{"name":"pools","type":"address[]","internalType":"contract IPartyPool[]"}],"stateMutability":"view"},{"type":"function","name":"newPool","inputs":[{"name":"name_","type":"string","internalType":"string"},{"name":"symbol_","type":"string","internalType":"string"},{"name":"tokens_","type":"address[]","internalType":"contract IERC20[]"},{"name":"kappa_","type":"int128","internalType":"int128"},{"name":"swapFeesPpm_","type":"uint256[]","internalType":"uint256[]"},{"name":"flashFeePpm_","type":"uint256","internalType":"uint256"},{"name":"stable_","type":"bool","internalType":"bool"},{"name":"payer","type":"address","internalType":"address"},{"name":"receiver","type":"address","internalType":"address"},{"name":"initialDeposits","type":"uint256[]","internalType":"uint256[]"},{"name":"initialLpAmount","type":"uint256","internalType":"uint256"},{"name":"deadline","type":"uint256","internalType":"uint256"}],"outputs":[{"name":"pool","type":"address","internalType":"contract IPartyPool"},{"name":"lpAmount","type":"uint256","internalType":"uint256"}],"stateMutability":"nonpayable"},{"type":"function","name":"newPool","inputs":[{"name":"name_","type":"string","internalType":"string"},{"name":"symbol_","type":"string","internalType":"string"},{"name":"tokens_","type":"address[]","internalType":"contract IERC20[]"},{"name":"tradeFrac_","type":"int128","internalType":"int128"},{"name":"targetSlippage_","type":"int128","internalType":"int128"},{"name":"swapFeePpm_","type":"uint256","internalType":"uint256"},{"name":"flashFeePpm_","type":"uint256","internalType":"uint256"},{"name":"stable_","type":"bool","internalType":"bool"},{"name":"payer","type":"address","internalType":"address"},{"name":"receiver","type":"address","internalType":"address"},{"name":"initialDeposits","type":"uint256[]","internalType":"uint256[]"},{"name":"initialLpAmount","type":"uint256","internalType":"uint256"},{"name":"deadline","type":"uint256","internalType":"uint256"}],"outputs":[{"name":"pool","type":"address","internalType":"contract IPartyPool"},{"name":"lpAmount","type":"uint256","internalType":"uint256"}],"stateMutability":"nonpayable"},{"type":"function","name":"newPool","inputs":[{"name":"name_","type":"string","internalType":"string"},{"name":"symbol_","type":"string","internalType":"string"},{"name":"tokens_","type":"address[]","internalType":"contract IERC20[]"},{"name":"kappa_","type":"int128","internalType":"int128"},{"name":"swapFeePpm_","type":"uint256","internalType":"uint256"},{"name":"flashFeePpm_","type":"uint256","internalType":"uint256"},{"name":"stable_","type":"bool","internalType":"bool"},{"name":"payer","type":"address","internalType":"address"},{"name":"receiver","type":"address","internalType":"address"},{"name":"initialDeposits","type":"uint256[]","internalType":"uint256[]"},{"name":"initialLpAmount","type":"uint256","internalType":"uint256"},{"name":"deadline","type":"uint256","internalType":"uint256"}],"outputs":[{"name":"pool","type":"address","internalType":"contract IPartyPool"},{"name":"lpAmount","type":"uint256","internalType":"uint256"}],"stateMutability":"nonpayable"},{"type":"function","name":"owner","inputs":[],"outputs":[{"name":"","type":"address","internalType":"address"}],"stateMutability":"view"},{"type":"function","name":"params","inputs":[],"outputs":[{"name":"","type":"tuple","internalType":"struct IPartyPoolDeployer.DeployParams","components":[{"name":"nonce","type":"bytes32","internalType":"bytes32"},{"name":"owner","type":"address","internalType":"address"},{"name":"name","type":"string","internalType":"string"},{"name":"symbol","type":"string","internalType":"string"},{"name":"tokens","type":"address[]","internalType":"contract IERC20[]"},{"name":"kappa","type":"int128","internalType":"int128"},{"name":"fees","type":"uint256[]","internalType":"uint256[]"},{"name":"flashFeePpm","type":"uint256","internalType":"uint256"},{"name":"protocolFeePpm","type":"uint256","internalType":"uint256"},{"name":"protocolFeeAddress","type":"address","internalType":"address"},{"name":"wrapper","type":"address","internalType":"contract NativeWrapper"},{"name":"permit2","type":"address","internalType":"contract IPermit2"}]}],"stateMutability":"view"},{"type":"function","name":"pendingOwner","inputs":[],"outputs":[{"name":"","type":"address","internalType":"address"}],"stateMutability":"view"},{"type":"function","name":"permit2","inputs":[],"outputs":[{"name":"","type":"address","internalType":"contract IPermit2"}],"stateMutability":"view"},{"type":"function","name":"poolCount","inputs":[],"outputs":[{"name":"","type":"uint256","internalType":"uint256"}],"stateMutability":"view"},{"type":"function","name":"poolsByTokenCount","inputs":[{"name":"token","type":"address","internalType":"contract IERC20"}],"outputs":[{"name":"","type":"uint256","internalType":"uint256"}],"stateMutability":"view"},{"type":"function","name":"protocolFeeAddress","inputs":[],"outputs":[{"name":"","type":"address","internalType":"address"}],"stateMutability":"view"},{"type":"function","name":"protocolFeePpm","inputs":[],"outputs":[{"name":"","type":"uint256","internalType":"uint256"}],"stateMutability":"view"},{"type":"function","name":"setProtocolFeeAddress","inputs":[{"name":"feeAddress","type":"address","internalType":"address"}],"outputs":[],"stateMutability":"nonpayable"},{"type":"function","name":"setProtocolFeePpm","inputs":[{"name":"feePpm","type":"uint256","internalType":"uint256"}],"outputs":[],"stateMutability":"nonpayable"},{"type":"function","name":"tokenCount","inputs":[],"outputs":[{"name":"","type":"uint256","internalType":"uint256"}],"stateMutability":"view"},{"type":"function","name":"tokenIndex","inputs":[{"name":"pool","type":"address","internalType":"contract IPartyPool"},{"name":"token","type":"address","internalType":"contract IERC20"}],"outputs":[{"name":"","type":"uint256","internalType":"uint256"}],"stateMutability":"view"},{"type":"function","name":"transferOwnership","inputs":[{"name":"newOwner","type":"address","internalType":"address"}],"outputs":[],"stateMutability":"nonpayable"},{"type":"function","name":"wrapper","inputs":[],"outputs":[{"name":"","type":"address","internalType":"contract NativeWrapper"}],"stateMutability":"view"},{"type":"event","name":"OwnershipTransferStarted","inputs":[{"name":"previousOwner","type":"address","indexed":true,"internalType":"address"},{"name":"newOwner","type":"address","indexed":true,"internalType":"address"}],"anonymous":false},{"type":"event","name":"OwnershipTransferred","inputs":[{"name":"previousOwner","type":"address","indexed":true,"internalType":"address"},{"name":"newOwner","type":"address","indexed":true,"internalType":"address"}],"anonymous":false},{"type":"event","name":"PartyStarted","inputs":[{"name":"pool","type":"address","indexed":true,"internalType":"contract IPartyPool"},{"name":"name","type":"string","indexed":false,"internalType":"string"},{"name":"symbol","type":"string","indexed":false,"internalType":"string"},{"name":"tokens","type":"address[]","indexed":false,"internalType":"contract IERC20[]"}],"anonymous":false},{"type":"error","name":"OwnableInvalidOwner","inputs":[{"name":"owner","type":"address","internalType":"address"}]},{"type":"error","name":"OwnableUnauthorizedAccount","inputs":[{"name":"account","type":"address","internalType":"address"}]},{"type":"error","name":"SafeERC20FailedOperation","inputs":[{"name":"token","type":"address","internalType":"address"}]}],"bytecode":{"object":"0x60e03461027f57601f613cab38819003918201601f19168301916001600160401b038311848410176102835780849260c09460405283398101031261027f5761004781610297565b602082015191906001600160a01b038316830361027f5760408201516001600160a01b038116939084900361027f5760608301519160a061008a60808601610297565b940151946001600160a01b038616860361027f57801561022e576080526001600160a01b031690811561021b57600e80546001600160a01b0319908116909155600d80549182168417905560405192906001600160a01b03167f8be0079c531659141344cd1fd0a4f28419497f9722a3daafe3b4186f6b6457e05f80a360a052620f42408210156101d95750801580156101c7575b1561018257600f55601080546001600160a01b0319166001600160a01b039290921691909117905560c0526040516139ff90816102ac823960805181612d60015260a051818181610b9a0152611854015260c0518181816101be01526118910152f35b60405162461bcd60e51b815260206004820152601960248201527f506c616e6e65723a207a65726f206665652061646472657373000000000000006044820152606490fd5b506001600160a01b038216151561011f565b62461bcd60e51b815260206004820152601c60248201527f506c616e6e65723a2070726f746f636f6c20666565203e3d2070706d000000006044820152606490fd5b631e4fbdf760e01b5f525f60045260245ffd5b60405162461bcd60e51b815260206004820152602360248201527f4465706c6f7965723a207a65726f20706f6f6c2073746f72616765206164647260448201526265737360e81b6064820152608490fd5b5f80fd5b634e487b7160e01b5f52604160045260245ffd5b51906001600160a01b038216820361027f5756fe60806040526004361015610011575f80fd5b5f3560e01c806312261ee71461017457806314c870c01461016f57806360cf7d4a1461016a5780636b4082d1146101655780636b7b91121461016057806379ba50971461015b5780638da5cb5b146101565780639a043832146101515780639f181b5e1461014c578063a3b6a00614610147578063a4689b2414610142578063a7753f091461013d578063ac210cc714610138578063bda87c1914610133578063cce516b71461012e578063cff0ab9614610129578063e30c397814610124578063f2fde38b1461011f578063f31767251461011a578063f525cb6814610115578063f63772fc146101105763f70a3a171461010b575f80fd5b611423565b611333565b6112f8565b61128c565b6111ca565b611179565b610f7b565b610cec565b610bbe565b610b50565b610b10565b610a17565b61093c565b610901565b61086a565b610819565b61072c565b610687565b61064c565b610515565b610253565b346101e2575f7ffffffffffffffffffffffffffffffffffffffffffffffffffffffffffffffffc3601126101e257602060405173ffffffffffffffffffffffffffffffffffffffff7f0000000000000000000000000000000000000000000000000000000000000000168152f35b5f80fd5b73ffffffffffffffffffffffffffffffffffffffff8116036101e257565b60206040818301928281528451809452019201905f5b8181106102275750505090565b825173ffffffffffffffffffffffffffffffffffffffff1684526020938401939092019160010161021a565b346101e25760607ffffffffffffffffffffffffffffffffffffffffffffffffffffffffffffffffc3601126101e2576102ac6102a0600435610294816101e6565b60243560443591611601565b60405191829182610204565b0390f35b7f4e487b71000000000000000000000000000000000000000000000000000000005f52604160045260245ffd5b610180810190811067ffffffffffffffff8211176102fa57604052565b6102b0565b90601f7fffffffffffffffffffffffffffffffffffffffffffffffffffffffffffffffe0910116810190811067ffffffffffffffff8211176102fa57604052565b60405190610350610180836102ff565b565b67ffffffffffffffff81116102fa57601f017fffffffffffffffffffffffffffffffffffffffffffffffffffffffffffffffe01660200190565b81601f820112156101e2578035906103a382610352565b926103b160405194856102ff565b828452602083830101116101e257815f926020809301838601378301015290565b67ffffffffffffffff81116102fa5760051b60200190565b9080601f830112156101e2578135610401816103d2565b9261040f60405194856102ff565b81845260208085019260051b8201019283116101e257602001905b8282106104375750505090565b602080918335610446816101e6565b81520191019061042a565b6064359081600f0b82036101e257565b6084359081600f0b82036101e257565b9080601f830112156101e2578135610488816103d2565b9261049660405194856102ff565b81845260208085019260051b8201019283116101e257602001905b8282106104be5750505090565b81358152602091820191016104b1565b60c4359081151582036101e257565b60e4359081151582036101e257565b60e43590610350826101e6565b6101043590610350826101e6565b6101243590610350826101e6565b346101e2576101807ffffffffffffffffffffffffffffffffffffffffffffffffffffffffffffffffc3601126101e25760043567ffffffffffffffff81116101e25761056590369060040161038c565b60243567ffffffffffffffff81116101e25761058590369060040161038c565b9060443567ffffffffffffffff81116101e2576105a69036906004016103ea565b916105af610451565b9260843567ffffffffffffffff81116101e2576105d0903690600401610471565b60a4356105db6104ce565b6105e36104ec565b916105ec6104f9565b93610124359867ffffffffffffffff8a116101e2576106126106229a3690600401610471565b966101443598610164359a6116e7565b6040805173ffffffffffffffffffffffffffffffffffffffff939093168352602083019190915290f35b346101e2575f7ffffffffffffffffffffffffffffffffffffffffffffffffffffffffffffffffc3601126101e2576020600f54604051908152f35b346101e25760207ffffffffffffffffffffffffffffffffffffffffffffffffffffffffffffffffc3601126101e25773ffffffffffffffffffffffffffffffffffffffff6004356106d7816101e6565b6106df612a85565b600f54158015610721575b6106f39061225c565b167fffffffffffffffffffffffff000000000000000000000000000000000000000060105416176010555f80f35b5080821615156106ea565b346101e2575f7ffffffffffffffffffffffffffffffffffffffffffffffffffffffffffffffffc3601126101e2573373ffffffffffffffffffffffffffffffffffffffff600e5416036107ed57600e80547fffffffffffffffffffffffff0000000000000000000000000000000000000000908116909155600d805433928116831790915573ffffffffffffffffffffffffffffffffffffffff167f8be0079c531659141344cd1fd0a4f28419497f9722a3daafe3b4186f6b6457e05f80a3005b7f118cdaa7000000000000000000000000000000000000000000000000000000005f523360045260245ffd5b346101e2575f7ffffffffffffffffffffffffffffffffffffffffffffffffffffffffffffffffc3601126101e257602073ffffffffffffffffffffffffffffffffffffffff600d5416604051908152f35b346101e25760407ffffffffffffffffffffffffffffffffffffffffffffffffffffffffffffffffc3601126101e2576108a76024356004356122c1565b6040518091602082016020835281518091526020604084019201905f5b8181106108d2575050500390f35b825173ffffffffffffffffffffffffffffffffffffffff168452859450602093840193909201916001016108c4565b346101e2575f7ffffffffffffffffffffffffffffffffffffffffffffffffffffffffffffffffc3601126101e2576020601254604051908152f35b346101e25760207ffffffffffffffffffffffffffffffffffffffffffffffffffffffffffffffffc3601126101e257600435610976612a85565b620f42408110156109b95780158015610998575b6109939061225c565b600f55005b5060105473ffffffffffffffffffffffffffffffffffffffff16151561098a565b60646040517f08c379a000000000000000000000000000000000000000000000000000000000815260206004820152601c60248201527f506c616e6e65723a2070726f746f636f6c20666565203e3d2070706d000000006044820152fd5b346101e2576101a07ffffffffffffffffffffffffffffffffffffffffffffffffffffffffffffffffc3601126101e25760043567ffffffffffffffff81116101e257610a6790369060040161038c565b60243567ffffffffffffffff81116101e257610a8790369060040161038c565b9060443567ffffffffffffffff81116101e257610aa89036906004016103ea565b91610ab1610451565b92610aba610461565b60a43560c435610ac86104dd565b90610ad16104f9565b92610ada610507565b94610144359967ffffffffffffffff8b116101e257610b006106229b3690600401610471565b976101643599610184359b612344565b346101e25760407ffffffffffffffffffffffffffffffffffffffffffffffffffffffffffffffffc3601126101e2576102ac6102a0602435600435612476565b346101e2575f7ffffffffffffffffffffffffffffffffffffffffffffffffffffffffffffffffc3601126101e257602060405173ffffffffffffffffffffffffffffffffffffffff7f0000000000000000000000000000000000000000000000000000000000000000168152f35b346101e25760407ffffffffffffffffffffffffffffffffffffffffffffffffffffffffffffffffc3601126101e257610c4d600435610bfc816101e6565b73ffffffffffffffffffffffffffffffffffffffff60243591610c1e836101e6565b165f52601660205260405f209073ffffffffffffffffffffffffffffffffffffffff165f5260205260405f2090565b548015610c8e577fffffffffffffffffffffffffffffffffffffffffffffffffffffffffffffffff8101908111610c8957604051908152602090f35b6114f4565b60646040517f08c379a000000000000000000000000000000000000000000000000000000000815260206004820152601160248201527f746f6b656e206e6f7420696e20706f6f6c0000000000000000000000000000006044820152fd5b346101e2575f7ffffffffffffffffffffffffffffffffffffffffffffffffffffffffffffffffc3601126101e257602073ffffffffffffffffffffffffffffffffffffffff60105416604051908152f35b907fffffffffffffffffffffffffffffffffffffffffffffffffffffffffffffffe0601f602080948051918291828752018686015e5f8582860101520116010190565b90602080835192838152019201905f5b818110610d9d5750505090565b825173ffffffffffffffffffffffffffffffffffffffff16845260209384019390920191600101610d90565b90602080835192838152019201905f5b818110610de65750505090565b8251845260209384019390920191600101610dd9565b602080825282518183015282015173ffffffffffffffffffffffffffffffffffffffff166040820152610f7890610180610160610efa610eb9610e85610e5160408901518660608901526101a0880190610d3d565b60608901517fffffffffffffffffffffffffffffffffffffffffffffffffffffffffffffffe0888303016080890152610d3d565b60808801517fffffffffffffffffffffffffffffffffffffffffffffffffffffffffffffffe08783030160a0880152610d80565b60a0870151600f0b60c086015260c08701517fffffffffffffffffffffffffffffffffffffffffffffffffffffffffffffffe08683030160e0870152610dc9565b9460e0810151610100850152610100810151610120850152610f3b61012082015161014086019073ffffffffffffffffffffffffffffffffffffffff169052565b61014081015173ffffffffffffffffffffffffffffffffffffffff1684830152015173ffffffffffffffffffffffffffffffffffffffff16910152565b90565b346101e2575f7ffffffffffffffffffffffffffffffffffffffffffffffffffffffffffffffffc3601126101e2575f610160604051610fb9816102dd565b82815282602082015260606040820152606080820152606060808201528260a0820152606060c08201528260e082015282610100820152826101208201528261014082015201526102ac61100b610340565b600154815261104f61103260025473ffffffffffffffffffffffffffffffffffffffff1690565b73ffffffffffffffffffffffffffffffffffffffff166020830152565b611057612533565b6040820152611064612606565b606082015261107161269b565b608082015261108f611085600654600f0b90565b600f0b60a0830152565b6110976126f9565b60c082015260085460e08201526009546101008201526110ed6110cf600a5473ffffffffffffffffffffffffffffffffffffffff1690565b73ffffffffffffffffffffffffffffffffffffffff16610120830152565b61112d61110f600b5473ffffffffffffffffffffffffffffffffffffffff1690565b73ffffffffffffffffffffffffffffffffffffffff16610140830152565b61116d61114f600c5473ffffffffffffffffffffffffffffffffffffffff1690565b73ffffffffffffffffffffffffffffffffffffffff16610160830152565b60405191829182610dfc565b346101e2575f7ffffffffffffffffffffffffffffffffffffffffffffffffffffffffffffffffc3601126101e257602073ffffffffffffffffffffffffffffffffffffffff600e5416604051908152f35b346101e25760207ffffffffffffffffffffffffffffffffffffffffffffffffffffffffffffffffc3601126101e25773ffffffffffffffffffffffffffffffffffffffff60043561121a816101e6565b611222612a85565b16807fffffffffffffffffffffffff0000000000000000000000000000000000000000600e541617600e5573ffffffffffffffffffffffffffffffffffffffff600d54167f38d16b8cac22d99fc7c124b9cd0de2d3fa1faef420bfe791d8c362d765e227005f80a3005b346101e25760207ffffffffffffffffffffffffffffffffffffffffffffffffffffffffffffffffc3601126101e25773ffffffffffffffffffffffffffffffffffffffff6004356112dc816101e6565b165f526013602052602060ff60405f2054166040519015158152f35b346101e2575f7ffffffffffffffffffffffffffffffffffffffffffffffffffffffffffffffffc3601126101e2576020601154604051908152f35b346101e2576101807ffffffffffffffffffffffffffffffffffffffffffffffffffffffffffffffffc3601126101e25760043567ffffffffffffffff81116101e25761138390369060040161038c565b60243567ffffffffffffffff81116101e2576113a390369060040161038c565b9060443567ffffffffffffffff81116101e2576113c49036906004016103ea565b916113cd610451565b9260843560a4356113dc6104ce565b6113e46104ec565b916113ed6104f9565b93610124359867ffffffffffffffff8a116101e2576114136106229a3690600401610471565b966101443598610164359a612741565b346101e25760207ffffffffffffffffffffffffffffffffffffffffffffffffffffffffffffffffc3601126101e25773ffffffffffffffffffffffffffffffffffffffff600435611473816101e6565b165f526015602052602060405f2054604051908152f35b604051906114996020836102ff565b5f808352366020840137565b906114af826103d2565b6114bc60405191826102ff565b8281527fffffffffffffffffffffffffffffffffffffffffffffffffffffffffffffffe06114ea82946103d2565b0190602036910137565b7f4e487b71000000000000000000000000000000000000000000000000000000005f52601160045260245ffd5b9060018201809211610c8957565b91908201809211610c8957565b907fffffffffffffffffffffffffffffffffffffffffffffffffffffffffffffffff8201918211610c8957565b91908203918211610c8957565b7f4e487b71000000000000000000000000000000000000000000000000000000005f52603260045260245ffd5b6012548110156115bb5760125f5260205f2001905f90565b611576565b6011548110156115bb5760115f5260205f2001905f90565b80548210156115bb575f5260205f2001905f90565b80518210156115bb5760209160051b010190565b73ffffffffffffffffffffffffffffffffffffffff90929192165f52601560205260405f20908154808410156116db5781840190818511610c8957808592115f146116d3576116509250611569565b905b61165b826114a5565b925f5b83811061166c575050505090565b806116cd6116a86116886116826001958761152f565b876115d8565b905473ffffffffffffffffffffffffffffffffffffffff9160031b1c1690565b6116b283896115ed565b9073ffffffffffffffffffffffffffffffffffffffff169052565b0161165e565b505090611652565b50505050610f7861148a565b9a8b91965091809c956118bc9561171661183d959c9a9c611706612a85565b8015908115611cf1575b50611cfc565b61172383518b5114611d61565b61174473ffffffffffffffffffffffffffffffffffffffff8d161515611dec565b61176573ffffffffffffffffffffffffffffffffffffffff8c161515611e77565b6117735f87600f0b13611f02565b6117808151845114611f67565b61180f6117a2600d5473ffffffffffffffffffffffffffffffffffffffff1690565b96600f54946117c660105473ffffffffffffffffffffffffffffffffffffffff1690565b966117f46117d2610340565b5f815273ffffffffffffffffffffffffffffffffffffffff909b1660208c0152565b60408a0152606089018c90526080890152600f0b60a0880152565b60c086015260e085015261010084015273ffffffffffffffffffffffffffffffffffffffff16610120830152565b73ffffffffffffffffffffffffffffffffffffffff7f00000000000000000000000000000000000000000000000000000000000000001661014082015273ffffffffffffffffffffffffffffffffffffffff7f000000000000000000000000000000000000000000000000000000000000000016610160820152612aa6565b956118c687611ff2565b61191c6118f18873ffffffffffffffffffffffffffffffffffffffff165f52601360205260405f2090565b60017fffffffffffffffffffffffffffffffffffffffffffffffffffffffffffffff00825416179055565b5f5b8951811015611a5857806119516119376001938d6115ed565b5173ffffffffffffffffffffffffffffffffffffffff1690565b61198a61198661197f8373ffffffffffffffffffffffffffffffffffffffff165f52601460205260405f2090565b5460ff1690565b1590565b611a1f575b6119c08a6119bb8373ffffffffffffffffffffffffffffffffffffffff165f52601560205260405f2090565b612087565b611a186119cc83611521565b916119f58c73ffffffffffffffffffffffffffffffffffffffff165f52601660205260405f2090565b9073ffffffffffffffffffffffffffffffffffffffff165f5260205260405f2090565b550161191e565b611a28816120f0565b611a536118f18273ffffffffffffffffffffffffffffffffffffffff165f52601460205260405f2090565b61198f565b5090929591949793967ff45e30d37dc5ef98e17708308b886213b8f485ea52d495067eed8d4977423f2273ffffffffffffffffffffffffffffffffffffffff8416968792611aac8860405193849384612181565b0390a25f5b8451811015611c6657611ac481886115ed565b51611ad2575b600101611ab1565b611afb611ae261193783886115ed565b73ffffffffffffffffffffffffffffffffffffffff1690565b6040517f70a0823100000000000000000000000000000000000000000000000000000000815273ffffffffffffffffffffffffffffffffffffffff881660048201529190602090839060249082905afa918215611c41575f92611c46575b50611b7d611b6a61193783896115ed565b888c611b76858d6115ed565b5192612dda565b611b8d611ae261193783896115ed565b6040517f70a0823100000000000000000000000000000000000000000000000000000000815273ffffffffffffffffffffffffffffffffffffffff8916600482015290602090829060249082905afa908115611c4157600193611c0c92611bfb925f91611c13575b50611569565b611c05838b6115ed565b51146121d2565b9050611aca565b611c34915060203d8111611c3a575b611c2c81836102ff565b8101906121b8565b5f611bf5565b503d611c22565b6121c7565b611c5f91925060203d8111611c3a57611c2c81836102ff565b905f611b59565b506040517f6d8d0ff300000000000000000000000000000000000000000000000000000000815273ffffffffffffffffffffffffffffffffffffffff979097166004880152602487015294955093925060209185915060449082905f905af1928315611c41575f93611cd757509190565b610f7891935060203d602011611c3a57611c2c81836102ff565b90504211155f611710565b15611d0357565b60646040517f08c379a000000000000000000000000000000000000000000000000000000000815260206004820152601a60248201527f506c616e6e65723a20646561646c696e652065786365656465640000000000006044820152fd5b15611d6857565b60846040517f08c379a000000000000000000000000000000000000000000000000000000000815260206004820152602c60248201527f506c616e6e65723a20746f6b656e7320616e64206465706f73697473206c656e60448201527f677468206d69736d6174636800000000000000000000000000000000000000006064820152fd5b15611df357565b60846040517f08c379a000000000000000000000000000000000000000000000000000000000815260206004820152602560248201527f506c616e6e65723a2070617965722063616e6e6f74206265207a65726f20616460448201527f64726573730000000000000000000000000000000000000000000000000000006064820152fd5b15611e7e57565b60846040517f08c379a000000000000000000000000000000000000000000000000000000000815260206004820152602860248201527f506c616e6e65723a2072656365697665722063616e6e6f74206265207a65726f60448201527f20616464726573730000000000000000000000000000000000000000000000006064820152fd5b15611f0957565b60646040517f08c379a000000000000000000000000000000000000000000000000000000000815260206004820152601a60248201527f506c616e6e65723a206b61707061206d757374206265203e20300000000000006044820152fd5b15611f6e57565b60846040517f08c379a000000000000000000000000000000000000000000000000000000000815260206004820152602860248201527f506c616e6e65723a206665657320616e6420746f6b656e73206c656e6774682060448201527f6d69736d617463680000000000000000000000000000000000000000000000006064820152fd5b601154680100000000000000008110156102fa57600181016011556011548110156115bb5760115f527f31ecc21a745e3968a04e9570e4425bc18fa8019c68028196b546d1669c200c6801805490917fffffffffffffffffffffffff000000000000000000000000000000000000000090911673ffffffffffffffffffffffffffffffffffffffff91909116179055565b9055565b8054680100000000000000008110156102fa576120c28161208393600173ffffffffffffffffffffffffffffffffffffffff940181556115d8565b919093169083549073ffffffffffffffffffffffffffffffffffffffff809160031b9316831b921b19161790565b601254680100000000000000008110156102fa57600181016012556012548110156115bb5760125f527fbb8a6a4669ba250d26cd7a459eca9d215f8307e33aebe50379bc5a3617ec344401805490917fffffffffffffffffffffffff000000000000000000000000000000000000000090911673ffffffffffffffffffffffffffffffffffffffff91909116179055565b916121aa9061219c610f789593606086526060860190610d3d565b908482036020860152610d3d565b916040818403910152610d80565b908160209103126101e2575190565b6040513d5f823e3d90fd5b156121d957565b60846040517f08c379a0000000000000000000000000000000000000000000000000000000008152602060048201526024808201527f6665652d6f6e2d7472616e7366657220746f6b656e73206e6f7420737570706f60448201527f72746564000000000000000000000000000000000000000000000000000000006064820152fd5b1561226357565b60646040517f08c379a000000000000000000000000000000000000000000000000000000000815260206004820152601960248201527f506c616e6e65723a207a65726f206665652061646472657373000000000000006044820152fd5b90601254908183101561233957808301808411610c89578210156123325750818103908111610c89575b6122f4816114a5565b915f5b8281106123045750505090565b8061232c612322611ae261168861231d6001968861152f565b6115a3565b6116b283886115ed565b016122f7565b90506122eb565b505050610f7861148a565b9261242a61243d916124046124519f9e9d9c9b9a9998976124096124259161236a612a85565b885161237860018211612eaf565b61238f6801000000000000000083600f0b12612f14565b6123b16801000000000000000087600f0b6123ab5f8213612f9f565b12613004565b6123e66123e16123c0846136b6565b936123db6123d66123d086613713565b9561153c565b613713565b9061372b565b61376b565b90600f0b82600f0b12155f14612468576124045f82600f0b136130ce565b6137fd565b61242081600f0b5f81139081612455575b50613133565b613875565b613843565b6124385f82600f0b13613198565b6137ad565b9261244c5f85600f0b136131fd565b612741565b9091565b680100000000000000009150125f61241a565b6124045f82600f0b13613069565b90601154908183101561233957808301808411610c89578210156124db5750818103908111610c89575b6124a9816114a5565b915f5b8281106124b95750505090565b80820190818311610c89576124d56123226116886001946115c0565b016124ac565b90506124a0565b90600182811c92168015612529575b60208310146124fc57565b7f4e487b71000000000000000000000000000000000000000000000000000000005f52602260045260245ffd5b91607f16916124f1565b604051905f8260035491612546836124e2565b80835292600181169081156125c9575060011461256a575b610350925003836102ff565b5060035f90815290917fc2575a0e9e593c00f959f8c92f12db2869c3395a3b0502d05e2516446f71f85b5b8183106125ad5750509060206103509282010161255e565b6020919350806001915483858901015201910190918492612595565b602092506103509491507fffffffffffffffffffffffffffffffffffffffffffffffffffffffffffffff001682840152151560051b82010161255e565b604051905f8260045491612619836124e2565b80835292600181169081156125c9575060011461263c57610350925003836102ff565b5060045f90815290917f8a35acfbc15ff81a39ae7d344fd709f28e8600b4aa8c65c6b64bfe7fe36bd19b5b81831061267f5750509060206103509282010161255e565b6020919350806001915483858901015201910190918492612667565b60405190600554808352826020810160055f5260205f20925f5b8181106126ca575050610350925003836102ff565b845473ffffffffffffffffffffffffffffffffffffffff168352600194850194879450602090930192016126b5565b60405190600754808352826020810160075f5260205f20925f5b818110612728575050610350925003836102ff565b8454835260019485019487945060209093019201612713565b97949b9198939996955091612754612a85565b88519b6127608d6103d2565b9c806040519e8f9061277290826102ff565b5261277c906103d2565b7fffffffffffffffffffffffffffffffffffffffffffffffffffffffffffffffe0013660208f01375f9a60011c9a5b8a518110156127ca57808c8f6001936127c3916115ed565b52016127ab565b506127ed94979a5098889b99819d61171661183d95989b9496999c611706612a85565b956127f787611ff2565b6128226118f18873ffffffffffffffffffffffffffffffffffffffff165f52601360205260405f2090565b5f5b89518110156128e8578061283d6119376001938d6115ed565b61286b61198661197f8373ffffffffffffffffffffffffffffffffffffffff165f52601460205260405f2090565b6128af575b61289c8a6119bb8373ffffffffffffffffffffffffffffffffffffffff165f52601560205260405f2090565b6128a86119cc83611521565b5501612824565b6128b8816120f0565b6128e36118f18273ffffffffffffffffffffffffffffffffffffffff165f52601460205260405f2090565b612870565b5090929591949793967ff45e30d37dc5ef98e17708308b886213b8f485ea52d495067eed8d4977423f2273ffffffffffffffffffffffffffffffffffffffff841696879261293c8860405193849384612181565b0390a25f5b8451811015611c665761295481886115ed565b51612962575b600101612941565b612972611ae261193783886115ed565b6040517f70a0823100000000000000000000000000000000000000000000000000000000815273ffffffffffffffffffffffffffffffffffffffff881660048201529190602090839060249082905afa918215611c41575f92612a65575b506129e1611b6a61193783896115ed565b6129f1611ae261193783896115ed565b6040517f70a0823100000000000000000000000000000000000000000000000000000000815273ffffffffffffffffffffffffffffffffffffffff8916600482015290602090829060249082905afa908115611c4157600193612a5e92611bfb925f91611c135750611569565b905061295a565b612a7e91925060203d8111611c3a57611c2c81836102ff565b905f6129d0565b73ffffffffffffffffffffffffffffffffffffffff600d541633036107ed57565b5f54907fffffffffffffffffffffffffffffffffffffffffffffffffffffffffffffffff8214610c8957612cd4610160612d1592600185015f55612aea8151600155565b612b4f612b0e602083015173ffffffffffffffffffffffffffffffffffffffff1690565b73ffffffffffffffffffffffffffffffffffffffff167fffffffffffffffffffffffff00000000000000000000000000000000000000006002541617600255565b612b5c60408201516132ca565b612b696060820151613409565b612b76608082015161353c565b612bc5612b8760a0830151600f0b90565b7fffffffffffffffffffffffffffffffff0000000000000000000000000000000060065416906fffffffffffffffffffffffffffffffff1617600655565b612bd260c08201516135cf565b612bdf60e0820151600855565b612bed610100820151600955565b612c53612c1261012083015173ffffffffffffffffffffffffffffffffffffffff1690565b73ffffffffffffffffffffffffffffffffffffffff167fffffffffffffffffffffffff0000000000000000000000000000000000000000600a541617600a55565b612cb9612c7861014083015173ffffffffffffffffffffffffffffffffffffffff1690565b73ffffffffffffffffffffffffffffffffffffffff167fffffffffffffffffffffffff0000000000000000000000000000000000000000600b541617600b55565b015173ffffffffffffffffffffffffffffffffffffffff1690565b73ffffffffffffffffffffffffffffffffffffffff167fffffffffffffffffffffffff0000000000000000000000000000000000000000600c541617600c55565b612d1e81600155565b6040517f7213edad0000000000000000000000000000000000000000000000000000000081525f8160048173ffffffffffffffffffffffffffffffffffffffff7f0000000000000000000000000000000000000000000000000000000000000000165afa908115611c41575f91612db8575b506020815191015ff580156101e25773ffffffffffffffffffffffffffffffffffffffff1690565b612dd491503d805f833e612dcc81836102ff565b81019061364c565b5f612d90565b92909173ffffffffffffffffffffffffffffffffffffffff9081604051947f23b872dd000000000000000000000000000000000000000000000000000000005f52166004521660245260445260205f60648180865af160015f5114811615612e90575b6040919091525f60605215612e4f5750565b7f5274afe7000000000000000000000000000000000000000000000000000000005f5273ffffffffffffffffffffffffffffffffffffffff1660045260245ffd5b6001811516612ea6573d15833b15151616612e3d565b503d5f823e3d90fd5b15612eb657565b60646040517f08c379a000000000000000000000000000000000000000000000000000000000815260206004820152600c60248201527f6e3e3120726571756972656400000000000000000000000000000000000000006044820152fd5b15612f1b57565b60846040517f08c379a000000000000000000000000000000000000000000000000000000000815260206004820152602260248201527f746172676574536c697070616765206d757374206265203c2031202836342e3660448201527f34290000000000000000000000000000000000000000000000000000000000006064820152fd5b15612fa657565b60646040517f08c379a000000000000000000000000000000000000000000000000000000000815260206004820152601a60248201527f747261646546726163206d75737420626520706f7369746976650000000000006044820152fd5b1561300b57565b60646040517f08c379a000000000000000000000000000000000000000000000000000000000815260206004820152601f60248201527f747261646546726163206d757374206265206c657373207468616e206f6e65006044820152fd5b1561307057565b60646040517f08c379a000000000000000000000000000000000000000000000000000000000815260206004820152601160248201527f62616420736c697070616765206f72206e0000000000000000000000000000006044820152fd5b156130d557565b60646040517f08c379a000000000000000000000000000000000000000000000000000000000815260206004820152601160248201527f7320746f6f206c6172676520666f72206e0000000000000000000000000000006044820152fd5b1561313a57565b60646040517f08c379a000000000000000000000000000000000000000000000000000000000815260206004820152600b60248201527f626164204520726174696f0000000000000000000000000000000000000000006044820152fd5b1561319f57565b60646040517f08c379a000000000000000000000000000000000000000000000000000000000815260206004820152600460248201527f793c3d30000000000000000000000000000000000000000000000000000000006044820152fd5b1561320457565b60646040517f08c379a000000000000000000000000000000000000000000000000000000000815260206004820152600860248201527f6b617070613c3d300000000000000000000000000000000000000000000000006044820152fd5b5f5b82811061327057505050565b5f82820155600101613264565b91601f821161328b57505050565b80821161329757505050565b610350925f5260205f20916020601f830160051c92106132c2575b601f82910160051c039101613262565b5f91506132b2565b90815167ffffffffffffffff81116102fa576132f2816132eb6003546124e2565b600361327d565b602092601f821160011461335057613340929382915f92613345575b50507fffffffffffffffffffffffffffffffffffffffffffffffffffffffffffffffff8260011b9260031b1c19161790565b600355565b015190505f8061330e565b60035f527fffffffffffffffffffffffffffffffffffffffffffffffffffffffffffffffe08216937fc2575a0e9e593c00f959f8c92f12db2869c3395a3b0502d05e2516446f71f85b915f5b8681106133f157508360019596106133ba575b505050811b01600355565b01517fffffffffffffffffffffffffffffffffffffffffffffffffffffffffffffffff60f88460031b161c191690555f80806133af565b9192602060018192868501518155019401920161339c565b90815167ffffffffffffffff81116102fa576134318161342a6004546124e2565b600461327d565b602092601f82116001146134835761347e929382915f926133455750507fffffffffffffffffffffffffffffffffffffffffffffffffffffffffffffffff8260011b9260031b1c19161790565b600455565b60045f527fffffffffffffffffffffffffffffffffffffffffffffffffffffffffffffffe08216937f8a35acfbc15ff81a39ae7d344fd709f28e8600b4aa8c65c6b64bfe7fe36bd19b915f5b86811061352457508360019596106134ed575b505050811b01600455565b01517fffffffffffffffffffffffffffffffffffffffffffffffffffffffffffffffff60f88460031b161c191690555f80806134e2565b919260206001819286850151815501940192016134cf565b80519067ffffffffffffffff82116102fa576801000000000000000082116102fa57602090600554836005558084106135b3575b500160055f5260205f205f5b8381106135895750505050565b600190602073ffffffffffffffffffffffffffffffffffffffff855116940193818401550161357c565b6135c99060055f528480855f2001910390613262565b5f613570565b80519067ffffffffffffffff82116102fa576801000000000000000082116102fa5760209060075483600755808410613630575b500160075f5260205f205f5b83811061361c5750505050565b60019060208451940193818401550161360f565b6136469060075f528480855f2001910390613262565b5f613603565b6020818303126101e25780519067ffffffffffffffff82116101e2570181601f820112156101e25780519061368082610352565b9261368e60405194856102ff565b828452602083830101116101e257815f9260208093018386015e8301015290565b156101e257565b600f0b68010000000000000000017fffffffffffffffffffffffffffffffff80000000000000000000000000000000811215806136f9575b156101e257600f0b90565b506f7fffffffffffffffffffffffffffffff8113156136ee565b677fffffffffffffff81116101e25760401b600f0b90565b90600f0b90600f0b0260401d7fffffffffffffffffffffffffffffffff80000000000000000000000000000000811215806136f957156101e257600f0b90565b600f0b68010000000000000000037fffffffffffffffffffffffffffffffff80000000000000000000000000000000811215806136f957156101e257600f0b90565b600f0b80156101e257700100000000000000000000000000000000057fffffffffffffffffffffffffffffffff80000000000000000000000000000000811215806136f957156101e257600f0b90565b90600f0b9081156101e25760401b60170b057fffffffffffffffffffffffffffffffff80000000000000000000000000000000811215806136f957156101e257600f0b90565b7fffffffffffffffffffffffffffffffff8000000000000000000000000000000081600f0b146101e2575f03600f0b90565b600f0b5f811380156101e25761388a906136af565b5f9080680100000000000000008212156139b3575b8064010000000060029212156139a7575b6201000081121561399b575b61010081121561398f575b6010811215613983575b6004811215613977575b121561396d575b7fffffffffffffffffffffffffffffffffffffffffffffffffffffffffffffffc0820160401b91607f031b90678000000000000000915b5f83136139445750610f789150600f0b6fb17217f7d1cf79abc9e3b39803f2f6af0260801c600f0b90565b806139669102916139558360ff1c90565b9283607f011c928402019260011d90565b9190613919565b90600101906138e2565b9281019260021d6138db565b6004938401931d6138d1565b6008938401931d6138c7565b6010938401931d6138bc565b6020938401931d6138b0565b5090506139c08160401d90565b6040919061389f56fea26469706673582212205bfbca49ff60bc1f787ea13cd47ff840fbc05739a788f60dfceb1752613bf7a964736f6c63430008230033","linkReferences":{}},"methodIdentifiers":{"acceptOwnership()":"79ba5097","getAllPools(uint256,uint256)":"a7753f09","getAllTokens(uint256,uint256)":"9a043832","getPoolSupported(address)":"f3176725","getPoolsByToken(address,uint256,uint256)":"14c870c0","newPool(string,string,address[],int128,int128,uint256,uint256,bool,address,address,uint256[],uint256,uint256)":"a4689b24","newPool(string,string,address[],int128,uint256,uint256,bool,address,address,uint256[],uint256,uint256)":"f63772fc","newPool(string,string,address[],int128,uint256[],uint256,bool,address,address,uint256[],uint256,uint256)":"60cf7d4a","owner()":"8da5cb5b","params()":"cff0ab96","pendingOwner()":"e30c3978","permit2()":"12261ee7","poolCount()":"f525cb68","poolsByTokenCount(address)":"f70a3a17","protocolFeeAddress()":"cce516b7","protocolFeePpm()":"6b4082d1","setProtocolFeeAddress(address)":"6b7b9112","setProtocolFeePpm(uint256)":"a3b6a006","tokenCount()":"9f181b5e","tokenIndex(address,address)":"bda87c19","transferOwnership(address)":"f2fde38b","wrapper()":"ac210cc7"},"id":52}