{"abi":[{"type":"constructor","inputs":[{"name":"_pool","type":"address","internalType":"address"}],"stateMutability":"nonpayable"},{"type":"function","name":"action","inputs":[],"outputs":[{"name":"","type":"uint8","internalType":"enum FlashBorrower.Action"}],"stateMutability":"view"},{"type":"function","name":"onFlashLoan","inputs":[{"name":"","type":"address","internalType":"address"},{"name":"token","type":"address","internalType":"address"},{"name":"amount","type":"uint256","internalType":"uint256"},{"name":"fee","type":"uint256","internalType":"uint256"},{"name":"","type":"bytes","internalType":"bytes"}],"outputs":[{"name":"","type":"bytes32","internalType":"bytes32"}],"stateMutability":"nonpayable"},{"type":"function","name":"payer","inputs":[],"outputs":[{"name":"","type":"address","internalType":"address"}],"stateMutability":"view"},{"type":"function","name":"pool","inputs":[],"outputs":[{"name":"","type":"address","internalType":"address"}],"stateMutability":"view"},{"type":"function","name":"setAction","inputs":[{"name":"_action","type":"uint8","internalType":"enum FlashBorrower.Action"},{"name":"_payer","type":"address","internalType":"address"}],"outputs":[],"stateMutability":"nonpayable"}],"bytecode":{"object":"0x608034607e57601f61092038819003918201601f19168301916001600160401b03831184841017608257808492602094604052833981010312607e57516001600160a01b0381168103607e575f8054610100600160a81b03191660089290921b610100600160a81b031691909117905560405161088990816100978239f35b5f80fd5b634e487b7160e01b5f52604160045260245ffdfe6080806040526004361015610012575f80fd5b5f3560e01c9081630a7a1c4d1461070957508063123119cd146106b857806316f0115b1461066557806323e30c8b1461010a57638de01dce14610053575f80fd5b346101065760407ffffffffffffffffffffffffffffffffffffffffffffffffffffffffffffffffc3601126101065760043560058110156101065773ffffffffffffffffffffffffffffffffffffffff906100ac610770565b9060ff7fffffffffffffffffffffffffffffffffffffffffffffffffffffffffffffff005f54169116175f55167fffffffffffffffffffffffff000000000000000000000000000000000000000060015416176001555f80f35b5f80fd5b346101065760a07ffffffffffffffffffffffffffffffffffffffffffffffffffffffffffffffffc3601126101065761014161074d565b5061014a610770565b604435906064359060843567ffffffffffffffff8111610106573660238201121561010657806004013567ffffffffffffffff81116101065736910160240111610106575f5473ffffffffffffffffffffffffffffffffffffffff8160081c1633036106075760ff1660058110156105da57806103695750602073ffffffffffffffffffffffffffffffffffffffff6101e68461024b96610793565b6001546040517f23b872dd00000000000000000000000000000000000000000000000000000000815273ffffffffffffffffffffffffffffffffffffffff90911660048201523060248201526044810195909552939492169291849081906064820190565b03815f865af1918215610343576102d99360209361034e575b5073ffffffffffffffffffffffffffffffffffffffff5f5460081c165f6040518096819582947f095ea7b3000000000000000000000000000000000000000000000000000000008452600484016020909392919373ffffffffffffffffffffffffffffffffffffffff60408201951681520152565b03925af1801561034357610314575b505b60206040517f439148f0bbc682ca079e46d6e2c2f0c1e3b820f1a291b069d8882abf8cf18dd98152f35b6103359060203d60201161033c575b61032d81836107cd565b81019061083b565b50806102e8565b503d610323565b6040513d5f823e3d90fd5b61036490843d861161033c5761032d81836107cd565b610264565b9091906002810361044757509061038560209261041294610793565b60011c9073ffffffffffffffffffffffffffffffffffffffff5f5460081c165f73ffffffffffffffffffffffffffffffffffffffff6040518097819682957f095ea7b3000000000000000000000000000000000000000000000000000000008452600484016020909392919373ffffffffffffffffffffffffffffffffffffffff60408201951681520152565b0393165af1801561034357610428575b506102ea565b6104409060203d60201161033c5761032d81836107cd565b5080610422565b600381036104e15750506104129160209173ffffffffffffffffffffffffffffffffffffffff5f5460081c165f73ffffffffffffffffffffffffffffffffffffffff6040518097819682957f095ea7b3000000000000000000000000000000000000000000000000000000008452600484016020909392919373ffffffffffffffffffffffffffffffffffffffff60408201951681520152565b9091906004146104f4575b5050506102ea565b602073ffffffffffffffffffffffffffffffffffffffff6101e68461051896610793565b03815f865af1918215610343576105a59360209361034e575073ffffffffffffffffffffffffffffffffffffffff5f5460081c165f6040518096819582947f095ea7b3000000000000000000000000000000000000000000000000000000008452600484016020909392919373ffffffffffffffffffffffffffffffffffffffff60408201951681520152565b03925af18015610343576105bb575b80806104ec565b6105d39060203d60201161033c5761032d81836107cd565b50806105b4565b7f4e487b71000000000000000000000000000000000000000000000000000000005f52602160045260245ffd5b60646040517f08c379a000000000000000000000000000000000000000000000000000000000815260206004820152601b60248201527f43616c6c6261636b206e6f742063616c6c656420627920706f6f6c00000000006044820152fd5b34610106575f7ffffffffffffffffffffffffffffffffffffffffffffffffffffffffffffffffc36011261010657602073ffffffffffffffffffffffffffffffffffffffff5f5460081c16604051908152f35b34610106575f7ffffffffffffffffffffffffffffffffffffffffffffffffffffffffffffffffc36011261010657602073ffffffffffffffffffffffffffffffffffffffff60015416604051908152f35b34610106575f7ffffffffffffffffffffffffffffffffffffffffffffffffffffffffffffffffc3601126101065760ff5f54169060058210156105da576020918152f35b6004359073ffffffffffffffffffffffffffffffffffffffff8216820361010657565b6024359073ffffffffffffffffffffffffffffffffffffffff8216820361010657565b919082018092116107a057565b7f4e487b71000000000000000000000000000000000000000000000000000000005f52601160045260245ffd5b90601f7fffffffffffffffffffffffffffffffffffffffffffffffffffffffffffffffe0910116810190811067ffffffffffffffff82111761080e57604052565b7f4e487b71000000000000000000000000000000000000000000000000000000005f52604160045260245ffd5b9081602091031261010657518015158103610106579056fea2646970667358221220bb8610e2f9d49aa86a9922ea998ed2dd60bb93b3ac96b1a1729750ccf8cecd0564736f6c634300081e0033","linkReferences":{}},"methodIdentifiers":{"action()":"0a7a1c4d","onFlashLoan(address,address,uint256,uint256,bytes)":"23e30c8b","payer()":"123119cd","pool()":"16f0115b","setAction(uint8,address)":"8de01dce"},"id":63}