{"abi":[{"type":"constructor","inputs":[{"name":"name_","type":"string","internalType":"string"},{"name":"symbol_","type":"string","internalType":"string"},{"name":"initialSupply","type":"uint256","internalType":"uint256"}],"stateMutability":"nonpayable"},{"type":"function","name":"allowance","inputs":[{"name":"owner","type":"address","internalType":"address"},{"name":"spender","type":"address","internalType":"address"}],"outputs":[{"name":"","type":"uint256","internalType":"uint256"}],"stateMutability":"view"},{"type":"function","name":"approve","inputs":[{"name":"spender","type":"address","internalType":"address"},{"name":"value","type":"uint256","internalType":"uint256"}],"outputs":[{"name":"","type":"bool","internalType":"bool"}],"stateMutability":"nonpayable"},{"type":"function","name":"approveMax","inputs":[{"name":"spender","type":"address","internalType":"address"}],"outputs":[],"stateMutability":"nonpayable"},{"type":"function","name":"balanceOf","inputs":[{"name":"account","type":"address","internalType":"address"}],"outputs":[{"name":"","type":"uint256","internalType":"uint256"}],"stateMutability":"view"},{"type":"function","name":"decimals","inputs":[],"outputs":[{"name":"","type":"uint8","internalType":"uint8"}],"stateMutability":"view"},{"type":"function","name":"mint","inputs":[{"name":"to","type":"address","internalType":"address"},{"name":"amount","type":"uint256","internalType":"uint256"}],"outputs":[],"stateMutability":"nonpayable"},{"type":"function","name":"name","inputs":[],"outputs":[{"name":"","type":"string","internalType":"string"}],"stateMutability":"view"},{"type":"function","name":"symbol","inputs":[],"outputs":[{"name":"","type":"string","internalType":"string"}],"stateMutability":"view"},{"type":"function","name":"totalSupply","inputs":[],"outputs":[{"name":"","type":"uint256","internalType":"uint256"}],"stateMutability":"view"},{"type":"function","name":"transfer","inputs":[{"name":"to","type":"address","internalType":"address"},{"name":"value","type":"uint256","internalType":"uint256"}],"outputs":[{"name":"","type":"bool","internalType":"bool"}],"stateMutability":"nonpayable"},{"type":"function","name":"transferFrom","inputs":[{"name":"from","type":"address","internalType":"address"},{"name":"to","type":"address","internalType":"address"},{"name":"value","type":"uint256","internalType":"uint256"}],"outputs":[{"name":"","type":"bool","internalType":"bool"}],"stateMutability":"nonpayable"},{"type":"event","name":"Approval","inputs":[{"name":"owner","type":"address","indexed":true,"internalType":"address"},{"name":"spender","type":"address","indexed":true,"internalType":"address"},{"name":"value","type":"uint256","indexed":false,"internalType":"uint256"}],"anonymous":false},{"type":"event","name":"Transfer","inputs":[{"name":"from","type":"address","indexed":true,"internalType":"address"},{"name":"to","type":"address","indexed":true,"internalType":"address"},{"name":"value","type":"uint256","indexed":false,"internalType":"uint256"}],"anonymous":false},{"type":"error","name":"ERC20InsufficientAllowance","inputs":[{"name":"spender","type":"address","internalType":"address"},{"name":"allowance","type":"uint256","internalType":"uint256"},{"name":"needed","type":"uint256","internalType":"uint256"}]},{"type":"error","name":"ERC20InsufficientBalance","inputs":[{"name":"sender","type":"address","internalType":"address"},{"name":"balance","type":"uint256","internalType":"uint256"},{"name":"needed","type":"uint256","internalType":"uint256"}]},{"type":"error","name":"ERC20InvalidApprover","inputs":[{"name":"approver","type":"address","internalType":"address"}]},{"type":"error","name":"ERC20InvalidReceiver","inputs":[{"name":"receiver","type":"address","internalType":"address"}]},{"type":"error","name":"ERC20InvalidSender","inputs":[{"name":"sender","type":"address","internalType":"address"}]},{"type":"error","name":"ERC20InvalidSpender","inputs":[{"name":"spender","type":"address","internalType":"address"}]}],"bytecode":{"object":"0x6080604052346103a157610f6380380380610019816103a5565b9283398101906060818303126103a15780516001600160401b0381116103a157826100459183016103ca565b60208201519092906001600160401b0381116103a1576040916100699184016103ca565b91015182516001600160401b0381116102b257600354600181811c91168015610397575b602082101461029457601f8111610334575b506020601f82116001146102d157819293945f926102c6575b50508160011b915f199060031b1c1916176003555b81516001600160401b0381116102b257600454600181811c911680156102a8575b602082101461029457601f8111610231575b50602092601f82116001146101d057928192935f926101c5575b50508160011b915f199060031b1c1916176004555b80610144575b604051610b47908161041c8239f35b33156101b25760025481810180911161019e57600255335f525f60205260405f208181540190556040519081525f7fddf252ad1be2c89b69c2b068fc378daa952ba7f163c4a11628f55a4df523b3ef60203393a35f610135565b634e487b7160e01b5f52601160045260245ffd5b63ec442f0560e01b5f525f60045260245ffd5b015190505f8061011a565b601f1982169360045f52805f20915f5b8681106102195750836001959610610201575b505050811b0160045561012f565b01515f1960f88460031b161c191690555f80806101f3565b919260206001819286850151815501940192016101e0565b60045f527f8a35acfbc15ff81a39ae7d344fd709f28e8600b4aa8c65c6b64bfe7fe36bd19b601f830160051c8101916020841061028a575b601f0160051c01905b81811061027f5750610100565b5f8155600101610272565b9091508190610269565b634e487b7160e01b5f52602260045260245ffd5b90607f16906100ee565b634e487b7160e01b5f52604160045260245ffd5b015190505f806100b8565b601f1982169060035f52805f20915f5b81811061031c57509583600195969710610304575b505050811b016003556100cd565b01515f1960f88460031b161c191690555f80806102f6565b9192602060018192868b0151815501940192016102e1565b60035f527fc2575a0e9e593c00f959f8c92f12db2869c3395a3b0502d05e2516446f71f85b601f830160051c8101916020841061038d575b601f0160051c01905b818110610382575061009f565b5f8155600101610375565b909150819061036c565b90607f169061008d565b5f80fd5b6040519190601f01601f191682016001600160401b038111838210176102b257604052565b81601f820112156103a1578051906001600160401b0382116102b2576103f9601f8301601f19166020016103a5565b92828452602083830101116103a157815f9260208093018386015e830101529056fe6080806040526004361015610012575f80fd5b5f3560e01c90816306fdde031461085c57508063095ea7b3146107af57806318160ddd1461077457806323b872dd14610638578063313ce567146105ff57806340c10f1914610500578063571ac8b0146103c957806370a082311461036757806395d89b4114610174578063a9059cbb146101255763dd62ed3e14610095575f80fd5b346101215760407ffffffffffffffffffffffffffffffffffffffffffffffffffffffffffffffffc360112610121576100cc6109d5565b73ffffffffffffffffffffffffffffffffffffffff6100e96109f8565b91165f52600160205273ffffffffffffffffffffffffffffffffffffffff60405f2091165f52602052602060405f2054604051908152f35b5f80fd5b346101215760407ffffffffffffffffffffffffffffffffffffffffffffffffffffffffffffffffc3601126101215761016961015f6109d5565b6024359033610a1b565b602060405160018152f35b34610121575f7ffffffffffffffffffffffffffffffffffffffffffffffffffffffffffffffffc360112610121576040515f600454908160011c6001831692831561035d575b6020821084146103305781855284939081156102d05750600114610256575b5003601f017fffffffffffffffffffffffffffffffffffffffffffffffffffffffffffffffe01681019067ffffffffffffffff821181831017610229576102258291826040528261098d565b0390f35b7f4e487b71000000000000000000000000000000000000000000000000000000005f52604160045260245ffd5b60045f90815291507f8a35acfbc15ff81a39ae7d344fd709f28e8600b4aa8c65c6b64bfe7fe36bd19b5b8183106102b457505081016020017fffffffffffffffffffffffffffffffffffffffffffffffffffffffffffffffe06101d9565b6020919350806001915483858801015201910190918392610280565b7fffffffffffffffffffffffffffffffffffffffffffffffffffffffffffffff001660208581019190915291151560051b840190910191507fffffffffffffffffffffffffffffffffffffffffffffffffffffffffffffffe090506101d9565b7f4e487b71000000000000000000000000000000000000000000000000000000005f52602260045260245ffd5b90607f16906101ba565b346101215760207ffffffffffffffffffffffffffffffffffffffffffffffffffffffffffffffffc3601126101215773ffffffffffffffffffffffffffffffffffffffff6103b36109d5565b165f525f602052602060405f2054604051908152f35b346101215760207ffffffffffffffffffffffffffffffffffffffffffffffffffffffffffffffffc360112610121576104006109d5565b33156104d45773ffffffffffffffffffffffffffffffffffffffff1680156104a857335f52600160205260405f20815f526020527fffffffffffffffffffffffffffffffffffffffffffffffffffffffffffffffff60405f20556040517fffffffffffffffffffffffffffffffffffffffffffffffffffffffffffffffff81527f8c5be1e5ebec7d5bd14f71427d1e84f3dd0314c0f7b2291e5b200ac8c7c3b92560203392a3005b7f94280d62000000000000000000000000000000000000000000000000000000005f525f60045260245ffd5b7fe602df05000000000000000000000000000000000000000000000000000000005f525f60045260245ffd5b346101215760407ffffffffffffffffffffffffffffffffffffffffffffffffffffffffffffffffc360112610121576105376109d5565b73ffffffffffffffffffffffffffffffffffffffff1660243581156105d357600254908082018092116105a65760207fddf252ad1be2c89b69c2b068fc378daa952ba7f163c4a11628f55a4df523b3ef915f9360025584845283825260408420818154019055604051908152a3005b7f4e487b71000000000000000000000000000000000000000000000000000000005f52601160045260245ffd5b7fec442f05000000000000000000000000000000000000000000000000000000005f525f60045260245ffd5b34610121575f7ffffffffffffffffffffffffffffffffffffffffffffffffffffffffffffffffc36011261012157602060405160128152f35b346101215760607ffffffffffffffffffffffffffffffffffffffffffffffffffffffffffffffffc3601126101215761066f6109d5565b6106776109f8565b6044359073ffffffffffffffffffffffffffffffffffffffff831692835f52600160205260405f2073ffffffffffffffffffffffffffffffffffffffff33165f5260205260405f20547fffffffffffffffffffffffffffffffffffffffffffffffffffffffffffffffff81106106f3575b506101699350610a1b565b8381106107405784156104d45733156104a857610169945f52600160205260405f2073ffffffffffffffffffffffffffffffffffffffff33165f526020528360405f2091039055846106e8565b83907ffb8f41b2000000000000000000000000000000000000000000000000000000005f523360045260245260445260645ffd5b34610121575f7ffffffffffffffffffffffffffffffffffffffffffffffffffffffffffffffffc360112610121576020600254604051908152f35b346101215760407ffffffffffffffffffffffffffffffffffffffffffffffffffffffffffffffffc360112610121576107e66109d5565b6024359033156104d45773ffffffffffffffffffffffffffffffffffffffff169081156104a857335f52600160205260405f20825f526020528060405f20556040519081527f8c5be1e5ebec7d5bd14f71427d1e84f3dd0314c0f7b2291e5b200ac8c7c3b92560203392a3602060405160018152f35b34610121575f7ffffffffffffffffffffffffffffffffffffffffffffffffffffffffffffffffc360112610121575f600354908160011c60018316928315610983575b6020821084146103305781855284939081156102d05750600114610909575003601f017fffffffffffffffffffffffffffffffffffffffffffffffffffffffffffffffe01681019067ffffffffffffffff821181831017610229576102258291826040528261098d565b60035f90815291507fc2575a0e9e593c00f959f8c92f12db2869c3395a3b0502d05e2516446f71f85b5b81831061096757505081016020017fffffffffffffffffffffffffffffffffffffffffffffffffffffffffffffffe06101d9565b6020919350806001915483858801015201910190918392610933565b90607f169061089f565b7fffffffffffffffffffffffffffffffffffffffffffffffffffffffffffffffe0601f602060409481855280519182918282880152018686015e5f8582860101520116010190565b6004359073ffffffffffffffffffffffffffffffffffffffff8216820361012157565b6024359073ffffffffffffffffffffffffffffffffffffffff8216820361012157565b73ffffffffffffffffffffffffffffffffffffffff16908115610ae55773ffffffffffffffffffffffffffffffffffffffff169182156105d357815f525f60205260405f2054818110610ab357817fddf252ad1be2c89b69c2b068fc378daa952ba7f163c4a11628f55a4df523b3ef92602092855f525f84520360405f2055845f525f825260405f20818154019055604051908152a3565b827fe450d38c000000000000000000000000000000000000000000000000000000005f5260045260245260445260645ffd5b7f96c6fd1e000000000000000000000000000000000000000000000000000000005f525f60045260245ffdfea26469706673582212200fb70814f2ac089de8a2b77e180173b190515930c7b83c1313ca603c443ffedb64736f6c634300081e0033","linkReferences":{}},"methodIdentifiers":{"allowance(address,address)":"dd62ed3e","approve(address,uint256)":"095ea7b3","approveMax(address)":"571ac8b0","balanceOf(address)":"70a08231","decimals()":"313ce567","mint(address,uint256)":"40c10f19","name()":"06fdde03","symbol()":"95d89b41","totalSupply()":"18160ddd","transfer(address,uint256)":"a9059cbb","transferFrom(address,address,uint256)":"23b872dd"},"id":63}