{"abi":[{"type":"function","name":"onFlashLoan","inputs":[{"name":"","type":"address","internalType":"address"},{"name":"token","type":"address","internalType":"address"},{"name":"amount","type":"uint256","internalType":"uint256"},{"name":"fee","type":"uint256","internalType":"uint256"},{"name":"data","type":"bytes","internalType":"bytes"}],"outputs":[{"name":"","type":"bytes32","internalType":"bytes32"}],"stateMutability":"nonpayable"}],"bytecode":{"object":"0x60808060405234601557610291908161001a8239f35b5f80fdfe6080806040526004361015610012575f80fd5b5f3560e01c6323e30c8b14610025575f80fd5b346101c85760a07ffffffffffffffffffffffffffffffffffffffffffffffffffffffffffffffffc3601126101c85761005c610238565b5060243573ffffffffffffffffffffffffffffffffffffffff81168091036101c8576044359060843567ffffffffffffffff81116101c857366023820112156101c857806004013567ffffffffffffffff81116101c85781013660248201116101c857602090829003126101c857602401359073ffffffffffffffffffffffffffffffffffffffff82168092036101c857606435830180931161020b57835f60449260209583957f095ea7b3000000000000000000000000000000000000000000000000000000008552600485015260248401525af1801561020057610167575b60206040517f439148f0bbc682ca079e46d6e2c2f0c1e3b820f1a291b069d8882abf8cf18dd98152f35b60203d6020116101f9575b7fffffffffffffffffffffffffffffffffffffffffffffffffffffffffffffffe0601f820116820182811067ffffffffffffffff8211176101cc576020918391604052810103126101c85751801515811461013d575b5f80fd5b7f4e487b71000000000000000000000000000000000000000000000000000000005f52604160045260245ffd5b503d610172565b6040513d5f823e3d90fd5b7f4e487b71000000000000000000000000000000000000000000000000000000005f52601160045260245ffd5b6004359073ffffffffffffffffffffffffffffffffffffffff821682036101c85756fea2646970667358221220608a068f4b69c3529bce103fd01ee3145166316c5be04613db70ee2b847f122f64736f6c634300081e0033","linkReferences":{}},"methodIdentifiers":{"onFlashLoan(address,address,uint256,uint256,bytes)":"23e30c8b"},"id":60}