{"abi":[{"type":"constructor","inputs":[{"name":"mintImpl","type":"address","internalType":"contract PartyPoolMintImpl"},{"name":"swapImpl_","type":"address","internalType":"contract PartyPoolSwapImpl"}],"stateMutability":"nonpayable"},{"type":"function","name":"burnAmounts","inputs":[{"name":"pool","type":"address","internalType":"contract IPartyPool"},{"name":"lpTokenAmount","type":"uint256","internalType":"uint256"}],"outputs":[{"name":"withdrawAmounts","type":"uint256[]","internalType":"uint256[]"}],"stateMutability":"view"},{"type":"function","name":"burnSwapAmounts","inputs":[{"name":"pool","type":"address","internalType":"contract IPartyPool"},{"name":"lpAmount","type":"uint256","internalType":"uint256"},{"name":"outputTokenIndex","type":"uint256","internalType":"uint256"}],"outputs":[{"name":"amountOut","type":"uint256","internalType":"uint256"},{"name":"outFee","type":"uint256","internalType":"uint256"}],"stateMutability":"view"},{"type":"function","name":"flashFee","inputs":[{"name":"pool","type":"address","internalType":"contract IPartyPool"},{"name":"","type":"address","internalType":"address"},{"name":"amount","type":"uint256","internalType":"uint256"}],"outputs":[{"name":"fee","type":"uint256","internalType":"uint256"}],"stateMutability":"view"},{"type":"function","name":"maxFlashLoan","inputs":[{"name":"pool","type":"address","internalType":"contract IPartyPool"},{"name":"token","type":"address","internalType":"address"}],"outputs":[{"name":"","type":"uint256","internalType":"uint256"}],"stateMutability":"view"},{"type":"function","name":"mintAmounts","inputs":[{"name":"pool","type":"address","internalType":"contract IPartyPool"},{"name":"lpTokenAmount","type":"uint256","internalType":"uint256"}],"outputs":[{"name":"depositAmounts","type":"uint256[]","internalType":"uint256[]"}],"stateMutability":"view"},{"type":"function","name":"poolPrice","inputs":[{"name":"pool","type":"address","internalType":"contract IPartyPool"},{"name":"quoteTokenIndex","type":"uint256","internalType":"uint256"}],"outputs":[{"name":"","type":"int128","internalType":"int128"}],"stateMutability":"view"},{"type":"function","name":"price","inputs":[{"name":"pool","type":"address","internalType":"contract IPartyPool"},{"name":"baseTokenIndex","type":"uint256","internalType":"uint256"},{"name":"quoteTokenIndex","type":"uint256","internalType":"uint256"}],"outputs":[{"name":"","type":"uint256","internalType":"uint256"}],"stateMutability":"view"},{"type":"function","name":"swapMintAmounts","inputs":[{"name":"pool","type":"address","internalType":"contract IPartyPool"},{"name":"inputTokenIndex","type":"uint256","internalType":"uint256"},{"name":"maxAmountIn","type":"uint256","internalType":"uint256"}],"outputs":[{"name":"amountInUsed","type":"uint256","internalType":"uint256"},{"name":"lpMinted","type":"uint256","internalType":"uint256"},{"name":"inFee","type":"uint256","internalType":"uint256"}],"stateMutability":"view"},{"type":"function","name":"swapToLimitAmounts","inputs":[{"name":"pool","type":"address","internalType":"contract IPartyPool"},{"name":"inputTokenIndex","type":"uint256","internalType":"uint256"},{"name":"outputTokenIndex","type":"uint256","internalType":"uint256"},{"name":"limitPrice","type":"int128","internalType":"int128"}],"outputs":[{"name":"amountIn","type":"uint256","internalType":"uint256"},{"name":"amountOut","type":"uint256","internalType":"uint256"},{"name":"inFee","type":"uint256","internalType":"uint256"}],"stateMutability":"view"},{"type":"function","name":"working","inputs":[{"name":"pool","type":"address","internalType":"contract IPartyPool"}],"outputs":[{"name":"","type":"bool","internalType":"bool"}],"stateMutability":"view"}],"bytecode":{"object":"0x60c03461009957601f612e9338819003918201601f19168301916001600160401b0383118484101761009d578084926040948552833981010312610099578051906001600160a01b038216820361009957602001516001600160a01b03811681036100995760805260a052604051612de190816100b282396080518161030e015260a0518181816106640152818161102201526119130152f35b5f80fd5b634e487b7160e01b5f52604160045260245ffdfe6080806040526004361015610012575f80fd5b5f3560e01c9081630ab75fef146119dc575080630db4cdda146117905780633a06daa21461139e57806344e48a9c1461112c57806397c6481214610ea0578063ad84489314610dc1578063b9c0d20414610828578063bfb5cdc51461052b578063c63a9743146100d95763c757221b1461008a575f80fd5b346100d55760207ffffffffffffffffffffffffffffffffffffffffffffffffffffffffffffffffc3601126100d55760206100cb6100c6611aaf565b611f61565b6040519015158152f35b5f80fd5b346100d55760807ffffffffffffffffffffffffffffffffffffffffffffffffffffffffffffffffc3601126100d557610110611aaf565b6024356044356064359283600f0b8094036100d55773ffffffffffffffffffffffffffffffffffffffff16916040517f476e44b60000000000000000000000000000000000000000000000000000000081525f81600481875afa801561039e576020915f91610509575b500180515180831090816104ff575b50156104a1575f851315610443576040517f017cf6610000000000000000000000000000000000000000000000000000000081525f81600481885afa90811561039e575f91610421575b50604051907f6bba3f2f000000000000000000000000000000000000000000000000000000008252602082600481895afa91821561039e575f926103e0575b5060206044935196604051948580927f939f5ea40000000000000000000000000000000000000000000000000000000082528860048301528960248301525afa92831561039e575f936103a9575b50906060956102b76102ef93604051998a9889987fbf05a0a6000000000000000000000000000000000000000000000000000000008a5260048a01526024890152604488015260e0606488015260e4870190611b4a565b91600f0b60848601527ffffffffffffffffffffffffffffffffffffffffffffffffffffffffffffffffc8583030160a4860152611db8565b9060c4830152038173ffffffffffffffffffffffffffffffffffffffff7f0000000000000000000000000000000000000000000000000000000000000000165afa801561039e575f905f925f91610367575b5061036390604051938493846040919493926060820195825260208201520152565b0390f35b90506103639250610390915060603d606011610397575b6103888183611b7d565b810190611d9d565b9092610341565b503d61037e565b6040513d5f823e3d90fd5b919092506020823d6020116103d8575b816103c660209383611b7d565b810103126100d5579051916060610260565b3d91506103b9565b9291506020833d602011610419575b816103fc60209383611b7d565b810103126100d5576020610411604494611beb565b929350610212565b3d91506103ef565b61043d91503d805f833e6104358183611b7d565b810190611ce2565b866101d3565b60646040517f08c379a000000000000000000000000000000000000000000000000000000000815260206004820152601760248201527f73776170546f4c696d69743a206c696d6974203c3d20300000000000000000006044820152fd5b60646040517f08c379a000000000000000000000000000000000000000000000000000000000815260206004820152601060248201527f73776170546f4c696d69743a20696478000000000000000000000000000000006044820152fd5b9050831086610189565b61052591503d805f833e61051d8183611b7d565b810190611c11565b8661017a565b346100d55760407ffffffffffffffffffffffffffffffffffffffffffffffffffffffffffffffffc3601126100d55773ffffffffffffffffffffffffffffffffffffffff610577611aaf565b166040517f476e44b60000000000000000000000000000000000000000000000000000000081525f81600481855afa801561039e576020915f9161080e575b50015151906105c482611eba565b915f5b8181106106fa576040517f18160ddd0000000000000000000000000000000000000000000000000000000081528490602081600481885afa90811561039e575f916106c6575b5061064b915f9160405193849283927fcdc2468b00000000000000000000000000000000000000000000000000000000845260243560048501611f35565b038173ffffffffffffffffffffffffffffffffffffffff7f0000000000000000000000000000000000000000000000000000000000000000165afa801561039e57610363915f916106ac575b50604051918291602083526020830190611b4a565b6106c091503d805f833e6104358183611b7d565b82610697565b90506020813d6020116106f2575b816106e160209383611b7d565b810103126100d5575161064b61060d565b3d91506106d4565b604051907f044215c6000000000000000000000000000000000000000000000000000000008252806004830152602082602481875afa91821561039e5773ffffffffffffffffffffffffffffffffffffffff926020915f916107e1575b506024604051809581937f70a08231000000000000000000000000000000000000000000000000000000008352896004840152165afa801561039e575f906107af575b600192506107a88287611d5c565b52016105c7565b506020823d82116107d9575b816107c860209383611b7d565b810103126100d5576001915161079a565b3d91506107bb565b6108019150823d8111610807575b6107f98183611b7d565b810190611f09565b87610757565b503d6107ef565b61082291503d805f833e61051d8183611b7d565b836105b6565b346100d55760407ffffffffffffffffffffffffffffffffffffffffffffffffffffffffffffffffc3601126100d55761085f611aaf565b73ffffffffffffffffffffffffffffffffffffffff60243591166040517f8e499bcf000000000000000000000000000000000000000000000000000000008152602081600481855afa90811561039e575f91610d8f575b508015610d315780831015610cd357604051927f044215c6000000000000000000000000000000000000000000000000000000008452806004850152602084602481865afa93841561039e5773ffffffffffffffffffffffffffffffffffffffff946020915f91610cb6575b506024604051809781937f70a08231000000000000000000000000000000000000000000000000000000008352886004840152165afa93841561039e575f94610c82575b50604051917f017504b60000000000000000000000000000000000000000000000000000000083525f83600481875afa801561039e576004956109ba6109c6946109c1936020975f91610c68575b50611d5c565b5190611f54565b611e43565b91604051938480927f18160ddd0000000000000000000000000000000000000000000000000000000082525afa91821561039e575f92610c34575b5081156100d55777ffffffffffffffffffffffffffffffffffffffffffffffff8111610a825790610a349160401b611e83565b6fffffffffffffffffffffffffffffffff81116100d5576fffffffffffffffffffffffffffffffff166f7fffffffffffffffffffffffffffffff81116100d55760209060405190600f0b8152f35b60c09181831c8093640100000000821015610c27575b60028262010000610b25941015610c1b575b610100811015610c0f575b6010811015610c03575b6004811015610bf8575b1015610bf0575b8360017fffffffffffffffffffffffffffffffffffffffffffffffffffffffffffffffff85017fffffffffffffffffffffffffffffffffffffffffffffffffffffffffffffff4184011c019160ff031b611e83565b926fffffffffffffffffffffffffffffffff84116100d5578160801c8402906fffffffffffffffffffffffffffffffff8316850290809460401b90828210610bc6575b5003928160801b91828510610b9d575b60801c03610b9257610b8a9203611e83565b905b01610a34565b505050600190610b8c565b907fffffffffffffffffffffffffffffffffffffffffffffffffffffffffffffffff0190610b78565b7fffffffffffffffffffffffffffffffffffffffffffffffffffffffffffffffff01945086610b68565b600101610ad0565b91810191811c610ac9565b6004928301921c610abf565b6008928301921c610ab5565b6010928301921c610aaa565b505060e082811c90610a98565b9091506020813d602011610c60575b81610c5060209383611b7d565b810103126100d557519082610a01565b3d9150610c43565b610c7c91503d805f833e6104358183611b7d565b8a6109b4565b9093506020813d602011610cae575b81610c9e60209383611b7d565b810103126100d557519284610966565b3d9150610c91565b610ccd9150823d8411610807576107f98183611b7d565b86610922565b60646040517f08c379a000000000000000000000000000000000000000000000000000000000815260206004820152600e60248201527f706f6f6c50726963653a206964780000000000000000000000000000000000006044820152fd5b60646040517f08c379a000000000000000000000000000000000000000000000000000000000815260206004820152601160248201527f706f6f6c50726963653a20756e696e69740000000000000000000000000000006044820152fd5b90506020813d602011610db9575b81610daa60209383611b7d565b810103126100d55751836108b6565b3d9150610d9d565b346100d55760607ffffffffffffffffffffffffffffffffffffffffffffffffffffffffffffffffc3601126100d55773ffffffffffffffffffffffffffffffffffffffff6020610e0f611aaf565b610e17611ad2565b506004604051809481937f31596a6a000000000000000000000000000000000000000000000000000000008352165afa90811561039e575f91610e6c575b6020610e638360443561208c565b50604051908152f35b90506020813d602011610e98575b81610e8760209383611b7d565b810103126100d55751610e63610e55565b3d9150610e7a565b346100d55773ffffffffffffffffffffffffffffffffffffffff610ec336611af5565b6040517f476e44b60000000000000000000000000000000000000000000000000000000081529390921691905f84600481865afa93841561039e575f94611110575b506040517f9af1d35a0000000000000000000000000000000000000000000000000000000081525f81600481875afa90811561039e57610f4d9184915f916110f65750611d5c565b5193604051937f017cf6610000000000000000000000000000000000000000000000000000000085525f85600481845afa94851561039e575f956110d2575b50906020600492604051938480927f18160ddd0000000000000000000000000000000000000000000000000000000082525afa91821561039e575f9261109d575b509060409461100992865197889687967ff16b7c2600000000000000000000000000000000000000000000000000000000885260048801611dee565b038173ffffffffffffffffffffffffffffffffffffffff7f0000000000000000000000000000000000000000000000000000000000000000165afa801561039e575f905f90611063575b6040809350519182526020820152f35b50506040813d604011611095575b8161107e60409383611b7d565b810103126100d55780602060409251910151611053565b3d9150611071565b91506020823d6020116110ca575b816110b860209383611b7d565b810103126100d5579051906040610fcd565b3d91506110ab565b6004929195506110ed6020913d805f833e6104358183611b7d565b95919250610f8c565b61110a91503d805f833e6104358183611b7d565b876109b4565b6111259194503d805f833e61051d8183611b7d565b9284610f05565b346100d55760407ffffffffffffffffffffffffffffffffffffffffffffffffffffffffffffffffc3601126100d55773ffffffffffffffffffffffffffffffffffffffff611178611aaf565b166040517f476e44b60000000000000000000000000000000000000000000000000000000081525f81600481855afa801561039e576020915f91611384575b50015151906111c582611eba565b915f5b818110611280576040517f18160ddd0000000000000000000000000000000000000000000000000000000081528490602081600481885afa90811561039e575f9161124c575b5061064b915f9160405193849283927f228fa85000000000000000000000000000000000000000000000000000000000845260243560048501611f35565b90506020813d602011611278575b8161126760209383611b7d565b810103126100d5575161064b61120e565b3d915061125a565b604051907f044215c6000000000000000000000000000000000000000000000000000000008252806004830152602082602481875afa91821561039e5773ffffffffffffffffffffffffffffffffffffffff926020915f91611367575b506024604051809581937f70a08231000000000000000000000000000000000000000000000000000000008352896004840152165afa801561039e575f90611335575b6001925061132e8287611d5c565b52016111c8565b506020823d821161135f575b8161134e60209383611b7d565b810103126100d55760019151611320565b3d9150611341565b61137e9150823d8111610807576107f98183611b7d565b876112dd565b61139891503d805f833e61051d8183611b7d565b836111b7565b346100d55773ffffffffffffffffffffffffffffffffffffffff6113c136611af5565b92909116906040517f476e44b60000000000000000000000000000000000000000000000000000000081525f81600481865afa801561039e576020915f91611776575b500192835151808310908161176c575b501561170e57604051937f6bba3f2f000000000000000000000000000000000000000000000000000000008552602085600481875afa94851561039e575f956116d2575b5051915f935f945b84518610156114d3576114738686611d5c565b51600f0b90600f0b017fffffffffffffffffffffffffffffffff80000000000000000000000000000000811215806114b9575b156100d557600190600f0b950194611460565b506f7fffffffffffffffffffffffffffffff8113156114a6565b86909493945f81600f0b1315611674576114ec916120ae565b600f0b80156100d55770010000000000000000000000000000000005927fffffffffffffffffffffffffffffffff800000000000000000000000000000008412158061165a575b156100d557611550836115468784611d5c565b51600f0b92611d5c565b51600f0b9003927fffffffffffffffffffffffffffffffff8000000000000000000000000000000084121580611640575b156100d5576115a261159d6004955f93600f0b90600f0b6120ae565b612142565b600f0b91604051948580927f017cf6610000000000000000000000000000000000000000000000000000000082525afa90811561039e57602094611610945f93611618575b50611601906115fa849561160895611d5c565b5194611d5c565b5190611e43565b60401b611e83565b604051908152f35b6116089350906115fa611637611601933d805f833e6104358183611b7d565b945050906115e7565b506f7fffffffffffffffffffffffffffffff841315611581565b506f7fffffffffffffffffffffffffffffff841315611533565b60646040517f08c379a000000000000000000000000000000000000000000000000000000000815260206004820152600d60248201527f756e696e697469616c697a6564000000000000000000000000000000000000006044820152fd5b9094506020813d602011611706575b816116ee60209383611b7d565b810103126100d5576116ff90611beb565b9385611458565b3d91506116e1565b60646040517f08c379a000000000000000000000000000000000000000000000000000000000815260206004820152600a60248201527f70726963653a20696478000000000000000000000000000000000000000000006044820152fd5b9050811085611414565b61178a91503d805f833e61051d8183611b7d565b85611404565b346100d55773ffffffffffffffffffffffffffffffffffffffff6117b336611af5565b6040517f476e44b60000000000000000000000000000000000000000000000000000000081529390921691905f84600481865afa93841561039e575f946119c0575b506040517f9af1d35a0000000000000000000000000000000000000000000000000000000081525f81600481875afa90811561039e5761183d9183915f916110f65750611d5c565b5193604051937f017cf6610000000000000000000000000000000000000000000000000000000085525f85600481845afa94851561039e575f9561199c575b50906020600492604051938480927f18160ddd0000000000000000000000000000000000000000000000000000000082525afa91821561039e575f92611967575b50906060946118fa9260405197889687967fe9f317f000000000000000000000000000000000000000000000000000000000885260048801611dee565b038173ffffffffffffffffffffffffffffffffffffffff7f0000000000000000000000000000000000000000000000000000000000000000165afa801561039e575f905f925f91610367575061036390604051938493846040919493926060820195825260208201520152565b91506020823d602011611994575b8161198260209383611b7d565b810103126100d55790519060606118bd565b3d9150611975565b6004929195506119b76020913d805f833e6104358183611b7d565b9591925061187c565b6119d59194503d805f833e61051d8183611b7d565b92846117f5565b346100d55760407ffffffffffffffffffffffffffffffffffffffffffffffffffffffffffffffffc3601126100d557602081602481611a19611aaf565b73ffffffffffffffffffffffffffffffffffffffff80611a37611ad2565b16917f70a082310000000000000000000000000000000000000000000000000000000084521660048301525afa801561039e575f90611a7c575b602090604051908152f35b506020813d602011611aa7575b81611a9660209383611b7d565b810103126100d55760209051611a71565b3d9150611a89565b6004359073ffffffffffffffffffffffffffffffffffffffff821682036100d557565b6024359073ffffffffffffffffffffffffffffffffffffffff821682036100d557565b7ffffffffffffffffffffffffffffffffffffffffffffffffffffffffffffffffc60609101126100d55760043573ffffffffffffffffffffffffffffffffffffffff811681036100d557906024359060443590565b90602080835192838152019201905f5b818110611b675750505090565b8251845260209384019390920191600101611b5a565b90601f7fffffffffffffffffffffffffffffffffffffffffffffffffffffffffffffffe0910116810190811067ffffffffffffffff821117611bbe57604052565b7f4e487b71000000000000000000000000000000000000000000000000000000005f52604160045260245ffd5b519081600f0b82036100d557565b67ffffffffffffffff8111611bbe5760051b60200190565b6020818303126100d55780519067ffffffffffffffff82116100d55701906040828203126100d557604051916040830183811067ffffffffffffffff821117611bbe57604052611c6081611beb565b835260208101519067ffffffffffffffff82116100d557019080601f830112156100d5578151611c8f81611bf9565b92611c9d6040519485611b7d565b81845260208085019260051b8201019283116100d557602001905b828210611cca57505050602082015290565b60208091611cd784611beb565b815201910190611cb8565b6020818303126100d55780519067ffffffffffffffff82116100d557019080601f830112156100d5578151611d1681611bf9565b92611d246040519485611b7d565b81845260208085019260051b8201019283116100d557602001905b828210611d4c5750505090565b8151815260209182019101611d3f565b8051821015611d705760209160051b010190565b7f4e487b71000000000000000000000000000000000000000000000000000000005f52603260045260245ffd5b908160609103126100d5578051916040602083015192015190565b90602080835192838152019201905f5b818110611dd55750505090565b8251600f0b845260209384019390920191600101611dc8565b9695949160a094611e3e94602092611e30948b52838b015260408a015260c060608a01528051600f0b60c08a01520151604060e0890152610100880190611db8565b908682036080880152611b4a565b930152565b81810292918115918404141715611e5657565b7f4e487b71000000000000000000000000000000000000000000000000000000005f52601160045260245ffd5b8115611e8d570490565b7f4e487b71000000000000000000000000000000000000000000000000000000005f52601260045260245ffd5b90611ec482611bf9565b611ed16040519182611b7d565b8281527fffffffffffffffffffffffffffffffffffffffffffffffffffffffffffffffe0611eff8294611bf9565b0190602036910137565b908160209103126100d5575173ffffffffffffffffffffffffffffffffffffffff811681036100d55790565b611f519392606092825260208201528160408201520190611b4a565b90565b91908203918211611e5657565b73ffffffffffffffffffffffffffffffffffffffff166040517f1f3a0e41000000000000000000000000000000000000000000000000000000008152602081600481855afa90811561039e575f91612051575b5061204c575f600491604051928380927f476e44b60000000000000000000000000000000000000000000000000000000082525afa90811561039e575f91612032575b505f5b6020820151805182101561202b57612013825f92611d5c565b51600f0b1361202457600101611ffa565b5050600190565b5050505f90565b61204691503d805f833e61051d8183611b7d565b5f611ff7565b505f90565b90506020813d602011612084575b8161206c60209383611b7d565b810103126100d5575180151581036100d5575f611fb4565b3d915061205f565b919080156120a8576120a1611f519184612109565b8093611f54565b505f9190565b90600f0b90600f0b0260401d7fffffffffffffffffffffffffffffffff80000000000000000000000000000000811215806120ef575b156100d557600f0b90565b506f7fffffffffffffffffffffffffffffff8113156120e4565b90801561213c5761211991611e43565b620f4240810190818111611e5657620f423f01908111611e5657620f4240900490565b50505f90565b600f0b684000000000000000008112156100d5577fffffffffffffffffffffffffffffffffffffffffffffffc00000000000000000811261204c57611f5190700171547652b82fe1777d0ffda0d23a7d120260801d600f0b80684000000000000000008112156100d5577fffffffffffffffffffffffffffffffffffffffffffffffc00000000000000000811261213c576f80000000000000000000000000000000915f6780000000000000008216600f0b13612d93575b5f6740000000000000008216600f0b13612d76575b5f6720000000000000008216600f0b13612d59575b5f6710000000000000008216600f0b13612d3c575b5f6708000000000000008216600f0b13612d1f575b5f6704000000000000008216600f0b13612d02575b5f6702000000000000008216600f0b13612ce5575b5f6701000000000000008216600f0b13612cc8575b5f66800000000000008216600f0b13612cab575b5f66400000000000008216600f0b13612c8e575b5f66200000000000008216600f0b13612c71575b5f66100000000000008216600f0b13612c54575b5f66080000000000008216600f0b13612c37575b5f66040000000000008216600f0b13612c1a575b5f66020000000000008216600f0b13612bfd575b5f66010000000000008216600f0b13612be0575b5f658000000000008216600f0b13612bc3575b5f654000000000008216600f0b13612ba6575b5f652000000000008216600f0b13612b89575b5f651000000000008216600f0b13612b6c575b5f650800000000008216600f0b13612b4f575b5f650400000000008216600f0b13612b32575b5f650200000000008216600f0b13612b15575b5f650100000000008216600f0b13612af8575b5f6480000000008216600f0b13612adb575b5f6440000000008216600f0b13612abe575b5f6420000000008216600f0b13612aa1575b5f6410000000008216600f0b13612a84575b5f6408000000008216600f0b13612a67575b5f6404000000008216600f0b13612a4a575b5f6402000000008216600f0b13612a2d575b5f6401000000008216600f0b13612a10575b5f63800000008216600f0b136129f3575b5f63400000008216600f0b136129d6575b5f63200000008216600f0b136129b9575b5f63100000008216600f0b1361299c575b5f63080000008216600f0b1361297f575b5f63040000008216600f0b13612962575b5f63020000008216600f0b13612945575b5f63010000008216600f0b13612928575b5f628000008216600f0b1361290b575b5f624000008216600f0b136128ee575b5f622000008216600f0b136128d1575b5f621000008216600f0b136128b4575b5f620800008216600f0b13612897575b5f620400008216600f0b1361287a575b5f620200008216600f0b1361285d575b5f620100008216600f0b13612840575b5f6180008216600f0b13612823575b5f6140008216600f0b13612806575b5f6120008216600f0b136127e9575b5f6110008216600f0b136127cc575b5f6108008216600f0b136127af575b5f6104008216600f0b13612792575b5f6102008216600f0b13612775575b5f6101008216600f0b13612758575b5f60808216600f0b1361273b575b5f60408216600f0b1361271e575b5f60208216600f0b13612701575b5f60108216600f0b136126e4575b5f60088216600f0b136126c7575b5f60048216600f0b136126aa575b5f60028216600f0b1361268c575b60015f9116600f0b1361266f575b60401d600f0b603f03600f0b1c6f7fffffffffffffffffffffffffffffff81116100d557600f0b90565b9070010000000000000000b17217f7d1cf79ab0260801c90612645565b7001000000000000000162e42fefa39ef35890920260801c91612637565b9170010000000000000002c5c85fdf473de6b20260801c91612629565b91700100000000000000058b90bfbe8e7bcd6d0260801c9161261b565b917001000000000000000b17217f7d1cf79afa0260801c9161260d565b91700100000000000000162e42fefa39ef366f0260801c916125ff565b917001000000000000002c5c85fdf473de6eca0260801c916125f1565b9170010000000000000058b90bfbe8e7bce5440260801c916125e3565b91700100000000000000b17217f7d1cf79e9490260801c916125d5565b9170010000000000000162e42fefa39ef44d910260801c916125c6565b91700100000000000002c5c85fdf473dea871f0260801c916125b7565b917001000000000000058b90bfbe8e7bdcbe2e0260801c916125a8565b9170010000000000000b17217f7d1cf7d83c1a0260801c91612599565b917001000000000000162e42fefa39f02b772c0260801c9161258a565b9170010000000000002c5c85fdf473e242ea380260801c9161257b565b91700100000000000058b90bfbe8e7cc35c3f00260801c9161256c565b917001000000000000b17217f7d1cfb72b45e10260801c9161255d565b91700100000000000162e42fefa39fe95583c20260801c9161254d565b917001000000000002c5c85fdf4741bea6e77e0260801c9161253d565b9170010000000000058b90bfbe8e8b2d3d4ede0260801c9161252d565b91700100000000000b17217f7d1d351a389d400260801c9161251d565b9170010000000000162e42fefa3ae53369388c0260801c9161250d565b91700100000000002c5c85fdf477b662b269450260801c916124fd565b917001000000000058b90bfbe8f71cb4e4b33d0260801c916124ed565b9170010000000000b17217f7d20cf927c8e94c0260801c916124dd565b917001000000000162e42fefa494f1478fde050260801c916124cc565b9170010000000002c5c85fdf4b15de6f17eb0d0260801c916124bb565b91700100000000058b90bfbe9ddbac5e109cce0260801c916124aa565b917001000000000b17217f7d5a7716bba4a9ae0260801c91612499565b91700100000000162e42fefb2fed257559bdaa0260801c91612488565b917001000000002c5c85fdf84bd62ae30a74cc0260801c91612477565b9170010000000058b90bfbf8479bd5a81b51ad0260801c91612466565b91700100000000b17217f80f4ef5aadda455540260801c91612455565b9170010000000162e42ff0999ce3541b9fffcf0260801c91612443565b91700100000002c5c85fe31f35a6a30da1be500260801c91612431565b917001000000058b90bfcdee5acd3c1cedc8230260801c9161241f565b9170010000000b17217fba9c739aa5819f44f90260801c9161240d565b917001000000162e42fff037df38aa2b219f060260801c916123fb565b9170010000002c5c8601cc6b9e94213c72737a0260801c916123e9565b91700100000058b90c0b48c6be5df846c5b2ef0260801c916123d7565b917001000000b1721835514b86e6d96efd1bfe0260801c916123c5565b91700100000162e430e5a18f6119e3c02282a50260801c916123b2565b917001000002c5c863b73f016468f6bac5ca2b0260801c9161239f565b9170010000058b90cf1e6d97f9ca14dbcc16280260801c9161238c565b91700100000b1721bcfc99d9f890ea069117630260801c91612379565b9170010000162e43f4f831060e02d839a9d16d0260801c91612366565b91700100002c5c89d5ec6ca4d7c8acc017b7c90260801c91612353565b917001000058b91b5bc9ae2eed81e9b7d4cfab0260801c91612340565b9170010000b17255775c040618bf4a4ade83fc0260801c9161232d565b917001000162e525ee054754457d59952920260260801c91612319565b9170010002c5cc37da9491d0985c348c68e7b30260801c91612305565b91700100058ba01fb9f96d6cacd4b180917c3d0260801c916122f1565b917001000b175effdc76ba38e31671ca9397250260801c916122dd565b91700100162f3904051fa128bca9c55c31e5df0260801c916122c9565b917001002c605e2e8cec506d21bfc89a23a00f0260801c916122b5565b9170010058c86da1c09ea1ff19d294cf2f679b0260801c916122a1565b91700100b1afa5abcbed6129ab13ec11dc95430260801c9161228d565b9170010163da9fb33356d84a66ae336dcdfa3f0260801c91612278565b91700102c9a3e778060ee6f7caca4f7a29bde80260801c91612263565b917001059b0d31585743ae7c548eb68ca417fd0260801c9161224e565b9170010b5586cf9890f6298b92b71842a983630260801c91612239565b917001172b83c7d517adcdf7c8c50eb14a791f0260801c91612224565b917001306fe0a31b7152de8d5a46305c85edec0260801c9161220f565b6fb504f333f9de6484597d89b3754abe9f92506121fa56fea2646970667358221220df2bff0632f051d2a6842933c6bd74b9439fdffde4d12204eedada0c02543cf764736f6c63430008210033","linkReferences":{}},"methodIdentifiers":{"burnAmounts(address,uint256)":"44e48a9c","burnSwapAmounts(address,uint256,uint256)":"97c64812","flashFee(address,address,uint256)":"ad844893","maxFlashLoan(address,address)":"0ab75fef","mintAmounts(address,uint256)":"bfb5cdc5","poolPrice(address,uint256)":"b9c0d204","price(address,uint256,uint256)":"3a06daa2","swapMintAmounts(address,uint256,uint256)":"0db4cdda","swapToLimitAmounts(address,uint256,uint256,int128)":"c63a9743","working(address)":"c757221b"},"id":47}