{"abi":[{"type":"constructor","inputs":[],"stateMutability":"nonpayable"},{"type":"function","name":"_quoteExternal","inputs":[{"name":"inputTokenIndex","type":"uint256","internalType":"uint256"},{"name":"lpAmountOut","type":"uint256","internalType":"uint256"},{"name":"feePpm","type":"uint256","internalType":"uint256"},{"name":"lmsr","type":"tuple","internalType":"struct LMSRStabilized.State","components":[{"name":"kappa","type":"int128","internalType":"int128"},{"name":"qInternal","type":"int128[]","internalType":"int128[]"}]},{"name":"bases_","type":"uint256[]","internalType":"uint256[]"},{"name":"supply","type":"uint256","internalType":"uint256"}],"outputs":[{"name":"amountInUsed","type":"uint256","internalType":"uint256"},{"name":"inFee","type":"uint256","internalType":"uint256"}],"stateMutability":"pure"},{"type":"function","name":"burnAmounts","inputs":[{"name":"pool","type":"address","internalType":"contract IPartyPool"},{"name":"lpTokenAmount","type":"uint256","internalType":"uint256"}],"outputs":[{"name":"withdrawAmounts","type":"uint256[]","internalType":"uint256[]"}],"stateMutability":"view"},{"type":"function","name":"burnSwapAmounts","inputs":[{"name":"pool","type":"address","internalType":"contract IPartyPool"},{"name":"lpAmount","type":"uint256","internalType":"uint256"},{"name":"outputTokenIndex","type":"uint256","internalType":"uint256"}],"outputs":[{"name":"amountOut","type":"uint256","internalType":"uint256"},{"name":"outFee","type":"uint256","internalType":"uint256"}],"stateMutability":"view"},{"type":"function","name":"flashFee","inputs":[{"name":"pool","type":"address","internalType":"contract IPartyPool"},{"name":"","type":"address","internalType":"address"},{"name":"amount","type":"uint256","internalType":"uint256"}],"outputs":[{"name":"fee","type":"uint256","internalType":"uint256"}],"stateMutability":"view"},{"type":"function","name":"maxFlashLoan","inputs":[{"name":"pool","type":"address","internalType":"contract IPartyPool"},{"name":"token","type":"address","internalType":"address"}],"outputs":[{"name":"","type":"uint256","internalType":"uint256"}],"stateMutability":"view"},{"type":"function","name":"maxLpForBudget","inputs":[{"name":"pool","type":"address","internalType":"contract IPartyPool"},{"name":"inputTokenIndex","type":"uint256","internalType":"uint256"},{"name":"maxAmountIn","type":"uint256","internalType":"uint256"}],"outputs":[{"name":"lpAmountOut","type":"uint256","internalType":"uint256"},{"name":"amountInUsed","type":"uint256","internalType":"uint256"},{"name":"inFee","type":"uint256","internalType":"uint256"}],"stateMutability":"view"},{"type":"function","name":"mintAmounts","inputs":[{"name":"pool","type":"address","internalType":"contract IPartyPool"},{"name":"lpTokenAmount","type":"uint256","internalType":"uint256"}],"outputs":[{"name":"depositAmounts","type":"uint256[]","internalType":"uint256[]"}],"stateMutability":"view"},{"type":"function","name":"poolPrice","inputs":[{"name":"pool","type":"address","internalType":"contract IPartyPool"},{"name":"quoteTokenIndex","type":"uint256","internalType":"uint256"}],"outputs":[{"name":"","type":"int128","internalType":"int128"}],"stateMutability":"view"},{"type":"function","name":"price","inputs":[{"name":"pool","type":"address","internalType":"contract IPartyPool"},{"name":"inputTokenIndex","type":"uint256","internalType":"uint256"},{"name":"outputTokenIndex","type":"uint256","internalType":"uint256"}],"outputs":[{"name":"","type":"uint256","internalType":"uint256"}],"stateMutability":"view"},{"type":"function","name":"swapAmounts","inputs":[{"name":"pool","type":"address","internalType":"contract IPartyPool"},{"name":"inputTokenIndex","type":"uint256","internalType":"uint256"},{"name":"outputTokenIndex","type":"uint256","internalType":"uint256"},{"name":"maxAmountIn","type":"uint256","internalType":"uint256"}],"outputs":[{"name":"amountIn","type":"uint256","internalType":"uint256"},{"name":"amountOut","type":"uint256","internalType":"uint256"},{"name":"inFee","type":"uint256","internalType":"uint256"}],"stateMutability":"view"},{"type":"function","name":"swapAmountsForExactOutput","inputs":[{"name":"pool","type":"address","internalType":"contract IPartyPool"},{"name":"inputTokenIndex","type":"uint256","internalType":"uint256"},{"name":"outputTokenIndex","type":"uint256","internalType":"uint256"},{"name":"amountOut","type":"uint256","internalType":"uint256"}],"outputs":[{"name":"amountIn","type":"uint256","internalType":"uint256"},{"name":"inFee","type":"uint256","internalType":"uint256"}],"stateMutability":"view"},{"type":"function","name":"swapAmountsForExactPrice","inputs":[{"name":"pool","type":"address","internalType":"contract IPartyPool"},{"name":"inputTokenIndex","type":"uint256","internalType":"uint256"},{"name":"outputTokenIndex","type":"uint256","internalType":"uint256"},{"name":"minPrice","type":"uint256","internalType":"uint256"}],"outputs":[{"name":"amountIn","type":"uint256","internalType":"uint256"},{"name":"amountOut","type":"uint256","internalType":"uint256"},{"name":"inFee","type":"uint256","internalType":"uint256"}],"stateMutability":"view"},{"type":"function","name":"swapMintAmounts","inputs":[{"name":"pool","type":"address","internalType":"contract IPartyPool"},{"name":"inputTokenIndex","type":"uint256","internalType":"uint256"},{"name":"lpAmountOut","type":"uint256","internalType":"uint256"}],"outputs":[{"name":"amountInUsed","type":"uint256","internalType":"uint256"},{"name":"inFee","type":"uint256","internalType":"uint256"}],"stateMutability":"view"},{"type":"function","name":"working","inputs":[{"name":"pool","type":"address","internalType":"contract IPartyPool"}],"outputs":[{"name":"","type":"bool","internalType":"bool"}],"stateMutability":"view"}],"bytecode":{"object":"0x60808060405234601557614200908161001a8239f35b5f80fdfe6080806040526004361015610012575f80fd5b5f3560e01c9081630ab75fef14611d1a575080630db4cdda14611b3c5780631fb971911461165057806320c14bab146112c45780633a06daa2146110a957806344e48a9c14610f525780639626a5a614610bb957806397c64812146109b9578063ad844893146108da578063b9c0d20414610529578063bfb5cdc514610371578063c757221b14610326578063d2d0331d146100f55763eea0a29f146100b6575f80fd5b346100f1576100ed6100d06100ca36611e33565b91612598565b604080519384526020840192909252908201529081906060820190565b0390f35b5f80fd5b346100f15760c07ffffffffffffffffffffffffffffffffffffffffffffffffffffffffffffffffc3601126100f15760643567ffffffffffffffff81116100f15760407ffffffffffffffffffffffffffffffffffffffffffffffffffffffffffffffffc82360301126100f1576040519061016f82611f14565b61017b81600401611f71565b825260248101359067ffffffffffffffff82116100f15701366023820112156100f1576004810135906101ad82611f7f565b916101bb6040519384611f30565b808352602060048185019260051b84010101913683116100f157602401905b82821061030e57505050602082015260843567ffffffffffffffff81116100f157366023820112156100f15780600401359061021582611f7f565b916102236040519384611f30565b8083526024602084019160051b830101913683116100f157602401905b8282106102fe57604080517f046194d400000000000000000000000000000000000000000000000000000000815290818061028b60a435898b60443560243560048035908801612136565b038173__$5c3fa89b9ee358f4499fa62b5a914b9b69$__5af49081156102f3576040915f915f916102c4575b5082519182526020820152f35b90506102e69150823d84116102ec575b6102de8183611f30565b810190612120565b836102b7565b503d6102d4565b6040513d5f823e3d90fd5b8135815260209182019101610240565b6020809161031b84611f71565b8152019101906101da565b346100f15760207ffffffffffffffffffffffffffffffffffffffffffffffffffffffffffffffffc3601126100f1576020610367610362611ded565b612414565b6040519015158152f35b346100f15760407ffffffffffffffffffffffffffffffffffffffffffffffffffffffffffffffffc3601126100f15773ffffffffffffffffffffffffffffffffffffffff6103bd611ded565b16604051907f18160ddd000000000000000000000000000000000000000000000000000000008252602082600481845afa9182156102f3575f926104f5575b505f600491604051928380927f7bb98a680000000000000000000000000000000000000000000000000000000082525afa80156102f357610478925f9283926104d9575b5060405193849283927fcdc2468b000000000000000000000000000000000000000000000000000000008452602435600485016123d0565b038173__$5c3fa89b9ee358f4499fa62b5a914b9b69$__5af480156102f3576100ed915f916104b7575b50604051918291602083526020830190611ee1565b6104d391503d805f833e6104cb8183611f30565b810190612065565b826104a2565b6104ee9192503d8085833e6104cb8183611f30565b9084610440565b9091506020813d602011610521575b8161051160209383611f30565b810103126100f15751905f6103fc565b3d9150610504565b346100f15760407ffffffffffffffffffffffffffffffffffffffffffffffffffffffffffffffffc3601126100f157610560611ded565b73ffffffffffffffffffffffffffffffffffffffff6024359116906040517f8e499bcf000000000000000000000000000000000000000000000000000000008152602081600481865afa9081156102f3575f916108a8575b50801561084a57808210156107ec576040517f044215c6000000000000000000000000000000000000000000000000000000008152826004820152602081602481875afa9081156102f3575f9161079a575b5091602073ffffffffffffffffffffffffffffffffffffffff936024604051809681937f70a08231000000000000000000000000000000000000000000000000000000008352896004840152165afa9283156102f3575f93610766575b50604051917f017504b60000000000000000000000000000000000000000000000000000000083525f83600481885afa80156102f3576004946106bb6106c7946106c2936020975f9161074c575b506120df565b51906123ef565b61221d565b92604051928380927f18160ddd0000000000000000000000000000000000000000000000000000000082525afa9081156102f3575f91610719575b602061070e8385612f72565b60405190600f0b8152f35b90506020813d602011610744575b8161073460209383611f30565b810103126100f157516020610702565b3d9150610727565b61076091503d805f833e6104cb8183611f30565b8a6106b5565b9092506020813d602011610792575b8161078260209383611f30565b810103126100f157519184610667565b3d9150610775565b90506020813d6020116107e4575b816107b560209383611f30565b810103126100f157519173ffffffffffffffffffffffffffffffffffffffff831683036100f15791602061060a565b3d91506107a8565b60646040517f08c379a000000000000000000000000000000000000000000000000000000000815260206004820152600e60248201527f706f6f6c50726963653a206964780000000000000000000000000000000000006044820152fd5b60646040517f08c379a000000000000000000000000000000000000000000000000000000000815260206004820152601160248201527f706f6f6c50726963653a20756e696e69740000000000000000000000000000006044820152fd5b90506020813d6020116108d2575b816108c360209383611f30565b810103126100f15751836105b8565b3d91506108b6565b346100f15760607ffffffffffffffffffffffffffffffffffffffffffffffffffffffffffffffffc3601126100f15773ffffffffffffffffffffffffffffffffffffffff6020610928611ded565b610930611e10565b506004604051809481937f31596a6a000000000000000000000000000000000000000000000000000000008352165afa9081156102f3575f91610985575b602061097c83604435612f54565b50604051908152f35b90506020813d6020116109b1575b816109a060209383611f30565b810103126100f1575161097c61096e565b3d9150610993565b346100f15773ffffffffffffffffffffffffffffffffffffffff6109dc36611e33565b6040517f476e44b60000000000000000000000000000000000000000000000000000000081529390921691905f84600481865afa9384156102f3575f94610b95575b506040517f9af1d35a0000000000000000000000000000000000000000000000000000000081525f81600481875afa9081156102f357610a669184915f91610b7b57506120df565b5193604051937f017cf6610000000000000000000000000000000000000000000000000000000085525f85600481845afa9485156102f3575f95610b57575b50906020600492604051938480927f18160ddd0000000000000000000000000000000000000000000000000000000082525afa9182156102f3575f92610b22575b509060409461028b92865197889687967fddb47f8800000000000000000000000000000000000000000000000000000000885260048801612136565b91506020823d602011610b4f575b81610b3d60209383611f30565b810103126100f1579051906040610ae6565b3d9150610b30565b600492919550610b726020913d805f833e6104cb8183611f30565b95919250610aa5565b610b8f91503d805f833e6104cb8183611f30565b876106b5565b610bb29194503d805f833e610baa8183611f30565b810190611fa5565b9284610a1e565b346100f15773ffffffffffffffffffffffffffffffffffffffff610bdc36611e88565b92610bec828496939414156122a1565b16906040517f476e44b60000000000000000000000000000000000000000000000000000000081525f81600481865afa9081156102f3575f91610f38575b5060208101610c458151518088109081610f2e575b506121b8565b6040517f9af1d35a0000000000000000000000000000000000000000000000000000000081525f81600481885afa9081156102f3575f91610f14575b50610c9784610c9089846120df565b51926120df565b510195610ca48787612f54565b939050604051957f017cf6610000000000000000000000000000000000000000000000000000000087525f87600481845afa9687156102f3575f97610ef8575b505f80610cfc610cf4868b6120df565b518098612f72565b92610d0b8285600f0b1361236b565b60405160208101907f3b840e0900000000000000000000000000000000000000000000000000000000825260048152610d45602482611f30565b51915afa92863d15610ee857503d9067ffffffffffffffff8211610ebb57610ddd95610dd695899360405190610da360207fffffffffffffffffffffffffffffffffffffffffffffffffffffffffffffffe0601f8401160183611f30565b81523d5f602083013e5b81610eaf575b81610e95575b5015610e8557610dcf9451600f0b90519061319c565b9390612e88565b9586612ec4565b809501938411610e2757610df7610dfe926100ed946120df565b519061416f565b92610e0a84151561236b565b604051938493846040919493926060820195825260208201520152565b60646040517f08c379a000000000000000000000000000000000000000000000000000000000815260206004820152601a60248201527f737761703a207472616e736665722065786365656473206d61780000000000006044820152fd5b610dcf9451600f0b905190612ccc565b610ea99150602080825183010191016123fc565b8d610db9565b80516020149150610db3565b7f4e487b71000000000000000000000000000000000000000000000000000000005f52604160045260245ffd5b90610ddd95610dd6956060610dad565b610f0d9197503d805f833e6104cb8183611f30565b9589610ce4565b610f2891503d805f833e6104cb8183611f30565b87610c81565b9050841088610c3f565b610f4c91503d805f833e610baa8183611f30565b85610c2a565b346100f15760407ffffffffffffffffffffffffffffffffffffffffffffffffffffffffffffffffc3601126100f15773ffffffffffffffffffffffffffffffffffffffff610f9e611ded565b16604051907f18160ddd000000000000000000000000000000000000000000000000000000008252602082600481845afa9182156102f3575f92611075575b505f600491604051928380927f7bb98a680000000000000000000000000000000000000000000000000000000082525afa80156102f357610478925f928392611059575b5060405193849283927f228fa850000000000000000000000000000000000000000000000000000000008452602435600485016123d0565b61106e9192503d8085833e6104cb8183611f30565b9084611021565b9091506020813d6020116110a1575b8161109160209383611f30565b810103126100f15751905f610fdd565b3d9150611084565b346100f15773ffffffffffffffffffffffffffffffffffffffff6110cc36611e33565b9192909216906040517f476e44b60000000000000000000000000000000000000000000000000000000081525f81600481865afa9081156102f3575f916112aa575b506020810180515180861090816112a0575b5015611242578483916111399351600f0b905190612921565b600f0b925f8413156111e4575f600493604051948580927f017cf6610000000000000000000000000000000000000000000000000000000082525afa9081156102f3576020946111b4945f936111bc575b506111a49061119d84956111ad956120df565b519061221d565b60401b926120df565b519061225d565b604051908152f35b6111ad93509061119d6111db6111a4933d805f833e6104cb8183611f30565b9450509061118a565b60646040517f08c379a000000000000000000000000000000000000000000000000000000000815260206004820152601360248201527f70726963653a206e6f6e2d706f736974697665000000000000000000000000006044820152fd5b60646040517f08c379a000000000000000000000000000000000000000000000000000000000815260206004820152600a60248201527f70726963653a20696478000000000000000000000000000000000000000000006044820152fd5b9050831086611120565b6112be91503d805f833e610baa8183611f30565b8461110e565b346100f1576112d236611e88565b90929173ffffffffffffffffffffffffffffffffffffffff848214936112f885156122a1565b611303841515612306565b1692604051907f476e44b60000000000000000000000000000000000000000000000000000000082525f82600481885afa9182156102f3575f92611634575b506020820161135c815151808610908161162a57506121b8565b604051947f017cf6610000000000000000000000000000000000000000000000000000000086525f866004818a5afa9586156102f3575f9661160a575b506113af906113a889886120df565b5190612edf565b925f84600f0b13906113c08261236b565b51600f0b9151926115ac5761141f6114386114338a611403611408611456976113eb61143e98612306565b6113f48a61294f565b906114035f83600f0b13612533565b612984565b976114298b6114168b612a25565b978895846120df565b51600f0b926120df565b51600f0b90612dee565b612e2b565b94612984565b6114336820000000000000000082600f0b1315612c67565b936801000000000000000083600f0b017fffffffffffffffffffffffffffffffff8000000000000000000000000000000081121580611592575b156100f157846114e46114ff946114de6114cb5f986114b760049c6114f898600f0b612dee565b906114c68b83600f0b13612c67565b612a75565b6114d98982600f0b1361236b565b612abb565b90612984565b926114f38685600f0b1361236b565b6120df565b5190612e88565b9361150b85151561236b565b604051938480927f9af1d35a0000000000000000000000000000000000000000000000000000000082525afa80156102f357604094611562935f92611570575b50610c90829361155a936120df565b510182612ec4565b808351920182526020820152f35b61155a925061158b610c90913d805f833e6104cb8183611f30565b925061154b565b506f7fffffffffffffffffffffffffffffff811315611490565b60646040517f08c379a000000000000000000000000000000000000000000000000000000000815260206004820152600a60248201527f73616d6520746f6b656e000000000000000000000000000000000000000000006044820152fd5b6113af919650611623903d805f833e6104cb8183611f30565b9590611399565b9050881089610c3f565b6116499192503d805f833e610baa8183611f30565b9086611342565b346100f15773ffffffffffffffffffffffffffffffffffffffff61167336611e88565b6040517f476e44b600000000000000000000000000000000000000000000000000000000815292949093165f83600481845afa9283156102f3575f93611b20575b5060208301906116cf8251518088109081610f2e57506121b8565b8415611ac257604051947f017cf6610000000000000000000000000000000000000000000000000000000086525f86600481855afa9586156102f3575f96611aa2575b5061173e9061173961172489896120df565b5161172f878a6120df565b519260401c61221d565b61225d565b6fffffffffffffffffffffffffffffffff8111611a4457600f0b9351600f0b91519361176c84888786612921565b948186600f0b13156119c05761179c6117848261294f565b966114de6114d9856117968b8a612984565b93612a75565b600f0b60411b60401d7fffffffffffffffffffffffffffffffff80000000000000000000000000000000811215806119a6575b156100f157908892949691600f0b5f915f965f995f955b604087106118bd575b5050505050505050905f600492604051938480927f9af1d35a0000000000000000000000000000000000000000000000000000000082525afa9384156102f357610df78461186961186f946114f88b6100ed9a61187d9a6118769a5f9261189b575b50610c908293611860936120df565b51019b8b6120df565b976120df565b9484612ec4565b8093612294565b91604051938493846040919493926060820195825260208201520152565b61186092506118b6610c90913d805f833e6104cb8183611f30565b9250611851565b91939599986118d96118d488889a9e949698612c2a565b6129df565b9780600f0b89600f0b131561199a57858d8a8d9e9f818f6118fb928d8c612ccc565b9e8f9150611909908c6120df565b51600f0b9061191791612dee565b91611922908b6120df565b51600f0b9061193091612c2a565b61193991612dee565b8c6119448c88612c2a565b9061194e91612dee565b6119589088612984565b61196191612a75565b61196a90612e2b565b600f0b131561198a57505050600186989a5b01949290918c9694926117e6565b979099506001919b96509561197c565b509899819b97506117ef565b506f7fffffffffffffffffffffffffffffff8113156117cf565b60846040517f08c379a000000000000000000000000000000000000000000000000000000000815260206004820152602560248201527f73776170416d6f756e74733a207072696365206174206f722062656c6f77207460448201527f61726765740000000000000000000000000000000000000000000000000000006064820152fd5b60646040517f08c379a000000000000000000000000000000000000000000000000000000000815260206004820152601560248201527f73776170416d6f756e74733a206f766572666c6f7700000000000000000000006044820152fd5b61173e919650611abb903d805f833e6104cb8183611f30565b9590611712565b60646040517f08c379a000000000000000000000000000000000000000000000000000000000815260206004820152601460248201527f73776170416d6f756e74733a206c696d69743d300000000000000000000000006044820152fd5b611b359193503d805f833e610baa8183611f30565b91856116b4565b346100f15773ffffffffffffffffffffffffffffffffffffffff611b5f36611e33565b6040517f476e44b60000000000000000000000000000000000000000000000000000000081529390921691905f84600481865afa9384156102f3575f94611cfe575b506040517f9af1d35a0000000000000000000000000000000000000000000000000000000081525f81600481875afa9081156102f357611be99183915f91610b7b57506120df565b5193604051937f017cf6610000000000000000000000000000000000000000000000000000000085525f85600481845afa9485156102f3575f95611cda575b50906020600492604051938480927f18160ddd0000000000000000000000000000000000000000000000000000000082525afa9182156102f3575f92611ca5575b509060409461028b92865197889687967f046194d400000000000000000000000000000000000000000000000000000000885260048801612136565b91506020823d602011611cd2575b81611cc060209383611f30565b810103126100f1579051906040611c69565b3d9150611cb3565b600492919550611cf56020913d805f833e6104cb8183611f30565b95919250611c28565b611d139194503d805f833e610baa8183611f30565b9284611ba1565b346100f15760407ffffffffffffffffffffffffffffffffffffffffffffffffffffffffffffffffc3601126100f157602081602481611d57611ded565b73ffffffffffffffffffffffffffffffffffffffff80611d75611e10565b16917f70a082310000000000000000000000000000000000000000000000000000000084521660048301525afa80156102f3575f90611dba575b602090604051908152f35b506020813d602011611de5575b81611dd460209383611f30565b810103126100f15760209051611daf565b3d9150611dc7565b6004359073ffffffffffffffffffffffffffffffffffffffff821682036100f157565b6024359073ffffffffffffffffffffffffffffffffffffffff821682036100f157565b7ffffffffffffffffffffffffffffffffffffffffffffffffffffffffffffffffc60609101126100f15760043573ffffffffffffffffffffffffffffffffffffffff811681036100f157906024359060443590565b7ffffffffffffffffffffffffffffffffffffffffffffffffffffffffffffffffc60809101126100f15760043573ffffffffffffffffffffffffffffffffffffffff811681036100f15790602435906044359060643590565b90602080835192838152019201905f5b818110611efe5750505090565b8251845260209384019390920191600101611ef1565b6040810190811067ffffffffffffffff821117610ebb57604052565b90601f7fffffffffffffffffffffffffffffffffffffffffffffffffffffffffffffffe0910116810190811067ffffffffffffffff821117610ebb57604052565b359081600f0b82036100f157565b67ffffffffffffffff8111610ebb5760051b60200190565b519081600f0b82036100f157565b6020818303126100f15780519067ffffffffffffffff82116100f15701906040828203126100f15760405191611fda83611f14565b611fe381611f97565b835260208101519067ffffffffffffffff82116100f157019080601f830112156100f157815161201281611f7f565b926120206040519485611f30565b81845260208085019260051b8201019283116100f157602001905b82821061204d57505050602082015290565b6020809161205a84611f97565b81520191019061203b565b6020818303126100f15780519067ffffffffffffffff82116100f157019080601f830112156100f157815161209981611f7f565b926120a76040519485611f30565b81845260208085019260051b8201019283116100f157602001905b8282106120cf5750505090565b81518152602091820191016120c2565b80518210156120f35760209160051b010190565b7f4e487b71000000000000000000000000000000000000000000000000000000005f52603260045260245ffd5b91908260409103126100f1576020825192015190565b96959492919087526020870152604086015260c0606086015260206101008601928051600f0b60c0880152015191604060e08701528251809152602061012087019301905f5b81811061219f575050508161219a918660a094036080880152611ee1565b930152565b8251600f0b85526020948501949092019160010161217c565b156121bf57565b60646040517f08c379a000000000000000000000000000000000000000000000000000000000815260206004820152601060248201527f73776170416d6f756e74733a20696478000000000000000000000000000000006044820152fd5b8181029291811591840414171561223057565b7f4e487b71000000000000000000000000000000000000000000000000000000005f52601160045260245ffd5b8115612267570490565b7f4e487b71000000000000000000000000000000000000000000000000000000005f52601260045260245ffd5b9190820180921161223057565b156122a857565b60646040517f08c379a000000000000000000000000000000000000000000000000000000000815260206004820152600660248201527f69203d3d206a00000000000000000000000000000000000000000000000000006044820152fd5b1561230d57565b60646040517f08c379a000000000000000000000000000000000000000000000000000000000815260206004820152600e60248201527f696e76616c696420616d6f756e740000000000000000000000000000000000006044820152fd5b1561237257565b60646040517f08c379a000000000000000000000000000000000000000000000000000000000815260206004820152600960248201527f746f6f20736d616c6c00000000000000000000000000000000000000000000006044820152fd5b6123ec9392606092825260208201528160408201520190611ee1565b90565b9190820391821161223057565b908160209103126100f1575180151581036100f15790565b73ffffffffffffffffffffffffffffffffffffffff166040517f1f3a0e41000000000000000000000000000000000000000000000000000000008152602081600481855afa9081156102f3575f91612504575b506124ff575f600491604051928380927f476e44b60000000000000000000000000000000000000000000000000000000082525afa9081156102f3575f916124e5575b505f5b602082015180518210156124de576124c6825f926120df565b51600f0b136124d7576001016124ad565b5050600190565b5050505f90565b6124f991503d805f833e610baa8183611f30565b5f6124aa565b505f90565b612526915060203d60201161252c575b61251e8183611f30565b8101906123fc565b5f612467565b503d612514565b1561253a57565b60646040517f08c379a000000000000000000000000000000000000000000000000000000000815260206004820152600d60248201527f756e696e697469616c697a6564000000000000000000000000000000000000006044820152fd5b90915f9273ffffffffffffffffffffffffffffffffffffffff5f936125be841515612306565b1691604051917f18160ddd000000000000000000000000000000000000000000000000000000008352602083600481875afa9283156102f3575f936128ed575b5082159161260c8315612533565b6040517f9af1d35a0000000000000000000000000000000000000000000000000000000081525f81600481895afa9081156102f3576126539184915f916128d357506120df565b5194604051907f476e44b60000000000000000000000000000000000000000000000000000000082525f82600481845afa9081156102f3576004925f926128b5575b505f90604051938480927f017cf6610000000000000000000000000000000000000000000000000000000082525afa9182156102f3575f92612899575b505f96620f42408704958615612890575b8760648102046064141715612230575f5b61010081106127e1575b5087156127cf579492959391905f955b60408710612722575b505050505050505092565b91939598909294969960016127378a896123ef565b11156127c657908a949392916127596127508b8a6123ef565b60011c8b612294565b916127688a878787878d61340c565b9e8f91809e9392835f146127be5761277f91612294565b826127b3575b5050156127a357505050600190989a995b019593969492919061270e565b9a509a97509a5060019096612796565b11159050885f612785565b50505f61277f565b99819950612717565b505050505050505050505f905f905f90565b959899849a6127f4898686868f8c61340c565b9d909b91908c8f83156128885761280a91612294565b8261287d575b50501561287257505050889799986064880281101561286c578060011b818104600214821517156122305790811081811561285f575b50612855575b956001016126f4565b506064870261284c565b905060648902105f612846565b956126fe565b9950999650996126fe565b11159050875f612810565b50505f61280a565b600196506126e3565b6128ae9192503d805f833e6104cb8183611f30565b905f6126d2565b5f9192506128cc903d8084833e610baa8183611f30565b9190612695565b6128e791503d805f833e6104cb8183611f30565b5f6106b5565b9092506020813d602011612919575b8161290960209383611f30565b810103126100f15751915f6125fe565b3d91506128fc565b6123ec93916114296114339461141f612948612943611403966113f48761294f565b612a25565b95846120df565b5f90815b815183101561297e5761297660019161296c85856120df565b51600f0b90612c2a565b920191612953565b91505090565b90600f0b90600f0b0260401d7fffffffffffffffffffffffffffffffff80000000000000000000000000000000811215806129c5575b156100f157600f0b90565b506f7fffffffffffffffffffffffffffffff8113156129ba565b680200000000000000009060401b60170b057fffffffffffffffffffffffffffffffff80000000000000000000000000000000811215806129c557156100f157600f0b90565b600f0b80156100f157700100000000000000000000000000000000057fffffffffffffffffffffffffffffffff80000000000000000000000000000000811215806129c557156100f157600f0b90565b90600f0b9081156100f15760401b60170b057fffffffffffffffffffffffffffffffff80000000000000000000000000000000811215806129c557156100f157600f0b90565b600f0b5f8113156100f1575f908068010000000000000000821215612bdb575b806401000000006002921215612bcf575b62010000811215612bc3575b610100811215612bb7575b6010811215612bab575b6004811215612ba0575b1215612b96575b7fffffffffffffffffffffffffffffffffffffffffffffffffffffffffffffffc0820160401b91607f031b90678000000000000000915b5f8313612b7a57506fb17217f7d1cf79abc9e3b39803f2f6af9150600f0b0260801d90565b8002908160ff1c9182607f011c918302019160011d9190612b55565b9060010190612b1e565b92810192811d612b17565b6004938401931d612b0d565b6008938401931d612b03565b6010938401931d612af8565b6020938401931d612aec565b506040915080821d612adb565b600f0b68010000000000000000017fffffffffffffffffffffffffffffffff80000000000000000000000000000000811215806129c557156100f157600f0b90565b90600f0b90600f0b017fffffffffffffffffffffffffffffffff80000000000000000000000000000000811215806129c557156100f157600f0b90565b15612c6e57565b60646040517f08c379a000000000000000000000000000000000000000000000000000000000815260206004820152600960248201527f746f6f206c6172676500000000000000000000000000000000000000000000006044820152fd5b9493909192612cdf82966113f48561294f565b93612d39611433612d33611433612cf589612a25565b611403612d02828a612984565b96612d1b6820000000000000000089600f0b1315612c67565b611429612d288a8d6120df565b51600f0b918c6120df565b92613529565b600f0b68010000000000000000037fffffffffffffffffffffffffffffffff8000000000000000000000000000000081121580612dd4575b156100f157612d8c91612d8791600f0b90612984565b612be8565b925f84600f0b1315612dbe57505050906114de612da892612abb565b905f82600f0b1315612db657565b5f9250829150565b9195509150612dcd92506120df565b51600f0b90565b506f7fffffffffffffffffffffffffffffff811315612d71565b90600f0b90600f0b037fffffffffffffffffffffffffffffffff80000000000000000000000000000000811215806129c557156100f157600f0b90565b600f0b684000000000000000008112156100f1577fffffffffffffffffffffffffffffffffffffffffffffffc0000000000000000081126124ff57700171547652b82fe1777d0ffda0d23a7d126123ec910260801d600f0b61355b565b9067ffffffffffffffff612e9c828461416f565b92168015612ebf5767ffffffffffffffff8092160216612eb95790565b60010190565b505090565b8115612ed957620f42409102620f423f010490565b50505f90565b80158015612f4c575b612ed957612f00612ef98383612f72565b928361416f565b10612f085790565b600f0b6001016f7fffffffffffffffffffffffffffffff81137fffffffffffffffffffffffffffffffff800000000000000000000000000000008212176122305790565b508115612ee8565b91908015612f6c57612f669083612ec4565b80920390565b505f9190565b81156100f15777ffffffffffffffffffffffffffffffffffffffffffffffff8111612fea5790612fa49160401b61225d565b6fffffffffffffffffffffffffffffffff81116100f1576fffffffffffffffffffffffffffffffff166f7fffffffffffffffffffffffffffffff81116100f157600f0b90565b60c09181831c809364010000000082101561318f575b6002826201000061308d941015613183575b610100811015613177575b601081101561316b575b6004811015613160575b1015613158575b8360017fffffffffffffffffffffffffffffffffffffffffffffffffffffffffffffffff85017fffffffffffffffffffffffffffffffffffffffffffffffffffffffffffffff4184011c019160ff031b61225d565b926fffffffffffffffffffffffffffffffff84116100f1578160801c8402906fffffffffffffffffffffffffffffffff8316850290809460401b9082821061312e575b5003928160801b91828510613105575b60801c036130fa576130f2920361225d565b905b01612fa4565b5050506001906130f4565b907fffffffffffffffffffffffffffffffffffffffffffffffffffffffffffffffff01906130e0565b7fffffffffffffffffffffffffffffffffffffffffffffffffffffffffffffffff0194505f6130d0565b600101613038565b91810191811c613031565b6004928301921c613027565b6008928301921c61301d565b6010928301921c613012565b505060e082811c90613000565b949391929092835180821080613403575b156133a557600203613398576131d96131c58561294f565b6131d35f82600f0b13612533565b87612984565b6131e281612a25565b90613202826114036131f4878a6120df565b51600f0b611429878b6120df565b915f600f84900b1261338a57825b67028f5c28f5c28f5c90600f0b1361337a5761322c9086612984565b80600f0b925f8413156133695767800000000000000084136133695761327b9061327561326f671999999999999999946114de6132698280612984565b94612be8565b916129df565b90612dee565b906132868280612984565b93136132e6576114de9061327561329c946129df565b9384600f0b965f8813156132d1576132b484836120df565b51600f0b8812156132d1575f859698126132d15750505050509190565b9091929394506132e2959650612ccc565b9091565b61330781613275613301680300000000000000009487612984565b956129df565b9260401b60170b057fffffffffffffffffffffffffffffffff800000000000000000000000000000008112158061334f575b156100f15761329c926114de91600f0b90612c2a565b506f7fffffffffffffffffffffffffffffff811315613339565b505050509091926132e29495612ccc565b5050509091926132e29495612ccc565b61339383613529565b613210565b9091926132e29495612ccc565b60646040517f08c379a000000000000000000000000000000000000000000000000000000000815260206004820152600d60248201527f696e76616c696420696e646578000000000000000000000000000000000000006044820152fd5b508083106131ad565b9291949390946040519586947fd2d0331d00000000000000000000000000000000000000000000000000000000865260048601526024850152604484015260c0606484015260206101048401928051600f0b60c4860152015191604060e48501528251809152602061012485019301905f5b81811061350d57505050926134c0826040957ffffffffffffffffffffffffffffffffffffffffffffffffffffffffffffffffc86809603016084860152611ee1565b9060a48301520381305afa805f925f926134e9575b506134e45750505f905f905f90565b600192565b909250613505915060403d6040116102ec576102de8183611f30565b90915f6134d5565b8251600f0b85528795506020948501949092019160010161347e565b7fffffffffffffffffffffffffffffffff8000000000000000000000000000000081600f0b146100f1575f03600f0b90565b80600f0b684000000000000000008112156100f1577fffffffffffffffffffffffffffffffffffffffffffffffc000000000000000008112612ed9576f80000000000000000000000000000000915f6780000000000000008216600f0b13614157575b5f6740000000000000008216600f0b1361413a575b5f6720000000000000008216600f0b1361411d575b5f6710000000000000008216600f0b13614100575b5f6708000000000000008216600f0b136140e3575b5f6704000000000000008216600f0b136140c6575b5f6702000000000000008216600f0b136140a9575b5f6701000000000000008216600f0b1361408c575b5f66800000000000008216600f0b1361406f575b5f66400000000000008216600f0b13614052575b5f66200000000000008216600f0b13614035575b5f66100000000000008216600f0b13614018575b5f66080000000000008216600f0b13613ffb575b5f66040000000000008216600f0b13613fde575b5f66020000000000008216600f0b13613fc1575b5f66010000000000008216600f0b13613fa4575b5f658000000000008216600f0b13613f87575b5f654000000000008216600f0b13613f6a575b5f652000000000008216600f0b13613f4d575b5f651000000000008216600f0b13613f30575b5f650800000000008216600f0b13613f13575b5f650400000000008216600f0b13613ef6575b5f650200000000008216600f0b13613ed9575b5f650100000000008216600f0b13613ebc575b5f6480000000008216600f0b13613e9f575b5f6440000000008216600f0b13613e82575b5f6420000000008216600f0b13613e65575b5f6410000000008216600f0b13613e48575b5f6408000000008216600f0b13613e2b575b5f6404000000008216600f0b13613e0e575b5f6402000000008216600f0b13613df1575b5f6401000000008216600f0b13613dd4575b5f63800000008216600f0b13613db7575b5f63400000008216600f0b13613d9a575b5f63200000008216600f0b13613d7d575b5f63100000008216600f0b13613d60575b5f63080000008216600f0b13613d43575b5f63040000008216600f0b13613d26575b5f63020000008216600f0b13613d09575b5f63010000008216600f0b13613cec575b5f628000008216600f0b13613ccf575b5f624000008216600f0b13613cb2575b5f622000008216600f0b13613c95575b5f621000008216600f0b13613c78575b5f620800008216600f0b13613c5b575b5f620400008216600f0b13613c3e575b5f620200008216600f0b13613c21575b5f620100008216600f0b13613c04575b5f6180008216600f0b13613be7575b5f6140008216600f0b13613bca575b5f6120008216600f0b13613bad575b5f6110008216600f0b13613b90575b5f6108008216600f0b13613b73575b5f6104008216600f0b13613b56575b5f6102008216600f0b13613b39575b5f6101008216600f0b13613b1c575b5f60808216600f0b13613aff575b5f60408216600f0b13613ae2575b5f60208216600f0b13613ac5575b5f60108216600f0b13613aa8575b5f60088216600f0b13613a8b575b5f60048216600f0b13613a6e575b5f60028216600f0b13613a50575b60015f9116600f0b13613a33575b60401d600f0b603f03600f0b1c6f7fffffffffffffffffffffffffffffff81116100f157600f0b90565b9070010000000000000000b17217f7d1cf79ab0260801c90613a09565b7001000000000000000162e42fefa39ef35890920260801c916139fb565b9170010000000000000002c5c85fdf473de6b20260801c916139ed565b91700100000000000000058b90bfbe8e7bcd6d0260801c916139df565b917001000000000000000b17217f7d1cf79afa0260801c916139d1565b91700100000000000000162e42fefa39ef366f0260801c916139c3565b917001000000000000002c5c85fdf473de6eca0260801c916139b5565b9170010000000000000058b90bfbe8e7bce5440260801c916139a7565b91700100000000000000b17217f7d1cf79e9490260801c91613999565b9170010000000000000162e42fefa39ef44d910260801c9161398a565b91700100000000000002c5c85fdf473dea871f0260801c9161397b565b917001000000000000058b90bfbe8e7bdcbe2e0260801c9161396c565b9170010000000000000b17217f7d1cf7d83c1a0260801c9161395d565b917001000000000000162e42fefa39f02b772c0260801c9161394e565b9170010000000000002c5c85fdf473e242ea380260801c9161393f565b91700100000000000058b90bfbe8e7cc35c3f00260801c91613930565b917001000000000000b17217f7d1cfb72b45e10260801c91613921565b91700100000000000162e42fefa39fe95583c20260801c91613911565b917001000000000002c5c85fdf4741bea6e77e0260801c91613901565b9170010000000000058b90bfbe8e8b2d3d4ede0260801c916138f1565b91700100000000000b17217f7d1d351a389d400260801c916138e1565b9170010000000000162e42fefa3ae53369388c0260801c916138d1565b91700100000000002c5c85fdf477b662b269450260801c916138c1565b917001000000000058b90bfbe8f71cb4e4b33d0260801c916138b1565b9170010000000000b17217f7d20cf927c8e94c0260801c916138a1565b917001000000000162e42fefa494f1478fde050260801c91613890565b9170010000000002c5c85fdf4b15de6f17eb0d0260801c9161387f565b91700100000000058b90bfbe9ddbac5e109cce0260801c9161386e565b917001000000000b17217f7d5a7716bba4a9ae0260801c9161385d565b91700100000000162e42fefb2fed257559bdaa0260801c9161384c565b917001000000002c5c85fdf84bd62ae30a74cc0260801c9161383b565b9170010000000058b90bfbf8479bd5a81b51ad0260801c9161382a565b91700100000000b17217f80f4ef5aadda455540260801c91613819565b9170010000000162e42ff0999ce3541b9fffcf0260801c91613807565b91700100000002c5c85fe31f35a6a30da1be500260801c916137f5565b917001000000058b90bfcdee5acd3c1cedc8230260801c916137e3565b9170010000000b17217fba9c739aa5819f44f90260801c916137d1565b917001000000162e42fff037df38aa2b219f060260801c916137bf565b9170010000002c5c8601cc6b9e94213c72737a0260801c916137ad565b91700100000058b90c0b48c6be5df846c5b2ef0260801c9161379b565b917001000000b1721835514b86e6d96efd1bfe0260801c91613789565b91700100000162e430e5a18f6119e3c02282a50260801c91613776565b917001000002c5c863b73f016468f6bac5ca2b0260801c91613763565b9170010000058b90cf1e6d97f9ca14dbcc16280260801c91613750565b91700100000b1721bcfc99d9f890ea069117630260801c9161373d565b9170010000162e43f4f831060e02d839a9d16d0260801c9161372a565b91700100002c5c89d5ec6ca4d7c8acc017b7c90260801c91613717565b917001000058b91b5bc9ae2eed81e9b7d4cfab0260801c91613704565b9170010000b17255775c040618bf4a4ade83fc0260801c916136f1565b917001000162e525ee054754457d59952920260260801c916136dd565b9170010002c5cc37da9491d0985c348c68e7b30260801c916136c9565b91700100058ba01fb9f96d6cacd4b180917c3d0260801c916136b5565b917001000b175effdc76ba38e31671ca9397250260801c916136a1565b91700100162f3904051fa128bca9c55c31e5df0260801c9161368d565b917001002c605e2e8cec506d21bfc89a23a00f0260801c91613679565b9170010058c86da1c09ea1ff19d294cf2f679b0260801c91613665565b91700100b1afa5abcbed6129ab13ec11dc95430260801c91613651565b9170010163da9fb33356d84a66ae336dcdfa3f0260801c9161363c565b91700102c9a3e778060ee6f7caca4f7a29bde80260801c91613627565b917001059b0d31585743ae7c548eb68ca417fd0260801c91613612565b9170010b5586cf9890f6298b92b71842a983630260801c916135fd565b917001172b83c7d517adcdf7c8c50eb14a791f0260801c916135e8565b917001306fe0a31b7152de8d5a46305c85edec0260801c916135d3565b6fb504f333f9de6484597d89b3754abe9f92506135be565b8115612ed957600f0b5f81126100f1576fffffffffffffffffffffffffffffffff8216810260401c9160801c0277ffffffffffffffffffffffffffffffffffffffffffffffff81116100f15760401b811981116100f157019056fea2646970667358221220e6785944ac0e80f82bebef9d95e7d7f64b725dec057774bb64c839dbbc0473c664736f6c63430008230033","linkReferences":{"src/PartyPoolMintImpl.sol":{"PartyPoolMintImpl":[{"start":681,"length":20},{"start":1174,"length":20}]}}},"methodIdentifiers":{"_quoteExternal(uint256,uint256,uint256,(int128,int128[]),uint256[],uint256)":"d2d0331d","burnAmounts(address,uint256)":"44e48a9c","burnSwapAmounts(address,uint256,uint256)":"97c64812","flashFee(address,address,uint256)":"ad844893","maxFlashLoan(address,address)":"0ab75fef","maxLpForBudget(address,uint256,uint256)":"eea0a29f","mintAmounts(address,uint256)":"bfb5cdc5","poolPrice(address,uint256)":"b9c0d204","price(address,uint256,uint256)":"3a06daa2","swapAmounts(address,uint256,uint256,uint256)":"9626a5a6","swapAmountsForExactOutput(address,uint256,uint256,uint256)":"20c14bab","swapAmountsForExactPrice(address,uint256,uint256,uint256)":"1fb97191","swapMintAmounts(address,uint256,uint256)":"0db4cdda","working(address)":"c757221b"},"id":51}