{"abi":[{"type":"constructor","inputs":[],"stateMutability":"nonpayable"},{"type":"function","name":"_quoteExternal","inputs":[{"name":"inputTokenIndex","type":"uint256","internalType":"uint256"},{"name":"lpAmountOut","type":"uint256","internalType":"uint256"},{"name":"feePpm","type":"uint256","internalType":"uint256"},{"name":"lmsr","type":"tuple","internalType":"struct LMSRKernel.State","components":[{"name":"kappa","type":"int128","internalType":"int128"},{"name":"effectiveSigmaQ","type":"int128","internalType":"int128"},{"name":"qInternal","type":"int128[]","internalType":"int128[]"}]},{"name":"bases_","type":"uint256[]","internalType":"uint256[]"},{"name":"supply","type":"uint256","internalType":"uint256"},{"name":"sigmaQ","type":"int128","internalType":"int128"}],"outputs":[{"name":"amountInUsed","type":"uint256","internalType":"uint256"},{"name":"inFee","type":"uint256","internalType":"uint256"}],"stateMutability":"pure"},{"type":"function","name":"burnAmounts","inputs":[{"name":"pool","type":"address","internalType":"contract IPartyPool"},{"name":"lpTokenAmount","type":"uint256","internalType":"uint256"}],"outputs":[{"name":"withdrawAmounts","type":"uint256[]","internalType":"uint256[]"}],"stateMutability":"view"},{"type":"function","name":"burnSwapAmounts","inputs":[{"name":"pool","type":"address","internalType":"contract IPartyPool"},{"name":"lpAmount","type":"uint256","internalType":"uint256"},{"name":"outputTokenIndex","type":"uint256","internalType":"uint256"}],"outputs":[{"name":"amountOut","type":"uint256","internalType":"uint256"},{"name":"outFee","type":"uint256","internalType":"uint256"}],"stateMutability":"view"},{"type":"function","name":"denominators","inputs":[{"name":"pool","type":"address","internalType":"contract IPartyPool"}],"outputs":[{"name":"arr","type":"uint256[]","internalType":"uint256[]"}],"stateMutability":"view"},{"type":"function","name":"fees","inputs":[{"name":"pool","type":"address","internalType":"contract IPartyPool"}],"outputs":[{"name":"arr","type":"uint256[]","internalType":"uint256[]"}],"stateMutability":"view"},{"type":"function","name":"fetchPoolState","inputs":[{"name":"pool","type":"address","internalType":"contract IPartyPool"}],"outputs":[{"name":"snap","type":"tuple","internalType":"struct IPartyInfo.PoolStateSnapshot","components":[{"name":"kappa","type":"int128","internalType":"int128"},{"name":"effectiveSigmaQ","type":"int128","internalType":"int128"},{"name":"qInternal","type":"int128[]","internalType":"int128[]"},{"name":"bases","type":"uint256[]","internalType":"uint256[]"},{"name":"feesPpm","type":"uint256[]","internalType":"uint256[]"},{"name":"cachedBalances","type":"uint256[]","internalType":"uint256[]"},{"name":"lpSupply","type":"uint256","internalType":"uint256"},{"name":"sigmaSwap","type":"int128","internalType":"int128"},{"name":"sigmaSwapLastUpdateBlock","type":"uint64","internalType":"uint64"},{"name":"prevBlockEndSigmaQ","type":"int128","internalType":"int128"},{"name":"gammaAccum","type":"int128","internalType":"int128"},{"name":"gammaAccumLastBlock","type":"uint64","internalType":"uint64"},{"name":"maxGammaPerWindowPpm","type":"uint32","internalType":"uint32"},{"name":"mintDeviationPpm","type":"uint32","internalType":"uint32"},{"name":"emaShiftBlocks","type":"uint8","internalType":"uint8"},{"name":"currentBlock","type":"uint256","internalType":"uint256"}]}],"stateMutability":"view"},{"type":"function","name":"maxLpForBudget","inputs":[{"name":"pool","type":"address","internalType":"contract IPartyPool"},{"name":"inputTokenIndex","type":"uint256","internalType":"uint256"},{"name":"maxAmountIn","type":"uint256","internalType":"uint256"}],"outputs":[{"name":"lpAmountOut","type":"uint256","internalType":"uint256"},{"name":"amountInUsed","type":"uint256","internalType":"uint256"},{"name":"inFee","type":"uint256","internalType":"uint256"}],"stateMutability":"view"},{"type":"function","name":"mintAmounts","inputs":[{"name":"pool","type":"address","internalType":"contract IPartyPool"},{"name":"lpTokenAmount","type":"uint256","internalType":"uint256"}],"outputs":[{"name":"depositAmounts","type":"uint256[]","internalType":"uint256[]"}],"stateMutability":"view"},{"type":"function","name":"poolPrice","inputs":[{"name":"pool","type":"address","internalType":"contract IPartyPool"},{"name":"quoteTokenIndex","type":"uint256","internalType":"uint256"}],"outputs":[{"name":"","type":"int128","internalType":"int128"}],"stateMutability":"view"},{"type":"function","name":"price","inputs":[{"name":"pool","type":"address","internalType":"contract IPartyPool"},{"name":"inputTokenIndex","type":"uint256","internalType":"uint256"},{"name":"outputTokenIndex","type":"uint256","internalType":"uint256"}],"outputs":[{"name":"","type":"uint256","internalType":"uint256"}],"stateMutability":"view"},{"type":"function","name":"swapAmounts","inputs":[{"name":"pool","type":"address","internalType":"contract IPartyPool"},{"name":"inputTokenIndex","type":"uint256","internalType":"uint256"},{"name":"outputTokenIndex","type":"uint256","internalType":"uint256"},{"name":"maxAmountIn","type":"uint256","internalType":"uint256"}],"outputs":[{"name":"amountIn","type":"uint256","internalType":"uint256"},{"name":"amountOut","type":"uint256","internalType":"uint256"},{"name":"outFee","type":"uint256","internalType":"uint256"}],"stateMutability":"view"},{"type":"function","name":"swapAmountsForExactOutput","inputs":[{"name":"pool","type":"address","internalType":"contract IPartyPool"},{"name":"inputTokenIndex","type":"uint256","internalType":"uint256"},{"name":"outputTokenIndex","type":"uint256","internalType":"uint256"},{"name":"amountOut","type":"uint256","internalType":"uint256"}],"outputs":[{"name":"amountIn","type":"uint256","internalType":"uint256"},{"name":"outFee","type":"uint256","internalType":"uint256"}],"stateMutability":"view"},{"type":"function","name":"swapAmountsForExactPrice","inputs":[{"name":"pool","type":"address","internalType":"contract IPartyPool"},{"name":"inputTokenIndex","type":"uint256","internalType":"uint256"},{"name":"outputTokenIndex","type":"uint256","internalType":"uint256"},{"name":"maxPrice","type":"uint256","internalType":"uint256"}],"outputs":[{"name":"amountIn","type":"uint256","internalType":"uint256"},{"name":"amountOut","type":"uint256","internalType":"uint256"},{"name":"outFee","type":"uint256","internalType":"uint256"}],"stateMutability":"view"},{"type":"function","name":"swapMintAmounts","inputs":[{"name":"pool","type":"address","internalType":"contract IPartyPool"},{"name":"inputTokenIndex","type":"uint256","internalType":"uint256"},{"name":"lpAmountOut","type":"uint256","internalType":"uint256"}],"outputs":[{"name":"amountInUsed","type":"uint256","internalType":"uint256"},{"name":"inFee","type":"uint256","internalType":"uint256"}],"stateMutability":"view"},{"type":"function","name":"working","inputs":[{"name":"pool","type":"address","internalType":"contract IPartyPool"}],"outputs":[{"name":"","type":"bool","internalType":"bool"}],"stateMutability":"view"}],"bytecode":{"object":"0x608080604052346015576146ca908161001a8239f35b5f80fdfe6080806040526004361015610012575f80fd5b5f3560e01c9081630db4cdda14611bf9575080631fb971911461175c57806320c14bab146114ad5780633a06daa2146112ee57806344e48a9c146112c65780639626a5a61461115357806397c6481214610e26578063aa48e91b146108eb578063b9c0d2041461054e578063bd44b89c14610340578063bfb5cdc514610189578063c757221b1461015c578063eea0a29f14610125578063faaebd21146101015763fc17cfee146100c1575f80fd5b346100fd5760206003193601126100fd576100f96100e56100e0611e17565b612e64565b604051918291602083526020830190611eac565b0390f35b5f80fd5b346100fd5760206003193601126100fd576100f96100e5610120611e17565b612db0565b346100fd576100f961013f61013936611e3a565b91612a25565b604080519384526020840192909252908201529081906060820190565b346100fd5760206003193601126100fd57602061017f61017a611e17565b612916565b6040519015158152f35b346100fd5760406003193601126100fd5773ffffffffffffffffffffffffffffffffffffffff6101b7611e17565b16604051907f18160ddd000000000000000000000000000000000000000000000000000000008252602082600481845afa9182156102e5575f9261030c575b505f600491604051928380927f7bb98a680000000000000000000000000000000000000000000000000000000082525afa80156102e557610284925f9283926102f0575b5060405193849283927fcdc2468b00000000000000000000000000000000000000000000000000000000845260243560048501526024840152606060448401526064830190611eac565b038173__$6422c726ac445123321d590d4432d36af2$__5af480156102e5576100f9915f916102c3575b50604051918291602083526020830190611eac565b6102df91503d805f833e6102d78183611f31565b810190612077565b826102ae565b6040513d5f823e3d90fd5b6103059192503d8085833e6102d78183611f31565b908461023a565b9091506020813d602011610338575b8161032860209383611f31565b810103126100fd5751905f6101f6565b3d915061031b565b346100fd5760e06003193601126100fd5760643567ffffffffffffffff81116100fd57606060031982360301126100fd576040519061037e82611f15565b61038a81600401611f72565b825261039860248201611f72565b602083015260448101359067ffffffffffffffff82116100fd5701366023820112156100fd576004810135906103cd82611f80565b916103db6040519384611f31565b808352602060048185019260051b84010101913683116100fd57602401905b82821061053657505050604082015260843567ffffffffffffffff81116100fd57366023820112156100fd5780600401359061043582611f80565b916104436040519384611f31565b8083526024602084019160051b830101913683116100fd57602401905b8282106105265750505060c4359182600f0b83036100fd576040916104be835194859384937ffd8a5be600000000000000000000000000000000000000000000000000000000855260a43591604435602435600435600489016121a0565b038173__$d4ee50103f5c7465ad0078df0eb4f457ce$__5af49081156102e5576040915f915f916104f7575b5082519182526020820152f35b90506105199150823d841161051f575b6105118183611f31565b810190612132565b836104ea565b503d610507565b8135815260209182019101610460565b6020809161054384611f72565b8152019101906103fa565b346100fd5760406003193601126100fd57610567611e17565b73ffffffffffffffffffffffffffffffffffffffff60243591166040517ffdf5366500000000000000000000000000000000000000000000000000000000815261012081600481855afa80156102e5576060915f916108bc575b5001516105cf8115156128a4565b8083101561085e57604051927f6ff97f1d0000000000000000000000000000000000000000000000000000000084525f84600481865afa9384156102e5575f946107ae575b50602073ffffffffffffffffffffffffffffffffffffffff61063983602496976120f1565b5116604051948580927f70a082310000000000000000000000000000000000000000000000000000000082528860048301525afa9283156102e5575f9361077a575b50604051917f017504b60000000000000000000000000000000000000000000000000000000083525f83600481885afa80156102e5576004946106cf6106db946106d6936020975f91610760575b506120f1565b5190612909565b6122b3565b92604051928380927f18160ddd0000000000000000000000000000000000000000000000000000000082525afa9081156102e5575f9161072d575b60206107228385612f6d565b60405190600f0b8152f35b90506020813d602011610758575b8161074860209383611f31565b810103126100fd57516020610716565b3d915061073b565b61077491503d805f833e6102d78183611f31565b8a6106c9565b9092506020813d6020116107a6575b8161079660209383611f31565b810103126100fd5751918461067b565b3d9150610789565b93503d805f863e6107bf8186611f31565b8401936020818603126100fd5780519067ffffffffffffffff82116100fd57019380601f860112156100fd578451906107f782611f80565b956108056040519788611f31565b82875260208088019360051b8201019182116100fd57602001915b818310610831575050506020610614565b825173ffffffffffffffffffffffffffffffffffffffff811681036100fd57815260209283019201610820565b60646040517f08c379a000000000000000000000000000000000000000000000000000000000815260206004820152600e60248201527f706f6f6c50726963653a206964780000000000000000000000000000000000006044820152fd5b6108de91506101203d81116108e4575b6108d68183611f31565b810190612718565b846105c1565b503d6108cc565b346100fd5760206003193601126100fd57610904611e17565b60405190610200820182811067ffffffffffffffff821117610df9576040525f82525f60208301526060604083015260608083015260606080830152606060a08301525f60c08301525f60e08301525f6101008301525f6101208301525f6101408301525f6101608301525f6101808301525f6101a08301525f6101c08301525f6101e083015273ffffffffffffffffffffffffffffffffffffffff811690604051917f476e44b60000000000000000000000000000000000000000000000000000000083525f83600481845afa9283156102e5575f93610dd5575b50604051917ffdf5366500000000000000000000000000000000000000000000000000000000835261012083600481855afa9283156102e5575f93610db4575b50604051937fc051e38a00000000000000000000000000000000000000000000000000000000855260a085600481865afa9485156102e5575f95610d7a575b5090604082610a959351600f0b88526020810151600f0b602089015201516040870152610a8b81612e64565b6060870152612db0565b60808501526040517f7bb98a680000000000000000000000000000000000000000000000000000000081525f81600481855afa9182156102e5576004926020925f91610d60575b5060a0870152604051928380927f18160ddd0000000000000000000000000000000000000000000000000000000082525afa9081156102e5575f91610d24575b509067ffffffffffffffff608060ff9460c094858801528051600f0b60e0880152826020820151166101008801526040810151600f0b6101208801526060810151600f0b61014088015201511661016085015263ffffffff60e08201511661018085015263ffffffff60a0820151166101a08501520151166101c0820152436101e08201526040518091602082528051600f0b60208301526020810151600f0b60408301526101e0610c84610c50610c1c610be860408601516102006060890152610220880190611edf565b60608601517fffffffffffffffffffffffffffffffffffffffffffffffffffffffffffffffe0888303016080890152611eac565b60808501517fffffffffffffffffffffffffffffffffffffffffffffffffffffffffffffffe08783030160a0880152611eac565b60a08401517fffffffffffffffffffffffffffffffffffffffffffffffffffffffffffffffe08683030160c0870152611eac565b9160c081015160e085015260e0810151600f0b61010085015267ffffffffffffffff61010082015116610120850152610120810151600f0b610140850152610140810151600f0b61016085015267ffffffffffffffff6101608201511661018085015263ffffffff610180820151166101a085015263ffffffff6101a0820151166101c085015260ff6101c0820151168285015201516102008301520390f35b9190506020823d602011610d58575b81610d4060209383611f31565b810103126100fd57905167ffffffffffffffff610b1c565b3d9150610d33565b610d7491503d805f833e6102d78183611f31565b87610adc565b610a9592919550610da460409160a03d60a011610dad575b610d9c8183611f31565b810190612828565b95919250610a5f565b503d610d92565b610dce9193506101203d81116108e4576108d68183611f31565b9185610a20565b610df29193503d805f833e610dea8183611f31565b810190611fa6565b91846109e0565b7f4e487b71000000000000000000000000000000000000000000000000000000005f52604160045260245ffd5b346100fd57610e3436611e3a565b73ffffffffffffffffffffffffffffffffffffffff831691604051937f476e44b60000000000000000000000000000000000000000000000000000000085525f85600481875afa9485156102e5575f95611137575b50610e9381612e64565b94604051947f7bb98a680000000000000000000000000000000000000000000000000000000086525f86600481845afa9586156102e5575f9661111b575b5086515f978897909188915b8183106110a257505050610ef1868561313a565b97604051947f18160ddd000000000000000000000000000000000000000000000000000000008652602086600481875afa9586156102e5575f9661106d575b50600498602092610f4092613184565b92604051988980927f1f3a0e410000000000000000000000000000000000000000000000000000000082525afa9283156102e5576040975f94611032575b5090610fd3610fe59289519a8b998a997f14d22aa6000000000000000000000000000000000000000000000000000000008b5260048b015260248a015260448901526101006064890152610104880190612148565b90600319878303016084880152611eac565b9260a4850152600f0b60c4840152151560e4830152038173__$d4ee50103f5c7465ad0078df0eb4f457ce$__5af49081156102e5576040915f915f916104f7575082519182526020820152f35b610fe59291945061105d610fd39160203d602011611066575b6110558183611f31565b810190612443565b94919250610f7e565b503d61104b565b9095506020813d60201161109a575b8161108960209383611f31565b810103126100fd5751946004610f30565b3d915061107c565b90919889604087019b818d51906110b8916120f1565b51600f0b6110c591612f15565b9b6110d082856120f1565b516110db83886120f1565b516110e591612f6d565b828251906110f2916120f1565b90600f0b90525190611103916120f1565b51600f0b61111091612f15565b986001019190610edd565b6111309196503d805f833e6102d78183611f31565b9487610ed1565b61114c9195503d805f833e610dea8183611f31565b9385610e89565b346100fd5761116136611e71565b929190611170818314156121e9565b6040517f476e44b60000000000000000000000000000000000000000000000000000000081525f8160048173ffffffffffffffffffffffffffffffffffffffff88165afa9283156102e55761125c611275936112546100f996611263955f916112ac575b5060408101906111f082515180881090816112a2575b5061224e565b8361121a6111fd8c612db0565b6112128361120b8b846120f1565b51926120f1565b51019b612e64565b966112308d611229838b6120f1565b5190612f6d565b9261123f5f85600f0b1361238f565b60208151600f0b9551910151600f0b946135ef565b9390506120f1565b51906138fa565b9261126f84151561238f565b8361386a565b80936112838285141561238f565b6040519485940390846040919493926060820195825260208201520152565b905085108d6111ea565b6112c091503d805f833e610dea8183611f31565b8a6111d4565b346100fd5760406003193601126100fd576100f96100e56112e5611e17565b6024359061245b565b346100fd576112fc36611e3a565b91906040517f476e44b60000000000000000000000000000000000000000000000000000000081525f8160048173ffffffffffffffffffffffffffffffffffffffff87165afa9081156102e5575f91611493575b50604081018051518084109081611489575b501561142b5784838360206113839551600f0b9451910151600f0b93613336565b600f0b5f8113156113cd576020936113b56113be926113ae6113a76113c597612e64565b95866120f1565b51906122b3565b60401b926120f1565b51906122f3565b604051908152f35b60646040517f08c379a000000000000000000000000000000000000000000000000000000000815260206004820152601360248201527f70726963653a206e6f6e2d706f736974697665000000000000000000000000006044820152fd5b60646040517f08c379a000000000000000000000000000000000000000000000000000000000815260206004820152600a60248201527f70726963653a20696478000000000000000000000000000000000000000000006044820152fd5b9050851086611362565b6114a791503d805f833e610dea8183611f31565b84611350565b346100fd576114bb36611e71565b8282141593926114ca856121e9565b6114d582151561232a565b604051947f476e44b60000000000000000000000000000000000000000000000000000000086525f8660048173ffffffffffffffffffffffffffffffffffffffff89165afa9586156102e5575f96611740575b5060408601906115438251518085109081611736575061224e565b61156b61154f87612db0565b61155d8761120b87846120f1565b510194856117195796612e64565b9161157686846120f1565b516115819088613885565b9182600f0b5f126115918161238f565b8951600f0b92519960200151600f0b916115aa906121e9565b6115b39061232a565b6115be5f82136128a4565b6115c791613387565b94836115d2876133c7565b986115de8a93826120f1565b51600f0b916115ec916120f1565b51600f0b6115f991613794565b9061160391613387565b61160c906137d1565b9661161691613387565b80600f0b68200000000000000000121561162f9061358a565b611638906137d1565b86600f0b6801000000000000000001927fffffffffffffffffffffffffffffffff80000000000000000000000000000000841215806116ff575b156100fd576116c76116f3966116c16116ae60409b61169a6116db976116e29a600f0b613794565b906116a95f83600f0b1361358a565b613417565b6116bc5f82600f0b1361238f565b61345d565b90613387565b926116d65f85600f0b1361238f565b6120f1565b519061382e565b926116ee84151561238f565b61386a565b82519182526020820152f35b506f7fffffffffffffffffffffffffffffff841315611672565b61173090620f4240878103910281015f19016122f3565b96612e64565b90508610896111ea565b6117559196503d805f833e610dea8183611f31565b9486611528565b346100fd5761176a36611e71565b929190611779818314156121e9565b604051907f476e44b60000000000000000000000000000000000000000000000000000000082525f8260048173ffffffffffffffffffffffffffffffffffffffff88165afa9182156102e5575f92611bdd575b50604082016117e68151518086109081611bd3575061224e565b8515611b75576118216117f886612e64565b9661181c611806878a6120f1565b5191611812868b6120f1565b519060401c6122b3565b6122f3565b6fffffffffffffffffffffffffffffffff8111611b1757600f0b60208451600f0b92519401936118588551600f0b85888487613336565b918083600f0b1215611a93576118886118826116bc61187b8951600f0b88613387565b9584613417565b84613387565b600f0b60411b60401d7fffffffffffffffffffffffffffffffff8000000000000000000000000000000081121580611a79575b156100fd579587959389928b98600f0b905f925f965f995f965b60408810611947575b5050508a8a6100f961192661191f8d61125c8e6119198f8f6119026116db91612db0565b6119108561120b8d846120f1565b5101998b6120f1565b976120f1565b928361386a565b80936040519485940390846040919493926060820195825260208201520152565b90919293949596989b99979a68020000000000000000611967888a612f15565b60401b60170b057fffffffffffffffffffffffffffffffff8000000000000000000000000000000081121580611a5f575b156100fd57600f0b9780600f0b891315611a54579c8b9c9d87878c809e9f888e9f8f9e9f8c91848c51600f0b936119ce956135ef565b9f90508f916119dd908c6120f1565b51600f0b906119eb91612f15565b916119f6908b6120f1565b51600f0b90611a0491613794565b611a0d91613794565b90611a1791613417565b611a20906137d1565b600f0b1215611a4457505050600186989a5b019694939291909b9798999a9b6118d5565b979099506001919b985097611a32565b509a97999b986118de565b506f7fffffffffffffffffffffffffffffff811315611998565b506f7fffffffffffffffffffffffffffffff8113156118bb565b60846040517f08c379a000000000000000000000000000000000000000000000000000000000815260206004820152602560248201527f73776170416d6f756e74733a207072696365206174206f722061626f7665207460448201527f61726765740000000000000000000000000000000000000000000000000000006064820152fd5b60646040517f08c379a000000000000000000000000000000000000000000000000000000000815260206004820152601560248201527f73776170416d6f756e74733a206f766572666c6f7700000000000000000000006044820152fd5b60646040517f08c379a000000000000000000000000000000000000000000000000000000000815260206004820152601460248201527f73776170416d6f756e74733a206c696d69743d300000000000000000000000006044820152fd5b90508310886111ea565b611bf29192503d805f833e610dea8183611f31565b90856117cc565b346100fd57611c0736611e3a565b9073ffffffffffffffffffffffffffffffffffffffff8316937f476e44b60000000000000000000000000000000000000000000000000000000081525f81600481885afa9081156102e5575f91611dfd575b50611c6384612e64565b604051947f7bb98a680000000000000000000000000000000000000000000000000000000086525f866004818a5afa9586156102e5575f96611de1575b5081515f9687929183915b818310611d845750505090816020611cc6876004969561313a565b99604051958680927f18160ddd0000000000000000000000000000000000000000000000000000000082525afa9384156102e5575f94611d49575b506040976104be95949392611d1592613184565b92875198899788977ffd8a5be6000000000000000000000000000000000000000000000000000000008952600489016121a0565b9092919493506020813d602011611d7c575b81611d6860209383611f31565b810103126100fd5751929390916040611d01565b3d9150611d5b565b909198611dd8600191611da48c611dae60408c0199611da4838c516120f1565b51600f0b90612f15565b98611dc18b6112298461120b818c6120f1565b611dcc8383516120f1565b90600f0b9052516120f1565b99019190611cab565b611df69196503d805f833e6102d78183611f31565b9487611ca0565b611e1191503d805f833e610dea8183611f31565b85611c59565b6004359073ffffffffffffffffffffffffffffffffffffffff821682036100fd57565b60031960609101126100fd5760043573ffffffffffffffffffffffffffffffffffffffff811681036100fd57906024359060443590565b60031960809101126100fd5760043573ffffffffffffffffffffffffffffffffffffffff811681036100fd5790602435906044359060643590565b90602080835192838152019201905f5b818110611ec95750505090565b8251845260209384019390920191600101611ebc565b90602080835192838152019201905f5b818110611efc5750505090565b8251600f0b845260209384019390920191600101611eef565b6060810190811067ffffffffffffffff821117610df957604052565b90601f7fffffffffffffffffffffffffffffffffffffffffffffffffffffffffffffffe0910116810190811067ffffffffffffffff821117610df957604052565b359081600f0b82036100fd57565b67ffffffffffffffff8111610df95760051b60200190565b519081600f0b82036100fd57565b6020818303126100fd5780519067ffffffffffffffff82116100fd5701906060828203126100fd5760405191611fdb83611f15565b611fe481611f98565b8352611ff260208201611f98565b602084015260408101519067ffffffffffffffff82116100fd57019080601f830112156100fd57815161202481611f80565b926120326040519485611f31565b81845260208085019260051b8201019283116100fd57602001905b82821061205f57505050604082015290565b6020809161206c84611f98565b81520191019061204d565b6020818303126100fd5780519067ffffffffffffffff82116100fd57019080601f830112156100fd5781516120ab81611f80565b926120b96040519485611f31565b81845260208085019260051b8201019283116100fd57602001905b8282106120e15750505090565b81518152602091820191016120d4565b80518210156121055760209160051b010190565b7f4e487b71000000000000000000000000000000000000000000000000000000005f52603260045260245ffd5b91908260409103126100fd576020825192015190565b60206080604060608501938051600f0b865283810151600f0b84870152015193606060408201528451809452019201905f5b8181106121875750505090565b8251600f0b84526020938401939092019160010161217a565b959796936121db9360c096936121cd9389526020890152604088015260e0606088015260e0870190612148565b908582036080870152611eac565b9460a0840152600f0b910152565b156121f057565b60646040517f08c379a000000000000000000000000000000000000000000000000000000000815260206004820152600a60248201527f73616d6520746f6b656e000000000000000000000000000000000000000000006044820152fd5b1561225557565b60646040517f08c379a000000000000000000000000000000000000000000000000000000000815260206004820152601060248201527f73776170416d6f756e74733a20696478000000000000000000000000000000006044820152fd5b818102929181159184041417156122c657565b7f4e487b71000000000000000000000000000000000000000000000000000000005f52601160045260245ffd5b81156122fd570490565b7f4e487b71000000000000000000000000000000000000000000000000000000005f52601260045260245ffd5b1561233157565b60646040517f08c379a000000000000000000000000000000000000000000000000000000000815260206004820152600e60248201527f696e76616c696420616d6f756e740000000000000000000000000000000000006044820152fd5b1561239657565b60646040517f08c379a000000000000000000000000000000000000000000000000000000000815260206004820152600960248201527f746f6f20736d616c6c00000000000000000000000000000000000000000000006044820152fd5b906123fe82611f80565b61240b6040519182611f31565b8281527fffffffffffffffffffffffffffffffffffffffffffffffffffffffffffffffe06124398294611f80565b0190602036910137565b908160209103126100fd575180151581036100fd5790565b6040517f18160ddd00000000000000000000000000000000000000000000000000000000815292919073ffffffffffffffffffffffffffffffffffffffff16602084600481845afa9384156102e5575f946126d3575b50604051917f7bb98a680000000000000000000000000000000000000000000000000000000083525f83600481855afa9283156102e5575f936126b7575b508251916124fc836123f4565b95801580156126af575b6126a8576125148184612f6d565b926125235f85600f0b1361238f565b148015612645575b1561258257505b5f925f5b83811061254c575050505061254a9061238f565b565b61256061255982846120f1565b51846138fa565b8061256b838a6120f1565b52612579575b600101612536565b60019450612571565b925f600494604097949796939651958680927f476e44b60000000000000000000000000000000000000000000000000000000082525afa9384156102e5575f94612629575b505f95865b604086015180518910156125f257600191611da48a6125ea936120f1565b9701966125cc565b5091946020919497509592950151600f0b81600f0b8112155f14612617575050612532565b6116a99061262493613387565b612532565b61263e9194503d805f833e610dea8183611f31565b925f6125c7565b506040517f1f3a0e41000000000000000000000000000000000000000000000000000000008152602081600481855afa9081156102e5575f91612689575b5061252b565b6126a2915060203d602011611066576110558183611f31565b5f612683565b5050505050565b508315612506565b6126cc9193503d805f833e6102d78183611f31565b915f6124ef565b9093506020813d6020116126ff575b816126ef60209383611f31565b810103126100fd5751925f6124b1565b3d91506126e2565b519063ffffffff821682036100fd57565b90816101209103126100fd5760405190610120820182811067ffffffffffffffff821117610df957604052805173ffffffffffffffffffffffffffffffffffffffff811681036100fd578252602081015173ffffffffffffffffffffffffffffffffffffffff811681036100fd576020830152604081015173ffffffffffffffffffffffffffffffffffffffff811681036100fd57604083015260608101516060830152608081015160808301526127d260a08201612707565b60a083015260c081015160ff811681036100fd5761280a916101009160c08501526127ff60e08201612707565b60e085015201612707565b61010082015290565b519067ffffffffffffffff821682036100fd57565b908160a09103126100fd576040519060a0820182811067ffffffffffffffff821117610df95761289c9160809160405261286181611f98565b845261286f60208201612813565b602085015261288060408201611f98565b604085015261289160608201611f98565b606085015201612813565b608082015290565b156128ab57565b60646040517f08c379a000000000000000000000000000000000000000000000000000000000815260206004820152600d60248201527f756e696e697469616c697a6564000000000000000000000000000000000000006044820152fd5b919082039182116122c657565b73ffffffffffffffffffffffffffffffffffffffff166040517f1f3a0e41000000000000000000000000000000000000000000000000000000008152602081600481855afa9081156102e5575f91612a06575b50612a01575f600491604051928380927f476e44b60000000000000000000000000000000000000000000000000000000082525afa9081156102e5575f916129e7575b505f5b604082015180518210156129e0576129c8825f926120f1565b51600f0b136129d9576001016129af565b5050600190565b5050505f90565b6129fb91503d805f833e610dea8183611f31565b5f6129ac565b505f90565b612a1f915060203d602011611066576110558183611f31565b5f612969565b5f92839290612a3581151561232a565b73ffffffffffffffffffffffffffffffffffffffff831690604051927f18160ddd000000000000000000000000000000000000000000000000000000008452602084600481865afa9384156102e5575f94612d7c575b50831592612a9984156128a4565b612aa3828761313a565b94604051967f476e44b60000000000000000000000000000000000000000000000000000000088525f88600481865afa9788156102e5575f98612d5d575b50805f612aef600493612e64565b94604051938480927f7bb98a680000000000000000000000000000000000000000000000000000000082525afa9182156102e5575f92612d41575b508351905f905f925f945b8c828710612d0157505050612b4a9350613184565b915f97620f42408304968715612cf8575b606484029084820460641417156122c6575f905b6101008210612c56575b50508815612c435795939291905f979597965b60408810612ba1575b50505050505050505092565b9091929394969995979a6001612bb78b8a612909565b1115612c3a57612bc78a89612909565b60011c8a0190818b116122c6578c97612be5878787878f888e613955565b9f819e9291825f14612c33575b82612c28575b505015612c1857505050600190999b9a5b01969493929190979597612b8c565b9b509b98509b5060019097612c09565b111590508a5f612bf8565b505f612bf2565b9a869a50612b95565b50505050505050505050505f905f905f90565b90979a9b879c612c6c87878f878f8a928e613955565b9f819e9291825f14612cf1575b82612ce6575b505015612cdb575050508a999b9a81811015612cd5578060011b818104600214821517156122c65790811082828215612ccb575b5050612cc4575b9760010190612b6f565b5080612cba565b119050825f612cb3565b97612b79565b9b509b98509b612b79565b111590508a5f612c7f565b505f612c79565b60019750612b5b565b60019192939495611da488612d226040612d35950199611da4838c516120f1565b98611dc18d6112298461120b818c6120f1565b95019493929190612b35565b612d569192503d805f833e6102d78183611f31565b905f612b2a565b6004919850612d75903d805f833e610dea8183611f31565b9790612ae1565b9093506020813d602011612da8575b81612d9860209383611f31565b810103126100fd5751925f612a8b565b3d9150612d8b565b9061012073ffffffffffffffffffffffffffffffffffffffff926004604051809581937ffdf53665000000000000000000000000000000000000000000000000000000008352165afa9182156102e5575f92612e43575b50606082015173ffffffffffffffffffffffffffffffffffffffff6040612e2d836123f4565b940151169060051b90816001019060208501903c565b612e5d9192506101203d81116108e4576108d68183611f31565b905f612e07565b9061012073ffffffffffffffffffffffffffffffffffffffff926004604051809581937ffdf53665000000000000000000000000000000000000000000000000000000008352165afa9182156102e5575f92612ef4575b506060820151600173ffffffffffffffffffffffffffffffffffffffff6040612ee3846123f4565b950151169160051b9160208501903c565b612f0e9192506101203d81116108e4576108d68183611f31565b905f612ebb565b90600f0b90600f0b017fffffffffffffffffffffffffffffffff8000000000000000000000000000000081121580612f53575b156100fd57600f0b90565b506f7fffffffffffffffffffffffffffffff811315612f48565b81156100fd5777ffffffffffffffffffffffffffffffffffffffffffffffff8111612fe55790612f9f9160401b6122f3565b6fffffffffffffffffffffffffffffffff81116100fd576fffffffffffffffffffffffffffffffff166f7fffffffffffffffffffffffffffffff81116100fd57600f0b90565b60c09181831c809364010000000082101561312d575b60028262010000613069941015613121575b610100811015613115575b6010811015613109575b60048110156130fe575b10156130f6575b8360015f1985017fffffffffffffffffffffffffffffffffffffffffffffffffffffffffffffff4184011c019160ff031b6122f3565b926fffffffffffffffffffffffffffffffff84116100fd578160801c8402906fffffffffffffffffffffffffffffffff8316850290809460401b908282106130eb575b5003928160801b918285106130e1575b60801c036130d6576130ce92036122f3565b905b01612f9f565b5050506001906130d0565b905f1901906130bc565b5f190194505f6130ac565b600101613033565b91810191811c61302c565b6004928301921c613022565b6008928301921c613018565b6010928301921c61300d565b505060e082811c90612ffb565b61314690929192612db0565b918251905f905f5b83811061316d57506131649061316a94956120f1565b51613a39565b90565b9160019061317b84886120f1565b5101920161314e565b73ffffffffffffffffffffffffffffffffffffffff16604051907fc051e38a00000000000000000000000000000000000000000000000000000000825260a082600481845afa9182156102e5575f92613315575b5067ffffffffffffffff60208351600f0b93015116431161321b575b506116c16132029284613417565b9080600f0b82600f0b125f14613216575090565b905090565b8183600f0b03906f7fffffffffffffffffffffffffffffff82137fffffffffffffffffffffffffffffffff800000000000000000000000000000008312176122c657610120600491604051928380927ffdf536650000000000000000000000000000000000000000000000000000000082525afa9081156102e55760ff9160c0915f916132f6575b5001511690600f0b901d600f0b01907fffffffffffffffffffffffffffffffff8000000000000000000000000000000082126f7fffffffffffffffffffffffffffffff8313176122c657906116c16131f4565b61330f91506101203d81116108e4576108d68183611f31565b5f6132a3565b61332f91925060a03d60a011610dad57610d9c8183611f31565b905f6131d8565b906133786133829461336e61336761336261316a9961335d9761335d5f83600f0b136128a4565b613387565b6133c7565b95846120f1565b51600f0b926120f1565b51600f0b90613794565b6137d1565b90600f0b90600f0b0260401d7fffffffffffffffffffffffffffffffff8000000000000000000000000000000081121580612f5357156100fd57600f0b90565b600f0b80156100fd57700100000000000000000000000000000000057fffffffffffffffffffffffffffffffff8000000000000000000000000000000081121580612f5357156100fd57600f0b90565b90600f0b9081156100fd5760401b60170b057fffffffffffffffffffffffffffffffff8000000000000000000000000000000081121580612f5357156100fd57600f0b90565b600f0b5f8113156100fd575f90806801000000000000000082121561357d575b806401000000006002921215613571575b62010000811215613565575b610100811215613559575b601081121561354d575b6004811215613542575b1215613538575b7fffffffffffffffffffffffffffffffffffffffffffffffffffffffffffffffc0820160401b91607f031b90678000000000000000915b5f831361351c57506fb17217f7d1cf79abc9e3b39803f2f6af9150600f0b0260801d90565b8002908160ff1c9182607f011c918302019160011d91906134f7565b90600101906134c0565b92810192811d6134b9565b6004938401931d6134af565b6008938401931d6134a5565b6010938401931d61349a565b6020938401931d61348e565b506040915080821d61347d565b1561359157565b60646040517f08c379a000000000000000000000000000000000000000000000000000000000815260206004820152600960248201527f746f6f206c6172676500000000000000000000000000000000000000000000006044820152fd5b959461360b90949294939193839761335d5f83600f0b136128a4565b93613615856133c7565b7fffffffffffffffffffffffffffffffff8000000000000000000000000000000061367c6133826136468488613387565b9361335d85600f0b966136646820000000000000000089131561358a565b6133786136718a8d6120f1565b51600f0b918c6120f1565b92146100fd57613690905f03600f0b6137d1565b600f0b6801000000000000000003907fffffffffffffffffffffffffffffffff800000000000000000000000000000008212158061377a575b156100fd576136db91600f0b90613387565b600f0b68010000000000000000017fffffffffffffffffffffffffffffffff8000000000000000000000000000000081121580613760575b156100fd57600f0b925f84131561374a57505050906116c16137349261345d565b5f81600f0b13156137425790565b505f91508190565b919550915061375992506120f1565b51600f0b90565b506f7fffffffffffffffffffffffffffffff811315613713565b506f7fffffffffffffffffffffffffffffff8213156136c9565b90600f0b90600f0b037fffffffffffffffffffffffffffffffff8000000000000000000000000000000081121580612f5357156100fd57600f0b90565b600f0b684000000000000000008112156100fd577fffffffffffffffffffffffffffffffffffffffffffffffc000000000000000008112612a0157700171547652b82fe1777d0ffda0d23a7d1261316a910260801d600f0b613a80565b9067ffffffffffffffff61384282846138fa565b921680156138655767ffffffffffffffff809216021661385f5790565b60010190565b505090565b811561387f57620f42409102620f423f010490565b50505f90565b801580156138f2575b61387f576138a661389f8383612f6d565b92836138fa565b106138ae5790565b600f0b6001016f7fffffffffffffffffffffffffffffff81137fffffffffffffffffffffffffffffffff800000000000000000000000000000008212176122c65790565b50811561388e565b811561387f57600f0b5f81126100fd576fffffffffffffffffffffffffffffffff8216810260401c9160801c0277ffffffffffffffffffffffffffffffffffffffffffffffff81116100fd5760401b811981116100fd570190565b92604095929691946139d2876139e49381519a8b998a997fbd44b89c000000000000000000000000000000000000000000000000000000008b5260048b015260248a0152604489015260e060648901528051600f0b60e48901526020810151600f0b61010489015201516060610124880152610144870190611edf565b90600319868303016084870152611eac565b9160a4840152600f0b60c48301520381305afa805f925f92613a15575b50613a105750505f905f905f90565b600192565b909250613a31915060403d60401161051f576105118183611f31565b90915f613a01565b9160028114613a7a57907ffffffffffffffffffffffffffffffffffffffffffffffffffffffffffffffffe82845f19613a769501930301016122f3565b0190565b50905090565b80600f0b684000000000000000008112156100fd577fffffffffffffffffffffffffffffffffffffffffffffffc00000000000000000811261387f576f80000000000000000000000000000000915f6780000000000000008216600f0b1361467c575b5f6740000000000000008216600f0b1361465f575b5f6720000000000000008216600f0b13614642575b5f6710000000000000008216600f0b13614625575b5f6708000000000000008216600f0b13614608575b5f6704000000000000008216600f0b136145eb575b5f6702000000000000008216600f0b136145ce575b5f6701000000000000008216600f0b136145b1575b5f66800000000000008216600f0b13614594575b5f66400000000000008216600f0b13614577575b5f66200000000000008216600f0b1361455a575b5f66100000000000008216600f0b1361453d575b5f66080000000000008216600f0b13614520575b5f66040000000000008216600f0b13614503575b5f66020000000000008216600f0b136144e6575b5f66010000000000008216600f0b136144c9575b5f658000000000008216600f0b136144ac575b5f654000000000008216600f0b1361448f575b5f652000000000008216600f0b13614472575b5f651000000000008216600f0b13614455575b5f650800000000008216600f0b13614438575b5f650400000000008216600f0b1361441b575b5f650200000000008216600f0b136143fe575b5f650100000000008216600f0b136143e1575b5f6480000000008216600f0b136143c4575b5f6440000000008216600f0b136143a7575b5f6420000000008216600f0b1361438a575b5f6410000000008216600f0b1361436d575b5f6408000000008216600f0b13614350575b5f6404000000008216600f0b13614333575b5f6402000000008216600f0b13614316575b5f6401000000008216600f0b136142f9575b5f63800000008216600f0b136142dc575b5f63400000008216600f0b136142bf575b5f63200000008216600f0b136142a2575b5f63100000008216600f0b13614285575b5f63080000008216600f0b13614268575b5f63040000008216600f0b1361424b575b5f63020000008216600f0b1361422e575b5f63010000008216600f0b13614211575b5f628000008216600f0b136141f4575b5f624000008216600f0b136141d7575b5f622000008216600f0b136141ba575b5f621000008216600f0b1361419d575b5f620800008216600f0b13614180575b5f620400008216600f0b13614163575b5f620200008216600f0b13614146575b5f620100008216600f0b13614129575b5f6180008216600f0b1361410c575b5f6140008216600f0b136140ef575b5f6120008216600f0b136140d2575b5f6110008216600f0b136140b5575b5f6108008216600f0b13614098575b5f6104008216600f0b1361407b575b5f6102008216600f0b1361405e575b5f6101008216600f0b13614041575b5f60808216600f0b13614024575b5f60408216600f0b13614007575b5f60208216600f0b13613fea575b5f60108216600f0b13613fcd575b5f60088216600f0b13613fb0575b5f60048216600f0b13613f93575b5f60028216600f0b13613f75575b60015f9116600f0b13613f58575b60401d600f0b603f03600f0b1c6f7fffffffffffffffffffffffffffffff81116100fd57600f0b90565b9070010000000000000000b17217f7d1cf79ab0260801c90613f2e565b7001000000000000000162e42fefa39ef35890920260801c91613f20565b9170010000000000000002c5c85fdf473de6b20260801c91613f12565b91700100000000000000058b90bfbe8e7bcd6d0260801c91613f04565b917001000000000000000b17217f7d1cf79afa0260801c91613ef6565b91700100000000000000162e42fefa39ef366f0260801c91613ee8565b917001000000000000002c5c85fdf473de6eca0260801c91613eda565b9170010000000000000058b90bfbe8e7bce5440260801c91613ecc565b91700100000000000000b17217f7d1cf79e9490260801c91613ebe565b9170010000000000000162e42fefa39ef44d910260801c91613eaf565b91700100000000000002c5c85fdf473dea871f0260801c91613ea0565b917001000000000000058b90bfbe8e7bdcbe2e0260801c91613e91565b9170010000000000000b17217f7d1cf7d83c1a0260801c91613e82565b917001000000000000162e42fefa39f02b772c0260801c91613e73565b9170010000000000002c5c85fdf473e242ea380260801c91613e64565b91700100000000000058b90bfbe8e7cc35c3f00260801c91613e55565b917001000000000000b17217f7d1cfb72b45e10260801c91613e46565b91700100000000000162e42fefa39fe95583c20260801c91613e36565b917001000000000002c5c85fdf4741bea6e77e0260801c91613e26565b9170010000000000058b90bfbe8e8b2d3d4ede0260801c91613e16565b91700100000000000b17217f7d1d351a389d400260801c91613e06565b9170010000000000162e42fefa3ae53369388c0260801c91613df6565b91700100000000002c5c85fdf477b662b269450260801c91613de6565b917001000000000058b90bfbe8f71cb4e4b33d0260801c91613dd6565b9170010000000000b17217f7d20cf927c8e94c0260801c91613dc6565b917001000000000162e42fefa494f1478fde050260801c91613db5565b9170010000000002c5c85fdf4b15de6f17eb0d0260801c91613da4565b91700100000000058b90bfbe9ddbac5e109cce0260801c91613d93565b917001000000000b17217f7d5a7716bba4a9ae0260801c91613d82565b91700100000000162e42fefb2fed257559bdaa0260801c91613d71565b917001000000002c5c85fdf84bd62ae30a74cc0260801c91613d60565b9170010000000058b90bfbf8479bd5a81b51ad0260801c91613d4f565b91700100000000b17217f80f4ef5aadda455540260801c91613d3e565b9170010000000162e42ff0999ce3541b9fffcf0260801c91613d2c565b91700100000002c5c85fe31f35a6a30da1be500260801c91613d1a565b917001000000058b90bfcdee5acd3c1cedc8230260801c91613d08565b9170010000000b17217fba9c739aa5819f44f90260801c91613cf6565b917001000000162e42fff037df38aa2b219f060260801c91613ce4565b9170010000002c5c8601cc6b9e94213c72737a0260801c91613cd2565b91700100000058b90c0b48c6be5df846c5b2ef0260801c91613cc0565b917001000000b1721835514b86e6d96efd1bfe0260801c91613cae565b91700100000162e430e5a18f6119e3c02282a50260801c91613c9b565b917001000002c5c863b73f016468f6bac5ca2b0260801c91613c88565b9170010000058b90cf1e6d97f9ca14dbcc16280260801c91613c75565b91700100000b1721bcfc99d9f890ea069117630260801c91613c62565b9170010000162e43f4f831060e02d839a9d16d0260801c91613c4f565b91700100002c5c89d5ec6ca4d7c8acc017b7c90260801c91613c3c565b917001000058b91b5bc9ae2eed81e9b7d4cfab0260801c91613c29565b9170010000b17255775c040618bf4a4ade83fc0260801c91613c16565b917001000162e525ee054754457d59952920260260801c91613c02565b9170010002c5cc37da9491d0985c348c68e7b30260801c91613bee565b91700100058ba01fb9f96d6cacd4b180917c3d0260801c91613bda565b917001000b175effdc76ba38e31671ca9397250260801c91613bc6565b91700100162f3904051fa128bca9c55c31e5df0260801c91613bb2565b917001002c605e2e8cec506d21bfc89a23a00f0260801c91613b9e565b9170010058c86da1c09ea1ff19d294cf2f679b0260801c91613b8a565b91700100b1afa5abcbed6129ab13ec11dc95430260801c91613b76565b9170010163da9fb33356d84a66ae336dcdfa3f0260801c91613b61565b91700102c9a3e778060ee6f7caca4f7a29bde80260801c91613b4c565b917001059b0d31585743ae7c548eb68ca417fd0260801c91613b37565b9170010b5586cf9890f6298b92b71842a983630260801c91613b22565b917001172b83c7d517adcdf7c8c50eb14a791f0260801c91613b0d565b917001306fe0a31b7152de8d5a46305c85edec0260801c91613af8565b6fb504f333f9de6484597d89b3754abe9f9250613ae356fea26469706673582212204b9343f494ea3711bbf60b0a91ef6381c4f66a6f91db92229666392438aeff0d64736f6c63430008230033","linkReferences":{"src/PartyPoolExtraImpl1.sol":{"PartyPoolExtraImpl1":[{"start":674,"length":20}]},"src/PartyPoolExtraImpl2.sol":{"PartyPoolExtraImpl2":[{"start":1244,"length":20},{"start":4120,"length":20}]}}},"methodIdentifiers":{"_quoteExternal(uint256,uint256,uint256,(int128,int128,int128[]),uint256[],uint256,int128)":"bd44b89c","burnAmounts(address,uint256)":"44e48a9c","burnSwapAmounts(address,uint256,uint256)":"97c64812","denominators(address)":"fc17cfee","fees(address)":"faaebd21","fetchPoolState(address)":"aa48e91b","maxLpForBudget(address,uint256,uint256)":"eea0a29f","mintAmounts(address,uint256)":"bfb5cdc5","poolPrice(address,uint256)":"b9c0d204","price(address,uint256,uint256)":"3a06daa2","swapAmounts(address,uint256,uint256,uint256)":"9626a5a6","swapAmountsForExactOutput(address,uint256,uint256,uint256)":"20c14bab","swapAmountsForExactPrice(address,uint256,uint256,uint256)":"1fb97191","swapMintAmounts(address,uint256,uint256)":"0db4cdda","working(address)":"c757221b"},"id":50}