{"abi":[{"type":"constructor","inputs":[],"stateMutability":"nonpayable"},{"type":"receive","stateMutability":"payable"},{"type":"function","name":"LMSR","inputs":[],"outputs":[{"name":"","type":"tuple","internalType":"struct LMSRStabilized.State","components":[{"name":"kappa","type":"int128","internalType":"int128"},{"name":"qInternal","type":"int128[]","internalType":"int128[]"}]}],"stateMutability":"view"},{"type":"function","name":"allProtocolFeesOwed","inputs":[],"outputs":[{"name":"","type":"uint256[]","internalType":"uint256[]"}],"stateMutability":"view"},{"type":"function","name":"allTokens","inputs":[],"outputs":[{"name":"","type":"address[]","internalType":"contract IERC20[]"}],"stateMutability":"view"},{"type":"function","name":"allowance","inputs":[{"name":"owner","type":"address","internalType":"address"},{"name":"spender","type":"address","internalType":"address"}],"outputs":[{"name":"","type":"uint256","internalType":"uint256"}],"stateMutability":"view"},{"type":"function","name":"approve","inputs":[{"name":"spender","type":"address","internalType":"address"},{"name":"value","type":"uint256","internalType":"uint256"}],"outputs":[{"name":"","type":"bool","internalType":"bool"}],"stateMutability":"nonpayable"},{"type":"function","name":"balanceOf","inputs":[{"name":"account","type":"address","internalType":"address"}],"outputs":[{"name":"","type":"uint256","internalType":"uint256"}],"stateMutability":"view"},{"type":"function","name":"burn","inputs":[{"name":"payer","type":"address","internalType":"address"},{"name":"receiver","type":"address","internalType":"address"},{"name":"lpAmount","type":"uint256","internalType":"uint256"},{"name":"deadline","type":"uint256","internalType":"uint256"},{"name":"unwrap","type":"bool","internalType":"bool"}],"outputs":[{"name":"withdrawAmounts","type":"uint256[]","internalType":"uint256[]"}],"stateMutability":"nonpayable"},{"type":"function","name":"burnSwap","inputs":[{"name":"payer","type":"address","internalType":"address"},{"name":"receiver","type":"address","internalType":"address"},{"name":"lpAmount","type":"uint256","internalType":"uint256"},{"name":"outputTokenIndex","type":"uint256","internalType":"uint256"},{"name":"deadline","type":"uint256","internalType":"uint256"},{"name":"unwrap","type":"bool","internalType":"bool"}],"outputs":[{"name":"amountOut","type":"uint256","internalType":"uint256"},{"name":"outFee","type":"uint256","internalType":"uint256"}],"stateMutability":"nonpayable"},{"type":"function","name":"collectProtocolFees","inputs":[],"outputs":[],"stateMutability":"nonpayable"},{"type":"function","name":"decimals","inputs":[],"outputs":[{"name":"","type":"uint8","internalType":"uint8"}],"stateMutability":"view"},{"type":"function","name":"denominators","inputs":[],"outputs":[{"name":"","type":"uint256[]","internalType":"uint256[]"}],"stateMutability":"view"},{"type":"function","name":"fee","inputs":[{"name":"i","type":"uint256","internalType":"uint256"},{"name":"j","type":"uint256","internalType":"uint256"}],"outputs":[{"name":"","type":"uint256","internalType":"uint256"}],"stateMutability":"view"},{"type":"function","name":"fees","inputs":[],"outputs":[{"name":"","type":"uint256[]","internalType":"uint256[]"}],"stateMutability":"view"},{"type":"function","name":"flashFeePpm","inputs":[],"outputs":[{"name":"","type":"uint256","internalType":"uint256"}],"stateMutability":"view"},{"type":"function","name":"flashLoan","inputs":[{"name":"receiver","type":"address","internalType":"contract IERC3156FlashBorrower"},{"name":"tokenAddr","type":"address","internalType":"address"},{"name":"amount","type":"uint256","internalType":"uint256"},{"name":"data","type":"bytes","internalType":"bytes"}],"outputs":[{"name":"","type":"bool","internalType":"bool"}],"stateMutability":"nonpayable"},{"type":"function","name":"initialMint","inputs":[{"name":"receiver","type":"address","internalType":"address"},{"name":"lpTokens","type":"uint256","internalType":"uint256"}],"outputs":[{"name":"lpMinted","type":"uint256","internalType":"uint256"}],"stateMutability":"payable"},{"type":"function","name":"kappa","inputs":[],"outputs":[{"name":"","type":"int128","internalType":"int128"}],"stateMutability":"view"},{"type":"function","name":"kill","inputs":[],"outputs":[],"stateMutability":"nonpayable"},{"type":"function","name":"killed","inputs":[],"outputs":[{"name":"","type":"bool","internalType":"bool"}],"stateMutability":"view"},{"type":"function","name":"mint","inputs":[{"name":"payer","type":"address","internalType":"address"},{"name":"receiver","type":"address","internalType":"address"},{"name":"lpTokenAmount","type":"uint256","internalType":"uint256"},{"name":"deadline","type":"uint256","internalType":"uint256"}],"outputs":[{"name":"lpMinted","type":"uint256","internalType":"uint256"}],"stateMutability":"payable"},{"type":"function","name":"mintImpl","inputs":[],"outputs":[{"name":"","type":"address","internalType":"contract PartyPoolMintImpl"}],"stateMutability":"view"},{"type":"function","name":"name","inputs":[],"outputs":[{"name":"","type":"string","internalType":"string"}],"stateMutability":"view"},{"type":"function","name":"numTokens","inputs":[],"outputs":[{"name":"","type":"uint256","internalType":"uint256"}],"stateMutability":"view"},{"type":"function","name":"owner","inputs":[],"outputs":[{"name":"","type":"address","internalType":"address"}],"stateMutability":"view"},{"type":"function","name":"protocolFeeAddress","inputs":[],"outputs":[{"name":"","type":"address","internalType":"address"}],"stateMutability":"view"},{"type":"function","name":"protocolFeePpm","inputs":[],"outputs":[{"name":"","type":"uint256","internalType":"uint256"}],"stateMutability":"view"},{"type":"function","name":"renounceOwnership","inputs":[],"outputs":[],"stateMutability":"nonpayable"},{"type":"function","name":"setProtocolFeeAddress","inputs":[{"name":"feeAddress","type":"address","internalType":"address"}],"outputs":[],"stateMutability":"nonpayable"},{"type":"function","name":"swap","inputs":[{"name":"payer","type":"address","internalType":"address"},{"name":"fundingSelector","type":"bytes4","internalType":"bytes4"},{"name":"receiver","type":"address","internalType":"address"},{"name":"inputTokenIndex","type":"uint256","internalType":"uint256"},{"name":"outputTokenIndex","type":"uint256","internalType":"uint256"},{"name":"maxAmountIn","type":"uint256","internalType":"uint256"},{"name":"limitPrice","type":"int128","internalType":"int128"},{"name":"deadline","type":"uint256","internalType":"uint256"},{"name":"unwrap","type":"bool","internalType":"bool"},{"name":"cbData","type":"bytes","internalType":"bytes"}],"outputs":[{"name":"amountIn","type":"uint256","internalType":"uint256"},{"name":"amountOut","type":"uint256","internalType":"uint256"},{"name":"inFee","type":"uint256","internalType":"uint256"}],"stateMutability":"payable"},{"type":"function","name":"swapAmounts","inputs":[{"name":"inputTokenIndex","type":"uint256","internalType":"uint256"},{"name":"outputTokenIndex","type":"uint256","internalType":"uint256"},{"name":"maxAmountIn","type":"uint256","internalType":"uint256"},{"name":"limitPrice","type":"int128","internalType":"int128"}],"outputs":[{"name":"amountIn","type":"uint256","internalType":"uint256"},{"name":"amountOut","type":"uint256","internalType":"uint256"},{"name":"inFee","type":"uint256","internalType":"uint256"}],"stateMutability":"view"},{"type":"function","name":"swapMint","inputs":[{"name":"payer","type":"address","internalType":"address"},{"name":"receiver","type":"address","internalType":"address"},{"name":"inputTokenIndex","type":"uint256","internalType":"uint256"},{"name":"maxAmountIn","type":"uint256","internalType":"uint256"},{"name":"deadline","type":"uint256","internalType":"uint256"}],"outputs":[{"name":"amountInUsed","type":"uint256","internalType":"uint256"},{"name":"lpMinted","type":"uint256","internalType":"uint256"},{"name":"inFee","type":"uint256","internalType":"uint256"}],"stateMutability":"payable"},{"type":"function","name":"swapMintImpl","inputs":[],"outputs":[{"name":"","type":"address","internalType":"contract PartyPoolSwapImpl"}],"stateMutability":"view"},{"type":"function","name":"swapToLimit","inputs":[{"name":"payer","type":"address","internalType":"address"},{"name":"fundingSelector","type":"bytes4","internalType":"bytes4"},{"name":"receiver","type":"address","internalType":"address"},{"name":"inputTokenIndex","type":"uint256","internalType":"uint256"},{"name":"outputTokenIndex","type":"uint256","internalType":"uint256"},{"name":"limitPrice","type":"int128","internalType":"int128"},{"name":"deadline","type":"uint256","internalType":"uint256"},{"name":"unwrap","type":"bool","internalType":"bool"},{"name":"cbData","type":"bytes","internalType":"bytes"}],"outputs":[{"name":"amountInUsed","type":"uint256","internalType":"uint256"},{"name":"amountOut","type":"uint256","internalType":"uint256"},{"name":"inFee","type":"uint256","internalType":"uint256"}],"stateMutability":"payable"},{"type":"function","name":"symbol","inputs":[],"outputs":[{"name":"","type":"string","internalType":"string"}],"stateMutability":"view"},{"type":"function","name":"token","inputs":[{"name":"i","type":"uint256","internalType":"uint256"}],"outputs":[{"name":"","type":"address","internalType":"contract IERC20"}],"stateMutability":"view"},{"type":"function","name":"totalSupply","inputs":[],"outputs":[{"name":"","type":"uint256","internalType":"uint256"}],"stateMutability":"view"},{"type":"function","name":"transfer","inputs":[{"name":"to","type":"address","internalType":"address"},{"name":"value","type":"uint256","internalType":"uint256"}],"outputs":[{"name":"","type":"bool","internalType":"bool"}],"stateMutability":"nonpayable"},{"type":"function","name":"transferFrom","inputs":[{"name":"from","type":"address","internalType":"address"},{"name":"to","type":"address","internalType":"address"},{"name":"value","type":"uint256","internalType":"uint256"}],"outputs":[{"name":"","type":"bool","internalType":"bool"}],"stateMutability":"nonpayable"},{"type":"function","name":"transferOwnership","inputs":[{"name":"newOwner","type":"address","internalType":"address"}],"outputs":[],"stateMutability":"nonpayable"},{"type":"function","name":"wrapperToken","inputs":[],"outputs":[{"name":"","type":"address","internalType":"contract NativeWrapper"}],"stateMutability":"view"},{"type":"event","name":"Approval","inputs":[{"name":"owner","type":"address","indexed":true,"internalType":"address"},{"name":"spender","type":"address","indexed":true,"internalType":"address"},{"name":"value","type":"uint256","indexed":false,"internalType":"uint256"}],"anonymous":false},{"type":"event","name":"Burn","inputs":[{"name":"payer","type":"address","indexed":false,"internalType":"address"},{"name":"receiver","type":"address","indexed":true,"internalType":"address"},{"name":"amounts","type":"uint256[]","indexed":false,"internalType":"uint256[]"},{"name":"lpBurned","type":"uint256","indexed":false,"internalType":"uint256"}],"anonymous":false},{"type":"event","name":"BurnSwap","inputs":[{"name":"payer","type":"address","indexed":true,"internalType":"address"},{"name":"receiver","type":"address","indexed":true,"internalType":"address"},{"name":"tokenOut","type":"address","indexed":true,"internalType":"contract IERC20"},{"name":"amountIn","type":"uint256","indexed":false,"internalType":"uint256"},{"name":"amountOut","type":"uint256","indexed":false,"internalType":"uint256"},{"name":"lpFee","type":"uint256","indexed":false,"internalType":"uint256"},{"name":"protocolFee","type":"uint256","indexed":false,"internalType":"uint256"}],"anonymous":false},{"type":"event","name":"Flash","inputs":[{"name":"initiator","type":"address","indexed":true,"internalType":"address"},{"name":"receiver","type":"address","indexed":true,"internalType":"contract IERC3156FlashBorrower"},{"name":"token","type":"address","indexed":true,"internalType":"contract IERC20"},{"name":"amount","type":"uint256","indexed":false,"internalType":"uint256"},{"name":"lpFee","type":"uint256","indexed":false,"internalType":"uint256"},{"name":"protocolFee","type":"uint256","indexed":false,"internalType":"uint256"}],"anonymous":false},{"type":"event","name":"Killed","inputs":[],"anonymous":false},{"type":"event","name":"Mint","inputs":[{"name":"payer","type":"address","indexed":false,"internalType":"address"},{"name":"receiver","type":"address","indexed":true,"internalType":"address"},{"name":"amounts","type":"uint256[]","indexed":false,"internalType":"uint256[]"},{"name":"lpMinted","type":"uint256","indexed":false,"internalType":"uint256"}],"anonymous":false},{"type":"event","name":"OwnershipTransferred","inputs":[{"name":"previousOwner","type":"address","indexed":true,"internalType":"address"},{"name":"newOwner","type":"address","indexed":true,"internalType":"address"}],"anonymous":false},{"type":"event","name":"ProtocolFeesCollected","inputs":[],"anonymous":false},{"type":"event","name":"Swap","inputs":[{"name":"payer","type":"address","indexed":false,"internalType":"address"},{"name":"receiver","type":"address","indexed":true,"internalType":"address"},{"name":"tokenIn","type":"address","indexed":true,"internalType":"contract IERC20"},{"name":"tokenOut","type":"address","indexed":true,"internalType":"contract IERC20"},{"name":"amountIn","type":"uint256","indexed":false,"internalType":"uint256"},{"name":"amountOut","type":"uint256","indexed":false,"internalType":"uint256"},{"name":"lpFee","type":"uint256","indexed":false,"internalType":"uint256"},{"name":"protocolFee","type":"uint256","indexed":false,"internalType":"uint256"}],"anonymous":false},{"type":"event","name":"SwapMint","inputs":[{"name":"payer","type":"address","indexed":true,"internalType":"address"},{"name":"receiver","type":"address","indexed":true,"internalType":"address"},{"name":"tokenIn","type":"address","indexed":true,"internalType":"contract IERC20"},{"name":"amountIn","type":"uint256","indexed":false,"internalType":"uint256"},{"name":"amountOut","type":"uint256","indexed":false,"internalType":"uint256"},{"name":"lpFee","type":"uint256","indexed":false,"internalType":"uint256"},{"name":"protocolFee","type":"uint256","indexed":false,"internalType":"uint256"}],"anonymous":false},{"type":"event","name":"Transfer","inputs":[{"name":"from","type":"address","indexed":true,"internalType":"address"},{"name":"to","type":"address","indexed":true,"internalType":"address"},{"name":"value","type":"uint256","indexed":false,"internalType":"uint256"}],"anonymous":false},{"type":"error","name":"AddressEmptyCode","inputs":[{"name":"target","type":"address","internalType":"address"}]},{"type":"error","name":"ERC20InsufficientAllowance","inputs":[{"name":"spender","type":"address","internalType":"address"},{"name":"allowance","type":"uint256","internalType":"uint256"},{"name":"needed","type":"uint256","internalType":"uint256"}]},{"type":"error","name":"ERC20InsufficientBalance","inputs":[{"name":"sender","type":"address","internalType":"address"},{"name":"balance","type":"uint256","internalType":"uint256"},{"name":"needed","type":"uint256","internalType":"uint256"}]},{"type":"error","name":"ERC20InvalidApprover","inputs":[{"name":"approver","type":"address","internalType":"address"}]},{"type":"error","name":"ERC20InvalidReceiver","inputs":[{"name":"receiver","type":"address","internalType":"address"}]},{"type":"error","name":"ERC20InvalidSender","inputs":[{"name":"sender","type":"address","internalType":"address"}]},{"type":"error","name":"ERC20InvalidSpender","inputs":[{"name":"spender","type":"address","internalType":"address"}]},{"type":"error","name":"FailedCall","inputs":[]},{"type":"error","name":"InsufficientBalance","inputs":[{"name":"balance","type":"uint256","internalType":"uint256"},{"name":"needed","type":"uint256","internalType":"uint256"}]},{"type":"error","name":"OwnableInvalidOwner","inputs":[{"name":"owner","type":"address","internalType":"address"}]},{"type":"error","name":"OwnableUnauthorizedAccount","inputs":[{"name":"account","type":"address","internalType":"address"}]},{"type":"error","name":"ReentrancyGuardReentrantCall","inputs":[]},{"type":"error","name":"SafeERC20FailedOperation","inputs":[{"name":"token","type":"address","internalType":"address"}]}],"bytecode":{"object":"0x61014080604052346105fa5760017f9b779b17422d0df92223018b32b4d1fa46e071723d6817e2486d003becc55f00556367f855cb60e11b81525f81600481335afa908115610b6f575f91610927575b5060808101908151519160018311156108e25781516006556101408201516001600160a01b0316608052604082015180519093906001600160401b03811161053e57600454600181811c911680156108d8575b60208210146107fe57601f811161088a575b50602094601f8211600114610827579481929394955f9261081c575b50508160011b915f199060031b1c1916176004555b606083015180519093906001600160401b03811161053e57600554600181811c91168015610812575b60208210146107fe57601f81116107c2575b50602094601f821160011461075f579481929394955f92610754575b50508160011b915f199060031b1c1916176005555b60208101516001600160a01b03168015610741575f80546001600160a01b03198116831782556001600160a01b0316907f8be0079c531659141344cd1fd0a4f28419497f9722a3daafe3b4186f6b6457e09080a382518051906001600160401b03821161053e5768010000000000000000821161053e57602090600c5483600c55808410610725575b5001600c5f5260205f205f5b838110610708575050505060a0810151600f0b60a05260c0810191825151845151036106cf57610217835151610c33565b8051906001600160401b03821161053e5768010000000000000000821161053e57602090600754836007558084106106b3575b500160075f5260205f205f5b83811061069f57505050505f5b835180518210156102f85761027b8261271092610c65565b5110156102c15761028d818551610c65565b51906007548110156102ad5760019160075f528160205f20015501610263565b634e487b7160e01b5f52603260045260245ffd5b60405162461bcd60e51b815260206004820152600f60248201526e506f6f6c3a20666565203e3d20312560881b6044820152606490fd5b82868560e081016127108151101561065a575160c052610100810162061a80815110156106155751801580156105fe575b156105fa5760e05261012081810151601180546001600160a01b0319166001600160a01b0392831617905561016083015181169091526101809091015116610100525f5b8281106105b2578261037e81610c33565b8051906001600160401b03821161053e5768010000000000000000821161053e57602090600e5483600e55808410610596575b5001600e5f5260205f205f5b83811061058257846103ce81610c33565b8051906001600160401b03821161053e5768010000000000000000821161053e5760209060105483601055808410610566575b500160105f5260205f205f5b8381106105525761041d85610c33565b8051906001600160401b03821161053e5768010000000000000000821161053e57602090600d5483600d55808410610522575b500190600d5f5260205f20915f5b82811061050e57604051614c1a9081610c7a8239608051818181610dc50152818161101601528181611335015281816115fa01526128f1015260a051818181611ca40152611d0f015260c0518181816120d0015261263c015260e05181818161054a01528181610e9f01528181611dec015281816120f60152818161223d01526124b301526101005181818161031701526105950152610120518181816107a301528181610a1801526125230152f35b60019060208351930192818601550161045e565b61053890600d5f5284845f209182019101610c1d565b83610450565b634e487b7160e01b5f52604160045260245ffd5b60019060208451940193818401550161040d565b61057c9060105f5284845f209182019101610c1d565b84610401565b6001906020845194019381840155016103bd565b6105ac90600e5f5284845f209182019101610c1d565b846103b1565b60018101908181116105e65782516001600160a01b03916105d291610c65565b51165f52600f6020528060405f205561036d565b634e487b7160e01b5f52601160045260245ffd5b5f80fd5b506101208201516001600160a01b03161515610329565b60405162461bcd60e51b815260206004820152601960248201527f506f6f6c3a2070726f746f636f6c20666565203e3d20343025000000000000006044820152606490fd5b60405162461bcd60e51b815260206004820152601560248201527f506f6f6c3a20666c61736820666565203e3d20312500000000000000000000006044820152606490fd5b600190602084519401938184015501610256565b6106c99060075f5284845f209182019101610c1d565b5f61024a565b60405162461bcd60e51b81526020600482015260116024820152700a0deded87440cccacae640d8cadccee8d607b1b6044820152606490fd5b82516001600160a01b0316818301556020909201916001016101e6565b61073b90600c5f5284845f209182019101610c1d565b5f6101da565b631e4fbdf760e01b5f525f60045260245ffd5b015190505f8061013c565b601f1982169560055f52805f20915f5b8881106107aa57508360019596979810610792575b505050811b01600555610151565b01515f1960f88460031b161c191690555f8080610784565b9192602060018192868501518155019401920161076f565b6107ee9060055f5260205f20601f840160051c810191602085106107f4575b601f0160051c0190610c1d565b5f610120565b90915081906107e1565b634e487b7160e01b5f52602260045260245ffd5b90607f169061010e565b015190505f806100d0565b601f1982169560045f52805f20915f5b8881106108725750836001959697981061085a575b505050811b016004556100e5565b01515f1960f88460031b161c191690555f808061084c565b91926020600181928685015181550194019201610837565b60045f526108d2907f8a35acfbc15ff81a39ae7d344fd709f28e8600b4aa8c65c6b64bfe7fe36bd19b601f840160051c810191602085106107f457601f0160051c0190610c1d565b5f6100b4565b90607f16906100a2565b60405162461bcd60e51b815260206004820152601360248201527f506f6f6c3a206e656564203e31206173736574000000000000000000000000006044820152606490fd5b90503d805f833e6109388183610b7a565b8101906020818303126105fa578051906001600160401b0382116105fa57016101a0818303126105fa57604051916101a083016001600160401b0381118482101761053e576040528151835261099060208301610b9d565b602084015260408201516001600160401b0381116105fa57816109b4918401610bb1565b604084015260608201516001600160401b0381116105fa57816109d8918401610bb1565b606084015260808201516001600160401b0381116105fa57820181601f820112156105fa578051610a0881610c06565b91610a166040519384610b7a565b81835260208084019260051b820101908482116105fa57602001915b818310610b4f57505050608084015260a082015180600f0b81036105fa5760a084015260c08201516001600160401b0381116105fa5782019080601f830112156105fa578151610a8181610c06565b92610a8f6040519485610b7a565b81845260208085019260051b8201019283116105fa57602001905b828210610b3f5750505060c083015260e081015160e0830152610100810151610100830152610adc6101208201610b9d565b6101208301526101408101516001600160a01b03811681036105fa57610140830152610160810151906001600160a01b03821682036105fa5761016083019190915261018001516001600160a01b03811681036105fa576101808201525f61004f565b8151815260209182019101610aaa565b82516001600160a01b03811681036105fa57815260209283019201610a32565b6040513d5f823e3d90fd5b601f909101601f19168101906001600160401b0382119082101761053e57604052565b51906001600160a01b03821682036105fa57565b81601f820112156105fa578051906001600160401b03821161053e5760405192610be5601f8401601f191660200185610b7a565b828452602083830101116105fa57815f9260208093018386015e8301015290565b6001600160401b03811161053e5760051b60200190565b818110610c28575050565b5f8155600101610c1d565b90610c3d82610c06565b610c4a6040519182610b7a565b8281528092610c5b601f1991610c06565b0190602036910137565b80518210156102ad5760209160051b01019056fe608080604052600436101561001c575b50361561001a575f80fd5b005b5f905f3560e01c908163017504b614612bfe57508063017cf66114612b6c578063044215c614612b0b57806306fdde03146129c2578063095ea7b3146129155780630d246214146128a757806318160ddd1461286c5780631f3a0e411461282c57806323b872dd14612698578063313ce5671461265f57806331596a6a1461260757806341c0e1b5146125755780634264c8bc14612358578063476e44b614612298578063491e7998146121715780635cffe9de14611f9a5780636863f5bc14611e0f5780636b4082d114611db75780636b7b911214611d355780636bba3f2f14611cda5780636d8d0ff314611c205780636ff97f1d14611b205780637030545214610c1057806370a0823114610bad578063715018a614610b115780638da5cb5b14610ac05780638e499bcf14610a84578063939f5ea414610a3c57806395176066146109cd57806395d89b411461086b5780639af1d35a146107cc578063a1af5b9a14610703578063a9059cbb146106b3578063b3f1c93d146105e6578063cb717f3a14610491578063cce516b71461043f578063d516b8c6146103b4578063dd62ed3e1461033b578063f0d1ae4f146102cc5763f2fde38b0361000f57346102c95760207ffffffffffffffffffffffffffffffffffffffffffffffffffffffffffffffffc3601126102c95773ffffffffffffffffffffffffffffffffffffffff610228612d08565b6102306131ec565b16801561029d5773ffffffffffffffffffffffffffffffffffffffff8254827fffffffffffffffffffffffff00000000000000000000000000000000000000008216178455167f8be0079c531659141344cd1fd0a4f28419497f9722a3daafe3b4186f6b6457e08380a380f35b6024827f1e4fbdf700000000000000000000000000000000000000000000000000000000815280600452fd5b80fd5b50346102c957807ffffffffffffffffffffffffffffffffffffffffffffffffffffffffffffffffc3601126102c957602060405173ffffffffffffffffffffffffffffffffffffffff7f0000000000000000000000000000000000000000000000000000000000000000168152f35b50346102c95760407ffffffffffffffffffffffffffffffffffffffffffffffffffffffffffffffffc3601126102c95773ffffffffffffffffffffffffffffffffffffffff604061038a612d08565b9282610394612d2b565b9416815260026020522091165f52602052602060405f2054604051908152f35b50346102c95760807ffffffffffffffffffffffffffffffffffffffffffffffffffffffffffffffffc3601126102c95760043590602435916064359182600f0b83036102c95761043b61041785858561040d838261351e565b9260443591613362565b92505050604093919351938493846040919493926060820195825260208201520152565b0390f35b50346102c957807ffffffffffffffffffffffffffffffffffffffffffffffffffffffffffffffffc3601126102c957602073ffffffffffffffffffffffffffffffffffffffff60115416604051908152f35b5060a07ffffffffffffffffffffffffffffffffffffffffffffffffffffffffffffffffc3601126102c95761043b6105c96105ba6104cd612d08565b6104d5612d2b565b60443573ffffffffffffffffffffffffffffffffffffffff6104f682613342565b9281604051957f3dd3c8050000000000000000000000000000000000000000000000000000000060208801521660248601521660448401526064830152606435608483015260843560a483015260c48201527f000000000000000000000000000000000000000000000000000000000000000060e482015260e4815261057e61010482612dbc565b73ffffffffffffffffffffffffffffffffffffffff7f000000000000000000000000000000000000000000000000000000000000000016613289565b60208082518301019101612f22565b604080519384526020840192909252908201529081906060820190565b5060807ffffffffffffffffffffffffffffffffffffffffffffffffffffffffffffffffc3601126102c95761068f61061c612d08565b73ffffffffffffffffffffffffffffffffffffffff610639612d2b565b81604051937fb3f1c93d000000000000000000000000000000000000000000000000000000006020860152166024840152166044820152604435606482015260643560848201526084815261057e60a482612dbc565b602081519181808201938492010103126106af5760209051604051908152f35b5f80fd5b50346102c95760407ffffffffffffffffffffffffffffffffffffffffffffffffffffffffffffffffc3601126102c9576106f86106ee612d08565b60243590336130c7565b602060405160018152f35b50346102c957807ffffffffffffffffffffffffffffffffffffffffffffffffffffffffffffffffc3601126102c9576107c873ffffffffffffffffffffffffffffffffffffffff60115416604051907f2a54db0100000000000000000000000000000000000000000000000000000000602083015260248201526024815261078c604482612dbc565b73ffffffffffffffffffffffffffffffffffffffff7f000000000000000000000000000000000000000000000000000000000000000016613289565b5080f35b50346102c957807ffffffffffffffffffffffffffffffffffffffffffffffffffffffffffffffffc3601126102c95760405180916020600754928381520191600782527fa66cc928b5edb82af9bd49922954155ab7b0942694bea4ce44661d9a8736c688915b8181106108555761043b8561084981870382612dbc565b60405191829182612c8c565b8254845260209093019260019283019201610832565b50346102c957807ffffffffffffffffffffffffffffffffffffffffffffffffffffffffffffffffc3601126102c9576040519080600554908160011c916001811680156109c3575b6020841081146109965783865290811561095157506001146108f4575b61043b846108e081860382612dbc565b604051918291602083526020830190612cc5565b600581527f036b6384b5eca791c62761152d0c79bb0604c104a5fb6f4eb0703f3154bb3db0939250905b808210610937575090915081016020016108e0826108d0565b91926001816020925483858801015201910190929161091e565b7fffffffffffffffffffffffffffffffffffffffffffffffffffffffffffffff001660208087019190915292151560051b850190920192506108e091508390506108d0565b6024837f4e487b710000000000000000000000000000000000000000000000000000000081526022600452fd5b92607f16926108b3565b50346102c957807ffffffffffffffffffffffffffffffffffffffffffffffffffffffffffffffffc3601126102c957602060405173ffffffffffffffffffffffffffffffffffffffff7f0000000000000000000000000000000000000000000000000000000000000000168152f35b50346102c95760407ffffffffffffffffffffffffffffffffffffffffffffffffffffffffffffffffc3601126102c9576020610a7c60243560043561351e565b604051908152f35b50346102c957807ffffffffffffffffffffffffffffffffffffffffffffffffffffffffffffffffc3601126102c9576020600c54604051908152f35b50346102c957807ffffffffffffffffffffffffffffffffffffffffffffffffffffffffffffffffc3601126102c95773ffffffffffffffffffffffffffffffffffffffff6020915416604051908152f35b50346102c957807ffffffffffffffffffffffffffffffffffffffffffffffffffffffffffffffffc3601126102c957610b486131ec565b8073ffffffffffffffffffffffffffffffffffffffff81547fffffffffffffffffffffffff000000000000000000000000000000000000000081168355167f8be0079c531659141344cd1fd0a4f28419497f9722a3daafe3b4186f6b6457e08280a380f35b50346102c95760207ffffffffffffffffffffffffffffffffffffffffffffffffffffffffffffffffc3601126102c957604060209173ffffffffffffffffffffffffffffffffffffffff610bff612d08565b168152600183522054604051908152f35b506101407ffffffffffffffffffffffffffffffffffffffffffffffffffffffffffffffffc3601126106af57610c44612d08565b90610c4d612d71565b91610c56612d4e565b91606435936084359360c4359384600f0b968786036106af5760e43592610104359687151588036106af576101243567ffffffffffffffff81116106af57610ca2903690600401612e37565b9460027f9b779b17422d0df92223018b32b4d1fa46e071723d6817e2486d003becc55f005414611af85760027f9b779b17422d0df92223018b32b4d1fa46e071723d6817e2486d003becc55f005560ff60095416611a9a578015908115611a8f575b5015611a3157610d2390610d188a85613238565b9060a4358b86613362565b9b949c9291939d905073ffffffffffffffffffffffffffffffffffffffff610d4a88612e7d565b90549060031b1c169873ffffffffffffffffffffffffffffffffffffffff610d7185612e7d565b90549060031b1c169a7fffffffff00000000000000000000000000000000000000000000000000000000811680155f146115ba5750505050909192939473ffffffffffffffffffffffffffffffffffffffff7f000000000000000000000000000000000000000000000000000000000000000016808914806115b0575b156114e357803b156114df578a8d916004604051809481937fd0e30db00000000000000000000000000000000000000000000000000000000083525af180156114d4578b8f989796959493928f926114aa575b5050610e79610e9b915b610e74610e5785612ec2565b90549060031b1c610e6786612eda565b90549060031b1c90612fd1565b612fd1565b97610e96610e8686612ec2565b90549060031b1c610e6787612eda565b61300b565b8b977f00000000000000000000000000000000000000000000000000000000000000008e811515806114a1575b611418575b5050610f6b91610f4d610f0e610f6293610ef8610ee988612eda565b90549060031b1c821015613062565b610f0187612eda565b90549060031b1c9061300b565b610f1786612ec2565b9091907fffffffffffffffffffffffffffffffffffffffffffffffffffffffffffffffff83549160031b92831b921b1916179055565b610f59610ee987612eda565b610f0186612eda565b610f1785612ec2565b8a82600f0b13156113ba578a84600f0b131561135c57610ff493610fdc82610fb4610fae610fb496610f9f610fae976134de565b90549060031b1c600f0b6135e1565b916134de565b9091906fffffffffffffffffffffffffffffffff83549160031b928116831b921b1916179055565b610fe5846134de565b90549060031b1c600f0b613639565b8061131d575b1561122c5773ffffffffffffffffffffffffffffffffffffffff7f000000000000000000000000000000000000000000000000000000000000000016803b156112285786809160248c60405194859384927f2e1a7d4d00000000000000000000000000000000000000000000000000000000845260048401525af1801561121d57908791611204575b508080808c855af13d156111ff573d61109b81612dfd565b906110a96040519283612dbc565b81528760203d92013e5b156111a15773ffffffffffffffffffffffffffffffffffffffff60a0917f6950339c7661cca450281e53722525cc136590e622b011d5be7e4c4993685a6c935b6110fd818b61300b565b83604051971687528b60208801528c6040880152606087015260808601521692a460017f9b779b17422d0df92223018b32b4d1fa46e071723d6817e2486d003becc55f00554780158015611170575b50505061043b90604051938493846040919493926060820195825260208201520152565b8280809381938290611198575b3390f11561118c57808061114c565b604051903d90823e3d90fd5b506108fc61117d565b60646040517f08c379a000000000000000000000000000000000000000000000000000000000815260206004820152601460248201527f7265636569766572206e6f742070617961626c650000000000000000000000006044820152fd5b6110b3565b8161120e91612dbc565b61121957855f611083565b8580fd5b6040513d89823e3d90fd5b8680fd5b906040517fa9059cbb00000000000000000000000000000000000000000000000000000000875273ffffffffffffffffffffffffffffffffffffffff831660045289602452602087604481808a5af19060018851148216156112fc575b604052156112d05773ffffffffffffffffffffffffffffffffffffffff7f6950339c7661cca450281e53722525cc136590e622b011d5be7e4c4993685a6c9260a0926110f3565b602486867f5274afe7000000000000000000000000000000000000000000000000000000008252600452fd5b90600181151661131457863b15153d15161690611289565b503d87823e3d90fd5b5073ffffffffffffffffffffffffffffffffffffffff7f0000000000000000000000000000000000000000000000000000000000000000168514610ffa565b60646040517f08c379a000000000000000000000000000000000000000000000000000000000815260206004820152601460248201527f4c4d53523a20616d6f756e744f7574203c3d20300000000000000000000000006044820152fd5b60646040517f08c379a000000000000000000000000000000000000000000000000000000000815260206004820152601360248201527f4c4d53523a20616d6f756e74496e203c3d2030000000000000000000000000006044820152fd5b610f62929a50610f0e620f4240611436610f6b9694610f4d94613018565b049b8c611449575b93505050918e610ecd565b61149c8d6114686114598a612eda565b91909283548360031b1c612fd1565b907fffffffffffffffffffffffffffffffffffffffffffffffffffffffffffffffff83549160031b92831b921b1916179055565b61143e565b50801515610ec8565b8193949596979899506114bd9250612dbc565b6114d057908c95949392918c8b5f610e41565b8980fd5b6040513d8d823e3d90fd5b8a80fd5b506040517f23b872dd000000000000000000000000000000000000000000000000000000008b5273ffffffffffffffffffffffffffffffffffffffff8816600452306024528c60445260208b606481808d5af19060018c511482161561158f575b6040528a6060521561156357908c9594939291610e9b610e798e610e4b565b60248a897f5274afe7000000000000000000000000000000000000000000000000000000008252600452fd5b9060018115166115a757893b15153d15161690611544565b503d8b823e3d90fd5b508c341015610dee565b7c0100000000000000000000000000000000000000000000000000000000036118425750506117be5773ffffffffffffffffffffffffffffffffffffffff7f00000000000000000000000000000000000000000000000000000000000000001695868914806117b4575b1561169f57863b156106af575f8d976004604051809a81937fd0e30db00000000000000000000000000000000000000000000000000000000083525af18015611694578e978e9161167d575b50610e79610e9b91610e4b565b61168a919c505f90612dbc565b5f9a610e79611670565b6040513d5f823e3d90fd5b95506040517f70a082310000000000000000000000000000000000000000000000000000000081523060048201526020816024818c5afa8015611694578d915f9161177d575b5061170c906117066116f68a612ec2565b90549060031b1c610e678b612eda565b9061300b565b0361171f578c95610e9b610e798e610e4b565b60646040517f08c379a000000000000000000000000000000000000000000000000000000000815260206004820152601b60248201527f496e636f72726563742070726566756e64696e6720616d6f756e7400000000006044820152fd5b9150506020813d6020116117ac575b8161179960209383612dbc565b810103126106af57518c9061170c6116e5565b3d915061178c565b508c341015611624565b60846040517f08c379a000000000000000000000000000000000000000000000000000000000815260206004820152602c60248201527f50726566756e64696e672063616e6e6f7420626520757365642077697468206160448201527f206c696d697420707269636500000000000000000000000000000000000000006064820152fd5b6040517f70a08231000000000000000000000000000000000000000000000000000000008152306004820152919250906020816024818e5afa918215611694578f8c925f946119f6575b50906118c96118fb94956118f5936006549560405196879560208701526024860152604485015260648401526080608484015260a4830190612cc5565b037fffffffffffffffffffffffffffffffffffffffffffffffffffffffffffffffe08101835282612dbc565b896138fb565b50604051907f70a082310000000000000000000000000000000000000000000000000000000082523060048301526020826024818d5afa8015611694578e925f916119bd575b509061194c9161300b565b0361195f578c95610e9b610e798e610e4b565b60646040517f08c379a000000000000000000000000000000000000000000000000000000000815260206004820152601260248201527f496e73756666696369656e742066756e647300000000000000000000000000006044820152fd5b919250506020813d6020116119ee575b816119da60209383612dbc565b810103126106af57518d919061194c611941565b3d91506119cd565b92505091506020813d602011611a29575b81611a1460209383612dbc565b810103126106af5751908a908f6118c961188c565b3d9150611a07565b60646040517f08c379a000000000000000000000000000000000000000000000000000000000815260206004820152601760248201527f737761703a20646561646c696e652065786365656465640000000000000000006044820152fd5b90504211155f610d04565b60646040517f08c379a000000000000000000000000000000000000000000000000000000000815260206004820152600660248201527f6b696c6c656400000000000000000000000000000000000000000000000000006044820152fd5b7f3ee5aeb5000000000000000000000000000000000000000000000000000000005f5260045ffd5b346106af575f7ffffffffffffffffffffffffffffffffffffffffffffffffffffffffffffffffc3601126106af57604051806020600c5492838152018092600c5f527fdf6966c971051c3d54ec59162606531493a51404a002842f56009d7e5cf4a8c7905f5b818110611bf45750505081611b9c910382612dbc565b604051918291602083019060208452518091526040830191905f5b818110611bc5575050500390f35b825173ffffffffffffffffffffffffffffffffffffffff16845285945060209384019390920191600101611bb7565b825473ffffffffffffffffffffffffffffffffffffffff16845260209093019260019283019201611b86565b60407ffffffffffffffffffffffffffffffffffffffffffffffffffffffffffffffffc3601126106af5761068f611c55612d08565b73ffffffffffffffffffffffffffffffffffffffff604051917fc5eabfb900000000000000000000000000000000000000000000000000000000602084015216602482015260243560448201527f0000000000000000000000000000000000000000000000000000000000000000600f0b60648201526064815261057e608482612dbc565b346106af575f7ffffffffffffffffffffffffffffffffffffffffffffffffffffffffffffffffc3601126106af5760206040517f0000000000000000000000000000000000000000000000000000000000000000600f0b8152f35b346106af5760207ffffffffffffffffffffffffffffffffffffffffffffffffffffffffffffffffc3601126106af5773ffffffffffffffffffffffffffffffffffffffff611d81612d08565b611d896131ec565b167fffffffffffffffffffffffff000000000000000000000000000000000000000060115416176011555f80f35b346106af575f7ffffffffffffffffffffffffffffffffffffffffffffffffffffffffffffffffc3601126106af5760206040517f00000000000000000000000000000000000000000000000000000000000000008152f35b346106af5760a07ffffffffffffffffffffffffffffffffffffffffffffffffffffffffffffffffc3601126106af57611e46612d08565b611e4e612d2b565b906084358015158091036106af5773ffffffffffffffffffffffffffffffffffffffff611ed09381604051947f6863f5bc0000000000000000000000000000000000000000000000000000000060208701521660248501521660448301526044356064830152606435608483015260a482015260a4815261057e60c482612dbc565b80518101906020818184019303126106af5760208101519067ffffffffffffffff82116106af57019080603f830112156106af5760208201519167ffffffffffffffff8311611f6d578260051b9060405193611f2f6020840186612dbc565b845260208080860193830101019283116106af57604001905b828210611f5d576040518061043b8682612c8c565b8151815260209182019101611f48565b7f4e487b71000000000000000000000000000000000000000000000000000000005f52604160045260245ffd5b346106af5760807ffffffffffffffffffffffffffffffffffffffffffffffffffffffffffffffffc3601126106af5760043573ffffffffffffffffffffffffffffffffffffffff81168091036106af57611ff2612d2b565b60643567ffffffffffffffff81116106af57366023820112156106af5780600401359067ffffffffffffffff82116106af5736602483830101116106af5761214b937fffffffffffffffffffffffffffffffffffffffffffffffffffffffffffffffe0601f8461078c9560246101049673ffffffffffffffffffffffffffffffffffffffff6040519a8b987fe49cd4750000000000000000000000000000000000000000000000000000000060208b0152848a0152166044880152604435606488015260c060848801528260e488015201868601375f8582860101527f000000000000000000000000000000000000000000000000000000000000000060a48501527f000000000000000000000000000000000000000000000000000000000000000060c48501520116810103017fffffffffffffffffffffffffffffffffffffffffffffffffffffffffffffffe08101835282612dbc565b6020818051810103126106af57602001518015158091036106af57602090604051908152f35b346106af5760c07ffffffffffffffffffffffffffffffffffffffffffffffffffffffffffffffffc3601126106af576121a8612d08565b6121b0612d2b565b906064359160a4358015158091036106af578373ffffffffffffffffffffffffffffffffffffffff6121e461227396613342565b9381604051967f8d01fa440000000000000000000000000000000000000000000000000000000060208901521660248701521660448501526044356064850152608484015260843560a484015260c483015260e48201527f0000000000000000000000000000000000000000000000000000000000000000610104820152610104815261057e61012482612dbc565b6040818051810103126106af5780604060208193015191015182519182526020820152f35b346106af575f7ffffffffffffffffffffffffffffffffffffffffffffffffffffffffffffffffc3601126106af57606060206040516122d681612da0565b5f815201526040516122e781612da0565b600a54600f0b81526122f7612f3d565b6020820190815260405191829160208352606083019151600f0b6020840152519060408084015281518091526020608084019201905f5b81811061233c575050500390f35b8251600f0b84528594506020938401939092019160010161232e565b6101207ffffffffffffffffffffffffffffffffffffffffffffffffffffffffffffffffc3601126106af5761238b612d08565b612393612d71565b9061239c612d4e565b60643560843560a43580600f0b8091036106af5760e435918215158093036106af576101043567ffffffffffffffff81116106af576123df903690600401612e37565b936123ea8282613238565b9560405198899860208a017f756b160c00000000000000000000000000000000000000000000000000000000905273ffffffffffffffffffffffffffffffffffffffff1660248a01527fffffffff0000000000000000000000000000000000000000000000000000000016604489015273ffffffffffffffffffffffffffffffffffffffff166064880152608487015260a486015260c485015260c43560e48501526101048401526101248301610160905261018483016124aa91612cc5565b906101448301527f0000000000000000000000000000000000000000000000000000000000000000610164830152037fffffffffffffffffffffffffffffffffffffffffffffffffffffffffffffffe0810182526125089082612dbc565b6125489073ffffffffffffffffffffffffffffffffffffffff7f000000000000000000000000000000000000000000000000000000000000000016613289565b80518101602001906020019061255d91612f22565b60408051938452602084019290925290820152606090f35b346106af575f7ffffffffffffffffffffffffffffffffffffffffffffffffffffffffffffffffc3601126106af576125ab6131ec565b60095460ff8116156125b957005b7fffffffffffffffffffffffffffffffffffffffffffffffffffffffffffffff00166001176009557f0f8eeedbc400fd6686703559f58d1e6143fdaed533f19a86c93d67a2fe4fb3315f80a1005b346106af575f7ffffffffffffffffffffffffffffffffffffffffffffffffffffffffffffffffc3601126106af5760206040517f00000000000000000000000000000000000000000000000000000000000000008152f35b346106af575f7ffffffffffffffffffffffffffffffffffffffffffffffffffffffffffffffffc3601126106af57602060405160128152f35b346106af5760607ffffffffffffffffffffffffffffffffffffffffffffffffffffffffffffffffc3601126106af576126cf612d08565b6126d7612d2b565b6044359073ffffffffffffffffffffffffffffffffffffffff831692835f52600260205260405f2073ffffffffffffffffffffffffffffffffffffffff33165f5260205260405f20547fffffffffffffffffffffffffffffffffffffffffffffffffffffffffffffffff8110612753575b506106f893506130c7565b8381106127f85784156127cc5733156127a0576106f8945f52600260205260405f2073ffffffffffffffffffffffffffffffffffffffff33165f526020528360405f209103905584612748565b7f94280d62000000000000000000000000000000000000000000000000000000005f525f60045260245ffd5b7fe602df05000000000000000000000000000000000000000000000000000000005f525f60045260245ffd5b83907ffb8f41b2000000000000000000000000000000000000000000000000000000005f523360045260245260445260645ffd5b346106af575f7ffffffffffffffffffffffffffffffffffffffffffffffffffffffffffffffffc3601126106af57602060ff600954166040519015158152f35b346106af575f7ffffffffffffffffffffffffffffffffffffffffffffffffffffffffffffffffc3601126106af576020600354604051908152f35b346106af575f7ffffffffffffffffffffffffffffffffffffffffffffffffffffffffffffffffc3601126106af57602060405173ffffffffffffffffffffffffffffffffffffffff7f0000000000000000000000000000000000000000000000000000000000000000168152f35b346106af5760407ffffffffffffffffffffffffffffffffffffffffffffffffffffffffffffffffc3601126106af5761294c612d08565b6024359033156127cc5773ffffffffffffffffffffffffffffffffffffffff169081156127a057335f52600260205260405f20825f526020528060405f20556040519081527f8c5be1e5ebec7d5bd14f71427d1e84f3dd0314c0f7b2291e5b200ac8c7c3b92560203392a3602060405160018152f35b346106af575f7ffffffffffffffffffffffffffffffffffffffffffffffffffffffffffffffffc3601126106af576040515f6004548060011c90600181168015612b01575b602083108114612ad457828552908115612a925750600114612a34575b61043b836108e081850382612dbc565b91905060045f527f8a35acfbc15ff81a39ae7d344fd709f28e8600b4aa8c65c6b64bfe7fe36bd19b915f905b808210612a78575090915081016020016108e0612a24565b919260018160209254838588010152019101909291612a60565b7fffffffffffffffffffffffffffffffffffffffffffffffffffffffffffffff001660208086019190915291151560051b840190910191506108e09050612a24565b7f4e487b71000000000000000000000000000000000000000000000000000000005f52602260045260245ffd5b91607f1691612a07565b346106af5760207ffffffffffffffffffffffffffffffffffffffffffffffffffffffffffffffffc3601126106af57602073ffffffffffffffffffffffffffffffffffffffff612b5c600435612e7d565b90549060031b1c16604051908152f35b346106af575f7ffffffffffffffffffffffffffffffffffffffffffffffffffffffffffffffffc3601126106af57604051806020600e54918281520190600e5f527fbb7b4a454dc3493923482f07822329ed19e8244eff582cc204f8554c3620c3fd905f5b818110612be85761043b8561084981870382612dbc565b8254845260209093019260019283019201612bd1565b346106af575f7ffffffffffffffffffffffffffffffffffffffffffffffffffffffffffffffffc3601126106af57600d548082526020820190600d5f527fd7b6990105719101dabeb77144f2a3385c8033acd3af97e9423a695e81ad1eb5905f5b818110612c765761043b8561084981870382612dbc565b8254845260209093019260019283019201612c5f565b60206040818301928281528451809452019201905f5b818110612caf5750505090565b8251845260209384019390920191600101612ca2565b907fffffffffffffffffffffffffffffffffffffffffffffffffffffffffffffffe0601f602080948051918291828752018686015e5f8582860101520116010190565b6004359073ffffffffffffffffffffffffffffffffffffffff821682036106af57565b6024359073ffffffffffffffffffffffffffffffffffffffff821682036106af57565b6044359073ffffffffffffffffffffffffffffffffffffffff821682036106af57565b602435907fffffffff00000000000000000000000000000000000000000000000000000000821682036106af57565b6040810190811067ffffffffffffffff821117611f6d57604052565b90601f7fffffffffffffffffffffffffffffffffffffffffffffffffffffffffffffffe0910116810190811067ffffffffffffffff821117611f6d57604052565b67ffffffffffffffff8111611f6d57601f017fffffffffffffffffffffffffffffffffffffffffffffffffffffffffffffffe01660200190565b81601f820112156106af57803590612e4e82612dfd565b92612e5c6040519485612dbc565b828452602083830101116106af57815f926020809301838601378301015290565b600c54811015612e9557600c5f5260205f2001905f90565b7f4e487b71000000000000000000000000000000000000000000000000000000005f52603260045260245ffd5b601054811015612e955760105f5260205f2001905f90565b600d54811015612e9557600d5f5260205f2001905f90565b600754811015612e955760075f5260205f2001905f90565b600e54811015612e9557600e5f5260205f2001905f90565b908160609103126106af578051916040602083015192015190565b60405190600b548083528260208101600b5f5260205f20925f905b806001830110612fa557612f7e945491818110612f91575b10612f80575b500383612dbc565b565b60801d600f0b81526020015f612f76565b92602060019184600f0b8152019301612f70565b9160029193506040600191865480600f0b825260801d600f0b6020820152019401920185929391612f58565b91908201809211612fde57565b7f4e487b71000000000000000000000000000000000000000000000000000000005f52601160045260245ffd5b91908203918211612fde57565b81810292918115918404141715612fde57565b8115613035570490565b7f4e487b71000000000000000000000000000000000000000000000000000000005f52601260045260245ffd5b1561306957565b60646040517f08c379a000000000000000000000000000000000000000000000000000000000815260206004820152601760248201527f62616c616e6365203c2070726f746f636f6c206f7765640000000000000000006044820152fd5b73ffffffffffffffffffffffffffffffffffffffff169081156131c05773ffffffffffffffffffffffffffffffffffffffff1691821561319457815f52600160205260405f205481811061316257817fddf252ad1be2c89b69c2b068fc378daa952ba7f163c4a11628f55a4df523b3ef92602092855f52600184520360405f2055845f526001825260405f20818154019055604051908152a3565b827fe450d38c000000000000000000000000000000000000000000000000000000005f5260045260245260445260645ffd5b7fec442f05000000000000000000000000000000000000000000000000000000005f525f60045260245ffd5b7f96c6fd1e000000000000000000000000000000000000000000000000000000005f525f60045260245ffd5b73ffffffffffffffffffffffffffffffffffffffff5f5416330361320c57565b7f118cdaa7000000000000000000000000000000000000000000000000000000005f523360045260245ffd5b9190826103e8026103e881048403612fde578161325491612fd1565b90815f52600860205260405f205493841561326e57505050565b61327992945061351e565b915f5260086020528160405f2055565b905f8091602081519101845af4808061332f575b156132af5750506132ac61353b565b90565b156132f65773ffffffffffffffffffffffffffffffffffffffff907f9996b315000000000000000000000000000000000000000000000000000000005f521660045260245ffd5b3d15613307576040513d5f823e3d90fd5b7fd6bda275000000000000000000000000000000000000000000000000000000005f5260045ffd5b503d15158061329d5750813b151561329d565b6007541561335d5761335390612ef2565b90549060031b1c90565b505f90565b9294939491909161338e6133768784613554565b905061338186612f0a565b90549060031b1c90613676565b905f82600f0b1315613480576133b4918486600a54600f0b6133ae612f3d565b90613932565b9190926133d383946133c68197612f0a565b90549060031b1c90613576565b925f9284988061345f575b508811613401576133f16133fe92612f0a565b90549060031b1c906138a0565b94565b60646040517f08c379a000000000000000000000000000000000000000000000000000000000815260206004820152601a60248201527f737761703a207472616e736665722065786365656473206d61780000000000006044820152fd5b90985061346e919350846135a8565b916134798385612fd1565b975f6133de565b60646040517f08c379a000000000000000000000000000000000000000000000000000000000815260206004820152601f60248201527f737761703a20696e70757420746f6f20736d616c6c20616674657220666565006044820152fd5b90600b54821015612e9557600b5f52600182901c7f0175b7a638427703f0dbe7bb9bbf987a2551717b34e79f33b5b1008d1fa01db9019160041b60101690565b90610e6761352e6132ac93612ef2565b90549060031b1c91612ef2565b604051903d82523d5f602084013e60203d830101604052565b91908015613570576135696132ac91846135a8565b809361300b565b505f9190565b61358a61358383836138a0565b9283613676565b90600f0b90600f0b1261359a5790565b60018101809111612fde5790565b9080156135db576135b891613018565b620f4240810190818111612fde57620f423f01908111612fde57620f4240900490565b50505f90565b90600f0b90600f0b017fffffffffffffffffffffffffffffffff800000000000000000000000000000008112158061361f575b156106af57600f0b90565b506f7fffffffffffffffffffffffffffffff811315613614565b90600f0b90600f0b037fffffffffffffffffffffffffffffffff800000000000000000000000000000008112158061361f57156106af57600f0b90565b81156106af5777ffffffffffffffffffffffffffffffffffffffffffffffff81116136ee57906136a89160401b61302b565b6fffffffffffffffffffffffffffffffff81116106af576fffffffffffffffffffffffffffffffff166f7fffffffffffffffffffffffffffffff81116106af57600f0b90565b60c09181831c8093640100000000821015613893575b60028262010000613791941015613887575b61010081101561387b575b601081101561386f575b6004811015613864575b101561385c575b8360017fffffffffffffffffffffffffffffffffffffffffffffffffffffffffffffffff85017fffffffffffffffffffffffffffffffffffffffffffffffffffffffffffffff4184011c019160ff031b61302b565b926fffffffffffffffffffffffffffffffff84116106af578160801c8402906fffffffffffffffffffffffffffffffff8316850290809460401b90828210613832575b5003928160801b91828510613809575b60801c036137fe576137f6920361302b565b905b016136a8565b5050506001906137f8565b907fffffffffffffffffffffffffffffffffffffffffffffffffffffffffffffffff01906137e4565b7fffffffffffffffffffffffffffffffffffffffffffffffffffffffffffffffff0194505f6137d4565b60010161373c565b91810191811c613735565b6004928301921c61372b565b6008928301921c613721565b6010928301921c613716565b505060e082811c90613704565b81156135db57600f0b5f81126106af576fffffffffffffffffffffffffffffffff8216810260401c9160801c0277ffffffffffffffffffffffffffffffffffffffffffffffff81116106af5760401b811981116106af570190565b905f809160208151910182855af1808061332f57156132af5750506132ac61353b565b8051821015612e955760209160051b010190565b955f959194939092849290875b875189101561396a576139626001916139588b8b61391e565b51600f0b906135e1565b98019761393f565b909294975097909294975f81600f0b1315613da85761398891613e06565b9384600f0b80156106af5770010000000000000000000000000000000005917fffffffffffffffffffffffffffffffff8000000000000000000000000000000083121580613d8e575b156106af57613a0d613a1291613a086139f095600f0b9586928b61391e565b51600f0b6139fe898c61391e565b51600f0b90613639565b613e06565b613e46565b9280600f0b905f8213613bfe575b505090613a2c91613e06565b80600f0b682000000000000000008113613b7a577fffffffffffffffffffffffffffffffff80000000000000000000000000000000146106af57613a74905f03600f0b613e46565b600f0b6801000000000000000003907fffffffffffffffffffffffffffffffff8000000000000000000000000000000082121580613b60575b156106af57613abf91600f0b90613e06565b600f0b68010000000000000000017fffffffffffffffffffffffffffffffff8000000000000000000000000000000081121580613b46575b156106af57600f0b925f841315613b32575050613b16613b1c92613ea3565b90613e06565b905f82600f0b1315613b2a57565b5f9250829150565b909150613b3f925061391e565b51600f0b90565b506f7fffffffffffffffffffffffffffffff811315613af7565b506f7fffffffffffffffffffffffffffffff821315613aad565b60846040517f08c379a000000000000000000000000000000000000000000000000000000000815260206004820152602860248201527f4c4d53523a20612f6220746f6f206c617267652028776f756c64206f7665726660448201527f6c6f7720657870290000000000000000000000000000000000000000000000006064820152fd5b84600f9a939a0b80921315613d0a5781156106af5760401b60170b057fffffffffffffffffffffffffffffffff8000000000000000000000000000000081121580613cf0575b156106af57600f0b5f811315613c9257613c60613c6691613ea3565b86613e06565b9780600f0b89600f0b125f14613c86575050613a2c90875b90915f613a20565b613a2c92919850613c7e565b60646040517f08c379a000000000000000000000000000000000000000000000000000000000815260206004820152600e60248201527f4c4d53523a20726174696f3c3d300000000000000000000000000000000000006044820152fd5b506f7fffffffffffffffffffffffffffffff811315613c44565b60846040517f08c379a000000000000000000000000000000000000000000000000000000000815260206004820152602160248201527f4c4d53523a206c696d69745072696365203c3d2063757272656e74207072696360448201527f65000000000000000000000000000000000000000000000000000000000000006064820152fd5b506f7fffffffffffffffffffffffffffffff8313156139d1565b60646040517f08c379a000000000000000000000000000000000000000000000000000000000815260206004820152601660248201527f4c4d53523a2073697a65206d6574726963207a65726f000000000000000000006044820152fd5b90600f0b90600f0b0260401d7fffffffffffffffffffffffffffffffff800000000000000000000000000000008112158061361f57156106af57600f0b90565b600f0b684000000000000000008112156106af577fffffffffffffffffffffffffffffffffffffffffffffffc00000000000000000811261335d57700171547652b82fe1777d0ffda0d23a7d126132ac910260801d600f0b613fd0565b600f0b5f8113156106af575f908068010000000000000000821215613fc3575b806401000000006002921215613fb7575b62010000811215613fab575b610100811215613f9f575b6010811215613f93575b6004811215613f88575b1215613f7e575b7fffffffffffffffffffffffffffffffffffffffffffffffffffffffffffffffc0820160401b91607f031b90678000000000000000915b5f8313613f6257506fb17217f7d1cf79abc9e3b39803f2f6af9150600f0b0260801d90565b8002908160ff1c9182607f011c918302019160011d9190613f3d565b9060010190613f06565b92810192811d613eff565b6004938401931d613ef5565b6008938401931d613eeb565b6010938401931d613ee0565b6020938401931d613ed4565b506040915080821d613ec3565b80600f0b684000000000000000008112156106af577fffffffffffffffffffffffffffffffffffffffffffffffc0000000000000000081126135db576f80000000000000000000000000000000915f6780000000000000008216600f0b13614bcc575b5f6740000000000000008216600f0b13614baf575b5f6720000000000000008216600f0b13614b92575b5f6710000000000000008216600f0b13614b75575b5f6708000000000000008216600f0b13614b58575b5f6704000000000000008216600f0b13614b3b575b5f6702000000000000008216600f0b13614b1e575b5f6701000000000000008216600f0b13614b01575b5f66800000000000008216600f0b13614ae4575b5f66400000000000008216600f0b13614ac7575b5f66200000000000008216600f0b13614aaa575b5f66100000000000008216600f0b13614a8d575b5f66080000000000008216600f0b13614a70575b5f66040000000000008216600f0b13614a53575b5f66020000000000008216600f0b13614a36575b5f66010000000000008216600f0b13614a19575b5f658000000000008216600f0b136149fc575b5f654000000000008216600f0b136149df575b5f652000000000008216600f0b136149c2575b5f651000000000008216600f0b136149a5575b5f650800000000008216600f0b13614988575b5f650400000000008216600f0b1361496b575b5f650200000000008216600f0b1361494e575b5f650100000000008216600f0b13614931575b5f6480000000008216600f0b13614914575b5f6440000000008216600f0b136148f7575b5f6420000000008216600f0b136148da575b5f6410000000008216600f0b136148bd575b5f6408000000008216600f0b136148a0575b5f6404000000008216600f0b13614883575b5f6402000000008216600f0b13614866575b5f6401000000008216600f0b13614849575b5f63800000008216600f0b1361482c575b5f63400000008216600f0b1361480f575b5f63200000008216600f0b136147f2575b5f63100000008216600f0b136147d5575b5f63080000008216600f0b136147b8575b5f63040000008216600f0b1361479b575b5f63020000008216600f0b1361477e575b5f63010000008216600f0b13614761575b5f628000008216600f0b13614744575b5f624000008216600f0b13614727575b5f622000008216600f0b1361470a575b5f621000008216600f0b136146ed575b5f620800008216600f0b136146d0575b5f620400008216600f0b136146b3575b5f620200008216600f0b13614696575b5f620100008216600f0b13614679575b5f6180008216600f0b1361465c575b5f6140008216600f0b1361463f575b5f6120008216600f0b13614622575b5f6110008216600f0b13614605575b5f6108008216600f0b136145e8575b5f6104008216600f0b136145cb575b5f6102008216600f0b136145ae575b5f6101008216600f0b13614591575b5f60808216600f0b13614574575b5f60408216600f0b13614557575b5f60208216600f0b1361453a575b5f60108216600f0b1361451d575b5f60088216600f0b13614500575b5f60048216600f0b136144e3575b5f60028216600f0b136144c5575b60015f9116600f0b136144a8575b60401d600f0b603f03600f0b1c6f7fffffffffffffffffffffffffffffff81116106af57600f0b90565b9070010000000000000000b17217f7d1cf79ab0260801c9061447e565b7001000000000000000162e42fefa39ef35890920260801c91614470565b9170010000000000000002c5c85fdf473de6b20260801c91614462565b91700100000000000000058b90bfbe8e7bcd6d0260801c91614454565b917001000000000000000b17217f7d1cf79afa0260801c91614446565b91700100000000000000162e42fefa39ef366f0260801c91614438565b917001000000000000002c5c85fdf473de6eca0260801c9161442a565b9170010000000000000058b90bfbe8e7bce5440260801c9161441c565b91700100000000000000b17217f7d1cf79e9490260801c9161440e565b9170010000000000000162e42fefa39ef44d910260801c916143ff565b91700100000000000002c5c85fdf473dea871f0260801c916143f0565b917001000000000000058b90bfbe8e7bdcbe2e0260801c916143e1565b9170010000000000000b17217f7d1cf7d83c1a0260801c916143d2565b917001000000000000162e42fefa39f02b772c0260801c916143c3565b9170010000000000002c5c85fdf473e242ea380260801c916143b4565b91700100000000000058b90bfbe8e7cc35c3f00260801c916143a5565b917001000000000000b17217f7d1cfb72b45e10260801c91614396565b91700100000000000162e42fefa39fe95583c20260801c91614386565b917001000000000002c5c85fdf4741bea6e77e0260801c91614376565b9170010000000000058b90bfbe8e8b2d3d4ede0260801c91614366565b91700100000000000b17217f7d1d351a389d400260801c91614356565b9170010000000000162e42fefa3ae53369388c0260801c91614346565b91700100000000002c5c85fdf477b662b269450260801c91614336565b917001000000000058b90bfbe8f71cb4e4b33d0260801c91614326565b9170010000000000b17217f7d20cf927c8e94c0260801c91614316565b917001000000000162e42fefa494f1478fde050260801c91614305565b9170010000000002c5c85fdf4b15de6f17eb0d0260801c916142f4565b91700100000000058b90bfbe9ddbac5e109cce0260801c916142e3565b917001000000000b17217f7d5a7716bba4a9ae0260801c916142d2565b91700100000000162e42fefb2fed257559bdaa0260801c916142c1565b917001000000002c5c85fdf84bd62ae30a74cc0260801c916142b0565b9170010000000058b90bfbf8479bd5a81b51ad0260801c9161429f565b91700100000000b17217f80f4ef5aadda455540260801c9161428e565b9170010000000162e42ff0999ce3541b9fffcf0260801c9161427c565b91700100000002c5c85fe31f35a6a30da1be500260801c9161426a565b917001000000058b90bfcdee5acd3c1cedc8230260801c91614258565b9170010000000b17217fba9c739aa5819f44f90260801c91614246565b917001000000162e42fff037df38aa2b219f060260801c91614234565b9170010000002c5c8601cc6b9e94213c72737a0260801c91614222565b91700100000058b90c0b48c6be5df846c5b2ef0260801c91614210565b917001000000b1721835514b86e6d96efd1bfe0260801c916141fe565b91700100000162e430e5a18f6119e3c02282a50260801c916141eb565b917001000002c5c863b73f016468f6bac5ca2b0260801c916141d8565b9170010000058b90cf1e6d97f9ca14dbcc16280260801c916141c5565b91700100000b1721bcfc99d9f890ea069117630260801c916141b2565b9170010000162e43f4f831060e02d839a9d16d0260801c9161419f565b91700100002c5c89d5ec6ca4d7c8acc017b7c90260801c9161418c565b917001000058b91b5bc9ae2eed81e9b7d4cfab0260801c91614179565b9170010000b17255775c040618bf4a4ade83fc0260801c91614166565b917001000162e525ee054754457d59952920260260801c91614152565b9170010002c5cc37da9491d0985c348c68e7b30260801c9161413e565b91700100058ba01fb9f96d6cacd4b180917c3d0260801c9161412a565b917001000b175effdc76ba38e31671ca9397250260801c91614116565b91700100162f3904051fa128bca9c55c31e5df0260801c91614102565b917001002c605e2e8cec506d21bfc89a23a00f0260801c916140ee565b9170010058c86da1c09ea1ff19d294cf2f679b0260801c916140da565b91700100b1afa5abcbed6129ab13ec11dc95430260801c916140c6565b9170010163da9fb33356d84a66ae336dcdfa3f0260801c916140b1565b91700102c9a3e778060ee6f7caca4f7a29bde80260801c9161409c565b917001059b0d31585743ae7c548eb68ca417fd0260801c91614087565b9170010b5586cf9890f6298b92b71842a983630260801c91614072565b917001172b83c7d517adcdf7c8c50eb14a791f0260801c9161405d565b917001306fe0a31b7152de8d5a46305c85edec0260801c91614048565b6fb504f333f9de6484597d89b3754abe9f925061403356fea2646970667358221220872d892f15ce78a2b45ef509e92d1d9d9a6fd85a9cb8f1cf6f0d5f23c4bc4cf664736f6c634300081e0033","linkReferences":{}},"methodIdentifiers":{"LMSR()":"476e44b6","allProtocolFeesOwed()":"017504b6","allTokens()":"6ff97f1d","allowance(address,address)":"dd62ed3e","approve(address,uint256)":"095ea7b3","balanceOf(address)":"70a08231","burn(address,address,uint256,uint256,bool)":"6863f5bc","burnSwap(address,address,uint256,uint256,uint256,bool)":"491e7998","collectProtocolFees()":"a1af5b9a","decimals()":"313ce567","denominators()":"017cf661","fee(uint256,uint256)":"939f5ea4","fees()":"9af1d35a","flashFeePpm()":"31596a6a","flashLoan(address,address,uint256,bytes)":"5cffe9de","initialMint(address,uint256)":"6d8d0ff3","kappa()":"6bba3f2f","kill()":"41c0e1b5","killed()":"1f3a0e41","mint(address,address,uint256,uint256)":"b3f1c93d","mintImpl()":"f0d1ae4f","name()":"06fdde03","numTokens()":"8e499bcf","owner()":"8da5cb5b","protocolFeeAddress()":"cce516b7","protocolFeePpm()":"6b4082d1","renounceOwnership()":"715018a6","setProtocolFeeAddress(address)":"6b7b9112","swap(address,bytes4,address,uint256,uint256,uint256,int128,uint256,bool,bytes)":"70305452","swapAmounts(uint256,uint256,uint256,int128)":"d516b8c6","swapMint(address,address,uint256,uint256,uint256)":"cb717f3a","swapMintImpl()":"95176066","swapToLimit(address,bytes4,address,uint256,uint256,int128,uint256,bool,bytes)":"4264c8bc","symbol()":"95d89b41","token(uint256)":"044215c6","totalSupply()":"18160ddd","transfer(address,uint256)":"a9059cbb","transferFrom(address,address,uint256)":"23b872dd","transferOwnership(address)":"f2fde38b","wrapperToken()":"0d246214"},"id":50}