{"abi":[{"type":"constructor","inputs":[{"name":"wrapper_","type":"address","internalType":"contract NativeWrapper"}],"stateMutability":"nonpayable"},{"type":"function","name":"collectProtocolFees","inputs":[{"name":"dest","type":"address","internalType":"address"}],"outputs":[],"stateMutability":"nonpayable"},{"type":"function","name":"flashLoan","inputs":[{"name":"receiver","type":"address","internalType":"contract IERC3156FlashBorrower"},{"name":"tokenAddr","type":"address","internalType":"address"},{"name":"amount","type":"uint256","internalType":"uint256"},{"name":"data","type":"bytes","internalType":"bytes"},{"name":"flashFeePpm","type":"uint256","internalType":"uint256"},{"name":"protocolFeePpm","type":"uint256","internalType":"uint256"}],"outputs":[{"name":"","type":"bool","internalType":"bool"}],"stateMutability":"nonpayable"},{"type":"function","name":"swapToLimit","inputs":[{"name":"payer","type":"address","internalType":"address"},{"name":"fundingSelector","type":"bytes4","internalType":"bytes4"},{"name":"receiver","type":"address","internalType":"address"},{"name":"inputTokenIndex","type":"uint256","internalType":"uint256"},{"name":"outputTokenIndex","type":"uint256","internalType":"uint256"},{"name":"limitPrice","type":"int128","internalType":"int128"},{"name":"deadline","type":"uint256","internalType":"uint256"},{"name":"unwrap","type":"bool","internalType":"bool"},{"name":"cbData","type":"bytes","internalType":"bytes"},{"name":"swapFeePpm","type":"uint256","internalType":"uint256"},{"name":"protocolFeePpm","type":"uint256","internalType":"uint256"}],"outputs":[{"name":"amountIn","type":"uint256","internalType":"uint256"},{"name":"amountOut","type":"uint256","internalType":"uint256"},{"name":"inFee","type":"uint256","internalType":"uint256"}],"stateMutability":"payable"},{"type":"function","name":"swapToLimitAmounts","inputs":[{"name":"inputTokenIndex","type":"uint256","internalType":"uint256"},{"name":"outputTokenIndex","type":"uint256","internalType":"uint256"},{"name":"limitPrice","type":"int128","internalType":"int128"},{"name":"bases","type":"uint256[]","internalType":"uint256[]"},{"name":"kappa","type":"int128","internalType":"int128"},{"name":"qInternal","type":"int128[]","internalType":"int128[]"},{"name":"swapFeePpm","type":"uint256","internalType":"uint256"}],"outputs":[{"name":"amountIn","type":"uint256","internalType":"uint256"},{"name":"amountOut","type":"uint256","internalType":"uint256"},{"name":"inFee","type":"uint256","internalType":"uint256"}],"stateMutability":"pure"},{"type":"event","name":"Flash","inputs":[{"name":"initiator","type":"address","indexed":true,"internalType":"address"},{"name":"receiver","type":"address","indexed":true,"internalType":"contract IERC3156FlashBorrower"},{"name":"token","type":"address","indexed":true,"internalType":"contract IERC20"},{"name":"amount","type":"uint256","indexed":false,"internalType":"uint256"},{"name":"lpFee","type":"uint256","indexed":false,"internalType":"uint256"},{"name":"protocolFee","type":"uint256","indexed":false,"internalType":"uint256"}],"anonymous":false},{"type":"event","name":"ProtocolFeesCollected","inputs":[],"anonymous":false},{"type":"event","name":"Swap","inputs":[{"name":"payer","type":"address","indexed":false,"internalType":"address"},{"name":"receiver","type":"address","indexed":true,"internalType":"address"},{"name":"tokenIn","type":"address","indexed":true,"internalType":"contract IERC20"},{"name":"tokenOut","type":"address","indexed":true,"internalType":"contract IERC20"},{"name":"amountIn","type":"uint256","indexed":false,"internalType":"uint256"},{"name":"amountOut","type":"uint256","indexed":false,"internalType":"uint256"},{"name":"lpFee","type":"uint256","indexed":false,"internalType":"uint256"},{"name":"protocolFee","type":"uint256","indexed":false,"internalType":"uint256"}],"anonymous":false},{"type":"error","name":"AddressEmptyCode","inputs":[{"name":"target","type":"address","internalType":"address"}]},{"type":"error","name":"ERC20InsufficientAllowance","inputs":[{"name":"spender","type":"address","internalType":"address"},{"name":"allowance","type":"uint256","internalType":"uint256"},{"name":"needed","type":"uint256","internalType":"uint256"}]},{"type":"error","name":"ERC20InsufficientBalance","inputs":[{"name":"sender","type":"address","internalType":"address"},{"name":"balance","type":"uint256","internalType":"uint256"},{"name":"needed","type":"uint256","internalType":"uint256"}]},{"type":"error","name":"ERC20InvalidApprover","inputs":[{"name":"approver","type":"address","internalType":"address"}]},{"type":"error","name":"ERC20InvalidReceiver","inputs":[{"name":"receiver","type":"address","internalType":"address"}]},{"type":"error","name":"ERC20InvalidSender","inputs":[{"name":"sender","type":"address","internalType":"address"}]},{"type":"error","name":"ERC20InvalidSpender","inputs":[{"name":"spender","type":"address","internalType":"address"}]},{"type":"error","name":"FailedCall","inputs":[]},{"type":"error","name":"InsufficientBalance","inputs":[{"name":"balance","type":"uint256","internalType":"uint256"},{"name":"needed","type":"uint256","internalType":"uint256"}]},{"type":"error","name":"ReentrancyGuardReentrantCall","inputs":[]},{"type":"error","name":"SafeERC20FailedOperation","inputs":[{"name":"token","type":"address","internalType":"address"}]}],"bytecode":{"object":"0x60a0346100a357601f613c9038819003918201601f19168301916001600160401b038311848410176100a7578084926020946040528339810103126100a357516001600160a01b03811681036100a35760017f9b779b17422d0df92223018b32b4d1fa46e071723d6817e2486d003becc55f0055608052604051613bd490816100bc8239608051818181610cc3015281816112b7015281816113480152612b860152f35b5f80fd5b634e487b7160e01b5f52604160045260245ffdfe60806040526004361015610011575f80fd5b5f5f3560e01c80632a54db011461192f578063756b160c146109fe578063bf05a0a6146107f85763e49cd47514610046575f80fd5b346107f55760c07ffffffffffffffffffffffffffffffffffffffffffffffffffffffffffffffffc3601126107f55760043573ffffffffffffffffffffffffffffffffffffffff811681036107f35760243573ffffffffffffffffffffffffffffffffffffffff811681036107ef5760443567ffffffffffffffff606435116107eb573660236064350112156107eb5767ffffffffffffffff60643560040135116107eb57366024606435600401356064350101116107eb5760a4359161010b611f8b565b61011a60ff6009541615611d8c565b6040517f70a0823100000000000000000000000000000000000000000000000000000000815230600482015260208160248173ffffffffffffffffffffffffffffffffffffffff86165afa9081156107e05786916107ae575b5082116107505773ffffffffffffffffffffffffffffffffffffffff81168552600f602052604085205480156106f257807fffffffffffffffffffffffffffffffffffffffffffffffffffffffffffffffff8101116106c5576101d860843584612b49565b50908694801515806106bc575b610626575b506102228473ffffffffffffffffffffffffffffffffffffffff881673ffffffffffffffffffffffffffffffffffffffff8616612002565b6040517f23e30c8b00000000000000000000000000000000000000000000000000000000815233600482015273ffffffffffffffffffffffffffffffffffffffff8416602482015284604482015282606482015260a060848201526064356004013560a48201526064356004013560246064350160c48301378760c4606435600401358301015260208160c4817fffffffffffffffffffffffffffffffffffffffffffffffffffffffffffffffe0601f60643560040135011681010301818b73ffffffffffffffffffffffffffffffffffffffff8c165af180156105675788906105d0575b7f439148f0bbc682ca079e46d6e2c2f0c1e3b820f1a291b069d8882abf8cf18dd99150036105725761036f61033c8386611e3b565b73ffffffffffffffffffffffffffffffffffffffff851673ffffffffffffffffffffffffffffffffffffffff8916612b6e565b506040517f70a0823100000000000000000000000000000000000000000000000000000000815230600482015260208160248173ffffffffffffffffffffffffffffffffffffffff88165afa9081156105675786979896959691610508575b507f249e0bf62ff982342c6a63926041694a221796af4b9ebacefc45823da42348139473ffffffffffffffffffffffffffffffffffffffff94936104ac846104767fffffffffffffffffffffffffffffffffffffffffffffffffffffffffffffffff61046f6104b197610457610448846104d69c01611cc5565b90549060031b1c821015611e48565b610462838601611cc5565b90549060031b1c90611d52565b9201611d22565b9091907fffffffffffffffffffffffffffffffffffffffffffffffffffffffffffffffff83549160031b92831b921b1916179055565b611d52565b9583604051948594169816963396846040919493926060820195825260208201520152565b0390a460017f9b779b17422d0df92223018b32b4d1fa46e071723d6817e2486d003becc55f0055602060405160018152f35b94505091906020843d60201161055f575b8161052660209383611c05565b8101031261055b57925185939192907f249e0bf62ff982342c6a63926041694a221796af4b9ebacefc45823da42348136103ce565b5f80fd5b3d9150610519565b6040513d8a823e3d90fd5b60646040517f08c379a000000000000000000000000000000000000000000000000000000000815260206004820152600f60248201527f666c6173683a2063616c6c6261636b00000000000000000000000000000000006044820152fd5b506020813d60201161061e575b816105ea60209383611c05565b8101031261061a577f439148f0bbc682ca079e46d6e2c2f0c1e3b820f1a291b069d8882abf8cf18dd99051610307565b8780fd5b3d91506105dd565b620f42409195506106379083611df1565b049384610645575b5f6101ea565b6106b76106737fffffffffffffffffffffffffffffffffffffffffffffffffffffffffffffffff8301611cc5565b6106838883548360031b1c611e3b565b907fffffffffffffffffffffffffffffffffffffffffffffffffffffffffffffffff83549160031b92831b921b1916179055565b61063f565b508215156101e5565b6024867f4e487b710000000000000000000000000000000000000000000000000000000081526011600452fd5b60646040517f08c379a000000000000000000000000000000000000000000000000000000000815260206004820152601860248201527f666c6173683a20746f6b656e206e6f7420696e20706f6f6c00000000000000006044820152fd5b60646040517f08c379a000000000000000000000000000000000000000000000000000000000815260206004820152601760248201527f666c6173683a20616d6f756e74203e2062616c616e63650000000000000000006044820152fd5b90506020813d6020116107d8575b816107c960209383611c05565b8101031261055b57515f610173565b3d91506107bc565b6040513d88823e3d90fd5b8380fd5b8280fd5b505b80fd5b50346107f55760e07ffffffffffffffffffffffffffffffffffffffffffffffffffffffffffffffffc3601126107f5576004356024356044359182600f0b83036107eb576064359067ffffffffffffffff82116109fa57366023830112156109fa5781600401359161086983611cad565b926108776040519485611c05565b8084526024602085019160051b8301019136831161061a57602401905b8282106109ea575050506084359384600f0b85036109e65760a43567ffffffffffffffff81116109e257366023820112156109e25780600401356108d781611cad565b916108e56040519384611c05565b8183526024602084019260051b820101903682116109de57602401915b8183106109c0575050509161092561093592868361092e98979660c4359a61210c565b95909184611ead565b51906128c6565b94610941861515611ec1565b94809480610991575b50509161095d6109649261098d94611ead565b5190612e05565b92610970841515611f26565b604051938493846040919493926060820195825260208201520152565b0390f35b81965061098d94929550926109b66109af6109649561095d94612b10565b8098611e3b565b959294509261094a565b823580600f0b81036109da57815260209283019201610902565b8a80fd5b8980fd5b8680fd5b8580fd5b8135815260209182019101610894565b8480fd5b506101607ffffffffffffffffffffffffffffffffffffffffffffffffffffffffffffffffc36011261055b57610a32611be2565b7fffffffff00000000000000000000000000000000000000000000000000000000602435166024350361055b576044359073ffffffffffffffffffffffffffffffffffffffff8216820361055b5760a4359283600f0b840361055b5760c4359260e435151560e4350361055b57610104359367ffffffffffffffff851161055b573660238601121561055b578460040135610acc81611c73565b95610ada6040519788611c05565b818752366024838301011161055b57815f92602460209301838a013787010152610b0960ff6009541615611d8c565b610b11611f8b565b600c5480606435109081611923575b50156118c5575f86600f0b131561186757801590811561185c575b50156117fe57610b4c608435611d22565b90549060031b1c93600a54600f0b866040519182906020600b549485815201600b5f5260205f20945f955b8160018801106117d15791610bb1968592610ba49454918181106117bd575b106117ac575b500383611c05565b608435916064359161210c565b949095610bcf610bc2606435611d3a565b90549060031b1c886128c6565b95610bdb871515611ec1565b5f968061012435611793575b50610c03610bf6608435611d3a565b90549060031b1c83612e05565b99610c0f8b1515611f26565b73ffffffffffffffffffffffffffffffffffffffff610c2f606435611d0a565b90549060031b1c16957fffffffff0000000000000000000000000000000000000000000000000000000060243516155f146112de575050610c71908585612b6e565b975b73ffffffffffffffffffffffffffffffffffffffff610c93608435611d0a565b90549060031b1c169560e43560e43561129f575b156111ef5773ffffffffffffffffffffffffffffffffffffffff7f000000000000000000000000000000000000000000000000000000000000000016803b156111eb5788809160248e60405194859384927f2e1a7d4d00000000000000000000000000000000000000000000000000000000845260048401525af18015611166578980928e926111d4575b50808092855af13d156111cf573d610d4981611c73565b90610d576040519283611c05565b81528960203d92013e5b15611171575b604051937f70a082310000000000000000000000000000000000000000000000000000000085523060048601526020856024818b5afa94851561116657908c918a9661112d575b5090610db991611d52565b84036110a9578793610144351515806110a0575b611054575b610df2610dfd91610de7610448608435611cc5565b610462608435611cc5565b610476608435611d22565b610e1b610e0b606435611d22565b6106838d83548360031b1c611e3b565b8782600f0b1315610ff6578783600f0b1315610f98577f6950339c7661cca450281e53722525cc136590e622b011d5be7e4c4993685a6c93610eea610edf60a095610ec5610e9273ffffffffffffffffffffffffffffffffffffffff97610e836064356120cc565b90549060031b1c600f0b612cea565b610e9d6064356120cc565b9091906fffffffffffffffffffffffffffffffff83549160031b928116831b921b1916179055565b610ed06084356120cc565b90549060031b1c600f0b612d42565b610e9d6084356120cc565b610ef4818b611d52565b83604051971687528b60208801528c6040880152606087015260808601521692a460017f9b779b17422d0df92223018b32b4d1fa46e071723d6817e2486d003becc55f00554780158015610f67575b50505061098d90604051938493846040919493926060820195825260208201520152565b8280809381938290610f8f575b3390f115610f83578080610f43565b604051903d90823e3d90fd5b506108fc610f74565b60646040517f08c379a000000000000000000000000000000000000000000000000000000000815260206004820152601460248201527f4c4d53523a20616d6f756e744f7574203c3d20300000000000000000000000006044820152fd5b60646040517f08c379a000000000000000000000000000000000000000000000000000000000815260206004820152601360248201527f4c4d53523a20616d6f756e74496e203c3d2030000000000000000000000000006044820152fd5b9350610dfd610df2620f424061106d610144358d611df1565b04958661107d575b915050610dd2565b61109b61108b606435611cc5565b6106838a83548360031b1c611e3b565b611075565b50891515610dcd565b60846040517f08c379a000000000000000000000000000000000000000000000000000000000815260206004820152602260248201527f73776170546f4c696d69743a206e6f6e2d7374616e6461726420746f6b656e4f60448201527f75740000000000000000000000000000000000000000000000000000000000006064820152fd5b915094506020813d60201161115e575b8161114a60209383611c05565b8101031261055b5751938b90610db9610dae565b3d915061113d565b6040513d8b823e3d90fd5b60646040517f08c379a000000000000000000000000000000000000000000000000000000000815260206004820152601460248201527f7265636569766572206e6f742070617961626c650000000000000000000000006044820152fd5b610d61565b6111de9250611c05565b61061a57878b815f610d32565b8880fd5b6040517fa9059cbb00000000000000000000000000000000000000000000000000000000895273ffffffffffffffffffffffffffffffffffffffff82166004528b602452602089604481808c5af19060018a511482161561127e575b604052610d6757602488887f5274afe7000000000000000000000000000000000000000000000000000000008252600452fd5b90600181151661129657883b15153d1516169061124b565b503d89823e3d90fd5b5073ffffffffffffffffffffffffffffffffffffffff7f0000000000000000000000000000000000000000000000000000000000000000168714610ca7565b9199916024357fffffffff00000000000000000000000000000000000000000000000000000000167c0100000000000000000000000000000000000000000000000000000000036115865750600f0b6115025773ffffffffffffffffffffffffffffffffffffffff7f00000000000000000000000000000000000000000000000000000000000000001698898614806114f8575b156113e2578099803b1561055b575f906004604051809481937fd0e30db00000000000000000000000000000000000000000000000000000000083525af180156113d7576113c2575b505b610c73565b6113cf9197505f90611c05565b5f955f6113bb565b6040513d5f823e3d90fd5b98506040517f70a08231000000000000000000000000000000000000000000000000000000008152306004820152602081602481895afa80156113d7575f906114c4575b61145e9150611458611439606435611d22565b90549060031b1c61144b606435611cc5565b90549060031b1c90611e3b565b90611d52565b988910156113bd5760646040517f08c379a000000000000000000000000000000000000000000000000000000000815260206004820152601e60248201527f496e73756666696369656e742070726566756e64696e6720616d6f756e7400006044820152fd5b506020813d6020116114f0575b816114de60209383611c05565b8101031261055b5761145e9051611426565b3d91506114d1565b5080341015611372565b60846040517f08c379a000000000000000000000000000000000000000000000000000000000815260206004820152602c60248201527f50726566756e64696e672063616e6e6f7420626520757365642077697468206160448201527f206c696d697420707269636500000000000000000000000000000000000000006064820152fd5b90506040517f70a082310000000000000000000000000000000000000000000000000000000081523060048201526020816024818a5afa9081156113d7578b88915f9361175c575b5060c461166e917fffffffffffffffffffffffffffffffffffffffffffffffffffffffffffffffe0601f6020611674979860065494604051988996602435858901526024880152604487015260648601526080608486015280519182918260a4880152018686015e5f8582860101520116810103017fffffffffffffffffffffffffffffffffffffffffffffffffffffffffffffffe08101835282611c05565b86612e60565b50604051907f70a082310000000000000000000000000000000000000000000000000000000082523060048301526020826024818a5afa80156113d7575f90611728575b6116c29250611d52565b98891015610c735760646040517f08c379a000000000000000000000000000000000000000000000000000000000815260206004820152601260248201527f496e73756666696369656e742066756e647300000000000000000000000000006044820152fd5b506020823d602011611754575b8161174260209383611c05565b8101031261055b576116c291516116b8565b3d9150611735565b925050506020813d60201161178b575b8161177960209383611c05565b8101031261055b5751868b60c46115ce565b3d915061176c565b9750506117a66109af6101243589612b10565b5f610be7565b60801d600f0b81526020015f610b9c565b92602060019184600f0b8152019301610b96565b8054600f81810b855260809190911d900b60208401526002909601958c9550604090920191600101610b77565b60646040517f08c379a000000000000000000000000000000000000000000000000000000000815260206004820152601e60248201527f73776170546f4c696d69743a20646561646c696e6520657863656564656400006044820152fd5b90504211155f610b3b565b60646040517f08c379a000000000000000000000000000000000000000000000000000000000815260206004820152601760248201527f73776170546f4c696d69743a206c696d6974203c3d20300000000000000000006044820152fd5b60646040517f08c379a000000000000000000000000000000000000000000000000000000000815260206004820152601060248201527f73776170546f4c696d69743a20696478000000000000000000000000000000006044820152fd5b9050608435105f610b20565b3461055b5760207ffffffffffffffffffffffffffffffffffffffffffffffffffffffffffffffffc36011261055b57611966611be2565b61196e611f8b565b73ffffffffffffffffffffffffffffffffffffffff811615611b8457600c545f5b8181106119e0577fd508feb4afc81230b8e5dcca865a405a72db1f928a5064f893ab22ab56ec25215f80a160017f9b779b17422d0df92223018b32b4d1fa46e071723d6817e2486d003becc55f0055005b6119e981611cc5565b90549060031b1c908115611b7b576024602073ffffffffffffffffffffffffffffffffffffffff611a1984611d0a565b90549060031b1c16604051928380927f70a082310000000000000000000000000000000000000000000000000000000082523060048301525afa9081156113d7575f91611b4a575b50828110611aec5782611aba611ab1600195611ae694611a8087611cc5565b7fffffffffffffffffffffffffffffffffffffffffffffffffffffffffffffffff82549160031b1b19169055611d52565b61047685611d22565b8573ffffffffffffffffffffffffffffffffffffffff611ad985611d0a565b90549060031b1c16612002565b0161198f565b60646040517f08c379a000000000000000000000000000000000000000000000000000000000815260206004820152601260248201527f636f6c6c6563743a20666565203e2062616c00000000000000000000000000006044820152fd5b90506020813d8211611b73575b81611b6460209383611c05565b8101031261055b575185611a61565b3d9150611b57565b60019150611ae6565b60646040517f08c379a000000000000000000000000000000000000000000000000000000000815260206004820152601260248201527f636f6c6c6563743a207a65726f206164647200000000000000000000000000006044820152fd5b6004359073ffffffffffffffffffffffffffffffffffffffff8216820361055b57565b90601f7fffffffffffffffffffffffffffffffffffffffffffffffffffffffffffffffe0910116810190811067ffffffffffffffff821117611c4657604052565b7f4e487b71000000000000000000000000000000000000000000000000000000005f52604160045260245ffd5b67ffffffffffffffff8111611c4657601f017fffffffffffffffffffffffffffffffffffffffffffffffffffffffffffffffe01660200190565b67ffffffffffffffff8111611c465760051b60200190565b600d54811015611cdd57600d5f5260205f2001905f90565b7f4e487b71000000000000000000000000000000000000000000000000000000005f52603260045260245ffd5b600c54811015611cdd57600c5f5260205f2001905f90565b601054811015611cdd5760105f5260205f2001905f90565b600e54811015611cdd57600e5f5260205f2001905f90565b91908203918211611d5f57565b7f4e487b71000000000000000000000000000000000000000000000000000000005f52601160045260245ffd5b15611d9357565b60646040517f08c379a000000000000000000000000000000000000000000000000000000000815260206004820152600660248201527f6b696c6c656400000000000000000000000000000000000000000000000000006044820152fd5b81810292918115918404141715611d5f57565b8115611e0e570490565b7f4e487b71000000000000000000000000000000000000000000000000000000005f52601260045260245ffd5b91908201809211611d5f57565b15611e4f57565b60646040517f08c379a000000000000000000000000000000000000000000000000000000000815260206004820152601760248201527f62616c616e6365203c2070726f746f636f6c206f7765640000000000000000006044820152fd5b8051821015611cdd5760209160051b010190565b15611ec857565b60646040517f08c379a000000000000000000000000000000000000000000000000000000000815260206004820152601760248201527f73776170546f4c696d69743a20696e707574207a65726f0000000000000000006044820152fd5b15611f2d57565b60646040517f08c379a000000000000000000000000000000000000000000000000000000000815260206004820152601860248201527f73776170546f4c696d69743a206f7574707574207a65726f00000000000000006044820152fd5b60027f9b779b17422d0df92223018b32b4d1fa46e071723d6817e2486d003becc55f005414611fda5760027f9b779b17422d0df92223018b32b4d1fa46e071723d6817e2486d003becc55f0055565b7f3ee5aeb5000000000000000000000000000000000000000000000000000000005f5260045ffd5b9173ffffffffffffffffffffffffffffffffffffffff604051927fa9059cbb000000000000000000000000000000000000000000000000000000005f521660045260245260205f60448180865af19060015f51148216156120ab575b604052156120695750565b73ffffffffffffffffffffffffffffffffffffffff907f5274afe7000000000000000000000000000000000000000000000000000000005f521660045260245ffd5b9060018115166120c357823b15153d1516169061205e565b503d5f823e3d90fd5b90600b54821015611cdd57600b5f52600182901c7f0175b7a638427703f0dbe7bb9bbf987a2551717b34e79f33b5b1008d1fa01db9019160041b60101690565b93929491909483600f0b905f821315612868575f94855b885187101561214e5761214660019161213c898c611ead565b51600f0b90612cea565b960195612123565b90929496919395505f81600f0b131561280a5761216a91612d7f565b9081600f0b801561055b5770010000000000000000000000000000000005947fffffffffffffffffffffffffffffffff80000000000000000000000000000000861215806127f0575b1561055b576121ef6121f4916121ea6121d298600f0b9889928c611ead565b51600f0b6121e0888d611ead565b51600f0b90612d42565b612d7f565b612f28565b9081600f0b9485121561276c578161220b91612dbf565b600f0b5f81131561055b575f90806801000000000000000082121561275f575b806401000000006002921215612753575b62010000811215612747575b61010081121561273b575b601081121561272f575b6004811215612724575b121561271a575b7fffffffffffffffffffffffffffffffffffffffffffffffffffffffffffffffc0820160401b91607f031b90678000000000000000915b5f83136126fe57506fb17217f7d1cf79abc9e3b39803f2f6af9150600f0b0260801d926122d28484612d7f565b937fffffffffffffffffffffffffffffffff8000000000000000000000000000000081600f0b1461055b5761230b905f03600f0b612f28565b600f0b68010000000000000000037fffffffffffffffffffffffffffffffff80000000000000000000000000000000811215806126e4575b1561055b5761235590600f0b83612d7f565b600f0b68010000000000000000017fffffffffffffffffffffffffffffffff80000000000000000000000000000000811215806126ca575b1561055b57600f0b5f81131561055b575f9080680100000000000000008212156126bd575b8064010000000060029212156126b1575b620100008112156126a5575b610100811215612699575b601081121561268d575b6004811215612682575b1215612678575b607f8290031b91907fffffffffffffffffffffffffffffffffffffffffffffffffffffffffffffffc00160401b6780000000000000005b5f8113612658575061246192506fb17217f7d1cf79abc9e3b39803f2f6af61245b91600f0b0260801d85612d7f565b98611ead565b51600f0b9383958589600f0b1361247d575b5050505050509190565b85985068010000000000000000929496506121ef9061249e92949699612d7f565b9101907fffffffffffffffffffffffffffffffff800000000000000000000000000000008212158061263e575b1561055b576124dc91600f0b612d42565b905f600f83900b136124f7575050505b5f8080808080612473565b612502929350612dbf565b600f0b5f81131561055b575f908068010000000000000000821215612631575b806401000000006002921215612625575b62010000811215612619575b61010081121561260d575b6010811215612601575b60048112156125f6575b12156125ec575b607f8290031b91907fffffffffffffffffffffffffffffffffffffffffffffffffffffffffffffffc00160401b6780000000000000005b5f81136125cc57506125c79250600f0b6fb17217f7d1cf79abc9e3b39803f2f6af0260801d90612d7f565b6124ec565b91928002908160ff1c9182607f011c918302019160011d9291909261259c565b9060010190612565565b92810192811d61255e565b6004938401931d612554565b6008938401931d61254a565b6010938401931d61253f565b6020938401931d612533565b506040915080821d612522565b506f7fffffffffffffffffffffffffffffff8213156124cb565b91928002908160ff1c9182607f011c918302019160011d9291909261242c565b90600101906123f5565b92810192811d6123ee565b6004938401931d6123e4565b6008938401931d6123da565b6010938401931d6123cf565b6020938401931d6123c3565b506040915080821d6123b2565b506f7fffffffffffffffffffffffffffffff81131561238d565b506f7fffffffffffffffffffffffffffffff811315612343565b8002908160ff1c9182607f011c918302019160011d91906122a5565b906001019061226e565b92810192811d612267565b6004938401931d61225d565b6008938401931d612253565b6010938401931d612248565b6020938401931d61223c565b506040915080821d61222b565b60846040517f08c379a000000000000000000000000000000000000000000000000000000000815260206004820152602160248201527f4c4d53523a206c696d69745072696365203c3d2063757272656e74207072696360448201527f65000000000000000000000000000000000000000000000000000000000000006064820152fd5b506f7fffffffffffffffffffffffffffffff8613156121b3565b60646040517f08c379a000000000000000000000000000000000000000000000000000000000815260206004820152601660248201527f4c4d53523a2073697a65206d6574726963207a65726f000000000000000000006044820152fd5b60646040517f08c379a000000000000000000000000000000000000000000000000000000000815260206004820152601560248201527f4c4d53523a206c696d69745072696365203c3d203000000000000000000000006044820152fd5b6128d08282612e05565b91801561055b5777ffffffffffffffffffffffffffffffffffffffffffffffff831161296157612903908360401b611e04565b6fffffffffffffffffffffffffffffffff811161055b576fffffffffffffffffffffffffffffffff16906f7fffffffffffffffffffffffffffffff821161055b57600f0b90600f0b126129535790565b60018101809111611d5f5790565b60c083811c8091640100000000821015612b03575b60028262010000612a03941015612af7575b610100811015612aeb575b6010811015612adf575b6004811015612ad4575b1015612acc575b8560017fffffffffffffffffffffffffffffffffffffffffffffffffffffffffffffffff86017fffffffffffffffffffffffffffffffffffffffffffffffffffffffffffffff4184011c019160ff031b611e04565b916fffffffffffffffffffffffffffffffff831161055b578060801c83026fffffffffffffffffffffffffffffffff82168402838760401b90828210612aa2575b5003928160801b91828510612a79575b60801c03612a6e57612a669203611e04565b905b01612903565b505050600190612a68565b907fffffffffffffffffffffffffffffffffffffffffffffffffffffffffffffffff0190612a54565b7fffffffffffffffffffffffffffffffffffffffffffffffffffffffffffffffff0194505f612a44565b6001016129ae565b91810191811c6129a7565b6004928301921c61299d565b6008928301921c612993565b6010928301921c612988565b505060e084811c90612976565b908015612b4357612b2091611df1565b620f4240810190818111611d5f57620f423f01908111611d5f57620f4240900490565b50505f90565b91908015612b6857612b5e612b659184612b10565b8093611d52565b90565b505f9190565b9073ffffffffffffffffffffffffffffffffffffffff7f0000000000000000000000000000000000000000000000000000000000000000169173ffffffffffffffffffffffffffffffffffffffff82169183831480612ce0575b15612c2057505050803b1561055b575f82916004604051809481937fd0e30db00000000000000000000000000000000000000000000000000000000083525af180156113d757612c16575090565b5f612b6591611c05565b9091925073ffffffffffffffffffffffffffffffffffffffff604051927f23b872dd000000000000000000000000000000000000000000000000000000005f5216600452306024528360445260205f60648180855af19060015f5114821615612cc1575b50906040525f60605215612c96575090565b7f5274afe7000000000000000000000000000000000000000000000000000000005f5260045260245ffd5b6001821516612cd7573b15153d1516165f612c84565b823d5f823e3d90fd5b5084341015612bc8565b90600f0b90600f0b017fffffffffffffffffffffffffffffffff8000000000000000000000000000000081121580612d28575b1561055b57600f0b90565b506f7fffffffffffffffffffffffffffffff811315612d1d565b90600f0b90600f0b037fffffffffffffffffffffffffffffffff8000000000000000000000000000000081121580612d28571561055b57600f0b90565b90600f0b90600f0b0260401d7fffffffffffffffffffffffffffffffff8000000000000000000000000000000081121580612d28571561055b57600f0b90565b90600f0b90811561055b5760401b60170b057fffffffffffffffffffffffffffffffff8000000000000000000000000000000081121580612d28571561055b57600f0b90565b8115612b4357600f0b5f811261055b576fffffffffffffffffffffffffffffffff8216810260401c9160801c0277ffffffffffffffffffffffffffffffffffffffffffffffff811161055b5760401b8119811161055b570190565b905f809160208151910182855af18080612f15575b15612e955750506040513d81523d5f602083013e60203d82010160405290565b15612edc5773ffffffffffffffffffffffffffffffffffffffff907f9996b315000000000000000000000000000000000000000000000000000000005f521660045260245ffd5b3d15612eed576040513d5f823e3d90fd5b7fd6bda275000000000000000000000000000000000000000000000000000000005f5260045ffd5b503d151580612e755750813b1515612e75565b600f0b6840000000000000000081121561055b577fffffffffffffffffffffffffffffffffffffffffffffffc000000000000000008112612f8557700171547652b82fe1777d0ffda0d23a7d12612b65910260801d600f0b612f8a565b505f90565b80600f0b6840000000000000000081121561055b577fffffffffffffffffffffffffffffffffffffffffffffffc000000000000000008112612b43576f80000000000000000000000000000000915f6780000000000000008216600f0b13613b86575b5f6740000000000000008216600f0b13613b69575b5f6720000000000000008216600f0b13613b4c575b5f6710000000000000008216600f0b13613b2f575b5f6708000000000000008216600f0b13613b12575b5f6704000000000000008216600f0b13613af5575b5f6702000000000000008216600f0b13613ad8575b5f6701000000000000008216600f0b13613abb575b5f66800000000000008216600f0b13613a9e575b5f66400000000000008216600f0b13613a81575b5f66200000000000008216600f0b13613a64575b5f66100000000000008216600f0b13613a47575b5f66080000000000008216600f0b13613a2a575b5f66040000000000008216600f0b13613a0d575b5f66020000000000008216600f0b136139f0575b5f66010000000000008216600f0b136139d3575b5f658000000000008216600f0b136139b6575b5f654000000000008216600f0b13613999575b5f652000000000008216600f0b1361397c575b5f651000000000008216600f0b1361395f575b5f650800000000008216600f0b13613942575b5f650400000000008216600f0b13613925575b5f650200000000008216600f0b13613908575b5f650100000000008216600f0b136138eb575b5f6480000000008216600f0b136138ce575b5f6440000000008216600f0b136138b1575b5f6420000000008216600f0b13613894575b5f6410000000008216600f0b13613877575b5f6408000000008216600f0b1361385a575b5f6404000000008216600f0b1361383d575b5f6402000000008216600f0b13613820575b5f6401000000008216600f0b13613803575b5f63800000008216600f0b136137e6575b5f63400000008216600f0b136137c9575b5f63200000008216600f0b136137ac575b5f63100000008216600f0b1361378f575b5f63080000008216600f0b13613772575b5f63040000008216600f0b13613755575b5f63020000008216600f0b13613738575b5f63010000008216600f0b1361371b575b5f628000008216600f0b136136fe575b5f624000008216600f0b136136e1575b5f622000008216600f0b136136c4575b5f621000008216600f0b136136a7575b5f620800008216600f0b1361368a575b5f620400008216600f0b1361366d575b5f620200008216600f0b13613650575b5f620100008216600f0b13613633575b5f6180008216600f0b13613616575b5f6140008216600f0b136135f9575b5f6120008216600f0b136135dc575b5f6110008216600f0b136135bf575b5f6108008216600f0b136135a2575b5f6104008216600f0b13613585575b5f6102008216600f0b13613568575b5f6101008216600f0b1361354b575b5f60808216600f0b1361352e575b5f60408216600f0b13613511575b5f60208216600f0b136134f4575b5f60108216600f0b136134d7575b5f60088216600f0b136134ba575b5f60048216600f0b1361349d575b5f60028216600f0b1361347f575b60015f9116600f0b13613462575b60401d600f0b603f03600f0b1c6f7fffffffffffffffffffffffffffffff811161055b57600f0b90565b9070010000000000000000b17217f7d1cf79ab0260801c90613438565b7001000000000000000162e42fefa39ef35890920260801c9161342a565b9170010000000000000002c5c85fdf473de6b20260801c9161341c565b91700100000000000000058b90bfbe8e7bcd6d0260801c9161340e565b917001000000000000000b17217f7d1cf79afa0260801c91613400565b91700100000000000000162e42fefa39ef366f0260801c916133f2565b917001000000000000002c5c85fdf473de6eca0260801c916133e4565b9170010000000000000058b90bfbe8e7bce5440260801c916133d6565b91700100000000000000b17217f7d1cf79e9490260801c916133c8565b9170010000000000000162e42fefa39ef44d910260801c916133b9565b91700100000000000002c5c85fdf473dea871f0260801c916133aa565b917001000000000000058b90bfbe8e7bdcbe2e0260801c9161339b565b9170010000000000000b17217f7d1cf7d83c1a0260801c9161338c565b917001000000000000162e42fefa39f02b772c0260801c9161337d565b9170010000000000002c5c85fdf473e242ea380260801c9161336e565b91700100000000000058b90bfbe8e7cc35c3f00260801c9161335f565b917001000000000000b17217f7d1cfb72b45e10260801c91613350565b91700100000000000162e42fefa39fe95583c20260801c91613340565b917001000000000002c5c85fdf4741bea6e77e0260801c91613330565b9170010000000000058b90bfbe8e8b2d3d4ede0260801c91613320565b91700100000000000b17217f7d1d351a389d400260801c91613310565b9170010000000000162e42fefa3ae53369388c0260801c91613300565b91700100000000002c5c85fdf477b662b269450260801c916132f0565b917001000000000058b90bfbe8f71cb4e4b33d0260801c916132e0565b9170010000000000b17217f7d20cf927c8e94c0260801c916132d0565b917001000000000162e42fefa494f1478fde050260801c916132bf565b9170010000000002c5c85fdf4b15de6f17eb0d0260801c916132ae565b91700100000000058b90bfbe9ddbac5e109cce0260801c9161329d565b917001000000000b17217f7d5a7716bba4a9ae0260801c9161328c565b91700100000000162e42fefb2fed257559bdaa0260801c9161327b565b917001000000002c5c85fdf84bd62ae30a74cc0260801c9161326a565b9170010000000058b90bfbf8479bd5a81b51ad0260801c91613259565b91700100000000b17217f80f4ef5aadda455540260801c91613248565b9170010000000162e42ff0999ce3541b9fffcf0260801c91613236565b91700100000002c5c85fe31f35a6a30da1be500260801c91613224565b917001000000058b90bfcdee5acd3c1cedc8230260801c91613212565b9170010000000b17217fba9c739aa5819f44f90260801c91613200565b917001000000162e42fff037df38aa2b219f060260801c916131ee565b9170010000002c5c8601cc6b9e94213c72737a0260801c916131dc565b91700100000058b90c0b48c6be5df846c5b2ef0260801c916131ca565b917001000000b1721835514b86e6d96efd1bfe0260801c916131b8565b91700100000162e430e5a18f6119e3c02282a50260801c916131a5565b917001000002c5c863b73f016468f6bac5ca2b0260801c91613192565b9170010000058b90cf1e6d97f9ca14dbcc16280260801c9161317f565b91700100000b1721bcfc99d9f890ea069117630260801c9161316c565b9170010000162e43f4f831060e02d839a9d16d0260801c91613159565b91700100002c5c89d5ec6ca4d7c8acc017b7c90260801c91613146565b917001000058b91b5bc9ae2eed81e9b7d4cfab0260801c91613133565b9170010000b17255775c040618bf4a4ade83fc0260801c91613120565b917001000162e525ee054754457d59952920260260801c9161310c565b9170010002c5cc37da9491d0985c348c68e7b30260801c916130f8565b91700100058ba01fb9f96d6cacd4b180917c3d0260801c916130e4565b917001000b175effdc76ba38e31671ca9397250260801c916130d0565b91700100162f3904051fa128bca9c55c31e5df0260801c916130bc565b917001002c605e2e8cec506d21bfc89a23a00f0260801c916130a8565b9170010058c86da1c09ea1ff19d294cf2f679b0260801c91613094565b91700100b1afa5abcbed6129ab13ec11dc95430260801c91613080565b9170010163da9fb33356d84a66ae336dcdfa3f0260801c9161306b565b91700102c9a3e778060ee6f7caca4f7a29bde80260801c91613056565b917001059b0d31585743ae7c548eb68ca417fd0260801c91613041565b9170010b5586cf9890f6298b92b71842a983630260801c9161302c565b917001172b83c7d517adcdf7c8c50eb14a791f0260801c91613017565b917001306fe0a31b7152de8d5a46305c85edec0260801c91613002565b6fb504f333f9de6484597d89b3754abe9f9250612fed56fea26469706673582212209f8c248304a152cecb58d6f4d2c165cacfc462b38e218adb3d95417a7e88de3764736f6c634300081e0033","linkReferences":{}},"methodIdentifiers":{"collectProtocolFees(address)":"2a54db01","flashLoan(address,address,uint256,bytes,uint256,uint256)":"e49cd475","swapToLimit(address,bytes4,address,uint256,uint256,int128,uint256,bool,bytes,uint256,uint256)":"756b160c","swapToLimitAmounts(uint256,uint256,int128,uint256[],int128,int128[],uint256)":"bf05a0a6"},"id":55}