{"abi":[{"type":"constructor","inputs":[{"name":"wrapper_","type":"address","internalType":"contract NativeWrapper"}],"stateMutability":"nonpayable"},{"type":"function","name":"collectProtocolFees","inputs":[{"name":"dest","type":"address","internalType":"address"}],"outputs":[],"stateMutability":"nonpayable"},{"type":"function","name":"swapToLimit","inputs":[{"name":"payer","type":"address","internalType":"address"},{"name":"receiver","type":"address","internalType":"address"},{"name":"inputTokenIndex","type":"uint256","internalType":"uint256"},{"name":"outputTokenIndex","type":"uint256","internalType":"uint256"},{"name":"limitPrice","type":"int128","internalType":"int128"},{"name":"deadline","type":"uint256","internalType":"uint256"},{"name":"unwrap","type":"bool","internalType":"bool"},{"name":"swapFeePpm","type":"uint256","internalType":"uint256"},{"name":"protocolFeePpm","type":"uint256","internalType":"uint256"}],"outputs":[{"name":"amountInUsed","type":"uint256","internalType":"uint256"},{"name":"amountOut","type":"uint256","internalType":"uint256"},{"name":"fee","type":"uint256","internalType":"uint256"}],"stateMutability":"payable"},{"type":"function","name":"swapToLimitAmounts","inputs":[{"name":"inputTokenIndex","type":"uint256","internalType":"uint256"},{"name":"outputTokenIndex","type":"uint256","internalType":"uint256"},{"name":"limitPrice","type":"int128","internalType":"int128"},{"name":"bases","type":"uint256[]","internalType":"uint256[]"},{"name":"kappa","type":"int128","internalType":"int128"},{"name":"qInternal","type":"int128[]","internalType":"int128[]"},{"name":"swapFeePpm","type":"uint256","internalType":"uint256"}],"outputs":[{"name":"amountIn","type":"uint256","internalType":"uint256"},{"name":"amountOut","type":"uint256","internalType":"uint256"},{"name":"fee","type":"uint256","internalType":"uint256"}],"stateMutability":"pure"},{"type":"event","name":"ProtocolFeesCollected","inputs":[],"anonymous":false},{"type":"event","name":"Swap","inputs":[{"name":"payer","type":"address","indexed":false,"internalType":"address"},{"name":"receiver","type":"address","indexed":true,"internalType":"address"},{"name":"tokenIn","type":"address","indexed":true,"internalType":"contract IERC20"},{"name":"tokenOut","type":"address","indexed":true,"internalType":"contract IERC20"},{"name":"amountIn","type":"uint256","indexed":false,"internalType":"uint256"},{"name":"amountOut","type":"uint256","indexed":false,"internalType":"uint256"},{"name":"lpFee","type":"uint256","indexed":false,"internalType":"uint256"},{"name":"protocolFee","type":"uint256","indexed":false,"internalType":"uint256"}],"anonymous":false},{"type":"error","name":"ERC20InsufficientAllowance","inputs":[{"name":"spender","type":"address","internalType":"address"},{"name":"allowance","type":"uint256","internalType":"uint256"},{"name":"needed","type":"uint256","internalType":"uint256"}]},{"type":"error","name":"ERC20InsufficientBalance","inputs":[{"name":"sender","type":"address","internalType":"address"},{"name":"balance","type":"uint256","internalType":"uint256"},{"name":"needed","type":"uint256","internalType":"uint256"}]},{"type":"error","name":"ERC20InvalidApprover","inputs":[{"name":"approver","type":"address","internalType":"address"}]},{"type":"error","name":"ERC20InvalidReceiver","inputs":[{"name":"receiver","type":"address","internalType":"address"}]},{"type":"error","name":"ERC20InvalidSender","inputs":[{"name":"sender","type":"address","internalType":"address"}]},{"type":"error","name":"ERC20InvalidSpender","inputs":[{"name":"spender","type":"address","internalType":"address"}]},{"type":"error","name":"ReentrancyGuardReentrantCall","inputs":[]},{"type":"error","name":"SafeERC20FailedOperation","inputs":[{"name":"token","type":"address","internalType":"address"}]}],"bytecode":{"object":"0x60a034608a57601f61321138819003918201601f19168301916001600160401b03831184841017608e57808492602094604052833981010312608a57516001600160a01b0381168103608a5760017f9b779b17422d0df92223018b32b4d1fa46e071723d6817e2486d003becc55f005560805260405161316e90816100a38239608051816104b70152f35b5f80fd5b634e487b7160e01b5f52604160045260245ffdfe60806040526004361015610011575f80fd5b5f3560e01c80632a54db011461106b5780638a3d858d1461022c5763bf05a0a61461003a575f80fd5b346102185760e07ffffffffffffffffffffffffffffffffffffffffffffffffffffffffffffffffc360112610218576004356024356044359081600f0b8203610218576064359267ffffffffffffffff84116102185736602385011215610218578360040135936100aa8561141c565b946100b860405196876113db565b8086526024602087019160051b8301019136831161021857602401905b82821061021c575050506100e76113cb565b9260a43567ffffffffffffffff811161021857366023820112156102185780600401356101138161141c565b9161012160405193846113db565b8183526024602084019260051b8201019036821161021857602401915b8183106101fe575050509161016261017292858361016b979660c435998b516117b1565b949091876115b7565b51906120c6565b9361017e8515156115cb565b5f948094806101cf575b50509161019b6101a2926101cb946115b7565b5190612464565b926101ae841515611630565b604051938493846040919493926060820195825260208201520152565b0390f35b8196506101cb94929550926101f46101ed6101a29561019b94612310565b80986114fb565b9592945092610188565b823580600f0b81036102185781526020928301920161013e565b5f80fd5b81358152602091820191016100d5565b6101207ffffffffffffffffffffffffffffffffffffffffffffffffffffffffffffffffc3601126102185761025f6113a8565b60243573ffffffffffffffffffffffffffffffffffffffff81168103610218576102876113cb565b9160a43560c435151560c435036102185760ff6006541661100d576102aa611695565b600a5480604435109081611001575b5015610fa3575f84600f0b1315610f45578015908115610f3a575b5015610edc57602490602073ffffffffffffffffffffffffffffffffffffffff6102ff604435611479565b90549060031b1c16604051938480927f70a082310000000000000000000000000000000000000000000000000000000082523060048301525afa9182156108fc575f92610ea7575b50602490602073ffffffffffffffffffffffffffffffffffffffff61036d606435611479565b90549060031b1c16604051938480927f70a082310000000000000000000000000000000000000000000000000000000082523060048301525afa9182156108fc575f92610e73575b5060075494600854600f0b60405196876020600954998a8152019860095f5260205f20905f915b816001840110610e4d579a61040d92849261041a999a9b9c9d5491818110610e39575b10610e28575b5003826113db565b60643592604435926117b1565b92909161043861042b6044356114a9565b90549060031b1c846120c6565b946104448615156115cb565b5f94869460e435610e07575b61046b61045e6064356114a9565b90549060031b1c83612464565b986104778a1515611630565b73ffffffffffffffffffffffffffffffffffffffff610497604435611479565b90549060031b1c169573ffffffffffffffffffffffffffffffffffffffff7f0000000000000000000000000000000000000000000000000000000000000000169788881480610dfd575b15610d4e57883b15610218576040517fd0e30db00000000000000000000000000000000000000000000000000000000081525f81600481858e5af180156108fc57610d3e575b505b604051957f70a082310000000000000000000000000000000000000000000000000000000087523060048801526020876024818c5afa9687156108fc575f97610d06575b5090610578916114fb565b8503610c825773ffffffffffffffffffffffffffffffffffffffff61059e606435611479565b90549060031b1c169760c43560c435610c79575b15610bc857803b15610218575f809160248e60405194859384927f2e1a7d4d00000000000000000000000000000000000000000000000000000000845260048401525af19081156108fc575f808e8194938294610bb8575b50865af13d15610bb3573d67ffffffffffffffff8111610b86576040519061065a60207fffffffffffffffffffffffffffffffffffffffffffffffffffffffffffffffe0601f84011601836113db565b81525f60203d92013e5b15610b28575b6040517f70a082310000000000000000000000000000000000000000000000000000000081523060048201526020816024818c5afa9081156108fc578c905f92610af2575b506106ba91926114c1565b8103610a6e575f948961010435151580610a65575b6109d8575b5061077d91610759610718610772936107006106f1604435611434565b90549060031b1c821015611552565b61070b604435611434565b90549060031b1c906114c1565b610723604435611491565b9091907fffffffffffffffffffffffffffffffffffffffffffffffffffffffffffffffff83549160031b92831b921b1916179055565b6107676106f1606435611434565b61070b606435611434565b610723606435611491565b610795600754806044351090816109cc575b5061170c565b5f82600f0b131561096e575f83600f0b1315610910577f6950339c7661cca450281e53722525cc136590e622b011d5be7e4c4993685a6c9361086461085960a09561083f61080c73ffffffffffffffffffffffffffffffffffffffff976107fd604435611771565b90549060031b1c600f0b612349565b610817604435611771565b9091906fffffffffffffffffffffffffffffffff83549160031b928116831b921b1916179055565b61084a606435611771565b90549060031b1c600f0b6123a1565b610817606435611771565b61086e818a6114c1565b83604051971687528a60208801528b6040880152606087015260808601521692a460017f9b779b17422d0df92223018b32b4d1fa46e071723d6817e2486d003becc55f005547801580156108e0575b50506101cb90604051938493846040919493926060820195825260208201520152565b5f80809381938290610907575b3390f1156108fc5783806108bd565b6040513d5f823e3d90fd5b506108fc6108ed565b60646040517f08c379a000000000000000000000000000000000000000000000000000000000815260206004820152601460248201527f4c4d53523a20616d6f756e744f7574203c3d20300000000000000000000000006044820152fd5b60646040517f08c379a000000000000000000000000000000000000000000000000000000000815260206004820152601360248201527f4c4d53523a20616d6f756e74496e203c3d2030000000000000000000000000006044820152fd5b9050606435108c61078f565b61077291965091610759610718620f42406109fa61077d966101043590611508565b049889610a0e575b935050509150896106d4565b610a60610a1c604435611434565b610a2c8d83548360031b1c6114fb565b907fffffffffffffffffffffffffffffffffffffffffffffffffffffffffffffffff83549160031b92831b921b1916179055565b610a02565b508015156106cf565b60846040517f08c379a000000000000000000000000000000000000000000000000000000000815260206004820152602260248201527f73776170546f4c696d69743a206e6f6e2d7374616e6461726420746f6b656e4f60448201527f75740000000000000000000000000000000000000000000000000000000000006064820152fd5b9150506020813d602011610b20575b81610b0e602093836113db565b8101031261021857518b6106ba6106af565b3d9150610b01565b60646040517f08c379a000000000000000000000000000000000000000000000000000000000815260206004820152601460248201527f7265636569766572206e6f742070617961626c650000000000000000000000006044820152fd5b7f4e487b71000000000000000000000000000000000000000000000000000000005f52604160045260245ffd5b610664565b82610bc2916113db565b5f61060a565b506040517fa9059cbb000000000000000000000000000000000000000000000000000000005f5273ffffffffffffffffffffffffffffffffffffffff83166004528b60245260205f604481808d5af19060015f5114821615610c58575b60405261066a57877f5274afe7000000000000000000000000000000000000000000000000000000005f5260045260245ffd5b906001811516610c7057893b15153d15161690610c25565b503d5f823e3d90fd5b508089146105b2565b60846040517f08c379a000000000000000000000000000000000000000000000000000000000815260206004820152602160248201527f73776170546f4c696d69743a206e6f6e2d7374616e6461726420746f6b656e4960448201527f6e000000000000000000000000000000000000000000000000000000000000006064820152fd5b919096506020823d602011610d36575b81610d23602093836113db565b810103126102185790519561057861056d565b3d9150610d16565b5f610d48916113db565b8c610527565b6040517f23b872dd000000000000000000000000000000000000000000000000000000005f5273ffffffffffffffffffffffffffffffffffffffff8816600452306024528160445260205f606481808d5af19060015f5114821615610de5575b6040525f60605261052957877f5274afe7000000000000000000000000000000000000000000000000000000005f5260045260245ffd5b906001811516610c7057893b15153d15161690610dae565b50803410156104e1565b94509450610e1760e43587612310565b94610e2286886114fb565b94610450565b60801d600f0b81526020018c610405565b92602060019184600f0b81520193016103ff565b9a600160406002928e5480600f0b825260801d600f0b6020820152019c019201916103dc565b9091506020813d602011610e9f575b81610e8f602093836113db565b81010312610218575190856103b5565b3d9150610e82565b9091506020813d602011610ed4575b81610ec3602093836113db565b810103126102185751906024610347565b3d9150610eb6565b60646040517f08c379a000000000000000000000000000000000000000000000000000000000815260206004820152601e60248201527f73776170546f4c696d69743a20646561646c696e6520657863656564656400006044820152fd5b9050421115846102d4565b60646040517f08c379a000000000000000000000000000000000000000000000000000000000815260206004820152601760248201527f73776170546f4c696d69743a206c696d6974203c3d20300000000000000000006044820152fd5b60646040517f08c379a000000000000000000000000000000000000000000000000000000000815260206004820152601060248201527f73776170546f4c696d69743a20696478000000000000000000000000000000006044820152fd5b905060643510856102b9565b60646040517f08c379a000000000000000000000000000000000000000000000000000000000815260206004820152600660248201527f6b696c6c656400000000000000000000000000000000000000000000000000006044820152fd5b346102185760207ffffffffffffffffffffffffffffffffffffffffffffffffffffffffffffffffc3601126102185773ffffffffffffffffffffffffffffffffffffffff6110b76113a8565b6110bf611695565b16801561134a57600a545f5b81811061111c577fd508feb4afc81230b8e5dcca865a405a72db1f928a5064f893ab22ab56ec25215f80a160017f9b779b17422d0df92223018b32b4d1fa46e071723d6817e2486d003becc55f0055005b61112581611434565b90549060031b1c8015611341576024602073ffffffffffffffffffffffffffffffffffffffff61115485611479565b90549060031b1c16604051928380927f70a082310000000000000000000000000000000000000000000000000000000082523060048301525afa9081156108fc575f91611310575b508181106112b2576111e6826111ef926111b586611434565b7fffffffffffffffffffffffffffffffffffffffffffffffffffffffffffffffff82549160031b1b191690556114c1565b61072384611491565b73ffffffffffffffffffffffffffffffffffffffff61120d83611479565b90549060031b1c1690604051907fa9059cbb000000000000000000000000000000000000000000000000000000005f528560045260245260205f60448180865af19060015f511482161561129a575b6040521561126f57506001905b016110cb565b7f5274afe7000000000000000000000000000000000000000000000000000000005f5260045260245ffd5b906001811516610c7057823b15153d1516169061125c565b60646040517f08c379a000000000000000000000000000000000000000000000000000000000815260206004820152601260248201527f636f6c6c6563743a20666565203e2062616c00000000000000000000000000006044820152fd5b90506020813d8211611339575b8161132a602093836113db565b8101031261021857518561119c565b3d915061131d565b50600190611269565b60646040517f08c379a000000000000000000000000000000000000000000000000000000000815260206004820152601260248201527f636f6c6c6563743a207a65726f206164647200000000000000000000000000006044820152fd5b6004359073ffffffffffffffffffffffffffffffffffffffff8216820361021857565b6084359081600f0b820361021857565b90601f7fffffffffffffffffffffffffffffffffffffffffffffffffffffffffffffffe0910116810190811067ffffffffffffffff821117610b8657604052565b67ffffffffffffffff8111610b865760051b60200190565b600b5481101561144c57600b5f5260205f2001905f90565b7f4e487b71000000000000000000000000000000000000000000000000000000005f52603260045260245ffd5b600a5481101561144c57600a5f5260205f2001905f90565b600e5481101561144c57600e5f5260205f2001905f90565b600c5481101561144c57600c5f5260205f2001905f90565b919082039182116114ce57565b7f4e487b71000000000000000000000000000000000000000000000000000000005f52601160045260245ffd5b919082018092116114ce57565b818102929181159184041417156114ce57565b8115611525570490565b7f4e487b71000000000000000000000000000000000000000000000000000000005f52601260045260245ffd5b1561155957565b60646040517f08c379a000000000000000000000000000000000000000000000000000000000815260206004820152601760248201527f62616c616e6365203c2070726f746f636f6c206f7765640000000000000000006044820152fd5b805182101561144c5760209160051b010190565b156115d257565b60646040517f08c379a000000000000000000000000000000000000000000000000000000000815260206004820152601760248201527f73776170546f4c696d69743a20696e707574207a65726f0000000000000000006044820152fd5b1561163757565b60646040517f08c379a000000000000000000000000000000000000000000000000000000000815260206004820152601860248201527f73776170546f4c696d69743a206f7574707574207a65726f00000000000000006044820152fd5b60027f9b779b17422d0df92223018b32b4d1fa46e071723d6817e2486d003becc55f0054146116e45760027f9b779b17422d0df92223018b32b4d1fa46e071723d6817e2486d003becc55f0055565b7f3ee5aeb5000000000000000000000000000000000000000000000000000000005f5260045ffd5b1561171357565b60646040517f08c379a000000000000000000000000000000000000000000000000000000000815260206004820152600960248201527f4c4d53523a2069647800000000000000000000000000000000000000000000006044820152fd5b9060095482101561144c5760095f52600182901c7f6e1540171b6c0c960b71a7020d9f60077f6af931a8bbf590da0223dacf75c7af019160041b60101690565b6117cc90969392969594919580841090816120bc575061170c565b83600f0b905f82131561205e575f94855b8851871015611808576118006001916117f6898c6115b7565b51600f0b90612349565b9601956117dd565b90929496919395505f81600f0b131561200057611824916123de565b9081600f0b5f811315611fa257801561021857700100000000000000000000000000000000057fffffffffffffffffffffffffffffffff8000000000000000000000000000000081121580611f88575b1561021857600f0b945f611888858a6115b7565b51600f0b1315611f2a576118c3866118be6118a66118c8948c6115b7565b51600f0b6118b4888d6115b7565b51600f0b906123a1565b6123de565b6124bf565b9081600f0b945f861315611ecc57851215611e4857816118e79161241e565b600f0b5f811315610218575f908068010000000000000000821215611e3b575b806401000000006002921215611e2f575b62010000811215611e23575b610100811215611e17575b6010811215611e0b575b6004811215611e00575b1215611df6575b7fffffffffffffffffffffffffffffffffffffffffffffffffffffffffffffffc0820160401b91607f031b90678000000000000000915b5f8313611dda57506fb17217f7d1cf79abc9e3b39803f2f6af9150600f0b0260801d926119ae84846123de565b937fffffffffffffffffffffffffffffffff8000000000000000000000000000000081600f0b14610218576119e7905f03600f0b6124bf565b600f0b68010000000000000000037fffffffffffffffffffffffffffffffff8000000000000000000000000000000081121580611dc0575b1561021857611a3190600f0b836123de565b600f0b68010000000000000000017fffffffffffffffffffffffffffffffff8000000000000000000000000000000081121580611da6575b1561021857600f0b5f811315610218575f908068010000000000000000821215611d99575b806401000000006002921215611d8d575b62010000811215611d81575b610100811215611d75575b6010811215611d69575b6004811215611d5e575b1215611d54575b607f8290031b91907fffffffffffffffffffffffffffffffffffffffffffffffffffffffffffffffc00160401b6780000000000000005b5f8113611d345750611b3d92506fb17217f7d1cf79abc9e3b39803f2f6af611b3791600f0b0260801d856123de565b986115b7565b51600f0b9383958589600f0b13611b59575b5050505050509190565b85985068010000000000000000929496506118c390611b7a929496996123de565b9101907fffffffffffffffffffffffffffffffff8000000000000000000000000000000082121580611d1a575b1561021857611bb891600f0b6123a1565b905f600f83900b13611bd3575050505b5f8080808080611b4f565b611bde92935061241e565b600f0b5f811315610218575f908068010000000000000000821215611d0d575b806401000000006002921215611d01575b62010000811215611cf5575b610100811215611ce9575b6010811215611cdd575b6004811215611cd2575b1215611cc8575b607f8290031b91907fffffffffffffffffffffffffffffffffffffffffffffffffffffffffffffffc00160401b6780000000000000005b5f8113611ca85750611ca39250600f0b6fb17217f7d1cf79abc9e3b39803f2f6af0260801d906123de565b611bc8565b91928002908160ff1c9182607f011c918302019160011d92919092611c78565b9060010190611c41565b92810192811d611c3a565b6004938401931d611c30565b6008938401931d611c26565b6010938401931d611c1b565b6020938401931d611c0f565b506040915080821d611bfe565b506f7fffffffffffffffffffffffffffffff821315611ba7565b91928002908160ff1c9182607f011c918302019160011d92919092611b08565b9060010190611ad1565b92810192811d611aca565b6004938401931d611ac0565b6008938401931d611ab6565b6010938401931d611aab565b6020938401931d611a9f565b506040915080821d611a8e565b506f7fffffffffffffffffffffffffffffff811315611a69565b506f7fffffffffffffffffffffffffffffff811315611a1f565b8002908160ff1c9182607f011c918302019160011d9190611981565b906001019061194a565b92810192811d611943565b6004938401931d611939565b6008938401931d61192f565b6010938401931d611924565b6020938401931d611918565b506040915080821d611907565b60846040517f08c379a000000000000000000000000000000000000000000000000000000000815260206004820152602160248201527f4c4d53523a206c696d69745072696365203c3d2063757272656e74207072696360448201527f65000000000000000000000000000000000000000000000000000000000000006064820152fd5b60646040517f08c379a000000000000000000000000000000000000000000000000000000000815260206004820152600b60248201527f4c4d53523a2072303c3d300000000000000000000000000000000000000000006044820152fd5b60646040517f08c379a000000000000000000000000000000000000000000000000000000000815260206004820152600c60248201527f4c4d53523a20655f6a3d3d3000000000000000000000000000000000000000006044820152fd5b506f7fffffffffffffffffffffffffffffff811315611874565b60646040517f08c379a000000000000000000000000000000000000000000000000000000000815260206004820152600a60248201527f4c4d53523a20623c3d30000000000000000000000000000000000000000000006044820152fd5b60646040517f08c379a000000000000000000000000000000000000000000000000000000000815260206004820152601660248201527f4c4d53523a2073697a65206d6574726963207a65726f000000000000000000006044820152fd5b60646040517f08c379a000000000000000000000000000000000000000000000000000000000815260206004820152601560248201527f4c4d53523a206c696d69745072696365203c3d203000000000000000000000006044820152fd5b905082105f61078f565b6120d08282612464565b9180156102185777ffffffffffffffffffffffffffffffffffffffffffffffff831161216157612103908360401b61151b565b6fffffffffffffffffffffffffffffffff8111610218576fffffffffffffffffffffffffffffffff16906f7fffffffffffffffffffffffffffffff821161021857600f0b90600f0b126121535790565b600181018091116114ce5790565b60c083811c8091640100000000821015612303575b600282620100006122039410156122f7575b6101008110156122eb575b60108110156122df575b60048110156122d4575b10156122cc575b8560017fffffffffffffffffffffffffffffffffffffffffffffffffffffffffffffffff86017fffffffffffffffffffffffffffffffffffffffffffffffffffffffffffffff4184011c019160ff031b61151b565b916fffffffffffffffffffffffffffffffff8311610218578060801c83026fffffffffffffffffffffffffffffffff82168402838760401b908282106122a2575b5003928160801b91828510612279575b60801c0361226e57612266920361151b565b905b01612103565b505050600190612268565b907fffffffffffffffffffffffffffffffffffffffffffffffffffffffffffffffff0190612254565b7fffffffffffffffffffffffffffffffffffffffffffffffffffffffffffffffff0194505f612244565b6001016121ae565b91810191811c6121a7565b6004928301921c61219d565b6008928301921c612193565b6010928301921c612188565b505060e084811c90612176565b9080156123435761232091611508565b620f42408101908181116114ce57620f423f019081116114ce57620f4240900490565b50505f90565b90600f0b90600f0b017fffffffffffffffffffffffffffffffff8000000000000000000000000000000081121580612387575b1561021857600f0b90565b506f7fffffffffffffffffffffffffffffff81131561237c565b90600f0b90600f0b037fffffffffffffffffffffffffffffffff8000000000000000000000000000000081121580612387571561021857600f0b90565b90600f0b90600f0b0260401d7fffffffffffffffffffffffffffffffff8000000000000000000000000000000081121580612387571561021857600f0b90565b90600f0b9081156102185760401b60170b057fffffffffffffffffffffffffffffffff8000000000000000000000000000000081121580612387571561021857600f0b90565b811561234357600f0b5f8112610218576fffffffffffffffffffffffffffffffff8216810260401c9160801c0277ffffffffffffffffffffffffffffffffffffffffffffffff81116102185760401b81198111610218570190565b600f0b68400000000000000000811215610218577fffffffffffffffffffffffffffffffffffffffffffffffc00000000000000000811261251f57700171547652b82fe1777d0ffda0d23a7d1261251c910260801d600f0b612524565b90565b505f90565b80600f0b68400000000000000000811215610218577fffffffffffffffffffffffffffffffffffffffffffffffc000000000000000008112612343576f80000000000000000000000000000000915f6780000000000000008216600f0b13613120575b5f6740000000000000008216600f0b13613103575b5f6720000000000000008216600f0b136130e6575b5f6710000000000000008216600f0b136130c9575b5f6708000000000000008216600f0b136130ac575b5f6704000000000000008216600f0b1361308f575b5f6702000000000000008216600f0b13613072575b5f6701000000000000008216600f0b13613055575b5f66800000000000008216600f0b13613038575b5f66400000000000008216600f0b1361301b575b5f66200000000000008216600f0b13612ffe575b5f66100000000000008216600f0b13612fe1575b5f66080000000000008216600f0b13612fc4575b5f66040000000000008216600f0b13612fa7575b5f66020000000000008216600f0b13612f8a575b5f66010000000000008216600f0b13612f6d575b5f658000000000008216600f0b13612f50575b5f654000000000008216600f0b13612f33575b5f652000000000008216600f0b13612f16575b5f651000000000008216600f0b13612ef9575b5f650800000000008216600f0b13612edc575b5f650400000000008216600f0b13612ebf575b5f650200000000008216600f0b13612ea2575b5f650100000000008216600f0b13612e85575b5f6480000000008216600f0b13612e68575b5f6440000000008216600f0b13612e4b575b5f6420000000008216600f0b13612e2e575b5f6410000000008216600f0b13612e11575b5f6408000000008216600f0b13612df4575b5f6404000000008216600f0b13612dd7575b5f6402000000008216600f0b13612dba575b5f6401000000008216600f0b13612d9d575b5f63800000008216600f0b13612d80575b5f63400000008216600f0b13612d63575b5f63200000008216600f0b13612d46575b5f63100000008216600f0b13612d29575b5f63080000008216600f0b13612d0c575b5f63040000008216600f0b13612cef575b5f63020000008216600f0b13612cd2575b5f63010000008216600f0b13612cb5575b5f628000008216600f0b13612c98575b5f624000008216600f0b13612c7b575b5f622000008216600f0b13612c5e575b5f621000008216600f0b13612c41575b5f620800008216600f0b13612c24575b5f620400008216600f0b13612c07575b5f620200008216600f0b13612bea575b5f620100008216600f0b13612bcd575b5f6180008216600f0b13612bb0575b5f6140008216600f0b13612b93575b5f6120008216600f0b13612b76575b5f6110008216600f0b13612b59575b5f6108008216600f0b13612b3c575b5f6104008216600f0b13612b1f575b5f6102008216600f0b13612b02575b5f6101008216600f0b13612ae5575b5f60808216600f0b13612ac8575b5f60408216600f0b13612aab575b5f60208216600f0b13612a8e575b5f60108216600f0b13612a71575b5f60088216600f0b13612a54575b5f60048216600f0b13612a37575b5f60028216600f0b13612a19575b60015f9116600f0b136129fc575b60401d600f0b603f03600f0b1c6f7fffffffffffffffffffffffffffffff811161021857600f0b90565b9070010000000000000000b17217f7d1cf79ab0260801c906129d2565b7001000000000000000162e42fefa39ef35890920260801c916129c4565b9170010000000000000002c5c85fdf473de6b20260801c916129b6565b91700100000000000000058b90bfbe8e7bcd6d0260801c916129a8565b917001000000000000000b17217f7d1cf79afa0260801c9161299a565b91700100000000000000162e42fefa39ef366f0260801c9161298c565b917001000000000000002c5c85fdf473de6eca0260801c9161297e565b9170010000000000000058b90bfbe8e7bce5440260801c91612970565b91700100000000000000b17217f7d1cf79e9490260801c91612962565b9170010000000000000162e42fefa39ef44d910260801c91612953565b91700100000000000002c5c85fdf473dea871f0260801c91612944565b917001000000000000058b90bfbe8e7bdcbe2e0260801c91612935565b9170010000000000000b17217f7d1cf7d83c1a0260801c91612926565b917001000000000000162e42fefa39f02b772c0260801c91612917565b9170010000000000002c5c85fdf473e242ea380260801c91612908565b91700100000000000058b90bfbe8e7cc35c3f00260801c916128f9565b917001000000000000b17217f7d1cfb72b45e10260801c916128ea565b91700100000000000162e42fefa39fe95583c20260801c916128da565b917001000000000002c5c85fdf4741bea6e77e0260801c916128ca565b9170010000000000058b90bfbe8e8b2d3d4ede0260801c916128ba565b91700100000000000b17217f7d1d351a389d400260801c916128aa565b9170010000000000162e42fefa3ae53369388c0260801c9161289a565b91700100000000002c5c85fdf477b662b269450260801c9161288a565b917001000000000058b90bfbe8f71cb4e4b33d0260801c9161287a565b9170010000000000b17217f7d20cf927c8e94c0260801c9161286a565b917001000000000162e42fefa494f1478fde050260801c91612859565b9170010000000002c5c85fdf4b15de6f17eb0d0260801c91612848565b91700100000000058b90bfbe9ddbac5e109cce0260801c91612837565b917001000000000b17217f7d5a7716bba4a9ae0260801c91612826565b91700100000000162e42fefb2fed257559bdaa0260801c91612815565b917001000000002c5c85fdf84bd62ae30a74cc0260801c91612804565b9170010000000058b90bfbf8479bd5a81b51ad0260801c916127f3565b91700100000000b17217f80f4ef5aadda455540260801c916127e2565b9170010000000162e42ff0999ce3541b9fffcf0260801c916127d0565b91700100000002c5c85fe31f35a6a30da1be500260801c916127be565b917001000000058b90bfcdee5acd3c1cedc8230260801c916127ac565b9170010000000b17217fba9c739aa5819f44f90260801c9161279a565b917001000000162e42fff037df38aa2b219f060260801c91612788565b9170010000002c5c8601cc6b9e94213c72737a0260801c91612776565b91700100000058b90c0b48c6be5df846c5b2ef0260801c91612764565b917001000000b1721835514b86e6d96efd1bfe0260801c91612752565b91700100000162e430e5a18f6119e3c02282a50260801c9161273f565b917001000002c5c863b73f016468f6bac5ca2b0260801c9161272c565b9170010000058b90cf1e6d97f9ca14dbcc16280260801c91612719565b91700100000b1721bcfc99d9f890ea069117630260801c91612706565b9170010000162e43f4f831060e02d839a9d16d0260801c916126f3565b91700100002c5c89d5ec6ca4d7c8acc017b7c90260801c916126e0565b917001000058b91b5bc9ae2eed81e9b7d4cfab0260801c916126cd565b9170010000b17255775c040618bf4a4ade83fc0260801c916126ba565b917001000162e525ee054754457d59952920260260801c916126a6565b9170010002c5cc37da9491d0985c348c68e7b30260801c91612692565b91700100058ba01fb9f96d6cacd4b180917c3d0260801c9161267e565b917001000b175effdc76ba38e31671ca9397250260801c9161266a565b91700100162f3904051fa128bca9c55c31e5df0260801c91612656565b917001002c605e2e8cec506d21bfc89a23a00f0260801c91612642565b9170010058c86da1c09ea1ff19d294cf2f679b0260801c9161262e565b91700100b1afa5abcbed6129ab13ec11dc95430260801c9161261a565b9170010163da9fb33356d84a66ae336dcdfa3f0260801c91612605565b91700102c9a3e778060ee6f7caca4f7a29bde80260801c916125f0565b917001059b0d31585743ae7c548eb68ca417fd0260801c916125db565b9170010b5586cf9890f6298b92b71842a983630260801c916125c6565b917001172b83c7d517adcdf7c8c50eb14a791f0260801c916125b1565b917001306fe0a31b7152de8d5a46305c85edec0260801c9161259c565b6fb504f333f9de6484597d89b3754abe9f925061258756fea26469706673582212201083506122bf912a4bfdfa9e1e73a36b160604f0efa01fe3a272a4cac4112f6464736f6c634300081e0033","linkReferences":{}},"methodIdentifiers":{"collectProtocolFees(address)":"2a54db01","swapToLimit(address,address,uint256,uint256,int128,uint256,bool,uint256,uint256)":"8a3d858d","swapToLimitAmounts(uint256,uint256,int128,uint256[],int128,int128[],uint256)":"bf05a0a6"},"id":54}