{"abi":[{"type":"function","name":"burnAmounts","inputs":[{"name":"lpTokenAmount","type":"uint256","internalType":"uint256"},{"name":"totalSupply","type":"uint256","internalType":"uint256"},{"name":"cachedUintBalances","type":"uint256[]","internalType":"uint256[]"}],"outputs":[{"name":"withdrawAmounts","type":"uint256[]","internalType":"uint256[]"}],"stateMutability":"pure"},{"type":"function","name":"burnSwapAmounts","inputs":[{"name":"lpAmount","type":"uint256","internalType":"uint256"},{"name":"outputTokenIndex","type":"uint256","internalType":"uint256"},{"name":"swapFeePpm","type":"uint256","internalType":"uint256"},{"name":"lmsrState","type":"tuple","internalType":"struct LMSRKernel.State","components":[{"name":"kappa","type":"int128","internalType":"int128"},{"name":"effectiveSigmaQ","type":"int128","internalType":"int128"},{"name":"qInternal","type":"int128[]","internalType":"int128[]"}]},{"name":"bases_","type":"uint256[]","internalType":"uint256[]"},{"name":"totalSupply_","type":"uint256","internalType":"uint256"},{"name":"effectiveSigmaQ","type":"int128","internalType":"int128"},{"name":"killed","type":"bool","internalType":"bool"}],"outputs":[{"name":"amountOut","type":"uint256","internalType":"uint256"},{"name":"outFee","type":"uint256","internalType":"uint256"}],"stateMutability":"pure"},{"type":"function","name":"swapMintAmounts","inputs":[{"name":"inputTokenIndex","type":"uint256","internalType":"uint256"},{"name":"lpAmountOut","type":"uint256","internalType":"uint256"},{"name":"swapFeePpm","type":"uint256","internalType":"uint256"},{"name":"lmsrState","type":"tuple","internalType":"struct LMSRKernel.State","components":[{"name":"kappa","type":"int128","internalType":"int128"},{"name":"effectiveSigmaQ","type":"int128","internalType":"int128"},{"name":"qInternal","type":"int128[]","internalType":"int128[]"}]},{"name":"bases_","type":"uint256[]","internalType":"uint256[]"},{"name":"totalSupply_","type":"uint256","internalType":"uint256"},{"name":"effectiveSigmaQ","type":"int128","internalType":"int128"}],"outputs":[{"name":"amountIn","type":"uint256","internalType":"uint256"},{"name":"inFee","type":"uint256","internalType":"uint256"}],"stateMutability":"pure"},{"type":"event","name":"Approval","inputs":[{"name":"owner","type":"address","indexed":true,"internalType":"address"},{"name":"spender","type":"address","indexed":true,"internalType":"address"},{"name":"value","type":"uint256","indexed":false,"internalType":"uint256"}],"anonymous":false},{"type":"event","name":"Burn","inputs":[{"name":"payer","type":"address","indexed":false,"internalType":"address"},{"name":"receiver","type":"address","indexed":true,"internalType":"address"},{"name":"amounts","type":"uint256[]","indexed":false,"internalType":"uint256[]"},{"name":"lpBurned","type":"uint256","indexed":false,"internalType":"uint256"}],"anonymous":false},{"type":"event","name":"BurnSwap","inputs":[{"name":"payer","type":"address","indexed":true,"internalType":"address"},{"name":"receiver","type":"address","indexed":true,"internalType":"address"},{"name":"tokenOut","type":"address","indexed":true,"internalType":"contract IERC20"},{"name":"amountIn","type":"uint256","indexed":false,"internalType":"uint256"},{"name":"amountOut","type":"uint256","indexed":false,"internalType":"uint256"},{"name":"lpFee","type":"uint256","indexed":false,"internalType":"uint256"},{"name":"protocolFee","type":"uint256","indexed":false,"internalType":"uint256"}],"anonymous":false},{"type":"event","name":"SwapMint","inputs":[{"name":"payer","type":"address","indexed":true,"internalType":"address"},{"name":"receiver","type":"address","indexed":true,"internalType":"address"},{"name":"tokenIn","type":"address","indexed":true,"internalType":"contract IERC20"},{"name":"amountIn","type":"uint256","indexed":false,"internalType":"uint256"},{"name":"amountOut","type":"uint256","indexed":false,"internalType":"uint256"},{"name":"lpFee","type":"uint256","indexed":false,"internalType":"uint256"},{"name":"protocolFee","type":"uint256","indexed":false,"internalType":"uint256"},{"name":"gammaFilled","type":"uint256","indexed":false,"internalType":"uint256"}],"anonymous":false},{"type":"event","name":"Transfer","inputs":[{"name":"from","type":"address","indexed":true,"internalType":"address"},{"name":"to","type":"address","indexed":true,"internalType":"address"},{"name":"value","type":"uint256","indexed":false,"internalType":"uint256"}],"anonymous":false},{"type":"error","name":"AddressEmptyCode","inputs":[{"name":"target","type":"address","internalType":"address"}]},{"type":"error","name":"FailedCall","inputs":[]},{"type":"error","name":"InsufficientBalance","inputs":[{"name":"balance","type":"uint256","internalType":"uint256"},{"name":"needed","type":"uint256","internalType":"uint256"}]},{"type":"error","name":"SafeERC20FailedOperation","inputs":[{"name":"token","type":"address","internalType":"address"}]}],"bytecode":{"object":"0x60808060405234601b57615ba890816100208239308160070152f35b5f80fdfe6080604052307f0000000000000000000000000000000000000000000000000000000000000000146004361015610034575f80fd5b5f905f3560e01c9081630ba1331114611eab57816314d22aa614611d21578163228fa85014611cd8578163648ba9f5146107c85781636c024e2f146101a1575063fd8a5be614610082575f80fd5b60e060031936011261019e5760243560043560643567ffffffffffffffff811161019c576100b490369060040161258d565b9160843567ffffffffffffffff8111610198579161015961015f92604096836100e561016698973690600401612518565b9661014a61013f61012260a4356100fa61256f565b976101078d5188106128ec565b61011281151561268c565b61011d8215156126d7565b61317f565b6101308682600f0b13612722565b61013981613ad6565b906133f7565b9384600f0b13612722565b898151600f0b910151906140f8565b92612847565b5190614590565b610171811515612722565b61017d604435826145cc565b8091019061018c821515612722565b82519182526020820152f35b8480fd5b835b80fd5b905061019e57602060031936011261019e576004359067ffffffffffffffff821161019e57816004019161018060031982360301126107c457600b546064820135906101ee8183106128ec565b6044830135906101ff82151561268c565b61021760a485013580159081156107b9575b50612641565b600454956102268715156126d7565b86831494851561023581612937565b61024a6102456101248401612a13565b612dc2565b61027561016483019961026f61026a6102638d88612a21565b36916124cc565b612ecc565b8661317f565b966102848989600f0b13612722565b906107ad575b1561076d57855b61029f8882600f0b13612722565b6102a76140d0565b9086600954600f0b6102bc6102638d88612a21565b90600b546102c98161276e565b928d5b82811061072557505050916102e693916103039593613ba0565b90506102fc876102f68c87612a21565b9061285b565b359061343d565b9561031260e4830135886140b2565b508761032082809a11612722565b039761033a6084840135801590811561071a575b50612b69565b809461010484013580151580610711575b6106cc575b5073ffffffffffffffffffffffffffffffffffffffff61036f86612b9d565b163303610647575b6103898761038487612b9d565b61369d565b73ffffffffffffffffffffffffffffffffffffffff6103a789612802565b90549060031b1c16976103ba878c612cb6565b6103c3826127bd565b90549060031b1c10610603576103db6103fb916127bd565b888d0182548260031b1c03905f1983549160031b92831b921b1916179055565b6104048161276e565b90600190835b8181106105a757505060409b507f8c012c6148e8ecc34b864721470dcc1e938d162c498b7d28961a8a78238cfe13956105528a73ffffffffffffffffffffffffffffffffffffffff976105258f9c9b9861048c6104e79161058a9a61055d9a6105579a5f14610599575061047c6135de565b50680100000000000000006128a5565b6104dc61049e82600f54600f0b61334c565b7fffffffffffffffffffffffffffffffff00000000000000000000000000000000600f5416906fffffffffffffffffffffffffffffffff1617600f55565b601054600f0b61334c565b7fffffffffffffffffffffffffffffffff0000000000000000000000000000000060105416906fffffffffffffffffffffffffffffffff1617601055565b602481019b6105338d612b9d565b61054c61014461054560c48601612ad1565b9401612b9d565b936138cd565b612b9d565b96612b9d565b91838b51948594169716958a828b0391859094939260609260808301968352602083015260408201520152565b0390a482519182526020820152f35b6105a2906134e9565b61047c565b6105d08e6105c9836102f66105bb826127bd565b90549060031b1c938d612a21565b359061317f565b6105da8286612847565b90600f0b90526105ea8185612847565b51600f0b6105fb575b60010161040a565b8492506105f3565b606460405162461bcd60e51b815260206004820152601760248201527f6275726e537761703a206f7574203e2062616c616e63650000000000000000006044820152fd5b61067761065386612b9d565b73ffffffffffffffffffffffffffffffffffffffff165f52600360205260405f2090565b73ffffffffffffffffffffffffffffffffffffffff33165f5260205260405f20545f1981036106a7575b50610377565b6106c6906106be896106b889612b9d565b9261286b565b90339061363e565b5f6106a1565b620f4240908a02049550856106e2575b5f610350565b61070c6106ee8961281a565b8882548260031b1c01905f1983549160031b92831b921b1916179055565b6106dc565b5089151561034b565b90508a10155f610334565b6001919293949550610751610739826127bd565b90549060031b1c61074a8386612847565b519061317f565b61075b8288612847565b90600f0b90520191908b9493926102cc565b61077d610778612cc3565b614719565b600f8054810b919081900b821261079657505085610291565b6107a36107a8928961334c565b6133f7565b610291565b5060ff6008541661028a565b90504211155f610211565b5080fd5b90506118315760206003193601126118315767ffffffffffffffff60043511611831576102606003196004353603011261183157600b54906108118260646004350135106128ec565b61082260846004350135151561268c565b61010460043501359182158015611cce575b61083d90612641565b61084a60045415156126d7565b6108806101a46004350161086061024582612a13565b61087b61026a61026361024460043501600435600401612a21565b612a13565b61089967ffffffffffffffff60105460801c164361286b565b90601154600f0b9082151580611cc5575b611bea575b50601080547fffffffffffffffff0000000000000000ffffffffffffffffffffffffffffffff164360801b77ffffffffffffffff000000000000000000000000000000001617905590506109028261276e565b925f5b838110611bc557506109156140d0565b6109276004546084600435013561317f565b926109365f85600f0b13612722565b6109456101c460043501612a75565b63ffffffff811677ffffffffffffffffffffffffffffffffffffffffffffffff8111611b48575083611b1b576bffffffff0000000000000000620f42409160401b16045b6fffffffffffffffffffffffffffffffff811161019c576fffffffffffffffffffffffffffffffff166f7fffffffffffffffffffffffffffffff811161019c57610a3992916109da91600f0b6128a5565b80600f0b6109e9858213612a86565b600f86900b13611b15575083955b84600f0b87600f0b12611afa575b610a17610a1188613ad6565b886133f7565b90610a268583600f0b13612722565b6064600435013590600954600f0b6140f8565b91610a88610a6c610a65610a5861024460043501600435600401612a21565b606460043501359161285b565b3585614590565b93610a78851515612722565b610a83610778612cc3565b612b22565b610aa068010000000000000000916101398884612b22565b601054600f0b90610ac082610aba61018460043501612a75565b926128a5565b80600f0b868112611ac9575b50600f0b90620f4240820291808304620f42401490151715611a9c5763ffffffff1691828102928184041490151715611a6f571015611a2b57610b166101446004350135856145cc565b96610b2b60a460043501358987011115612b69565b6024600435017c02000000000000000000000000000000000000000000000000000000007fffffffff00000000000000000000000000000000000000000000000000000000610b7983612b70565b160361144a57503461140657610b93600435600401612b9d565b610ba1604460043501612b9d565b9160c4600435013591610bb860e460043501612ad1565b9260405191610100830183811067ffffffffffffffff8211176113d95773ffffffffffffffffffffffffffffffffffffffff80869360e0936040521697888652169586602086015260646004350135604086015260846004350135606086015260a4600435013560808601528360a08601521515938460c082015201526040519360208501957fd332bf70474b08bd62a3e766dfc7061adb56d4c2af3b9d8ef67d3887bdbd053a8752604086015260608501526064600435013560808501526084600435013560a085015260a4600435013560c085015260e08401526101008301526101208201526101208152610cb161014082612473565b519020610224600435013573ffffffffffffffffffffffffffffffffffffffff8116810361019857610ce7600435600401612b9d565b9173ffffffffffffffffffffffffffffffffffffffff610d0c60646004350135612802565b90549060031b1c1690610120610d256040519182612473565b60ef81527f537761704d696e745769746e657373207769746e65737329537761704d696e7460208201527f5769746e65737328616464726573732070617965722c6164647265737320726560408201527f6365697665722c75696e7432353620696e707574546f6b656e496e6465782c7560608201527f696e74323536206c70416d6f756e744f75742c75696e74323536206d6178416d60808201527f6f756e74496e2c75696e74323536206d696e4c704f75742c626f6f6c2070617260a08201527f7469616c46696c6c416c6c6f7765642c75696e7432353620646561646c696e6560c08201527f29546f6b656e5065726d697373696f6e73286164647265737320746f6b656e2c60e08201527f75696e7432353620616d6f756e74290000000000000000000000000000000000610100820152610e79610e7261012460043501600435600401612bbe565b3691612c49565b918251830192606081602086019503126113cd576020810151604082015191606081015167ffffffffffffffff81116113d55786603f8284010112156113d5576020818301015191610eca83612c0f565b97610ed8604051998a612473565b8389526040828401850101116113d157918060408f94936020940101838a015e8701015260405195610f098761240e565b865260a46004350135602087015260405195610f2487612457565b86526020860152604085015260405195610f3d8761240e565b3087528d8b01602088015273ffffffffffffffffffffffffffffffffffffffff86163b156113cd5761102296946110548b97956110416040968a9673ffffffffffffffffffffffffffffffffffffffff80978a519e8f9d8e9c8d9a7f137c29fe000000000000000000000000000000000000000000000000000000008c52610fe960048d0182516020809173ffffffffffffffffffffffffffffffffffffffff81511684520151910152565b60208181015160448e015291015160648c0152815173ffffffffffffffffffffffffffffffffffffffff1660848c0152015160a48a0152565b1660c487015260e48601526101406101048601526101448501906145e1565b90600319848303016101248501526145e1565b0393165af180156113c2579084916113a9575b50505b6110778785011515612722565b82946101646004350135801515806113a0575b611390575b5085611379575b86906110cc6110aa606460043501356127bd565b898c8a010382548260031b1c01905f1983549160031b92831b921b1916179055565b6110d58161276e565b90855b81811061132d5750506104e7916110f593610a8361048c936134e9565b61114561110786601154600f0b613b18565b7fffffffffffffffffffffffffffffffff0000000000000000000000000000000060115416906fffffffffffffffffffffffffffffffff1617601155565b600f0b84600f0b145f1461131c57608460043501355b61116d60c46004350135821015612b69565b611178811515612722565b6044600435019373ffffffffffffffffffffffffffffffffffffffff61119d86612b9d565b169485156112d8576112d49588946111b785600454612cb6565b6004558181526002602052604081208581540190557fddf252ad1be2c89b69c2b068fc378daa952ba7f163c4a11628f55a4df523b3ef6020604051878152a361121861120282612b9d565b846112126101e460043501612a75565b9161466f565b61122f611229600435600401612b9d565b91612b9d565b917fb303d8723d57c9a4e8d59d0cc59c8ca6de6df587f89cdce6edccc680961b49bf60a073ffffffffffffffffffffffffffffffffffffffff808061127960646004350135612802565b90549060031b1c1696604051958a8c018752896020880152808b03604088015260608701528c600f0b608087015216941692a4604051958695600f0b9301859094939260609260808301968352602083015260408201520152565b0390f35b606460405162461bcd60e51b815260206004820152601360248201527f45524332303a206d696e7420746f207a65726f000000000000000000000000006044820152fd5b6113286004548561343d565b61115b565b60019192935061135f61133f826127bd565b90549060031b1c6105c9836102f661024460043501600435600401612a21565b6113698286612847565b90600f0b905201908892916110d8565b61138b6106ee6064600435013561281a565b611096565b620f42409089020495505f61108f565b5088151561108a565b816113b391612473565b6113be57825f611067565b8280fd5b6040513d86823e3d90fd5b8980fd5b8d80fd5b8c80fd5b60248a7f4e487b710000000000000000000000000000000000000000000000000000000081526041600452fd5b606460405162461bcd60e51b815260206004820152601260248201527f7065726d6974323a206e6f206e617469766500000000000000000000000000006044820152fd5b6114c29150611466611460600435600401612b9d565b91612b70565b9073ffffffffffffffffffffffffffffffffffffffff61148b60646004350135612802565b90549060031b1c16916114a961012460043501600435600401612bbe565b94906114ba61020460043501612b9d565b953691612c49565b907fffffffff0000000000000000000000000000000000000000000000000000000081168061169d5750505073ffffffffffffffffffffffffffffffffffffffff16918233036116595773ffffffffffffffffffffffffffffffffffffffff16918282148061164d575b1561159f575050803b1561019c5783600491604051928380927fd0e30db00000000000000000000000000000000000000000000000000000000082528c8a01905af180156113c25790849161158a575b505086840134035b5061106a565b8161159491612473565b6113be57825f61157c565b909150604051907f23b872dd0000000000000000000000000000000000000000000000000000000086526004523060245288860160445260208560648180865af190600186511482161561162c575b6040528460605215611601575034611584565b7f5274afe7000000000000000000000000000000000000000000000000000000008452600452602483fd5b90600181151661164457823b15153d151616906115ee565b503d85823e3d90fd5b5089870134101561152c565b606460405162461bcd60e51b815260206004820152601960248201527f617070726f76616c3a2063616c6c657220213d207061796572000000000000006044820152fd5b9394937c01000000000000000000000000000000000000000000000000000000000361188d57505073ffffffffffffffffffffffffffffffffffffffff1633036118495773ffffffffffffffffffffffffffffffffffffffff16908181148061183d575b1561176c5750803b1561019c5783600491604051928380927fd0e30db00000000000000000000000000000000000000000000000000000000082528c8a01905af180156113c257908491611757575b505061106a565b8161176191612473565b6113be57825f611750565b60249150602090604051928380927f70a082310000000000000000000000000000000000000000000000000000000082523060048301525afa9081156113c2578491611805575b506117f6611800916117f06117cd606460043501356127bd565b90549060031b1c6117e36064600435013561281a565b90549060031b1c90612cb6565b9061286b565b8886011115614624565b61106a565b90506020813d602011611835575b8161182060209383612473565b8101031261183157516117f66117b3565b5f80fd5b3d9150611813565b50888601471015611701565b606460405162461bcd60e51b815260206004820152601b60248201527f70726566756e64696e673a2063616c6c657220213d20706179657200000000006044820152fd5b6040517f70a0823100000000000000000000000000000000000000000000000000000000815230600482015294935090602085602481875afa948515611a2057908c8a9493928a976119dc575b509261194961194e9361191d6020979460249997600754966040519788958c8701528c8601528960448601520160648401526080608484015260a48301906145e1565b037fffffffffffffffffffffffffffffffffffffffffffffffffffffffffffffffe08101845283612473565b614e96565b50604051928380927f70a082310000000000000000000000000000000000000000000000000000000082523060048301525afa9081156119d157859161199d575b50611800916117f69161286b565b90506020813d6020116119c9575b816119b860209383612473565b81010312611831575161180061198f565b3d91506119ab565b6040513d87823e3d90fd5b96505092506020939193853d602011611a18575b816119fd60209383612473565b8101031261183157935193909288929091908c6119496118da565b3d91506119f0565b6040513d8a823e3d90fd5b606460405162461bcd60e51b815260206004820152600f60248201527f766f6c6174696c65206d61726b657400000000000000000000000000000000006044820152fd5b6024857f4e487b710000000000000000000000000000000000000000000000000000000081526011600452fd5b6024867f4e487b710000000000000000000000000000000000000000000000000000000081526011600452fd5b90507fffffffffffffffffffffffffffffffff800000000000000000000000000000008114611a9c5785035f610acc565b611b10611b0b60e460043501612ad1565b612a86565b610a05565b956109f7565b6024847f4e487b710000000000000000000000000000000000000000000000000000000081526012600452fd5b5f949190611b5d906207a12090603f1b612c7f565b916fffffffffffffffffffffffffffffffff831161183157620f42408302916bffffffff0000000000000000879160401b1696838810611bba575b50611baf5750620f4240905f950304905b01610989565b945050600190611ba9565b5f199150015f611b98565b80611bd461133f6001936127bd565b611bde8288612847565b90600f0b905201610905565b60ff166040811b808411611cbd575b5082611c146801000000000000000080931d600f0b836128a5565b91935b611c8257505090611c279161334c565b5f81600f0b12611c7b575b611c74817fffffffffffffffffffffffffffffffff0000000000000000000000000000000060115416906fffffffffffffffffffffffffffffffff1617601155565b805f6108af565b505f611c32565b60018116611cac575b60011c80611c9a575b80611c17565b611ca582829361334c565b9150611c94565b9281611cb79161334c565b92611c8b565b92505f611bf9565b508115156108aa565b5042831015610834565b60606003193601126118315760443567ffffffffffffffff811161183157611d15611d0a6112d4923690600401612518565b602435600435612982565b60405191829182612536565b6101006003193601126118315760043560243560643567ffffffffffffffff811161183157611d5490369060040161258d565b9160843567ffffffffffffffff811161183157611d75903690600401612518565b9260a435611d8161256f565b9260e435801515810361183157611d9a875187106128ec565b611da582151561268c565b611db08315156126d7565b611dc38383149384159361011d85612937565b9291611ea3575b5015611e275792611df260409593611dfa9383611e0197915b898151600f0b91015190613ba0565b939050612847565b519061343d565b611e0d604435826140b2565b50611e19818311612722565b808351920382526020820152f35b5f94604083019491939092865b86518051891015611e6157600191611e4f8a611e5993612847565b51600f0b90613b18565b970196611e34565b5060409750611e0196509083611dfa9596611df294938481600f0b81600f0b12155f14611e9057505091611de3565b6107a390611e9d9361334c565b91611de3565b905086611dca565b611831576101206003193601126118315760043573ffffffffffffffffffffffffffffffffffffffff811690818103611831576024359073ffffffffffffffffffffffffffffffffffffffff82169081830361183157604435906064359367ffffffffffffffff851161183157366023860112156118315784600401359167ffffffffffffffff8311611831576024860195602436918560051b010111611831576084359060a4359081151582036118315760c43560ff811681036118315760e4359373ffffffffffffffffffffffffffffffffffffffff85168503611831576101043567ffffffffffffffff811161183157611faf611fbf913690600401612518565b9180159081156124035750612641565b600b5496611fce89151561268c565b8781036123bf57611fe7600454936102458515156126d7565b611ff082612ecc565b611ff982612fdf565b612003838a61317f565b926120125f85600f0b13612722565b891480156123b3575b156123775788929190825b6120345f82600f0b13612722565b61203d8a61276e565b9c5f92838f5b8d82106122b557505050505061205890612722565b60016120638961276e565b915f5b8d8b82106122125750505061048c6120ab959361209f936104e7935f1461220457506120906135de565b680100000000000000006128a5565b8a330361218f5761369d565b5f5b8481106121385750505050506040519060608201948252606060208301528351809552608082019460208501905f5b8181106121225750505090806112d4957f3f84ed8aa11ed632de380466083280b4c5da668f12695b08636d7848eaf896b49360408301520390a260405191829182612536565b82518852602097880197909201916001016120dc565b806121456001928a612847565b51848482612157575b505050016120ad565b612187928873ffffffffffffffffffffffffffffffffffffffff61217a87612802565b90549060031b1c166138cd565b8a848461214e565b6121b78173ffffffffffffffffffffffffffffffffffffffff165f52600360205260405f2090565b73ffffffffffffffffffffffffffffffffffffffff33165f526020528160405f20545f1981036121e9575b505061369d565b6121fd916121f69161286b565b338361363e565b818c6121e2565b61220d906134e9565b612090565b816122499293949596975061222691612847565b51612230836127bd565b90549060031b1c9080612282575b5061074a8385612847565b6122538286612847565b90600f0b90526122638185612847565b51600f0b61227a575b600101908a94939291612066565b5f925061226c565b61228b9161286b565b6122af81612298856127bd565b9091905f1983549160031b92831b921b1916179055565b5f61223e565b8192939495969798506122e26122da6122cd846127bd565b90549060031b1c8861343d565b928392612847565b528061236e575b6122f482848661285b565b3515159081612359575b50612314576001019291908c969594938f612043565b60405162461bcd60e51b815260206004820152601060248201527f736c69707061676520636f6e74726f6c000000000000000000000000000000006044820152606490fd5b905061236682848661285b565b35115f6122fe565b600195506122e9565b612382610778612cc3565b600f8054810b919081900b82126123a1575050825b9089939291612026565b6107a36123ae928661334c565b612397565b5060ff6008541661201b565b606460405162461bcd60e51b815260206004820152601460248201527f6d696e416d6f756e74734f7574206c656e6774680000000000000000000000006044820152fd5b90504211158d610211565b6040810190811067ffffffffffffffff82111761242a57604052565b7f4e487b71000000000000000000000000000000000000000000000000000000005f52604160045260245ffd5b6060810190811067ffffffffffffffff82111761242a57604052565b90601f7fffffffffffffffffffffffffffffffffffffffffffffffffffffffffffffffe0910116810190811067ffffffffffffffff82111761242a57604052565b67ffffffffffffffff811161242a5760051b60200190565b9291906124d8816124b4565b936124e66040519586612473565b602085838152019160051b810192831161183157905b82821061250857505050565b81358152602091820191016124fc565b9080601f8301121561183157816020612533933591016124cc565b90565b60206040818301928281528451809452019201905f5b8181106125595750505090565b825184526020938401939092019160010161254c565b60c4359081600f0b820361183157565b359081600f0b820361183157565b9190606083820312611831576040516125a581612457565b80936125b08161257f565b82526125be6020820161257f565b602083015260408101359067ffffffffffffffff821161183157019180601f840112156118315782356125f0816124b4565b936125fe6040519586612473565b81855260208086019260051b82010192831161183157602001905b8282106126295750505060400152565b602080916126368461257f565b815201910190612619565b1561264857565b606460405162461bcd60e51b815260206004820152600860248201527f646561646c696e650000000000000000000000000000000000000000000000006044820152fd5b1561269357565b606460405162461bcd60e51b815260206004820152600e60248201527f696e76616c696420616d6f756e740000000000000000000000000000000000006044820152fd5b156126de57565b606460405162461bcd60e51b815260206004820152600d60248201527f756e696e697469616c697a6564000000000000000000000000000000000000006044820152fd5b1561272957565b60405162461bcd60e51b815260206004820152600960248201527f746f6f20736d616c6c00000000000000000000000000000000000000000000006044820152606490fd5b90612778826124b4565b6127856040519182612473565b8281527fffffffffffffffffffffffffffffffffffffffffffffffffffffffffffffffe06127b382946124b4565b0190602036910137565b600e548110156127d557600e5f5260205f2001905f90565b7f4e487b71000000000000000000000000000000000000000000000000000000005f52603260045260245ffd5b600b548110156127d557600b5f5260205f2001905f90565b600c548110156127d557600c5f5260205f2001905f90565b80548210156127d5575f5260205f2001905f90565b80518210156127d55760209160051b010190565b91908110156127d55760051b0190565b9190820391821161287857565b7f4e487b71000000000000000000000000000000000000000000000000000000005f52601160045260245ffd5b90600f0b90600f0b03906f7fffffffffffffffffffffffffffffff82137fffffffffffffffffffffffffffffffff8000000000000000000000000000000083121761287857565b156128f357565b606460405162461bcd60e51b815260206004820152600d60248201527f696e76616c696420696e646578000000000000000000000000000000000000006044820152fd5b1561293e57565b606460405162461bcd60e51b815260206004820152601160248201527f6275726e537761703a206c617374204c500000000000000000000000000000006044820152fd5b9190918151906129918261276e565b9380158015612a0b575b612a04576129a89161317f565b6129b65f82600f0b13612722565b5f925f5b8381106129ce575050505061253390612722565b6129e26129db8284612847565b518461343d565b806129ed8389612847565b526129fb575b6001016129ba565b600194506129f3565b5050505090565b50821561299b565b3560ff811681036118315790565b9035907fffffffffffffffffffffffffffffffffffffffffffffffffffffffffffffffe181360301821215611831570180359067ffffffffffffffff821161183157602001918160051b3603831361183157565b3563ffffffff811681036118315790565b15612a8d57565b606460405162461bcd60e51b815260206004820152600c60248201527f72617465206c696d6974656400000000000000000000000000000000000000006044820152fd5b3580151581036118315790565b600f0b600101906f7fffffffffffffffffffffffffffffff82137fffffffffffffffffffffffffffffffff8000000000000000000000000000000083121761287857565b90600f0b90600f0b01907fffffffffffffffffffffffffffffffff8000000000000000000000000000000082126f7fffffffffffffffffffffffffffffff83131761287857565b1561231457565b357fffffffff00000000000000000000000000000000000000000000000000000000811681036118315790565b3573ffffffffffffffffffffffffffffffffffffffff811681036118315790565b9035907fffffffffffffffffffffffffffffffffffffffffffffffffffffffffffffffe181360301821215611831570180359067ffffffffffffffff82116118315760200191813603831361183157565b67ffffffffffffffff811161242a57601f017fffffffffffffffffffffffffffffffffffffffffffffffffffffffffffffffe01660200190565b929192612c5582612c0f565b91612c636040519384612473565b829481845281830111611831578281602093845f960137010152565b8115612c89570490565b7f4e487b71000000000000000000000000000000000000000000000000000000005f52601260045260245ffd5b9190820180921161287857565b60405190600a548083528260208101600a5f5260205f20925f905b806001830110612d2b57612d04945491818110612d17575b10612d06575b500383612473565b565b60801d600f0b81526020015f612cfc565b92602060019184600f0b8152019301612cf6565b9160029193506040600191865480600f0b825260801d600f0b6020820152019401920185929391612cde565b90604051918281549182825260208201905f5260205f20925f905b806001830110612d9657612d04945491818110612d175710612d0657500383612473565b9160029193506040600191865480600f0b825260801d600f0b6020820152019401920185929391612d72565b67ffffffffffffffff600f5460801c164311612ddb5750565b612e4a90612dec610778600a612d57565b907fffffffffffffffffffffffffffffffff0000000000000000000000000000000060105416826fffffffffffffffffffffffffffffffff161760105560ff612e3b600f54600f0b80946128a5565b600f0b91161d600f0b90612b22565b600f80547fffffffffffffffff000000000000000000000000000000000000000000000000166fffffffffffffffffffffffffffffffff909216919091174360801b77ffffffffffffffff0000000000000000000000000000000016179055565b91909180548310156127d5575f52601060205f208360011c019260041b1690565b600b54612ed88161276e565b5f925f925f915f5b828110612f6c5750505015612f67576104e792612f01612f6192600961356c565b612f19612f0e82856133f7565b600f54600f0b61334c565b7fffffffffffffffffffffffffffffffff00000000000000000000000000000000600f5416906fffffffffffffffffffffffffffffffff1617600f55601054600f0b926128a5565b90612b22565b505050565b612f7a81600a989798612eab565b90549060031b1c600f0b612fc7612fa6612f9584600e612832565b90549060031b1c61074a8587612847565b612fc183612fb4868b612847565b9a83600f0b809c52613b18565b99613b18565b9603612fd6575b600101612ee0565b60019350612fce565b600b54905f5f5b83811061305d57501561305957613005613000600a612d57565b614744565b9161300f8161276e565b915f5b8281106130325750505061049e916107a382613000612f0e94600961356c565b80613043610739600193600e612832565b61304d8287612847565b90600f0b905201613012565b5050565b6024602073ffffffffffffffffffffffffffffffffffffffff61308184600b612832565b90549060031b1c16604051928380927f70a082310000000000000000000000000000000000000000000000000000000082523060048301525afa908115613174575f91613143575b506130ea6130d883600e612832565b90549060031b1c6117e384600c612832565b8082116130fc575b5050600101612fe6565b82935061310d61313993600e612832565b90549060031b1c61311f85600e612832565b9290930301905f1983549160031b92831b921b1916179055565b600190815f6130f2565b90506020813d821161316c575b8161315d60209383612473565b8101031261183157515f6130c9565b3d9150613150565b6040513d5f823e3d90fd5b81156118315777ffffffffffffffffffffffffffffffffffffffffffffffff81116131f757906131b19160401b612c7f565b6fffffffffffffffffffffffffffffffff8111611831576fffffffffffffffffffffffffffffffff166f7fffffffffffffffffffffffffffffff811161183157600f0b90565b60c09181831c809364010000000082101561333f575b6002826201000061327b941015613333575b610100811015613327575b601081101561331b575b6004811015613310575b1015613308575b8360015f1985017fffffffffffffffffffffffffffffffffffffffffffffffffffffffffffffff4184011c019160ff031b612c7f565b926fffffffffffffffffffffffffffffffff8411611831578160801c8402906fffffffffffffffffffffffffffffffff8316850290809460401b908282106132fd575b5003928160801b918285106132f3575b60801c036132e8576132e09203612c7f565b905b016131b1565b5050506001906132e2565b905f1901906132ce565b5f190194505f6132be565b600101613245565b91810191811c61323e565b6004928301921c613234565b6008928301921c61322a565b6010928301921c61321f565b505060e082811c9061320d565b90600f0b90600f0b0260401d7fffffffffffffffffffffffffffffffff800000000000000000000000000000008112158061338d575b1561183157600f0b90565b506f7fffffffffffffffffffffffffffffff811315613382565b600f0b801561183157700100000000000000000000000000000000057fffffffffffffffffffffffffffffffff800000000000000000000000000000008112158061338d571561183157600f0b90565b90600f0b9081156118315760401b60170b057fffffffffffffffffffffffffffffffff800000000000000000000000000000008112158061338d571561183157600f0b90565b811561349857600f0b5f8112611831576fffffffffffffffffffffffffffffffff8216810260401c9160801c0277ffffffffffffffffffffffffffffffffffffffffffffffff81116118315760401b81198111611831570190565b50505f90565b156134a557565b606460405162461bcd60e51b815260206004820152600c60248201527f706f6f6c20647261696e656400000000000000000000000000000000000000006044820152fd5b6134ff5f6134f683614744565b600f0b1361349e565b8051905f5b82811061351057505050565b8061352b5f61352160019486612847565b51600f0b1361349e565b6135358184612847565b5161354182600a612eab565b6fffffffffffffffffffffffffffffffff829392549160031b928116831b921b191617905501613504565b6135795f6134f684614744565b8151915f5b83811061358b5750505050565b8061359c5f61352160019486612847565b6135a68184612847565b516135b382848701612eab565b6fffffffffffffffffffffffffffffffff829392549160031b928116831b921b19161790550161357e565b7fffffffffffffffffffffffffffffffff0000000000000000000000000000000060095416600955600a545f600a55806136155750565b60010160011c600a5f5260205f205f5b82811061363157505050565b5f82820155600101613625565b602073ffffffffffffffffffffffffffffffffffffffff807f8c5be1e5ebec7d5bd14f71427d1e84f3dd0314c0f7b2291e5b200ac8c7c3b925931693845f526003835260405f208282165f5283528560405f20556040519586521693a3565b73ffffffffffffffffffffffffffffffffffffffff8116156138895773ffffffffffffffffffffffffffffffffffffffff8116908161372157507fddf252ad1be2c89b69c2b068fc378daa952ba7f163c4a11628f55a4df523b3ef60205f936004850161370b828254612cb6565b90555b60048501818154039055604051908152a3565b61372b905f614d7b565b60025f01815f528060205260405f205490838210613845575f83815260146020908152604080832080546013909352908320545b8281106137f657505050613773858461286b565b106137b2575f937fddf252ad1be2c89b69c2b068fc378daa952ba7f163c4a11628f55a4df523b3ef92602092858752835281604087209103905561370e565b606460405162461bcd60e51b815260206004820152600b60248201527f6d696e74206c6f636b65640000000000000000000000000000000000000000006044820152fd5b6138008183612832565b5054438160c01c11613816575b5060010161375f565b6001919477ffffffffffffffffffffffffffffffffffffffffffffffff61383e921690612cb6565b939061380d565b606460405162461bcd60e51b815260206004820152601b60248201527f45524332303a20696e73756666696369656e742062616c616e636500000000006044820152fd5b606460405162461bcd60e51b815260206004820152601560248201527f45524332303a206275726e2066726f6d207a65726f00000000000000000000006044820152fd5b909293919380613aa1575b156139d5575073ffffffffffffffffffffffffffffffffffffffff1690813b15611831576040517f2e1a7d4d0000000000000000000000000000000000000000000000000000000081525f816024818380978960048401525af18015613174576139c0575b508180809481935af1903d156139ba573d9061395882612c0f565b916139666040519384612473565b825260203d92013e5b1561397657565b606460405162461bcd60e51b815260206004820152601460248201527f7265636569766572206e6f742070617961626c650000000000000000000000006044820152fd5b5061396f565b6139cd9192505f90612473565b5f905f61393d565b92905073ffffffffffffffffffffffffffffffffffffffff604051927fa9059cbb000000000000000000000000000000000000000000000000000000005f521660045260245260205f60448180865af19060015f5114821615613a80575b60405215613a3e5750565b73ffffffffffffffffffffffffffffffffffffffff907f5274afe7000000000000000000000000000000000000000000000000000000005f521660045260245ffd5b906001811516613a9857823b15153d15161690613a33565b503d5f823e3d90fd5b5073ffffffffffffffffffffffffffffffffffffffff821673ffffffffffffffffffffffffffffffffffffffff8216146138d8565b600f0b68010000000000000000017fffffffffffffffffffffffffffffffff800000000000000000000000000000008112158061338d571561183157600f0b90565b90600f0b90600f0b017fffffffffffffffffffffffffffffffff800000000000000000000000000000008112158061338d571561183157600f0b90565b15613b5c57565b606460405162461bcd60e51b815260206004820152600960248201527f746f6f206c6172676500000000000000000000000000000000000000000000006044820152fd5b909194929394613bc96801000000000000000086600f0b613bc25f8213612722565b1315613b55565b5f86600f0b1391613bd9836126d7565b835191613be6888861479b565b97613bf088614864565b92613bfa8561276e565b935f5b868110614082575050613c1d613c138489612847565b51600f0b8a61334c565b985f8a600f0b13975f5b878110613c5257505050505050505050158015613c45575b61272957565b505f82600f0b1315613c3f565b858103613c65575b600101965b96613c27565b613c7c613c728284612847565b51600f0b8461334c565b5f81600f0b13613c8d575b50613c5a565b9099899c929c1561407357613ca2868661334c565b5f81600f0b131561406357908782613ced8b8f979695613cc4613ce3916133a7565b98613cd9613cd28b8a61334c565b9684612847565b51600f0b92612847565b51600f0b906148a6565b613cf7878261334c565b906820000000000000000082600f0b13613f685750613d54613d4e613d2f613d2a613d24613d5995614e34565b966148e3565b614e34565b6f7fffffffffffffffffffffffffffffff81600f0b12613f5a57614864565b8461334c565b613ad6565b5f81600f0b1315613f4757613d70613d7691614915565b8261334c565b95613d818b8d612847565b51600f0b87600f0b13613df4575050505090613dae613dea9392613da58d8b612847565b51600f0b613b18565b613db88c8a612847565b90600f0b9052613dd582613dcc898b612847565b51600f0b6148a6565b613ddf888a612847565b90600f0b9052613b18565b9960019889613c87565b613e4b9192939e959650959f95613e669450613e20613e3d91613e178d8f612847565b51600f0b61479b565b613e386820000000000000000082600f0b1315613b55565b614a42565b613e4684613ad6565b6148a6565b915f925f81600f0b13613f09575b505050613da5838a612847565b613e708289612847565b90600f0b90525f19613e828789612847565b51600f0b017fffffffffffffffffffffffffffffffff8000000000000000000000000000000081121580613eef575b1561183157600f0b5f8113613ed8575b506001905f613ed0888a612847565b520196613c5f565b909950613ee5919b613b18565b9960019889613ec1565b506f7fffffffffffffffffffffffffffffff811315613eb1565b613f1291614a71565b6801000000000000000081600f0b13613f2c575b80613e59565b613f409250613f3a90614aee565b9061479b565b5f80613f26565b5050509a90506001919c92500196613c5f565b613f6390612ade565b614864565b9396509091613f7c613d2a613f9b926148e3565b6f7fffffffffffffffffffffffffffffff81600f0b1261405857614864565b905f82600f0b13156140475790613fb7613d2a613fbd936148e3565b90613b18565b5f81600f0b131561403757613fdf9291613fd9613fb792614915565b9061334c565b9283600f0b905f821315614026575061401a939291614010613dae926140058b8d612847565b51600f0b1215613b55565b613da58d8b612847565b99600180990196613c5f565b9b9150506001919c92500196613c5f565b505050509a909860010196613c5f565b50505050509a909860010196613c5f565b600101600f0b614864565b5099600191509b919b0196613c5f565b99600191509b919b0196613c5f565b8061409c836140936001948d612847565b51600f0b61334c565b6140a68289612847565b90600f0b905201613bfd565b919080156140ca576140c490836145cc565b80920390565b505f9190565b600f54600f0b6140e3610778600a612d57565b80600f0b82125f146140f3575090565b905090565b9094938551916141098385106128ec565b84600f0b5f8113908161457d575b5015614539576141278488612847565b51600f0b936141358461276e565b925f5b85811061451757505f985f5b8681106141945750505050505050614185929361417b6141809261416785614864565b946141765f87600f0b13613b55565b61479b565b613b18565b614a71565b90612d045f83600f0b13612722565b8381036141a7575b600101955b95614144565b6141b4613c138284612847565b5f81600f0b136141c5575b5061419c565b6141d35f85600f0b13613b55565b6141dd848761334c565b6141eb5f82600f0b13613b55565b6141f4816133a7565b61420f8161420a8b613ce38b613cd98a84612847565b61334c565b6820000000000000000081600f0b1361432e5761422b90614e34565b90614236908461479b565b80600f0b68200000000000000000121561424f90613b55565b61425890614a42565b61426182613ad6565b9061426b916148a6565b80600f0b5f1261427a90613b55565b61428391614a71565b80600f0b5f1261429290613b55565b61429b90614aee565b6142a49161479b565b9b8c80600f0b5f126142b590613b55565b6142be91613b18565b9b6142c98689612847565b51600f0b906142d791613b18565b6142e18689612847565b90600f0b90526142f18288612847565b51600f0b906142ff916148a6565b6143098288612847565b90600f0b90526143198187612847565b51600f0b5f1261432890613b55565b5f6141bf565b9061435d613e207fffffffffffffffffffffffffffffffffffffffffffffffff0000000000000000928661479b565b600f0b614374680100000000000000008213613b55565b017fffffffffffffffffffffffffffffffff80000000000000000000000000000000811215806144fd575b15611831576143d291613f3a613e386143bb93600f0b926148e3565b613f636801000000000000000082600f0b12613b55565b600f0b906143e15f8313612722565b6144046143ff83700100000000000000000000000000000000614780565b61476f565b8215612c89575f1983147f80000000000000000000000000000000000000000000000000000000000000008214166128785761446392613f3a910561445b6f7fffffffffffffffffffffffffffffff821315613b55565b600f0b614aee565b9b6f7fffffffffffffffffffffffffffffff8d600f0b126144e7575b6001929161449e6144938f6144b894613b18565b9e613da5898c612847565b6144a8888b612847565b90600f0b9052613dcc838a612847565b6144c28289612847565b90600f0b90526144e05f6144d6838a612847565b51600f0b13613b55565b01956141a1565b9b6144f490929192612ade565b9b91909161447f565b506f7fffffffffffffffffffffffffffffff81131561439f565b806145246001928c612847565b51600f0b6145328288612847565b5201614138565b606460405162461bcd60e51b815260206004820152600c60248201527f696e76616c6964206265746100000000000000000000000000000000000000006044820152fd5b680100000000000000009150125f614117565b9067ffffffffffffffff6145a4828461343d565b921680156145c75767ffffffffffffffff80921602166145c15790565b60010190565b505090565b811561349857620f42409102620f423f010490565b907fffffffffffffffffffffffffffffffffffffffffffffffffffffffffffffffe0601f602080948051918291828752018686015e5f8582860101520116010190565b1561462b57565b606460405162461bcd60e51b815260206004820152601260248201527f696e73756666696369656e742066756e647300000000000000000000000000006044820152fd5b9163ffffffff16918215612f675777ffffffffffffffffffffffffffffffffffffffffffffffff82116146d55777ffffffffffffffffffffffffffffffffffffffffffffffff67ffffffffffffffff6146cb612d049543612cb6565b169216905f614af7565b606460405162461bcd60e51b815260206004820152601260248201527f6d696e74206c6f636b206f766572666c6f7700000000000000000000000000006044820152fd5b5f9190825b815184101561473f57614737600191611e4f8685612847565b93019261471e565b925050565b5f90815b815183101561476957614761600191611e4f8585612847565b920191614748565b91505090565b905f19820191821360011661287857565b9190915f838201938412911290801582169115161761287857565b600f0b90811590818015614859575b61485257600f0b808302927f800000000000000000000000000000000000000000000000000000000000000082145f821216612878578305141715612878576147fc9067ffffffffffffffff90614780565b60401d6f7fffffffffffffffffffffffffffffff81131580614828575b61482290613b55565b600f0b90565b507fffffffffffffffffffffffffffffffff80000000000000000000000000000000811215614819565b5050505f90565b5080600f0b156147aa565b600f0b68010000000000000000037fffffffffffffffffffffffffffffffff800000000000000000000000000000008112158061338d571561183157600f0b90565b90600f0b90600f0b037fffffffffffffffffffffffffffffffff800000000000000000000000000000008112158061338d571561183157600f0b90565b7fffffffffffffffffffffffffffffffff8000000000000000000000000000000081600f0b14611831575f03600f0b90565b600f0b5f811315611831575f908068010000000000000000821215614a35575b806401000000006002921215614a29575b62010000811215614a1d575b610100811215614a11575b6010811215614a05575b60048112156149fa575b12156149f0575b7fffffffffffffffffffffffffffffffffffffffffffffffffffffffffffffffc0820160401b91607f031b90678000000000000000915b5f83136149d457506fb17217f7d1cf79abc9e3b39803f2f6af9150600f0b0260801d90565b8002908160ff1c9182607f011c918302019160011d91906149af565b9060010190614978565b92810192811d614971565b6004938401931d614967565b6008938401931d61495d565b6010938401931d614952565b6020938401931d614946565b506040915080821d614935565b614a4b90614e34565b6f7fffffffffffffffffffffffffffffff81600f0b12614a685790565b61253390612ade565b90600f0b90614a815f8313612722565b5f81600f0b1315613498576143ff82614a9f9260401b60170b614780565b8115612c89575f1982147f800000000000000000000000000000000000000000000000000000000000000082141661287857056148226f7fffffffffffffffffffffffffffffff821315613b55565b614a4b90614915565b9177ffffffffffffffffffffffffffffffffffffffffffffffff909491939416918215614d745780614b2b85601393614d7b565b73ffffffffffffffffffffffffffffffffffffffff85165f526014810160205273ffffffffffffffffffffffffffffffffffffffff60405f2095165f520160205260405f2054938354946020614b81828861286b565b1015614d30575b85811080614d0e575b15614b9e57600101614b88565b946801000000000000000081101561242a5760018101808655614bc18287612832565b5050811161287857925b8386811115614c8b575f190193614be28587612832565b509080861161287857614bf59087612832565b614c5f57818103614c08575b5050614bcb565b8154815477ffffffffffffffffffffffffffffffffffffffffffffffff9091167fffffffffffffffff0000000000000000000000000000000000000000000000009182168117835592541690911790555f80614c01565b7f4e487b71000000000000000000000000000000000000000000000000000000005f525f60045260245ffd5b5092509293614cba919460405193614ca28561240e565b845267ffffffffffffffff6020850195168552612832565b919091614c5f5751915160c01b7fffffffffffffffff0000000000000000000000000000000000000000000000001677ffffffffffffffffffffffffffffffffffffffffffffffff92909216919091179055565b50614d198186612832565b505460c01c67ffffffffffffffff83161015614b91565b606460405162461bcd60e51b815260206004820152601360248201527f6d696e74206c6f636b206c6973742066756c6c000000000000000000000000006044820152fd5b5092505050565b9073ffffffffffffffffffffffffffffffffffffffff81165f5260148201602052601360405f2092019073ffffffffffffffffffffffffffffffffffffffff81165f528160205260405f2054928054905b818510614df8575b505073ffffffffffffffffffffffffffffffffffffffff165f5260205260405f2055565b9093614e048183612832565b5043905460c01c11614e2e57614e1a8183612832565b919091614c5f575f60019255019390614dcc565b93614dd4565b600f0b68400000000000000000811215611831577fffffffffffffffffffffffffffffffffffffffffffffffc000000000000000008112614e9157700171547652b82fe1777d0ffda0d23a7d12612533910260801d600f0b614f5e565b505f90565b905f809160208151910182855af18080614f4b575b15614ecb5750506040513d81523d5f602083013e60203d82010160405290565b15614f125773ffffffffffffffffffffffffffffffffffffffff907f9996b315000000000000000000000000000000000000000000000000000000005f521660045260245ffd5b3d15614f23576040513d5f823e3d90fd5b7fd6bda275000000000000000000000000000000000000000000000000000000005f5260045ffd5b503d151580614eab5750813b1515614eab565b80600f0b68400000000000000000811215611831577fffffffffffffffffffffffffffffffffffffffffffffffc000000000000000008112613498576f80000000000000000000000000000000915f6780000000000000008216600f0b13615b5a575b5f6740000000000000008216600f0b13615b3d575b5f6720000000000000008216600f0b13615b20575b5f6710000000000000008216600f0b13615b03575b5f6708000000000000008216600f0b13615ae6575b5f6704000000000000008216600f0b13615ac9575b5f6702000000000000008216600f0b13615aac575b5f6701000000000000008216600f0b13615a8f575b5f66800000000000008216600f0b13615a72575b5f66400000000000008216600f0b13615a55575b5f66200000000000008216600f0b13615a38575b5f66100000000000008216600f0b13615a1b575b5f66080000000000008216600f0b136159fe575b5f66040000000000008216600f0b136159e1575b5f66020000000000008216600f0b136159c4575b5f66010000000000008216600f0b136159a7575b5f658000000000008216600f0b1361598a575b5f654000000000008216600f0b1361596d575b5f652000000000008216600f0b13615950575b5f651000000000008216600f0b13615933575b5f650800000000008216600f0b13615916575b5f650400000000008216600f0b136158f9575b5f650200000000008216600f0b136158dc575b5f650100000000008216600f0b136158bf575b5f6480000000008216600f0b136158a2575b5f6440000000008216600f0b13615885575b5f6420000000008216600f0b13615868575b5f6410000000008216600f0b1361584b575b5f6408000000008216600f0b1361582e575b5f6404000000008216600f0b13615811575b5f6402000000008216600f0b136157f4575b5f6401000000008216600f0b136157d7575b5f63800000008216600f0b136157ba575b5f63400000008216600f0b1361579d575b5f63200000008216600f0b13615780575b5f63100000008216600f0b13615763575b5f63080000008216600f0b13615746575b5f63040000008216600f0b13615729575b5f63020000008216600f0b1361570c575b5f63010000008216600f0b136156ef575b5f628000008216600f0b136156d2575b5f624000008216600f0b136156b5575b5f622000008216600f0b13615698575b5f621000008216600f0b1361567b575b5f620800008216600f0b1361565e575b5f620400008216600f0b13615641575b5f620200008216600f0b13615624575b5f620100008216600f0b13615607575b5f6180008216600f0b136155ea575b5f6140008216600f0b136155cd575b5f6120008216600f0b136155b0575b5f6110008216600f0b13615593575b5f6108008216600f0b13615576575b5f6104008216600f0b13615559575b5f6102008216600f0b1361553c575b5f6101008216600f0b1361551f575b5f60808216600f0b13615502575b5f60408216600f0b136154e5575b5f60208216600f0b136154c8575b5f60108216600f0b136154ab575b5f60088216600f0b1361548e575b5f60048216600f0b13615471575b5f60028216600f0b13615453575b60015f9116600f0b13615436575b60401d600f0b603f03600f0b1c6f7fffffffffffffffffffffffffffffff811161183157600f0b90565b9070010000000000000000b17217f7d1cf79ab0260801c9061540c565b7001000000000000000162e42fefa39ef35890920260801c916153fe565b9170010000000000000002c5c85fdf473de6b20260801c916153f0565b91700100000000000000058b90bfbe8e7bcd6d0260801c916153e2565b917001000000000000000b17217f7d1cf79afa0260801c916153d4565b91700100000000000000162e42fefa39ef366f0260801c916153c6565b917001000000000000002c5c85fdf473de6eca0260801c916153b8565b9170010000000000000058b90bfbe8e7bce5440260801c916153aa565b91700100000000000000b17217f7d1cf79e9490260801c9161539c565b9170010000000000000162e42fefa39ef44d910260801c9161538d565b91700100000000000002c5c85fdf473dea871f0260801c9161537e565b917001000000000000058b90bfbe8e7bdcbe2e0260801c9161536f565b9170010000000000000b17217f7d1cf7d83c1a0260801c91615360565b917001000000000000162e42fefa39f02b772c0260801c91615351565b9170010000000000002c5c85fdf473e242ea380260801c91615342565b91700100000000000058b90bfbe8e7cc35c3f00260801c91615333565b917001000000000000b17217f7d1cfb72b45e10260801c91615324565b91700100000000000162e42fefa39fe95583c20260801c91615314565b917001000000000002c5c85fdf4741bea6e77e0260801c91615304565b9170010000000000058b90bfbe8e8b2d3d4ede0260801c916152f4565b91700100000000000b17217f7d1d351a389d400260801c916152e4565b9170010000000000162e42fefa3ae53369388c0260801c916152d4565b91700100000000002c5c85fdf477b662b269450260801c916152c4565b917001000000000058b90bfbe8f71cb4e4b33d0260801c916152b4565b9170010000000000b17217f7d20cf927c8e94c0260801c916152a4565b917001000000000162e42fefa494f1478fde050260801c91615293565b9170010000000002c5c85fdf4b15de6f17eb0d0260801c91615282565b91700100000000058b90bfbe9ddbac5e109cce0260801c91615271565b917001000000000b17217f7d5a7716bba4a9ae0260801c91615260565b91700100000000162e42fefb2fed257559bdaa0260801c9161524f565b917001000000002c5c85fdf84bd62ae30a74cc0260801c9161523e565b9170010000000058b90bfbf8479bd5a81b51ad0260801c9161522d565b91700100000000b17217f80f4ef5aadda455540260801c9161521c565b9170010000000162e42ff0999ce3541b9fffcf0260801c9161520a565b91700100000002c5c85fe31f35a6a30da1be500260801c916151f8565b917001000000058b90bfcdee5acd3c1cedc8230260801c916151e6565b9170010000000b17217fba9c739aa5819f44f90260801c916151d4565b917001000000162e42fff037df38aa2b219f060260801c916151c2565b9170010000002c5c8601cc6b9e94213c72737a0260801c916151b0565b91700100000058b90c0b48c6be5df846c5b2ef0260801c9161519e565b917001000000b1721835514b86e6d96efd1bfe0260801c9161518c565b91700100000162e430e5a18f6119e3c02282a50260801c91615179565b917001000002c5c863b73f016468f6bac5ca2b0260801c91615166565b9170010000058b90cf1e6d97f9ca14dbcc16280260801c91615153565b91700100000b1721bcfc99d9f890ea069117630260801c91615140565b9170010000162e43f4f831060e02d839a9d16d0260801c9161512d565b91700100002c5c89d5ec6ca4d7c8acc017b7c90260801c9161511a565b917001000058b91b5bc9ae2eed81e9b7d4cfab0260801c91615107565b9170010000b17255775c040618bf4a4ade83fc0260801c916150f4565b917001000162e525ee054754457d59952920260260801c916150e0565b9170010002c5cc37da9491d0985c348c68e7b30260801c916150cc565b91700100058ba01fb9f96d6cacd4b180917c3d0260801c916150b8565b917001000b175effdc76ba38e31671ca9397250260801c916150a4565b91700100162f3904051fa128bca9c55c31e5df0260801c91615090565b917001002c605e2e8cec506d21bfc89a23a00f0260801c9161507c565b9170010058c86da1c09ea1ff19d294cf2f679b0260801c91615068565b91700100b1afa5abcbed6129ab13ec11dc95430260801c91615054565b9170010163da9fb33356d84a66ae336dcdfa3f0260801c9161503f565b91700102c9a3e778060ee6f7caca4f7a29bde80260801c9161502a565b917001059b0d31585743ae7c548eb68ca417fd0260801c91615015565b9170010b5586cf9890f6298b92b71842a983630260801c91615000565b917001172b83c7d517adcdf7c8c50eb14a791f0260801c91614feb565b917001306fe0a31b7152de8d5a46305c85edec0260801c91614fd6565b6fb504f333f9de6484597d89b3754abe9f9250614fc156fea2646970667358221220d9ed41e222e82d332152dd1664cc6e748d279a586114fdf1ff5f6b802897f94364736f6c63430008230033","linkReferences":{}},"methodIdentifiers":{"burn(address,address,uint256,uint256[],uint256,bool,uint8,NativeWrapper,uint256[])":"0ba13311","burnAmounts(uint256,uint256,uint256[])":"228fa850","burnSwap(PartyPoolExtraImpl2.BurnSwapArgs)":"6c024e2f","burnSwapAmounts(uint256,uint256,uint256,LMSRKernel.State,uint256[],uint256,int128,bool)":"14d22aa6","swapMint(PartyPoolExtraImpl2.SwapMintArgs)":"648ba9f5","swapMintAmounts(uint256,uint256,uint256,LMSRKernel.State,uint256[],uint256,int128)":"fd8a5be6"},"id":57}