{"abi":[{"type":"receive","stateMutability":"payable"},{"type":"function","name":"LMSR","inputs":[],"outputs":[{"name":"","type":"tuple","internalType":"struct LMSRStabilized.State","components":[{"name":"kappa","type":"int128","internalType":"int128"},{"name":"qInternal","type":"int128[]","internalType":"int128[]"}]}],"stateMutability":"view"},{"type":"function","name":"acceptOwnership","inputs":[],"outputs":[],"stateMutability":"nonpayable"},{"type":"function","name":"allProtocolFeesOwed","inputs":[],"outputs":[{"name":"","type":"uint256[]","internalType":"uint256[]"}],"stateMutability":"view"},{"type":"function","name":"allTokens","inputs":[],"outputs":[{"name":"","type":"address[]","internalType":"contract IERC20[]"}],"stateMutability":"view"},{"type":"function","name":"allowance","inputs":[{"name":"owner","type":"address","internalType":"address"},{"name":"spender","type":"address","internalType":"address"}],"outputs":[{"name":"","type":"uint256","internalType":"uint256"}],"stateMutability":"view"},{"type":"function","name":"approve","inputs":[{"name":"spender","type":"address","internalType":"address"},{"name":"value","type":"uint256","internalType":"uint256"}],"outputs":[{"name":"","type":"bool","internalType":"bool"}],"stateMutability":"nonpayable"},{"type":"function","name":"balanceOf","inputs":[{"name":"account","type":"address","internalType":"address"}],"outputs":[{"name":"","type":"uint256","internalType":"uint256"}],"stateMutability":"view"},{"type":"function","name":"balancedPairKernel","inputs":[],"outputs":[{"name":"","type":"bool","internalType":"bool"}],"stateMutability":"pure"},{"type":"function","name":"balances","inputs":[],"outputs":[{"name":"","type":"uint256[]","internalType":"uint256[]"}],"stateMutability":"view"},{"type":"function","name":"burn","inputs":[{"name":"payer","type":"address","internalType":"address"},{"name":"receiver","type":"address","internalType":"address"},{"name":"lpAmount","type":"uint256","internalType":"uint256"},{"name":"deadline","type":"uint256","internalType":"uint256"},{"name":"unwrap","type":"bool","internalType":"bool"}],"outputs":[{"name":"withdrawAmounts","type":"uint256[]","internalType":"uint256[]"}],"stateMutability":"nonpayable"},{"type":"function","name":"burnSwap","inputs":[{"name":"payer","type":"address","internalType":"address"},{"name":"receiver","type":"address","internalType":"address"},{"name":"lpAmount","type":"uint256","internalType":"uint256"},{"name":"outputTokenIndex","type":"uint256","internalType":"uint256"},{"name":"minAmountOut","type":"uint256","internalType":"uint256"},{"name":"deadline","type":"uint256","internalType":"uint256"},{"name":"unwrap","type":"bool","internalType":"bool"}],"outputs":[{"name":"amountOut","type":"uint256","internalType":"uint256"},{"name":"outFee","type":"uint256","internalType":"uint256"}],"stateMutability":"nonpayable"},{"type":"function","name":"collectProtocolFees","inputs":[],"outputs":[],"stateMutability":"nonpayable"},{"type":"function","name":"decimals","inputs":[],"outputs":[{"name":"","type":"uint8","internalType":"uint8"}],"stateMutability":"view"},{"type":"function","name":"denominators","inputs":[],"outputs":[{"name":"","type":"uint256[]","internalType":"uint256[]"}],"stateMutability":"view"},{"type":"function","name":"fees","inputs":[],"outputs":[{"name":"","type":"uint256[]","internalType":"uint256[]"}],"stateMutability":"view"},{"type":"function","name":"flashFeePpm","inputs":[],"outputs":[{"name":"","type":"uint256","internalType":"uint256"}],"stateMutability":"view"},{"type":"function","name":"flashLoan","inputs":[{"name":"receiver","type":"address","internalType":"contract IERC3156FlashBorrower"},{"name":"tokenAddr","type":"address","internalType":"address"},{"name":"amount","type":"uint256","internalType":"uint256"},{"name":"data","type":"bytes","internalType":"bytes"}],"outputs":[{"name":"","type":"bool","internalType":"bool"}],"stateMutability":"nonpayable"},{"type":"function","name":"initialMint","inputs":[{"name":"receiver","type":"address","internalType":"address"},{"name":"lpTokens","type":"uint256","internalType":"uint256"}],"outputs":[{"name":"lpMinted","type":"uint256","internalType":"uint256"}],"stateMutability":"payable"},{"type":"function","name":"kill","inputs":[],"outputs":[],"stateMutability":"nonpayable"},{"type":"function","name":"killed","inputs":[],"outputs":[{"name":"","type":"bool","internalType":"bool"}],"stateMutability":"view"},{"type":"function","name":"mint","inputs":[{"name":"payer","type":"address","internalType":"address"},{"name":"fundingSelector","type":"bytes4","internalType":"bytes4"},{"name":"receiver","type":"address","internalType":"address"},{"name":"lpTokenAmount","type":"uint256","internalType":"uint256"},{"name":"deadline","type":"uint256","internalType":"uint256"},{"name":"cbData","type":"bytes","internalType":"bytes"}],"outputs":[{"name":"lpMinted","type":"uint256","internalType":"uint256"}],"stateMutability":"payable"},{"type":"function","name":"name","inputs":[],"outputs":[{"name":"","type":"string","internalType":"string"}],"stateMutability":"view"},{"type":"function","name":"numTokens","inputs":[],"outputs":[{"name":"","type":"uint256","internalType":"uint256"}],"stateMutability":"view"},{"type":"function","name":"owner","inputs":[],"outputs":[{"name":"","type":"address","internalType":"address"}],"stateMutability":"view"},{"type":"function","name":"pendingOwner","inputs":[],"outputs":[{"name":"","type":"address","internalType":"address"}],"stateMutability":"view"},{"type":"function","name":"protocolFeeAddress","inputs":[],"outputs":[{"name":"","type":"address","internalType":"address"}],"stateMutability":"view"},{"type":"function","name":"protocolFeePpm","inputs":[],"outputs":[{"name":"","type":"uint256","internalType":"uint256"}],"stateMutability":"view"},{"type":"function","name":"setProtocolFeeAddress","inputs":[{"name":"feeAddress","type":"address","internalType":"address"}],"outputs":[],"stateMutability":"nonpayable"},{"type":"function","name":"swap","inputs":[{"name":"payer","type":"address","internalType":"address"},{"name":"fundingSelector","type":"bytes4","internalType":"bytes4"},{"name":"receiver","type":"address","internalType":"address"},{"name":"inputTokenIndex","type":"uint256","internalType":"uint256"},{"name":"outputTokenIndex","type":"uint256","internalType":"uint256"},{"name":"maxAmountIn","type":"uint256","internalType":"uint256"},{"name":"minAmountOut","type":"uint256","internalType":"uint256"},{"name":"deadline","type":"uint256","internalType":"uint256"},{"name":"unwrap","type":"bool","internalType":"bool"},{"name":"cbData","type":"bytes","internalType":"bytes"}],"outputs":[{"name":"amountIn","type":"uint256","internalType":"uint256"},{"name":"amountOut","type":"uint256","internalType":"uint256"},{"name":"inFee","type":"uint256","internalType":"uint256"}],"stateMutability":"payable"},{"type":"function","name":"swapMint","inputs":[{"name":"payer","type":"address","internalType":"address"},{"name":"fundingSelector","type":"bytes4","internalType":"bytes4"},{"name":"receiver","type":"address","internalType":"address"},{"name":"inputTokenIndex","type":"uint256","internalType":"uint256"},{"name":"lpAmountOut","type":"uint256","internalType":"uint256"},{"name":"maxAmountIn","type":"uint256","internalType":"uint256"},{"name":"deadline","type":"uint256","internalType":"uint256"},{"name":"cbData","type":"bytes","internalType":"bytes"}],"outputs":[{"name":"amountInUsed","type":"uint256","internalType":"uint256"},{"name":"lpMinted","type":"uint256","internalType":"uint256"},{"name":"inFee","type":"uint256","internalType":"uint256"}],"stateMutability":"payable"},{"type":"function","name":"symbol","inputs":[],"outputs":[{"name":"","type":"string","internalType":"string"}],"stateMutability":"view"},{"type":"function","name":"token","inputs":[{"name":"i","type":"uint256","internalType":"uint256"}],"outputs":[{"name":"","type":"address","internalType":"contract IERC20"}],"stateMutability":"view"},{"type":"function","name":"totalSupply","inputs":[],"outputs":[{"name":"","type":"uint256","internalType":"uint256"}],"stateMutability":"view"},{"type":"function","name":"transfer","inputs":[{"name":"to","type":"address","internalType":"address"},{"name":"value","type":"uint256","internalType":"uint256"}],"outputs":[{"name":"","type":"bool","internalType":"bool"}],"stateMutability":"nonpayable"},{"type":"function","name":"transferFrom","inputs":[{"name":"from","type":"address","internalType":"address"},{"name":"to","type":"address","internalType":"address"},{"name":"value","type":"uint256","internalType":"uint256"}],"outputs":[{"name":"","type":"bool","internalType":"bool"}],"stateMutability":"nonpayable"},{"type":"function","name":"transferOwnership","inputs":[{"name":"newOwner","type":"address","internalType":"address"}],"outputs":[],"stateMutability":"nonpayable"},{"type":"function","name":"wrapperToken","inputs":[],"outputs":[{"name":"","type":"address","internalType":"contract NativeWrapper"}],"stateMutability":"view"},{"type":"event","name":"Approval","inputs":[{"name":"owner","type":"address","indexed":true,"internalType":"address"},{"name":"spender","type":"address","indexed":true,"internalType":"address"},{"name":"value","type":"uint256","indexed":false,"internalType":"uint256"}],"anonymous":false},{"type":"event","name":"Burn","inputs":[{"name":"payer","type":"address","indexed":false,"internalType":"address"},{"name":"receiver","type":"address","indexed":true,"internalType":"address"},{"name":"amounts","type":"uint256[]","indexed":false,"internalType":"uint256[]"},{"name":"lpBurned","type":"uint256","indexed":false,"internalType":"uint256"}],"anonymous":false},{"type":"event","name":"BurnSwap","inputs":[{"name":"payer","type":"address","indexed":true,"internalType":"address"},{"name":"receiver","type":"address","indexed":true,"internalType":"address"},{"name":"tokenOut","type":"address","indexed":true,"internalType":"contract IERC20"},{"name":"amountIn","type":"uint256","indexed":false,"internalType":"uint256"},{"name":"amountOut","type":"uint256","indexed":false,"internalType":"uint256"},{"name":"lpFee","type":"uint256","indexed":false,"internalType":"uint256"},{"name":"protocolFee","type":"uint256","indexed":false,"internalType":"uint256"}],"anonymous":false},{"type":"event","name":"Flash","inputs":[{"name":"initiator","type":"address","indexed":true,"internalType":"address"},{"name":"receiver","type":"address","indexed":true,"internalType":"contract IERC3156FlashBorrower"},{"name":"token","type":"address","indexed":true,"internalType":"contract IERC20"},{"name":"amount","type":"uint256","indexed":false,"internalType":"uint256"},{"name":"lpFee","type":"uint256","indexed":false,"internalType":"uint256"},{"name":"protocolFee","type":"uint256","indexed":false,"internalType":"uint256"}],"anonymous":false},{"type":"event","name":"Killed","inputs":[],"anonymous":false},{"type":"event","name":"Mint","inputs":[{"name":"payer","type":"address","indexed":false,"internalType":"address"},{"name":"receiver","type":"address","indexed":true,"internalType":"address"},{"name":"amounts","type":"uint256[]","indexed":false,"internalType":"uint256[]"},{"name":"lpMinted","type":"uint256","indexed":false,"internalType":"uint256"}],"anonymous":false},{"type":"event","name":"OwnershipTransferStarted","inputs":[{"name":"previousOwner","type":"address","indexed":true,"internalType":"address"},{"name":"newOwner","type":"address","indexed":true,"internalType":"address"}],"anonymous":false},{"type":"event","name":"OwnershipTransferred","inputs":[{"name":"previousOwner","type":"address","indexed":true,"internalType":"address"},{"name":"newOwner","type":"address","indexed":true,"internalType":"address"}],"anonymous":false},{"type":"event","name":"ProtocolFeesCollected","inputs":[],"anonymous":false},{"type":"event","name":"Swap","inputs":[{"name":"payer","type":"address","indexed":false,"internalType":"address"},{"name":"receiver","type":"address","indexed":true,"internalType":"address"},{"name":"tokenIn","type":"address","indexed":true,"internalType":"contract IERC20"},{"name":"tokenOut","type":"address","indexed":true,"internalType":"contract IERC20"},{"name":"amountIn","type":"uint256","indexed":false,"internalType":"uint256"},{"name":"amountOut","type":"uint256","indexed":false,"internalType":"uint256"},{"name":"lpFee","type":"uint256","indexed":false,"internalType":"uint256"},{"name":"protocolFee","type":"uint256","indexed":false,"internalType":"uint256"}],"anonymous":false},{"type":"event","name":"SwapMint","inputs":[{"name":"payer","type":"address","indexed":true,"internalType":"address"},{"name":"receiver","type":"address","indexed":true,"internalType":"address"},{"name":"tokenIn","type":"address","indexed":true,"internalType":"contract IERC20"},{"name":"amountIn","type":"uint256","indexed":false,"internalType":"uint256"},{"name":"amountOut","type":"uint256","indexed":false,"internalType":"uint256"},{"name":"lpFee","type":"uint256","indexed":false,"internalType":"uint256"},{"name":"protocolFee","type":"uint256","indexed":false,"internalType":"uint256"}],"anonymous":false},{"type":"event","name":"Transfer","inputs":[{"name":"from","type":"address","indexed":true,"internalType":"address"},{"name":"to","type":"address","indexed":true,"internalType":"address"},{"name":"value","type":"uint256","indexed":false,"internalType":"uint256"}],"anonymous":false},{"type":"error","name":"AddressEmptyCode","inputs":[{"name":"target","type":"address","internalType":"address"}]},{"type":"error","name":"ERC20InsufficientAllowance","inputs":[{"name":"spender","type":"address","internalType":"address"},{"name":"allowance","type":"uint256","internalType":"uint256"},{"name":"needed","type":"uint256","internalType":"uint256"}]},{"type":"error","name":"ERC20InsufficientBalance","inputs":[{"name":"sender","type":"address","internalType":"address"},{"name":"balance","type":"uint256","internalType":"uint256"},{"name":"needed","type":"uint256","internalType":"uint256"}]},{"type":"error","name":"ERC20InvalidApprover","inputs":[{"name":"approver","type":"address","internalType":"address"}]},{"type":"error","name":"ERC20InvalidReceiver","inputs":[{"name":"receiver","type":"address","internalType":"address"}]},{"type":"error","name":"ERC20InvalidSender","inputs":[{"name":"sender","type":"address","internalType":"address"}]},{"type":"error","name":"ERC20InvalidSpender","inputs":[{"name":"spender","type":"address","internalType":"address"}]},{"type":"error","name":"FailedCall","inputs":[]},{"type":"error","name":"InsufficientBalance","inputs":[{"name":"balance","type":"uint256","internalType":"uint256"},{"name":"needed","type":"uint256","internalType":"uint256"}]},{"type":"error","name":"OwnableInvalidOwner","inputs":[{"name":"owner","type":"address","internalType":"address"}]},{"type":"error","name":"OwnableUnauthorizedAccount","inputs":[{"name":"account","type":"address","internalType":"address"}]},{"type":"error","name":"ReentrancyGuardReentrantCall","inputs":[]},{"type":"error","name":"SafeERC20FailedOperation","inputs":[{"name":"token","type":"address","internalType":"address"}]}],"bytecode":{"object":"0x61014080604052346102f25760017f9b779b17422d0df92223018b32b4d1fa46e071723d6817e2486d003becc55f00556367f855cb60e11b81525f81600481335afa9081156102ac575f916102f6575b5060808101908151516101205261014081019160018060a01b03835116608052610160820160018060a01b0381511660a05260a08301938451600f0b60c05260e0840193845160e052610100810180516101005273__$9cad45bd1978fe5b0f221da7ae4f2d5a19$__95863b156102f25760408051630d65425d60e31b8152602060048201819052855160248301528501516001600160a01b031660448201529084015161018060648301529098899796959493929161012e90610118906101a48b01906105d9565b60608601518a82036023190160848c01526105d9565b9651966023198982030160a48a0152602080895192838152019801905f5b8181106102d05750505051600f0b60c488015260c0830151956023198882030160e4890152602080885192838152019701905f5b8181106102b75750509051610104880152505161012486015261012001516001600160a01b03908116610144860152905181166101648501529051166101848301525f92908290039082905af480156102ac5761029c575b6040516158a890816105fe823960805181818160310152818161038e0152818161080201528181610cbc0152818161167c0152818161244b0152818161272c0152818161296001528181612b6701526137d2015260a0518181816103ca0152818161083f0152818161207001526121b4015260c0518161134a015260e05181818161191d015261351d0152610100518181816107c601528181610c80015281816114660152818161158d0152818161194301526122a101526101205181610f1f0152f35b5f6102a691610536565b5f6101d8565b6040513d5f823e3d90fd5b825189528b995060209889019890920191600101610180565b82516001600160a01b03168a528c9a506020998a01999092019160010161014c565b5f80fd5b90503d805f833e6103078183610536565b8101906020818303126102f2578051906001600160401b0382116102f25701610180818303126102f2576040519161018083016001600160401b03811184821017610522576040528151835261035f60208301610559565b602084015260408201516001600160401b0381116102f2578161038391840161056d565b604084015260608201516001600160401b0381116102f257816103a791840161056d565b606084015260808201516001600160401b0381116102f257820181601f820112156102f25780516103d7816105c2565b916103e56040519384610536565b81835260208084019260051b820101908482116102f257602001915b81831061050257505050608084015260a082015180600f0b81036102f25760a084015260c08201516001600160401b0381116102f25782019080601f830112156102f2578151610450816105c2565b9261045e6040519485610536565b81845260208085019260051b8201019283116102f257602001905b8282106104f25750505060c083015260e081015160e08301526101008101516101008301526104ab6101208201610559565b610120830152610140810151906001600160a01b03821682036102f25761014083019190915261016001516001600160a01b03811681036102f2576101608201525f61004f565b8151815260209182019101610479565b82516001600160a01b03811681036102f257815260209283019201610401565b634e487b7160e01b5f52604160045260245ffd5b601f909101601f19168101906001600160401b0382119082101761052257604052565b51906001600160a01b03821682036102f257565b81601f820112156102f2578051906001600160401b03821161052257604051926105a1601f8401601f191660200185610536565b828452602083830101116102f257815f9260208093018386015e8301015290565b6001600160401b0381116105225760051b60200190565b805180835260209291819084018484015e5f828201840152601f01601f191601019056fe60c08060405260043610156100b7575b50361561001a575f80fd5b73ffffffffffffffffffffffffffffffffffffffff7f000000000000000000000000000000000000000000000000000000000000000016330361005957005b60646040517f08c379a000000000000000000000000000000000000000000000000000000000815260206004820152601560248201527f4554482066726f6d2077726170706572206f6e6c7900000000000000000000006044820152fd5b5f6080525f3560e01c908163017504b614613aa157508063017cf66114613a0f578063044215c6146139a957806306fdde03146138a3578063095ea7b3146137f65780630d2462141461378857806318160ddd1461374d5780631f3a0e411461370d57806323b872dd14613579578063313ce5671461354057806331596a6a146134e85780633b840e09146134af57806341c0e1b51461341d578063476e44b6146132d05780634ae93e1d14611a015780635cffe9de146117d35780636863f5bc146115b05780636b4082d1146115565780636b7b9112146114255780636d8d0ff3146112b55780636ff97f1d146111ad57806370a082311461114657806379ba50971461102e5780637bb98a6814610f965780638da5cb5b14610f425780638e499bcf14610ee857806395d89b4114610d7f57806396d75bf614610b7b5780639af1d35a14610ad7578063a1af5b9a146109e6578063a9059cbb14610997578063cce516b714610944578063cd0a419814610667578063dd62ed3e146105d7578063e30c397814610584578063f2fde38b146104bd5763fbf40a7c1461025e575f61000f565b60c07ffffffffffffffffffffffffffffffffffffffffffffffffffffffffffffffffc3601126104b757610290613bab565b610298613c14565b906102a1613bf1565b60a4359167ffffffffffffffff83116104b75761037773ffffffffffffffffffffffffffffffffffffffff92836102de6020963690600401613d07565b916102ee60ff6009541615613e75565b6102f661414c565b7fffffffff0000000000000000000000000000000000000000000000000000000060405198899788977f1bcaf4e50000000000000000000000000000000000000000000000000000000089521660048801521660248601521660448401526064356064840152608435608484015261010060a4840152610104830190613b68565b73ffffffffffffffffffffffffffffffffffffffff7f00000000000000000000000000000000000000000000000000000000000000001660c483015273ffffffffffffffffffffffffffffffffffffffff7f00000000000000000000000000000000000000000000000000000000000000001660e4830152038173__$5c3fa89b9ee358f4499fa62b5a914b9b69$__5af480156104aa5760805190610473575b6020915060017f9b779b17422d0df92223018b32b4d1fa46e071723d6817e2486d003becc55f0055478061044f575b50604051908152f35b60805161046d91819081908190335af1610467613de1565b50613e10565b5f610446565b506020813d6020116104a2575b8161048d60209383613c8c565b8101031261049e5760209051610417565b5f80fd5b3d9150610480565b6040513d608051823e3d90fd5b60805180fd5b346104b75760207ffffffffffffffffffffffffffffffffffffffffffffffffffffffffffffffffc3601126104b75773ffffffffffffffffffffffffffffffffffffffff610509613bab565b610511614100565b16807fffffffffffffffffffffffff0000000000000000000000000000000000000000600154161760015573ffffffffffffffffffffffffffffffffffffffff60805154167f38d16b8cac22d99fc7c124b9cd0de2d3fa1faef420bfe791d8c362d765e22700608051608051a360805180f35b346104b7576080517ffffffffffffffffffffffffffffffffffffffffffffffffffffffffffffffffc3601126104b757602073ffffffffffffffffffffffffffffffffffffffff60015416604051908152f35b346104b75760407ffffffffffffffffffffffffffffffffffffffffffffffffffffffffffffffffc3601126104b75761060e613bab565b73ffffffffffffffffffffffffffffffffffffffff61062b613bce565b911660805152600360205273ffffffffffffffffffffffffffffffffffffffff60406080512091165f52602052602060405f2054604051908152f35b6101007ffffffffffffffffffffffffffffffffffffffffffffffffffffffffffffffffc3601126104b75761069a613bab565b6106a2613c14565b906106ab613bf1565b60e435916064359167ffffffffffffffff84116104b7576107bd73ffffffffffffffffffffffffffffffffffffffff936106eb6060963690600401613d07565b906106fb60ff6009541615613e75565b61070361414c565b60086080515285817ff3f7a9fe364faab93b216da50a3214154f22a0a2b415b23a84c8169e8b636ee30154947fffffffff000000000000000000000000000000000000000000000000000000006040519a8b998a997f955dace4000000000000000000000000000000000000000000000000000000008b521660048a01521660248801521660448601526064850152608435608485015260a43560a485015260c43560c485015261018060e4850152610184840190613b68565b906101048301527f000000000000000000000000000000000000000000000000000000000000000061012483015273ffffffffffffffffffffffffffffffffffffffff7f00000000000000000000000000000000000000000000000000000000000000001661014483015273ffffffffffffffffffffffffffffffffffffffff7f000000000000000000000000000000000000000000000000000000000000000016610164830152038173__$5c3fa89b9ee358f4499fa62b5a914b9b69$__5af480156104aa57608051918291829190610902575b506108e09060017f9b779b17422d0df92223018b32b4d1fa46e071723d6817e2486d003becc55f005547806108e4575b50604051938493846040919493926060820195825260208201520152565b0390f35b6080516108fc91819081908190335af1610467613de1565b846108c2565b925050506060813d60601161093c575b8161091f60609383613c8c565b810103126104b757805160208201516040909201516108e0610892565b3d9150610912565b346104b7576080517ffffffffffffffffffffffffffffffffffffffffffffffffffffffffffffffffc3601126104b757602073ffffffffffffffffffffffffffffffffffffffff60115416604051908152f35b346104b75760407ffffffffffffffffffffffffffffffffffffffffffffffffffffffffffffffffc3601126104b7576109db6109d1613bab565b6024359033613fdb565b602060405160018152f35b346104b7576080517ffffffffffffffffffffffffffffffffffffffffffffffffffffffffffffffffc3601126104b757610a1e61414c565b60115473ffffffffffffffffffffffffffffffffffffffff1673__$9cad45bd1978fe5b0f221da7ae4f2d5a19$__803b156104b757604051917f2a54db01000000000000000000000000000000000000000000000000000000008352600483015281602481608051935af480156104aa57610abe575b60017f9b779b17422d0df92223018b32b4d1fa46e071723d6817e2486d003becc55f005560805180f35b608051610aca91613c8c565b6080516104b75780610a94565b346104b7576080517ffffffffffffffffffffffffffffffffffffffffffffffffffffffffffffffffc3601126104b7576040518060206008549182815201906008608051527ff3f7a9fe364faab93b216da50a3214154f22a0a2b415b23a84c8169e8b636ee3906080515b818110610b65576108e085610b5981870382613c8c565b60405191829182613b2f565b8254845260209093019260019283019201610b42565b346104b75760e07ffffffffffffffffffffffffffffffffffffffffffffffffffffffffffffffffc3601126104b757610bb2613bab565b610bba613bce565b60c43580151590606435908290036104b757610bdb60ff6009541615613e75565b610be361414c565b60086080515273ffffffffffffffffffffffffffffffffffffffff817ff3f7a9fe364faab93b216da50a3214154f22a0a2b415b23a84c8169e8b636ee301549381604051967ff1f9965400000000000000000000000000000000000000000000000000000000885216600487015216602485015260443560448501526064840152608435608484015260a43560a484015260c483015260e48201527f000000000000000000000000000000000000000000000000000000000000000061010482015273ffffffffffffffffffffffffffffffffffffffff7f0000000000000000000000000000000000000000000000000000000000000000166101248201526040816101448173__$5c3fa89b9ee358f4499fa62b5a914b9b69$__5af480156104aa57608051908190610d45575b6040925060017f9b779b17422d0df92223018b32b4d1fa46e071723d6817e2486d003becc55f005582519182526020820152f35b50506040813d604011610d77575b81610d6060409383613c8c565b810103126104b75780602060409251910151610d11565b3d9150610d53565b346104b7576080517ffffffffffffffffffffffffffffffffffffffffffffffffffffffffffffffffc3601126104b757604051608051600654600181811c919081168015610ede575b602083108114610ead57828552908115610e6b5750600114610e09575b6108e083610df581850382613c8c565b604051918291602083526020830190613b68565b9190506006608051527ff652222313e28459528d920b65115c16c04f3efc82aaedc97be59f3f377c0d3f91608051905b808210610e5157509091508101602001610df5610de5565b919260018160209254838588010152019101909291610e39565b7fffffffffffffffffffffffffffffffffffffffffffffffffffffffffffffff001660208086019190915291151560051b84019091019150610df59050610de5565b7f4e487b71000000000000000000000000000000000000000000000000000000006080515260226004526024608051fd5b91607f1691610dc8565b346104b7576080517ffffffffffffffffffffffffffffffffffffffffffffffffffffffffffffffffc3601126104b75760206040517f00000000000000000000000000000000000000000000000000000000000000008152f35b346104b7576080517ffffffffffffffffffffffffffffffffffffffffffffffffffffffffffffffffc3601126104b757602073ffffffffffffffffffffffffffffffffffffffff6080515416604051908152f35b346104b7576080517ffffffffffffffffffffffffffffffffffffffffffffffffffffffffffffffffc3601126104b7576040518060206010549182815201906010608051527f1b6847dc741a1b0cd08d278845f9d819d87b734759afb55fe2de5cb82a9ae672906080515b818110611018576108e085610b5981870382613c8c565b8254845260209093019260019283019201611001565b346104b7576080517ffffffffffffffffffffffffffffffffffffffffffffffffffffffffffffffffc3601126104b7576001543373ffffffffffffffffffffffffffffffffffffffff821603611116577fffffffffffffffffffffffff00000000000000000000000000000000000000001660015560805154337fffffffffffffffffffffffff00000000000000000000000000000000000000008216176080515573ffffffffffffffffffffffffffffffffffffffff3391167f8be0079c531659141344cd1fd0a4f28419497f9722a3daafe3b4186f6b6457e0608051608051a360805180f35b7f118cdaa70000000000000000000000000000000000000000000000000000000060805152336004526024608051fd5b346104b75760207ffffffffffffffffffffffffffffffffffffffffffffffffffffffffffffffffc3601126104b75773ffffffffffffffffffffffffffffffffffffffff611192613bab565b16608051526002602052602060406080512054604051908152f35b346104b7576080517ffffffffffffffffffffffffffffffffffffffffffffffffffffffffffffffffc3601126104b757604051806020600c5492838152018092600c608051527fdf6966c971051c3d54ec59162606531493a51404a002842f56009d7e5cf4a8c7906080515b818110611289575050508161122f910382613c8c565b604051918291602083019060208452518091526040830191906080515b81811061125a575050500390f35b825173ffffffffffffffffffffffffffffffffffffffff1684528594506020938401939092019160010161124c565b825473ffffffffffffffffffffffffffffffffffffffff16845260209093019260019283019201611219565b60407ffffffffffffffffffffffffffffffffffffffffffffffffffffffffffffffffc3601126104b7576112e7613bab565b6112f660ff6009541615613e75565b6112fe61414c565b73ffffffffffffffffffffffffffffffffffffffff604051917fc5eabfb900000000000000000000000000000000000000000000000000000000835216600482015260243560248201527f0000000000000000000000000000000000000000000000000000000000000000600f0b604482015260208160648173__$5c3fa89b9ee358f4499fa62b5a914b9b69$__5af480156104aa57608051906113f2575b6020915060017f9b779b17422d0df92223018b32b4d1fa46e071723d6817e2486d003becc55f005547806113d45750604051908152f35b6080516113ec91819081908190335af1610467613de1565b82610446565b506020813d60201161141d575b8161140c60209383613c8c565b8101031261049e576020905161139d565b3d91506113ff565b346104b75760207ffffffffffffffffffffffffffffffffffffffffffffffffffffffffffffffffc3601126104b75761145c613bab565b611464614100565b7f0000000000000000000000000000000000000000000000000000000000000000158015611537575b156114d95773ffffffffffffffffffffffffffffffffffffffff167fffffffffffffffffffffffff00000000000000000000000000000000000000006011541617601155608051608051f35b60646040517f08c379a000000000000000000000000000000000000000000000000000000000815260206004820152601060248201527f7a65726f206665652061646472657373000000000000000000000000000000006044820152fd5b5073ffffffffffffffffffffffffffffffffffffffff8116151561148d565b346104b7576080517ffffffffffffffffffffffffffffffffffffffffffffffffffffffffffffffffc3601126104b75760206040517f00000000000000000000000000000000000000000000000000000000000000008152f35b346104b75760a07ffffffffffffffffffffffffffffffffffffffffffffffffffffffffffffffffc3601126104b7576115e7613bab565b6115ef613bce565b60843580151591908290036104b75773ffffffffffffffffffffffffffffffffffffffff9061161c61414c565b81604051947f90250c0a00000000000000000000000000000000000000000000000000000000865216600485015216602483015260443560448301526064356064830152608482015273ffffffffffffffffffffffffffffffffffffffff7f00000000000000000000000000000000000000000000000000000000000000001660a48201526080518160c48173__$5c3fa89b9ee358f4499fa62b5a914b9b69$__5af480156104aa5760805190611702575b6108e09060017f9b779b17422d0df92223018b32b4d1fa46e071723d6817e2486d003becc55f005560405191829182613b2f565b503d80608051833e6117148183613c8c565b8101906020818303126104b75780519067ffffffffffffffff82116104b757019080601f830112156104b75781519167ffffffffffffffff83116117a2578260051b90604051936117686020840186613c8c565b84526020808501928201019283116104b757602001905b828210611792575050506108e0906116ce565b815181526020918201910161177f565b7f4e487b71000000000000000000000000000000000000000000000000000000006080515260416004526024608051fd5b346104b75760807ffffffffffffffffffffffffffffffffffffffffffffffffffffffffffffffffc3601126104b75760043573ffffffffffffffffffffffffffffffffffffffff81168091036104b75761182b613bce565b6064359067ffffffffffffffff82116104b757366023830112156104b75781600401359167ffffffffffffffff83116104b75736602484830101116104b75773ffffffffffffffffffffffffffffffffffffffff937fffffffffffffffffffffffffffffffffffffffffffffffffffffffffffffffe0601f85602096602460e4966118b461414c565b6118c360ff6009541615613e75565b6040519a8b998a987faabadaf0000000000000000000000000000000000000000000000000000000008a5260048a01521682880152604435604488015260c060648801528260c488015201868601376080518582860101527f000000000000000000000000000000000000000000000000000000000000000060848501527f000000000000000000000000000000000000000000000000000000000000000060a48501520116810103018173__$9cad45bd1978fe5b0f221da7ae4f2d5a19$__5af480156104aa57608051906119c5575b60209060017f9b779b17422d0df92223018b32b4d1fa46e071723d6817e2486d003becc55f00556040519015158152f35b506020813d6020116119f9575b816119df60209383613c8c565b810103126104b7575180151581036104b757602090611994565b3d91506119d2565b6101407ffffffffffffffffffffffffffffffffffffffffffffffffffffffffffffffffc36011261049e57611a34613bab565b611a3c613c14565b90611a45613bf1565b906101043592831515840361049e576101243567ffffffffffffffff811161049e57611a75903690600401613d07565b91611a7e61414c565b611a8d60ff6009541615613e75565b608435606435141593611a9f85613eda565b60e4351580156132c4575b1561326657611b0d6064357ff3f7a9fe364faab93b216da50a3214154f22a0a2b415b23a84c8169e8b636ee3015460085f526084357ff3f7a9fe364faab93b216da50a3214154f22a0a2b415b23a84c8169e8b636ee3015401955f60a052613eda565b611b198560a435614235565b600e5f527fbb7b4a454dc3493923482f07822329ed19e8244eff582cc204f8554c3620c3fd6064350154929150821561049e578277ffffffffffffffffffffffffffffffffffffffffffffffff82116130b157611b789160401b613f3f565b6fffffffffffffffffffffffffffffffff811161049e576fffffffffffffffffffffffffffffffff16966f7fffffffffffffffffffffffffffffff881161049e57611bd9611be298600f0b611bce5f82136141c3565b6084356064356143fd565b98909384614253565b965f60a05280613097575b5060a435871161303957600e5f52611c2a6084357fbb7b4a454dc3493923482f07822329ed19e8244eff582cc204f8554c3620c3fd0154896142aa565b96611c368815156141c3565b60c43515801561302d575b15612fcf5773ffffffffffffffffffffffffffffffffffffffff6064357fdf6966c971051c3d54ec59162606531493a51404a002842f56009d7e5cf4a8c701541695600c5f5273ffffffffffffffffffffffffffffffffffffffff6084357fdf6966c971051c3d54ec59162606531493a51404a002842f56009d7e5cf4a8c7015416977fffffffff0000000000000000000000000000000000000000000000000000000082167c020000000000000000000000000000000000000000000000000000000081145f1461292357509050346128c5576040518061010081011067ffffffffffffffff610100830111176117a257610100810160405273ffffffffffffffffffffffffffffffffffffffff8716815273ffffffffffffffffffffffffffffffffffffffff8516908160208201526064356040820152608435606082015260a435608082015260c43560a082015260e43560c082015260e085151591015260405160208101917f13020956b4075195a70e9f5e78d703998f293cc8dec17e01c72e31517ec99ce0835273ffffffffffffffffffffffffffffffffffffffff891660408301526060820152606435608082015260843560a082015260a43560c082015260c43560e082015260e4356101008201528415156101208201526101208152611e3161014082613c8c565b51902060405190611e4461012083613c8c565b60e482527f537761705769746e657373207769746e65737329537761705769746e6573732860208301527f616464726573732070617965722c616464726573732072656365697665722c7560408301527f696e7432353620696e707574546f6b656e496e6465782c75696e74323536206f60608301527f7574707574546f6b656e496e6465782c75696e74323536206d6178416d6f756e60808301527f74496e2c75696e74323536206d696e416d6f756e744f75742c75696e7432353660a08301527f20646561646c696e652c626f6f6c20756e7772617029546f6b656e5065726d6960c08301527f7373696f6e73286164647265737320746f6b656e2c75696e7432353620616d6f60e08301527f756e7429000000000000000000000000000000000000000000000000000000006101008301528251830191606084602085019403126104b757602084015193604081015190606081015167ffffffffffffffff81116104b75785603f8284010112156104b7576020818301015191611fca83613ccd565b96611fd86040519889613c8c565b8388526040828401850101116104b757829101604001602087015e602060805191860101526040519161200a83613c43565b8b835260a4356020840152604051926060840184811067ffffffffffffffff8211176117a257604052835260208301958652604083019182526040519061205082613c43565b30825287602083015273ffffffffffffffffffffffffffffffffffffffff7f0000000000000000000000000000000000000000000000000000000000000000163b156104b7576120fb9461212f61216493612198956040519a8b998a997f137c29fe000000000000000000000000000000000000000000000000000000008b5260048b0190516020809173ffffffffffffffffffffffffffffffffffffffff81511684520151910152565b516044890152516064880152805173ffffffffffffffffffffffffffffffffffffffff1660848801526020015160a4870152565b73ffffffffffffffffffffffffffffffffffffffff8d1660c486015260e4850152610140610104850152610144840190613b68565b7ffffffffffffffffffffffffffffffffffffffffffffffffffffffffffffffffc8382030161012484015260805194613b68565b038160805173ffffffffffffffffffffffffffffffffffffffff7f0000000000000000000000000000000000000000000000000000000000000000165af180156104aa576128ac575b509788935b6064357fd7b6990105719101dabeb77144f2a3385c8033acd3af97e9423a695e81ad1eb5018054908a6084357fd7b6990105719101dabeb77144f2a3385c8033acd3af97e9423a695e81ad1eb50154926064357f1b6847dc741a1b0cd08d278845f9d819d87b734759afb55fe2de5cb82a9ae6720190815499601060805152856084357f1b6847dc741a1b0cd08d278845f9d819d87b734759afb55fe2de5cb82a9ae672015491836080519d0101910193841061284e578e947f000000000000000000000000000000000000000000000000000000000000000080151580612843575b61281d575b50506122dc82821015613f76565b6010608051520390556122f3838383031015613f76565b60106080515203036084357f1b6847dc741a1b0cd08d278845f9d819d87b734759afb55fe2de5cb82a9ae672015560805181600f0b138061280f575b156127b157600b5f52606435600181901c7f0175b7a638427703f0dbe7bb9bbf987a2551717b34e79f33b5b1008d1fa01db901546123999160071b6080161c600f0b92612394608435600b5f52608060205f208260011c01549160071b161c600f0b90565b614305565b9060805182600f0b1315612753576123b76123f0916124299461439f565b60643590600b5f526fffffffffffffffffffffffffffffffff80608060205f208560011c019460071b169216821b911b19825416179055565b60843590600b5f526fffffffffffffffffffffffffffffffff80608060205f208560011c019460071b169216821b911b19825416179055565b80612714575b1561260f5773ffffffffffffffffffffffffffffffffffffffff7f000000000000000000000000000000000000000000000000000000000000000016803b156104b757604051907f2e1a7d4d0000000000000000000000000000000000000000000000000000000082528760048301528160248160805193608051905af180156104aa576125f6575b5060805180808089855af16124cb613de1565b50156125985773ffffffffffffffffffffffffffffffffffffffff60a0917f6950339c7661cca450281e53722525cc136590e622b011d5be7e4c4993685a6c935b826040519616865289602087015288604087015280845103606087015260808601521692a460017f9b779b17422d0df92223018b32b4d1fa46e071723d6817e2486d003becc55f0055478061257a575b506040805160a0519381526020810192909252810191909152606090f35b60805161259291819081908190335af1610467613de1565b8261255c565b60646040517f08c379a000000000000000000000000000000000000000000000000000000000815260206004820152601460248201527f7265636569766572206e6f742070617961626c650000000000000000000000006044820152fd5b60805161260291613c8c565b6080516104b757876124b8565b90608051506040517fa9059cbb000000000000000000000000000000000000000000000000000000006080515273ffffffffffffffffffffffffffffffffffffffff831660045286602452602060805160446080516080518a5af190600160805151148216156126f1575b604052156126c15773ffffffffffffffffffffffffffffffffffffffff7f6950339c7661cca450281e53722525cc136590e622b011d5be7e4c4993685a6c9260a09261250c565b847f5274afe700000000000000000000000000000000000000000000000000000000608051526004526024608051fd5b90600181151661270957863b15153d1516169061267a565b503d608051823e3d90fd5b5073ffffffffffffffffffffffffffffffffffffffff7f000000000000000000000000000000000000000000000000000000000000000016851461242f565b60646040517f08c379a000000000000000000000000000000000000000000000000000000000815260206004820152600c60248201527f706f6f6c20647261696e656400000000000000000000000000000000000000006044820152fd5b60646040517f08c379a000000000000000000000000000000000000000000000000000000000815260206004820152600e60248201527f696e76616c696420616d6f756e740000000000000000000000000000000000006044820152fd5b5060805182600f0b1361232f565b60a051620f42409102049b508b80156122ce579092018092600d60805152555f8b6122ce565b5060a05115156122c9565b60646040517f08c379a000000000000000000000000000000000000000000000000000000000815260206004820152601360248201527f616d6f756e744f7574203e2062616c616e6365000000000000000000000000006044820152fd5b6080516128b891613c8c565b6080516104b757896121e1565b60646040517f08c379a000000000000000000000000000000000000000000000000000000000815260206004820152601260248201527f7065726d6974323a206e6f206e617469766500000000000000000000000000006044820152fd5b80612b0e5750505073ffffffffffffffffffffffffffffffffffffffff8516803303612ab05773ffffffffffffffffffffffffffffffffffffffff7f0000000000000000000000000000000000000000000000000000000000000000169081881480612aa6575b156129f75750803b156104b757604051907fd0e30db00000000000000000000000000000000000000000000000000000000082528160048185608051945af180156104aa576129de575b505b9788936121e6565b6080516129ea91613c8c565b6080516104b757896129d4565b905060805150604051907f23b872dd00000000000000000000000000000000000000000000000000000000608051526004523060245281604452602060805160646080516080518b5af19060016080515114821615612a8e575b6040526080516060526129d657857f5274afe700000000000000000000000000000000000000000000000000000000608051526004526024608051fd5b90600181151661270957873b15153d15161690612a51565b508234101561298a565b60646040517f08c379a000000000000000000000000000000000000000000000000000000000815260206004820152601960248201527f617070726f76616c3a2063616c6c657220213d207061796572000000000000006044820152fd5b7c010000000000000000000000000000000000000000000000000000000003612dfe57505073ffffffffffffffffffffffffffffffffffffffff85163303612da05773ffffffffffffffffffffffffffffffffffffffff7f00000000000000000000000000000000000000000000000000000000000000001680871480612d96575b15612bfe57803b1561049e575f82916004604051809481937fd0e30db00000000000000000000000000000000000000000000000000000000083525af18015612bf357612bdf575b505b6129d6565b5f612be991613c8c565b5f60805289612bd8565b6040513d5f823e3d90fd5b506040517f70a082310000000000000000000000000000000000000000000000000000000081523060048201526020816024818a5afa908115612bf3575f91612d64575b506010546064351015612d375760105f5260643560205f200154600d546064351015612d3757600d5f527fd7b6990105719101dabeb77144f2a3385c8033acd3af97e9423a695e81ad1eb560643501548101908110612d0a57612ca491614228565b90811015612bda5760646040517f08c379a000000000000000000000000000000000000000000000000000000000815260206004820152601e60248201527f496e73756666696369656e742070726566756e64696e6720616d6f756e7400006044820152fd5b7f4e487b71000000000000000000000000000000000000000000000000000000005f52601160045260245ffd5b7f4e487b71000000000000000000000000000000000000000000000000000000005f52603260045260245ffd5b90506020813d602011612d8e575b81612d7f60209383613c8c565b8101031261049e57518a612c42565b3d9150612d72565b5081471015612b90565b60646040517f08c379a000000000000000000000000000000000000000000000000000000000815260206004820152601b60248201527f70726566756e64696e673a2063616c6c657220213d20706179657200000000006044820152fd5b604051907f70a082310000000000000000000000000000000000000000000000000000000082523060048301526020826024818c5afa918215612bf3575f92612f99575b50612eab612eb19293612e7f60075493604051948593602085015260248401528c60448401528760648401526080608484015260a4830190613b68565b037fffffffffffffffffffffffffffffffffffffffffffffffffffffffffffffffe08101835282613c8c565b876146c1565b50604051907f70a082310000000000000000000000000000000000000000000000000000000082523060048301526020826024818b5afa8015612bf3575f90612f65575b612eff9250614228565b908110156129d65760646040517f08c379a000000000000000000000000000000000000000000000000000000000815260206004820152601260248201527f496e73756666696369656e742066756e647300000000000000000000000000006044820152fd5b506020823d602011612f91575b81612f7f60209383613c8c565b8101031261049e57612eff9151612ef5565b3d9150612f72565b91506020823d602011612fc7575b81612fb460209383613c8c565b8101031261049e57905190612eab612e42565b3d9150612fa7565b60646040517f08c379a000000000000000000000000000000000000000000000000000000000815260206004820152601960248201527f737761703a20696e73756666696369656e74206f7574707574000000000000006044820152fd5b5060c435881015611c41565b60646040517f08c379a000000000000000000000000000000000000000000000000000000000815260206004820152601a60248201527f737761703a207472616e736665722065786365656473206d61780000000000006044820152fd5b6130a39088929861428f565b60a05260a051019588611bed565b5060c09080821c8092640100000000821015613259575b6002826201000061315594101561324d575b610100811015613241575b6010811015613235575b600481101561322a575b1015613222575b8260017fffffffffffffffffffffffffffffffffffffffffffffffffffffffffffffffff88017fffffffffffffffffffffffffffffffffffffffffffffffffffffffffffffff4184011c019160ff031b613f3f565b916fffffffffffffffffffffffffffffffff831161049e5784908160801c8402906fffffffffffffffffffffffffffffffff8316850290809460401b908282106131f8575b5003928160801b918285106131cf575b60801c036131c4576131bc9203613f3f565b905b01611b78565b5050506001906131be565b907fffffffffffffffffffffffffffffffffffffffffffffffffffffffffffffffff01906131aa565b7fffffffffffffffffffffffffffffffffffffffffffffffffffffffffffffffff0194508d61319a565b600101613100565b91810191811c6130f9565b6004928301921c6130ef565b6008928301921c6130e5565b6010928301921c6130da565b505060e081811c906130c8565b60646040517f08c379a000000000000000000000000000000000000000000000000000000000815260206004820152601760248201527f737761703a20646561646c696e652065786365656465640000000000000000006044820152fd5b5060e435421115611aaa565b3461049e575f7ffffffffffffffffffffffffffffffffffffffffffffffffffffffffffffffffc36011261049e576060602060405161330e81613c43565b5f8152015260405161331f81613c43565b600a54600f0b815260405190600b548083528260208101600b5f5260205f20925f905b8060018301106133f15761336b9454918181106133dd575b106133cc575b509392930382613c8c565b6020820190815260405191829160208352606083019151600f0b6020840152519060408084015281518091526020608084019201905f5b8181106133b0575050500390f35b8251600f0b8452859450602093840193909201916001016133a2565b60801d600f0b815260200185613360565b92602060019184600f0b815201930161335a565b9160029193506040600191865480600f0b825260801d600f0b6020820152019401920185929391613342565b3461049e575f7ffffffffffffffffffffffffffffffffffffffffffffffffffffffffffffffffc36011261049e57613453614100565b60095460ff81161561346157005b7fffffffffffffffffffffffffffffffffffffffffffffffffffffffffffffff00166001176009557f0f8eeedbc400fd6686703559f58d1e6143fdaed533f19a86c93d67a2fe4fb3315f80a1005b3461049e575f7ffffffffffffffffffffffffffffffffffffffffffffffffffffffffffffffffc36011261049e57602060405160018152f35b3461049e575f7ffffffffffffffffffffffffffffffffffffffffffffffffffffffffffffffffc36011261049e5760206040517f00000000000000000000000000000000000000000000000000000000000000008152f35b3461049e575f7ffffffffffffffffffffffffffffffffffffffffffffffffffffffffffffffffc36011261049e57602060405160128152f35b3461049e5760607ffffffffffffffffffffffffffffffffffffffffffffffffffffffffffffffffc36011261049e576135b0613bab565b6135b8613bce565b6044359073ffffffffffffffffffffffffffffffffffffffff831692835f52600360205260405f2073ffffffffffffffffffffffffffffffffffffffff33165f5260205260405f20547fffffffffffffffffffffffffffffffffffffffffffffffffffffffffffffffff8110613634575b506109db9350613fdb565b8381106136d95784156136ad573315613681576109db945f52600360205260405f2073ffffffffffffffffffffffffffffffffffffffff33165f526020528360405f209103905584613629565b7f94280d62000000000000000000000000000000000000000000000000000000005f525f60045260245ffd5b7fe602df05000000000000000000000000000000000000000000000000000000005f525f60045260245ffd5b83907ffb8f41b2000000000000000000000000000000000000000000000000000000005f523360045260245260445260645ffd5b3461049e575f7ffffffffffffffffffffffffffffffffffffffffffffffffffffffffffffffffc36011261049e57602060ff600954166040519015158152f35b3461049e575f7ffffffffffffffffffffffffffffffffffffffffffffffffffffffffffffffffc36011261049e576020600454604051908152f35b3461049e575f7ffffffffffffffffffffffffffffffffffffffffffffffffffffffffffffffffc36011261049e57602060405173ffffffffffffffffffffffffffffffffffffffff7f0000000000000000000000000000000000000000000000000000000000000000168152f35b3461049e5760407ffffffffffffffffffffffffffffffffffffffffffffffffffffffffffffffffc36011261049e5761382d613bab565b6024359033156136ad5773ffffffffffffffffffffffffffffffffffffffff1690811561368157335f52600360205260405f20825f526020528060405f20556040519081527f8c5be1e5ebec7d5bd14f71427d1e84f3dd0314c0f7b2291e5b200ac8c7c3b92560203392a3602060405160018152f35b3461049e575f7ffffffffffffffffffffffffffffffffffffffffffffffffffffffffffffffffc36011261049e576040515f6005548060011c9060018116801561399f575b60208310811461397257828552908115610e6b5750600114613914576108e083610df581850382613c8c565b91905060055f527f036b6384b5eca791c62761152d0c79bb0604c104a5fb6f4eb0703f3154bb3db0915f905b80821061395857509091508101602001610df5610de5565b919260018160209254838588010152019101909291613940565b7f4e487b71000000000000000000000000000000000000000000000000000000005f52602260045260245ffd5b91607f16916138e8565b3461049e5760207ffffffffffffffffffffffffffffffffffffffffffffffffffffffffffffffffc36011261049e57600435600c54811015612d375773ffffffffffffffffffffffffffffffffffffffff602091600c5f52825f20015416604051908152f35b3461049e575f7ffffffffffffffffffffffffffffffffffffffffffffffffffffffffffffffffc36011261049e57604051806020600e54918281520190600e5f527fbb7b4a454dc3493923482f07822329ed19e8244eff582cc204f8554c3620c3fd905f5b818110613a8b576108e085610b5981870382613c8c565b8254845260209093019260019283019201613a74565b3461049e575f7ffffffffffffffffffffffffffffffffffffffffffffffffffffffffffffffffc36011261049e57600d548082526020820190600d5f527fd7b6990105719101dabeb77144f2a3385c8033acd3af97e9423a695e81ad1eb5905f5b818110613b19576108e085610b5981870382613c8c565b8254845260209093019260019283019201613b02565b60206040818301928281528451809452019201905f5b818110613b525750505090565b8251845260209384019390920191600101613b45565b907fffffffffffffffffffffffffffffffffffffffffffffffffffffffffffffffe0601f602080948051918291828752018686015e5f8582860101520116010190565b6004359073ffffffffffffffffffffffffffffffffffffffff8216820361049e57565b6024359073ffffffffffffffffffffffffffffffffffffffff8216820361049e57565b6044359073ffffffffffffffffffffffffffffffffffffffff8216820361049e57565b602435907fffffffff000000000000000000000000000000000000000000000000000000008216820361049e57565b6040810190811067ffffffffffffffff821117613c5f57604052565b7f4e487b71000000000000000000000000000000000000000000000000000000005f52604160045260245ffd5b90601f7fffffffffffffffffffffffffffffffffffffffffffffffffffffffffffffffe0910116810190811067ffffffffffffffff821117613c5f57604052565b67ffffffffffffffff8111613c5f57601f017fffffffffffffffffffffffffffffffffffffffffffffffffffffffffffffffe01660200190565b81601f8201121561049e57803590613d1e82613ccd565b92613d2c6040519485613c8c565b8284526020838301011161049e57815f926020809301838601378301015290565b90604051918281549182825260208201905f5260205f20925f905b806001830110613db557613d8e945491818110613da1575b10613d90575b500383613c8c565b565b60801d600f0b81526020015f613d86565b92602060019184600f0b8152019301613d80565b9160029193506040600191865480600f0b825260801d600f0b6020820152019401920185929391613d68565b3d15613e0b573d90613df282613ccd565b91613e006040519384613c8c565b82523d5f602084013e565b606090565b15613e1757565b60646040517f08c379a000000000000000000000000000000000000000000000000000000000815260206004820152601160248201527f45544820726566756e64206661696c65640000000000000000000000000000006044820152fd5b15613e7c57565b60646040517f08c379a000000000000000000000000000000000000000000000000000000000815260206004820152600660248201527f6b696c6c656400000000000000000000000000000000000000000000000000006044820152fd5b15613ee157565b60646040517f08c379a000000000000000000000000000000000000000000000000000000000815260206004820152600660248201527f69203d3d206a00000000000000000000000000000000000000000000000000006044820152fd5b8115613f49570490565b7f4e487b71000000000000000000000000000000000000000000000000000000005f52601260045260245ffd5b15613f7d57565b60646040517f08c379a000000000000000000000000000000000000000000000000000000000815260206004820152601760248201527f62616c616e6365203c2070726f746f636f6c206f7765640000000000000000006044820152fd5b73ffffffffffffffffffffffffffffffffffffffff169081156140d45773ffffffffffffffffffffffffffffffffffffffff169182156140a857815f52600260205260405f205481811061407657817fddf252ad1be2c89b69c2b068fc378daa952ba7f163c4a11628f55a4df523b3ef92602092855f52600284520360405f2055845f526002825260405f20818154019055604051908152a3565b827fe450d38c000000000000000000000000000000000000000000000000000000005f5260045260245260445260645ffd5b7fec442f05000000000000000000000000000000000000000000000000000000005f525f60045260245ffd5b7f96c6fd1e000000000000000000000000000000000000000000000000000000005f525f60045260245ffd5b73ffffffffffffffffffffffffffffffffffffffff5f5416330361412057565b7f118cdaa7000000000000000000000000000000000000000000000000000000005f523360045260245ffd5b60027f9b779b17422d0df92223018b32b4d1fa46e071723d6817e2486d003becc55f00541461419b5760027f9b779b17422d0df92223018b32b4d1fa46e071723d6817e2486d003becc55f0055565b7f3ee5aeb5000000000000000000000000000000000000000000000000000000005f5260045ffd5b156141ca57565b60646040517f08c379a000000000000000000000000000000000000000000000000000000000815260206004820152600960248201527f746f6f20736d616c6c00000000000000000000000000000000000000000000006044820152fd5b91908203918211612d0a57565b9190801561424d57614247908361428f565b80920390565b505f9190565b9067ffffffffffffffff61426782846142aa565b9216801561428a5767ffffffffffffffff80921602166142845790565b60010190565b505090565b81156142a457620f42409102620f423f010490565b50505f90565b81156142a457600f0b5f811261049e576fffffffffffffffffffffffffffffffff8216810260401c9160801c0277ffffffffffffffffffffffffffffffffffffffffffffffff811161049e5760401b8119811161049e570190565b90600f0b90600f0b037fffffffffffffffffffffffffffffffff8000000000000000000000000000000081121580614343575b1561049e57600f0b90565b506f7fffffffffffffffffffffffffffffff811315614338565b600f0b68010000000000000000017fffffffffffffffffffffffffffffffff8000000000000000000000000000000081121580614343571561049e57600f0b90565b90600f0b90600f0b017fffffffffffffffffffffffffffffffff8000000000000000000000000000000081121580614343571561049e57600f0b90565b9190918054831015612d37575f52601060205f208360011c019260041b1690565b909291600b54808310806146b8575b1561465a576002036146435761442a614425600b613d4d565b614bc4565b936144395f86600f0b13614789565b614449600a54600f0b9586614884565b614452816147ee565b9061448f8261448a61446586600b6143dc565b90549060031b1c600f0b61447a89600b6143dc565b90549060031b1c600f0b90614305565b614884565b915f600f84900b1261463557825b67028f5c28f5c28f5c90600f0b13614621576144b99085614884565b80600f0b925f84131561460c57678000000000000000841361460c5761450e90614508614502671999999999999999946144fc6144f68280614884565b9461435d565b90614884565b9161483e565b90614305565b906145198280614884565b9313614589576144fc9061450861452f9461483e565b9283600f0b955f87131561456a5761454883600b6143dc565b90549060031b1c600f0b87121561456a575f8495971261456a57505050509190565b909192935061458594955061457f600b613d4d565b9061490a565b9091565b6145aa816145086145a4680300000000000000009487614884565b9561483e565b9260401b60170b057fffffffffffffffffffffffffffffffff80000000000000000000000000000000811215806145f2575b1561049e5761452f926144fc91600f0b9061439f565b506f7fffffffffffffffffffffffffffffff8113156145dc565b505050509091614585939461457f600b613d4d565b5050509091614585939461457f600b613d4d565b61463e836148c4565b61449d565b90926145859293600a54600f0b61457f600b613d4d565b60646040517f08c379a000000000000000000000000000000000000000000000000000000000815260206004820152600d60248201527f696e76616c696420696e646578000000000000000000000000000000000000006044820152fd5b5080851061440c565b905f809160208151910182855af18080614776575b156146f65750506040513d81523d5f602083013e60203d82010160405290565b1561473d5773ffffffffffffffffffffffffffffffffffffffff907f9996b315000000000000000000000000000000000000000000000000000000005f521660045260245ffd5b3d1561474e576040513d5f823e3d90fd5b7fd6bda275000000000000000000000000000000000000000000000000000000005f5260045ffd5b503d1515806146d65750813b15156146d6565b1561479057565b60646040517f08c379a000000000000000000000000000000000000000000000000000000000815260206004820152600d60248201527f756e696e697469616c697a6564000000000000000000000000000000000000006044820152fd5b600f0b801561049e57700100000000000000000000000000000000057fffffffffffffffffffffffffffffffff8000000000000000000000000000000081121580614343571561049e57600f0b90565b680200000000000000009060401b60170b057fffffffffffffffffffffffffffffffff8000000000000000000000000000000081121580614343571561049e57600f0b90565b90600f0b90600f0b0260401d7fffffffffffffffffffffffffffffffff8000000000000000000000000000000081121580614343571561049e57600f0b90565b7fffffffffffffffffffffffffffffffff8000000000000000000000000000000081600f0b1461049e575f03600f0b90565b8051821015612d375760209160051b010190565b949390919261492c829661491d85614bc4565b9061448a5f83600f0b13614789565b93614936856147ee565b6149408185614884565b916820000000000000000083600f0b13614b665761498c6149876149929361448a6149879461497d6149728a8d6148f6565b51600f0b918c6148f6565b51600f0b90614305565b614bf9565b926148c4565b600f0b68010000000000000000037fffffffffffffffffffffffffffffffff8000000000000000000000000000000081121580614b4c575b1561049e576149e5916149e091600f0b90614884565b61435d565b600f0b925f841315614b36575050505f908068010000000000000000821215614b29575b806401000000006002921215614b1d575b62010000811215614b11575b610100811215614b05575b6010811215614af9575b6004811215614aee575b1215614ae4575b607f8290031b91907fffffffffffffffffffffffffffffffffffffffffffffffffffffffffffffffc00160401b6780000000000000005b5f8113614ac45750614aae9250600f0b6fb17217f7d1cf79abc9e3b39803f2f6af0260801d90614884565b905f82600f0b1315614abc57565b5f9250829150565b91928002908160ff1c9182607f011c918302019160011d92919092614a83565b9060010190614a4c565b92810192811d614a45565b6004938401931d614a3b565b6008938401931d614a31565b6010938401931d614a26565b6020938401931d614a1a565b506040915080821d614a09565b9195509150614b4592506148f6565b51600f0b90565b506f7fffffffffffffffffffffffffffffff8113156149ca565b60646040517f08c379a000000000000000000000000000000000000000000000000000000000815260206004820152600960248201527f746f6f206c6172676500000000000000000000000000000000000000000000006044820152fd5b5f90815b8151831015614bf357614beb600191614be185856148f6565b51600f0b9061439f565b920191614bc8565b91505090565b600f0b6840000000000000000081121561049e577fffffffffffffffffffffffffffffffffffffffffffffffc000000000000000008112614c5957700171547652b82fe1777d0ffda0d23a7d12614c56910260801d600f0b614c5e565b90565b505f90565b80600f0b6840000000000000000081121561049e577fffffffffffffffffffffffffffffffffffffffffffffffc0000000000000000081126142a4576f80000000000000000000000000000000915f6780000000000000008216600f0b1361585a575b5f6740000000000000008216600f0b1361583d575b5f6720000000000000008216600f0b13615820575b5f6710000000000000008216600f0b13615803575b5f6708000000000000008216600f0b136157e6575b5f6704000000000000008216600f0b136157c9575b5f6702000000000000008216600f0b136157ac575b5f6701000000000000008216600f0b1361578f575b5f66800000000000008216600f0b13615772575b5f66400000000000008216600f0b13615755575b5f66200000000000008216600f0b13615738575b5f66100000000000008216600f0b1361571b575b5f66080000000000008216600f0b136156fe575b5f66040000000000008216600f0b136156e1575b5f66020000000000008216600f0b136156c4575b5f66010000000000008216600f0b136156a7575b5f658000000000008216600f0b1361568a575b5f654000000000008216600f0b1361566d575b5f652000000000008216600f0b13615650575b5f651000000000008216600f0b13615633575b5f650800000000008216600f0b13615616575b5f650400000000008216600f0b136155f9575b5f650200000000008216600f0b136155dc575b5f650100000000008216600f0b136155bf575b5f6480000000008216600f0b136155a2575b5f6440000000008216600f0b13615585575b5f6420000000008216600f0b13615568575b5f6410000000008216600f0b1361554b575b5f6408000000008216600f0b1361552e575b5f6404000000008216600f0b13615511575b5f6402000000008216600f0b136154f4575b5f6401000000008216600f0b136154d7575b5f63800000008216600f0b136154ba575b5f63400000008216600f0b1361549d575b5f63200000008216600f0b13615480575b5f63100000008216600f0b13615463575b5f63080000008216600f0b13615446575b5f63040000008216600f0b13615429575b5f63020000008216600f0b1361540c575b5f63010000008216600f0b136153ef575b5f628000008216600f0b136153d2575b5f624000008216600f0b136153b5575b5f622000008216600f0b13615398575b5f621000008216600f0b1361537b575b5f620800008216600f0b1361535e575b5f620400008216600f0b13615341575b5f620200008216600f0b13615324575b5f620100008216600f0b13615307575b5f6180008216600f0b136152ea575b5f6140008216600f0b136152cd575b5f6120008216600f0b136152b0575b5f6110008216600f0b13615293575b5f6108008216600f0b13615276575b5f6104008216600f0b13615259575b5f6102008216600f0b1361523c575b5f6101008216600f0b1361521f575b5f60808216600f0b13615202575b5f60408216600f0b136151e5575b5f60208216600f0b136151c8575b5f60108216600f0b136151ab575b5f60088216600f0b1361518e575b5f60048216600f0b13615171575b5f60028216600f0b13615153575b60015f9116600f0b13615136575b60401d600f0b603f03600f0b1c6f7fffffffffffffffffffffffffffffff811161049e57600f0b90565b9070010000000000000000b17217f7d1cf79ab0260801c9061510c565b7001000000000000000162e42fefa39ef35890920260801c916150fe565b9170010000000000000002c5c85fdf473de6b20260801c916150f0565b91700100000000000000058b90bfbe8e7bcd6d0260801c916150e2565b917001000000000000000b17217f7d1cf79afa0260801c916150d4565b91700100000000000000162e42fefa39ef366f0260801c916150c6565b917001000000000000002c5c85fdf473de6eca0260801c916150b8565b9170010000000000000058b90bfbe8e7bce5440260801c916150aa565b91700100000000000000b17217f7d1cf79e9490260801c9161509c565b9170010000000000000162e42fefa39ef44d910260801c9161508d565b91700100000000000002c5c85fdf473dea871f0260801c9161507e565b917001000000000000058b90bfbe8e7bdcbe2e0260801c9161506f565b9170010000000000000b17217f7d1cf7d83c1a0260801c91615060565b917001000000000000162e42fefa39f02b772c0260801c91615051565b9170010000000000002c5c85fdf473e242ea380260801c91615042565b91700100000000000058b90bfbe8e7cc35c3f00260801c91615033565b917001000000000000b17217f7d1cfb72b45e10260801c91615024565b91700100000000000162e42fefa39fe95583c20260801c91615014565b917001000000000002c5c85fdf4741bea6e77e0260801c91615004565b9170010000000000058b90bfbe8e8b2d3d4ede0260801c91614ff4565b91700100000000000b17217f7d1d351a389d400260801c91614fe4565b9170010000000000162e42fefa3ae53369388c0260801c91614fd4565b91700100000000002c5c85fdf477b662b269450260801c91614fc4565b917001000000000058b90bfbe8f71cb4e4b33d0260801c91614fb4565b9170010000000000b17217f7d20cf927c8e94c0260801c91614fa4565b917001000000000162e42fefa494f1478fde050260801c91614f93565b9170010000000002c5c85fdf4b15de6f17eb0d0260801c91614f82565b91700100000000058b90bfbe9ddbac5e109cce0260801c91614f71565b917001000000000b17217f7d5a7716bba4a9ae0260801c91614f60565b91700100000000162e42fefb2fed257559bdaa0260801c91614f4f565b917001000000002c5c85fdf84bd62ae30a74cc0260801c91614f3e565b9170010000000058b90bfbf8479bd5a81b51ad0260801c91614f2d565b91700100000000b17217f80f4ef5aadda455540260801c91614f1c565b9170010000000162e42ff0999ce3541b9fffcf0260801c91614f0a565b91700100000002c5c85fe31f35a6a30da1be500260801c91614ef8565b917001000000058b90bfcdee5acd3c1cedc8230260801c91614ee6565b9170010000000b17217fba9c739aa5819f44f90260801c91614ed4565b917001000000162e42fff037df38aa2b219f060260801c91614ec2565b9170010000002c5c8601cc6b9e94213c72737a0260801c91614eb0565b91700100000058b90c0b48c6be5df846c5b2ef0260801c91614e9e565b917001000000b1721835514b86e6d96efd1bfe0260801c91614e8c565b91700100000162e430e5a18f6119e3c02282a50260801c91614e79565b917001000002c5c863b73f016468f6bac5ca2b0260801c91614e66565b9170010000058b90cf1e6d97f9ca14dbcc16280260801c91614e53565b91700100000b1721bcfc99d9f890ea069117630260801c91614e40565b9170010000162e43f4f831060e02d839a9d16d0260801c91614e2d565b91700100002c5c89d5ec6ca4d7c8acc017b7c90260801c91614e1a565b917001000058b91b5bc9ae2eed81e9b7d4cfab0260801c91614e07565b9170010000b17255775c040618bf4a4ade83fc0260801c91614df4565b917001000162e525ee054754457d59952920260260801c91614de0565b9170010002c5cc37da9491d0985c348c68e7b30260801c91614dcc565b91700100058ba01fb9f96d6cacd4b180917c3d0260801c91614db8565b917001000b175effdc76ba38e31671ca9397250260801c91614da4565b91700100162f3904051fa128bca9c55c31e5df0260801c91614d90565b917001002c605e2e8cec506d21bfc89a23a00f0260801c91614d7c565b9170010058c86da1c09ea1ff19d294cf2f679b0260801c91614d68565b91700100b1afa5abcbed6129ab13ec11dc95430260801c91614d54565b9170010163da9fb33356d84a66ae336dcdfa3f0260801c91614d3f565b91700102c9a3e778060ee6f7caca4f7a29bde80260801c91614d2a565b917001059b0d31585743ae7c548eb68ca417fd0260801c91614d15565b9170010b5586cf9890f6298b92b71842a983630260801c91614d00565b917001172b83c7d517adcdf7c8c50eb14a791f0260801c91614ceb565b917001306fe0a31b7152de8d5a46305c85edec0260801c91614cd6565b6fb504f333f9de6484597d89b3754abe9f9250614cc156fea26469706673582212209cc4cdab78b981ccc2ad353eee006fdc47c16aedef0fa017abf0a676f75a385664736f6c63430008230033","linkReferences":{"src/PartyPoolExtraImpl.sol":{"PartyPoolExtraImpl":[{"start":165,"length":20},{"start":4151,"length":20},{"start":8046,"length":20}]},"src/PartyPoolMintImpl.sol":{"PartyPoolMintImpl":[{"start":2545,"length":20},{"start":3687,"length":20},{"start":4841,"length":20},{"start":6519,"length":20},{"start":7336,"length":20}]}}},"methodIdentifiers":{"LMSR()":"476e44b6","acceptOwnership()":"79ba5097","allProtocolFeesOwed()":"017504b6","allTokens()":"6ff97f1d","allowance(address,address)":"dd62ed3e","approve(address,uint256)":"095ea7b3","balanceOf(address)":"70a08231","balancedPairKernel()":"3b840e09","balances()":"7bb98a68","burn(address,address,uint256,uint256,bool)":"6863f5bc","burnSwap(address,address,uint256,uint256,uint256,uint256,bool)":"96d75bf6","collectProtocolFees()":"a1af5b9a","decimals()":"313ce567","denominators()":"017cf661","fees()":"9af1d35a","flashFeePpm()":"31596a6a","flashLoan(address,address,uint256,bytes)":"5cffe9de","initialMint(address,uint256)":"6d8d0ff3","kill()":"41c0e1b5","killed()":"1f3a0e41","mint(address,bytes4,address,uint256,uint256,bytes)":"fbf40a7c","name()":"06fdde03","numTokens()":"8e499bcf","owner()":"8da5cb5b","pendingOwner()":"e30c3978","protocolFeeAddress()":"cce516b7","protocolFeePpm()":"6b4082d1","setProtocolFeeAddress(address)":"6b7b9112","swap(address,bytes4,address,uint256,uint256,uint256,uint256,uint256,bool,bytes)":"4ae93e1d","swapMint(address,bytes4,address,uint256,uint256,uint256,uint256,bytes)":"cd0a4198","symbol()":"95d89b41","token(uint256)":"044215c6","totalSupply()":"18160ddd","transfer(address,uint256)":"a9059cbb","transferFrom(address,address,uint256)":"23b872dd","transferOwnership(address)":"f2fde38b","wrapperToken()":"0d246214"},"id":54}