{"abi":[{"type":"constructor","inputs":[{"name":"wrapper_","type":"address","internalType":"contract NativeWrapper"}],"stateMutability":"nonpayable"},{"type":"function","name":"burn","inputs":[{"name":"payer","type":"address","internalType":"address"},{"name":"receiver","type":"address","internalType":"address"},{"name":"lpAmount","type":"uint256","internalType":"uint256"},{"name":"deadline","type":"uint256","internalType":"uint256"},{"name":"unwrap","type":"bool","internalType":"bool"}],"outputs":[{"name":"withdrawAmounts","type":"uint256[]","internalType":"uint256[]"}],"stateMutability":"nonpayable"},{"type":"function","name":"burnAmounts","inputs":[{"name":"lpTokenAmount","type":"uint256","internalType":"uint256"},{"name":"totalSupply","type":"uint256","internalType":"uint256"},{"name":"cachedUintBalances","type":"uint256[]","internalType":"uint256[]"}],"outputs":[{"name":"withdrawAmounts","type":"uint256[]","internalType":"uint256[]"}],"stateMutability":"pure"},{"type":"function","name":"burnSwap","inputs":[{"name":"payer","type":"address","internalType":"address"},{"name":"receiver","type":"address","internalType":"address"},{"name":"lpAmount","type":"uint256","internalType":"uint256"},{"name":"outputTokenIndex","type":"uint256","internalType":"uint256"},{"name":"deadline","type":"uint256","internalType":"uint256"},{"name":"unwrap","type":"bool","internalType":"bool"},{"name":"swapFeePpm","type":"uint256","internalType":"uint256"},{"name":"protocolFeePpm","type":"uint256","internalType":"uint256"}],"outputs":[{"name":"amountOut","type":"uint256","internalType":"uint256"},{"name":"outFee","type":"uint256","internalType":"uint256"}],"stateMutability":"nonpayable"},{"type":"function","name":"burnSwapAmounts","inputs":[{"name":"lpAmount","type":"uint256","internalType":"uint256"},{"name":"outputTokenIndex","type":"uint256","internalType":"uint256"},{"name":"swapFeePpm","type":"uint256","internalType":"uint256"},{"name":"lmsrState","type":"tuple","internalType":"struct LMSRStabilized.State","components":[{"name":"kappa","type":"int128","internalType":"int128"},{"name":"qInternal","type":"int128[]","internalType":"int128[]"}]},{"name":"bases_","type":"uint256[]","internalType":"uint256[]"},{"name":"totalSupply_","type":"uint256","internalType":"uint256"}],"outputs":[{"name":"amountOut","type":"uint256","internalType":"uint256"},{"name":"outFee","type":"uint256","internalType":"uint256"}],"stateMutability":"pure"},{"type":"function","name":"initialMint","inputs":[{"name":"receiver","type":"address","internalType":"address"},{"name":"lpTokens","type":"uint256","internalType":"uint256"},{"name":"KAPPA","type":"int128","internalType":"int128"}],"outputs":[{"name":"lpMinted","type":"uint256","internalType":"uint256"}],"stateMutability":"payable"},{"type":"function","name":"mint","inputs":[{"name":"payer","type":"address","internalType":"address"},{"name":"receiver","type":"address","internalType":"address"},{"name":"lpTokenAmount","type":"uint256","internalType":"uint256"},{"name":"deadline","type":"uint256","internalType":"uint256"}],"outputs":[{"name":"lpMinted","type":"uint256","internalType":"uint256"}],"stateMutability":"payable"},{"type":"function","name":"mintAmounts","inputs":[{"name":"lpTokenAmount","type":"uint256","internalType":"uint256"},{"name":"totalSupply","type":"uint256","internalType":"uint256"},{"name":"cachedUintBalances","type":"uint256[]","internalType":"uint256[]"}],"outputs":[{"name":"depositAmounts","type":"uint256[]","internalType":"uint256[]"}],"stateMutability":"pure"},{"type":"function","name":"swapMint","inputs":[{"name":"payer","type":"address","internalType":"address"},{"name":"receiver","type":"address","internalType":"address"},{"name":"inputTokenIndex","type":"uint256","internalType":"uint256"},{"name":"maxAmountIn","type":"uint256","internalType":"uint256"},{"name":"deadline","type":"uint256","internalType":"uint256"},{"name":"swapFeePpm","type":"uint256","internalType":"uint256"},{"name":"protocolFeePpm","type":"uint256","internalType":"uint256"}],"outputs":[{"name":"amountIn","type":"uint256","internalType":"uint256"},{"name":"lpMinted","type":"uint256","internalType":"uint256"},{"name":"inFee","type":"uint256","internalType":"uint256"}],"stateMutability":"payable"},{"type":"function","name":"swapMintAmounts","inputs":[{"name":"inputTokenIndex","type":"uint256","internalType":"uint256"},{"name":"maxAmountIn","type":"uint256","internalType":"uint256"},{"name":"swapFeePpm","type":"uint256","internalType":"uint256"},{"name":"lmsrState","type":"tuple","internalType":"struct LMSRStabilized.State","components":[{"name":"kappa","type":"int128","internalType":"int128"},{"name":"qInternal","type":"int128[]","internalType":"int128[]"}]},{"name":"bases_","type":"uint256[]","internalType":"uint256[]"},{"name":"totalSupply_","type":"uint256","internalType":"uint256"}],"outputs":[{"name":"amountIn","type":"uint256","internalType":"uint256"},{"name":"lpMinted","type":"uint256","internalType":"uint256"},{"name":"inFee","type":"uint256","internalType":"uint256"}],"stateMutability":"pure"},{"type":"event","name":"Approval","inputs":[{"name":"owner","type":"address","indexed":true,"internalType":"address"},{"name":"spender","type":"address","indexed":true,"internalType":"address"},{"name":"value","type":"uint256","indexed":false,"internalType":"uint256"}],"anonymous":false},{"type":"event","name":"Burn","inputs":[{"name":"payer","type":"address","indexed":false,"internalType":"address"},{"name":"receiver","type":"address","indexed":true,"internalType":"address"},{"name":"amounts","type":"uint256[]","indexed":false,"internalType":"uint256[]"},{"name":"lpBurned","type":"uint256","indexed":false,"internalType":"uint256"}],"anonymous":false},{"type":"event","name":"BurnSwap","inputs":[{"name":"payer","type":"address","indexed":true,"internalType":"address"},{"name":"receiver","type":"address","indexed":true,"internalType":"address"},{"name":"tokenOut","type":"address","indexed":true,"internalType":"contract IERC20"},{"name":"amountIn","type":"uint256","indexed":false,"internalType":"uint256"},{"name":"amountOut","type":"uint256","indexed":false,"internalType":"uint256"},{"name":"lpFee","type":"uint256","indexed":false,"internalType":"uint256"},{"name":"protocolFee","type":"uint256","indexed":false,"internalType":"uint256"}],"anonymous":false},{"type":"event","name":"Mint","inputs":[{"name":"payer","type":"address","indexed":false,"internalType":"address"},{"name":"receiver","type":"address","indexed":true,"internalType":"address"},{"name":"amounts","type":"uint256[]","indexed":false,"internalType":"uint256[]"},{"name":"lpMinted","type":"uint256","indexed":false,"internalType":"uint256"}],"anonymous":false},{"type":"event","name":"SwapMint","inputs":[{"name":"payer","type":"address","indexed":true,"internalType":"address"},{"name":"receiver","type":"address","indexed":true,"internalType":"address"},{"name":"tokenIn","type":"address","indexed":true,"internalType":"contract IERC20"},{"name":"amountIn","type":"uint256","indexed":false,"internalType":"uint256"},{"name":"amountOut","type":"uint256","indexed":false,"internalType":"uint256"},{"name":"lpFee","type":"uint256","indexed":false,"internalType":"uint256"},{"name":"protocolFee","type":"uint256","indexed":false,"internalType":"uint256"}],"anonymous":false},{"type":"event","name":"Transfer","inputs":[{"name":"from","type":"address","indexed":true,"internalType":"address"},{"name":"to","type":"address","indexed":true,"internalType":"address"},{"name":"value","type":"uint256","indexed":false,"internalType":"uint256"}],"anonymous":false},{"type":"error","name":"ERC20InsufficientAllowance","inputs":[{"name":"spender","type":"address","internalType":"address"},{"name":"allowance","type":"uint256","internalType":"uint256"},{"name":"needed","type":"uint256","internalType":"uint256"}]},{"type":"error","name":"ERC20InsufficientBalance","inputs":[{"name":"sender","type":"address","internalType":"address"},{"name":"balance","type":"uint256","internalType":"uint256"},{"name":"needed","type":"uint256","internalType":"uint256"}]},{"type":"error","name":"ERC20InvalidApprover","inputs":[{"name":"approver","type":"address","internalType":"address"}]},{"type":"error","name":"ERC20InvalidReceiver","inputs":[{"name":"receiver","type":"address","internalType":"address"}]},{"type":"error","name":"ERC20InvalidSender","inputs":[{"name":"sender","type":"address","internalType":"address"}]},{"type":"error","name":"ERC20InvalidSpender","inputs":[{"name":"spender","type":"address","internalType":"address"}]},{"type":"error","name":"ReentrancyGuardReentrantCall","inputs":[]},{"type":"error","name":"SafeERC20FailedOperation","inputs":[{"name":"token","type":"address","internalType":"address"}]}],"bytecode":{"object":"0x60a03461009c57601f61474c38819003918201601f19168301916001600160401b038311848410176100a05780849260209460405283398101031261009c57516001600160a01b038116810361009c5760017f9b779b17422d0df92223018b32b4d1fa46e071723d6817e2486d003becc55f005560805260405161469790816100b58239608051818181612454015281816128f30152612b4b0152f35b5f80fd5b634e487b7160e01b5f52604160045260245ffdfe60806040526004361015610011575f80fd5b5f3560e01c8063228fa8501461177a5780633dd3c805146113b15780636863f5bc146111245780638d01fa4414610d02578063b3f1c93d14610a93578063c5eabfb91461040b578063cdc2468b146103dd578063e9f317f0146101195763f16b7c261461007c575f80fd5b346101155760406100df6101086100f56100ee6100ce6100e761009e36611925565b84956100b38399939d9694959d518510611c5c565b6100be811515611cc1565b6100c9821515611d8b565b612099565b9160208151600f0b91015190613492565b939050611b25565b51906122dd565b92836123b5565b508261010382809511611abf565b611ea7565b9082519182526020820152f35b5f80fd5b346101155761012736611925565b929493909161013883518610611c5c565b610143821515611cc1565b8315956101508715611d8b565b80151593838561039e575b906101a361019b61017a6101aa946101738c86611b25565b5190612099565b6101885f82600f0b13611abf565b8a60208851600f0b980197885190612dd1565b999092611b25565b5190612d95565b906101b6821515611abf565b5f94610349575b50836101c891611e50565b91821515908161033e575b50156102ba5751925f955f965b855188101561020b576102036001916101f98a89611b25565b51600f0b90612640565b9701966101e0565b61023461022f886102205f85600f0b13611d8b565b610229846122c3565b93612640565b6122c3565b911561026e575061026a9150925b61024d841515611abf565b604051938493846040919493926060820195825260208201520152565b0390f35b9081808211156102b15761028191611ea7565b905b81156102a45761029961029e9261026a94611e5d565b611e70565b92610242565b50505061026a5f92610242565b50505f90610283565b60846040517f08c379a000000000000000000000000000000000000000000000000000000000815260206004820152602560248201527f737761704d696e74416d6f756e74733a207472616e736665722065786365656460448201527f73206d61780000000000000000000000000000000000000000000000000000006064820152fd5b9050821115876101d3565b81610355929550611e5d565b620f423f810180911161037157620f42409004926101c86101bd565b7f4e487b71000000000000000000000000000000000000000000000000000000005f52601160045260245ffd5b506103a98285611e5d565b90620f423f8201809211610371576101a361019b61017a6103d2620f42406101aa960489611ea7565b93945050505061015b565b346101155761026a6103f76103f13661184a565b91612025565b60405191829160208352602083019061189e565b60607ffffffffffffffffffffffffffffffffffffffffffffffffffffffffffffffffc3601126101155761043d6118d1565b602435906044359081600f0b82036101155761045e60ff6009541615611bf7565b61046661233e565b600c5490600354158015610a89575b15610a2b5761048382611a70565b9361048d83611a70565b925f5b8181106108d9575050600b5485518091036106dd575b505f5b85518110156104fe57806104bf60019288611b25565b51600f0b6104f66104cf83611f48565b81939154906fffffffffffffffffffffffffffffffff809160031b9316831b921b19161790565b9055016104a9565b508361051d5f61051461050f611eb4565b6125b8565b600f0b13611d8b565b7fffffffffffffffffffffffffffffffff00000000000000000000000000000000600a5416906fffffffffffffffffffffffffffffffff1617600a555f600a54600f0b131561067f578061065457507f6bc0553967b8bb727947c938555c0e061c3f96b629935c8f82a43b558dfb1c576105d0670de0b6b3a7640000935b84610645575b73ffffffffffffffffffffffffffffffffffffffff6040519283925f845260606020850152606084019061189e565b9486604084015216930390a260017f9b779b17422d0df92223018b32b4d1fa46e071723d6817e2486d003becc55f00554780158015610615575b602083604051908152f35b5f8080938193829061063c575b3390f11561063157818061060a565b6040513d5f823e3d90fd5b506108fc610622565b61064f8585612836565b6105a1565b6105d07f6bc0553967b8bb727947c938555c0e061c3f96b629935c8f82a43b558dfb1c57919361059b565b60646040517f08c379a000000000000000000000000000000000000000000000000000000000815260206004820152600d60248201527f696e76616c6964206b61707061000000000000000000000000000000000000006044820152fd5b6106e690611a70565b80519067ffffffffffffffff82116108ac576801000000000000000082116108ac57600b5482600b5580831061080f575b5060200190600b5f5260205f208160011c915f5b8381106107c157507ffffffffffffffffffffffffffffffffffffffffffffffffffffffffffffffffe8116900380610766575b5050506104a6565b925f935f5b8181106107805750505001558580808061075e565b90919460206107b76001928851600f0b908560041b6fffffffffffffffffffffffffffffffff809160031b9316831b921b19161790565b960192910161076b565b5f5f5b600281106107d957508382015560010161072b565b86519096916001916020916fffffffffffffffffffffffffffffffff60078b901b81811b199092169216901b17920196016107c4565b6001830160011c600b5f5260018160205f20019260108660041b1680610854575b500160011c03905f5b828110610847575050610717565b5f82820155600101610839565b7fffffffffffffffffffffffffffffffffffffffffffffffffffffffffffffffff8501907fffffffffffffffffffffffffffffffffffffffffffffffffffffffffffffffff82549160200360031b1c1690558b610830565b7f4e487b71000000000000000000000000000000000000000000000000000000005f52604160045260245ffd5b80602073ffffffffffffffffffffffffffffffffffffffff6108fc602494611e08565b90549060031b1c16604051938480927f70a082310000000000000000000000000000000000000000000000000000000082523060048301525afa918215610631575f926109f6575b506109c8826109566001941515611fc0565b80610961848a611b25565b526109a58161096f85611e38565b9091907fffffffffffffffffffffffffffffffffffffffffffffffffffffffffffffffff83549160031b92831b921b1916179055565b6109b28161096f85611df0565b6109bb83611df0565b90549060031b1c90612099565b6109d2828a611b25565b90600f0b90526109f05f6109e6838b611b25565b51600f0b13611fc0565b01610490565b91506020823d8211610a23575b81610a1060209383611794565b81010312610115579051906109c8610944565b3d9150610a03565b60646040517f08c379a000000000000000000000000000000000000000000000000000000000815260206004820152600b60248201527f696e697469616c697a65640000000000000000000000000000000000000000006044820152fd5b50600b5415610475565b60807ffffffffffffffffffffffffffffffffffffffffffffffffffffffffffffffffc36011261011557610ac56118d1565b610acd6118f4565b90610afb606435610ae360ff6009541615611bf7565b610aeb61233e565b8015908115610cf7575b50611d26565b600c5491600354610b0d811515611d8b565b610b1b61022f61050f611eb4565b9060405190601054808352602083019060105f5260205f20905f5b818110610ce15750505090610b5183610b5994930383611794565b604435612025565b93610b6381611a70565b905f5b818110610c585750509173ffffffffffffffffffffffffffffffffffffffff91610bb761022f8561050f7f6bc0553967b8bb727947c938555c0e061c3f96b629935c8f82a43b558dfb1c5797612753565b8180821115610c5057610bc991611ea7565b8015610c4357610c0891610299610be292600354611e5d565b80965b610bf0821515611abf565b610bfa8285612836565b604051948594169684611f88565b0390a260017f9b779b17422d0df92223018b32b4d1fa46e071723d6817e2486d003becc55f0055478015801561061557602083604051908152f35b5050610c085f8096610be5565b50505f610bc9565b80610c6560019289611b25565b5180610c73575b5001610b66565b610cbe610ca9610ccb9273ffffffffffffffffffffffffffffffffffffffff610c9b86611e08565b90549060031b1c168b61243c565b610cb284611e38565b90549060031b1c611e50565b6109b28161096f85611e38565b610cd58286611b25565b90600f0b905288610c6c565b8254845260209093019260019283019201610b36565b905042111584610af5565b34610115576101007ffffffffffffffffffffffffffffffffffffffffffffffffffffffffffffffffc36011261011557610d3a6118d1565b610d426118f4565b9060443591606435916084359360a4359182151583036101155760e43593610d6861233e565b610d7760ff6009541615611bf7565b610da3600c5497610d89898910611c5c565b610d94851515611cc1565b80159081156111195750611d26565b610ded610dd5610dc0600354610dba811515611d8b565b86612099565b88600a54600f0b610dcf611eb4565b90613492565b9050610de088611df0565b90549060031b1c906122dd565b94610dfa60c435876123b5565b5095868111156110bb5786610e0e91611ea7565b965f91801515806110b2575b61103e575b50610e488573ffffffffffffffffffffffffffffffffffffffff861695863303610ff957612cbd565b610e7a73ffffffffffffffffffffffffffffffffffffffff610e6983611e08565b90549060031b1c16968985896128cd565b610e8389611a70565b905f5b8a8110610f975750506001985f5b818110610f5a575b505091610f1973ffffffffffffffffffffffffffffffffffffffff927f8c012c6148e8ecc34b864721470dcc1e938d162c498b7d28961a8a78238cfe139460409b5f14610f4c5750610eec612b88565b610ef6818a611ea7565b8b51978852602088018b9052604088015260608701529116939081906080820190565b0390a460017f9b779b17422d0df92223018b32b4d1fa46e071723d6817e2486d003becc55f005582519182526020820152f35b610f5590612753565b610eec565b610f648184611b25565b51600f0b610f7457600101610e94565b505f9950610f19905073ffffffffffffffffffffffffffffffffffffffff610e9c565b80610fc2610fa6600193611e38565b90549060031b1c868d868514610fd8575b50506109bb83611df0565b610fcc8286611b25565b90600f0b905201610e86565b61010390610fe593611ea7565b610ff28161096f85611e38565b868d610fb7565b865f52600260205260405f2073ffffffffffffffffffffffffffffffffffffffff33165f526020526110396110328360405f2054611ea7565b3383612be8565b612cbd565b620f424091925061104f9088611e5d565b04908161105d575b89610e1f565b6110ad61106982611e20565b6110798583548360031b1c611e50565b907fffffffffffffffffffffffffffffffffffffffffffffffffffffffffffffffff83549160031b92831b921b1916179055565b611057565b50871515610e1a565b60646040517f08c379a000000000000000000000000000000000000000000000000000000000815260206004820152601c60248201527f6275726e53776170416d6f756e74733a206f7574707574207a65726f000000006044820152fd5b905042111589610af5565b346101155760a07ffffffffffffffffffffffffffffffffffffffffffffffffffffffffffffffffc3601126101155761115b6118d1565b6111636118f4565b90608435906044356064358315158403610115576111929061118361233e565b80159081156113a65750611d26565b600c54926111a1821515611cc1565b6003546111af811515611d8b565b60405190601054808352602083019060105f5260205f20905f5b81811061139057505050906111e4836111ea94930383611794565b84611b66565b936001906111f781611a70565b925f5b8281106112f257505050946112787f3f84ed8aa11ed632de380466083280b4c5da668f12695b08636d7848eaf896b49373ffffffffffffffffffffffffffffffffffffffff9361026a985f146112e45750611253612b88565b8386168033036112b3575b506112698187612cbd565b86604051948594169684611f88565b0390a260017f9b779b17422d0df92223018b32b4d1fa46e071723d6817e2486d003becc55f005560405191829160208352602083019061189e565b5f52600260205260405f208433165f526020526112de6112d78260405f2054611ea7565b3388612be8565b8861125e565b6112ed90612753565b611253565b6112fc8189611b25565b51828a82611310575b5050506001016111fa565b91611348610cbe928261135d9573ffffffffffffffffffffffffffffffffffffffff61133b89611e08565b90549060031b1c166128cd565b61135184611e38565b90549060031b1c611ea7565b6113678287611b25565b90600f0b90526113778186611b25565b51600f0b611388575b89828a611305565b5f9350611380565b82548452602090930192600192830192016111c9565b905042111586610af5565b60e07ffffffffffffffffffffffffffffffffffffffffffffffffffffffffffffffffc360112610115576113e36118d1565b6113eb6118f4565b604435606435916084359360a43593849360c4359160095460ff161561141090611bf7565b61141861233e565b600c5497611427898410611c5c565b611432821515611cc1565b801590811561147b6114706114b69b6114fb9661145e6114cf976114c89761149e9761176f5750611d26565b61146b6003541515611d8b565b6123b5565b90506109bb87611df0565b6114895f82600f0b13611abf565b85600a54600f0b611498611eb4565b90612dd1565b99906114a986611df0565b90549060031b1c906123d7565b976114c2891515611abf565b88612409565b8097611e50565b73ffffffffffffffffffffffffffffffffffffffff6114ed84611e08565b90549060031b1c168561243c565b95611507871515611abf565b5f9280151580611766575b611726575b506115406115258489611ea7565b61107961153185611e38565b91909283548360031b1c611e50565b61154b61050f611eb4565b9761155f6115588a6122c3565b928a612640565b91611569836122c3565b6003549091816116e4575050985b6115828a1515611abf565b61158b82611a70565b925f5b8381106116a6575050505073ffffffffffffffffffffffffffffffffffffffff6115ec7fcbf41a060d7827197acec8e5ef3abf36d633e77060f7aec03943608d1cd84ebe936115dd8394612753565b6115e78b89612836565b611e08565b90549060031b1c169461162d6116028589611ea7565b9483604051948594169716958b8b859094939260609260808301968352602083015260408201520152565b0390a460017f9b779b17422d0df92223018b32b4d1fa46e071723d6817e2486d003becc55f00554780158015611681575b505061026a90604051938493846040919493926060820195825260208201520152565b5f8080938193829061169d575b3390f11561063157838061165e565b506108fc61168e565b806116ce846116c9856116ba600196611f48565b90549060031b1c600f0b61267d565b61270d565b6116d88288611b25565b90600f0b90520161158e565b9091818082111561171d576116f891611ea7565b915b82156117135761170d9261029991611e5d565b98611577565b5050505f98611577565b50505f916116fa565b620f42409193506117379087611e5d565b049182611745575b88611517565b61176161175183611e20565b6110798683548360031b1c611e50565b61173f565b50861515611512565b90504211155f610af5565b346101155761026a6103f761178e3661184a565b91611b66565b90601f7fffffffffffffffffffffffffffffffffffffffffffffffffffffffffffffffe0910116810190811067ffffffffffffffff8211176108ac57604052565b67ffffffffffffffff81116108ac5760051b60200190565b9080601f83011215610115578135611804816117d5565b926118126040519485611794565b81845260208085019260051b82010192831161011557602001905b82821061183a5750505090565b813581526020918201910161182d565b60607ffffffffffffffffffffffffffffffffffffffffffffffffffffffffffffffffc8201126101155760043591602435916044359067ffffffffffffffff82116101155761189b916004016117ed565b90565b90602080835192838152019201905f5b8181106118bb5750505090565b82518452602093840193909201916001016118ae565b6004359073ffffffffffffffffffffffffffffffffffffffff8216820361011557565b6024359073ffffffffffffffffffffffffffffffffffffffff8216820361011557565b359081600f0b820361011557565b60c07ffffffffffffffffffffffffffffffffffffffffffffffffffffffffffffffffc8201126101155760043591602435916044359160643567ffffffffffffffff81116101155760407ffffffffffffffffffffffffffffffffffffffffffffffffffffffffffffffffc828503011261011557604051906040820182811067ffffffffffffffff8211176108ac576040526119c381600401611917565b825260248101359067ffffffffffffffff8211610115570183602382011215610115576004810135906119f5826117d5565b91611a036040519384611794565b808352602060048185019260051b840101019186831161011557602401905b828210611a58575050506020820152916084359067ffffffffffffffff821161011557611a51916004016117ed565b9060a43590565b60208091611a6584611917565b815201910190611a22565b90611a7a826117d5565b611a876040519182611794565b8281527fffffffffffffffffffffffffffffffffffffffffffffffffffffffffffffffe0611ab582946117d5565b0190602036910137565b15611ac657565b6040517f08c379a000000000000000000000000000000000000000000000000000000000815260206004820152600960248201527f746f6f20736d616c6c00000000000000000000000000000000000000000000006044820152606490fd5b8051821015611b395760209160051b010190565b7f4e487b71000000000000000000000000000000000000000000000000000000005f52603260045260245ffd5b919091815190611b7582611a70565b9380158015611bef575b611be857611b8c91612099565b611b9a5f82600f0b13611abf565b5f925f5b838110611bb2575050505061189b90611abf565b611bc6611bbf8284611b25565b51846122dd565b80611bd18389611b25565b52611bdf575b600101611b9e565b60019450611bd7565b5050505090565b508215611b7f565b15611bfe57565b60646040517f08c379a000000000000000000000000000000000000000000000000000000000815260206004820152600660248201527f6b696c6c656400000000000000000000000000000000000000000000000000006044820152fd5b15611c6357565b60646040517f08c379a000000000000000000000000000000000000000000000000000000000815260206004820152600d60248201527f696e76616c696420696e646578000000000000000000000000000000000000006044820152fd5b15611cc857565b60646040517f08c379a000000000000000000000000000000000000000000000000000000000815260206004820152600e60248201527f696e76616c696420616d6f756e740000000000000000000000000000000000006044820152fd5b15611d2d57565b60646040517f08c379a000000000000000000000000000000000000000000000000000000000815260206004820152600860248201527f646561646c696e650000000000000000000000000000000000000000000000006044820152fd5b15611d9257565b60646040517f08c379a000000000000000000000000000000000000000000000000000000000815260206004820152600d60248201527f756e696e697469616c697a6564000000000000000000000000000000000000006044820152fd5b600e54811015611b3957600e5f5260205f2001905f90565b600c54811015611b3957600c5f5260205f2001905f90565b600d54811015611b3957600d5f5260205f2001905f90565b601054811015611b395760105f5260205f2001905f90565b9190820180921161037157565b8181029291811591840414171561037157565b8115611e7a570490565b7f4e487b71000000000000000000000000000000000000000000000000000000005f52601260045260245ffd5b9190820391821161037157565b60405190600b548083528260208101600b5f5260205f20925f905b806001830110611f1c57611ef5945491818110611f08575b10611ef7575b500383611794565b565b60801d600f0b81526020015f611eed565b92602060019184600f0b8152019301611ee7565b9160029193506040600191865480600f0b825260801d600f0b6020820152019401920185929391611ecf565b90600b54821015611b3957600b5f52600182901c7f0175b7a638427703f0dbe7bb9bbf987a2551717b34e79f33b5b1008d1fa01db9019160041b60101690565b939291611fbb9073ffffffffffffffffffffffffffffffffffffffff60409316865260606020870152606086019061189e565b930152565b15611fc757565b60646040517f08c379a000000000000000000000000000000000000000000000000000000000815260206004820152601460248201527f696e73756666696369656e742062616c616e63650000000000000000000000006044820152fd5b909180519161203383611a70565b9380158015612091575b611be85761204a91612099565b906120595f83600f0b13611abf565b5f5b838110612069575050505090565b8061208061207960019385611b25565b5185612d95565b61208a8288611b25565b520161205b565b50831561203d565b81156101155777ffffffffffffffffffffffffffffffffffffffffffffffff811161211157906120cb9160401b611e70565b6fffffffffffffffffffffffffffffffff8111610115576fffffffffffffffffffffffffffffffff166f7fffffffffffffffffffffffffffffff811161011557600f0b90565b60c09181831c80936401000000008210156122b6575b600282620100006121b49410156122aa575b61010081101561229e575b6010811015612292575b6004811015612287575b101561227f575b8360017fffffffffffffffffffffffffffffffffffffffffffffffffffffffffffffffff85017fffffffffffffffffffffffffffffffffffffffffffffffffffffffffffffff4184011c019160ff031b611e70565b926fffffffffffffffffffffffffffffffff8411610115578160801c8402906fffffffffffffffffffffffffffffffff8316850290809460401b90828210612255575b5003928160801b9182851061222c575b60801c03612221576122199203611e70565b905b016120cb565b50505060019061221b565b907fffffffffffffffffffffffffffffffffffffffffffffffffffffffffffffffff0190612207565b7fffffffffffffffffffffffffffffffffffffffffffffffffffffffffffffffff0194505f6121f7565b60010161215f565b91810191811c612158565b6004928301921c61214e565b6008928301921c612144565b6010928301921c612139565b505060e082811c90612127565b600f0b5f811261011557670de0b6b3a76400000260401c90565b811561233857600f0b5f8112610115576fffffffffffffffffffffffffffffffff8216810260401c9160801c0277ffffffffffffffffffffffffffffffffffffffffffffffff81116101155760401b81198111610115570190565b50505f90565b60027f9b779b17422d0df92223018b32b4d1fa46e071723d6817e2486d003becc55f00541461238d5760027f9b779b17422d0df92223018b32b4d1fa46e071723d6817e2486d003becc55f0055565b7f3ee5aeb5000000000000000000000000000000000000000000000000000000005f5260045ffd5b919080156123d1576123ca61189b9184612409565b8093611ea7565b505f9190565b6123eb6123e483836122dd565b9283612099565b90600f0b90600f0b126123fb5790565b600181018091116103715790565b9080156123385761241991611e5d565b620f424081019081811161037157620f423f0190811161037157620f4240900490565b9073ffffffffffffffffffffffffffffffffffffffff7f0000000000000000000000000000000000000000000000000000000000000000169173ffffffffffffffffffffffffffffffffffffffff821691838314806125ae575b156124ee57505050803b15610115575f82916004604051809481937fd0e30db00000000000000000000000000000000000000000000000000000000083525af18015610631576124e4575090565b5f61189b91611794565b9091925073ffffffffffffffffffffffffffffffffffffffff604051927f23b872dd000000000000000000000000000000000000000000000000000000005f5216600452306024528360445260205f60648180855af19060015f511482161561258f575b50906040525f60605215612564575090565b7f5274afe7000000000000000000000000000000000000000000000000000000005f5260045260245ffd5b60018215166125a5573b15153d1516165f612552565b823d5f823e3d90fd5b5084341015612496565b5f90815b81518310156125dd576125d56001916101f98585611b25565b9201916125bc565b91505090565b600f0b68010000000000000000017fffffffffffffffffffffffffffffffff8000000000000000000000000000000081121580612626575b1561011557600f0b90565b506f7fffffffffffffffffffffffffffffff81131561261b565b90600f0b90600f0b017fffffffffffffffffffffffffffffffff8000000000000000000000000000000081121580612626571561011557600f0b90565b90600f0b90600f0b0260401d7fffffffffffffffffffffffffffffffff8000000000000000000000000000000081121580612626571561011557600f0b90565b600f0b801561011557700100000000000000000000000000000000057fffffffffffffffffffffffffffffffff8000000000000000000000000000000081121580612626571561011557600f0b90565b90600f0b9081156101155760401b60170b057fffffffffffffffffffffffffffffffff8000000000000000000000000000000081121580612626571561011557600f0b90565b5f61275d826125b8565b600f0b13156127d8578051600b915f5b82811061277a5750505050565b6127848183611b25565b51600f0b908454811015611b3957600191855f526127d060205f2083851c019160108460041b168354906fffffffffffffffffffffffffffffffff809160031b9316831b921b19161790565b90550161276d565b60646040517f08c379a000000000000000000000000000000000000000000000000000000000815260206004820152601460248201527f4c4d53523a206e657720746f74616c207a65726f0000000000000000000000006044820152fd5b73ffffffffffffffffffffffffffffffffffffffff169081156128a1577fddf252ad1be2c89b69c2b068fc378daa952ba7f163c4a11628f55a4df523b3ef6020826128845f94600354611e50565b6003558484526001825260408420818154019055604051908152a3565b7fec442f05000000000000000000000000000000000000000000000000000000005f525f60045260245ffd5b90919280612b33575b15612a69575073ffffffffffffffffffffffffffffffffffffffff7f00000000000000000000000000000000000000000000000000000000000000001690813b15610115576040517f2e1a7d4d0000000000000000000000000000000000000000000000000000000081525f816024818380978960048401525af1801561063157612a54575b508180809481935af1903d15612a4e573d9067ffffffffffffffff8211612a2157604051916129b360207fffffffffffffffffffffffffffffffffffffffffffffffffffffffffffffffe0601f8401160184611794565b825260203d92013e5b156129c357565b60646040517f08c379a000000000000000000000000000000000000000000000000000000000815260206004820152601460248201527f7265636569766572206e6f742070617961626c650000000000000000000000006044820152fd5b807f4e487b7100000000000000000000000000000000000000000000000000000000602492526041600452fd5b506129bc565b612a619192505f90611794565b5f905f61295c565b9173ffffffffffffffffffffffffffffffffffffffff604051927fa9059cbb000000000000000000000000000000000000000000000000000000005f521660045260245260205f60448180865af19060015f5114821615612b12575b60405215612ad05750565b73ffffffffffffffffffffffffffffffffffffffff907f5274afe7000000000000000000000000000000000000000000000000000000005f521660045260245ffd5b906001811516612b2a57823b15153d15161690612ac5565b503d5f823e3d90fd5b5073ffffffffffffffffffffffffffffffffffffffff7f00000000000000000000000000000000000000000000000000000000000000001673ffffffffffffffffffffffffffffffffffffffff8216146128d6565b7fffffffffffffffffffffffffffffffff00000000000000000000000000000000600a5416600a55600b545f600b5580612bbf5750565b60010160011c600b5f5260205f205f5b828110612bdb57505050565b5f82820155600101612bcf565b73ffffffffffffffffffffffffffffffffffffffff16908115612c915773ffffffffffffffffffffffffffffffffffffffff16918215612c655760207f8c5be1e5ebec7d5bd14f71427d1e84f3dd0314c0f7b2291e5b200ac8c7c3b92591835f526002825260405f20855f5282528060405f2055604051908152a3565b7f94280d62000000000000000000000000000000000000000000000000000000005f525f60045260245ffd5b7fe602df05000000000000000000000000000000000000000000000000000000005f525f60045260245ffd5b90919073ffffffffffffffffffffffffffffffffffffffff168015612d6957805f52600160205260405f2054838110612d36576020845f94957fddf252ad1be2c89b69c2b068fc378daa952ba7f163c4a11628f55a4df523b3ef93858752600184520360408620558060035403600355604051908152a3565b91507fe450d38c000000000000000000000000000000000000000000000000000000005f5260045260245260445260645ffd5b7f96c6fd1e000000000000000000000000000000000000000000000000000000005f525f60045260245ffd5b9067ffffffffffffffff612da982846122dd565b92168015612dcc5767ffffffffffffffff8092160216612dc65790565b60010190565b505090565b91939293815191612de3838310611c5c565b612df15f87600f0b13611cc1565b612e12612dfd826125b8565b8095612e0d5f83600f0b13611d8b565b61267d565b92612e1c846126bd565b90612e2681611a70565b945f5b82811061344857506510c6f7a0b5ed5f612e43898c61270d565b916801000000000000000083600f0b12613437575b5f5b6040811061321c575b505f9b5f935b60408510612fec575b50505050505f955f935f5b848110612ee8575b5050505050612edc5791612ead612ea3612eb293612eb89695611b25565b51600f0b8761267d565b612640565b9361267d565b915f83600f0b13801590612ecf575b611ac6579190565b505f81600f0b1315612ec7565b5050505090505f905f90565b878103612ef8575b600101612e7d565b612f0f612f058289611b25565b51600f0b8d61267d565b5f81600f0b13612f20575b50612ef0565b82612f2d919a929a61267d565b6820000000000000000081600f0b13612fd857612f4c612f67916138be565b612f62612f598c87611b25565b51600f0b6125e3565b613881565b5f81600f0b1315612fd857612f8990612f808b86611b25565b51600f0b61270d565b5f81600f0b1315612fd857612fa0612fa691613920565b8561267d565b905f82600f0b12612fc457600191612fbd91612640565b9890612f1a565b985050505050505060015f80808080612e85565b509750505050505060015f80808080612e85565b680200000000000000006130008286612640565b60401b60170b057fffffffffffffffffffffffffffffffff8000000000000000000000000000000081121580613202575b1561011557600f0b90898c8c5f915f905f905b8d82106130e4575b5050156130c5575050506f7fffffffffffffffffffffffffffffff5b83600f0b90600f0b135f146130bc5750935b826130858587613881565b600f0b13156130aa57603f81146130a0575b60010193612e69565b929c508c92613097565b50505091995050975f80808080612e72565b9493509261307a565b6130d5612ead916130df94611b25565b51600f0b8561267d565b613068565b9092839592949503613102575b50506001018c92918f918f92613044565b8d61311a6131108585611b25565b51600f0b8961267d565b5f81600f0b1361312c575b50506130f1565b906131399196949661267d565b6820000000000000000081600f0b136131f257613158613165916138be565b612f62612f598885611b25565b915f83600f0b13156131e2575090612f808561318093611b25565b8d5f82600f0b13156131d3575061319961319f91613920565b8b61267d565b908d5f83600f0b126131c457506001916131b891612640565b9290508c8f8d5f613125565b93509150508c60018f8061304c565b93505090508c60018f8061304c565b9450505090508c60018f8061304c565b5050925090508c60018f8061304c565b506f7fffffffffffffffffffffffffffffff811315613031565b925f5f5f5b888110613319575b50156132f957506f7fffffffffffffffffffffffffffffff5b8d600f0b90600f0b128015906132e1575b6132db57600f0b60411b60401d7fffffffffffffffffffffffffffffffff80000000000000000000000000000000811215806132c1575b1561011557600f0b926a100000000000000000000084136132ae575b600101612e5a565b6a100000000000000000000093506132a6565b506f7fffffffffffffffffffffffffffffff81131561328a565b92612e63565b506a100000000000000000000081600f0b1215613253565b61331490612ead61330a8c8c611b25565b51600f0b8461267d565b613242565b839e9c9a98969f9d9b9980989695948b8303613348575b50506001019e9597999b9d92939496989a9c9e613221565b61336090613356848d611b25565b51600f0b9061267d565b5f81600f0b13613372575b508f613330565b9061337f9194929461267d565b6820000000000000000081600f0b1361341d578b612f62612f59866133a66133ac956138be565b93611b25565b5f81600f0b131561341d576133c590612f80858e611b25565b5f81600f0b131561341d576133dc6133e291613920565b8761267d565b905f82600f0b12613403576001916133f991612640565b929050875f61336b565b9250505060019d9496989a9c9192939597999b9d5f613229565b5091505060019d9496989a9c9192939597999b9d5f613229565b680100000000000000009250612e58565b8061347c61347786612e0d61345f6001968b611b25565b51600f0b61346d8c8c611b25565b51600f0b90613881565b6138be565b613486828a611b25565b90600f0b905201612e29565b9391936801000000000000000084600f0b6134ae5f8213611abf565b136137e1576134cf6134bf836125b8565b8092612e0d5f83600f0b13611d8b565b906134d9826126bd565b6134e58451928761267d565b966134ef83611a70565b935f5b8481106137a857506135076131108388611b25565b975f89600f0b13965f5b86811061353b57505050505050505015801561352e575b611ac657565b505f82600f0b1315613528565b84810361354e575b600101955b95613511565b61355b61330a8284611b25565b5f81600f0b1361356c575b50613543565b61357c87829d949d9b939b61267d565b9182600f0b9268200000000000000000841361377c577fffffffffffffffffffffffffffffffff800000000000000000000000000000006135d86134778b8f8f61346d612e0d928f6135ce9084611b25565b51600f0b92611b25565b9414610115576135f76135f26135fd925f03600f0b6138be565b61383f565b8461267d565b600f0b68010000000000000000017fffffffffffffffffffffffffffffffff800000000000000000000000000000008112158061378e575b1561011557600f0b5f81131561377c576133dc61365191613920565b9288888c61365f8282611b25565b51600f0b87600f0b136136d45761368e94506136ca9795935061368592508e9150611b25565b51600f0b612640565b6136988b8b611b25565b90600f0b90526136b5826136ac888c611b25565b51600f0b613881565b6136bf878b611b25565b90600f0b9052612640565b9860019788613566565b6137009496506136f793955061347792916136ee91611b25565b51600f0b61267d565b612f62836125e3565b915f83600f0b131561376b575061372f61372961372461375395946137399461270d565b613920565b8661267d565b6136858b8b611b25565b6137438a8a611b25565b90600f0b90526101f98589611b25565b985f61375f8589611b25565b52600180980195613548565b999050600191509a919a0195613548565b50999050600191509a919a0195613548565b506f7fffffffffffffffffffffffffffffff811315613635565b806137cb6137b86001938a611b25565b51600f0b6137c58c61383f565b9061267d565b6137d58289611b25565b90600f0b9052016134f2565b60646040517f08c379a000000000000000000000000000000000000000000000000000000000815260206004820152600960248201527f746f6f206c6172676500000000000000000000000000000000000000000000006044820152fd5b600f0b68010000000000000000037fffffffffffffffffffffffffffffffff8000000000000000000000000000000081121580612626571561011557600f0b90565b90600f0b90600f0b037fffffffffffffffffffffffffffffffff8000000000000000000000000000000081121580612626571561011557600f0b90565b600f0b68400000000000000000811215610115577fffffffffffffffffffffffffffffffffffffffffffffffc00000000000000000811261391b57700171547652b82fe1777d0ffda0d23a7d1261189b910260801d600f0b613a4d565b505f90565b600f0b5f811315610115575f908068010000000000000000821215613a40575b806401000000006002921215613a34575b62010000811215613a28575b610100811215613a1c575b6010811215613a10575b6004811215613a05575b12156139fb575b7fffffffffffffffffffffffffffffffffffffffffffffffffffffffffffffffc0820160401b91607f031b90678000000000000000915b5f83136139df57506fb17217f7d1cf79abc9e3b39803f2f6af9150600f0b0260801d90565b8002908160ff1c9182607f011c918302019160011d91906139ba565b9060010190613983565b92810192811d61397c565b6004938401931d613972565b6008938401931d613968565b6010938401931d61395d565b6020938401931d613951565b506040915080821d613940565b80600f0b68400000000000000000811215610115577fffffffffffffffffffffffffffffffffffffffffffffffc000000000000000008112612338576f80000000000000000000000000000000915f6780000000000000008216600f0b13614649575b5f6740000000000000008216600f0b1361462c575b5f6720000000000000008216600f0b1361460f575b5f6710000000000000008216600f0b136145f2575b5f6708000000000000008216600f0b136145d5575b5f6704000000000000008216600f0b136145b8575b5f6702000000000000008216600f0b1361459b575b5f6701000000000000008216600f0b1361457e575b5f66800000000000008216600f0b13614561575b5f66400000000000008216600f0b13614544575b5f66200000000000008216600f0b13614527575b5f66100000000000008216600f0b1361450a575b5f66080000000000008216600f0b136144ed575b5f66040000000000008216600f0b136144d0575b5f66020000000000008216600f0b136144b3575b5f66010000000000008216600f0b13614496575b5f658000000000008216600f0b13614479575b5f654000000000008216600f0b1361445c575b5f652000000000008216600f0b1361443f575b5f651000000000008216600f0b13614422575b5f650800000000008216600f0b13614405575b5f650400000000008216600f0b136143e8575b5f650200000000008216600f0b136143cb575b5f650100000000008216600f0b136143ae575b5f6480000000008216600f0b13614391575b5f6440000000008216600f0b13614374575b5f6420000000008216600f0b13614357575b5f6410000000008216600f0b1361433a575b5f6408000000008216600f0b1361431d575b5f6404000000008216600f0b13614300575b5f6402000000008216600f0b136142e3575b5f6401000000008216600f0b136142c6575b5f63800000008216600f0b136142a9575b5f63400000008216600f0b1361428c575b5f63200000008216600f0b1361426f575b5f63100000008216600f0b13614252575b5f63080000008216600f0b13614235575b5f63040000008216600f0b13614218575b5f63020000008216600f0b136141fb575b5f63010000008216600f0b136141de575b5f628000008216600f0b136141c1575b5f624000008216600f0b136141a4575b5f622000008216600f0b13614187575b5f621000008216600f0b1361416a575b5f620800008216600f0b1361414d575b5f620400008216600f0b13614130575b5f620200008216600f0b13614113575b5f620100008216600f0b136140f6575b5f6180008216600f0b136140d9575b5f6140008216600f0b136140bc575b5f6120008216600f0b1361409f575b5f6110008216600f0b13614082575b5f6108008216600f0b13614065575b5f6104008216600f0b13614048575b5f6102008216600f0b1361402b575b5f6101008216600f0b1361400e575b5f60808216600f0b13613ff1575b5f60408216600f0b13613fd4575b5f60208216600f0b13613fb7575b5f60108216600f0b13613f9a575b5f60088216600f0b13613f7d575b5f60048216600f0b13613f60575b5f60028216600f0b13613f42575b60015f9116600f0b13613f25575b60401d600f0b603f03600f0b1c6f7fffffffffffffffffffffffffffffff811161011557600f0b90565b9070010000000000000000b17217f7d1cf79ab0260801c90613efb565b7001000000000000000162e42fefa39ef35890920260801c91613eed565b9170010000000000000002c5c85fdf473de6b20260801c91613edf565b91700100000000000000058b90bfbe8e7bcd6d0260801c91613ed1565b917001000000000000000b17217f7d1cf79afa0260801c91613ec3565b91700100000000000000162e42fefa39ef366f0260801c91613eb5565b917001000000000000002c5c85fdf473de6eca0260801c91613ea7565b9170010000000000000058b90bfbe8e7bce5440260801c91613e99565b91700100000000000000b17217f7d1cf79e9490260801c91613e8b565b9170010000000000000162e42fefa39ef44d910260801c91613e7c565b91700100000000000002c5c85fdf473dea871f0260801c91613e6d565b917001000000000000058b90bfbe8e7bdcbe2e0260801c91613e5e565b9170010000000000000b17217f7d1cf7d83c1a0260801c91613e4f565b917001000000000000162e42fefa39f02b772c0260801c91613e40565b9170010000000000002c5c85fdf473e242ea380260801c91613e31565b91700100000000000058b90bfbe8e7cc35c3f00260801c91613e22565b917001000000000000b17217f7d1cfb72b45e10260801c91613e13565b91700100000000000162e42fefa39fe95583c20260801c91613e03565b917001000000000002c5c85fdf4741bea6e77e0260801c91613df3565b9170010000000000058b90bfbe8e8b2d3d4ede0260801c91613de3565b91700100000000000b17217f7d1d351a389d400260801c91613dd3565b9170010000000000162e42fefa3ae53369388c0260801c91613dc3565b91700100000000002c5c85fdf477b662b269450260801c91613db3565b917001000000000058b90bfbe8f71cb4e4b33d0260801c91613da3565b9170010000000000b17217f7d20cf927c8e94c0260801c91613d93565b917001000000000162e42fefa494f1478fde050260801c91613d82565b9170010000000002c5c85fdf4b15de6f17eb0d0260801c91613d71565b91700100000000058b90bfbe9ddbac5e109cce0260801c91613d60565b917001000000000b17217f7d5a7716bba4a9ae0260801c91613d4f565b91700100000000162e42fefb2fed257559bdaa0260801c91613d3e565b917001000000002c5c85fdf84bd62ae30a74cc0260801c91613d2d565b9170010000000058b90bfbf8479bd5a81b51ad0260801c91613d1c565b91700100000000b17217f80f4ef5aadda455540260801c91613d0b565b9170010000000162e42ff0999ce3541b9fffcf0260801c91613cf9565b91700100000002c5c85fe31f35a6a30da1be500260801c91613ce7565b917001000000058b90bfcdee5acd3c1cedc8230260801c91613cd5565b9170010000000b17217fba9c739aa5819f44f90260801c91613cc3565b917001000000162e42fff037df38aa2b219f060260801c91613cb1565b9170010000002c5c8601cc6b9e94213c72737a0260801c91613c9f565b91700100000058b90c0b48c6be5df846c5b2ef0260801c91613c8d565b917001000000b1721835514b86e6d96efd1bfe0260801c91613c7b565b91700100000162e430e5a18f6119e3c02282a50260801c91613c68565b917001000002c5c863b73f016468f6bac5ca2b0260801c91613c55565b9170010000058b90cf1e6d97f9ca14dbcc16280260801c91613c42565b91700100000b1721bcfc99d9f890ea069117630260801c91613c2f565b9170010000162e43f4f831060e02d839a9d16d0260801c91613c1c565b91700100002c5c89d5ec6ca4d7c8acc017b7c90260801c91613c09565b917001000058b91b5bc9ae2eed81e9b7d4cfab0260801c91613bf6565b9170010000b17255775c040618bf4a4ade83fc0260801c91613be3565b917001000162e525ee054754457d59952920260260801c91613bcf565b9170010002c5cc37da9491d0985c348c68e7b30260801c91613bbb565b91700100058ba01fb9f96d6cacd4b180917c3d0260801c91613ba7565b917001000b175effdc76ba38e31671ca9397250260801c91613b93565b91700100162f3904051fa128bca9c55c31e5df0260801c91613b7f565b917001002c605e2e8cec506d21bfc89a23a00f0260801c91613b6b565b9170010058c86da1c09ea1ff19d294cf2f679b0260801c91613b57565b91700100b1afa5abcbed6129ab13ec11dc95430260801c91613b43565b9170010163da9fb33356d84a66ae336dcdfa3f0260801c91613b2e565b91700102c9a3e778060ee6f7caca4f7a29bde80260801c91613b19565b917001059b0d31585743ae7c548eb68ca417fd0260801c91613b04565b9170010b5586cf9890f6298b92b71842a983630260801c91613aef565b917001172b83c7d517adcdf7c8c50eb14a791f0260801c91613ada565b917001306fe0a31b7152de8d5a46305c85edec0260801c91613ac5565b6fb504f333f9de6484597d89b3754abe9f9250613ab056fea26469706673582212204bd00fe46ab82c3182d638a63b97acb8079cc5867af16f06b1994206b971390464736f6c63430008210033","linkReferences":{}},"methodIdentifiers":{"burn(address,address,uint256,uint256,bool)":"6863f5bc","burnAmounts(uint256,uint256,uint256[])":"228fa850","burnSwap(address,address,uint256,uint256,uint256,bool,uint256,uint256)":"8d01fa44","burnSwapAmounts(uint256,uint256,uint256,(int128,int128[]),uint256[],uint256)":"f16b7c26","initialMint(address,uint256,int128)":"c5eabfb9","mint(address,address,uint256,uint256)":"b3f1c93d","mintAmounts(uint256,uint256,uint256[])":"cdc2468b","swapMint(address,address,uint256,uint256,uint256,uint256,uint256)":"3dd3c805","swapMintAmounts(uint256,uint256,uint256,(int128,int128[]),uint256[],uint256)":"e9f317f0"},"id":54}