{"abi":[{"type":"function","name":"burnAmounts","inputs":[{"name":"lpTokenAmount","type":"uint256","internalType":"uint256"},{"name":"totalSupply","type":"uint256","internalType":"uint256"},{"name":"cachedUintBalances","type":"uint256[]","internalType":"uint256[]"}],"outputs":[{"name":"withdrawAmounts","type":"uint256[]","internalType":"uint256[]"}],"stateMutability":"pure"},{"type":"function","name":"burnSwapAmounts","inputs":[{"name":"lpAmount","type":"uint256","internalType":"uint256"},{"name":"outputTokenIndex","type":"uint256","internalType":"uint256"},{"name":"swapFeePpm","type":"uint256","internalType":"uint256"},{"name":"lmsrState","type":"tuple","internalType":"struct LMSRStabilized.State","components":[{"name":"kappa","type":"int128","internalType":"int128"},{"name":"qInternal","type":"int128[]","internalType":"int128[]"}]},{"name":"bases_","type":"uint256[]","internalType":"uint256[]"},{"name":"totalSupply_","type":"uint256","internalType":"uint256"}],"outputs":[{"name":"amountOut","type":"uint256","internalType":"uint256"},{"name":"outFee","type":"uint256","internalType":"uint256"}],"stateMutability":"pure"},{"type":"function","name":"mintAmounts","inputs":[{"name":"lpTokenAmount","type":"uint256","internalType":"uint256"},{"name":"totalSupply","type":"uint256","internalType":"uint256"},{"name":"cachedUintBalances","type":"uint256[]","internalType":"uint256[]"}],"outputs":[{"name":"depositAmounts","type":"uint256[]","internalType":"uint256[]"}],"stateMutability":"pure"},{"type":"function","name":"swapMintAmounts","inputs":[{"name":"inputTokenIndex","type":"uint256","internalType":"uint256"},{"name":"lpAmountOut","type":"uint256","internalType":"uint256"},{"name":"swapFeePpm","type":"uint256","internalType":"uint256"},{"name":"lmsrState","type":"tuple","internalType":"struct LMSRStabilized.State","components":[{"name":"kappa","type":"int128","internalType":"int128"},{"name":"qInternal","type":"int128[]","internalType":"int128[]"}]},{"name":"bases_","type":"uint256[]","internalType":"uint256[]"},{"name":"totalSupply_","type":"uint256","internalType":"uint256"}],"outputs":[{"name":"amountIn","type":"uint256","internalType":"uint256"},{"name":"inFee","type":"uint256","internalType":"uint256"}],"stateMutability":"pure"},{"type":"event","name":"Approval","inputs":[{"name":"owner","type":"address","indexed":true,"internalType":"address"},{"name":"spender","type":"address","indexed":true,"internalType":"address"},{"name":"value","type":"uint256","indexed":false,"internalType":"uint256"}],"anonymous":false},{"type":"event","name":"Burn","inputs":[{"name":"payer","type":"address","indexed":false,"internalType":"address"},{"name":"receiver","type":"address","indexed":true,"internalType":"address"},{"name":"amounts","type":"uint256[]","indexed":false,"internalType":"uint256[]"},{"name":"lpBurned","type":"uint256","indexed":false,"internalType":"uint256"}],"anonymous":false},{"type":"event","name":"BurnSwap","inputs":[{"name":"payer","type":"address","indexed":true,"internalType":"address"},{"name":"receiver","type":"address","indexed":true,"internalType":"address"},{"name":"tokenOut","type":"address","indexed":true,"internalType":"contract IERC20"},{"name":"amountIn","type":"uint256","indexed":false,"internalType":"uint256"},{"name":"amountOut","type":"uint256","indexed":false,"internalType":"uint256"},{"name":"lpFee","type":"uint256","indexed":false,"internalType":"uint256"},{"name":"protocolFee","type":"uint256","indexed":false,"internalType":"uint256"}],"anonymous":false},{"type":"event","name":"Mint","inputs":[{"name":"payer","type":"address","indexed":false,"internalType":"address"},{"name":"receiver","type":"address","indexed":true,"internalType":"address"},{"name":"amounts","type":"uint256[]","indexed":false,"internalType":"uint256[]"},{"name":"lpMinted","type":"uint256","indexed":false,"internalType":"uint256"}],"anonymous":false},{"type":"event","name":"SwapMint","inputs":[{"name":"payer","type":"address","indexed":true,"internalType":"address"},{"name":"receiver","type":"address","indexed":true,"internalType":"address"},{"name":"tokenIn","type":"address","indexed":true,"internalType":"contract IERC20"},{"name":"amountIn","type":"uint256","indexed":false,"internalType":"uint256"},{"name":"amountOut","type":"uint256","indexed":false,"internalType":"uint256"},{"name":"lpFee","type":"uint256","indexed":false,"internalType":"uint256"},{"name":"protocolFee","type":"uint256","indexed":false,"internalType":"uint256"}],"anonymous":false},{"type":"event","name":"Transfer","inputs":[{"name":"from","type":"address","indexed":true,"internalType":"address"},{"name":"to","type":"address","indexed":true,"internalType":"address"},{"name":"value","type":"uint256","indexed":false,"internalType":"uint256"}],"anonymous":false},{"type":"error","name":"AddressEmptyCode","inputs":[{"name":"target","type":"address","internalType":"address"}]},{"type":"error","name":"FailedCall","inputs":[]},{"type":"error","name":"InsufficientBalance","inputs":[{"name":"balance","type":"uint256","internalType":"uint256"},{"name":"needed","type":"uint256","internalType":"uint256"}]},{"type":"error","name":"SafeERC20FailedOperation","inputs":[{"name":"token","type":"address","internalType":"address"}]}],"bytecode":{"object":"0x60808060405234601b5761553b90816100208239308160070152f35b5f80fdfe60c0604052307f0000000000000000000000000000000000000000000000000000000000000000146004361015610034575f80fd5b5f905f3560e01c8063046194d4146121a55780631bcaf4e51461185e578063228fa8501461184957806390250c0a146115af578063955dace414610daa578063c5eabfb9146106d6578063cdc2468b146106b1578063ddb47f88146106265763f1f99654146100a1575f80fd5b610623576101407ffffffffffffffffffffffffffffffffffffffffffffffffffffffffffffffffc360112610623576100d8612474565b6100e06124ba565b6084359160c4359160a43591604435916064358515158603610621576101043590610124359573ffffffffffffffffffffffffffffffffffffffff8716870361061d57610150600c5491610135838510612619565b61014088151561267e565b8015908115610612575b506127ef565b61019a61018261016d6004546101678115156126e3565b89612ca0565b84600a54600f0b61017c612854565b9061420c565b905061018d846129af565b90549060031b1c906133c8565b976101a760e4358a614592565b5098898111156105b4578990039980159081156105a9575b501561054b578a9380151580610542575b6104de575b506101fe8773ffffffffffffffffffffffffffffffffffffffff88169788330361044a5761407d565b73ffffffffffffffffffffffffffffffffffffffff61021c8461297f565b90549060031b1c169761022f858c612c93565b61023885612997565b90549060031b1c106103ec57610250918b878b613d9b565b61025981612930565b918a5b82811061034f575050600199805b828110610306575b505050916102e973ffffffffffffffffffffffffffffffffffffffff927f8c012c6148e8ecc34b864721470dcc1e938d162c498b7d28961a8a78238cfe139460409b5f146102f857506102c3613fbe565b8a51968752602087018a9052808903604088015260608701529116939081906080820190565b0390a482519182526020820152f35b61030190613b4b565b6102c3565b61031081856127ae565b51600f0b6103205760010161026a565b5099506102e99050827f8c012c6148e8ecc34b864721470dcc1e938d162c498b7d28961a8a78238cfe13610272565b806103888c87610360600195612997565b90549060031b1c9186851461039e575b505061037b836129af565b90549060031b1c90612ca0565b61039282876127ae565b90600f0b90520161025c565b909103036103e5816103af85612997565b9091907fffffffffffffffffffffffffffffffffffffffffffffffffffffffffffffffff83549160031b92831b921b1916179055565b878e610370565b60646040517f08c379a000000000000000000000000000000000000000000000000000000000815260206004820152601760248201527f6275726e537761703a206f7574203e2062616c616e63650000000000000000006044820152fd5b6104728173ffffffffffffffffffffffffffffffffffffffff165f52600360205260405f2090565b73ffffffffffffffffffffffffffffffffffffffff33165f526020528160405f20547fffffffffffffffffffffffffffffffffffffffffffffffffffffffffffffffff81036104c3575b505061407d565b6104d7916104d091612a59565b338361401e565b815f6104bc565b620f4240908a02049350836104f4575b5f6101d5565b61053d610500846129c7565b8682548260031b1c01907fffffffffffffffffffffffffffffffffffffffffffffffffffffffffffffffff83549160031b92831b921b1916179055565b6104ee565b508915156101d0565b60646040517f08c379a000000000000000000000000000000000000000000000000000000000815260206004820152601d60248201527f6275726e537761703a20696e73756666696369656e74206f75747075740000006044820152fd5b90508a10155f6101bf565b60646040517f08c379a000000000000000000000000000000000000000000000000000000000815260206004820152601c60248201527f6275726e53776170416d6f756e74733a206f7574707574207a65726f000000006044820152fd5b90504211155f61014a565b8980fd5b875b80fd5b60406106816106976106906106706106896106403661233a565b84956106558399939c9694959c518510612619565b61066081151561267e565b61066b8215156126e3565b612ca0565b9160208151600f0b9101519061420c565b9390506127ae565b51906133c8565b9182614592565b506106a3818311612748565b808351920382526020820152f35b6106d26106c66106c03661258c565b91612c1f565b604051918291826125e0565b0390f35b506106235760607ffffffffffffffffffffffffffffffffffffffffffffffffffffffffffffffffc3601126106235761070d612474565b6024356044359182600f0b8303610da657600c5460ff60095460081c16610d485761073781612930565b9261074182612930565b91865b818110610c2a575050600b548451809103610a2d575b50855b845181101561087d578661077182876127ae565b51600f0b131561081f5761078581866127ae565b51600f0b600b548210156107f257600b8852600182811c7f0175b7a638427703f0dbe7bb9bbf987a2551717b34e79f33b5b1008d1fa01db901805491939290916fffffffffffffffffffffffffffffffff6080600786901b1681811b199092169216901b1790550161075d565b6024887f4e487b710000000000000000000000000000000000000000000000000000000081526032600452fd5b60646040517f08c379a000000000000000000000000000000000000000000000000000000000815260206004820152601460248201527f7a65726f20696e697469616c2062616c616e63650000000000000000000000006044820152fd5b508593508461089f85610896610891612854565b6145f0565b600f0b136126e3565b7fffffffffffffffffffffffffffffffff00000000000000000000000000000000600a5416906fffffffffffffffffffffffffffffffff1617600a5583600a54600f0b13156109cf57806109c95750670de0b6b3a7640000915b826109ba575b6101007fffffffffffffffffffffffffffffffffffffffffffffffffffffffffffff00ff600954161760095560405193606085018186526060602087015283518091526020608087019401915b8181106109a4575050508360209473ffffffffffffffffffffffffffffffffffffffff7f6bc0553967b8bb727947c938555c0e061c3f96b629935c8f82a43b558dfb1c579386604084015216930390a2604051908152f35b825185526020948501949092019160010161094c565b6109c48382613ca1565b6108ff565b916108f9565b60646040517f08c379a000000000000000000000000000000000000000000000000000000000815260206004820152600d60248201527f696e76616c6964206b61707061000000000000000000000000000000000000006044820152fd5b610a3690612930565b80519067ffffffffffffffff8211610bfd57680100000000000000008211610bfd57600b5482600b55808310610b5f575b5060200190600b8852602088208160011c91895b838110610b1157507ffffffffffffffffffffffffffffffffffffffffffffffffffffffffffffffffe8116900380610ab6575b50505061075a565b9289938a5b818110610ad05750505001555f808080610aae565b9091946020610b076001928851600f0b908560041b6fffffffffffffffffffffffffffffffff809160031b9316831b921b19161790565b9601929101610abb565b8a8b5b60028110610b29575083820155600101610a7b565b86519096916001916020916fffffffffffffffffffffffffffffffff60078b901b81811b199092169216901b1792019601610b14565b6001830160011c600b8a5260018160208c20019260108660041b1680610ba5575b500160011c0390895b828110610b97575050610a67565b808b60019284015501610b89565b7fffffffffffffffffffffffffffffffffffffffffffffffffffffffffffffffff8501907fffffffffffffffffffffffffffffffffffffffffffffffffffffffffffffffff82549160200360031b1c1690555f610b80565b6024887f4e487b710000000000000000000000000000000000000000000000000000000081526041600452fd5b80602073ffffffffffffffffffffffffffffffffffffffff610c4d60249461297f565b90549060031b1c16604051938480927f70a082310000000000000000000000000000000000000000000000000000000082523060048301525afa918215610d3d578992610d04575b50610cd682610ca76001941515612bba565b80610cb284896127ae565b52610cc0816103af85612997565b610ccd816103af856129af565b61037b836129af565b610ce082896127ae565b90600f0b9052610cfe89610cf4838a6127ae565b51600f0b13612bba565b01610744565b91506020823d8211610d35575b81610d1e60209383612276565b81010312610d3157905190610cd6610c95565b5f80fd5b3d9150610d11565b6040513d8b823e3d90fd5b60646040517f08c379a000000000000000000000000000000000000000000000000000000000815260206004820152600b60248201527f696e697469616c697a65640000000000000000000000000000000000000000006044820152fd5b8380fd5b50610623576101807ffffffffffffffffffffffffffffffffffffffffffffffffffffffffffffffffc36011261062357610de2612474565b610dea6124dd565b610df2612497565b60c43592608435919060a43560643560e43567ffffffffffffffff81116114c357610e21903690600401612546565b6101243592610144359173ffffffffffffffffffffffffffffffffffffffff831683036115ab576101643573ffffffffffffffffffffffffffffffffffffffff81168091036115a757600c549a610e798c8710612619565b610e848a151561267e565b610f09610ef38e610ede610ed3610eb68f8715801561159d575b610ea7906127ef565b6004549061066b8215156126e3565b610ec48482600f0b13612748565b610ecd81612eca565b90612fb4565b9182600f0b13612748565b88600a54600f0b610eed612854565b9061305f565b610efc886129af565b90549060031b1c90613322565b9a610f158c1515612748565b610f22610104358d61335e565b809c019585871161153f577fffffffff0000000000000000000000000000000000000000000000000000000082167c0200000000000000000000000000000000000000000000000000000000036114ff575050610f7f34156129f4565b60405160c0810181811067ffffffffffffffff8211176114d257828f969594929360a08d958f9473ffffffffffffffffffffffffffffffffffffffff8f8192604052169788835216948560208301528c6040830152606082015288608082015201526040519060208201927e4d30bb04a43356bbd3b6918bea7b9ce1d401e3a237e2c289eb441deda03936845285604084015260608301528960808301528d60a08301528660c083015260e082015260e0815261103e61010082612276565b5190209273ffffffffffffffffffffffffffffffffffffffff6110608961297f565b90549060031b1c169361119a6101009261107d6040519485612276565b60c684527f537761704d696e745769746e657373207769746e65737329537761704d696e7460208501527f5769746e65737328616464726573732070617965722c6164647265737320726560408501527f6365697665722c75696e7432353620696e707574546f6b656e496e6465782c7560608501527f696e74323536206c70416d6f756e744f75742c75696e74323536206d6178416d60808501527f6f756e74496e2c75696e7432353620646561646c696e6529546f6b656e50657260a08501527f6d697373696f6e73286164647265737320746f6b656e2c75696e74323536206160c08501527f6d6f756e7429000000000000000000000000000000000000000000000000000060e085015260208082518301019101613ada565b9691959097604051926111ac8461223e565b83526020830152604051916111c08361225a565b82526020820195865260408201978852604051966111dd8861223e565b3088528a6020890152853b1561061d576112aa611258958b99956112db9461128c8c986040519e8f9d8e9c8d9b7f137c29fe000000000000000000000000000000000000000000000000000000008d5260048d0190516020809173ffffffffffffffffffffffffffffffffffffffff81511684520151910152565b5160448b01525160648a0152805173ffffffffffffffffffffffffffffffffffffffff1660848a01526020015160a4890152565b60c487015260e4860152610140610104860152610144850190613423565b907ffffffffffffffffffffffffffffffffffffffffffffffffffffffffffffffffc84830301610124850152613423565b03925af180156114c7576114ae575b5050965b6112f9881515612748565b8892801515806114a5575b611441575b5061135561131683612997565b858b0382548260031b1c01907fffffffffffffffffffffffffffffffffffffffffffffffffffffffffffffffff83549160031b92831b921b1916179055565b61135e81612930565b985b81811061140c57505073ffffffffffffffffffffffffffffffffffffffff806113be7fcbf41a060d7827197acec8e5ef3abf36d633e77060f7aec03943608d1cd84ebe936113af60609c613b4b565b6113b98989613ca1565b61297f565b90549060031b1c16946113f78260405193849316961694808a03898c859094939260609260808301968352602083015260408201520152565b0390a460405192835260208301526040820152f35b8061142b61141b600193612997565b90549060031b1c61037b836129af565b611435828d6127ae565b90600f0b905201611360565b620f424090880204925082611457575b5f611309565b6114a0611463836129c7565b8582548260031b1c01907fffffffffffffffffffffffffffffffffffffffffffffffffffffffffffffffff83549160031b92831b921b1916179055565b611451565b50871515611304565b816114b891612276565b6114c357885f6112ea565b8880fd5b6040513d84823e3d90fd5b60248f7f4e487b710000000000000000000000000000000000000000000000000000000081526041600452fd5b9392509350506115389373ffffffffffffffffffffffffffffffffffffffff6115278761297f565b90549060031b1c168634958a613466565b50966112ee565b60646040517f08c379a000000000000000000000000000000000000000000000000000000000815260206004820152601c60248201527f737761704d696e743a20616d6f756e742065786365656473206d6178000000006044820152fd5b5042881015610e9e565b8b80fd5b8a80fd5b506106235760c07ffffffffffffffffffffffffffffffffffffffffffffffffffffffffffffffffc360112610623576115e6612474565b906115ef6124ba565b606435929060443560843580151581036118455760a4359573ffffffffffffffffffffffffffffffffffffffff871687036118415780611637911590811561061257506127ef565b600c5461164583151561267e565b6116656004546116568115156126e3565b61165e6128e8565b9085612b29565b9560019761167283612930565b93825b848110611790575050505050916116f373ffffffffffffffffffffffffffffffffffffffff927f3f84ed8aa11ed632de380466083280b4c5da668f12695b08636d7848eaf896b4946106d2985f1461178257506116d0613fbe565b8386163303611702575b6116e4818761407d565b86604051948594169684612aca565b0390a2604051918291826125e0565b61172a8673ffffffffffffffffffffffffffffffffffffffff165f52600360205260405f2090565b8433165f526020528060405f20547fffffffffffffffffffffffffffffffffffffffffffffffffffffffffffffffff8103611767575b50506116da565b61177b9161177491612a59565b338861401e565b805f611760565b61178b90613b4b565b6116d0565b61179a818b6127ae565b5183838a836117b0575b50505050600101611675565b6117fe92849261180b956117e99373ffffffffffffffffffffffffffffffffffffffff6117dc8a61297f565b90549060031b1c16613d9b565b6117f284612997565b90549060031b1c612a59565b610ccd816103af85612997565b61181582886127ae565b90600f0b905261182581876127ae565b51600f0b611837575b5f83838a6117a4565b929950899261182e565b8580fd5b8480fd5b6106d26106c66118583661258c565b91612b29565b50610d31576101007ffffffffffffffffffffffffffffffffffffffffffffffffffffffffffffffffc360112610d3157611896612474565b6080526118a16124dd565b906118aa612497565b90606435926084359360a43567ffffffffffffffff8111610d31576118d3903690600401612546565b60c4359573ffffffffffffffffffffffffffffffffffffffff87168703610d315760e4359073ffffffffffffffffffffffffffffffffffffffff82168203610d31578015801561219b575b611927906127ef565b600c54936004549861193a8a15156126e3565b61196561195561195061194b612854565b613379565b6133ae565b9a61195e6128e8565b9084612c1f565b60a05261197186612930565b967fffffffff0000000000000000000000000000000000000000000000000000000081167c0200000000000000000000000000000000000000000000000000000000036120e35750506119c434156129f4565b604051916080830183811067ffffffffffffffff8211176120b65760405273ffffffffffffffffffffffffffffffffffffffff60805116835280606073ffffffffffffffffffffffffffffffffffffffff8b169485602082015284604082015201526040519160208301937f42600b81b5e80ff8c10867459975956f2627410a84462e62deb4f20e498af5a7855273ffffffffffffffffffffffffffffffffffffffff6080511660408501526060840152608083015260a082015260a08152611a8e60c082612276565b51902091611b7560405191611aa460c084612276565b609483527f4d696e745769746e657373207769746e657373294d696e745769746e6573732860208401527f616464726573732070617965722c616464726573732072656365697665722c7560408401527f696e74323536206c70546f6b656e416d6f756e742c75696e743235362064656160608401527f646c696e6529546f6b656e5065726d697373696f6e732861646472657373207460808401527f6f6b656e2c75696e7432353620616d6f756e742900000000000000000000000060a084015260208082518301019101613ada565b92909194600c5492611b86846122c5565b90611b946040519283612276565b8482527fffffffffffffffffffffffffffffffffffffffffffffffffffffffffffffffe0611bc1866122c5565b015f5b818110612093575050611bd6856122c5565b94611be46040519687612276565b8086527fffffffffffffffffffffffffffffffffffffffffffffffffffffffffffffffe0611c11826122c5565b015f5b8181106120705750505f5b818110611fd257505060405191611c358361225a565b8252602082019788526040820190815273ffffffffffffffffffffffffffffffffffffffff87163b15610d31576040517ffe8ec1a700000000000000000000000000000000000000000000000000000000815260c060048201529151606060c484015280516101248401819052929889979695949361014489019392602001905f5b818110611f82575050505160e4880152516101048701527ffffffffffffffffffffffffffffffffffffffffffffffffffffffffffffffffc868203016024870152602080855192838152019401905f5b818110611f385750505084611da35f9795611d7383968a9673ffffffffffffffffffffffffffffffffffffffff968760805116604488015260648701527ffffffffffffffffffffffffffffffffffffffffffffffffffffffffffffffffc868303016084870152613423565b907ffffffffffffffffffffffffffffffffffffffffffffffffffffffffffffffffc8483030160a4850152613423565b0393165af18015611f2d57611f18575b50825b818110611eba575050611950611dd0915b61194b81613b4b565b8380821115611eb257611de291612a59565b905b8115611ea657600454828102928184041490151715611e795750602092611e0a91612a93565b905b611e17821515612748565b611e218282613ca1565b7f6bc0553967b8bb727947c938555c0e061c3f96b629935c8f82a43b558dfb1c5773ffffffffffffffffffffffffffffffffffffffff60405192169180611e6e8560a05160805184612aca565b0390a2604051908152f35b807f4e487b7100000000000000000000000000000000000000000000000000000000602492526011600452fd5b90506020925090611e0c565b505080611de4565b80611ec960019260a0516127ae565b51611ed5575b01611db6565b611f03611ee182612997565b90549060031b1c611ef48360a0516127ae565b5101610ccd816103af85612997565b611f0d82866127ae565b90600f0b9052611ecf565b611f259193505f90612276565b5f915f611db3565b6040513d5f823e3d90fd5b919596509192936020604082611f716001948a516020809173ffffffffffffffffffffffffffffffffffffffff81511684520151910152565b019601910191889695949392611d07565b919596979899509192936020604082611fbe6001948a516020809173ffffffffffffffffffffffffffffffffffffffff81511684520151910152565b0196019101918b9998979695949392611cb7565b8073ffffffffffffffffffffffffffffffffffffffff611ff360019361297f565b90549060031b1c166120078260a0516127ae565b51604051916120158361223e565b8252602082015261202682876127ae565b5261203181866127ae565b5061203e8160a0516127ae565b516040519061204c8261223e565b308252602082015261205e828a6127ae565b5261206981896127ae565b5001611c1f565b60209060405161207f8161223e565b5f81525f8382015282828b01015201611c14565b6020906040516120a28161223e565b5f81525f8382015282828701015201611bc4565b7f4e487b71000000000000000000000000000000000000000000000000000000005f52604160045260245ffd5b9250925050345f5b85811061210457505050505050611950611dd091611dc7565b83856121128360a0516127ae565b5180612124575b5050506001016120eb565b938392612161926121819673ffffffffffffffffffffffffffffffffffffffff61214f60019861297f565b90549060031b1c16868a608051613466565b939061216c83612997565b90549060031b1c01610ccd816103af85612997565b61218b828a6127ae565b90600f0b9052905083855f612119565b504281101561191e565b60406121e56122236122116121d761220a6122046121c23661233a565b859695939b9294610655839a93518610612619565b610ec45f82600f0b13612748565b916121f45f84600f0b13612748565b60208151600f0b9101519061305f565b926127ae565b5190613322565b9161221d831515612748565b8261335e565b80910190612232821515612748565b82519182526020820152f35b6040810190811067ffffffffffffffff8211176120b657604052565b6060810190811067ffffffffffffffff8211176120b657604052565b90601f7fffffffffffffffffffffffffffffffffffffffffffffffffffffffffffffffe0910116810190811067ffffffffffffffff8211176120b657604052565b359081600f0b8203610d3157565b67ffffffffffffffff81116120b65760051b60200190565b9080601f83011215610d315781356122f4816122c5565b926123026040519485612276565b81845260208085019260051b820101928311610d3157602001905b82821061232a5750505090565b813581526020918201910161231d565b60c07ffffffffffffffffffffffffffffffffffffffffffffffffffffffffffffffffc820112610d315760043591602435916044359160643567ffffffffffffffff8111610d315760407ffffffffffffffffffffffffffffffffffffffffffffffffffffffffffffffffc8285030112610d3157604051906123bb8261223e565b6123c7816004016122b7565b825260248101359067ffffffffffffffff8211610d31570183602382011215610d31576004810135906123f9826122c5565b916124076040519384612276565b808352602060048185019260051b8401010191868311610d3157602401905b82821061245c575050506020820152916084359067ffffffffffffffff8211610d3157612455916004016122dd565b9060a43590565b60208091612469846122b7565b815201910190612426565b6004359073ffffffffffffffffffffffffffffffffffffffff82168203610d3157565b6044359073ffffffffffffffffffffffffffffffffffffffff82168203610d3157565b6024359073ffffffffffffffffffffffffffffffffffffffff82168203610d3157565b602435907fffffffff0000000000000000000000000000000000000000000000000000000082168203610d3157565b67ffffffffffffffff81116120b657601f017fffffffffffffffffffffffffffffffffffffffffffffffffffffffffffffffe01660200190565b81601f82011215610d315780359061255d8261250c565b9261256b6040519485612276565b82845260208383010111610d3157815f926020809301838601378301015290565b60607ffffffffffffffffffffffffffffffffffffffffffffffffffffffffffffffffc820112610d315760043591602435916044359067ffffffffffffffff8211610d31576125dd916004016122dd565b90565b60206040818301928281528451809452019201905f5b8181106126035750505090565b82518452602093840193909201916001016125f6565b1561262057565b60646040517f08c379a000000000000000000000000000000000000000000000000000000000815260206004820152600d60248201527f696e76616c696420696e646578000000000000000000000000000000000000006044820152fd5b1561268557565b60646040517f08c379a000000000000000000000000000000000000000000000000000000000815260206004820152600e60248201527f696e76616c696420616d6f756e740000000000000000000000000000000000006044820152fd5b156126ea57565b60646040517f08c379a000000000000000000000000000000000000000000000000000000000815260206004820152600d60248201527f756e696e697469616c697a6564000000000000000000000000000000000000006044820152fd5b1561274f57565b6040517f08c379a000000000000000000000000000000000000000000000000000000000815260206004820152600960248201527f746f6f20736d616c6c00000000000000000000000000000000000000000000006044820152606490fd5b80518210156127c25760209160051b010190565b7f4e487b71000000000000000000000000000000000000000000000000000000005f52603260045260245ffd5b156127f657565b60646040517f08c379a000000000000000000000000000000000000000000000000000000000815260206004820152600860248201527f646561646c696e650000000000000000000000000000000000000000000000006044820152fd5b60405190600b548083528260208101600b5f5260205f20925f905b8060018301106128bc576128959454918181106128a8575b10612897575b500383612276565b565b60801d600f0b81526020015f61288d565b92602060019184600f0b8152019301612887565b9160029193506040600191865480600f0b825260801d600f0b602082015201940192018592939161286f565b60405190601054808352826020810160105f5260205f20925f5b81811061291757505061289592500383612276565b8454835260019485019487945060209093019201612902565b9061293a826122c5565b6129476040519182612276565b8281527fffffffffffffffffffffffffffffffffffffffffffffffffffffffffffffffe061297582946122c5565b0190602036910137565b600c548110156127c257600c5f5260205f2001905f90565b6010548110156127c25760105f5260205f2001905f90565b600e548110156127c257600e5f5260205f2001905f90565b600d548110156127c257600d5f5260205f2001905f90565b80548210156127c2575f5260205f2001905f90565b156129fb57565b60646040517f08c379a000000000000000000000000000000000000000000000000000000000815260206004820152601260248201527f7065726d6974323a206e6f206e617469766500000000000000000000000000006044820152fd5b91908203918211612a6657565b7f4e487b71000000000000000000000000000000000000000000000000000000005f52601160045260245ffd5b8115612a9d570490565b7f4e487b71000000000000000000000000000000000000000000000000000000005f52601260045260245ffd5b93929173ffffffffffffffffffffffffffffffffffffffff60608601921685526060602086015280518092526020608086019101915f5b818110612b1357505060409150930152565b8351835260209384019390920191600101612b01565b919091815190612b3882612930565b9380158015612bb2575b612bab57612b4f91612ca0565b612b5d5f82600f0b13612748565b5f925f5b838110612b7557505050506125dd90612748565b612b89612b8282846127ae565b51846133c8565b80612b9483896127ae565b52612ba2575b600101612b61565b60019450612b9a565b5050505090565b508215612b42565b15612bc157565b60646040517f08c379a000000000000000000000000000000000000000000000000000000000815260206004820152601460248201527f696e73756666696369656e742062616c616e63650000000000000000000000006044820152fd5b9091805191612c2d83612930565b9380158015612c8b575b612bab57612c4491612ca0565b90612c535f83600f0b13612748565b5f5b838110612c63575050505090565b80612c7a612c73600193856127ae565b5185613322565b612c8482886127ae565b5201612c55565b508315612c37565b91908201809211612a6657565b8115610d315777ffffffffffffffffffffffffffffffffffffffffffffffff8111612d185790612cd29160401b612a93565b6fffffffffffffffffffffffffffffffff8111610d31576fffffffffffffffffffffffffffffffff166f7fffffffffffffffffffffffffffffff8111610d3157600f0b90565b60c09181831c8093640100000000821015612ebd575b60028262010000612dbb941015612eb1575b610100811015612ea5575b6010811015612e99575b6004811015612e8e575b1015612e86575b8360017fffffffffffffffffffffffffffffffffffffffffffffffffffffffffffffffff85017fffffffffffffffffffffffffffffffffffffffffffffffffffffffffffffff4184011c019160ff031b612a93565b926fffffffffffffffffffffffffffffffff8411610d31578160801c8402906fffffffffffffffffffffffffffffffff8316850290809460401b90828210612e5c575b5003928160801b91828510612e33575b60801c03612e2857612e209203612a93565b905b01612cd2565b505050600190612e22565b907fffffffffffffffffffffffffffffffffffffffffffffffffffffffffffffffff0190612e0e565b7fffffffffffffffffffffffffffffffffffffffffffffffffffffffffffffffff0194505f612dfe565b600101612d66565b91810191811c612d5f565b6004928301921c612d55565b6008928301921c612d4b565b6010928301921c612d40565b505060e082811c90612d2e565b600f0b68010000000000000000017fffffffffffffffffffffffffffffffff8000000000000000000000000000000081121580612f0d575b15610d3157600f0b90565b506f7fffffffffffffffffffffffffffffff811315612f02565b90600f0b90600f0b017fffffffffffffffffffffffffffffffff8000000000000000000000000000000081121580612f0d5715610d3157600f0b90565b600f0b8015610d3157700100000000000000000000000000000000057fffffffffffffffffffffffffffffffff8000000000000000000000000000000081121580612f0d5715610d3157600f0b90565b90600f0b908115610d315760401b60170b057fffffffffffffffffffffffffffffffff8000000000000000000000000000000081121580612f0d5715610d3157600f0b90565b1561300157565b60646040517f08c379a000000000000000000000000000000000000000000000000000000000815260206004820152600960248201527f746f6f206c6172676500000000000000000000000000000000000000000000006044820152fd5b9392919093845190613072828410612619565b83600f0b5f8113908161330f575b50156132b15761309083876127ae565b51600f0b9261309e83612930565b5f5b84811061328f57505f975f5b8581106130fb575050505050506130ec92936130e26130e7926130ce8561461b565b946130dd5f87600f0b13612ffa565b6145b0565b612f27565b612fb4565b906128955f83600f0b13612748565b80846001920361310c575b016130ac565b8561312461311a83866127ae565b51600f0b8b6145b0565b8287875f84600f0b1361313c575b5050505050613106565b61319e61320f6131fc6131a76131ed6131df6131c76131c06131bb61323a9b6130dd61325d9f9b6131b16132269e6131896132159f61317a856145f0565b906130dd5f83600f0b13612ffa565b9d8e6131995f82600f0b13612ffa565b612f64565b9a8b95846127ae565b51600f0b926127ae565b51600f0b9061465d565b61469a565b938b6145b0565b6131bb6820000000000000000082600f0b1315612ffa565b6131e883612eca565b61465d565b906130e75f83600f0b13612ffa565b61320a5f82600f0b13612ffa565b6146fc565b906145b0565b9e8f906130e25f83600f0b13612ffa565b9d61323189896127ae565b51600f0b612f27565b61324488886127ae565b90600f0b905261325483876127ae565b51600f0b61465d565b61326782866127ae565b90600f0b90526132855f61327b83876127ae565b51600f0b13612ffa565b855f828787613132565b8061329c6001928b6127ae565b51600f0b6132aa82856127ae565b52016130a0565b60646040517f08c379a000000000000000000000000000000000000000000000000000000000815260206004820152600c60248201527f696e76616c6964206265746100000000000000000000000000000000000000006044820152fd5b680100000000000000009150125f613080565b9067ffffffffffffffff61333682846133c8565b921680156133595767ffffffffffffffff80921602166133535790565b60010190565b505090565b811561337357620f42409102620f423f010490565b50505f90565b5f9190825b81518410156133a9576133a160019161339786856127ae565b51600f0b90612f27565b93019261337e565b925050565b600f0b5f8112610d3157670de0b6b3a76400000260401c90565b811561337357600f0b5f8112610d31576fffffffffffffffffffffffffffffffff8216810260401c9160801c0277ffffffffffffffffffffffffffffffffffffffffffffffff8111610d315760401b81198111610d31570190565b907fffffffffffffffffffffffffffffffffffffffffffffffffffffffffffffffe0601f602080948051918291828752018686015e5f8582860101520116010190565b939796955f95909492917fffffffff00000000000000000000000000000000000000000000000000000000811680613690575050505073ffffffffffffffffffffffffffffffffffffffff16918233036136325773ffffffffffffffffffffffffffffffffffffffff169173ffffffffffffffffffffffffffffffffffffffff82169183831480613628575b1561357657505050803b156135725790808593926004604051809881937fd0e30db00000000000000000000000000000000000000000000000000000000083525af19485156135655783949561354a575b5050039091565b818093945061355891612276565b6106235790818392613543565b50604051903d90823e3d90fd5b5080fd5b909192508396959650604051917f23b872dd000000000000000000000000000000000000000000000000000000008552600452306024528560445260208460648180855af1906001855114821615613609575b509060405282606052156135dd5750509091565b602492507f5274afe7000000000000000000000000000000000000000000000000000000008252600452fd5b600182151661361f573b15153d1516165f6135c9565b823d86823e3d90fd5b50878610156134f2565b60646040517f08c379a000000000000000000000000000000000000000000000000000000000815260206004820152601960248201527f617070726f76616c3a2063616c6c657220213d207061796572000000000000006044820152fd5b7c010000000000000000000000000000000000000000000000000000000091929396959750999799145f146138e357505073ffffffffffffffffffffffffffffffffffffffff1633036138855773ffffffffffffffffffffffffffffffffffffffff80911692168281148061387b575b1561375c575050803b15610d31575f82916004604051809481937fd0e30db00000000000000000000000000000000000000000000000000000000083525af18015611f2d5761374e57509190565b5f61375891612276565b9190565b60249250602090604096949651938480927f70a082310000000000000000000000000000000000000000000000000000000082523060048301525afa918215611f2d575f92613845575b50906137d9826137cc6137bd6137df9560106129df565b90549060031b1c91600d6129df565b90549060031b1c90612c93565b90612a59565b928310156125dd5760646040517f08c379a000000000000000000000000000000000000000000000000000000000815260206004820152601e60248201527f496e73756666696369656e742070726566756e64696e6720616d6f756e7400006044820152fd5b91506020823d602011613873575b8161386060209383612276565b81010312610d31579051906137d96137a6565b3d9150613853565b5083471015613700565b60646040517f08c379a000000000000000000000000000000000000000000000000000000000815260206004820152601b60248201527f70726566756e64696e673a2063616c6c657220213d20706179657200000000006044820152fd5b93509373ffffffffffffffffffffffffffffffffffffffff9192509694961690604051927f70a08231000000000000000000000000000000000000000000000000000000008452306004850152602084602481865afa938415611f2d575f94613a9f575b50602494602093926139b46139b993613988600754946040519586938a8501528b8401528760448401528d60648401526080608484015260a4830190613423565b037fffffffffffffffffffffffffffffffffffffffffffffffffffffffffffffffe08101845283612276565b614829565b50604051938480927f70a082310000000000000000000000000000000000000000000000000000000082523060048301525afa8015611f2d575f90613a6b575b613a039250612a59565b928310613a0d5790565b60646040517f08c379a000000000000000000000000000000000000000000000000000000000815260206004820152601260248201527f496e73756666696369656e742066756e647300000000000000000000000000006044820152fd5b506020823d602011613a97575b81613a8560209383612276565b81010312610d3157613a0391516139f9565b3d9150613a78565b9093506020929192813d602011613ad2575b81613abe60209383612276565b81010312610d315751929091906024613947565b3d9150613ab1565b9091606082840312610d315781519260208301519260408101519067ffffffffffffffff8211610d31570181601f82011215610d3157805190613b1c8261250c565b92613b2a6040519485612276565b82845260208383010111610d3157815f9260208093018386015e8301015290565b5f613b55826145f0565b600f0b1315613c43578051600b915f5b828110613b725750505050565b5f613b7d82846127ae565b51600f0b1315613be557613b9181836127ae565b51600f0b9084548110156127c257600191855f52613bdd60205f2083851c019160108460041b168354906fffffffffffffffffffffffffffffffff809160031b9316831b921b19161790565b905501613b65565b60646040517f08c379a000000000000000000000000000000000000000000000000000000000815260206004820152600c60248201527f7a65726f2062616c616e636500000000000000000000000000000000000000006044820152fd5b60646040517f08c379a000000000000000000000000000000000000000000000000000000000815260206004820152601460248201527f4c4d53523a206e657720746f74616c207a65726f0000000000000000000000006044820152fd5b9073ffffffffffffffffffffffffffffffffffffffff821615613d3d577fddf252ad1be2c89b69c2b068fc378daa952ba7f163c4a11628f55a4df523b3ef60205f9273ffffffffffffffffffffffffffffffffffffffff6004850195613d08838854612c93565b8755169485158514613d24578181540390555b604051908152a3565b5084845260028401825260408420818154019055613d1b565b60646040517f08c379a000000000000000000000000000000000000000000000000000000000815260206004820152601360248201527f45524332303a206d696e7420746f207a65726f000000000000000000000000006044820152fd5b909293919380613f89575b15613ebd575073ffffffffffffffffffffffffffffffffffffffff1690813b15610d31576040517f2e1a7d4d0000000000000000000000000000000000000000000000000000000081525f816024818380978960048401525af18015611f2d57613ea8575b508180809481935af1903d15613ea2573d90613e268261250c565b91613e346040519384612276565b825260203d92013e5b15613e4457565b60646040517f08c379a000000000000000000000000000000000000000000000000000000000815260206004820152601460248201527f7265636569766572206e6f742070617961626c650000000000000000000000006044820152fd5b50613e3d565b613eb59192505f90612276565b5f905f613e0b565b92905073ffffffffffffffffffffffffffffffffffffffff604051927fa9059cbb000000000000000000000000000000000000000000000000000000005f521660045260245260205f60448180865af19060015f5114821615613f68575b60405215613f265750565b73ffffffffffffffffffffffffffffffffffffffff907f5274afe7000000000000000000000000000000000000000000000000000000005f521660045260245ffd5b906001811516613f8057823b15153d15161690613f1b565b503d5f823e3d90fd5b5073ffffffffffffffffffffffffffffffffffffffff821673ffffffffffffffffffffffffffffffffffffffff821614613da6565b7fffffffffffffffffffffffffffffffff00000000000000000000000000000000600a5416600a55600b545f600b5580613ff55750565b60010160011c600b5f5260205f205f5b82811061401157505050565b5f82820155600101614005565b602073ffffffffffffffffffffffffffffffffffffffff807f8c5be1e5ebec7d5bd14f71427d1e84f3dd0314c0f7b2291e5b200ac8c7c3b925931693845f526003835260405f208282165f5283528560405f20556040519586521693a3565b73ffffffffffffffffffffffffffffffffffffffff8116156141ae5773ffffffffffffffffffffffffffffffffffffffff16806140fe577fddf252ad1be2c89b69c2b068fc378daa952ba7f163c4a11628f55a4df523b3ef60205f93600485016140e8828254612c93565b90555b60048501818154039055604051908152a3565b60025f01815f528060205260405f205490838210614150575f937fddf252ad1be2c89b69c2b068fc378daa952ba7f163c4a11628f55a4df523b3ef9260209285875283528160408720910390556140eb565b60646040517f08c379a000000000000000000000000000000000000000000000000000000000815260206004820152601b60248201527f45524332303a20696e73756666696369656e742062616c616e636500000000006044820152fd5b60646040517f08c379a000000000000000000000000000000000000000000000000000000000815260206004820152601560248201527f45524332303a206275726e2066726f6d207a65726f00000000000000000000006044820152fd5b93916142316801000000000000000085600f0b61422a5f8213612748565b1315612ffa565b61423a826145f0565b6142485f82600f0b136126e3565b614254835191866145b0565b9561425e8661461b565b9261426883612930565b935f5b84811061456b57505061428b61428182876127ae565b51600f0b886145b0565b965f88600f0b13955f5b8581106142be57505050505050501580156142b1575b61274f57565b505f82600f0b13156142ab565b8381036142d1575b600101945b94614295565b6142e86142de82846127ae565b51600f0b846145b0565b5f81600f0b136142f9575b506142c6565b614308889b939b9992996145f0565b5f81600f0b131561455b5761431d90876145b0565b5f81600f0b131561455b5761433181612f64565b9261433c84846145b0565b80600f0b906820000000000000000082136144ff577fffffffffffffffffffffffffffffffff8000000000000000000000000000000061438e6131bb8f8f806131b18f936131a78e956130dd956127ae565b9214610d31576143a2905f03600f0b61469a565b80600f0b6f7fffffffffffffffffffffffffffffff8112614513575b506143d46143ce6143d99261461b565b836145b0565b612eca565b5f81600f0b13156144ff576143f06143f6916146fc565b846145b0565b94888c61440382826127ae565b51600f0b88600f0b1361446857905061442b945061445e9795935061323192508d91506127ae565b6144358a8a6127ae565b90600f0b905261444982613254878b6127ae565b614453868a6127ae565b90600f0b9052612f27565b97600196876142f3565b6131df9395975061448c9496506131bb9291614483916127ae565b51600f0b6145b0565b915f83600f0b13156144ed57506144d5939261320f61320a6144bb946144b194612fb4565b6132318a8a6127ae565b6144c589896127ae565b90600f0b905261339784886127ae565b975f6144e184886127ae565b526001809701946142cb565b999150506001915099919901946142cb565b5050999150506001915099919901946142cb565b60019150017fffffffffffffffffffffffffffffffff8000000000000000000000000000000081126f7fffffffffffffffffffffffffffffff821317612a66576143d46143be565b50509660019099919901946142cb565b8061457c836144836001948b6127ae565b61458682896127ae565b90600f0b90520161426b565b919080156145aa576145a4908361335e565b80920390565b505f9190565b90600f0b90600f0b0260401d7fffffffffffffffffffffffffffffffff8000000000000000000000000000000081121580612f0d5715610d3157600f0b90565b5f90815b81518310156146155761460d60019161339785856127ae565b9201916145f4565b91505090565b600f0b68010000000000000000037fffffffffffffffffffffffffffffffff8000000000000000000000000000000081121580612f0d5715610d3157600f0b90565b90600f0b90600f0b037fffffffffffffffffffffffffffffffff8000000000000000000000000000000081121580612f0d5715610d3157600f0b90565b600f0b68400000000000000000811215610d31577fffffffffffffffffffffffffffffffffffffffffffffffc0000000000000000081126146f757700171547652b82fe1777d0ffda0d23a7d126125dd910260801d600f0b6148f1565b505f90565b600f0b5f811315610d31575f90806801000000000000000082121561481c575b806401000000006002921215614810575b62010000811215614804575b6101008112156147f8575b60108112156147ec575b60048112156147e1575b12156147d7575b7fffffffffffffffffffffffffffffffffffffffffffffffffffffffffffffffc0820160401b91607f031b90678000000000000000915b5f83136147bb57506fb17217f7d1cf79abc9e3b39803f2f6af9150600f0b0260801d90565b8002908160ff1c9182607f011c918302019160011d9190614796565b906001019061475f565b92810192811d614758565b6004938401931d61474e565b6008938401931d614744565b6010938401931d614739565b6020938401931d61472d565b506040915080821d61471c565b905f809160208151910182855af180806148de575b1561485e5750506040513d81523d5f602083013e60203d82010160405290565b156148a55773ffffffffffffffffffffffffffffffffffffffff907f9996b315000000000000000000000000000000000000000000000000000000005f521660045260245ffd5b3d156148b6576040513d5f823e3d90fd5b7fd6bda275000000000000000000000000000000000000000000000000000000005f5260045ffd5b503d15158061483e5750813b151561483e565b80600f0b68400000000000000000811215610d31577fffffffffffffffffffffffffffffffffffffffffffffffc000000000000000008112613373576f80000000000000000000000000000000915f6780000000000000008216600f0b136154ed575b5f6740000000000000008216600f0b136154d0575b5f6720000000000000008216600f0b136154b3575b5f6710000000000000008216600f0b13615496575b5f6708000000000000008216600f0b13615479575b5f6704000000000000008216600f0b1361545c575b5f6702000000000000008216600f0b1361543f575b5f6701000000000000008216600f0b13615422575b5f66800000000000008216600f0b13615405575b5f66400000000000008216600f0b136153e8575b5f66200000000000008216600f0b136153cb575b5f66100000000000008216600f0b136153ae575b5f66080000000000008216600f0b13615391575b5f66040000000000008216600f0b13615374575b5f66020000000000008216600f0b13615357575b5f66010000000000008216600f0b1361533a575b5f658000000000008216600f0b1361531d575b5f654000000000008216600f0b13615300575b5f652000000000008216600f0b136152e3575b5f651000000000008216600f0b136152c6575b5f650800000000008216600f0b136152a9575b5f650400000000008216600f0b1361528c575b5f650200000000008216600f0b1361526f575b5f650100000000008216600f0b13615252575b5f6480000000008216600f0b13615235575b5f6440000000008216600f0b13615218575b5f6420000000008216600f0b136151fb575b5f6410000000008216600f0b136151de575b5f6408000000008216600f0b136151c1575b5f6404000000008216600f0b136151a4575b5f6402000000008216600f0b13615187575b5f6401000000008216600f0b1361516a575b5f63800000008216600f0b1361514d575b5f63400000008216600f0b13615130575b5f63200000008216600f0b13615113575b5f63100000008216600f0b136150f6575b5f63080000008216600f0b136150d9575b5f63040000008216600f0b136150bc575b5f63020000008216600f0b1361509f575b5f63010000008216600f0b13615082575b5f628000008216600f0b13615065575b5f624000008216600f0b13615048575b5f622000008216600f0b1361502b575b5f621000008216600f0b1361500e575b5f620800008216600f0b13614ff1575b5f620400008216600f0b13614fd4575b5f620200008216600f0b13614fb7575b5f620100008216600f0b13614f9a575b5f6180008216600f0b13614f7d575b5f6140008216600f0b13614f60575b5f6120008216600f0b13614f43575b5f6110008216600f0b13614f26575b5f6108008216600f0b13614f09575b5f6104008216600f0b13614eec575b5f6102008216600f0b13614ecf575b5f6101008216600f0b13614eb2575b5f60808216600f0b13614e95575b5f60408216600f0b13614e78575b5f60208216600f0b13614e5b575b5f60108216600f0b13614e3e575b5f60088216600f0b13614e21575b5f60048216600f0b13614e04575b5f60028216600f0b13614de6575b60015f9116600f0b13614dc9575b60401d600f0b603f03600f0b1c6f7fffffffffffffffffffffffffffffff8111610d3157600f0b90565b9070010000000000000000b17217f7d1cf79ab0260801c90614d9f565b7001000000000000000162e42fefa39ef35890920260801c91614d91565b9170010000000000000002c5c85fdf473de6b20260801c91614d83565b91700100000000000000058b90bfbe8e7bcd6d0260801c91614d75565b917001000000000000000b17217f7d1cf79afa0260801c91614d67565b91700100000000000000162e42fefa39ef366f0260801c91614d59565b917001000000000000002c5c85fdf473de6eca0260801c91614d4b565b9170010000000000000058b90bfbe8e7bce5440260801c91614d3d565b91700100000000000000b17217f7d1cf79e9490260801c91614d2f565b9170010000000000000162e42fefa39ef44d910260801c91614d20565b91700100000000000002c5c85fdf473dea871f0260801c91614d11565b917001000000000000058b90bfbe8e7bdcbe2e0260801c91614d02565b9170010000000000000b17217f7d1cf7d83c1a0260801c91614cf3565b917001000000000000162e42fefa39f02b772c0260801c91614ce4565b9170010000000000002c5c85fdf473e242ea380260801c91614cd5565b91700100000000000058b90bfbe8e7cc35c3f00260801c91614cc6565b917001000000000000b17217f7d1cfb72b45e10260801c91614cb7565b91700100000000000162e42fefa39fe95583c20260801c91614ca7565b917001000000000002c5c85fdf4741bea6e77e0260801c91614c97565b9170010000000000058b90bfbe8e8b2d3d4ede0260801c91614c87565b91700100000000000b17217f7d1d351a389d400260801c91614c77565b9170010000000000162e42fefa3ae53369388c0260801c91614c67565b91700100000000002c5c85fdf477b662b269450260801c91614c57565b917001000000000058b90bfbe8f71cb4e4b33d0260801c91614c47565b9170010000000000b17217f7d20cf927c8e94c0260801c91614c37565b917001000000000162e42fefa494f1478fde050260801c91614c26565b9170010000000002c5c85fdf4b15de6f17eb0d0260801c91614c15565b91700100000000058b90bfbe9ddbac5e109cce0260801c91614c04565b917001000000000b17217f7d5a7716bba4a9ae0260801c91614bf3565b91700100000000162e42fefb2fed257559bdaa0260801c91614be2565b917001000000002c5c85fdf84bd62ae30a74cc0260801c91614bd1565b9170010000000058b90bfbf8479bd5a81b51ad0260801c91614bc0565b91700100000000b17217f80f4ef5aadda455540260801c91614baf565b9170010000000162e42ff0999ce3541b9fffcf0260801c91614b9d565b91700100000002c5c85fe31f35a6a30da1be500260801c91614b8b565b917001000000058b90bfcdee5acd3c1cedc8230260801c91614b79565b9170010000000b17217fba9c739aa5819f44f90260801c91614b67565b917001000000162e42fff037df38aa2b219f060260801c91614b55565b9170010000002c5c8601cc6b9e94213c72737a0260801c91614b43565b91700100000058b90c0b48c6be5df846c5b2ef0260801c91614b31565b917001000000b1721835514b86e6d96efd1bfe0260801c91614b1f565b91700100000162e430e5a18f6119e3c02282a50260801c91614b0c565b917001000002c5c863b73f016468f6bac5ca2b0260801c91614af9565b9170010000058b90cf1e6d97f9ca14dbcc16280260801c91614ae6565b91700100000b1721bcfc99d9f890ea069117630260801c91614ad3565b9170010000162e43f4f831060e02d839a9d16d0260801c91614ac0565b91700100002c5c89d5ec6ca4d7c8acc017b7c90260801c91614aad565b917001000058b91b5bc9ae2eed81e9b7d4cfab0260801c91614a9a565b9170010000b17255775c040618bf4a4ade83fc0260801c91614a87565b917001000162e525ee054754457d59952920260260801c91614a73565b9170010002c5cc37da9491d0985c348c68e7b30260801c91614a5f565b91700100058ba01fb9f96d6cacd4b180917c3d0260801c91614a4b565b917001000b175effdc76ba38e31671ca9397250260801c91614a37565b91700100162f3904051fa128bca9c55c31e5df0260801c91614a23565b917001002c605e2e8cec506d21bfc89a23a00f0260801c91614a0f565b9170010058c86da1c09ea1ff19d294cf2f679b0260801c916149fb565b91700100b1afa5abcbed6129ab13ec11dc95430260801c916149e7565b9170010163da9fb33356d84a66ae336dcdfa3f0260801c916149d2565b91700102c9a3e778060ee6f7caca4f7a29bde80260801c916149bd565b917001059b0d31585743ae7c548eb68ca417fd0260801c916149a8565b9170010b5586cf9890f6298b92b71842a983630260801c91614993565b917001172b83c7d517adcdf7c8c50eb14a791f0260801c9161497e565b917001306fe0a31b7152de8d5a46305c85edec0260801c91614969565b6fb504f333f9de6484597d89b3754abe9f925061495456fea26469706673582212205bece0c5d5226d31f74cbe256ff61a12334f2bfe024074294b4f08d8bd281a2664736f6c63430008230033","linkReferences":{}},"methodIdentifiers":{"burn(address,address,uint256,uint256,bool,NativeWrapper)":"90250c0a","burnAmounts(uint256,uint256,uint256[])":"228fa850","burnSwap(address,address,uint256,uint256,uint256,uint256,bool,uint256,uint256,NativeWrapper)":"f1f99654","burnSwapAmounts(uint256,uint256,uint256,LMSRStabilized.State,uint256[],uint256)":"ddb47f88","initialMint(address,uint256,int128)":"c5eabfb9","mint(address,bytes4,address,uint256,uint256,bytes,NativeWrapper,IPermit2)":"1bcaf4e5","mintAmounts(uint256,uint256,uint256[])":"cdc2468b","swapMint(address,bytes4,address,uint256,uint256,uint256,uint256,bytes,uint256,uint256,NativeWrapper,IPermit2)":"955dace4","swapMintAmounts(uint256,uint256,uint256,LMSRStabilized.State,uint256[],uint256)":"046194d4"},"id":59}