{"abi":[{"type":"function","name":"deploy","inputs":[{"name":"owner_","type":"address","internalType":"address"},{"name":"name_","type":"string","internalType":"string"},{"name":"symbol_","type":"string","internalType":"string"},{"name":"tokens_","type":"address[]","internalType":"contract IERC20[]"},{"name":"kappa_","type":"int128","internalType":"int128"},{"name":"swapFeePpm_","type":"uint256","internalType":"uint256"},{"name":"flashFeePpm_","type":"uint256","internalType":"uint256"},{"name":"protocolFeePpm_","type":"uint256","internalType":"uint256"},{"name":"protocolFeeAddress_","type":"address","internalType":"address"},{"name":"wrapper_","type":"address","internalType":"contract NativeWrapper"},{"name":"swapImpl_","type":"address","internalType":"contract PartyPoolSwapImpl"},{"name":"mintImpl_","type":"address","internalType":"contract PartyPoolMintImpl"}],"outputs":[{"name":"","type":"address","internalType":"contract IPartyPool"}],"stateMutability":"nonpayable"}],"bytecode":{"object":"0x60808060405234601557615925908161001a8239f35b5f80fdfe60806040526004361015610011575f80fd5b5f3560e01c63d05529f614610024575f80fd5b346102f0576101807ffffffffffffffffffffffffffffffffffffffffffffffffffffffffffffffffc3601126102f05760043573ffffffffffffffffffffffffffffffffffffffff81168091036102f05760243567ffffffffffffffff81116102f057610095903690600401610365565b9060443567ffffffffffffffff81116102f0576100b6903690600401610365565b916064359067ffffffffffffffff82116102f057366023830112156102f057816004013567ffffffffffffffff81116102c3578060051b9260206100fb818601610321565b80938152019060248295820101903682116102f057602401915b8183106102f45750505060843580600f0b8091036102f0576101043573ffffffffffffffffffffffffffffffffffffffff81168091036102f057610124359173ffffffffffffffffffffffffffffffffffffffff83168093036102f057610144359373ffffffffffffffffffffffffffffffffffffffff85168095036102f057610164359573ffffffffffffffffffffffffffffffffffffffff87168097036102f057604051986154d79a8b8b019b8c67ffffffffffffffff8d82109111176102c3576020936101808e61020a958f946101fc9561041990398152818782015201906103d5565b8c810360408e0152906103d5565b918a830360608c015251918281520196905f5b8181106102975750505091610160939188936080899a015260a43560a085015260c43560c085015260e43560e0850152610100840152610120830152610140820152015203905ff0801561028c5760209073ffffffffffffffffffffffffffffffffffffffff60405191168152f35b6040513d5f823e3d90fd5b825173ffffffffffffffffffffffffffffffffffffffff1689526020988901989092019160010161021d565b7f4e487b71000000000000000000000000000000000000000000000000000000005f52604160045260245ffd5b5f80fd5b823573ffffffffffffffffffffffffffffffffffffffff811681036102f057815260209283019201610115565b907fffffffffffffffffffffffffffffffffffffffffffffffffffffffffffffffe0601f604051930116820182811067ffffffffffffffff8211176102c357604052565b81601f820112156102f05780359067ffffffffffffffff82116102c3576103b360207fffffffffffffffffffffffffffffffffffffffffffffffffffffffffffffffe0601f85011601610321565b92828452602083830101116102f057815f926020809301838601378301015290565b907fffffffffffffffffffffffffffffffffffffffffffffffffffffffffffffffe0601f602080948051918291828752018686015e5f858286010152011601019056fe610160604052346105fd576154d78038038061001a81610938565b928339810190610180818303126105fd576100348161095d565b60208201519091906001600160401b0381116105fd5783610056918301610971565b60408201516001600160401b0381116105fd5784610075918401610971565b60608301516001600160401b0381116105fd57830185601f820112156105fd578051906100a96100a4836109c2565b610938565b9660208884815201916020839460051b8201019182116105fd57602001915b81831061091857505050608084015180600f0b81036105fd5760a08501519060c08601519260e087015194610100610100890161095d565b610120890151999097906001600160a01b038b168b036105fd576101408a0151996001600160a01b038b168b036105fd5761016001519a6001600160a01b038c168c036105fd5760017f9b779b17422d0df92223018b32b4d1fa46e071723d6817e2486d003becc55f00556080526001600160a01b03168015610905575f80546001600160a01b03198116831782556001600160a01b0316907f8be0079c531659141344cd1fd0a4f28419497f9722a3daafe3b4186f6b6457e09080a38051906001600160401b0382116105285760045490600182811c921680156108fb575b602083101461081e5781601f8493116108ad575b50602090601f8311600114610847575f9261083c575b50508160011b915f199060031b1c1916176004555b8051906001600160401b0382116105285760055490600182811c92168015610832575b602083101461081e5781601f8493116107e2575b50602090601f831160011461077c575f92610771575b50508160011b915f199060031b1c1916176005555b60018951111561072c578851906001600160401b0382116105285768010000000000000000821161052857600a5482600a558083106106f2575b50600a5f5260205f205f5b8381106106d5575050505060a052620f424081101561069d5760c052620f42408110156106585760e052620f42408110156106135780158015610601575b156105fd5761010052600f80546001600160a01b0319166001600160a01b0392909216919091179055610140526101205280516007819055905f5b82811061059c5782610350816109ef565b8051906001600160401b0382116105285768010000000000000000821161052857602090600c5483600c55808410610580575b5001600c5f5260205f205f5b83811061056c57846103a0816109ef565b8051906001600160401b0382116105285768010000000000000000821161052857602090600e5483600e55808410610550575b5001600e5f5260205f205f5b83811061053c576103ef856109ef565b8051906001600160401b0382116105285768010000000000000000821161052857602090600b5483600b5580841061050c575b500190600b5f5260205f20915f5b8281106104f857604051614abf9081610a18823960805181818161091901528181610c930152818161251c0152612eee015260a0518181816116b60152611722015260c05181818161057c0152818161135701528181612021015281816124af015261302a015260e051818181611b05015261220f0152610100518181816105a20152818161078c0152818161137e0152818161180001528181611b30015261204701526101205181818161030c01526105ed0152610140518181816111da01526113cb0152f35b600190602083519301928186015501610430565b61052290600b5f5284845f2091820191016109d9565b83610422565b634e487b7160e01b5f52604160045260245ffd5b6001906020845194019381840155016103df565b61056690600e5f5284845f2091820191016109d9565b846103d3565b60019060208451940193818401550161038f565b61059690600c5f5284845f2091820191016109d9565b84610383565b60018101908181116105e95782518110156105d557602060018060a01b039160051b84010151165f52600d6020528060405f205561033f565b634e487b7160e01b5f52603260045260245ffd5b634e487b7160e01b5f52601160045260245ffd5b5f80fd5b506001600160a01b0382161515610304565b60405162461bcd60e51b815260206004820152601960248201527f506f6f6c3a2070726f746f636f6c20666565203e3d2070706d000000000000006044820152606490fd5b60405162461bcd60e51b815260206004820152601660248201527f506f6f6c3a20666c61736820666565203e3d2070706d000000000000000000006044820152606490fd5b60405162461bcd60e51b815260206004820152601060248201526f506f6f6c3a20666565203e3d2070706d60801b6044820152606490fd5b82516001600160a01b0316818301556020909201916001016102c6565b600a5f52610726907fc65a7bb8d6351c1cf70c95a316cc6a92839c986682d98bc35f958f4883f9d2a89081019084016109d9565b5f6102bb565b60405162461bcd60e51b815260206004820152601360248201527f506f6f6c3a206e656564203e31206173736574000000000000000000000000006044820152606490fd5b015190505f8061026c565b60055f9081528281209350601f198516905b8181106107ca57509084600195949392106107b2575b505050811b01600555610281565b01515f1960f88460031b161c191690555f80806107a4565b9293602060018192878601518155019501930161078e565b61080e9060055f5260205f20601f850160051c81019160208610610814575b601f0160051c01906109d9565b5f610256565b9091508190610801565b634e487b7160e01b5f52602260045260245ffd5b91607f1691610242565b015190505f8061020a565b60045f9081528281209350601f198516905b818110610895575090846001959493921061087d575b505050811b0160045561021f565b01515f1960f88460031b161c191690555f808061086f565b92936020600181928786015181550195019301610859565b60045f526108f5907f8a35acfbc15ff81a39ae7d344fd709f28e8600b4aa8c65c6b64bfe7fe36bd19b601f850160051c8101916020861061081457601f0160051c01906109d9565b5f6101f4565b91607f16916101e0565b631e4fbdf760e01b5f525f60045260245ffd5b82516001600160a01b03811681036105fd578152602092830192016100c8565b6040519190601f01601f191682016001600160401b0381118382101761052857604052565b51906001600160a01b03821682036105fd57565b81601f820112156105fd578051906001600160401b038211610528576109a0601f8301601f1916602001610938565b92828452602083830101116105fd57815f9260208093018386015e8301015290565b6001600160401b0381116105285760051b60200190565b8181106109e4575050565b5f81556001016109d9565b906109fc6100a4836109c2565b8281528092610a0d601f19916109c2565b019060203691013756fe608080604052600436101561001c575b50361561001a575f80fd5b005b5f905f3560e01c908163017504b6146127d457508063017cf6611461273657806306fdde03146125ed578063095ea7b3146125405780630d246214146124d257806310ebae831461247a57806318160ddd1461243f5780631f3a0e41146123ff57806323b872dd1461226b578063313ce5671461223257806331596a6a146121da57806341c0e1b514612153578063476e44b61461207d578063491e799814611f655780635cffe9de146119b05780636863f5bc146118235780636b4082d1146117ca5780636b7b9112146117485780636bba3f2f146116ec5780636d8d0ff3146116315780636ff97f1d1461153157806370a08231146114ce578063715018a61461143257806379a68d531461128b5780638da5cb5b1461123a5780638e499bcf146111fe578063951760661461118f57806395d89b4114611035578063a1af5b9a14610f7c578063a9059cbb14610f2c578063b3f1c93d14610e83578063bdbfec9914610636578063cb717f3a146104d8578063cce516b714610486578063d516b8c61461040b578063dd62ed3e14610392578063e4b50cb814610330578063f0d1ae4f146102c15763f2fde38b0361000f57346102be5760207ffffffffffffffffffffffffffffffffffffffffffffffffffffffffffffffffc3601126102be5773ffffffffffffffffffffffffffffffffffffffff61021d6128e3565b610225612d27565b1680156102925773ffffffffffffffffffffffffffffffffffffffff8254827fffffffffffffffffffffffff00000000000000000000000000000000000000008216178455167f8be0079c531659141344cd1fd0a4f28419497f9722a3daafe3b4186f6b6457e08380a380f35b6024827f1e4fbdf700000000000000000000000000000000000000000000000000000000815280600452fd5b80fd5b50346102be57807ffffffffffffffffffffffffffffffffffffffffffffffffffffffffffffffffc3601126102be57602060405173ffffffffffffffffffffffffffffffffffffffff7f0000000000000000000000000000000000000000000000000000000000000000168152f35b50346102be5760207ffffffffffffffffffffffffffffffffffffffffffffffffffffffffffffffffc3601126102be57602073ffffffffffffffffffffffffffffffffffffffff610382600435612b60565b90549060031b1c16604051908152f35b50346102be5760407ffffffffffffffffffffffffffffffffffffffffffffffffffffffffffffffffc3601126102be5773ffffffffffffffffffffffffffffffffffffffff60406103e16128e3565b92826103eb612906565b9416815260026020522091165f52602052602060405f2054604051908152f35b50346102be5760807ffffffffffffffffffffffffffffffffffffffffffffffffffffffffffffffffc3601126102be576064359081600f0b82036102be5761048261045e83604435602435600435613024565b92505050604093919351938493846040919493926060820195825260208201520152565b0390f35b50346102be57807ffffffffffffffffffffffffffffffffffffffffffffffffffffffffffffffffc3601126102be57602073ffffffffffffffffffffffffffffffffffffffff600f5416604051908152f35b5060a07ffffffffffffffffffffffffffffffffffffffffffffffffffffffffffffffffc3601126102be5761061261050e6128e3565b73ffffffffffffffffffffffffffffffffffffffff61052b612906565b81604051937f3dd3c8050000000000000000000000000000000000000000000000000000000060208601521660248401521660448201526044356064820152606435608482015260843560a48201527f000000000000000000000000000000000000000000000000000000000000000060c48201527f000000000000000000000000000000000000000000000000000000000000000060e482015260e481526105d661010482612972565b73ffffffffffffffffffffffffffffffffffffffff7f000000000000000000000000000000000000000000000000000000000000000016612d73565b602081519181808201938492010103126106325760209051604051908152f35b5f80fd5b506101007ffffffffffffffffffffffffffffffffffffffffffffffffffffffffffffffffc3601126102be5761066a6128e3565b90610673612906565b906064359060a435604435600f82900b8203610e7f5760e4359160c4358315158403610e7b576106a1612e3a565b6106b060ff6006541615612a47565b8015908115610e70575b5015610e12576106ce906084358684613024565b98859a93859c969893925073ffffffffffffffffffffffffffffffffffffffff6106f789612b60565b90549060031b1c169761078861076673ffffffffffffffffffffffffffffffffffffffff61072486612b60565b90549060031b1c169b610738818d8d612ed6565b61076161074485612b48565b90549060031b1c61075486612b03565b90549060031b1c90612b90565b612b90565b9761078361077386612b48565b90549060031b1c61075487612b03565b612aac565b8b977f00000000000000000000000000000000000000000000000000000000000000008e81151580610e09575b610d80575b50506108589161083a6107fb61084f936107e56107d688612b03565b90549060031b1c821015612b9d565b6107ee87612b03565b90549060031b1c90612aac565b61080486612b48565b9091907fffffffffffffffffffffffffffffffffffffffffffffffffffffffffffffffff83549160031b92831b921b1916179055565b6108466107d687612b03565b6107ee86612b03565b61080485612b48565b61086e6007548083109081610d76575b506131c2565b8a82600f0b1315610d18578a84600f0b1315610cba576108f7936108df826108b76108b16108b7966108a26108b197613227565b90549060031b1c600f0b6132d2565b91613227565b9091906fffffffffffffffffffffffffffffffff83549160031b928116831b921b1916179055565b6108e884613227565b90549060031b1c600f0b61332a565b80610c7b575b15610b8a5773ffffffffffffffffffffffffffffffffffffffff7f000000000000000000000000000000000000000000000000000000000000000016803b15610b865786809160248c60405194859384927f2e1a7d4d00000000000000000000000000000000000000000000000000000000845260048401525af18015610b7b57908791610b62575b508080808c855af13d15610b5d573d67ffffffffffffffff8111610b3057604051906109da60207fffffffffffffffffffffffffffffffffffffffffffffffffffffffffffffffe0601f8401160183612972565b81528760203d92013e5b15610ad25773ffffffffffffffffffffffffffffffffffffffff60a0917f6950339c7661cca450281e53722525cc136590e622b011d5be7e4c4993685a6c935b610a2e818b612aac565b83604051971687528b60208801528c6040880152606087015260808601521692a460017f9b779b17422d0df92223018b32b4d1fa46e071723d6817e2486d003becc55f00554780158015610aa1575b50505061048290604051938493846040919493926060820195825260208201520152565b8280809381938290610ac9575b3390f115610abd578080610a7d565b604051903d90823e3d90fd5b506108fc610aae565b60646040517f08c379a000000000000000000000000000000000000000000000000000000000815260206004820152601460248201527f7265636569766572206e6f742070617961626c650000000000000000000000006044820152fd5b6024887f4e487b710000000000000000000000000000000000000000000000000000000081526041600452fd5b6109e4565b81610b6c91612972565b610b7757855f610986565b8580fd5b6040513d89823e3d90fd5b8680fd5b906040517fa9059cbb00000000000000000000000000000000000000000000000000000000875273ffffffffffffffffffffffffffffffffffffffff831660045289602452602087604481808a5af1906001885114821615610c5a575b60405215610c2e5773ffffffffffffffffffffffffffffffffffffffff7f6950339c7661cca450281e53722525cc136590e622b011d5be7e4c4993685a6c9260a092610a24565b602486867f5274afe7000000000000000000000000000000000000000000000000000000008252600452fd5b906001811516610c7257863b15153d15161690610be7565b503d87823e3d90fd5b5073ffffffffffffffffffffffffffffffffffffffff7f00000000000000000000000000000000000000000000000000000000000000001685146108fd565b60646040517f08c379a000000000000000000000000000000000000000000000000000000000815260206004820152601460248201527f4c4d53523a20616d6f756e744f7574203c3d20300000000000000000000000006044820152fd5b60646040517f08c379a000000000000000000000000000000000000000000000000000000000815260206004820152601360248201527f4c4d53523a20616d6f756e74496e203c3d2030000000000000000000000000006044820152fd5b905084105f610868565b61084f929a506107fb620f4240610d9e610858969461083a94612ab9565b049b8c610db1575b93505050918e6107ba565b610e048d610dd0610dc18a612b03565b91909283548360031b1c612b90565b907fffffffffffffffffffffffffffffffffffffffffffffffffffffffffffffffff83549160031b92831b921b1916179055565b610da6565b508015156107b5565b60646040517f08c379a000000000000000000000000000000000000000000000000000000000815260206004820152601760248201527f737761703a20646561646c696e652065786365656465640000000000000000006044820152fd5b90504211155f6106ba565b8480fd5b8280fd5b5060807ffffffffffffffffffffffffffffffffffffffffffffffffffffffffffffffffc3601126102be57610612610eb96128e3565b73ffffffffffffffffffffffffffffffffffffffff610ed6612906565b81604051937fb3f1c93d00000000000000000000000000000000000000000000000000000000602086015216602484015216604482015260443560648201526064356084820152608481526105d660a482612972565b50346102be5760407ffffffffffffffffffffffffffffffffffffffffffffffffffffffffffffffffc3601126102be57610f71610f676128e3565b6024359033612c02565b602060405160018152f35b50346102be57807ffffffffffffffffffffffffffffffffffffffffffffffffffffffffffffffffc3601126102be57610fb3612e3a565b61100d73ffffffffffffffffffffffffffffffffffffffff600f5416604051907f2a54db010000000000000000000000000000000000000000000000000000000060208301526024820152602481526105d6604482612972565b5060017f9b779b17422d0df92223018b32b4d1fa46e071723d6817e2486d003becc55f005580f35b50346102be57807ffffffffffffffffffffffffffffffffffffffffffffffffffffffffffffffffc3601126102be576040519080600554908160011c91600181168015611185575b6020841081146111585783865290811561111357506001146110b6575b610482846110aa81860382612972565b6040519182918261289b565b600581527f036b6384b5eca791c62761152d0c79bb0604c104a5fb6f4eb0703f3154bb3db0939250905b8082106110f9575090915081016020016110aa8261109a565b9192600181602092548385880101520191019092916110e0565b7fffffffffffffffffffffffffffffffffffffffffffffffffffffffffffffff001660208087019190915292151560051b850190920192506110aa915083905061109a565b6024837f4e487b710000000000000000000000000000000000000000000000000000000081526022600452fd5b92607f169261107d565b50346102be57807ffffffffffffffffffffffffffffffffffffffffffffffffffffffffffffffffc3601126102be57602060405173ffffffffffffffffffffffffffffffffffffffff7f0000000000000000000000000000000000000000000000000000000000000000168152f35b50346102be57807ffffffffffffffffffffffffffffffffffffffffffffffffffffffffffffffffc3601126102be576020600a54604051908152f35b50346102be57807ffffffffffffffffffffffffffffffffffffffffffffffffffffffffffffffffc3601126102be5773ffffffffffffffffffffffffffffffffffffffff6020915416604051908152f35b5060e07ffffffffffffffffffffffffffffffffffffffffffffffffffffffffffffffffc3601126102be576112be6128e3565b6112c6612906565b9060843580600f0b80910361142e5760c43590811515809203610e7b5773ffffffffffffffffffffffffffffffffffffffff6113f09481604051957f8a3d858d0000000000000000000000000000000000000000000000000000000060208801521660248601521660448401526044356064840152606435608484015260a483015260a43560c483015260e48201527f00000000000000000000000000000000000000000000000000000000000000006101048201527f000000000000000000000000000000000000000000000000000000000000000061012482015261012481526113b461014482612972565b73ffffffffffffffffffffffffffffffffffffffff7f000000000000000000000000000000000000000000000000000000000000000016612d73565b906060828051810103126102be5750602081015161048260606040840151930151604051938493846040919493926060820195825260208201520152565b8380fd5b50346102be57807ffffffffffffffffffffffffffffffffffffffffffffffffffffffffffffffffc3601126102be57611469612d27565b8073ffffffffffffffffffffffffffffffffffffffff81547fffffffffffffffffffffffff000000000000000000000000000000000000000081168355167f8be0079c531659141344cd1fd0a4f28419497f9722a3daafe3b4186f6b6457e08280a380f35b50346102be5760207ffffffffffffffffffffffffffffffffffffffffffffffffffffffffffffffffc3601126102be57604060209173ffffffffffffffffffffffffffffffffffffffff6115206128e3565b168152600183522054604051908152f35b50346102be57807ffffffffffffffffffffffffffffffffffffffffffffffffffffffffffffffffc3601126102be57604051806020600a5491828152018091600a85527fc65a7bb8d6351c1cf70c95a316cc6a92839c986682d98bc35f958f4883f9d2a890855b81811061160557505050826115ae910383612972565b604051928392602084019060208552518091526040840192915b8181106115d6575050500390f35b825173ffffffffffffffffffffffffffffffffffffffff168452859450602093840193909201916001016115c8565b825473ffffffffffffffffffffffffffffffffffffffff16845260209093019260019283019201611598565b5060407ffffffffffffffffffffffffffffffffffffffffffffffffffffffffffffffffc3601126102be576106126116676128e3565b73ffffffffffffffffffffffffffffffffffffffff604051917fc5eabfb900000000000000000000000000000000000000000000000000000000602084015216602482015260243560448201527f0000000000000000000000000000000000000000000000000000000000000000600f0b6064820152606481526105d6608482612972565b50346102be57807ffffffffffffffffffffffffffffffffffffffffffffffffffffffffffffffffc3601126102be5760206040517f0000000000000000000000000000000000000000000000000000000000000000600f0b8152f35b50346102be5760207ffffffffffffffffffffffffffffffffffffffffffffffffffffffffffffffffc3601126102be5773ffffffffffffffffffffffffffffffffffffffff6117956128e3565b61179d612d27565b167fffffffffffffffffffffffff0000000000000000000000000000000000000000600f541617600f5580f35b50346102be57807ffffffffffffffffffffffffffffffffffffffffffffffffffffffffffffffffc3601126102be5760206040517f00000000000000000000000000000000000000000000000000000000000000008152f35b50346102be5760a07ffffffffffffffffffffffffffffffffffffffffffffffffffffffffffffffffc3601126102be5761185b6128e3565b611863612906565b9060843580151580910361142e5773ffffffffffffffffffffffffffffffffffffffff6118e59381604051947f6863f5bc0000000000000000000000000000000000000000000000000000000060208701521660248501521660448301526044356064830152606435608483015260a482015260a481526105d660c482612972565b8051810190602081818401930312610e7f5760208101519067ffffffffffffffff821161142e57019181603f840112156102be5760208301519267ffffffffffffffff8411611983578360051b91604051946119446020850187612972565b855260208080870194840101019384116102be5750604001905b82821061197357604051806104828682612862565b815181526020918201910161195e565b6024827f4e487b710000000000000000000000000000000000000000000000000000000081526041600452fd5b346106325760807ffffffffffffffffffffffffffffffffffffffffffffffffffffffffffffffffc3601126106325760043573ffffffffffffffffffffffffffffffffffffffff811680910361063257611a08612906565b9060443560643567ffffffffffffffff811161063257366023820112156106325780600401359367ffffffffffffffff85116106325736602486840101116106325773ffffffffffffffffffffffffffffffffffffffff90611a68612e3a565b611a7760ff6006541615612a47565b16936040517f70a08231000000000000000000000000000000000000000000000000000000008152306004820152602081602481895afa908115611db2575f91611f33575b50831161063257845f52600d60205260405f20548015611ed5577fffffffffffffffffffffffffffffffffffffffffffffffffffffffffffffffff8101908111611ea857611b2a7f000000000000000000000000000000000000000000000000000000000000000085612eb1565b50925f927f000000000000000000000000000000000000000000000000000000000000000080151580611e9f575b611e5f575b50876040517fa9059cbb000000000000000000000000000000000000000000000000000000005f52886004528760245260205f60448180865af19060015f5114821615611e3a575b60405215611e0f5760c487917fffffffffffffffffffffffffffffffffffffffffffffffffffffffffffffffe0601f856020966024604051998a9889977f23e30c8b0000000000000000000000000000000000000000000000000000000089523360048a01528389015260448801528d606488015260a060848801528260a488015201868601375f858286010152011681010301815f8a5af18015611db2575f90611dbd575b7f439148f0bbc682ca079e46d6e2c2f0c1e3b820f1a291b069d8882abf8cf18dd991500361063257611c87611c808486612b90565b8787612ed6565b6040517f70a082310000000000000000000000000000000000000000000000000000000081523060048201526020816024818a5afa908115611db2575f91611d5e575b507f249e0bf62ff982342c6a63926041694a221796af4b9ebacefc45823da42348139361078383610804611d118795611d086107d6611d1799612b03565b6107ee84612b03565b91612b48565b6040805194855260208501919091528301523391606090a460017f9b779b17422d0df92223018b32b4d1fa46e071723d6817e2486d003becc55f0055602060405160018152f35b9190506020823d602011611daa575b81611d7a60209383612972565b810103126106325790517f249e0bf62ff982342c6a63926041694a221796af4b9ebacefc45823da4234813611cca565b3d9150611d6d565b6040513d5f823e3d90fd5b506020813d602011611e07575b81611dd760209383612972565b81010312610632577f439148f0bbc682ca079e46d6e2c2f0c1e3b820f1a291b069d8882abf8cf18dd99051611c4b565b3d9150611dca565b7f5274afe7000000000000000000000000000000000000000000000000000000005f5260045260245ffd5b91506001811516611e5657908991823b15153d15161690611ba5565b503d5f823e3d90fd5b620f4240919450611e709086612ab9565b049283611e7e575b88611b5d565b611e9a611e8a84612b03565b610dd08783548360031b1c612b90565b611e78565b50851515611b58565b7f4e487b71000000000000000000000000000000000000000000000000000000005f52601160045260245ffd5b60646040517f08c379a000000000000000000000000000000000000000000000000000000000815260206004820152601860248201527f666c6173683a20746f6b656e206e6f7420696e20706f6f6c00000000000000006044820152fd5b90506020813d602011611f5d575b81611f4e60209383612972565b81010312610632575186611abc565b3d9150611f41565b346106325760c07ffffffffffffffffffffffffffffffffffffffffffffffffffffffffffffffffc36011261063257611f9c6128e3565b611fa4612906565b9060a4358015158091036106325773ffffffffffffffffffffffffffffffffffffffff6106129381604051947f8d01fa440000000000000000000000000000000000000000000000000000000060208701521660248501521660448301526044356064830152606435608483015260843560a483015260c48201527f000000000000000000000000000000000000000000000000000000000000000060e48201527f000000000000000000000000000000000000000000000000000000000000000061010482015261010481526105d661012482612972565b34610632575f7ffffffffffffffffffffffffffffffffffffffffffffffffffffffffffffffffc360112610632576060604080516120ba81612929565b5f81525f602082015201526040516120d181612929565b6007548152600854600f0b602082019081526120eb6129b3565b916040810192835260405192839260208452608084019251602085015251600f0b604084015251906060808401528151809152602060a084019201905f5b818110612137575050500390f35b8251600f0b845285945060209384019390920191600101612129565b34610632575f7ffffffffffffffffffffffffffffffffffffffffffffffffffffffffffffffffc36011261063257612189612d27565b60017fffffffffffffffffffffffffffffffffffffffffffffffffffffffffffffff0060065416176006557f0f8eeedbc400fd6686703559f58d1e6143fdaed533f19a86c93d67a2fe4fb3315f80a1005b34610632575f7ffffffffffffffffffffffffffffffffffffffffffffffffffffffffffffffffc3601126106325760206040517f00000000000000000000000000000000000000000000000000000000000000008152f35b34610632575f7ffffffffffffffffffffffffffffffffffffffffffffffffffffffffffffffffc36011261063257602060405160128152f35b346106325760607ffffffffffffffffffffffffffffffffffffffffffffffffffffffffffffffffc360112610632576122a26128e3565b6122aa612906565b6044359073ffffffffffffffffffffffffffffffffffffffff831692835f52600260205260405f2073ffffffffffffffffffffffffffffffffffffffff33165f5260205260405f20547fffffffffffffffffffffffffffffffffffffffffffffffffffffffffffffffff8110612326575b50610f719350612c02565b8381106123cb57841561239f57331561237357610f71945f52600260205260405f2073ffffffffffffffffffffffffffffffffffffffff33165f526020528360405f20910390558461231b565b7f94280d62000000000000000000000000000000000000000000000000000000005f525f60045260245ffd5b7fe602df05000000000000000000000000000000000000000000000000000000005f525f60045260245ffd5b83907ffb8f41b2000000000000000000000000000000000000000000000000000000005f523360045260245260445260645ffd5b34610632575f7ffffffffffffffffffffffffffffffffffffffffffffffffffffffffffffffffc36011261063257602060ff600654166040519015158152f35b34610632575f7ffffffffffffffffffffffffffffffffffffffffffffffffffffffffffffffffc360112610632576020600354604051908152f35b34610632575f7ffffffffffffffffffffffffffffffffffffffffffffffffffffffffffffffffc3601126106325760206040517f00000000000000000000000000000000000000000000000000000000000000008152f35b34610632575f7ffffffffffffffffffffffffffffffffffffffffffffffffffffffffffffffffc36011261063257602060405173ffffffffffffffffffffffffffffffffffffffff7f0000000000000000000000000000000000000000000000000000000000000000168152f35b346106325760407ffffffffffffffffffffffffffffffffffffffffffffffffffffffffffffffffc360112610632576125776128e3565b60243590331561239f5773ffffffffffffffffffffffffffffffffffffffff1690811561237357335f52600260205260405f20825f526020528060405f20556040519081527f8c5be1e5ebec7d5bd14f71427d1e84f3dd0314c0f7b2291e5b200ac8c7c3b92560203392a3602060405160018152f35b34610632575f7ffffffffffffffffffffffffffffffffffffffffffffffffffffffffffffffffc360112610632576040515f6004548060011c9060018116801561272c575b6020831081146126ff578285529081156126bd575060011461265f575b610482836110aa81850382612972565b91905060045f527f8a35acfbc15ff81a39ae7d344fd709f28e8600b4aa8c65c6b64bfe7fe36bd19b915f905b8082106126a3575090915081016020016110aa61264f565b91926001816020925483858801015201910190929161268b565b7fffffffffffffffffffffffffffffffffffffffffffffffffffffffffffffff001660208086019190915291151560051b840190910191506110aa905061264f565b7f4e487b71000000000000000000000000000000000000000000000000000000005f52602260045260245ffd5b91607f1691612632565b34610632575f7ffffffffffffffffffffffffffffffffffffffffffffffffffffffffffffffffc36011261063257604051806020600c54918281520190600c5f527fdf6966c971051c3d54ec59162606531493a51404a002842f56009d7e5cf4a8c7905f5b8181106127be57610482856127b281870382612972565b60405191829182612862565b825484526020909301926001928301920161279b565b34610632575f7ffffffffffffffffffffffffffffffffffffffffffffffffffffffffffffffffc36011261063257600b548082526020820190600b5f527f0175b7a638427703f0dbe7bb9bbf987a2551717b34e79f33b5b1008d1fa01db9905f5b81811061284c57610482856127b281870382612972565b8254845260209093019260019283019201612835565b60206040818301928281528451809452019201905f5b8181106128855750505090565b8251845260209384019390920191600101612878565b7fffffffffffffffffffffffffffffffffffffffffffffffffffffffffffffffe0601f602060409481855280519182918282880152018686015e5f8582860101520116010190565b6004359073ffffffffffffffffffffffffffffffffffffffff8216820361063257565b6024359073ffffffffffffffffffffffffffffffffffffffff8216820361063257565b6060810190811067ffffffffffffffff82111761294557604052565b7f4e487b71000000000000000000000000000000000000000000000000000000005f52604160045260245ffd5b90601f7fffffffffffffffffffffffffffffffffffffffffffffffffffffffffffffffe0910116810190811067ffffffffffffffff82111761294557604052565b60405190600954808352826020810160095f5260205f20925f905b806001830110612a1b576129f4945491818110612a07575b106129f6575b500383612972565b565b60801d600f0b81526020015f6129ec565b92602060019184600f0b81520193016129e6565b9160029193506040600191865480600f0b825260801d600f0b60208201520194019201859293916129ce565b15612a4e57565b60646040517f08c379a000000000000000000000000000000000000000000000000000000000815260206004820152600660248201527f6b696c6c656400000000000000000000000000000000000000000000000000006044820152fd5b91908203918211611ea857565b81810292918115918404141715611ea857565b8115612ad6570490565b7f4e487b71000000000000000000000000000000000000000000000000000000005f52601260045260245ffd5b600b54811015612b1b57600b5f5260205f2001905f90565b7f4e487b71000000000000000000000000000000000000000000000000000000005f52603260045260245ffd5b600e54811015612b1b57600e5f5260205f2001905f90565b600a54811015612b1b57600a5f5260205f2001905f90565b600c54811015612b1b57600c5f5260205f2001905f90565b91908201809211611ea857565b15612ba457565b60646040517f08c379a000000000000000000000000000000000000000000000000000000000815260206004820152601760248201527f62616c616e6365203c2070726f746f636f6c206f7765640000000000000000006044820152fd5b73ffffffffffffffffffffffffffffffffffffffff16908115612cfb5773ffffffffffffffffffffffffffffffffffffffff16918215612ccf57815f52600160205260405f2054818110612c9d57817fddf252ad1be2c89b69c2b068fc378daa952ba7f163c4a11628f55a4df523b3ef92602092855f52600184520360405f2055845f526001825260405f20818154019055604051908152a3565b827fe450d38c000000000000000000000000000000000000000000000000000000005f5260045260245260445260645ffd5b7fec442f05000000000000000000000000000000000000000000000000000000005f525f60045260245ffd5b7f96c6fd1e000000000000000000000000000000000000000000000000000000005f525f60045260245ffd5b73ffffffffffffffffffffffffffffffffffffffff5f54163303612d4757565b7f118cdaa7000000000000000000000000000000000000000000000000000000005f523360045260245ffd5b905f8091602081519101845af48080612e27575b15612da75750506040513d81523d5f602083013e60203d82010160405290565b15612dee5773ffffffffffffffffffffffffffffffffffffffff907f9996b315000000000000000000000000000000000000000000000000000000005f521660045260245ffd5b3d15612dff576040513d5f823e3d90fd5b7fd6bda275000000000000000000000000000000000000000000000000000000005f5260045ffd5b503d151580612d875750813b1515612d87565b60027f9b779b17422d0df92223018b32b4d1fa46e071723d6817e2486d003becc55f005414612e895760027f9b779b17422d0df92223018b32b4d1fa46e071723d6817e2486d003becc55f0055565b7f3ee5aeb5000000000000000000000000000000000000000000000000000000005f5260045ffd5b91908015612ed057612ec6612ecd9184613267565b8093612aac565b90565b505f9190565b9073ffffffffffffffffffffffffffffffffffffffff7f0000000000000000000000000000000000000000000000000000000000000000169173ffffffffffffffffffffffffffffffffffffffff8216918383148061301a575b15612f8657505050803b15610632575f906004604051809481937fd0e30db00000000000000000000000000000000000000000000000000000000083525af18015611db257612f7c5750565b5f6129f491612972565b919390925073ffffffffffffffffffffffffffffffffffffffff604051937f23b872dd000000000000000000000000000000000000000000000000000000005f52166004523060245260445260205f60648180855af19060015f5114821615612ffb575b50906040525f60605215611e0f5750565b6001821516613011573b15153d1516165f612fea565b823d5f823e3d90fd5b5084341015612f30565b919392937f00000000000000000000000000000000000000000000000000000000000000009461306f6130578784612eb1565b905061306286612b78565b90549060031b1c90613367565b905f82600f0b131561316457613098918486600754600854600f0b6130926129b3565b91613600565b9190926130b783946130aa8197612b78565b90549060031b1c906132a0565b925f92849880613143575b5088116130e5576130d56130e292612b78565b90549060031b1c90613591565b94565b60646040517f08c379a000000000000000000000000000000000000000000000000000000000815260206004820152601a60248201527f737761703a207472616e736665722065786365656473206d61780000000000006044820152fd5b90985061315291935084613267565b9161315d8385612b90565b975f6130c2565b60646040517f08c379a000000000000000000000000000000000000000000000000000000000815260206004820152601f60248201527f737761703a20696e70757420746f6f20736d616c6c20616674657220666565006044820152fd5b156131c957565b60646040517f08c379a000000000000000000000000000000000000000000000000000000000815260206004820152600960248201527f4c4d53523a2069647800000000000000000000000000000000000000000000006044820152fd5b90600954821015612b1b5760095f52600182901c7f6e1540171b6c0c960b71a7020d9f60077f6af931a8bbf590da0223dacf75c7af019160041b60101690565b90801561329a5761327791612ab9565b620f4240810190818111611ea857620f423f01908111611ea857620f4240900490565b50505f90565b6132b46132ad8383613591565b9283613367565b90600f0b90600f0b126132c45790565b60018101809111611ea85790565b90600f0b90600f0b017fffffffffffffffffffffffffffffffff8000000000000000000000000000000081121580613310575b1561063257600f0b90565b506f7fffffffffffffffffffffffffffffff811315613305565b90600f0b90600f0b037fffffffffffffffffffffffffffffffff8000000000000000000000000000000081121580613310571561063257600f0b90565b81156106325777ffffffffffffffffffffffffffffffffffffffffffffffff81116133df57906133999160401b612acc565b6fffffffffffffffffffffffffffffffff8111610632576fffffffffffffffffffffffffffffffff166f7fffffffffffffffffffffffffffffff811161063257600f0b90565b60c09181831c8093640100000000821015613584575b60028262010000613482941015613578575b61010081101561356c575b6010811015613560575b6004811015613555575b101561354d575b8360017fffffffffffffffffffffffffffffffffffffffffffffffffffffffffffffffff85017fffffffffffffffffffffffffffffffffffffffffffffffffffffffffffffff4184011c019160ff031b612acc565b926fffffffffffffffffffffffffffffffff8411610632578160801c8402906fffffffffffffffffffffffffffffffff8316850290809460401b90828210613523575b5003928160801b918285106134fa575b60801c036134ef576134e79203612acc565b905b01613399565b5050506001906134e9565b907fffffffffffffffffffffffffffffffffffffffffffffffffffffffffffffffff01906134d5565b7fffffffffffffffffffffffffffffffffffffffffffffffffffffffffffffffff0194505f6134c5565b60010161342d565b91810191811c613426565b6004928301921c61341c565b6008928301921c613412565b6010928301921c613407565b505060e082811c906133f5565b811561329a57600f0b5f8112610632576fffffffffffffffffffffffffffffffff8216810260401c9160801c0277ffffffffffffffffffffffffffffffffffffffffffffffff81116106325760401b81198111610632570190565b8051821015612b1b5760209160051b010190565b61361c909793969491979592958088109081613c9c57506131c2565b81935f965f975b875189101561364e5761364660019161363c8b8b6135ec565b51600f0b906132d2565b980197613623565b909294975097909294975f81600f0b1315613c3e5761366c91613ca6565b9384600f0b5f811315613be057801561063257700100000000000000000000000000000000057fffffffffffffffffffffffffffffffff8000000000000000000000000000000081121580613bc6575b1561063257600f0b915f6136d086896135ec565b51600f0b1315613b685761370b836137066136ee613710948b6135ec565b51600f0b6136fc898c6135ec565b51600f0b9061332a565b613ca6565b613ce6565b9283600f0b905f821315613b0a5780600f0b5f8113613909575b5050509061373791613ca6565b80600f0b682000000000000000008113613885577fffffffffffffffffffffffffffffffff80000000000000000000000000000000146106325761377f905f03600f0b613ce6565b600f0b6801000000000000000003907fffffffffffffffffffffffffffffffff800000000000000000000000000000008212158061386b575b15610632576137ca91600f0b90613ca6565b600f0b68010000000000000000017fffffffffffffffffffffffffffffffff8000000000000000000000000000000081121580613851575b1561063257600f0b925f84131561383d57505061382161382792613d48565b90613ca6565b905f82600f0b131561383557565b5f9250829150565b90915061384a92506135ec565b51600f0b90565b506f7fffffffffffffffffffffffffffffff811315613802565b506f7fffffffffffffffffffffffffffffff8213156137b8565b60846040517f08c379a000000000000000000000000000000000000000000000000000000000815260206004820152602860248201527f4c4d53523a20612f6220746f6f206c617267652028776f756c64206f7665726660448201527f6c6f7720657870290000000000000000000000000000000000000000000000006064820152fd5b5f8312613aac578215908115613920575b5061372a565b83909b949b1315613a28576106325760401b60170b057fffffffffffffffffffffffffffffffff8000000000000000000000000000000081121580613a0e575b1561063257600f0b5f8113156139b05761397c61398291613d48565b86613ca6565b9780600f0b89600f0b125f146139a457505061373790875b90915f808061391a565b6137379291985061399a565b60646040517f08c379a000000000000000000000000000000000000000000000000000000000815260206004820152600e60248201527f4c4d53523a20726174696f3c3d300000000000000000000000000000000000006044820152fd5b506f7fffffffffffffffffffffffffffffff811315613960565b60846040517f08c379a000000000000000000000000000000000000000000000000000000000815260206004820152602160248201527f4c4d53523a206c696d69745072696365203c3d2063757272656e74207072696360448201527f65000000000000000000000000000000000000000000000000000000000000006064820152fd5b60646040517f08c379a000000000000000000000000000000000000000000000000000000000815260206004820152600a60248201527f4c4d53523a2072303c30000000000000000000000000000000000000000000006044820152fd5b60646040517f08c379a000000000000000000000000000000000000000000000000000000000815260206004820152600b60248201527f4c4d53523a2072303c3d300000000000000000000000000000000000000000006044820152fd5b60646040517f08c379a000000000000000000000000000000000000000000000000000000000815260206004820152600c60248201527f4c4d53523a20655f6a3d3d3000000000000000000000000000000000000000006044820152fd5b506f7fffffffffffffffffffffffffffffff8113156136bc565b60646040517f08c379a000000000000000000000000000000000000000000000000000000000815260206004820152600a60248201527f4c4d53523a20623c3d30000000000000000000000000000000000000000000006044820152fd5b60646040517f08c379a000000000000000000000000000000000000000000000000000000000815260206004820152601660248201527f4c4d53523a2073697a65206d6574726963207a65726f000000000000000000006044820152fd5b905082105f610868565b90600f0b90600f0b0260401d7fffffffffffffffffffffffffffffffff8000000000000000000000000000000081121580613310571561063257600f0b90565b600f0b68400000000000000000811215610632577fffffffffffffffffffffffffffffffffffffffffffffffc000000000000000008112613d4357700171547652b82fe1777d0ffda0d23a7d12612ecd910260801d600f0b613e75565b505f90565b600f0b5f811315610632575f908068010000000000000000821215613e68575b806401000000006002921215613e5c575b62010000811215613e50575b610100811215613e44575b6010811215613e38575b6004811215613e2d575b1215613e23575b7fffffffffffffffffffffffffffffffffffffffffffffffffffffffffffffffc0820160401b91607f031b90678000000000000000915b5f8313613e0757506fb17217f7d1cf79abc9e3b39803f2f6af9150600f0b0260801d90565b8002908160ff1c9182607f011c918302019160011d9190613de2565b9060010190613dab565b92810192811d613da4565b6004938401931d613d9a565b6008938401931d613d90565b6010938401931d613d85565b6020938401931d613d79565b506040915080821d613d68565b80600f0b68400000000000000000811215610632577fffffffffffffffffffffffffffffffffffffffffffffffc00000000000000000811261329a576f80000000000000000000000000000000915f6780000000000000008216600f0b13614a71575b5f6740000000000000008216600f0b13614a54575b5f6720000000000000008216600f0b13614a37575b5f6710000000000000008216600f0b13614a1a575b5f6708000000000000008216600f0b136149fd575b5f6704000000000000008216600f0b136149e0575b5f6702000000000000008216600f0b136149c3575b5f6701000000000000008216600f0b136149a6575b5f66800000000000008216600f0b13614989575b5f66400000000000008216600f0b1361496c575b5f66200000000000008216600f0b1361494f575b5f66100000000000008216600f0b13614932575b5f66080000000000008216600f0b13614915575b5f66040000000000008216600f0b136148f8575b5f66020000000000008216600f0b136148db575b5f66010000000000008216600f0b136148be575b5f658000000000008216600f0b136148a1575b5f654000000000008216600f0b13614884575b5f652000000000008216600f0b13614867575b5f651000000000008216600f0b1361484a575b5f650800000000008216600f0b1361482d575b5f650400000000008216600f0b13614810575b5f650200000000008216600f0b136147f3575b5f650100000000008216600f0b136147d6575b5f6480000000008216600f0b136147b9575b5f6440000000008216600f0b1361479c575b5f6420000000008216600f0b1361477f575b5f6410000000008216600f0b13614762575b5f6408000000008216600f0b13614745575b5f6404000000008216600f0b13614728575b5f6402000000008216600f0b1361470b575b5f6401000000008216600f0b136146ee575b5f63800000008216600f0b136146d1575b5f63400000008216600f0b136146b4575b5f63200000008216600f0b13614697575b5f63100000008216600f0b1361467a575b5f63080000008216600f0b1361465d575b5f63040000008216600f0b13614640575b5f63020000008216600f0b13614623575b5f63010000008216600f0b13614606575b5f628000008216600f0b136145e9575b5f624000008216600f0b136145cc575b5f622000008216600f0b136145af575b5f621000008216600f0b13614592575b5f620800008216600f0b13614575575b5f620400008216600f0b13614558575b5f620200008216600f0b1361453b575b5f620100008216600f0b1361451e575b5f6180008216600f0b13614501575b5f6140008216600f0b136144e4575b5f6120008216600f0b136144c7575b5f6110008216600f0b136144aa575b5f6108008216600f0b1361448d575b5f6104008216600f0b13614470575b5f6102008216600f0b13614453575b5f6101008216600f0b13614436575b5f60808216600f0b13614419575b5f60408216600f0b136143fc575b5f60208216600f0b136143df575b5f60108216600f0b136143c2575b5f60088216600f0b136143a5575b5f60048216600f0b13614388575b5f60028216600f0b1361436a575b60015f9116600f0b1361434d575b60401d600f0b603f03600f0b1c6f7fffffffffffffffffffffffffffffff811161063257600f0b90565b9070010000000000000000b17217f7d1cf79ab0260801c90614323565b7001000000000000000162e42fefa39ef35890920260801c91614315565b9170010000000000000002c5c85fdf473de6b20260801c91614307565b91700100000000000000058b90bfbe8e7bcd6d0260801c916142f9565b917001000000000000000b17217f7d1cf79afa0260801c916142eb565b91700100000000000000162e42fefa39ef366f0260801c916142dd565b917001000000000000002c5c85fdf473de6eca0260801c916142cf565b9170010000000000000058b90bfbe8e7bce5440260801c916142c1565b91700100000000000000b17217f7d1cf79e9490260801c916142b3565b9170010000000000000162e42fefa39ef44d910260801c916142a4565b91700100000000000002c5c85fdf473dea871f0260801c91614295565b917001000000000000058b90bfbe8e7bdcbe2e0260801c91614286565b9170010000000000000b17217f7d1cf7d83c1a0260801c91614277565b917001000000000000162e42fefa39f02b772c0260801c91614268565b9170010000000000002c5c85fdf473e242ea380260801c91614259565b91700100000000000058b90bfbe8e7cc35c3f00260801c9161424a565b917001000000000000b17217f7d1cfb72b45e10260801c9161423b565b91700100000000000162e42fefa39fe95583c20260801c9161422b565b917001000000000002c5c85fdf4741bea6e77e0260801c9161421b565b9170010000000000058b90bfbe8e8b2d3d4ede0260801c9161420b565b91700100000000000b17217f7d1d351a389d400260801c916141fb565b9170010000000000162e42fefa3ae53369388c0260801c916141eb565b91700100000000002c5c85fdf477b662b269450260801c916141db565b917001000000000058b90bfbe8f71cb4e4b33d0260801c916141cb565b9170010000000000b17217f7d20cf927c8e94c0260801c916141bb565b917001000000000162e42fefa494f1478fde050260801c916141aa565b9170010000000002c5c85fdf4b15de6f17eb0d0260801c91614199565b91700100000000058b90bfbe9ddbac5e109cce0260801c91614188565b917001000000000b17217f7d5a7716bba4a9ae0260801c91614177565b91700100000000162e42fefb2fed257559bdaa0260801c91614166565b917001000000002c5c85fdf84bd62ae30a74cc0260801c91614155565b9170010000000058b90bfbf8479bd5a81b51ad0260801c91614144565b91700100000000b17217f80f4ef5aadda455540260801c91614133565b9170010000000162e42ff0999ce3541b9fffcf0260801c91614121565b91700100000002c5c85fe31f35a6a30da1be500260801c9161410f565b917001000000058b90bfcdee5acd3c1cedc8230260801c916140fd565b9170010000000b17217fba9c739aa5819f44f90260801c916140eb565b917001000000162e42fff037df38aa2b219f060260801c916140d9565b9170010000002c5c8601cc6b9e94213c72737a0260801c916140c7565b91700100000058b90c0b48c6be5df846c5b2ef0260801c916140b5565b917001000000b1721835514b86e6d96efd1bfe0260801c916140a3565b91700100000162e430e5a18f6119e3c02282a50260801c91614090565b917001000002c5c863b73f016468f6bac5ca2b0260801c9161407d565b9170010000058b90cf1e6d97f9ca14dbcc16280260801c9161406a565b91700100000b1721bcfc99d9f890ea069117630260801c91614057565b9170010000162e43f4f831060e02d839a9d16d0260801c91614044565b91700100002c5c89d5ec6ca4d7c8acc017b7c90260801c91614031565b917001000058b91b5bc9ae2eed81e9b7d4cfab0260801c9161401e565b9170010000b17255775c040618bf4a4ade83fc0260801c9161400b565b917001000162e525ee054754457d59952920260260801c91613ff7565b9170010002c5cc37da9491d0985c348c68e7b30260801c91613fe3565b91700100058ba01fb9f96d6cacd4b180917c3d0260801c91613fcf565b917001000b175effdc76ba38e31671ca9397250260801c91613fbb565b91700100162f3904051fa128bca9c55c31e5df0260801c91613fa7565b917001002c605e2e8cec506d21bfc89a23a00f0260801c91613f93565b9170010058c86da1c09ea1ff19d294cf2f679b0260801c91613f7f565b91700100b1afa5abcbed6129ab13ec11dc95430260801c91613f6b565b9170010163da9fb33356d84a66ae336dcdfa3f0260801c91613f56565b91700102c9a3e778060ee6f7caca4f7a29bde80260801c91613f41565b917001059b0d31585743ae7c548eb68ca417fd0260801c91613f2c565b9170010b5586cf9890f6298b92b71842a983630260801c91613f17565b917001172b83c7d517adcdf7c8c50eb14a791f0260801c91613f02565b917001306fe0a31b7152de8d5a46305c85edec0260801c91613eed565b6fb504f333f9de6484597d89b3754abe9f9250613ed856fea2646970667358221220b8969692eb94fcd49d980b3e747af4fe242604cf628ce4301c521b691312f64a64736f6c634300081e0033a264697066735822122016eced533daa9d26a1ce4b0d9cda9cb223d5c63a8500bcf2dbb3e3e4b3fdda4864736f6c634300081e0033","linkReferences":{}},"methodIdentifiers":{"deploy(address,string,string,address[],int128,uint256,uint256,uint256,address,address,address,address)":"d05529f6"},"id":51}