{"abi":[{"type":"constructor","inputs":[{"name":"poolInitCodeStorage","type":"address","internalType":"contract PartyPoolInitCode"},{"name":"balancedPairInitCodeStorage","type":"address","internalType":"contract PartyPoolBalancedPairInitCode"}],"stateMutability":"nonpayable"},{"type":"function","name":"params","inputs":[],"outputs":[{"name":"","type":"tuple","internalType":"struct IPartyPoolDeployer.DeployParams","components":[{"name":"nonce","type":"bytes32","internalType":"bytes32"},{"name":"owner","type":"address","internalType":"address"},{"name":"name","type":"string","internalType":"string"},{"name":"symbol","type":"string","internalType":"string"},{"name":"tokens","type":"address[]","internalType":"contract IERC20[]"},{"name":"kappa","type":"int128","internalType":"int128"},{"name":"fees","type":"uint256[]","internalType":"uint256[]"},{"name":"flashFeePpm","type":"uint256","internalType":"uint256"},{"name":"protocolFeePpm","type":"uint256","internalType":"uint256"},{"name":"protocolFeeAddress","type":"address","internalType":"address"},{"name":"wrapper","type":"address","internalType":"contract NativeWrapper"},{"name":"swapImpl","type":"address","internalType":"contract PartyPoolSwapImpl"},{"name":"mintImpl","type":"address","internalType":"contract PartyPoolMintImpl"}]}],"stateMutability":"view"}],"bytecode":{"object":"0x60c03461014157601f61087038819003918201601f19168301916001600160401b038311848410176101455780849260409485528339810103126101415780516001600160a01b038116919082900361014157602001516001600160a01b03811691908290036101415780156100f05781156100965760805260a052604051610716908161015a823960805181505060a051815050f35b60405162461bcd60e51b815260206004820152602c60248201527f4465706c6f7965723a207a65726f2062616c616e63656420706169722073746f60448201526b72616765206164647265737360a01b6064820152608490fd5b60405162461bcd60e51b815260206004820152602360248201527f4465706c6f7965723a207a65726f20706f6f6c2073746f72616765206164647260448201526265737360e81b6064820152608490fd5b5f80fd5b634e487b7160e01b5f52604160045260245ffdfe6080806040526004361015610012575f80fd5b5f3560e01c63cff0ab9614610025575f80fd5b3461060e575f7ffffffffffffffffffffffffffffffffffffffffffffffffffffffffffffffffc36011261060e57610180816100615f93610655565b82815282602082015260606040820152606080820152606060808201528260a0820152606060c08201528260e08201528261010082015282610120820152826101408201528261016082015201526040516100bb81610655565b600254815273ffffffffffffffffffffffffffffffffffffffff600354169060208101918252604051915f6004548060011c9160018216918215610604575b6020841083146105315783875286929081156105c75750600114610568575b6101259250038461069f565b60408201928352604051905f6005548060011c916001821691821561055e575b6020841083146105315783865285929081156104f45750600114610495575b6101709250038361069f565b606083019182526040519182836020600654928381520160065f5260205f20925f5b8181106104665750506101a79250038461069f565b60808401928352600754600f0b60a08501908152604051600880548083525f918252829160208301917ff3f7a9fe364faab93b216da50a3214154f22a0a2b415b23a84c8169e8b636ee3915b81811061044d5750505003610208908261069f565b60c0860190815260095460e08701908152600a54916101008801928352600b5473ffffffffffffffffffffffffffffffffffffffff16936101208901948552600c5473ffffffffffffffffffffffffffffffffffffffff16956101408a01968752600d5473ffffffffffffffffffffffffffffffffffffffff169a6101608b019b8c52600e5473ffffffffffffffffffffffffffffffffffffffff16986101808c01998a526040519b60208d525160208d01525173ffffffffffffffffffffffffffffffffffffffff1660408c01525160608b016101a090526101c08b016102ef91610612565b9051908a81037fffffffffffffffffffffffffffffffffffffffffffffffffffffffffffffffe00160808c015261032591610612565b9751978981037fffffffffffffffffffffffffffffffffffffffffffffffffffffffffffffffe00160a08b015288519081815260200198602001905f5b8181106104215750505051600f0b60c089015251957fffffffffffffffffffffffffffffffffffffffffffffffffffffffffffffffe08882030160e0890152602080885192838152019701905f5b81811061040b5750505073ffffffffffffffffffffffffffffffffffffffff9493858094899a948294516101008c0152516101208b015251166101408901525116610160870152511661018085015251166101a08301520390f35b82518952602098890198909201916001016103b0565b825173ffffffffffffffffffffffffffffffffffffffff168b5260209a8b019a90920191600101610362565b82548452859450602090930192600192830192016101f3565b845473ffffffffffffffffffffffffffffffffffffffff16835260019485019488945060209093019201610192565b5060055f90815290917f036b6384b5eca791c62761152d0c79bb0604c104a5fb6f4eb0703f3154bb3db05b8183106104d857505090602061017092820101610164565b60209193508060019154838589010152019101909184926104c0565b602092506101709491507fffffffffffffffffffffffffffffffffffffffffffffffffffffffffffffff001682840152151560051b820101610164565b7f4e487b71000000000000000000000000000000000000000000000000000000005f52602260045260245ffd5b92607f1692610145565b5060045f90815290917f8a35acfbc15ff81a39ae7d344fd709f28e8600b4aa8c65c6b64bfe7fe36bd19b5b8183106105ab57505090602061012592820101610119565b6020919350806001915483858a01015201910190918592610593565b602092506101259491507fffffffffffffffffffffffffffffffffffffffffffffffffffffffffffffff001682840152151560051b820101610119565b92607f16926100fa565b5f80fd5b907fffffffffffffffffffffffffffffffffffffffffffffffffffffffffffffffe0601f602080948051918291828752018686015e5f8582860101520116010190565b6101a0810190811067ffffffffffffffff82111761067257604052565b7f4e487b71000000000000000000000000000000000000000000000000000000005f52604160045260245ffd5b90601f7fffffffffffffffffffffffffffffffffffffffffffffffffffffffffffffffe0910116810190811067ffffffffffffffff8211176106725760405256fea2646970667358221220f2360006f7d81d6886e9e57ac09f1017f9c42d76f2ba63d729b64a962f244c1c64736f6c634300081e0033","linkReferences":{}},"methodIdentifiers":{"params()":"cff0ab96"},"id":53}