{"abi":[{"type":"constructor","inputs":[{"name":"wrapper_","type":"address","internalType":"contract NativeWrapper"}],"stateMutability":"nonpayable"},{"type":"function","name":"collectProtocolFees","inputs":[{"name":"dest","type":"address","internalType":"address"}],"outputs":[],"stateMutability":"nonpayable"},{"type":"function","name":"flashLoan","inputs":[{"name":"receiver","type":"address","internalType":"contract IERC3156FlashBorrower"},{"name":"tokenAddr","type":"address","internalType":"address"},{"name":"amount","type":"uint256","internalType":"uint256"},{"name":"data","type":"bytes","internalType":"bytes"},{"name":"flashFeePpm","type":"uint256","internalType":"uint256"},{"name":"protocolFeePpm","type":"uint256","internalType":"uint256"}],"outputs":[{"name":"","type":"bool","internalType":"bool"}],"stateMutability":"nonpayable"},{"type":"function","name":"swapToLimit","inputs":[{"name":"payer","type":"address","internalType":"address"},{"name":"fundingSelector","type":"bytes4","internalType":"bytes4"},{"name":"receiver","type":"address","internalType":"address"},{"name":"inputTokenIndex","type":"uint256","internalType":"uint256"},{"name":"outputTokenIndex","type":"uint256","internalType":"uint256"},{"name":"limitPrice","type":"int128","internalType":"int128"},{"name":"deadline","type":"uint256","internalType":"uint256"},{"name":"unwrap","type":"bool","internalType":"bool"},{"name":"cbData","type":"bytes","internalType":"bytes"},{"name":"swapFeePpm","type":"uint256","internalType":"uint256"},{"name":"protocolFeePpm","type":"uint256","internalType":"uint256"}],"outputs":[{"name":"amountIn","type":"uint256","internalType":"uint256"},{"name":"amountOut","type":"uint256","internalType":"uint256"},{"name":"inFee","type":"uint256","internalType":"uint256"}],"stateMutability":"payable"},{"type":"function","name":"swapToLimitAmounts","inputs":[{"name":"inputTokenIndex","type":"uint256","internalType":"uint256"},{"name":"outputTokenIndex","type":"uint256","internalType":"uint256"},{"name":"limitPrice","type":"int128","internalType":"int128"},{"name":"bases","type":"uint256[]","internalType":"uint256[]"},{"name":"kappa","type":"int128","internalType":"int128"},{"name":"qInternal","type":"int128[]","internalType":"int128[]"},{"name":"swapFeePpm","type":"uint256","internalType":"uint256"}],"outputs":[{"name":"amountIn","type":"uint256","internalType":"uint256"},{"name":"amountOut","type":"uint256","internalType":"uint256"},{"name":"inFee","type":"uint256","internalType":"uint256"}],"stateMutability":"pure"},{"type":"event","name":"Flash","inputs":[{"name":"initiator","type":"address","indexed":true,"internalType":"address"},{"name":"receiver","type":"address","indexed":true,"internalType":"contract IERC3156FlashBorrower"},{"name":"token","type":"address","indexed":true,"internalType":"contract IERC20"},{"name":"amount","type":"uint256","indexed":false,"internalType":"uint256"},{"name":"lpFee","type":"uint256","indexed":false,"internalType":"uint256"},{"name":"protocolFee","type":"uint256","indexed":false,"internalType":"uint256"}],"anonymous":false},{"type":"event","name":"ProtocolFeesCollected","inputs":[],"anonymous":false},{"type":"event","name":"Swap","inputs":[{"name":"payer","type":"address","indexed":false,"internalType":"address"},{"name":"receiver","type":"address","indexed":true,"internalType":"address"},{"name":"tokenIn","type":"address","indexed":true,"internalType":"contract IERC20"},{"name":"tokenOut","type":"address","indexed":true,"internalType":"contract IERC20"},{"name":"amountIn","type":"uint256","indexed":false,"internalType":"uint256"},{"name":"amountOut","type":"uint256","indexed":false,"internalType":"uint256"},{"name":"lpFee","type":"uint256","indexed":false,"internalType":"uint256"},{"name":"protocolFee","type":"uint256","indexed":false,"internalType":"uint256"}],"anonymous":false},{"type":"error","name":"AddressEmptyCode","inputs":[{"name":"target","type":"address","internalType":"address"}]},{"type":"error","name":"ERC20InsufficientAllowance","inputs":[{"name":"spender","type":"address","internalType":"address"},{"name":"allowance","type":"uint256","internalType":"uint256"},{"name":"needed","type":"uint256","internalType":"uint256"}]},{"type":"error","name":"ERC20InsufficientBalance","inputs":[{"name":"sender","type":"address","internalType":"address"},{"name":"balance","type":"uint256","internalType":"uint256"},{"name":"needed","type":"uint256","internalType":"uint256"}]},{"type":"error","name":"ERC20InvalidApprover","inputs":[{"name":"approver","type":"address","internalType":"address"}]},{"type":"error","name":"ERC20InvalidReceiver","inputs":[{"name":"receiver","type":"address","internalType":"address"}]},{"type":"error","name":"ERC20InvalidSender","inputs":[{"name":"sender","type":"address","internalType":"address"}]},{"type":"error","name":"ERC20InvalidSpender","inputs":[{"name":"spender","type":"address","internalType":"address"}]},{"type":"error","name":"FailedCall","inputs":[]},{"type":"error","name":"InsufficientBalance","inputs":[{"name":"balance","type":"uint256","internalType":"uint256"},{"name":"needed","type":"uint256","internalType":"uint256"}]},{"type":"error","name":"ReentrancyGuardReentrantCall","inputs":[]},{"type":"error","name":"SafeERC20FailedOperation","inputs":[{"name":"token","type":"address","internalType":"address"}]}],"bytecode":{"object":"0x60a0346100a357601f6138e538819003918201601f19168301916001600160401b038311848410176100a7578084926020946040528339810103126100a357516001600160a01b03811681036100a35760017f9b779b17422d0df92223018b32b4d1fa46e071723d6817e2486d003becc55f005560805260405161382990816100bc82396080518181816109f901528181610fd50152818161106601526127db0152f35b5f80fd5b634e487b7160e01b5f52604160045260245ffdfe60a06040526004361015610011575f80fd5b5f6080525f3560e01c80632a54db01146115a0578063756b160c14610730578063bf05a0a6146105325763e49cd47514610049575f80fd5b346104365760c07ffffffffffffffffffffffffffffffffffffffffffffffffffffffffffffffffc3601126104365760043573ffffffffffffffffffffffffffffffffffffffff81168091036104365760243573ffffffffffffffffffffffffffffffffffffffff811691908290036104365760443560643567ffffffffffffffff8111610436573660238201121561043657806004013567ffffffffffffffff81116104365736602482840101116104365760a43590610108611c61565b61011760ff60095416156119fd565b6040517f70a082310000000000000000000000000000000000000000000000000000000081523060048201526020816024818a5afa801561044457608051906104fa575b6101689150851115611bfc565b8560805152600f6020526040608051205492610185841515611a62565b7fffffffffffffffffffffffffffffffffffffffffffffffffffffffffffffffff84019384116104c95784876101bd6084358361279e565b50938860805196801515806104c0575b610451575b50917fffffffffffffffffffffffffffffffffffffffffffffffffffffffffffffffe0601f60c493610208876020989786611cd8565b806024604051998a9889977f23e30c8b0000000000000000000000000000000000000000000000000000000089523360048a01528389015260448801528b606488015260a060848801528260a48801520186860137608051858286010152011681010301816080518a5af1801561044457608051906103ec575b7f439148f0bbc682ca079e46d6e2c2f0c1e3b820f1a291b069d8882abf8cf18dd991500361038e5781816103427f249e0bf62ff982342c6a63926041694a221796af4b9ebacefc45823da4234813956102e86102e1610347968a611b76565b8b8b6127c3565b5061030e6102ff6102f986866119c3565b92611993565b91909283548360031b1c611b76565b907fffffffffffffffffffffffffffffffffffffffffffffffffffffffffffffffff83549160031b92831b921b1916179055565b6119c3565b6040805194855260208501919091528301523391606090a460017f9b779b17422d0df92223018b32b4d1fa46e071723d6817e2486d003becc55f0055602060405160018152f35b60646040517f08c379a000000000000000000000000000000000000000000000000000000000815260206004820152601560248201527f666c6173682063616c6c6261636b206661696c656400000000000000000000006044820152fd5b506020813d60201161043c575b8161040660209383611876565b81010312610436577f439148f0bbc682ca079e46d6e2c2f0c1e3b820f1a291b069d8882abf8cf18dd99051610282565b60805180fd5b3d91506103f9565b6040513d608051823e3d90fd5b8493919750601f60c493610208602097620f42406104907fffffffffffffffffffffffffffffffffffffffffffffffffffffffffffffffe0968d611b2c565b049b8d8d806104aa575b50509597509750509350506101d2565b61030e6102ff6104b993611936565b8d8d61049a565b508615156101cd565b7f4e487b71000000000000000000000000000000000000000000000000000000006080515260116004526024608051fd5b506020813d60201161052a575b8161051460209383611876565b8101031261052657610168905161015b565b5f80fd5b3d9150610507565b346104365760e07ffffffffffffffffffffffffffffffffffffffffffffffffffffffffffffffffc36011261043657600435604435602435600f82900b8203610436576064359267ffffffffffffffff84116104365736602385011215610436578360040135936105a28561191e565b946105b06040519687611876565b8086526024602087019160051b8301019136831161043657602401905b828210610720575050608435939050600f84900b84036104365760a43567ffffffffffffffff811161043657366023820112156104365780600401356106128161191e565b916106206040519384611876565b8183526024602084019260051b8201019036821161043657602401915b8183106107055750505091610667610677928583610670979660c435996080515060805150611de2565b94909187611b83565b519061251b565b93610683851515611b97565b608051948094806106d6575b5050916106a26106a9926106d294611b83565b5190612a5a565b926106b5841515611b97565b604051938493846040919493926060820195825260208201520152565b0390f35b8196506106d294929550926106fb6106f46106a9956106a294612765565b8098611b76565b959294509261068f565b8235600f81900b81036104365781526020928301920161063d565b81358152602091820191016105cd565b6101607ffffffffffffffffffffffffffffffffffffffffffffffffffffffffffffffffc36011261052657610763611853565b7fffffffff000000000000000000000000000000000000000000000000000000006024351660243503610526576044359073ffffffffffffffffffffffffffffffffffffffff821682036105265760a4359182600f0b83036105265760c4359060e435151560e4350361052657610104359167ffffffffffffffff831161052657366023840112156105265782600401356107fd816118e4565b9361080b6040519586611876565b818552366024838301011161052657815f92602460209301838801378501015261083a60ff60095416156119fd565b610842611c61565b61085a600c5480606435109081611594575b50611a62565b6108685f86600f0b13611ac7565b8015908115611589575b501561152b57610883608435611993565b90549060031b1c91600a54600f0b856040519182906020600b549485815201600b5f5260205f20945f955b8160018801106114fe57916108e89685926108db9454918181106114ea575b106114d9575b500383611876565b6084359160643591611de2565b94906109056108f86064356119ab565b90549060031b1c8261251b565b94610911861515611b97565b5f9580610124356114b9575b5061093961092c6084356119ab565b90549060031b1c89612a5a565b986109458a1515611b97565b73ffffffffffffffffffffffffffffffffffffffff61096560643561197b565b90549060031b1c16957fffffffff0000000000000000000000000000000000000000000000000000000060243516155f14610ffc5750506109a79085856127c3565b965b73ffffffffffffffffffffffffffffffffffffffff6109c960843561197b565b90549060031b1c169560e43560e435610fbd575b15610ef95773ffffffffffffffffffffffffffffffffffffffff7f000000000000000000000000000000000000000000000000000000000000000016803b1561043657604051907f2e1a7d4d0000000000000000000000000000000000000000000000000000000082528b60048301528160248160805193608051905af1801561044457610ee0575b506080518080808d855af13d15610edb573d610a81816118e4565b90610a8f6040519283611876565b81526080513d916020013e5b15610e7d575b6040517f70a082310000000000000000000000000000000000000000000000000000000081523060048201526020816024818b5afa938415610444578b9160805195610e44575b5090610af3916119c3565b8303610dc05760805161014435151580610db7575b610d7b575b610b18608435611936565b90549060031b1c8410610d1d57610c67610c5c73ffffffffffffffffffffffffffffffffffffffff94610c42610c0f7f6950339c7661cca450281e53722525cc136590e622b011d5be7e4c4993685a6c998f610bde90610bd0610b8f60a09d610b82608435611936565b90549060031b1c906119c3565b610b9a608435611993565b9091907fffffffffffffffffffffffffffffffffffffffffffffffffffffffffffffffff83549160031b92831b921b1916179055565b61030e6102ff606435611993565b60805181600f0b1380610d0e575b610bf590611bfc565b610c00606435611da2565b90549060031b1c600f0b61293f565b610c1a606435611da2565b9091906fffffffffffffffffffffffffffffffff83549160031b928116831b921b1916179055565b610c4d608435611da2565b90549060031b1c600f0b612997565b610c1a608435611da2565b610c71818a6119c3565b83604051971687528a60208801528b6040880152606087015260808601521692a460017f9b779b17422d0df92223018b32b4d1fa46e071723d6817e2486d003becc55f00554780158015610ce3575b50506106d290604051938493846040919493926060820195825260208201520152565b60805190610d05575b608051918291829182913390f115610444578380610cc0565b506108fc610cec565b50608051600f85900b13610bec565b60646040517f08c379a000000000000000000000000000000000000000000000000000000000815260206004820152601760248201527f62616c616e6365203c2070726f746f636f6c206f7765640000000000000000006044820152fd5b50620f4240610d8d610144358a611b2c565b048015610b0d57610db2610da2606435611936565b61030e8483548360031b1c611b76565b610b0d565b50881515610b08565b60846040517f08c379a000000000000000000000000000000000000000000000000000000000815260206004820152602260248201527f73776170546f4c696d69743a206e6f6e2d7374616e6461726420746f6b656e4f60448201527f75740000000000000000000000000000000000000000000000000000000000006064820152fd5b915093506020813d602011610e75575b81610e6160209383611876565b810103126105265751928a90610af3610ae8565b3d9150610e54565b60646040517f08c379a000000000000000000000000000000000000000000000000000000000815260206004820152601460248201527f7265636569766572206e6f742070617961626c650000000000000000000000006044820152fd5b610a9b565b608051610eec91611876565b608051610436578a610a66565b608051506040517fa9059cbb000000000000000000000000000000000000000000000000000000006080515273ffffffffffffffffffffffffffffffffffffffff82166004528a602452602060805160446080516080518c5af19060016080515114821615610f9a575b604052610aa157867f5274afe700000000000000000000000000000000000000000000000000000000608051526004526024608051fd5b906001811516610fb257883b15153d15161690610f63565b503d608051823e3d90fd5b5073ffffffffffffffffffffffffffffffffffffffff7f00000000000000000000000000000000000000000000000000000000000000001687146109dd565b9198916024357fffffffff00000000000000000000000000000000000000000000000000000000167c0100000000000000000000000000000000000000000000000000000000036112ac5750600f0b6112285773ffffffffffffffffffffffffffffffffffffffff7f000000000000000000000000000000000000000000000000000000000000000016978886148061121e575b156110ff57974790803b15610526575f906004604051809481937fd0e30db00000000000000000000000000000000000000000000000000000000083525af180156110f4576110e0575b506109a9565b5f6110ea91611876565b5f608052896110da565b6040513d5f823e3d90fd5b9097506040517f70a08231000000000000000000000000000000000000000000000000000000008152306004820152602081602481895afa80156110f45782915f916111e7575b5061117e90611178611159606435611993565b90549060031b1c61116b606435611936565b90549060031b1c90611b76565b906119c3565b1061118957966109a9565b60646040517f08c379a000000000000000000000000000000000000000000000000000000000815260206004820152601e60248201527f496e73756666696369656e742070726566756e64696e6720616d6f756e7400006044820152fd5b9150506020813d602011611216575b8161120360209383611876565b810103126105265751819061117e611146565b3d91506111f6565b5080471015611090565b60846040517f08c379a000000000000000000000000000000000000000000000000000000000815260206004820152602c60248201527f50726566756e64696e672063616e6e6f7420626520757365642077697468206160448201527f206c696d697420707269636500000000000000000000000000000000000000006064820152fd5b90506040517f70a082310000000000000000000000000000000000000000000000000000000081523060048201526020816024818a5afa9081156110f4578a88915f93611482575b5060c4611394917fffffffffffffffffffffffffffffffffffffffffffffffffffffffffffffffe0601f602061139a979860065494604051988996602435858901526024880152604487015260648601526080608486015280519182918260a4880152018686015e5f8582860101520116810103017fffffffffffffffffffffffffffffffffffffffffffffffffffffffffffffffe08101835282611876565b86612ab5565b50604051907f70a082310000000000000000000000000000000000000000000000000000000082523060048301526020826024818a5afa80156110f4575f9061144e575b6113e892506119c3565b978810156109a95760646040517f08c379a000000000000000000000000000000000000000000000000000000000815260206004820152601260248201527f496e73756666696369656e742066756e647300000000000000000000000000006044820152fd5b506020823d60201161147a575b8161146860209383611876565b81010312610526576113e891516113de565b3d915061145b565b925050506020813d6020116114b1575b8161149f60209383611876565b810103126105265751868a60c46112f4565b3d9150611492565b9650506114d36114cc6101243588612765565b8097611b76565b8961091d565b60801d600f0b81526020018c6108d3565b92602060019184600f0b81520193016108cd565b8054600f81810b855260809190911d900b60208401526002909601958b95506040909201916001016108ae565b60646040517f08c379a000000000000000000000000000000000000000000000000000000000815260206004820152600860248201527f646561646c696e650000000000000000000000000000000000000000000000006044820152fd5b905042111585610872565b90506084351087610854565b346105265760207ffffffffffffffffffffffffffffffffffffffffffffffffffffffffffffffffc360112610526576115d7611853565b6115df611c61565b73ffffffffffffffffffffffffffffffffffffffff8116156117f557600c545f5b818110611651577fd508feb4afc81230b8e5dcca865a405a72db1f928a5064f893ab22ab56ec25215f80a160017f9b779b17422d0df92223018b32b4d1fa46e071723d6817e2486d003becc55f0055005b61165a81611936565b90549060031b1c9081156117ec576024602073ffffffffffffffffffffffffffffffffffffffff61168a8461197b565b90549060031b1c16604051928380927f70a082310000000000000000000000000000000000000000000000000000000082523060048301525afa9081156110f4575f916117bb575b5082811061175d578261172b611722600195611757946116f187611936565b7fffffffffffffffffffffffffffffffffffffffffffffffffffffffffffffffff82549160031b1b191690556119c3565b610b9a85611993565b8573ffffffffffffffffffffffffffffffffffffffff61174a8561197b565b90549060031b1c16611cd8565b01611600565b60646040517f08c379a000000000000000000000000000000000000000000000000000000000815260206004820152601260248201527f636f6c6c6563743a20666565203e2062616c00000000000000000000000000006044820152fd5b90506020813d82116117e4575b816117d560209383611876565b810103126105265751856116d2565b3d91506117c8565b60019150611757565b60646040517f08c379a000000000000000000000000000000000000000000000000000000000815260206004820152601260248201527f636f6c6c6563743a207a65726f206164647200000000000000000000000000006044820152fd5b6004359073ffffffffffffffffffffffffffffffffffffffff8216820361052657565b90601f7fffffffffffffffffffffffffffffffffffffffffffffffffffffffffffffffe0910116810190811067ffffffffffffffff8211176118b757604052565b7f4e487b71000000000000000000000000000000000000000000000000000000005f52604160045260245ffd5b67ffffffffffffffff81116118b757601f017fffffffffffffffffffffffffffffffffffffffffffffffffffffffffffffffe01660200190565b67ffffffffffffffff81116118b75760051b60200190565b600d5481101561194e57600d5f5260205f2001905f90565b7f4e487b71000000000000000000000000000000000000000000000000000000005f52603260045260245ffd5b600c5481101561194e57600c5f5260205f2001905f90565b60105481101561194e5760105f5260205f2001905f90565b600e5481101561194e57600e5f5260205f2001905f90565b919082039182116119d057565b7f4e487b71000000000000000000000000000000000000000000000000000000005f52601160045260245ffd5b15611a0457565b60646040517f08c379a000000000000000000000000000000000000000000000000000000000815260206004820152600660248201527f6b696c6c656400000000000000000000000000000000000000000000000000006044820152fd5b15611a6957565b60646040517f08c379a000000000000000000000000000000000000000000000000000000000815260206004820152600d60248201527f696e76616c696420696e646578000000000000000000000000000000000000006044820152fd5b15611ace57565b60646040517f08c379a000000000000000000000000000000000000000000000000000000000815260206004820152600d60248201527f696e76616c6964206c696d6974000000000000000000000000000000000000006044820152fd5b818102929181159184041417156119d057565b8115611b49570490565b7f4e487b71000000000000000000000000000000000000000000000000000000005f52601260045260245ffd5b919082018092116119d057565b805182101561194e5760209160051b010190565b15611b9e57565b60646040517f08c379a000000000000000000000000000000000000000000000000000000000815260206004820152600960248201527f746f6f20736d616c6c00000000000000000000000000000000000000000000006044820152fd5b15611c0357565b60646040517f08c379a000000000000000000000000000000000000000000000000000000000815260206004820152600e60248201527f696e76616c696420616d6f756e740000000000000000000000000000000000006044820152fd5b60027f9b779b17422d0df92223018b32b4d1fa46e071723d6817e2486d003becc55f005414611cb05760027f9b779b17422d0df92223018b32b4d1fa46e071723d6817e2486d003becc55f0055565b7f3ee5aeb5000000000000000000000000000000000000000000000000000000005f5260045ffd5b9173ffffffffffffffffffffffffffffffffffffffff604051927fa9059cbb000000000000000000000000000000000000000000000000000000005f521660045260245260205f60448180865af19060015f5114821615611d81575b60405215611d3f5750565b73ffffffffffffffffffffffffffffffffffffffff907f5274afe7000000000000000000000000000000000000000000000000000000005f521660045260245ffd5b906001811516611d9957823b15153d15161690611d34565b503d5f823e3d90fd5b90600b5482101561194e57600b5f52600182901c7f0175b7a638427703f0dbe7bb9bbf987a2551717b34e79f33b5b1008d1fa01db9019160041b60101690565b939290949183600f0b90611df75f8313611ac7565b5f94855b8851871015611e2657611e1e600191611e14898c611b83565b51600f0b9061293f565b960195611dfb565b90929496919395505f81600f0b13156124bd57611e42916129d4565b9081600f0b80156105265770010000000000000000000000000000000005927fffffffffffffffffffffffffffffffff80000000000000000000000000000000841215806124a3575b1561052657611ec888611ec3611ecd93611eb9611eae8b99600f0b9b8c95611b83565b51600f0b918d611b83565b51600f0b90612997565b6129d4565b612b7d565b9081600f0b948512156124455781611ee491612a14565b600f0b5f811315610526575f908068010000000000000000821215612438575b80640100000000600292121561242c575b62010000811215612420575b610100811215612414575b6010811215612408575b60048112156123fd575b12156123f3575b7fffffffffffffffffffffffffffffffffffffffffffffffffffffffffffffffc0820160401b91607f031b90678000000000000000915b5f83136123d757506fb17217f7d1cf79abc9e3b39803f2f6af9150600f0b0260801d92611fab84846129d4565b937fffffffffffffffffffffffffffffffff8000000000000000000000000000000081600f0b1461052657611fe4905f03600f0b612b7d565b600f0b68010000000000000000037fffffffffffffffffffffffffffffffff80000000000000000000000000000000811215806123bd575b156105265761202e90600f0b836129d4565b600f0b68010000000000000000017fffffffffffffffffffffffffffffffff80000000000000000000000000000000811215806123a3575b1561052657600f0b5f811315610526575f908068010000000000000000821215612396575b80640100000000600292121561238a575b6201000081121561237e575b610100811215612372575b6010811215612366575b600481121561235b575b1215612351575b607f8290031b91907fffffffffffffffffffffffffffffffffffffffffffffffffffffffffffffffc00160401b6780000000000000005b5f8113612331575061213a92506fb17217f7d1cf79abc9e3b39803f2f6af61213491600f0b0260801d856129d4565b98611b83565b51600f0b9383958589600f0b13612156575b5050505050509190565b8598506801000000000000000092949650611ec890612177929496996129d4565b9101907fffffffffffffffffffffffffffffffff8000000000000000000000000000000082121580612317575b15610526576121b591600f0b612997565b905f600f83900b136121d0575050505b5f808080808061214c565b6121db929350612a14565b600f0b5f811315610526575f90806801000000000000000082121561230a575b8064010000000060029212156122fe575b620100008112156122f2575b6101008112156122e6575b60108112156122da575b60048112156122cf575b12156122c5575b607f8290031b91907fffffffffffffffffffffffffffffffffffffffffffffffffffffffffffffffc00160401b6780000000000000005b5f81136122a557506122a09250600f0b6fb17217f7d1cf79abc9e3b39803f2f6af0260801d906129d4565b6121c5565b91928002908160ff1c9182607f011c918302019160011d92919092612275565b906001019061223e565b92810192811d612237565b6004938401931d61222d565b6008938401931d612223565b6010938401931d612218565b6020938401931d61220c565b506040915080821d6121fb565b506f7fffffffffffffffffffffffffffffff8213156121a4565b91928002908160ff1c9182607f011c918302019160011d92919092612105565b90600101906120ce565b92810192811d6120c7565b6004938401931d6120bd565b6008938401931d6120b3565b6010938401931d6120a8565b6020938401931d61209c565b506040915080821d61208b565b506f7fffffffffffffffffffffffffffffff811315612066565b506f7fffffffffffffffffffffffffffffff81131561201c565b8002908160ff1c9182607f011c918302019160011d9190611f7e565b9060010190611f47565b92810192811d611f40565b6004938401931d611f36565b6008938401931d611f2c565b6010938401931d611f21565b6020938401931d611f15565b506040915080821d611f04565b60646040517f08c379a000000000000000000000000000000000000000000000000000000000815260206004820152601260248201527f756e6d61726b657461626c65206c696d697400000000000000000000000000006044820152fd5b506f7fffffffffffffffffffffffffffffff841315611e8b565b60646040517f08c379a000000000000000000000000000000000000000000000000000000000815260206004820152600d60248201527f756e696e697469616c697a6564000000000000000000000000000000000000006044820152fd5b6125258282612a5a565b9180156105265777ffffffffffffffffffffffffffffffffffffffffffffffff83116125b657612558908360401b611b3f565b6fffffffffffffffffffffffffffffffff8111610526576fffffffffffffffffffffffffffffffff16906f7fffffffffffffffffffffffffffffff821161052657600f0b90600f0b126125a85790565b600181018091116119d05790565b60c083811c8091640100000000821015612758575b6002826201000061265894101561274c575b610100811015612740575b6010811015612734575b6004811015612729575b1015612721575b8560017fffffffffffffffffffffffffffffffffffffffffffffffffffffffffffffffff86017fffffffffffffffffffffffffffffffffffffffffffffffffffffffffffffff4184011c019160ff031b611b3f565b916fffffffffffffffffffffffffffffffff8311610526578060801c83026fffffffffffffffffffffffffffffffff82168402838760401b908282106126f7575b5003928160801b918285106126ce575b60801c036126c3576126bb9203611b3f565b905b01612558565b5050506001906126bd565b907fffffffffffffffffffffffffffffffffffffffffffffffffffffffffffffffff01906126a9565b7fffffffffffffffffffffffffffffffffffffffffffffffffffffffffffffffff0194505f612699565b600101612603565b91810191811c6125fc565b6004928301921c6125f2565b6008928301921c6125e8565b6010928301921c6125dd565b505060e084811c906125cb565b9080156127985761277591611b2c565b620f42408101908181116119d057620f423f019081116119d057620f4240900490565b50505f90565b919080156127bd576127b36127ba9184612765565b80936119c3565b90565b505f9190565b9073ffffffffffffffffffffffffffffffffffffffff7f0000000000000000000000000000000000000000000000000000000000000000169173ffffffffffffffffffffffffffffffffffffffff82169183831480612935575b1561287557505050803b15610526575f82916004604051809481937fd0e30db00000000000000000000000000000000000000000000000000000000083525af180156110f45761286b575090565b5f6127ba91611876565b9091925073ffffffffffffffffffffffffffffffffffffffff604051927f23b872dd000000000000000000000000000000000000000000000000000000005f5216600452306024528360445260205f60648180855af19060015f5114821615612916575b50906040525f606052156128eb575090565b7f5274afe7000000000000000000000000000000000000000000000000000000005f5260045260245ffd5b600182151661292c573b15153d1516165f6128d9565b823d5f823e3d90fd5b508434101561281d565b90600f0b90600f0b017fffffffffffffffffffffffffffffffff800000000000000000000000000000008112158061297d575b1561052657600f0b90565b506f7fffffffffffffffffffffffffffffff811315612972565b90600f0b90600f0b037fffffffffffffffffffffffffffffffff800000000000000000000000000000008112158061297d571561052657600f0b90565b90600f0b90600f0b0260401d7fffffffffffffffffffffffffffffffff800000000000000000000000000000008112158061297d571561052657600f0b90565b90600f0b9081156105265760401b60170b057fffffffffffffffffffffffffffffffff800000000000000000000000000000008112158061297d571561052657600f0b90565b811561279857600f0b5f8112610526576fffffffffffffffffffffffffffffffff8216810260401c9160801c0277ffffffffffffffffffffffffffffffffffffffffffffffff81116105265760401b81198111610526570190565b905f809160208151910182855af18080612b6a575b15612aea5750506040513d81523d5f602083013e60203d82010160405290565b15612b315773ffffffffffffffffffffffffffffffffffffffff907f9996b315000000000000000000000000000000000000000000000000000000005f521660045260245ffd5b3d15612b42576040513d5f823e3d90fd5b7fd6bda275000000000000000000000000000000000000000000000000000000005f5260045ffd5b503d151580612aca5750813b1515612aca565b600f0b68400000000000000000811215610526577fffffffffffffffffffffffffffffffffffffffffffffffc000000000000000008112612bda57700171547652b82fe1777d0ffda0d23a7d126127ba910260801d600f0b612bdf565b505f90565b80600f0b68400000000000000000811215610526577fffffffffffffffffffffffffffffffffffffffffffffffc000000000000000008112612798576f80000000000000000000000000000000915f6780000000000000008216600f0b136137db575b5f6740000000000000008216600f0b136137be575b5f6720000000000000008216600f0b136137a1575b5f6710000000000000008216600f0b13613784575b5f6708000000000000008216600f0b13613767575b5f6704000000000000008216600f0b1361374a575b5f6702000000000000008216600f0b1361372d575b5f6701000000000000008216600f0b13613710575b5f66800000000000008216600f0b136136f3575b5f66400000000000008216600f0b136136d6575b5f66200000000000008216600f0b136136b9575b5f66100000000000008216600f0b1361369c575b5f66080000000000008216600f0b1361367f575b5f66040000000000008216600f0b13613662575b5f66020000000000008216600f0b13613645575b5f66010000000000008216600f0b13613628575b5f658000000000008216600f0b1361360b575b5f654000000000008216600f0b136135ee575b5f652000000000008216600f0b136135d1575b5f651000000000008216600f0b136135b4575b5f650800000000008216600f0b13613597575b5f650400000000008216600f0b1361357a575b5f650200000000008216600f0b1361355d575b5f650100000000008216600f0b13613540575b5f6480000000008216600f0b13613523575b5f6440000000008216600f0b13613506575b5f6420000000008216600f0b136134e9575b5f6410000000008216600f0b136134cc575b5f6408000000008216600f0b136134af575b5f6404000000008216600f0b13613492575b5f6402000000008216600f0b13613475575b5f6401000000008216600f0b13613458575b5f63800000008216600f0b1361343b575b5f63400000008216600f0b1361341e575b5f63200000008216600f0b13613401575b5f63100000008216600f0b136133e4575b5f63080000008216600f0b136133c7575b5f63040000008216600f0b136133aa575b5f63020000008216600f0b1361338d575b5f63010000008216600f0b13613370575b5f628000008216600f0b13613353575b5f624000008216600f0b13613336575b5f622000008216600f0b13613319575b5f621000008216600f0b136132fc575b5f620800008216600f0b136132df575b5f620400008216600f0b136132c2575b5f620200008216600f0b136132a5575b5f620100008216600f0b13613288575b5f6180008216600f0b1361326b575b5f6140008216600f0b1361324e575b5f6120008216600f0b13613231575b5f6110008216600f0b13613214575b5f6108008216600f0b136131f7575b5f6104008216600f0b136131da575b5f6102008216600f0b136131bd575b5f6101008216600f0b136131a0575b5f60808216600f0b13613183575b5f60408216600f0b13613166575b5f60208216600f0b13613149575b5f60108216600f0b1361312c575b5f60088216600f0b1361310f575b5f60048216600f0b136130f2575b5f60028216600f0b136130d4575b60015f9116600f0b136130b7575b60401d600f0b603f03600f0b1c6f7fffffffffffffffffffffffffffffff811161052657600f0b90565b9070010000000000000000b17217f7d1cf79ab0260801c9061308d565b7001000000000000000162e42fefa39ef35890920260801c9161307f565b9170010000000000000002c5c85fdf473de6b20260801c91613071565b91700100000000000000058b90bfbe8e7bcd6d0260801c91613063565b917001000000000000000b17217f7d1cf79afa0260801c91613055565b91700100000000000000162e42fefa39ef366f0260801c91613047565b917001000000000000002c5c85fdf473de6eca0260801c91613039565b9170010000000000000058b90bfbe8e7bce5440260801c9161302b565b91700100000000000000b17217f7d1cf79e9490260801c9161301d565b9170010000000000000162e42fefa39ef44d910260801c9161300e565b91700100000000000002c5c85fdf473dea871f0260801c91612fff565b917001000000000000058b90bfbe8e7bdcbe2e0260801c91612ff0565b9170010000000000000b17217f7d1cf7d83c1a0260801c91612fe1565b917001000000000000162e42fefa39f02b772c0260801c91612fd2565b9170010000000000002c5c85fdf473e242ea380260801c91612fc3565b91700100000000000058b90bfbe8e7cc35c3f00260801c91612fb4565b917001000000000000b17217f7d1cfb72b45e10260801c91612fa5565b91700100000000000162e42fefa39fe95583c20260801c91612f95565b917001000000000002c5c85fdf4741bea6e77e0260801c91612f85565b9170010000000000058b90bfbe8e8b2d3d4ede0260801c91612f75565b91700100000000000b17217f7d1d351a389d400260801c91612f65565b9170010000000000162e42fefa3ae53369388c0260801c91612f55565b91700100000000002c5c85fdf477b662b269450260801c91612f45565b917001000000000058b90bfbe8f71cb4e4b33d0260801c91612f35565b9170010000000000b17217f7d20cf927c8e94c0260801c91612f25565b917001000000000162e42fefa494f1478fde050260801c91612f14565b9170010000000002c5c85fdf4b15de6f17eb0d0260801c91612f03565b91700100000000058b90bfbe9ddbac5e109cce0260801c91612ef2565b917001000000000b17217f7d5a7716bba4a9ae0260801c91612ee1565b91700100000000162e42fefb2fed257559bdaa0260801c91612ed0565b917001000000002c5c85fdf84bd62ae30a74cc0260801c91612ebf565b9170010000000058b90bfbf8479bd5a81b51ad0260801c91612eae565b91700100000000b17217f80f4ef5aadda455540260801c91612e9d565b9170010000000162e42ff0999ce3541b9fffcf0260801c91612e8b565b91700100000002c5c85fe31f35a6a30da1be500260801c91612e79565b917001000000058b90bfcdee5acd3c1cedc8230260801c91612e67565b9170010000000b17217fba9c739aa5819f44f90260801c91612e55565b917001000000162e42fff037df38aa2b219f060260801c91612e43565b9170010000002c5c8601cc6b9e94213c72737a0260801c91612e31565b91700100000058b90c0b48c6be5df846c5b2ef0260801c91612e1f565b917001000000b1721835514b86e6d96efd1bfe0260801c91612e0d565b91700100000162e430e5a18f6119e3c02282a50260801c91612dfa565b917001000002c5c863b73f016468f6bac5ca2b0260801c91612de7565b9170010000058b90cf1e6d97f9ca14dbcc16280260801c91612dd4565b91700100000b1721bcfc99d9f890ea069117630260801c91612dc1565b9170010000162e43f4f831060e02d839a9d16d0260801c91612dae565b91700100002c5c89d5ec6ca4d7c8acc017b7c90260801c91612d9b565b917001000058b91b5bc9ae2eed81e9b7d4cfab0260801c91612d88565b9170010000b17255775c040618bf4a4ade83fc0260801c91612d75565b917001000162e525ee054754457d59952920260260801c91612d61565b9170010002c5cc37da9491d0985c348c68e7b30260801c91612d4d565b91700100058ba01fb9f96d6cacd4b180917c3d0260801c91612d39565b917001000b175effdc76ba38e31671ca9397250260801c91612d25565b91700100162f3904051fa128bca9c55c31e5df0260801c91612d11565b917001002c605e2e8cec506d21bfc89a23a00f0260801c91612cfd565b9170010058c86da1c09ea1ff19d294cf2f679b0260801c91612ce9565b91700100b1afa5abcbed6129ab13ec11dc95430260801c91612cd5565b9170010163da9fb33356d84a66ae336dcdfa3f0260801c91612cc0565b91700102c9a3e778060ee6f7caca4f7a29bde80260801c91612cab565b917001059b0d31585743ae7c548eb68ca417fd0260801c91612c96565b9170010b5586cf9890f6298b92b71842a983630260801c91612c81565b917001172b83c7d517adcdf7c8c50eb14a791f0260801c91612c6c565b917001306fe0a31b7152de8d5a46305c85edec0260801c91612c57565b6fb504f333f9de6484597d89b3754abe9f9250612c4256fea2646970667358221220e956ba4758fef0b780b5ec4f56bd88b770ddbd24ecec1ade4fd4595ee26aea2464736f6c63430008210033","linkReferences":{}},"methodIdentifiers":{"collectProtocolFees(address)":"2a54db01","flashLoan(address,address,uint256,bytes,uint256,uint256)":"e49cd475","swapToLimit(address,bytes4,address,uint256,uint256,int128,uint256,bool,bytes,uint256,uint256)":"756b160c","swapToLimitAmounts(uint256,uint256,int128,uint256[],int128,int128[],uint256)":"bf05a0a6"},"id":55}