{"abi":[{"type":"function","name":"escrowedNativeFees","inputs":[],"outputs":[{"name":"","type":"uint256","internalType":"uint256"}],"stateMutability":"view"},{"type":"function","name":"getMintRequest","inputs":[{"name":"requestId","type":"uint256","internalType":"uint256"}],"outputs":[{"name":"state","type":"MintRequestState","internalType":"enum MintRequestState"},{"name":"request","type":"tuple","internalType":"struct MintRequest","components":[{"name":"requester","type":"address","internalType":"address"},{"name":"recipient","type":"address","internalType":"address"},{"name":"pool","type":"IPartyPool","internalType":"contract IPartyPool"},{"name":"isSwapMint","type":"bool","internalType":"bool"},{"name":"usePermit2Allowance","type":"bool","internalType":"bool"},{"name":"inputTokenIndex","type":"uint8","internalType":"uint8"},{"name":"tolerancePpm","type":"uint32","internalType":"uint32"},{"name":"enqueueBlock","type":"uint64","internalType":"uint64"},{"name":"deadline","type":"uint64","internalType":"uint64"},{"name":"lpRemaining","type":"uint256","internalType":"uint256"},{"name":"nativeEscrow","type":"uint256","internalType":"uint256"}]}],"stateMutability":"view"},{"type":"function","name":"isMintRequestLive","inputs":[{"name":"requestId","type":"uint256","internalType":"uint256"}],"outputs":[{"name":"","type":"bool","internalType":"bool"}],"stateMutability":"view"},{"type":"function","name":"queueLength","inputs":[{"name":"pool","type":"IPartyPool","internalType":"contract IPartyPool"}],"outputs":[{"name":"","type":"uint256","internalType":"uint256"}],"stateMutability":"view"},{"type":"event","name":"MintQueued","inputs":[{"name":"requestId","type":"uint256","indexed":true,"internalType":"uint256"},{"name":"requester","type":"address","indexed":true,"internalType":"address"},{"name":"pool","type":"address","indexed":true,"internalType":"contract IPartyPool"},{"name":"recipient","type":"address","indexed":false,"internalType":"address"},{"name":"isSwapMint","type":"bool","indexed":false,"internalType":"bool"},{"name":"lpRemaining","type":"uint256","indexed":false,"internalType":"uint256"},{"name":"nativeEscrow","type":"uint256","indexed":false,"internalType":"uint256"},{"name":"deadline","type":"uint256","indexed":false,"internalType":"uint256"}],"anonymous":false},{"type":"event","name":"MintRequestCanceled","inputs":[{"name":"requestId","type":"uint256","indexed":true,"internalType":"uint256"},{"name":"canceler","type":"address","indexed":true,"internalType":"address"},{"name":"reason","type":"uint8","indexed":false,"internalType":"uint8"}],"anonymous":false}],"bytecode":{"object":"0x60808060405234601b57614b0090816100208239308160070152f35b5f80fdfe6080604052307f0000000000000000000000000000000000000000000000000000000000000000146004361015610034575f80fd5b5f3560e01c80633638419b146100f05780636bf459ca146100eb57806372beca64146100e15780638b36594f146100d7578063901dada7146100d2578063b012d55d146100c8578063b43b5144146100c3578063b69b22d8146100be578063cc7d3d86146100b45763dd044316146100aa575f80fd5b15610a51575b5f80fd5b501561087c575f80fd5b6107ab565b6106a3565b5015610565575f80fd5b6104f0565b5015610450575f80fd5b5015610379575f80fd5b61027d565b50156100fa575f80fd5b60206003193601126100b05760043561011a815f525f60205260405f2090565b61013e61012e82546001600160a01b031690565b6001600160a01b03163314610add565b600581019081549182151592836101db575b610183936101b4575b50507fffffffffffffffffffffffff00000000000000000000000000000000000000008154169055565b6040515f81523391907fe63aacc3581bb6876c5c2b93359496c0e7dbd3af85b85667c556da5d9072efa590602090a3005b5f6101d492556101ce6101c982600354610c1d565b600355565b33611c35565b5f80610159565b6004935060206102046101f860028601546001600160a01b031690565b6001600160a01b031690565b604051958680927f1f3a0e410000000000000000000000000000000000000000000000000000000082525afa801561027857610183945f91610249575b509350610150565b61026b915060203d602011610271575b6102638183610b8c565b810190610bcd565b5f610241565b503d610259565b610be5565b60206003193601126100b0576004355f525f60205260206001600160a01b0360405f2054161515604051908152f35b6001600160a01b038116036100b057565b35906102c8826102ac565b565b63ffffffff8116036100b057565b60c435906102c8826102ca565b606435906102c8826102ca565b61012435906102c8826102ac565b60c435906102c8826102ac565b61016435906102c8826102ac565b7ffffffffffffffffffffffffffffffffffffffffffffffffffffffffffffffebc60c09101126100b05761014490565b9181601f840112156100b05782359167ffffffffffffffff83116100b057602083818601950101116100b057565b6102206003193601126100b057600435610392816102ac565b6024359061039f826102ac565b604435916103ac836102ac565b606435916103b9836102ac565b6084356103c5816102ac565b60a4356103d06102d8565b60e43561010435916103e06102f2565b936103ea3661031b565b95610204359967ffffffffffffffff8b116100b05761043e9b61041461041c9c369060040161034b565b9b909a6110a8565b6040805194855260208501939093529183015260608201529081906080820190565b0390f35b908160609103126100b05790565b6101206003193601126100b057600435610469816102ac565b602435610475816102ac565b604435916104816102e5565b60843560a43561048f610300565b9160e43567ffffffffffffffff81116100b0576104b0903690600401610442565b93610104359767ffffffffffffffff89116100b0576104d66104de99369060040161034b565b9890976115ce565b60408051928352602083019190915290f35b60206003193601126100b05761052260043561050b816102ac565b6001600160a01b03165f52600160205260405f2090565b60018101549054810390811161053d57602090604051908152f35b610bf0565b801515036100b057565b60ff8116036100b057565b61014435906102c88261054c565b6101206003193601126100b05760043561057e816102ac565b60243561058a816102ac565b604435916064359161059b836102ca565b608435906105a882610542565b60e43560c43560a4356105ba8361054c565b6105d061010435956105cb876102ac565b611853565b8015801561067d575b6105e290610c2a565b6105ed823414610c8f565b6040519661010088019088821067ffffffffffffffff831117610678576104de9961063d610663976001600160a01b036106739b61064f96604052168c5260208c01906001600160a01b03169052565b60408a015263ffffffff166060890152565b608087015260a086015260ff1660c0850152565b6001600160a01b031660e0830152565b6121dd565b610b42565b5042811180156105d9575067ffffffffffffffff8111156105d9565b5f9103126100b057565b5f6003193601126100b0576020600354604051908152f35b909291610180820193600381101561077e57825280516001600160a01b03166020830152610160906101409060208101516001600160a01b0316604085015260408101516001600160a01b031660608501526060810151151560808501526080810151151560a085015260a081015160ff1660c085015260c081015163ffffffff1660e085015260e081015167ffffffffffffffff1661010085015261010081015167ffffffffffffffff16610120850152610120810151828501520151910152565b7f4e487b71000000000000000000000000000000000000000000000000000000005f52602160045260245ffd5b60206003193601126100b05761081f61081a6004355f6101406040516107d081610b6f565b8281528260208201528260408201528260608201528260808201528260a08201528260c08201528260e0820152826101008201528261012082015201525f525f60205260405f2090565b6118b8565b6001600160a01b0361083882516001600160a01b031690565b16156108505760015b61043e604051928392836106bb565b61086a6101f86101f860408401516001600160a01b031690565b15610876576002610841565b5f610841565b60c06003193601126100b057600435610894816102ac565b602435906044356108a4816102ac565b6064356084359060a435926108b8846102ac565b6108c85f9561050b8815156119ef565b9560028701905b80871080610a43575b15610a33576108f0885483905f5260205260405f2090565b54610902815f525f60205260405f2090565b906109176101f883546001600160a01b031690565b156109ae5789610946610939600385015467ffffffffffffffff9060401c1690565b67ffffffffffffffff1690565b80151590816109a4575b5061098a57878787600195610966958d95612527565b970196156108cf5750505050505061043e91505b6040519081529081906020820190565b5060019298915061099d9033908b61245e565b01956108cf565b905042115f610950565b610a0c6109e960056001959b940154926109dc8d80545f52600281016020525f604081205560018154019055565b5f525f60205260405f2090565b60055f918281558260018201558260028201558260038201558260048201550155565b80610a1a575b5001956108cf565b806101ce6101c9610a2d93600354610c1d565b5f610a12565b50505050505061043e915061097a565b5087546001890154116108d8565b6101806003193601126100b05761043e61041c600435610a70816102ac565b602435610a7c816102ac565b604435610a88816102ac565b606435610a94816102ac565b608435610aa0816102ac565b60c43560a435610aaf826102ca565b60e43592610abc84610542565b61010435946101243596610ace610557565b98610ad761030d565b9a611a54565b15610ae457565b60646040517f08c379a000000000000000000000000000000000000000000000000000000000815260206004820152601560248201527f63616e63656c3a206e6f742072657175657374657200000000000000000000006044820152fd5b7f4e487b71000000000000000000000000000000000000000000000000000000005f52604160045260245ffd5b610160810190811067ffffffffffffffff82111761067857604052565b90601f7fffffffffffffffffffffffffffffffffffffffffffffffffffffffffffffffe0910116810190811067ffffffffffffffff82111761067857604052565b908160209103126100b05751610be281610542565b90565b6040513d5f823e3d90fd5b7f4e487b71000000000000000000000000000000000000000000000000000000005f52601160045260245ffd5b9190820391821161053d57565b15610c3157565b60646040517f08c379a000000000000000000000000000000000000000000000000000000000815260206004820152600860248201527f646561646c696e650000000000000000000000000000000000000000000000006044820152fd5b15610c9657565b60646040517f08c379a000000000000000000000000000000000000000000000000000000000815260206004820152601760248201527f71756575653a206578616374206e6174697665206665650000000000000000006044820152fd5b15610cfb57565b60646040517f08c379a000000000000000000000000000000000000000000000000000000000815260206004820152601060248201527f71756575653a206e6f206e6174697665000000000000000000000000000000006044820152fd5b35610be2816102ac565b15610d6a57565b60646040517f08c379a000000000000000000000000000000000000000000000000000000000815260206004820152601460248201527f7065726d6974323a20626164207370656e6465720000000000000000000000006044820152fd5b15610dcf57565b60646040517f08c379a000000000000000000000000000000000000000000000000000000000815260206004820152601760248201527f7065726d6974323a20746f6b656e206d69736d617463680000000000000000006044820152fd5b65ffffffffffff8116036100b057565b35610be281610e2d565b15610e4e57565b60646040517f08c379a000000000000000000000000000000000000000000000000000000000815260206004820152601860248201527f7065726d6974323a207a65726f2065787069726174696f6e00000000000000006044820152fd5b15610eb357565b60646040517f08c379a000000000000000000000000000000000000000000000000000000000815260206004820152601e60248201527f7065726d6974323a2065787069726174696f6e203c20646561646c696e6500006044820152fd5b908160209103126100b0575190565b15610f2757565b60646040517f08c379a000000000000000000000000000000000000000000000000000000000815260206004820152601260248201527f71756575653a20746f6b656e20696e64657800000000000000000000000000006044820152fd5b65ffffffffffff606080926001600160a01b038135610fa3816102ac565b1685526001600160a01b036020820135610fbc816102ac565b166020860152826040820135610fd181610e2d565b1660408601520135610fe281610e2d565b16910152565b601f82602094937fffffffffffffffffffffffffffffffffffffffffffffffffffffffffffffffe093818652868601375f8582860101520116010190565b60a0610be295936001600160a01b03610100941683526110496020840182610f85565b6001600160a01b03608082013561105f816102ac565b1682840152013560c08201528160e08201520191610fe8565b604051906102c861016083610b8c565b604051906102c861010083610b8c565b604051906102c861012083610b8c565b9b8c9a919b92939495969798999b6111668a158b8d6110db839184159485611324575b6110d490610c2a565b3414610c8f565b6111396001600160a01b038b1661110873eeeeeeeeeeeeeeeeeeeeeeeeeeeeeeeeeeeeeeee821415610cf4565b61112761111760808b01610d59565b6001600160a01b03163014610d63565b6111336101f88a610d59565b14610dc8565b604087019061115965ffffffffffff61115184610e3d565b161515610e47565b92611301575b5050610eac565b6040517fbda87c190000000000000000000000000000000000000000000000000000000081526001600160a01b039c8d166004820152868d1660248201529b168b6044815a93602094fa9a8b15610278575f9b6112d0575b506111cc60ff8c1115610f20565b6001600160a01b038c16803b156100b05761121b935f8094604051968795869485937f2b67b5700000000000000000000000000000000000000000000000000000000085523360048601611026565b03925af18015610278576112b6575b50611233611078565b6001600160a01b03909a168a526001600160a01b031660208a01526001600160a01b031660408901526001600160a01b03166060880152608087015263ffffffff1660a086015260c085015260e084015260ff1661010083015260036101208301525b6001600160a01b03166101408201526112ae90611da4565b929391929091565b806112c45f6112ca93610b8c565b80610699565b5f61122a565b6112f3919b5060203d6020116112fa575b6112eb8183610b8c565b810190610f11565b995f6111be565b503d6112e1565b61131b91925061131090610e3d565b65ffffffffffff1690565b10158b5f61115f565b5042841180156110cb575067ffffffffffffffff8411156110cb565b67ffffffffffffffff81116106785760051b60200190565b6020818303126100b05780519067ffffffffffffffff82116100b057019080601f830112156100b057815161138c81611340565b9261139a6040519485610b8c565b81845260208085019260051b8201019283116100b057602001905b8282106113c25750505090565b6020809183516113d1816102ac565b8152019101906113b5565b9035907fffffffffffffffffffffffffffffffffffffffffffffffffffffffffffffffe1813603018212156100b0570180359067ffffffffffffffff82116100b057602001918160071b360383136100b057565b1561143757565b60646040517f08c379a000000000000000000000000000000000000000000000000000000000815260206004820152601760248201527f7065726d6974323a2064657461696c73206c656e6774680000000000000000006044820152fd5b7f4e487b71000000000000000000000000000000000000000000000000000000005f52603260045260245ffd5b91908110156114d25760071b0190565b611495565b80518210156114d25760209160051b010190565b92906001600160a01b0390959492951683526060602084015260c083019285357fffffffffffffffffffffffffffffffffffffffffffffffffffffffffffffffe1873603018112156100b05786016020813591019467ffffffffffffffff82116100b0578160071b360386136100b05781906060808501525260e0820194905f5b8181106115b05750505060408661159c61158c6020610be2999a016102bd565b6001600160a01b03166080850152565b013560a08201526040818503910152610fe8565b909195608080826115c36001948b610f85565b01970192910161156c565b9192949799939695871598899b8a159a8b611837575b6115ed90610c2a565b6115f8823414610c8f565b604051977f6ff97f1d0000000000000000000000000000000000000000000000000000000089525f896004816001600160a01b038a165afa988915610278575f99611813575b5061164e61111760208c01610d59565b61166561165b8b806113dc565b90508a5114611430565b5f5b895181101561172b57808f8e8e838f8f946116ce611702966001600160a01b036116c66101f86101f86116b98960019f6116ae6116b3916116a88d806113dc565b906114c2565b610d59565b966114d7565b516001600160a01b031690565b911614610dc8565b6116f46116ed61131060406116e7876116a888806113dc565b01610e3d565b1515610e47565b93611708575b505050610eac565b01611667565b6117219293506116e7611310926116a8836040946113dc565b10158e838f6116fa565b50949a50949a91979298959b5095506001600160a01b038716803b156100b057611789945f8094604051978895869485937f2a2d80d100000000000000000000000000000000000000000000000000000000855233600486016114eb565b03925af1978815610278576117d3610673976117e5946117fb9b6117ff575b506117c36117b4611088565b6001600160a01b03909b168b52565b6001600160a01b031660208a0152565b604088015263ffffffff166060870152565b608085015260a0840152600360c0840152610663565b9091565b806112c45f61180d93610b8c565b5f6117a8565b6118309199503d805f833e6118288183610b8c565b810190611358565b975f61163e565b50428a1180156115e4575067ffffffffffffffff8a11156115e4565b1561185a57565b60646040517f08c379a000000000000000000000000000000000000000000000000000000000815260206004820152601b60248201527f71756575653a207061727469616c46696c6c20726571756972656400000000006044820152fd5b9060056118c3611078565b926118e56118d882546001600160a01b031690565b6001600160a01b03168552565b61190c6118fc60018301546001600160a01b031690565b6001600160a01b03166020860152565b61198861197b600283015461193a61192a826001600160a01b031690565b6001600160a01b03166040890152565b61194e60a082901c60ff1615156060890152565b61196260a882901c60ff1615156080890152565b60ff60b082901c1660a088015260b81c63ffffffff1690565b63ffffffff1660c0860152565b6119da6119c860038301546119b86119a78267ffffffffffffffff1690565b67ffffffffffffffff1660e0890152565b60401c67ffffffffffffffff1690565b67ffffffffffffffff16610100860152565b60048101546101208501520154610140830152565b156119f657565b60646040517f08c379a000000000000000000000000000000000000000000000000000000000815260206004820152601360248201527f657865637574653a207a65726f20636f756e74000000000000000000000000006044820152fd5b9a99989683611b0a99979695949392611a6e602093611853565b88158015611bbc575b611a8090610c2a565b611a8b8a3414610c8f565b611ab473eeeeeeeeeeeeeeeeeeeeeeeeeeeeeeeeeeeeeeee6001600160a01b0384161415610cf4565b8d6001600160a01b03604051809d819582947fbda87c19000000000000000000000000000000000000000000000000000000008452600484019092916001600160a01b0360209181604085019616845216910152565b0392165afa978815610278575f98611b9b575b50611b2b60ff891115610f20565b611b33611078565b6001600160a01b03909b168b526001600160a01b031660208b01526001600160a01b031660408a01526001600160a01b03166060890152608088015263ffffffff1660a087015260c086015260e085015260ff1661010084015260ff16610120830152611296565b611bb591985060203d6020116112fa576112eb8183610b8c565b965f611b1d565b504289118015611a77575067ffffffffffffffff891115611a77565b3d15611c30573d9067ffffffffffffffff82116106785760405191611c2560207fffffffffffffffffffffffffffffffffffffffffffffffffffffffffffffffe0601f8401160184610b8c565b82523d5f602084013e565b606090565b5f80809381935af1611c45611bd8565b5015611c4d57565b60646040517f08c379a000000000000000000000000000000000000000000000000000000000815260206004820152601860248201527f71756575653a206e617469766520706179206661696c656400000000000000006044820152fd5b91908260809103126100b0578151916020810151916060604083015192015190565b5f9060033d11611cd957565b905060045f803e5f5160e01c90565b5f60443d10610be2576040516003193d016004823e8051913d602484011167ffffffffffffffff841117611d56578282019283519167ffffffffffffffff8311611d4e576003193d85010160208487010111611d4e5750610be292910160200190610b8c565b949350505050565b92915050565b7fffffffffffffffffffffffffffffffffffffffffffffffffffffffffffffffe0601f602060409481855280519182918282880152018686015e5f8582860101520116010190565b611ead90611dc0611dba61010083015160ff1690565b60ff1690565b61012082016080600360ff611dd6845160ff1690565b161493611dea81516001600160a01b031690565b90611dff60208201516001600160a01b031690565b611e50611e1660408401516001600160a01b031690565b918584019283518960a0870197611e31895163ffffffff1690565b938d15612111576101408901516001600160a01b0316955b3392612669565b9590611e84611e74611e6c6101f888516001600160a01b031690565b995160ff1690565b9860e08701998a51913390612ac4565b611e986101f886516001600160a01b031690565b895f606088019d8e516001600160a01b031690565b611f6260c08a019b8c5190604051998a98899788967f8258a85600000000000000000000000000000000000000000000000000000000885230600489019593916001600160a01b039081610160999795931688527f2502e3880000000000000000000000000000000000000000000000000000000060208901521660408701526060860152608085015260a084015260c0830152600160e08301526101008201526101406101208201525f6101408201520190565b03925af15f5f90825f945f946120d8575b5061205b5750505050611f84611ccd565b6308c379a014611fa7575b611f97611bd8565b611f9f612aec565b602081519101fd5b611faf611ce8565b9788611fbb5750611f8f565b611fc3612aec565b60ff611fce8a612e26565b1661200b576040517f08c379a0000000000000000000000000000000000000000000000000000000008152806120078b60048301611d5c565b0390fd5b612051985061204461203761202960ff93516001600160a01b031690565b94516001600160a01b031690565b9251945163ffffffff1690565b9451955196169133612b0b565b5f905f905f905f90565b6120719c989499959197939b9c9a96929a612aec565b9b879b9a99519081891061208b575b505050505050505050565b6120446120bf6120ca9a6120b96120ab60ff95516001600160a01b031690565b96516001600160a01b031690565b94610c1d565b945163ffffffff1690565b5f8080808080808080612080565b92509350506120ff915060803d60801161210a575b6120f78183610b8c565b810190611cab565b90939092905f611f73565b503d6120ed565b5f95611e49565b91908260409103126100b0576020825192015190565b90602080835192838152019201905f5b81811061214b5750505090565b825184526020938401939092019160010161213e565b9390926001600160a01b036121bb9381602099961687527f2502e38800000000000000000000000000000000000000000000000000000000898801521660408601526060850152610120608085015261012084019061212e565b9260a0830152600160c083015260e08201526101008183039101525f81520190565b60c0810190600360ff6121f1845160ff1690565b16149061220581516001600160a01b031690565b9260408201936122428551916060850192612224845163ffffffff1690565b9087156124575760e08701516001600160a01b0316925b3390612f53565b90939297915061227a61226a6122626101f889516001600160a01b031690565b965160ff1690565b9560a08801968751913390612ac4565b60406122906101f888516001600160a01b031690565b9860208801996122a78b516001600160a01b031690565b965f60808b01986122e98a518751988997889687957f8678102f0000000000000000000000000000000000000000000000000000000087523060048801612161565b03925af190815f915f93612424575b506123b3575050612307611ccd565b6308c379a01461231957611f97611bd8565b612321611ce8565b968761232d5750611f8f565b612335612aec565b60ff61234089612e26565b16612379576040517f08c379a0000000000000000000000000000000000000000000000000000000008152806120078a60048301611d5c565b6123ad97506123956120ab6123a292516001600160a01b031690565b9151925163ffffffff1690565b925193519433613315565b5f905f90565b9694929098979593916123c4612aec565b51878181106123da575b50505050505050509190565b61240c6123a2916124066123f86124179b516001600160a01b031690565b98516001600160a01b031690565b93610c1d565b925163ffffffff1690565b5f808080808080876123ce565b909250612449915060403d604011612450575b6124418183610b8c565b810190612118565b915f6122f8565b503d612437565b5f9261223b565b8282612469926135aa565b7fe63aacc3581bb6876c5c2b93359496c0e7dbd3af85b85667c556da5d9072efa560206001600160a01b0360405194600186521693a3565b82826124ac926135aa565b7fe63aacc3581bb6876c5c2b93359496c0e7dbd3af85b85667c556da5d9072efa560206001600160a01b0360405194600386521693a3565b82826124ef926135aa565b7fe63aacc3581bb6876c5c2b93359496c0e7dbd3af85b85667c556da5d9072efa560206001600160a01b0360405194600286521693a3565b95949392919060ff600283015460a01c165f1461254757610be29661391e565b909150610be2956136b0565b90620f4240820291808304620f4240149015171561053d57565b8181029291811591840414171561053d57565b620f4240019081620f42401161053d57565b9190820180921161053d57565b81156125a9570490565b7f4e487b71000000000000000000000000000000000000000000000000000000005f52601260045260245ffd5b6020818303126100b05780519067ffffffffffffffff82116100b057019080601f830112156100b057815161260a81611340565b926126186040519485610b8c565b81845260208085019260051b8201019283116100b057602001905b8282106126405750505090565b8151815260209182019101612633565b63ffffffff16620f4240039063ffffffff821161053d57565b6040517f70a082310000000000000000000000000000000000000000000000000000000081526001600160a01b0385166004820152969895979596919590938893919291602083806024810103816001600160a01b0385165afa928315610278575f936128f0575b506126dc9293613be3565b808210156128e957505b6001600160a01b0383166040517f7bb98a680000000000000000000000000000000000000000000000000000000081525f81600481855afa908115610278576127389187915f916128c7575b506114d7565b51908161282a575b5050505061274d81613ec7565b1580612821575b612817575b50604080517f0db4cdda0000000000000000000000000000000000000000000000000000000081526001600160a01b03928316600482015260248101939093526044830186905291928391829081606481015b0392165afa8015610278576127e66127dd6127d76127ec93610be2955f905f926127f5575b50612592565b96612650565b63ffffffff1690565b8461256d565b620f4240900490565b9050612810915060403d604011612450576124418183610b8c565b905f6127d1565b94506127ac612759565b50858110612754565b6020600491604051928380927f18160ddd0000000000000000000000000000000000000000000000000000000082525afa80156102785761287b93612876925f926128a6575b5061256d565b61259f565b90811515908161289c575b50612894575b808080612740565b94505f61288c565b905081105f612886565b6128c091925060203d6020116112fa576112eb8183610b8c565b905f612870565b6128e391503d805f833e6128db8183610b8c565b8101906125d6565b5f612732565b90506126e6565b6126dc935061290d9060203d6020116112fa576112eb8183610b8c565b926126d1565b9394929790959896918398604051917f70a082310000000000000000000000000000000000000000000000000000000083526020838061296685600483019190916001600160a01b036020820193169052565b03816001600160a01b0385165afa928315610278575f93612a3c575b5061298d9293613be3565b80821015612a345750905b8181151580612a1e575b6129fa575b50506001600160a01b0383166040517f7bb98a680000000000000000000000000000000000000000000000000000000081525f81600481855afa908115610278576127389187915f916128c757506114d7565b612a179250612a0b612a1191612553565b91612580565b9061259f565b5f806129a7565b50620f4240612a2d838361256d565b10156129a2565b905090612998565b61298d9350612a599060203d6020116112fa576112eb8183610b8c565b92612982565b15612a6657565b60646040517f08c379a000000000000000000000000000000000000000000000000000000000815260206004820152600960248201527f7265656e7472616e7400000000000000000000000000000000000000000000006044820152fd5b90929192612add6001600160a01b0360015c1615612a5f565b5f5d60015d340360025d60035d565b5f805d5f60015d5f60025d5f60035d565b5f19811461053d5760010190565b9792879596929497919360025497612b2289612afd565b600255612b36895f525f60205260405f2090565b80547fffffffffffffffffffffffff0000000000000000000000000000000000000000166001600160a01b038d16178155926001840180547fffffffffffffffffffffffff0000000000000000000000000000000000000000166001600160a01b0389161790556002840180547fffffffffffffffffffffffff0000000000000000000000000000000000000000166001600160a01b038a161781559283547fffffffffffffffffffffff00ffffffffffffffffffffffffffffffffffffffff167401000000000000000000000000000000000000000017845583547fffffffffffffffffffff00ffffffffffffffffffffffffffffffffffffffffff1690151560a81b75ff0000000000000000000000000000000000000000001617835582547fffffffffffffffffff00ffffffffffffffffffffffffffffffffffffffffffff1660b09190911b76ff000000000000000000000000000000000000000000001617825581547fffffffffff00000000ffffffffffffffffffffffffffffffffffffffffffffff1660b89190911b7affffffff0000000000000000000000000000000000000000000000161790556003810180547fffffffffffffffffffffffffffffffffffffffffffffffff00000000000000001667ffffffffffffffff431617815580547fffffffffffffffffffffffffffffffff0000000000000000ffffffffffffffff16604085901b6fffffffffffffffff00000000000000001617905587600482015560050155612d7e836001600160a01b03165f52600160205260405f2090565b85600182019182549060020190612d9c91905f5260205260405f2090565b55805460010190558360035490612db291612592565b600355604051936001600160a01b03859416976001600160a01b031696612e009385909493926080926001600160a01b0360a084019716835260016020840152604083015260608201520152565b037ff6513b92a7f4d46791a9acf77e3d313cba1f6d173d11db44a127a179e130514b91a4565b602081519101207f68f1c63cfff24e6ddd60a89cf756c476e3d3f2e9747972070bd27d707d4da7ec8114612efe577f3c1e63f1ec6b7efe3b4a5a169303257e5be7d2052b3cca7eb4edd5a089cc12ce8114612efe577f769f2e932c2661d1a2cd2a43d823c03766e11669928d616e81bd726a6ad8a7058114612ef8577f0a041597ea1340dc5c7e2a4526cd60c371d68c946d79ba1bcca2f075d12b15d48114612ef8577fa7cca34676aee881ada7e95146c97e72650405757c6ab8489535d824af2c1b6c14612ef3575f90565b600290565b50600290565b50600190565b90612f0e82611340565b612f1b6040519182610b8c565b8281527fffffffffffffffffffffffffffffffffffffffffffffffffffffffffffffffe0612f498294611340565b0190602036910137565b6040517f6ff97f1d000000000000000000000000000000000000000000000000000000008152949592949193916001600160a01b038216915f82600481865afa918215610278575f9261311e575b50604051977f7bb98a680000000000000000000000000000000000000000000000000000000089525f89600481875afa938415610278576004995f956130ff575b506020906040519a8b80927f18160ddd0000000000000000000000000000000000000000000000000000000082525afa988915610278575f996130da575b50613030905f8a868b9a87614086565b9781151590816130d0575b506130c6575b5061304b90613ec7565b15806130bd575b6130b5575b50519061306d61306683612f04565b978661420b565b905f5b83811061308d57505050506127ec6127e66127dd610be293612650565b806130a461309d600193856114d7565b51856143d7565b6130ae828c6114d7565b5201613070565b94505f613057565b50858110613052565b955061304b613041565b905081105f61303b565b6130309199506130f89060203d6020116112fa576112eb8183610b8c565b9890613020565b6020919550613117903d805f833e6128db8183610b8c565b9490612fe2565b6131339192503d805f833e6118288183610b8c565b905f612fa1565b9093959291946001600160a01b03821691604051917f6ff97f1d0000000000000000000000000000000000000000000000000000000083525f83600481875afa928315610278575f936132f9575b50604051987f7bb98a68000000000000000000000000000000000000000000000000000000008a525f8a600481885afa9485156102785760049a5f966132da575b506020906040519b8c80927f18160ddd0000000000000000000000000000000000000000000000000000000082525afa998a15610278575f9a6132b3575b5090613217918a868b9a87614086565b9781151590816132a9575b5061329f575b5061323290613ec7565b1580613296575b61328e575b50519061324d61306683612f04565b905f5b83811061326d57505050506127ec6127e66127dd610be293612650565b8061327d61309d600193856114d7565b613287828c6114d7565b5201613250565b94505f61323e565b50858110613239565b9550613232613228565b905081105f613222565b61321792919a506132d29060203d6020116112fa576112eb8183610b8c565b999091613207565b60209196506132f2903d805f833e6128db8183610b8c565b95906131c9565b61330e9193503d805f833e6118288183610b8c565b915f613188565b96949091929580946002549661332a88612afd565b60025561333e885f525f60205260405f2090565b80547fffffffffffffffffffffffff0000000000000000000000000000000000000000166001600160a01b038c16178155916001830180547fffffffffffffffffffffffff0000000000000000000000000000000000000000166001600160a01b0388161790556002830180547fffffffffffffffffffffffff0000000000000000000000000000000000000000166001600160a01b0389161781559182547fffffffffffffffffffffff00ffffffffffffffffffffffffffffffffffffffff16835582547fffffffffffffffffffff00ffffffffffffffffffffffffffffffffffffffffff1690151560a81b75ff0000000000000000000000000000000000000000001617825581547fffffffffff00000000ffffffffffffffffffffffffffffffffffffffffffffff1660b89190911b7affffffff0000000000000000000000000000000000000000000000161790556003810180547fffffffffffffffffffffffffffffffffffffffffffffffff00000000000000001667ffffffffffffffff431617815580547fffffffffffffffffffffffffffffffff0000000000000000ffffffffffffffff16604085901b6fffffffffffffffff00000000000000001617905587600482015560050155613529836001600160a01b03165f52600160205260405f2090565b8560018201918254906002019061354791905f5260205260405f2090565b5580546001019055836003549061355d91612592565b600355604051936001600160a01b03859416976001600160a01b031696612e009385909493926080926001600160a01b0360a08401971683525f6020840152604083015260608201520152565b90805f525f6020526135d8600560405f2001549280545f52600281016020525f604081205560018154019055565b5f525f60205261360860405f2060055f918281558260018201558260028201558260038201558260048201550155565b80613611575050565b6003549181830392831161053d576102c892600355611c35565b9367ffffffffffffffff936001600160a01b03602098948161368d951688527f2502e388000000000000000000000000000000000000000000000000000000008a8901521660408701526060860152610120608086015261012085019061212e565b9360a0840152600160c08401521660e08201526101008183039101525f81520190565b93949290926002830154906136cb826001600160a01b031690565b84546001600160a01b03169360048601948554936136ed8660ff9060a81c1690565b1561391657925b6001600160a01b03811690604051967f6ff97f1d0000000000000000000000000000000000000000000000000000000088525f88600481865afa978815610278575f986138e8575b508461375c9288866137568a9563ffffffff9060b81c1690565b9261313a565b9891939192906001600160a01b0388166138de5761377c5f5b8785614413565b60018c01546001600160a01b03169b6003019b8c546137a69067ffffffffffffffff9060401c1690565b6040517f8678102f0000000000000000000000000000000000000000000000000000000081529b8c9485946137df94306004880161362b565b03815a6040945f91f15f97816138bc575b5061386d575050505050505050613805611ccd565b6308c379a014613832575b5061382e925061381e611bd8565b50613827612aec565b33916124a1565b5f90565b61383a611ce8565b90816138465750613810565b9161386761382e95949293613859612aec565b5467ffffffffffffffff1690565b9161452d565b9091929394975061388395989a50989598614437565b8183146138a55750613896929350610c1d565b90556138a0612aec565b600190565b925050506138b49133916135aa565b61382e612aec565b6138d691985060403d604011612450576124418183610b8c565b50965f6137f0565b61377c6003613775565b8691985061375c9288866137566139098a953d805f833e6118288183610b8c565b9c9550505050925061373c565b505f926136f4565b9495929390936002830154613939816001600160a01b031690565b9161394b85546001600160a01b031690565b6004860195865494613964611dba8660ff9060b01c1690565b9860a886901c60ff1615613ba857935b6001600160a01b03821691604051967f6ff97f1d0000000000000000000000000000000000000000000000000000000088525f88600481875afa91821561027857898d888d946139ed976139d86116b96139e79f8f9a87915f91613b9457506114d7565b9d8e9260b81c63ffffffff1690565b95612913565b9a9091936001600160a01b038716155f14613b8a57613a0e5f5b8786614413565b60018101546001600160a01b0316906003019b8c54613a389067ffffffffffffffff9060401c1690565b6040517f8258a8560000000000000000000000000000000000000000000000000000000081523060048201527f2502e3880000000000000000000000000000000000000000000000000000000060248201526001600160a01b039390931660448401526064830193909352608482019390935260a481019490945260c4840191909152600160e484015267ffffffffffffffff166101048301526101406101248301525f61014483015281610164815a6080945f91f195865f925f98613b61575b50613b0e575050505050505050613805611ccd565b919395989a508092949750989598613b39575b50505050508183146138a55750613896929350610c1d565b613b4291614660565b9081613b4f575b80613b21565b613b589361468e565b5f808080613b49565b909750613b7e91925060803d60801161210a576120f78183610b8c565b5050919091965f613af9565b613a0e6003613a07565b6128e391503d805f833e6118288183610b8c565b505f93613974565b908160609103126100b0578051613bc6816102ac565b9160406020830151613bd781610e2d565b920151610be281610e2d565b6001600160a01b03168015613cad576040517f927da1050000000000000000000000000000000000000000000000000000000081526001600160a01b03938416600482015291909216602482015230604482015290606090829060649082905afa8015610278575f915f91613c73575b5065ffffffffffff164211613c6e576001600160a01b031690565b505f90565b65ffffffffffff9250613c9e915060603d606011613ca6575b613c968183610b8c565b810190613bb0565b509091613c53565b503d613c8c565b506040517fdd62ed3e0000000000000000000000000000000000000000000000000000000081526001600160a01b0392831660048201523060248201529160209183916044918391165afa908115610278575f91613d09575090565b610be2915060203d6020116112fa576112eb8183610b8c565b51906102c8826102ac565b51906102c8826102ca565b51906102c88261054c565b90816101209103126100b057613dd8610100613d5d611098565b92613d6781613d22565b8452613d7560208201613d22565b6020850152613d8660408201613d22565b60408501526060810151606085015260808101516080850152613dab60a08201613d2d565b60a0850152613dbc60c08201613d38565b60c0850152613dcd60e08201613d2d565b60e085015201613d2d565b61010082015290565b519081600f0b82036100b057565b519067ffffffffffffffff821682036100b057565b908160a09103126100b0576040519060a0820182811067ffffffffffffffff82111761067857613e7891608091604052613e3d81613de1565b8452613e4b60208201613def565b6020850152613e5c60408201613de1565b6040850152613e6d60608201613de1565b606085015201613def565b608082015290565b90600f0b90600f0b03906f7fffffffffffffffffffffffffffffff82137fffffffffffffffffffffffffffffffff8000000000000000000000000000000083121761053d57565b6001600160a01b03166040517ffdf5366500000000000000000000000000000000000000000000000000000000815261012081600481855afa908115610278575f91614057575b50604051907fc051e38a00000000000000000000000000000000000000000000000000000000825260a082600481865afa801561027857613f9a60e0613f8e613f9f93613fa4965f91614028575b50613f806080613f706060840151600f0b90565b92015167ffffffffffffffff1690565b60c087015160ff1691614774565b93015163ffffffff1690565b61484f565b613e80565b5f81600f0b131561401f576020600492604051938480927f18160ddd0000000000000000000000000000000000000000000000000000000082525afa90811561027857613ff8925f92613ffe575b506149d8565b90811590565b61401891925060203d6020116112fa576112eb8183610b8c565b905f613ff2565b50505f90600190565b61404a915060a03d60a011614050575b6140428183610b8c565b810190613e04565b5f613f5c565b503d614038565b61407991506101203d811161407f575b6140718183610b8c565b810190613d43565b5f613f0e565b503d614067565b959391909286519361409785612f04565b965f19986140a486612580565b925f5b8881106140b957505050505050505050565b6140c96101f86116b983866114d7565b6040517f70a082310000000000000000000000000000000000000000000000000000000081526001600160a01b038416600482015290602090829060249082905afa9081156102785787918d84925f926141e0575b50819261412a916114d7565b526141428461413c6116b986896114d7565b88613be3565b808210156141d957505b86818b1515806141c3575b6141ae575b5050614168838a6114d7565b51614178575b50506001016140a7565b614196916141859161256d565b61418f838a6114d7565b519061259f565b8c81106141a5575b869061416e565b9b50600161419e565b6141bc925061287690612553565b865f61415c565b50620f42406141d28d8361256d565b1015614157565b905061414c565b61412a9192506141fd9060203d81116112fa576112eb8183610b8c565b919061411e565b156100b057565b90801591826100b05761422f6fffffffffffffffffffffffffffffffff9315614204565b77ffffffffffffffffffffffffffffffffffffffffffffffff811161428a5761425b919060401b61259f565b61426782821115614204565b166142846f7fffffffffffffffffffffffffffffff821115614204565b600f0b90565b60c09161430e82841c93846401000000008110156143cb575b806201000060029210156143bf575b6101008110156143b3575b60108110156143a7575b600481101561439b575b1015614393575b8360015f1985017fffffffffffffffffffffffffffffffffffffffffffffffffffffffffffffff4184011c019160ff031b61259f565b9261431b85851115614204565b6143258260801c90565b840290858316850290614339819560401b90565b90828210614388575b50039261434f8260801b90565b9182851061437d575b60801c036143725761436a920361259f565b905b0161425b565b50505060019061436c565b5f1990910190614358565b5f190194505f614342565b6001016142d8565b9181019160021c6142d1565b6004928301921c6142c7565b6008928301921c6142bd565b6010928301921c6142b2565b60e0915060201c6142a3565b9067ffffffffffffffff6143eb82846149d8565b9216801561440e5767ffffffffffffffff80921602166144085790565b60010190565b505090565b906144296001600160a01b0360015c1615612a5f565b5f5d60015d3460025d60035d565b91939092938251935f5b8581106144515750505050505050565b61445b81836114d7565b519061446d6101f86116b983896114d7565b6040517f70a082310000000000000000000000000000000000000000000000000000000081526001600160a01b038616600482015290602090829060249082905afa8015610278576001936144c9925f9261450d575b50610c1d565b88816144d8575b505001614441565b6144e191614660565b85816144ef575b50886144d0565b61450691866145016116b9868c6114d7565b61468e565b5f856144e8565b61452691925060203d81116112fa576112eb8183610b8c565b905f6144c3565b9190928051917f19fb65e971d6578b6e960dc635ad47d96b3607ad493bd55450cb8b6e5ba72fef60208301938420146146015760ff61456b83612e26565b1695866145b75750507f604275325a801e3d7fffc8f55adfec06e3fa4f5845e49ced687e1671a26c9d4092939450519020146145ac576102c89133916124a1565b6102c891339161245e565b92509294600191501491826145e3575b5050156145da57906102c89133916124e4565b6102c891614a33565b6145f991925067ffffffffffffffff1643610c1d565b115f806145c7565b6040517f08c379a000000000000000000000000000000000000000000000000000000000815260206004820152600660248201527f6b696c6c656400000000000000000000000000000000000000000000000000006044820152606490fd5b9081158015614686575b61468057620f4240808281850602049204020190565b50505f90565b50801561466a565b9091926001600160a01b0316155f1461471657303b156100b0576040517f877347e50000000000000000000000000000000000000000000000000000000081526001600160a01b0391821660048201529116602482015233604482015260648101919091525f8180608481015b038183305af16147085750565b806112c45f6102c893610b8c565b303b156100b0576040517ff539fcb60000000000000000000000000000000000000000000000000000000081526001600160a01b0391821660048201529116602482015233604482015260648101919091525f8180608481016146fb565b9291909261478d67ffffffffffffffff82951643610c1d565b9182151580614843575b6147a057505050565b9293509091604060ff82161b80841161483b575b50680100000000000000009083906147d59060ff1683901d600f0b83613e80565b91935b6147fa575050906147e891614a6f565b905f82600f0b126147f557565b5f9150565b60018116614825575b60011c5b80614813575b806147d8565b61481e828293614a6f565b915061480d565b926148338261480792614a6f565b939050614803565b92505f6147b4565b5081600f0b1515614797565b63ffffffff6fffffffffffffffffffffffffffffffff91166148716001614204565b77ffffffffffffffffffffffffffffffffffffffffffffffff81116148a157620f424061287661425b9260401b90565b60c061492482821c91826401000000008110156149cc575b806201000060029210156149c0575b6101008110156149b4575b60108110156149a8575b600481101561499c575b1015614994575b836001620f423f7fffffffffffffffffffffffffffffffffffffffffffffffffffffffffffffff4184011c019160ff031b61259f565b9161493184841115614204565b5f9190620f424084029060401b82828210614989575b5003906149548360801b90565b9283831061497e575b60801c036149745761436a91620f4240910361259f565b505060019061436c565b5f199091019061495d565b5f190192505f614947565b6001016148ee565b9181019160021c6148e7565b6004928301921c6148dd565b6008928301921c6148d3565b6010928301921c6148c8565b60e0915060201c6148b9565b811561468057600f0b5f81126100b0576fffffffffffffffffffffffffffffffff8216810260401c9160801c0277ffffffffffffffffffffffffffffffffffffffffffffffff81116100b05760401b811981116100b0570190565b90614a528280545f52600281016020525f604081205560018154019055565b6002600183019283545f520160205260405f205560018154019055565b90600f0b90600f0b0260401d7fffffffffffffffffffffffffffffffff8000000000000000000000000000000081121580614ab0575b156100b057600f0b90565b506f7fffffffffffffffffffffffffffffff811315614aa556fea2646970667358221220ddbe8a92e51bc5b48f62a839b81ba38c842de1869d78a1c701bc54d56eee458264736f6c63430008230033","linkReferences":{}},"methodIdentifiers":{"cancelMintRequest(uint256)":"3638419b","escrowedNativeFees()":"b43b5144","executeMints(IPartyPool,uint256,IPartyInfo,uint256,uint256,IPermit2)":"cc7d3d86","getMintRequest(uint256)":"b69b22d8","isMintRequestLive(uint256)":"6bf459ca","mintWithQueue(IPartyPool,address,uint256,uint32,bool,uint256,uint256,uint8,IPermit2)":"b012d55d","mintWithQueuePermit2Allowance(IPartyPool,address,uint256,uint32,uint256,uint256,IPermit2,IPermit2.PermitBatch,bytes)":"8b36594f","queueLength(IPartyPool)":"901dada7","swapMintWithQueue(IPartyPool,IPartyPlanner,IPartyInfo,IERC20,address,uint256,uint32,bool,uint256,uint256,uint8,IPermit2)":"dd044316","swapMintWithQueuePermit2Allowance(IPartyPool,IPartyPlanner,IPartyInfo,IERC20,address,uint256,uint32,uint256,uint256,IPermit2,IPermit2.PermitSingle,bytes)":"72beca64"},"id":47}